{
  "_format": "hh-sol-artifact-1",
  "contractName": "rentMarket",
  "sourceName": "contracts/rentMarket.sol",
  "abi": [
    {
      "inputs": [
        {
          "internalType": "bool",
          "name": "exclusive_",
          "type": "bool"
        }
      ],
      "stateMutability": "nonpayable",
      "type": "constructor"
    },
    {
      "anonymous": false,
      "inputs": [
        {
          "indexed": true,
          "internalType": "address",
          "name": "nftAddress",
          "type": "address"
        },
        {
          "indexed": true,
          "internalType": "uint256",
          "name": "tokenId",
          "type": "uint256"
        },
        {
          "indexed": false,
          "internalType": "uint256",
          "name": "rentFee",
          "type": "uint256"
        },
        {
          "indexed": false,
          "internalType": "address",
          "name": "feeTokenAddress",
          "type": "address"
        },
        {
          "indexed": false,
          "internalType": "uint256",
          "name": "rentFeeByToken",
          "type": "uint256"
        },
        {
          "indexed": false,
          "internalType": "uint256",
          "name": "rentDuration",
          "type": "uint256"
        },
        {
          "indexed": false,
          "internalType": "address",
          "name": "NFTOwnerAddress",
          "type": "address"
        },
        {
          "indexed": true,
          "internalType": "address",
          "name": "changerAddress",
          "type": "address"
        }
      ],
      "name": "ChangeNFT",
      "type": "event"
    },
    {
      "anonymous": false,
      "inputs": [
        {
          "indexed": true,
          "internalType": "address",
          "name": "sender",
          "type": "address"
        }
      ],
      "name": "Fallback",
      "type": "event"
    },
    {
      "anonymous": false,
      "inputs": [
        {
          "indexed": true,
          "internalType": "address",
          "name": "previousOwner",
          "type": "address"
        },
        {
          "indexed": true,
          "internalType": "address",
          "name": "newOwner",
          "type": "address"
        }
      ],
      "name": "OwnershipTransferred",
      "type": "event"
    },
    {
      "anonymous": false,
      "inputs": [
        {
          "indexed": false,
          "internalType": "address",
          "name": "account",
          "type": "address"
        }
      ],
      "name": "Paused",
      "type": "event"
    },
    {
      "anonymous": false,
      "inputs": [
        {
          "indexed": true,
          "internalType": "address",
          "name": "sender",
          "type": "address"
        },
        {
          "indexed": true,
          "internalType": "uint256",
          "name": "value",
          "type": "uint256"
        }
      ],
      "name": "Receive",
      "type": "event"
    },
    {
      "anonymous": false,
      "inputs": [
        {
          "indexed": true,
          "internalType": "address",
          "name": "collectionAddress",
          "type": "address"
        },
        {
          "indexed": false,
          "internalType": "string",
          "name": "uri",
          "type": "string"
        }
      ],
      "name": "RegisterCollection",
      "type": "event"
    },
    {
      "anonymous": false,
      "inputs": [
        {
          "indexed": true,
          "internalType": "address",
          "name": "nftAddress",
          "type": "address"
        },
        {
          "indexed": true,
          "internalType": "uint256",
          "name": "tokenId",
          "type": "uint256"
        },
        {
          "indexed": false,
          "internalType": "uint256",
          "name": "rentFee",
          "type": "uint256"
        },
        {
          "indexed": false,
          "internalType": "uint256",
          "name": "rentDuration",
          "type": "uint256"
        },
        {
          "indexed": true,
          "internalType": "address",
          "name": "NFTOwnerAddress",
          "type": "address"
        }
      ],
      "name": "RegisterNFT",
      "type": "event"
    },
    {
      "anonymous": false,
      "inputs": [
        {
          "indexed": true,
          "internalType": "address",
          "name": "serviceAddress",
          "type": "address"
        },
        {
          "indexed": false,
          "internalType": "string",
          "name": "uri",
          "type": "string"
        }
      ],
      "name": "RegisterService",
      "type": "event"
    },
    {
      "anonymous": false,
      "inputs": [
        {
          "indexed": true,
          "internalType": "address",
          "name": "tokenAddress",
          "type": "address"
        },
        {
          "indexed": false,
          "internalType": "string",
          "name": "name",
          "type": "string"
        }
      ],
      "name": "RegisterToken",
      "type": "event"
    },
    {
      "anonymous": false,
      "inputs": [
        {
          "indexed": true,
          "internalType": "address",
          "name": "nftAddress",
          "type": "address"
        },
        {
          "indexed": true,
          "internalType": "uint256",
          "name": "tokenId",
          "type": "uint256"
        },
        {
          "indexed": false,
          "internalType": "uint256",
          "name": "rentFee",
          "type": "uint256"
        },
        {
          "indexed": false,
          "internalType": "address",
          "name": "feeTokenAddress",
          "type": "address"
        },
        {
          "indexed": false,
          "internalType": "uint256",
          "name": "rentFeeByToken",
          "type": "uint256"
        },
        {
          "indexed": false,
          "internalType": "bool",
          "name": "isRentByToken",
          "type": "bool"
        },
        {
          "indexed": false,
          "internalType": "uint256",
          "name": "rentDuration",
          "type": "uint256"
        },
        {
          "indexed": false,
          "internalType": "address",
          "name": "renterAddress",
          "type": "address"
        },
        {
          "indexed": true,
          "internalType": "address",
          "name": "renteeAddress",
          "type": "address"
        },
        {
          "indexed": false,
          "internalType": "address",
          "name": "serviceAddress",
          "type": "address"
        },
        {
          "indexed": false,
          "internalType": "uint256",
          "name": "rentStartTimestamp",
          "type": "uint256"
        }
      ],
      "name": "RentNFT",
      "type": "event"
    },
    {
      "anonymous": false,
      "inputs": [
        {
          "indexed": true,
          "internalType": "address",
          "name": "nftAddress",
          "type": "address"
        },
        {
          "indexed": true,
          "internalType": "uint256",
          "name": "tokenId",
          "type": "uint256"
        },
        {
          "indexed": false,
          "internalType": "uint256",
          "name": "rentFee",
          "type": "uint256"
        },
        {
          "indexed": false,
          "internalType": "address",
          "name": "feeTokenAddress",
          "type": "address"
        },
        {
          "indexed": false,
          "internalType": "uint256",
          "name": "rentFeeByToken",
          "type": "uint256"
        },
        {
          "indexed": false,
          "internalType": "bool",
          "name": "isRentByToken",
          "type": "bool"
        },
        {
          "indexed": false,
          "internalType": "uint256",
          "name": "rentDuration",
          "type": "uint256"
        },
        {
          "indexed": false,
          "internalType": "address",
          "name": "renterAddress",
          "type": "address"
        },
        {
          "indexed": true,
          "internalType": "address",
          "name": "renteeAddress",
          "type": "address"
        },
        {
          "indexed": false,
          "internalType": "address",
          "name": "serviceAddress",
          "type": "address"
        },
        {
          "indexed": false,
          "internalType": "uint256",
          "name": "rentStartTimestamp",
          "type": "uint256"
        }
      ],
      "name": "SettleRentData",
      "type": "event"
    },
    {
      "anonymous": false,
      "inputs": [
        {
          "indexed": false,
          "internalType": "address",
          "name": "account",
          "type": "address"
        }
      ],
      "name": "Unpaused",
      "type": "event"
    },
    {
      "anonymous": false,
      "inputs": [
        {
          "indexed": true,
          "internalType": "address",
          "name": "collectionAddress",
          "type": "address"
        },
        {
          "indexed": false,
          "internalType": "string",
          "name": "uri",
          "type": "string"
        }
      ],
      "name": "UnregisterCollection",
      "type": "event"
    },
    {
      "anonymous": false,
      "inputs": [
        {
          "indexed": true,
          "internalType": "address",
          "name": "nftAddress",
          "type": "address"
        },
        {
          "indexed": true,
          "internalType": "uint256",
          "name": "tokenId",
          "type": "uint256"
        },
        {
          "indexed": false,
          "internalType": "uint256",
          "name": "rentFee",
          "type": "uint256"
        },
        {
          "indexed": false,
          "internalType": "address",
          "name": "feeTokenAddress",
          "type": "address"
        },
        {
          "indexed": false,
          "internalType": "uint256",
          "name": "rentFeeByToken",
          "type": "uint256"
        },
        {
          "indexed": false,
          "internalType": "uint256",
          "name": "rentDuration",
          "type": "uint256"
        },
        {
          "indexed": false,
          "internalType": "address",
          "name": "NFTOwnerAddress",
          "type": "address"
        },
        {
          "indexed": true,
          "internalType": "address",
          "name": "UnregisterAddress",
          "type": "address"
        }
      ],
      "name": "UnregisterNFT",
      "type": "event"
    },
    {
      "anonymous": false,
      "inputs": [
        {
          "indexed": true,
          "internalType": "address",
          "name": "serviceAddress",
          "type": "address"
        },
        {
          "indexed": false,
          "internalType": "string",
          "name": "uri",
          "type": "string"
        }
      ],
      "name": "UnregisterService",
      "type": "event"
    },
    {
      "anonymous": false,
      "inputs": [
        {
          "indexed": true,
          "internalType": "address",
          "name": "tokenAddress",
          "type": "address"
        },
        {
          "indexed": false,
          "internalType": "string",
          "name": "name",
          "type": "string"
        }
      ],
      "name": "UnregisterToken",
      "type": "event"
    },
    {
      "anonymous": false,
      "inputs": [
        {
          "indexed": true,
          "internalType": "address",
          "name": "nftAddress",
          "type": "address"
        },
        {
          "indexed": true,
          "internalType": "uint256",
          "name": "tokenId",
          "type": "uint256"
        },
        {
          "indexed": false,
          "internalType": "uint256",
          "name": "rentFee",
          "type": "uint256"
        },
        {
          "indexed": false,
          "internalType": "address",
          "name": "feeTokenAddress",
          "type": "address"
        },
        {
          "indexed": false,
          "internalType": "uint256",
          "name": "rentFeeByToken",
          "type": "uint256"
        },
        {
          "indexed": false,
          "internalType": "bool",
          "name": "isRentByToken",
          "type": "bool"
        },
        {
          "indexed": false,
          "internalType": "uint256",
          "name": "rentDuration",
          "type": "uint256"
        },
        {
          "indexed": false,
          "internalType": "address",
          "name": "renterAddress",
          "type": "address"
        },
        {
          "indexed": true,
          "internalType": "address",
          "name": "renteeAddress",
          "type": "address"
        },
        {
          "indexed": false,
          "internalType": "address",
          "name": "serviceAddress",
          "type": "address"
        },
        {
          "indexed": false,
          "internalType": "uint256",
          "name": "rentStartTimestamp",
          "type": "uint256"
        }
      ],
      "name": "UnrentNFT",
      "type": "event"
    },
    {
      "anonymous": false,
      "inputs": [
        {
          "indexed": true,
          "internalType": "address",
          "name": "recipient",
          "type": "address"
        },
        {
          "indexed": true,
          "internalType": "address",
          "name": "tokenAddress",
          "type": "address"
        },
        {
          "indexed": true,
          "internalType": "uint256",
          "name": "amount",
          "type": "uint256"
        }
      ],
      "name": "WithdrawMyBalance",
      "type": "event"
    },
    {
      "stateMutability": "payable",
      "type": "fallback"
    },
    {
      "inputs": [
        {
          "internalType": "address",
          "name": "nftAddress",
          "type": "address"
        },
        {
          "internalType": "uint256",
          "name": "tokenId",
          "type": "uint256"
        },
        {
          "internalType": "uint256",
          "name": "rentFee",
          "type": "uint256"
        },
        {
          "internalType": "address",
          "name": "feeTokenAddress",
          "type": "address"
        },
        {
          "internalType": "uint256",
          "name": "rentFeeByToken",
          "type": "uint256"
        },
        {
          "internalType": "uint256",
          "name": "rentDuration",
          "type": "uint256"
        }
      ],
      "name": "changeNFT",
      "outputs": [
        {
          "internalType": "bool",
          "name": "success",
          "type": "bool"
        }
      ],
      "stateMutability": "nonpayable",
      "type": "function"
    },
    {
      "inputs": [],
      "name": "exclusive",
      "outputs": [
        {
          "internalType": "bool",
          "name": "",
          "type": "bool"
        }
      ],
      "stateMutability": "view",
      "type": "function"
    },
    {
      "inputs": [],
      "name": "getAllAccountBalance",
      "outputs": [
        {
          "components": [
            {
              "internalType": "address",
              "name": "accountAddress",
              "type": "address"
            },
            {
              "internalType": "address",
              "name": "tokenAddress",
              "type": "address"
            },
            {
              "internalType": "uint256",
              "name": "amount",
              "type": "uint256"
            }
          ],
          "internalType": "struct accountBalanceIterableMap.accountBalance[]",
          "name": "",
          "type": "tuple[]"
        }
      ],
      "stateMutability": "view",
      "type": "function"
    },
    {
      "inputs": [],
      "name": "getAllCollection",
      "outputs": [
        {
          "components": [
            {
              "internalType": "address",
              "name": "collectionAddress",
              "type": "address"
            },
            {
              "internalType": "string",
              "name": "uri",
              "type": "string"
            }
          ],
          "internalType": "struct collectionDataIterableMap.collectionData[]",
          "name": "",
          "type": "tuple[]"
        }
      ],
      "stateMutability": "view",
      "type": "function"
    },
    {
      "inputs": [],
      "name": "getAllPendingRentFee",
      "outputs": [
        {
          "components": [
            {
              "internalType": "address",
              "name": "renterAddress",
              "type": "address"
            },
            {
              "internalType": "address",
              "name": "serviceAddress",
              "type": "address"
            },
            {
              "internalType": "address",
              "name": "feeTokenAddress",
              "type": "address"
            },
            {
              "internalType": "uint256",
              "name": "amount",
              "type": "uint256"
            }
          ],
          "internalType": "struct pendingRentFeeIterableMap.pendingRentFee[]",
          "name": "",
          "type": "tuple[]"
        }
      ],
      "stateMutability": "view",
      "type": "function"
    },
    {
      "inputs": [],
      "name": "getAllRegisterData",
      "outputs": [
        {
          "components": [
            {
              "internalType": "address",
              "name": "nftAddress",
              "type": "address"
            },
            {
              "internalType": "uint256",
              "name": "tokenId",
              "type": "uint256"
            },
            {
              "internalType": "uint256",
              "name": "rentFee",
              "type": "uint256"
            },
            {
              "internalType": "address",
              "name": "feeTokenAddress",
              "type": "address"
            },
            {
              "internalType": "uint256",
              "name": "rentFeeByToken",
              "type": "uint256"
            },
            {
              "internalType": "uint256",
              "name": "rentDuration",
              "type": "uint256"
            }
          ],
          "internalType": "struct registerDataIterableMap.registerData[]",
          "name": "",
          "type": "tuple[]"
        }
      ],
      "stateMutability": "view",
      "type": "function"
    },
    {
      "inputs": [],
      "name": "getAllRentData",
      "outputs": [
        {
          "components": [
            {
              "internalType": "address",
              "name": "nftAddress",
              "type": "address"
            },
            {
              "internalType": "uint256",
              "name": "tokenId",
              "type": "uint256"
            },
            {
              "internalType": "uint256",
              "name": "rentFee",
              "type": "uint256"
            },
            {
              "internalType": "address",
              "name": "feeTokenAddress",
              "type": "address"
            },
            {
              "internalType": "uint256",
              "name": "rentFeeByToken",
              "type": "uint256"
            },
            {
              "internalType": "bool",
              "name": "isRentByToken",
              "type": "bool"
            },
            {
              "internalType": "uint256",
              "name": "rentDuration",
              "type": "uint256"
            },
            {
              "internalType": "address",
              "name": "renterAddress",
              "type": "address"
            },
            {
              "internalType": "address",
              "name": "renteeAddress",
              "type": "address"
            },
            {
              "internalType": "address",
              "name": "serviceAddress",
              "type": "address"
            },
            {
              "internalType": "uint256",
              "name": "rentStartTimestamp",
              "type": "uint256"
            }
          ],
          "internalType": "struct rentDataIterableMap.rentData[]",
          "name": "",
          "type": "tuple[]"
        }
      ],
      "stateMutability": "view",
      "type": "function"
    },
    {
      "inputs": [],
      "name": "getAllService",
      "outputs": [
        {
          "components": [
            {
              "internalType": "address",
              "name": "serviceAddress",
              "type": "address"
            },
            {
              "internalType": "string",
              "name": "uri",
              "type": "string"
            }
          ],
          "internalType": "struct serviceDataIterableMap.serviceData[]",
          "name": "",
          "type": "tuple[]"
        }
      ],
      "stateMutability": "view",
      "type": "function"
    },
    {
      "inputs": [],
      "name": "getAllToken",
      "outputs": [
        {
          "components": [
            {
              "internalType": "address",
              "name": "tokenAddress",
              "type": "address"
            },
            {
              "internalType": "string",
              "name": "name",
              "type": "string"
            }
          ],
          "internalType": "struct tokenDataIterableMap.tokenData[]",
          "name": "",
          "type": "tuple[]"
        }
      ],
      "stateMutability": "view",
      "type": "function"
    },
    {
      "inputs": [
        {
          "internalType": "address",
          "name": "collectionAddress",
          "type": "address"
        }
      ],
      "name": "getCollection",
      "outputs": [
        {
          "components": [
            {
              "internalType": "address",
              "name": "collectionAddress",
              "type": "address"
            },
            {
              "internalType": "string",
              "name": "uri",
              "type": "string"
            }
          ],
          "internalType": "struct collectionDataIterableMap.collectionData",
          "name": "",
          "type": "tuple"
        }
      ],
      "stateMutability": "view",
      "type": "function"
    },
    {
      "inputs": [],
      "name": "getFeeQuota",
      "outputs": [
        {
          "internalType": "uint256",
          "name": "renterFeeQuota",
          "type": "uint256"
        },
        {
          "internalType": "uint256",
          "name": "serviceFeeQuota",
          "type": "uint256"
        },
        {
          "internalType": "uint256",
          "name": "marketFeeQuota",
          "type": "uint256"
        }
      ],
      "stateMutability": "view",
      "type": "function"
    },
    {
      "inputs": [],
      "name": "getMarketShareAddress",
      "outputs": [
        {
          "internalType": "address",
          "name": "shareAddress",
          "type": "address"
        }
      ],
      "stateMutability": "view",
      "type": "function"
    },
    {
      "inputs": [
        {
          "internalType": "address",
          "name": "tokenAddress",
          "type": "address"
        }
      ],
      "name": "getMyBalance",
      "outputs": [
        {
          "internalType": "uint256",
          "name": "balance",
          "type": "uint256"
        }
      ],
      "stateMutability": "view",
      "type": "function"
    },
    {
      "inputs": [
        {
          "internalType": "address",
          "name": "nftAddress",
          "type": "address"
        },
        {
          "internalType": "uint256",
          "name": "tokenId",
          "type": "uint256"
        }
      ],
      "name": "getRegisterData",
      "outputs": [
        {
          "components": [
            {
              "internalType": "address",
              "name": "nftAddress",
              "type": "address"
            },
            {
              "internalType": "uint256",
              "name": "tokenId",
              "type": "uint256"
            },
            {
              "internalType": "uint256",
              "name": "rentFee",
              "type": "uint256"
            },
            {
              "internalType": "address",
              "name": "feeTokenAddress",
              "type": "address"
            },
            {
              "internalType": "uint256",
              "name": "rentFeeByToken",
              "type": "uint256"
            },
            {
              "internalType": "uint256",
              "name": "rentDuration",
              "type": "uint256"
            }
          ],
          "internalType": "struct registerDataIterableMap.registerData",
          "name": "",
          "type": "tuple"
        }
      ],
      "stateMutability": "view",
      "type": "function"
    },
    {
      "inputs": [
        {
          "internalType": "address",
          "name": "nftAddress",
          "type": "address"
        },
        {
          "internalType": "uint256",
          "name": "tokenId",
          "type": "uint256"
        }
      ],
      "name": "getRentData",
      "outputs": [
        {
          "components": [
            {
              "internalType": "address",
              "name": "nftAddress",
              "type": "address"
            },
            {
              "internalType": "uint256",
              "name": "tokenId",
              "type": "uint256"
            },
            {
              "internalType": "uint256",
              "name": "rentFee",
              "type": "uint256"
            },
            {
              "internalType": "address",
              "name": "feeTokenAddress",
              "type": "address"
            },
            {
              "internalType": "uint256",
              "name": "rentFeeByToken",
              "type": "uint256"
            },
            {
              "internalType": "bool",
              "name": "isRentByToken",
              "type": "bool"
            },
            {
              "internalType": "uint256",
              "name": "rentDuration",
              "type": "uint256"
            },
            {
              "internalType": "address",
              "name": "renterAddress",
              "type": "address"
            },
            {
              "internalType": "address",
              "name": "renteeAddress",
              "type": "address"
            },
            {
              "internalType": "address",
              "name": "serviceAddress",
              "type": "address"
            },
            {
              "internalType": "uint256",
              "name": "rentStartTimestamp",
              "type": "uint256"
            }
          ],
          "internalType": "struct rentDataIterableMap.rentData",
          "name": "",
          "type": "tuple"
        }
      ],
      "stateMutability": "view",
      "type": "function"
    },
    {
      "inputs": [
        {
          "internalType": "address",
          "name": "serviceAddress",
          "type": "address"
        }
      ],
      "name": "getService",
      "outputs": [
        {
          "components": [
            {
              "internalType": "address",
              "name": "serviceAddress",
              "type": "address"
            },
            {
              "internalType": "string",
              "name": "uri",
              "type": "string"
            }
          ],
          "internalType": "struct serviceDataIterableMap.serviceData",
          "name": "",
          "type": "tuple"
        }
      ],
      "stateMutability": "view",
      "type": "function"
    },
    {
      "inputs": [
        {
          "internalType": "address",
          "name": "account",
          "type": "address"
        }
      ],
      "name": "isOwnerOrRenter",
      "outputs": [
        {
          "internalType": "bool",
          "name": "success",
          "type": "bool"
        }
      ],
      "stateMutability": "view",
      "type": "function"
    },
    {
      "inputs": [],
      "name": "owner",
      "outputs": [
        {
          "internalType": "address",
          "name": "",
          "type": "address"
        }
      ],
      "stateMutability": "view",
      "type": "function"
    },
    {
      "inputs": [],
      "name": "pause",
      "outputs": [],
      "stateMutability": "nonpayable",
      "type": "function"
    },
    {
      "inputs": [],
      "name": "paused",
      "outputs": [
        {
          "internalType": "bool",
          "name": "",
          "type": "bool"
        }
      ],
      "stateMutability": "view",
      "type": "function"
    },
    {
      "inputs": [
        {
          "internalType": "address",
          "name": "collectionAddress",
          "type": "address"
        },
        {
          "internalType": "string",
          "name": "uri",
          "type": "string"
        }
      ],
      "name": "registerCollection",
      "outputs": [
        {
          "internalType": "bool",
          "name": "success",
          "type": "bool"
        }
      ],
      "stateMutability": "nonpayable",
      "type": "function"
    },
    {
      "inputs": [
        {
          "internalType": "address",
          "name": "nftAddress",
          "type": "address"
        },
        {
          "internalType": "uint256",
          "name": "tokenId",
          "type": "uint256"
        }
      ],
      "name": "registerNFT",
      "outputs": [
        {
          "internalType": "bool",
          "name": "success",
          "type": "bool"
        }
      ],
      "stateMutability": "nonpayable",
      "type": "function"
    },
    {
      "inputs": [
        {
          "internalType": "address",
          "name": "serviceAddress",
          "type": "address"
        },
        {
          "internalType": "string",
          "name": "uri",
          "type": "string"
        }
      ],
      "name": "registerService",
      "outputs": [
        {
          "internalType": "bool",
          "name": "success",
          "type": "bool"
        }
      ],
      "stateMutability": "nonpayable",
      "type": "function"
    },
    {
      "inputs": [
        {
          "internalType": "address",
          "name": "tokenAddress",
          "type": "address"
        },
        {
          "internalType": "string",
          "name": "name",
          "type": "string"
        }
      ],
      "name": "registerToken",
      "outputs": [
        {
          "internalType": "bool",
          "name": "success",
          "type": "bool"
        }
      ],
      "stateMutability": "nonpayable",
      "type": "function"
    },
    {
      "inputs": [],
      "name": "renounceOwnership",
      "outputs": [],
      "stateMutability": "nonpayable",
      "type": "function"
    },
    {
      "inputs": [
        {
          "internalType": "address",
          "name": "nftAddress",
          "type": "address"
        },
        {
          "internalType": "uint256",
          "name": "tokenId",
          "type": "uint256"
        },
        {
          "internalType": "address",
          "name": "serviceAddress",
          "type": "address"
        }
      ],
      "name": "rentNFT",
      "outputs": [
        {
          "internalType": "bool",
          "name": "success",
          "type": "bool"
        }
      ],
      "stateMutability": "payable",
      "type": "function"
    },
    {
      "inputs": [
        {
          "internalType": "address",
          "name": "nftAddress",
          "type": "address"
        },
        {
          "internalType": "uint256",
          "name": "tokenId",
          "type": "uint256"
        },
        {
          "internalType": "address",
          "name": "serviceAddress",
          "type": "address"
        }
      ],
      "name": "rentNFTByToken",
      "outputs": [
        {
          "internalType": "bool",
          "name": "success",
          "type": "bool"
        }
      ],
      "stateMutability": "payable",
      "type": "function"
    },
    {
      "inputs": [
        {
          "internalType": "uint256",
          "name": "renterFeeQuota",
          "type": "uint256"
        },
        {
          "internalType": "uint256",
          "name": "serviceFeeQuota",
          "type": "uint256"
        },
        {
          "internalType": "uint256",
          "name": "marketFeeQuota",
          "type": "uint256"
        }
      ],
      "name": "setFeeQuota",
      "outputs": [],
      "stateMutability": "nonpayable",
      "type": "function"
    },
    {
      "inputs": [
        {
          "internalType": "address",
          "name": "shareAddress",
          "type": "address"
        }
      ],
      "name": "setMarketShareAddress",
      "outputs": [],
      "stateMutability": "nonpayable",
      "type": "function"
    },
    {
      "inputs": [
        {
          "internalType": "address",
          "name": "nftAddress",
          "type": "address"
        },
        {
          "internalType": "uint256",
          "name": "tokenId",
          "type": "uint256"
        }
      ],
      "name": "settleRentData",
      "outputs": [
        {
          "internalType": "bool",
          "name": "success",
          "type": "bool"
        }
      ],
      "stateMutability": "nonpayable",
      "type": "function"
    },
    {
      "inputs": [
        {
          "internalType": "address",
          "name": "newOwner",
          "type": "address"
        }
      ],
      "name": "transferOwnership",
      "outputs": [],
      "stateMutability": "nonpayable",
      "type": "function"
    },
    {
      "inputs": [],
      "name": "unpause",
      "outputs": [],
      "stateMutability": "nonpayable",
      "type": "function"
    },
    {
      "inputs": [
        {
          "internalType": "address",
          "name": "collectionAddress",
          "type": "address"
        }
      ],
      "name": "unregisterCollection",
      "outputs": [
        {
          "internalType": "bool",
          "name": "success",
          "type": "bool"
        }
      ],
      "stateMutability": "nonpayable",
      "type": "function"
    },
    {
      "inputs": [
        {
          "internalType": "address",
          "name": "nftAddress",
          "type": "address"
        },
        {
          "internalType": "uint256",
          "name": "tokenId",
          "type": "uint256"
        }
      ],
      "name": "unregisterNFT",
      "outputs": [
        {
          "internalType": "bool",
          "name": "success",
          "type": "bool"
        }
      ],
      "stateMutability": "nonpayable",
      "type": "function"
    },
    {
      "inputs": [
        {
          "internalType": "address",
          "name": "serviceAddress",
          "type": "address"
        }
      ],
      "name": "unregisterService",
      "outputs": [
        {
          "internalType": "bool",
          "name": "success",
          "type": "bool"
        }
      ],
      "stateMutability": "nonpayable",
      "type": "function"
    },
    {
      "inputs": [
        {
          "internalType": "address",
          "name": "tokenAddress",
          "type": "address"
        }
      ],
      "name": "unregisterToken",
      "outputs": [
        {
          "internalType": "bool",
          "name": "success",
          "type": "bool"
        }
      ],
      "stateMutability": "nonpayable",
      "type": "function"
    },
    {
      "inputs": [
        {
          "internalType": "address",
          "name": "nftAddress",
          "type": "address"
        },
        {
          "internalType": "uint256",
          "name": "tokenId",
          "type": "uint256"
        }
      ],
      "name": "unrentNFT",
      "outputs": [
        {
          "internalType": "bool",
          "name": "success",
          "type": "bool"
        }
      ],
      "stateMutability": "nonpayable",
      "type": "function"
    },
    {
      "inputs": [
        {
          "internalType": "address",
          "name": "recipient",
          "type": "address"
        },
        {
          "internalType": "address",
          "name": "tokenAddress",
          "type": "address"
        }
      ],
      "name": "withdrawMyBalance",
      "outputs": [
        {
          "internalType": "bool",
          "name": "success",
          "type": "bool"
        }
      ],
      "stateMutability": "payable",
      "type": "function"
    },
    {
      "stateMutability": "payable",
      "type": "receive"
    }
  ],
  "bytecode": "0x6080604052670de0b6b3a76400006002556201518060035560236004556023600555601e6006553480156200003357600080fd5b50604051620096033803806200960383398181016040528101906200005991906200031e565b620000796200006d6200014160201b60201c565b6200014960201b60201c565b60008060146101000a81548160ff02191690831515021790555033600160006101000a81548173ffffffffffffffffffffffffffffffffffffffff021916908373ffffffffffffffffffffffffffffffffffffffff160217905550620001206040518060400160405280600c81526020017f6578636c75736976655f3a200000000000000000000000000000000000000000815250826200020d60201b62005b311760201c565b80601560006101000a81548160ff0219169083151502179055505062000439565b600033905090565b60008060009054906101000a900473ffffffffffffffffffffffffffffffffffffffff169050816000806101000a81548173ffffffffffffffffffffffffffffffffffffffff021916908373ffffffffffffffffffffffffffffffffffffffff1602179055508173ffffffffffffffffffffffffffffffffffffffff168173ffffffffffffffffffffffffffffffffffffffff167f8be0079c531659141344cd1fd0a4f28419497f9722a3daafe3b4186f6b6457e060405160405180910390a35050565b620002af82826040516024016200022692919062000405565b6040516020818303038152906040527fc3b55635000000000000000000000000000000000000000000000000000000007bffffffffffffffffffffffffffffffffffffffffffffffffffffffff19166020820180517bffffffffffffffffffffffffffffffffffffffffffffffffffffffff8381831617835250505050620002b360201b60201c565b5050565b60008151905060006a636f6e736f6c652e6c6f679050602083016000808483855afa5050505050565b600080fd5b60008115159050919050565b620002f881620002e1565b81146200030457600080fd5b50565b6000815190506200031881620002ed565b92915050565b600060208284031215620003375762000336620002dc565b5b6000620003478482850162000307565b91505092915050565b600081519050919050565b600082825260208201905092915050565b60005b838110156200038c5780820151818401526020810190506200036f565b838111156200039c576000848401525b50505050565b6000601f19601f8301169050919050565b6000620003c08262000350565b620003cc81856200035b565b9350620003de8185602086016200036c565b620003e981620003a2565b840191505092915050565b620003ff81620002e1565b82525050565b60006040820190508181036000830152620004218185620003b3565b9050620004326020830184620003f4565b9392505050565b6191ba80620004496000396000f3fe6080604052600436106102295760003560e01c80637e3ef7cd11610123578063d4002fed116100ab578063e8592fc71161006f578063e8592fc714610935578063ec51c0d114610972578063ee5afa521461099f578063eec31042146109c8578063f2fde38b146109f357610274565b8063d4002fed14610823578063d4fbeb1914610853578063e2fcbf7314610890578063e40de887146108bb578063e5d1420f146108f857610274565b806385e3c1d4116100f257806385e3c1d41461073a5780638bb72e83146107655780638da5cb5b1461079057806395dbd440146107bb578063adee9abd146107e657610274565b80637e3ef7cd1461067957806381ac825c146106b657806383b2f911146106e65780638456cb591461072357610274565b80633f4ba83a116101b15780636558fce6116101755780636558fce6146105805780636b4a0896146105bd57806370473d86146105fa578063715018a61461062557806377860cdd1461063c57610274565b80633f4ba83a146104995780634419ebb6146104b057806345d44eda146104ed5780634b6c05fa1461052a5780635c975abb1461055557610274565b806317a6b609116101f857806317a6b6091461039b5780631c2c2c24146103d85780632736a862146104035780632d7402261461042c5780632e6379ed1461046957610274565b806301ff74f7146102b957806306eb924f146102e457806315a5230214610321578063173cb9991461035e57610274565b3661027457343373ffffffffffffffffffffffffffffffffffffffff167fd6717f327e0cb88b4a97a7f67a453e9258252c34937ccbdd86de7cb840e7def360405160405180910390a3005b3373ffffffffffffffffffffffffffffffffffffffff167fdd0c5778ddb0b0501649417aeffed44057db3d5d530231758c8dc5ef6eeb789460405160405180910390a2005b3480156102c557600080fd5b506102ce610a1c565b6040516102db9190616595565b60405180910390f35b3480156102f057600080fd5b5061030b60048036038101906103069190616768565b610a2f565b6040516103189190616595565b60405180910390f35b34801561032d57600080fd5b50610348600480360381019061034391906167c4565b610c16565b60405161035591906168c5565b60405180910390f35b34801561036a57600080fd5b50610385600480360381019061038091906167c4565b610cb6565b6040516103929190616595565b60405180910390f35b3480156103a757600080fd5b506103c260048036038101906103bd919061691d565b610ee8565b6040516103cf9190616595565b60405180910390f35b3480156103e457600080fd5b506103ed61142a565b6040516103fa9190616b0c565b60405180910390f35b34801561040f57600080fd5b5061042a60048036038101906104259190616b2e565b611723565b005b34801561043857600080fd5b50610453600480360381019061044e9190616768565b61179e565b6040516104609190616595565b60405180910390f35b610483600480360381019061047e9190616b81565b611985565b6040516104909190616595565b60405180910390f35b3480156104a557600080fd5b506104ae611e73565b005b3480156104bc57600080fd5b506104d760048036038101906104d2919061691d565b611e85565b6040516104e49190616ca2565b60405180910390f35b3480156104f957600080fd5b50610514600480360381019061050f91906167c4565b611f24565b6040516105219190616595565b60405180910390f35b34801561053657600080fd5b5061053f61219f565b60405161054c9190616ccd565b60405180910390f35b34801561056157600080fd5b5061056a6121c9565b6040516105779190616595565b60405180910390f35b34801561058c57600080fd5b506105a760048036038101906105a29190616ce8565b6121df565b6040516105b49190616595565b60405180910390f35b3480156105c957600080fd5b506105e460048036038101906105df919061691d565b6125ae565b6040516105f19190616595565b60405180910390f35b34801561060657600080fd5b5061060f612dcc565b60405161061c9190616e9f565b60405180910390f35b34801561063157600080fd5b5061063a612f9d565b005b34801561064857600080fd5b50610663600480360381019061065e91906167c4565b612fb1565b6040516106709190616595565b60405180910390f35b34801561068557600080fd5b506106a0600480360381019061069b91906167c4565b61322c565b6040516106ad9190616ed0565b60405180910390f35b6106d060048036038101906106cb9190616eeb565b6132c3565b6040516106dd9190616595565b60405180910390f35b3480156106f257600080fd5b5061070d6004803603810190610708919061691d565b613a25565b60405161071a9190616fb9565b60405180910390f35b34801561072f57600080fd5b50610738613ac3565b005b34801561074657600080fd5b5061074f613ad5565b60405161075c91906170d3565b60405180910390f35b34801561077157600080fd5b5061077a613cba565b60405161078791906171f9565b60405180910390f35b34801561079c57600080fd5b506107a5613ec3565b6040516107b29190616ccd565b60405180910390f35b3480156107c757600080fd5b506107d0613eec565b6040516107dd919061731a565b60405180910390f35b3480156107f257600080fd5b5061080d600480360381019061080891906167c4565b6140d1565b60405161081a9190616595565b60405180910390f35b61083d60048036038101906108389190616eeb565b61434c565b60405161084a9190616595565b60405180910390f35b34801561085f57600080fd5b5061087a60048036038101906108759190616768565b614a9f565b6040516108879190616595565b60405180910390f35b34801561089c57600080fd5b506108a5614c86565b6040516108b2919061742d565b60405180910390f35b3480156108c757600080fd5b506108e260048036038101906108dd91906167c4565b614e39565b6040516108ef919061748c565b60405180910390f35b34801561090457600080fd5b5061091f600480360381019061091a919061691d565b614ed9565b60405161092c9190616595565b60405180910390f35b34801561094157600080fd5b5061095c6004803603810190610957919061691d565b615257565b6040516109699190616595565b60405180910390f35b34801561097e57600080fd5b50610987615863565b604051610996939291906174ae565b60405180910390f35b3480156109ab57600080fd5b506109c660048036038101906109c191906167c4565b61587c565b005b3480156109d457600080fd5b506109dd6158c8565b6040516109ea91906175e4565b60405180910390f35b3480156109ff57600080fd5b50610a1a6004803603810190610a1591906167c4565b615aad565b005b601560009054906101000a900460ff1681565b6000610a39615bcd565b610a41615c4b565b60001515600973__$79a40a2052c9947e027843e42106f8b048$__6360f353e19091866040518363ffffffff1660e01b8152600401610a8192919061761c565b60206040518083038186803b158015610a9957600080fd5b505af4158015610aad573d6000803e3d6000fd5b505050506040513d601f19601f82011682018060405250810190610ad19190617671565b151514610b13576040517f08c379a0000000000000000000000000000000000000000000000000000000008152600401610b0a906176fb565b60405180910390fd5b6000600973__$79a40a2052c9947e027843e42106f8b048$__63287af747909186866040518463ffffffff1660e01b8152600401610b5393929190617765565b60206040518083038186803b158015610b6b57600080fd5b505af4158015610b7f573d6000803e3d6000fd5b505050506040513d601f19601f82011682018060405250810190610ba39190617671565b9050600115158115151415610c0a578373ffffffffffffffffffffffffffffffffffffffff167fdcc2016b74f9e1be59c35f005623093f22ee185961aa79657be041dba04ed0a484604051610bf891906177dc565b60405180910390a26001915050610c10565b60009150505b92915050565b610c1e616307565b600b73__$a27ab5a2953dc10a9c552591268754b616$__631eb966b99091846040518363ffffffff1660e01b8152600401610c5a929190617805565b60006040518083038186803b158015610c7257600080fd5b505af4158015610c86573d6000803e3d6000fd5b505050506040513d6000823e3d601f19601f82011682018060405250810190610caf9190617929565b9050919050565b6000806060600080610cc66158c8565b905060005b8151811015610e2d576000828281518110610ce957610ce8617972565b5b60200260200101516000015190508073ffffffffffffffffffffffffffffffffffffffff1688604051602401610d1f9190616ccd565b6040516020818303038152906040527f70a08231000000000000000000000000000000000000000000000000000000007bffffffffffffffffffffffffffffffffffffffffffffffffffffffff19166020820180517bffffffffffffffffffffffffffffffffffffffffffffffffffffffff8381831617835250505050604051610da991906179e8565b600060405180830381855afa9150503d8060008114610de4576040519150601f19603f3d011682016040523d82523d6000602084013e610de9565b606091505b508096508197505050600085806020019051810190610e089190617a14565b90508085610e169190617a70565b945050508080610e2590617ac6565b915050610ccb565b506000821115610e44576001945050505050610ee3565b6000610e4e61142a565b905060005b8151811015610ed8576000828281518110610e7157610e70617972565b5b6020026020010151610100015190508873ffffffffffffffffffffffffffffffffffffffff168173ffffffffffffffffffffffffffffffffffffffff161415610ec4576001975050505050505050610ee3565b508080610ed090617ac6565b915050610e53565b506000955050505050505b919050565b6000610ef2615c4b565b60001515600d73__$aabfbf51bc7bf3b8af0580fb7224204a01$__634ecf2830909186866040518463ffffffff1660e01b8152600401610f3493929190617b25565b60206040518083038186803b158015610f4c57600080fd5b505af4158015610f60573d6000803e3d6000fd5b505050506040513d601f19601f82011682018060405250810190610f849190617671565b151514610fc6576040517f08c379a0000000000000000000000000000000000000000000000000000000008152600401610fbd90617ba8565b60405180910390fd5b6000610fd28433615c95565b90506000610fe08585615dd2565b90506110216040518060400160405280600c81526020017f697352656769737465723a20000000000000000000000000000000000000000081525083615b31565b6110606040518060400160405280600e81526020017f6f776e6572416464726573733a2000000000000000000000000000000000000081525082615f0b565b61109f6040518060400160405280600c81526020017f6d73672e73656e6465723a20000000000000000000000000000000000000000081525033615f0b565b6001151582151514806110dd57503373ffffffffffffffffffffffffffffffffffffffff168173ffffffffffffffffffffffffffffffffffffffff16145b80611177575060011515600973__$79a40a2052c9947e027843e42106f8b048$__6360f353e19091336040518363ffffffff1660e01b815260040161112392919061761c565b60206040518083038186803b15801561113b57600080fd5b505af415801561114f573d6000803e3d6000fd5b505050506040513d601f19601f820116820180604052508101906111739190617671565b1515145b6111b6576040517f08c379a00000000000000000000000000000000000000000000000000000000081526004016111ad90617c14565b60405180910390fd5b60011515600973__$79a40a2052c9947e027843e42106f8b048$__6360f353e19091886040518363ffffffff1660e01b81526004016111f692919061761c565b60206040518083038186803b15801561120e57600080fd5b505af4158015611222573d6000803e3d6000fd5b505050506040513d601f19601f820116820180604052508101906112469190617671565b151514611288576040517f08c379a000000000000000000000000000000000000000000000000000000000815260040161127f90617c80565b60405180910390fd5b600073ffffffffffffffffffffffffffffffffffffffff168173ffffffffffffffffffffffffffffffffffffffff1614156112f8576040517f08c379a00000000000000000000000000000000000000000000000000000000081526004016112ef90617cec565b60405180910390fd5b6000600d73__$aabfbf51bc7bf3b8af0580fb7224204a01$__63cddd4b67909188886002546000806003546040518863ffffffff1660e01b81526004016113459796959493929190617d51565b60206040518083038186803b15801561135d57600080fd5b505af4158015611371573d6000803e3d6000fd5b505050506040513d601f19601f820116820180604052508101906113959190617671565b905060011515811515141561141c578173ffffffffffffffffffffffffffffffffffffffff16858773ffffffffffffffffffffffffffffffffffffffff167f582e65d918b73308f2eb058e75e68168f22c49c2994530f72d46177c78435cbb600254600354604051611408929190617dc0565b60405180910390a460019350505050611424565b600093505050505b92915050565b60606000600f6001018054905067ffffffffffffffff8111156114505761144f61663d565b5b60405190808252806020026020018201604052801561148957816020015b611476616337565b81526020019060019003908161146e5790505b50905060005b600f6001018054905081101561171b57600f600001600f60010182815481106114bb576114ba617972565b5b906000526020600020016040516114d29190617ee9565b9081526020016040518091039020600101604051806101600160405290816000820160009054906101000a900473ffffffffffffffffffffffffffffffffffffffff1673ffffffffffffffffffffffffffffffffffffffff1673ffffffffffffffffffffffffffffffffffffffff16815260200160018201548152602001600282015481526020016003820160009054906101000a900473ffffffffffffffffffffffffffffffffffffffff1673ffffffffffffffffffffffffffffffffffffffff1673ffffffffffffffffffffffffffffffffffffffff168152602001600482015481526020016005820160009054906101000a900460ff16151515158152602001600682015481526020016007820160009054906101000a900473ffffffffffffffffffffffffffffffffffffffff1673ffffffffffffffffffffffffffffffffffffffff1673ffffffffffffffffffffffffffffffffffffffff1681526020016008820160009054906101000a900473ffffffffffffffffffffffffffffffffffffffff1673ffffffffffffffffffffffffffffffffffffffff1673ffffffffffffffffffffffffffffffffffffffff1681526020016009820160009054906101000a900473ffffffffffffffffffffffffffffffffffffffff1673ffffffffffffffffffffffffffffffffffffffff1673ffffffffffffffffffffffffffffffffffffffff168152602001600a820154815250508282815181106116fd576116fc617972565b5b6020026020010181905250808061171390617ac6565b91505061148f565b508091505090565b61172b615bcd565b606481838561173a9190617a70565b6117449190617a70565b14611784576040517f08c379a000000000000000000000000000000000000000000000000000000000815260040161177b90617f4c565b60405180910390fd5b826004819055508160058190555080600681905550505050565b60006117a8615bcd565b6117b0615c4b565b60001515600b73__$a27ab5a2953dc10a9c552591268754b616$__638c9a6cc39091866040518363ffffffff1660e01b81526004016117f0929190617805565b60206040518083038186803b15801561180857600080fd5b505af415801561181c573d6000803e3d6000fd5b505050506040513d601f19601f820116820180604052508101906118409190617671565b151514611882576040517f08c379a0000000000000000000000000000000000000000000000000000000008152600401611879906176fb565b60405180910390fd5b6000600b73__$a27ab5a2953dc10a9c552591268754b616$__639e9e21dc909186866040518463ffffffff1660e01b81526004016118c293929190617f6c565b60206040518083038186803b1580156118da57600080fd5b505af41580156118ee573d6000803e3d6000fd5b505050506040513d601f19601f820116820180604052508101906119129190617671565b9050600115158115151415611979578373ffffffffffffffffffffffffffffffffffffffff167f26e277514df07793f28eff0e6f05b34a8dc0be0012b50d1b6162ce3c958b0c4e8460405161196791906177dc565b60405180910390a2600191505061197f565b60009150505b92915050565b60008273ffffffffffffffffffffffffffffffffffffffff163373ffffffffffffffffffffffffffffffffffffffff1614806119f357506119c4613ec3565b73ffffffffffffffffffffffffffffffffffffffff163373ffffffffffffffffffffffffffffffffffffffff16145b611a32576040517f08c379a0000000000000000000000000000000000000000000000000000000008152600401611a2990617ff6565b60405180910390fd5b6000601373__$35fde6ac6f7fb08b81f20635e2dfbb2343$__63b52bf90f909186866040518463ffffffff1660e01b8152600401611a729392919061801d565b60206040518083038186803b158015611a8a57600080fd5b505af4158015611a9e573d6000803e3d6000fd5b505050506040513d601f19601f82011682018060405250810190611ac29190617a14565b90506000811115611e6b57600073ffffffffffffffffffffffffffffffffffffffff168373ffffffffffffffffffffffffffffffffffffffff161415611bb45760008473ffffffffffffffffffffffffffffffffffffffff1682604051611b289061807a565b60006040518083038185875af1925050503d8060008114611b65576040519150601f19603f3d011682016040523d82523d6000602084013e611b6a565b606091505b5050905080611bae576040517f08c379a0000000000000000000000000000000000000000000000000000000008152600401611ba5906180db565b60405180910390fd5b50611d5b565b60008373ffffffffffffffffffffffffffffffffffffffff1663095ea7b330846040518363ffffffff1660e01b8152600401611bf19291906180fb565b602060405180830381600087803b158015611c0b57600080fd5b505af1158015611c1f573d6000803e3d6000fd5b505050506040513d601f19601f82011682018060405250810190611c439190617671565b905080611c85576040517f08c379a0000000000000000000000000000000000000000000000000000000008152600401611c7c90618170565b60405180910390fd5b60008473ffffffffffffffffffffffffffffffffffffffff166323b872dd3088866040518463ffffffff1660e01b8152600401611cc493929190618190565b602060405180830381600087803b158015611cde57600080fd5b505af1158015611cf2573d6000803e3d6000fd5b505050506040513d601f19601f82011682018060405250810190611d169190617671565b905080611d58576040517f08c379a0000000000000000000000000000000000000000000000000000000008152600401611d4f90618213565b60405180910390fd5b50505b6000601373__$35fde6ac6f7fb08b81f20635e2dfbb2343$__63bc824a93909187876040518463ffffffff1660e01b8152600401611d9b9392919061801d565b60206040518083038186803b158015611db357600080fd5b505af4158015611dc7573d6000803e3d6000fd5b505050506040513d601f19601f82011682018060405250810190611deb9190617671565b9050600115158115151415611e6057818473ffffffffffffffffffffffffffffffffffffffff168673ffffffffffffffffffffffffffffffffffffffff167ff19b643806aff6923e6a83303f2c43467bb6e47487c68586ec0bcfb7097e8f7660405160405180910390a4600192505050611e6d565b600092505050611e6d565b505b92915050565b611e7b615bcd565b611e83615fa7565b565b611e8d616337565b600f73__$c9b49513854812b7b6c4b448b2aa4684e3$__63af8b7c81909185856040518463ffffffff1660e01b8152600401611ecb9392919061823a565b6101606040518083038186803b158015611ee457600080fd5b505af4158015611ef8573d6000803e3d6000fd5b505050506040513d601f19601f82011682018060405250810190611f1c919061837d565b905092915050565b6000611f2e615bcd565b60011515600b73__$a27ab5a2953dc10a9c552591268754b616$__638c9a6cc39091856040518363ffffffff1660e01b8152600401611f6e929190617805565b60206040518083038186803b158015611f8657600080fd5b505af4158015611f9a573d6000803e3d6000fd5b505050506040513d601f19601f82011682018060405250810190611fbe9190617671565b151514612000576040517f08c379a0000000000000000000000000000000000000000000000000000000008152600401611ff7906183f7565b60405180910390fd5b6000600b73__$a27ab5a2953dc10a9c552591268754b616$__631eb966b99091856040518363ffffffff1660e01b815260040161203e929190617805565b60006040518083038186803b15801561205657600080fd5b505af415801561206a573d6000803e3d6000fd5b505050506040513d6000823e3d601f19601f820116820180604052508101906120939190617929565b90506000600b73__$a27ab5a2953dc10a9c552591268754b616$__639877f7ea9091866040518363ffffffff1660e01b81526004016120d3929190617805565b60206040518083038186803b1580156120eb57600080fd5b505af41580156120ff573d6000803e3d6000fd5b505050506040513d601f19601f820116820180604052508101906121239190617671565b905060011515811515141561219357816000015173ffffffffffffffffffffffffffffffffffffffff167fd3bb6cf267814a3d42a12164c9ac01a59db6d9121ae676500da60fd56b086d3b836020015160405161218091906177dc565b60405180910390a260019250505061219a565b6000925050505b919050565b6000600160009054906101000a900473ffffffffffffffffffffffffffffffffffffffff16905090565b60008060149054906101000a900460ff16905090565b60006121e9615c4b565b60006121f58888615dd2565b90508073ffffffffffffffffffffffffffffffffffffffff163373ffffffffffffffffffffffffffffffffffffffff1614806122635750612234613ec3565b73ffffffffffffffffffffffffffffffffffffffff163373ffffffffffffffffffffffffffffffffffffffff16145b6122a2576040517f08c379a000000000000000000000000000000000000000000000000000000000815260040161229990618463565b60405180910390fd5b60011515600d73__$aabfbf51bc7bf3b8af0580fb7224204a01$__634ecf283090918b8b6040518463ffffffff1660e01b81526004016122e493929190617b25565b60206040518083038186803b1580156122fc57600080fd5b505af4158015612310573d6000803e3d6000fd5b505050506040513d601f19601f820116820180604052508101906123349190617671565b151514612376576040517f08c379a000000000000000000000000000000000000000000000000000000000815260040161236d906183f7565b60405180910390fd5b600073ffffffffffffffffffffffffffffffffffffffff168573ffffffffffffffffffffffffffffffffffffffff161461247d5760011515600773__$4fab912f99daae96c763763589e4636ca5$__63f82434d89091886040518363ffffffff1660e01b81526004016123ea92919061848a565b60206040518083038186803b15801561240257600080fd5b505af4158015612416573d6000803e3d6000fd5b505050506040513d601f19601f8201168201806040525081019061243a9190617671565b15151461247c576040517f08c379a000000000000000000000000000000000000000000000000000000000815260040161247390618213565b60405180910390fd5b5b6000600d73__$aabfbf51bc7bf3b8af0580fb7224204a01$__6327a7bcda90918b8b8b8b8b8b6040518863ffffffff1660e01b81526004016124c597969594939291906184b3565b60206040518083038186803b1580156124dd57600080fd5b505af41580156124f1573d6000803e3d6000fd5b505050506040513d601f19601f820116820180604052508101906125159190617671565b905060011515811515141561259d573373ffffffffffffffffffffffffffffffffffffffff16888a73ffffffffffffffffffffffffffffffffffffffff167f4388754cf451950a50e2520e86758fc59ec9e88a7f6a09f2db5de37d545639298a8a8a8a8960405161258a959493929190618522565b60405180910390a46001925050506125a4565b6000925050505b9695505050505050565b6000806000905060008060011515600f73__$c9b49513854812b7b6c4b448b2aa4684e3$__63e99a8e39909189896040518463ffffffff1660e01b81526004016125fa9392919061823a565b60206040518083038186803b15801561261257600080fd5b505af4158015612626573d6000803e3d6000fd5b505050506040513d601f19601f8201168201806040525081019061264a9190617671565b15151461268c576040517f08c379a0000000000000000000000000000000000000000000000000000000008152600401612683906185c1565b60405180910390fd5b3373ffffffffffffffffffffffffffffffffffffffff16600f73__$c9b49513854812b7b6c4b448b2aa4684e3$__63af8b7c81909189896040518463ffffffff1660e01b81526004016126e19392919061823a565b6101606040518083038186803b1580156126fa57600080fd5b505af415801561270e573d6000803e3d6000fd5b505050506040513d601f19601f82011682018060405250810190612732919061837d565b610100015173ffffffffffffffffffffffffffffffffffffffff16148061278b57503373ffffffffffffffffffffffffffffffffffffffff16612773613ec3565b73ffffffffffffffffffffffffffffffffffffffff16145b6127ca576040517f08c379a00000000000000000000000000000000000000000000000000000000081526004016127c19061862d565b60405180910390fd5b6000600f73__$c9b49513854812b7b6c4b448b2aa4684e3$__63af8b7c81909189896040518463ffffffff1660e01b815260040161280a9392919061823a565b6101606040518083038186803b15801561282357600080fd5b505af4158015612837573d6000803e3d6000fd5b505050506040513d601f19601f8201168201806040525081019061285b919061837d565b9050600115158160a001511515141561287a5780608001519150612882565b806040015191505b6000429050816101400151811180156128ae57508160c001518261014001516128ab9190617a70565b81105b1561298b576000826101400151826128c6919061864d565b90506128e181856128d79190618681565b8460c00151616009565b95506128ed848761601f565b9450601373__$35fde6ac6f7fb08b81f20635e2dfbb2343$__6338e6a0a890918561010001518660600151896040518563ffffffff1660e01b815260040161293894939291906186db565b60206040518083038186803b15801561295057600080fd5b505af4158015612964573d6000803e3d6000fd5b505050506040513d601f19601f820116820180604052508101906129889190617671565b50505b6000851115612bd55760006129ae600454876129a79190618681565b6064616009565b905060006129ca600554886129c39190618681565b6064616009565b905060008183896129db919061864d565b6129e5919061864d565b9050601373__$35fde6ac6f7fb08b81f20635e2dfbb2343$__6338e6a0a890918760e001518860600151876040518563ffffffff1660e01b8152600401612a2f94939291906186db565b60206040518083038186803b158015612a4757600080fd5b505af4158015612a5b573d6000803e3d6000fd5b505050506040513d601f19601f82011682018060405250810190612a7f9190617671565b50601373__$35fde6ac6f7fb08b81f20635e2dfbb2343$__6338e6a0a890918761012001518860600151866040518563ffffffff1660e01b8152600401612ac994939291906186db565b60206040518083038186803b158015612ae157600080fd5b505af4158015612af5573d6000803e3d6000fd5b505050506040513d601f19601f82011682018060405250810190612b199190617671565b50601373__$35fde6ac6f7fb08b81f20635e2dfbb2343$__6338e6a0a89091600160009054906101000a900473ffffffffffffffffffffffffffffffffffffffff168860600151856040518563ffffffff1660e01b8152600401612b8094939291906186db565b60206040518083038186803b158015612b9857600080fd5b505af4158015612bac573d6000803e3d6000fd5b505050506040513d601f19601f82011682018060405250810190612bd09190617671565b505050505b6000600f73__$c9b49513854812b7b6c4b448b2aa4684e3$__63af8b7c8190918b8b6040518463ffffffff1660e01b8152600401612c159392919061823a565b6101606040518083038186803b158015612c2e57600080fd5b505af4158015612c42573d6000803e3d6000fd5b505050506040513d601f19601f82011682018060405250810190612c66919061837d565b90506000600f73__$c9b49513854812b7b6c4b448b2aa4684e3$__637619764c90918c8c6040518463ffffffff1660e01b8152600401612ca89392919061823a565b60206040518083038186803b158015612cc057600080fd5b505af4158015612cd4573d6000803e3d6000fd5b505050506040513d601f19601f82011682018060405250810190612cf89190617671565b9050600115158115151415612dba5781610100015173ffffffffffffffffffffffffffffffffffffffff168260200151836000015173ffffffffffffffffffffffffffffffffffffffff167f1e47184299ef1ae0147489de864e2860294ab4125cb78ff3488bce09ea0192f68560400151866060015187608001518860a001518960c001518a60e001518b61012001518c6101400151604051612da2989796959493929190618720565b60405180910390a46001975050505050505050612dc6565b60009750505050505050505b92915050565b60606000600d6001018054905067ffffffffffffffff811115612df257612df161663d565b5b604051908082528060200260200182016040528015612e2b57816020015b612e18616401565b815260200190600190039081612e105790505b50905060005b600d60010180549050811015612f9557600d600001600d6001018281548110612e5d57612e5c617972565b5b90600052602060002001604051612e749190617ee9565b90815260200160405180910390206001016040518060c00160405290816000820160009054906101000a900473ffffffffffffffffffffffffffffffffffffffff1673ffffffffffffffffffffffffffffffffffffffff1673ffffffffffffffffffffffffffffffffffffffff16815260200160018201548152602001600282015481526020016003820160009054906101000a900473ffffffffffffffffffffffffffffffffffffffff1673ffffffffffffffffffffffffffffffffffffffff1673ffffffffffffffffffffffffffffffffffffffff16815260200160048201548152602001600582015481525050828281518110612f7757612f76617972565b5b60200260200101819052508080612f8d90617ac6565b915050612e31565b508091505090565b612fa5615bcd565b612faf6000616035565b565b6000612fbb615bcd565b60011515600773__$4fab912f99daae96c763763589e4636ca5$__63f82434d89091856040518363ffffffff1660e01b8152600401612ffb92919061848a565b60206040518083038186803b15801561301357600080fd5b505af4158015613027573d6000803e3d6000fd5b505050506040513d601f19601f8201168201806040525081019061304b9190617671565b15151461308d576040517f08c379a0000000000000000000000000000000000000000000000000000000008152600401613084906183f7565b60405180910390fd5b6000600773__$4fab912f99daae96c763763589e4636ca5$__63549d55c89091856040518363ffffffff1660e01b81526004016130cb92919061848a565b60006040518083038186803b1580156130e357600080fd5b505af41580156130f7573d6000803e3d6000fd5b505050506040513d6000823e3d601f19601f82011682018060405250810190613120919061880a565b90506000600773__$4fab912f99daae96c763763589e4636ca5$__6359c0255d9091866040518363ffffffff1660e01b815260040161316092919061848a565b60206040518083038186803b15801561317857600080fd5b505af415801561318c573d6000803e3d6000fd5b505050506040513d601f19601f820116820180604052508101906131b09190617671565b905060011515811515141561322057816000015173ffffffffffffffffffffffffffffffffffffffff167f037af5869c73bd98d861d265ed2fe7856d434102678eab240cfac53917ef4e83836020015160405161320d91906177dc565b60405180910390a2600192505050613227565b6000925050505b919050565b6000601373__$35fde6ac6f7fb08b81f20635e2dfbb2343$__63b52bf90f909133856040518463ffffffff1660e01b815260040161326c9392919061801d565b60206040518083038186803b15801561328457600080fd5b505af4158015613298573d6000803e3d6000fd5b505050506040513d601f19601f820116820180604052508101906132bc9190617a14565b9050919050565b60006132cd615c4b565b60011515600d73__$aabfbf51bc7bf3b8af0580fb7224204a01$__634ecf2830909187876040518463ffffffff1660e01b815260040161330f93929190617b25565b60206040518083038186803b15801561332757600080fd5b505af415801561333b573d6000803e3d6000fd5b505050506040513d601f19601f8201168201806040525081019061335f9190617671565b1515146133a1576040517f08c379a00000000000000000000000000000000000000000000000000000000081526004016133989061889f565b60405180910390fd5b60011515600b73__$a27ab5a2953dc10a9c552591268754b616$__638c9a6cc39091856040518363ffffffff1660e01b81526004016133e1929190617805565b60206040518083038186803b1580156133f957600080fd5b505af415801561340d573d6000803e3d6000fd5b505050506040513d601f19601f820116820180604052508101906134319190617671565b151514613473576040517f08c379a000000000000000000000000000000000000000000000000000000000815260040161346a9061890b565b60405180910390fd5b60011515601560009054906101000a900460ff16151514156135645760001515600f73__$c9b49513854812b7b6c4b448b2aa4684e3$__63e99a8e39909187876040518463ffffffff1660e01b81526004016134d19392919061823a565b60206040518083038186803b1580156134e957600080fd5b505af41580156134fd573d6000803e3d6000fd5b505050506040513d601f19601f820116820180604052508101906135219190617671565b151514613563576040517f08c379a000000000000000000000000000000000000000000000000000000000815260040161355a90618977565b60405180910390fd5b5b34600d73__$aabfbf51bc7bf3b8af0580fb7224204a01$__632c60a6e0909187876040518463ffffffff1660e01b81526004016135a393929190617b25565b60c06040518083038186803b1580156135bb57600080fd5b505af41580156135cf573d6000803e3d6000fd5b505050506040513d601f19601f820116820180604052508101906135f39190618a37565b6040015114613637576040517f08c379a000000000000000000000000000000000000000000000000000000000815260040161362e90618ab0565b60405180910390fd5b6000600d73__$aabfbf51bc7bf3b8af0580fb7224204a01$__632c60a6e0909187876040518463ffffffff1660e01b815260040161367793929190617b25565b60c06040518083038186803b15801561368f57600080fd5b505af41580156136a3573d6000803e3d6000fd5b505050506040513d601f19601f820116820180604052508101906136c79190618a37565b905060006136d58686615dd2565b90506136df616337565b86816000019073ffffffffffffffffffffffffffffffffffffffff16908173ffffffffffffffffffffffffffffffffffffffff16815250508581602001818152505082604001518160400181815250508260600151816060019073ffffffffffffffffffffffffffffffffffffffff16908173ffffffffffffffffffffffffffffffffffffffff1681525050826080015181608001818152505060008160a00190151590811515815250508260a001518160c0018181525050818160e0019073ffffffffffffffffffffffffffffffffffffffff16908173ffffffffffffffffffffffffffffffffffffffff16815250503381610100019073ffffffffffffffffffffffffffffffffffffffff16908173ffffffffffffffffffffffffffffffffffffffff16815250508481610120019073ffffffffffffffffffffffffffffffffffffffff16908173ffffffffffffffffffffffffffffffffffffffff168152505042816101400181815250506000600f73__$c9b49513854812b7b6c4b448b2aa4684e3$__6332ada61b9091846040518363ffffffff1660e01b815260040161388b929190618bde565b60206040518083038186803b1580156138a357600080fd5b505af41580156138b7573d6000803e3d6000fd5b505050506040513d601f19601f820116820180604052508101906138db9190617671565b9050600115158115151415613a1557601173__$cd3810e67fa8b653e5355050e47a521f6f$__6387a8696a909185896000346040518663ffffffff1660e01b815260040161392d959493929190618c0f565b60206040518083038186803b15801561394557600080fd5b505af4158015613959573d6000803e3d6000fd5b505050506040513d601f19601f8201168201806040525081019061397d9190617671565b503373ffffffffffffffffffffffffffffffffffffffff16878973ffffffffffffffffffffffffffffffffffffffff167ffe632cd15df82b5e105c28c0d0da9eb0228667912a4b1e430151d7c0d922775987604001518860600151896080015160008b60a001518b8f8c6101400151604051613a00989796959493929190618720565b60405180910390a46001945050505050613a1e565b60009450505050505b9392505050565b613a2d616401565b600d73__$aabfbf51bc7bf3b8af0580fb7224204a01$__632c60a6e0909185856040518463ffffffff1660e01b8152600401613a6b93929190617b25565b60c06040518083038186803b158015613a8357600080fd5b505af4158015613a97573d6000803e3d6000fd5b505050506040513d601f19601f82011682018060405250810190613abb9190618a37565b905092915050565b613acb615bcd565b613ad36160f9565b565b6060600060076001018054905067ffffffffffffffff811115613afb57613afa61663d565b5b604051908082528060200260200182016040528015613b3457816020015b613b21616463565b815260200190600190039081613b195790505b50905060005b600760010180549050811015613cb257600760000160076001018281548110613b6657613b65617972565b5b90600052602060002001604051613b7d9190617ee9565b90815260200160405180910390206001016040518060400160405290816000820160009054906101000a900473ffffffffffffffffffffffffffffffffffffffff1673ffffffffffffffffffffffffffffffffffffffff1673ffffffffffffffffffffffffffffffffffffffff168152602001600182018054613bff90617e18565b80601f0160208091040260200160405190810160405280929190818152602001828054613c2b90617e18565b8015613c785780601f10613c4d57610100808354040283529160200191613c78565b820191906000526020600020905b815481529060010190602001808311613c5b57829003601f168201915b505050505081525050828281518110613c9457613c93617972565b5b60200260200101819052508080613caa90617ac6565b915050613b3a565b508091505090565b6060600060116001018054905067ffffffffffffffff811115613ce057613cdf61663d565b5b604051908082528060200260200182016040528015613d1957816020015b613d06616493565b815260200190600190039081613cfe5790505b50905060005b601160010180549050811015613ebb57601160000160116001018281548110613d4b57613d4a617972565b5b90600052602060002001604051613d629190617ee9565b90815260200160405180910390206001016040518060800160405290816000820160009054906101000a900473ffffffffffffffffffffffffffffffffffffffff1673ffffffffffffffffffffffffffffffffffffffff1673ffffffffffffffffffffffffffffffffffffffff1681526020016001820160009054906101000a900473ffffffffffffffffffffffffffffffffffffffff1673ffffffffffffffffffffffffffffffffffffffff1673ffffffffffffffffffffffffffffffffffffffff1681526020016002820160009054906101000a900473ffffffffffffffffffffffffffffffffffffffff1673ffffffffffffffffffffffffffffffffffffffff1673ffffffffffffffffffffffffffffffffffffffff168152602001600382015481525050828281518110613e9d57613e9c617972565b5b60200260200101819052508080613eb390617ac6565b915050613d1f565b508091505090565b60008060009054906101000a900473ffffffffffffffffffffffffffffffffffffffff16905090565b60606000600b6001018054905067ffffffffffffffff811115613f1257613f1161663d565b5b604051908082528060200260200182016040528015613f4b57816020015b613f38616307565b815260200190600190039081613f305790505b50905060005b600b600101805490508110156140c957600b600001600b6001018281548110613f7d57613f7c617972565b5b90600052602060002001604051613f949190617ee9565b90815260200160405180910390206001016040518060400160405290816000820160009054906101000a900473ffffffffffffffffffffffffffffffffffffffff1673ffffffffffffffffffffffffffffffffffffffff1673ffffffffffffffffffffffffffffffffffffffff16815260200160018201805461401690617e18565b80601f016020809104026020016040519081016040528092919081815260200182805461404290617e18565b801561408f5780601f106140645761010080835404028352916020019161408f565b820191906000526020600020905b81548152906001019060200180831161407257829003601f168201915b5050505050815250508282815181106140ab576140aa617972565b5b602002602001018190525080806140c190617ac6565b915050613f51565b508091505090565b60006140db615bcd565b60011515600973__$79a40a2052c9947e027843e42106f8b048$__6360f353e19091856040518363ffffffff1660e01b815260040161411b92919061761c565b60206040518083038186803b15801561413357600080fd5b505af4158015614147573d6000803e3d6000fd5b505050506040513d601f19601f8201168201806040525081019061416b9190617671565b1515146141ad576040517f08c379a00000000000000000000000000000000000000000000000000000000081526004016141a4906183f7565b60405180910390fd5b6000600973__$79a40a2052c9947e027843e42106f8b048$__63044aed239091856040518363ffffffff1660e01b81526004016141eb92919061761c565b60006040518083038186803b15801561420357600080fd5b505af4158015614217573d6000803e3d6000fd5b505050506040513d6000823e3d601f19601f820116820180604052508101906142409190618cce565b90506000600973__$79a40a2052c9947e027843e42106f8b048$__63a3fb82259091866040518363ffffffff1660e01b815260040161428092919061761c565b60206040518083038186803b15801561429857600080fd5b505af41580156142ac573d6000803e3d6000fd5b505050506040513d601f19601f820116820180604052508101906142d09190617671565b905060011515811515141561434057816000015173ffffffffffffffffffffffffffffffffffffffff167fe32dbca0dcbe2dc4205cd30b4b23a82cff3e9b7e12a5682683185c6f33c978be836020015160405161432d91906177dc565b60405180910390a2600192505050614347565b6000925050505b919050565b6000614356615c4b565b60011515600d73__$aabfbf51bc7bf3b8af0580fb7224204a01$__634ecf2830909187876040518463ffffffff1660e01b815260040161439893929190617b25565b60206040518083038186803b1580156143b057600080fd5b505af41580156143c4573d6000803e3d6000fd5b505050506040513d601f19601f820116820180604052508101906143e89190617671565b15151461442a576040517f08c379a00000000000000000000000000000000000000000000000000000000081526004016144219061889f565b60405180910390fd5b60011515600b73__$a27ab5a2953dc10a9c552591268754b616$__638c9a6cc39091856040518363ffffffff1660e01b815260040161446a929190617805565b60206040518083038186803b15801561448257600080fd5b505af4158015614496573d6000803e3d6000fd5b505050506040513d601f19601f820116820180604052508101906144ba9190617671565b1515146144fc576040517f08c379a00000000000000000000000000000000000000000000000000000000081526004016144f39061890b565b60405180910390fd5b60001515600f73__$c9b49513854812b7b6c4b448b2aa4684e3$__63e99a8e39909187876040518463ffffffff1660e01b815260040161453e9392919061823a565b60206040518083038186803b15801561455657600080fd5b505af415801561456a573d6000803e3d6000fd5b505050506040513d601f19601f8201168201806040525081019061458e9190617671565b1515146145d0576040517f08c379a00000000000000000000000000000000000000000000000000000000081526004016145c790618977565b60405180910390fd5b60003414614613576040517f08c379a000000000000000000000000000000000000000000000000000000000815260040161460a90618d63565b60405180910390fd5b600061461f8585615dd2565b90506000600d73__$aabfbf51bc7bf3b8af0580fb7224204a01$__632c60a6e0909188886040518463ffffffff1660e01b815260040161466193929190617b25565b60c06040518083038186803b15801561467957600080fd5b505af415801561468d573d6000803e3d6000fd5b505050506040513d601f19601f820116820180604052508101906146b19190618a37565b90506000816060015173ffffffffffffffffffffffffffffffffffffffff166323b872dd333085608001516040518463ffffffff1660e01b81526004016146fa93929190618190565b602060405180830381600087803b15801561471457600080fd5b505af1158015614728573d6000803e3d6000fd5b505050506040513d601f19601f8201168201806040525081019061474c9190617671565b90506000151581151514156147675760009350505050614a98565b61476f616337565b87816000019073ffffffffffffffffffffffffffffffffffffffff16908173ffffffffffffffffffffffffffffffffffffffff16815250508681602001818152505082604001518160400181815250508260600151816060019073ffffffffffffffffffffffffffffffffffffffff16908173ffffffffffffffffffffffffffffffffffffffff1681525050826080015181608001818152505060018160a00190151590811515815250508260a001518160c0018181525050838160e0019073ffffffffffffffffffffffffffffffffffffffff16908173ffffffffffffffffffffffffffffffffffffffff16815250503381610100019073ffffffffffffffffffffffffffffffffffffffff16908173ffffffffffffffffffffffffffffffffffffffff16815250508581610120019073ffffffffffffffffffffffffffffffffffffffff16908173ffffffffffffffffffffffffffffffffffffffff16815250504281610140018181525050600f73__$c9b49513854812b7b6c4b448b2aa4684e3$__6332ada61b9091836040518363ffffffff1660e01b8152600401614919929190618bde565b60206040518083038186803b15801561493157600080fd5b505af4158015614945573d6000803e3d6000fd5b505050506040513d601f19601f820116820180604052508101906149699190617671565b50601173__$cd3810e67fa8b653e5355050e47a521f6f$__6387a8696a90918689876060015188608001516040518663ffffffff1660e01b81526004016149b4959493929190618c0f565b60206040518083038186803b1580156149cc57600080fd5b505af41580156149e0573d6000803e3d6000fd5b505050506040513d601f19601f82011682018060405250810190614a049190617671565b503373ffffffffffffffffffffffffffffffffffffffff16878973ffffffffffffffffffffffffffffffffffffffff167ffe632cd15df82b5e105c28c0d0da9eb0228667912a4b1e430151d7c0d922775986604001518760600151886080015160018a60a001518c8f8b6101400151604051614a87989796959493929190618720565b60405180910390a460019450505050505b9392505050565b6000614aa9615bcd565b614ab1615c4b565b60001515600773__$4fab912f99daae96c763763589e4636ca5$__63f82434d89091866040518363ffffffff1660e01b8152600401614af192919061848a565b60206040518083038186803b158015614b0957600080fd5b505af4158015614b1d573d6000803e3d6000fd5b505050506040513d601f19601f82011682018060405250810190614b419190617671565b151514614b83576040517f08c379a0000000000000000000000000000000000000000000000000000000008152600401614b7a906176fb565b60405180910390fd5b6000600773__$4fab912f99daae96c763763589e4636ca5$__6363a0af36909186866040518463ffffffff1660e01b8152600401614bc393929190618d83565b60206040518083038186803b158015614bdb57600080fd5b505af4158015614bef573d6000803e3d6000fd5b505050506040513d601f19601f82011682018060405250810190614c139190617671565b9050600115158115151415614c7a578373ffffffffffffffffffffffffffffffffffffffff167ff76071867aae1eed00218b5aa8d4736b9b2161325ea3e48d283258a7e4ba75f584604051614c6891906177dc565b60405180910390a26001915050614c80565b60009150505b92915050565b6060600060136001018054905067ffffffffffffffff811115614cac57614cab61663d565b5b604051908082528060200260200182016040528015614ce557816020015b614cd26164fd565b815260200190600190039081614cca5790505b50905060005b601360010180549050811015614e3157601360000160136001018281548110614d1757614d16617972565b5b90600052602060002001604051614d2e9190617ee9565b90815260200160405180910390206001016040518060600160405290816000820160009054906101000a900473ffffffffffffffffffffffffffffffffffffffff1673ffffffffffffffffffffffffffffffffffffffff1673ffffffffffffffffffffffffffffffffffffffff1681526020016001820160009054906101000a900473ffffffffffffffffffffffffffffffffffffffff1673ffffffffffffffffffffffffffffffffffffffff1673ffffffffffffffffffffffffffffffffffffffff168152602001600282015481525050828281518110614e1357614e12617972565b5b60200260200101819052508080614e2990617ac6565b915050614ceb565b508091505090565b614e4161654a565b600973__$79a40a2052c9947e027843e42106f8b048$__63044aed239091846040518363ffffffff1660e01b8152600401614e7d92919061761c565b60006040518083038186803b158015614e9557600080fd5b505af4158015614ea9573d6000803e3d6000fd5b505050506040513d6000823e3d601f19601f82011682018060405250810190614ed29190618cce565b9050919050565b600080614ee68433615c95565b90506000614ef48585615dd2565b9050600115158215151480614f3457508073ffffffffffffffffffffffffffffffffffffffff163373ffffffffffffffffffffffffffffffffffffffff16145b80614f715750614f42613ec3565b73ffffffffffffffffffffffffffffffffffffffff163373ffffffffffffffffffffffffffffffffffffffff16145b614fb0576040517f08c379a0000000000000000000000000000000000000000000000000000000008152600401614fa790618463565b60405180910390fd5b60011515600d73__$aabfbf51bc7bf3b8af0580fb7224204a01$__634ecf2830909188886040518463ffffffff1660e01b8152600401614ff293929190617b25565b60206040518083038186803b15801561500a57600080fd5b505af415801561501e573d6000803e3d6000fd5b505050506040513d601f19601f820116820180604052508101906150429190617671565b151514615084576040517f08c379a000000000000000000000000000000000000000000000000000000000815260040161507b906183f7565b60405180910390fd5b6000600d73__$aabfbf51bc7bf3b8af0580fb7224204a01$__632c60a6e0909188886040518463ffffffff1660e01b81526004016150c493929190617b25565b60c06040518083038186803b1580156150dc57600080fd5b505af41580156150f0573d6000803e3d6000fd5b505050506040513d601f19601f820116820180604052508101906151149190618a37565b90506000600d73__$aabfbf51bc7bf3b8af0580fb7224204a01$__633f032bde909189896040518463ffffffff1660e01b815260040161515693929190617b25565b60206040518083038186803b15801561516e57600080fd5b505af4158015615182573d6000803e3d6000fd5b505050506040513d601f19601f820116820180604052508101906151a69190617671565b9050600115158115151415615248573373ffffffffffffffffffffffffffffffffffffffff168260200151836000015173ffffffffffffffffffffffffffffffffffffffff167f47ef5674b8623b6a0bece5fae33a1a29ad79a7846a5be46a0b2e256b94f9ee318560400151866060015187608001518860a001518a604051615233959493929190618522565b60405180910390a46001945050505050615251565b60009450505050505b92915050565b600060011515600f73__$c9b49513854812b7b6c4b448b2aa4684e3$__63e99a8e39909186866040518463ffffffff1660e01b815260040161529b9392919061823a565b60206040518083038186803b1580156152b357600080fd5b505af41580156152c7573d6000803e3d6000fd5b505050506040513d601f19601f820116820180604052508101906152eb9190617671565b15151461532d576040517f08c379a0000000000000000000000000000000000000000000000000000000008152600401615324906185c1565b60405180910390fd5b6000600f73__$c9b49513854812b7b6c4b448b2aa4684e3$__63af8b7c81909186866040518463ffffffff1660e01b815260040161536d9392919061823a565b6101606040518083038186803b15801561538657600080fd5b505af415801561539a573d6000803e3d6000fd5b505050506040513d601f19601f820116820180604052508101906153be919061837d565b90508060c001518161014001516153d59190617a70565b4211615416576040517f08c379a000000000000000000000000000000000000000000000000000000000815260040161540d90618e0d565b60405180910390fd5b6000600115158260a0015115151415615435578160800151905061543d565b816040015190505b6000615457600454836154509190618681565b6064616009565b905060006154736005548461546c9190618681565b6064616009565b90506000818385615484919061864d565b61548e919061864d565b9050601373__$35fde6ac6f7fb08b81f20635e2dfbb2343$__6338e6a0a890918760e001518860600151876040518563ffffffff1660e01b81526004016154d894939291906186db565b60206040518083038186803b1580156154f057600080fd5b505af4158015615504573d6000803e3d6000fd5b505050506040513d601f19601f820116820180604052508101906155289190617671565b50601373__$35fde6ac6f7fb08b81f20635e2dfbb2343$__6338e6a0a890918761012001518860600151866040518563ffffffff1660e01b815260040161557294939291906186db565b60206040518083038186803b15801561558a57600080fd5b505af415801561559e573d6000803e3d6000fd5b505050506040513d601f19601f820116820180604052508101906155c29190617671565b50601373__$35fde6ac6f7fb08b81f20635e2dfbb2343$__6338e6a0a89091600160009054906101000a900473ffffffffffffffffffffffffffffffffffffffff168860600151856040518563ffffffff1660e01b815260040161562994939291906186db565b60206040518083038186803b15801561564157600080fd5b505af4158015615655573d6000803e3d6000fd5b505050506040513d601f19601f820116820180604052508101906156799190617671565b50601173__$cd3810e67fa8b653e5355050e47a521f6f$__636a6975c490918760e001518861012001518960600151896040518663ffffffff1660e01b81526004016156c9959493929190618c0f565b60206040518083038186803b1580156156e157600080fd5b505af41580156156f5573d6000803e3d6000fd5b505050506040513d601f19601f820116820180604052508101906157199190617671565b50600f73__$c9b49513854812b7b6c4b448b2aa4684e3$__637619764c9091876000015188602001516040518463ffffffff1660e01b81526004016157609392919061823a565b60206040518083038186803b15801561577857600080fd5b505af415801561578c573d6000803e3d6000fd5b505050506040513d601f19601f820116820180604052508101906157b09190617671565b5084610100015173ffffffffffffffffffffffffffffffffffffffff168560200151866000015173ffffffffffffffffffffffffffffffffffffffff167f2941e86df5e844db000359f0e9abe470952bac636d89a010e9d5d513aad469fa886040015189606001518a608001518b60a001518c60c001518d60e001518e61012001518f610140015160405161584c989796959493929190618720565b60405180910390a460019550505050505092915050565b6000806000600454600554600654925092509250909192565b615884615bcd565b80600160006101000a81548173ffffffffffffffffffffffffffffffffffffffff021916908373ffffffffffffffffffffffffffffffffffffffff16021790555050565b6060600060096001018054905067ffffffffffffffff8111156158ee576158ed61663d565b5b60405190808252806020026020018201604052801561592757816020015b61591461654a565b81526020019060019003908161590c5790505b50905060005b600960010180549050811015615aa55760096000016009600101828154811061595957615958617972565b5b906000526020600020016040516159709190617ee9565b90815260200160405180910390206001016040518060400160405290816000820160009054906101000a900473ffffffffffffffffffffffffffffffffffffffff1673ffffffffffffffffffffffffffffffffffffffff1673ffffffffffffffffffffffffffffffffffffffff1681526020016001820180546159f290617e18565b80601f0160208091040260200160405190810160405280929190818152602001828054615a1e90617e18565b8015615a6b5780601f10615a4057610100808354040283529160200191615a6b565b820191906000526020600020905b815481529060010190602001808311615a4e57829003601f168201915b505050505081525050828281518110615a8757615a86617972565b5b60200260200101819052508080615a9d90617ac6565b91505061592d565b508091505090565b615ab5615bcd565b600073ffffffffffffffffffffffffffffffffffffffff168173ffffffffffffffffffffffffffffffffffffffff161415615b25576040517f08c379a0000000000000000000000000000000000000000000000000000000008152600401615b1c90618e9f565b60405180910390fd5b615b2e81616035565b50565b615bc98282604051602401615b47929190618ebf565b6040516020818303038152906040527fc3b55635000000000000000000000000000000000000000000000000000000007bffffffffffffffffffffffffffffffffffffffffffffffffffffffff19166020820180517bffffffffffffffffffffffffffffffffffffffffffffffffffffffff838183161783525050505061615c565b5050565b615bd5616185565b73ffffffffffffffffffffffffffffffffffffffff16615bf3613ec3565b73ffffffffffffffffffffffffffffffffffffffff1614615c49576040517f08c379a0000000000000000000000000000000000000000000000000000000008152600401615c4090618f3b565b60405180910390fd5b565b615c536121c9565b15615c93576040517f08c379a0000000000000000000000000000000000000000000000000000000008152600401615c8a90618fa7565b60405180910390fd5b565b600080615ce17f58c64602000000000000000000000000000000000000000000000000000000008573ffffffffffffffffffffffffffffffffffffffff1661618d90919063ffffffff16565b9050600115158115151415615dc65760008473ffffffffffffffffffffffffffffffffffffffff166358c64602856040518263ffffffff1660e01b8152600401615d2b9190616ccd565b60206040518083038186803b158015615d4357600080fd5b505afa158015615d57573d6000803e3d6000fd5b505050506040513d601f19601f82011682018060405250810190615d7b9190617671565b9050615dbc6040518060400160405280600a81526020017f726573706f6e73653a200000000000000000000000000000000000000000000081525082615b31565b8092505050615dcc565b60009150505b92915050565b60008060608473ffffffffffffffffffffffffffffffffffffffff1684604051602401615dff9190616ed0565b6040516020818303038152906040527f6352211e000000000000000000000000000000000000000000000000000000007bffffffffffffffffffffffffffffffffffffffffffffffffffffffff19166020820180517bffffffffffffffffffffffffffffffffffffffffffffffffffffffff8381831617835250505050604051615e8991906179e8565b6000604051808303816000865af19150503d8060008114615ec6576040519150601f19603f3d011682016040523d82523d6000602084013e615ecb565b606091505b508092508193505050600115158215151415615efe5780806020019051810190615ef59190619005565b92505050615f05565b6000925050505b92915050565b615fa38282604051602401615f21929190619032565b6040516020818303038152906040527f319af333000000000000000000000000000000000000000000000000000000007bffffffffffffffffffffffffffffffffffffffffffffffffffffffff19166020820180517bffffffffffffffffffffffffffffffffffffffffffffffffffffffff838183161783525050505061615c565b5050565b615faf6161b2565b60008060146101000a81548160ff0219169083151502179055507f5db9ee0a495bf2e6ff9c91a7834c1ba4fdd244a5e8aa4e537bd38aeae4b073aa615ff2616185565b604051615fff9190616ccd565b60405180910390a1565b600081836160179190619091565b905092915050565b6000818361602d919061864d565b905092915050565b60008060009054906101000a900473ffffffffffffffffffffffffffffffffffffffff169050816000806101000a81548173ffffffffffffffffffffffffffffffffffffffff021916908373ffffffffffffffffffffffffffffffffffffffff1602179055508173ffffffffffffffffffffffffffffffffffffffff168173ffffffffffffffffffffffffffffffffffffffff167f8be0079c531659141344cd1fd0a4f28419497f9722a3daafe3b4186f6b6457e060405160405180910390a35050565b616101615c4b565b6001600060146101000a81548160ff0219169083151502179055507f62e78cea01bee320cd4e420270b5ea74000d11b0c9f74754ebdbfc544b05a258616145616185565b6040516161529190616ccd565b60405180910390a1565b60008151905060006a636f6e736f6c652e6c6f679050602083016000808483855afa5050505050565b600033905090565b6000616198836161fb565b80156161aa57506161a98383616248565b5b905092915050565b6161ba6121c9565b6161f9576040517f08c379a00000000000000000000000000000000000000000000000000000000081526004016161f09061910e565b60405180910390fd5b565b6000616227827f01ffc9a700000000000000000000000000000000000000000000000000000000616248565b8015616241575061623f8263ffffffff60e01b616248565b155b9050919050565b6000806301ffc9a760e01b836040516024016162649190619169565b604051602081830303815290604052907bffffffffffffffffffffffffffffffffffffffffffffffffffffffff19166020820180517bffffffffffffffffffffffffffffffffffffffffffffffffffffffff838183161783525050505090506000806000602060008551602087018a617530fa92503d915060005190508280156162ef575060208210155b80156162fb5750600081115b94505050505092915050565b6040518060400160405280600073ffffffffffffffffffffffffffffffffffffffff168152602001606081525090565b604051806101600160405280600073ffffffffffffffffffffffffffffffffffffffff1681526020016000815260200160008152602001600073ffffffffffffffffffffffffffffffffffffffff1681526020016000815260200160001515815260200160008152602001600073ffffffffffffffffffffffffffffffffffffffff168152602001600073ffffffffffffffffffffffffffffffffffffffff168152602001600073ffffffffffffffffffffffffffffffffffffffff168152602001600081525090565b6040518060c00160405280600073ffffffffffffffffffffffffffffffffffffffff1681526020016000815260200160008152602001600073ffffffffffffffffffffffffffffffffffffffff16815260200160008152602001600081525090565b6040518060400160405280600073ffffffffffffffffffffffffffffffffffffffff168152602001606081525090565b6040518060800160405280600073ffffffffffffffffffffffffffffffffffffffff168152602001600073ffffffffffffffffffffffffffffffffffffffff168152602001600073ffffffffffffffffffffffffffffffffffffffff168152602001600081525090565b6040518060600160405280600073ffffffffffffffffffffffffffffffffffffffff168152602001600073ffffffffffffffffffffffffffffffffffffffff168152602001600081525090565b6040518060400160405280600073ffffffffffffffffffffffffffffffffffffffff168152602001606081525090565b60008115159050919050565b61658f8161657a565b82525050565b60006020820190506165aa6000830184616586565b92915050565b6000604051905090565b600080fd5b600080fd5b600073ffffffffffffffffffffffffffffffffffffffff82169050919050565b60006165ef826165c4565b9050919050565b6165ff816165e4565b811461660a57600080fd5b50565b60008135905061661c816165f6565b92915050565b600080fd5b600080fd5b6000601f19601f8301169050919050565b7f4e487b7100000000000000000000000000000000000000000000000000000000600052604160045260246000fd5b6166758261662c565b810181811067ffffffffffffffff821117156166945761669361663d565b5b80604052505050565b60006166a76165b0565b90506166b3828261666c565b919050565b600067ffffffffffffffff8211156166d3576166d261663d565b5b6166dc8261662c565b9050602081019050919050565b82818337600083830152505050565b600061670b616706846166b8565b61669d565b90508281526020810184848401111561672757616726616627565b5b6167328482856166e9565b509392505050565b600082601f83011261674f5761674e616622565b5b813561675f8482602086016166f8565b91505092915050565b6000806040838503121561677f5761677e6165ba565b5b600061678d8582860161660d565b925050602083013567ffffffffffffffff8111156167ae576167ad6165bf565b5b6167ba8582860161673a565b9150509250929050565b6000602082840312156167da576167d96165ba565b5b60006167e88482850161660d565b91505092915050565b6167fa816165e4565b82525050565b600081519050919050565b600082825260208201905092915050565b60005b8381101561683a57808201518184015260208101905061681f565b83811115616849576000848401525b50505050565b600061685a82616800565b616864818561680b565b935061687481856020860161681c565b61687d8161662c565b840191505092915050565b60006040830160008301516168a060008601826167f1565b50602083015184820360208601526168b8828261684f565b9150508091505092915050565b600060208201905081810360008301526168df8184616888565b905092915050565b6000819050919050565b6168fa816168e7565b811461690557600080fd5b50565b600081359050616917816168f1565b92915050565b60008060408385031215616934576169336165ba565b5b60006169428582860161660d565b925050602061695385828601616908565b9150509250929050565b600081519050919050565b600082825260208201905092915050565b6000819050602082019050919050565b616992816168e7565b82525050565b6169a18161657a565b82525050565b610160820160008201516169be60008501826167f1565b5060208201516169d16020850182616989565b5060408201516169e46040850182616989565b5060608201516169f760608501826167f1565b506080820151616a0a6080850182616989565b5060a0820151616a1d60a0850182616998565b5060c0820151616a3060c0850182616989565b5060e0820151616a4360e08501826167f1565b50610100820151616a586101008501826167f1565b50610120820151616a6d6101208501826167f1565b50610140820151616a82610140850182616989565b50505050565b6000616a9483836169a7565b6101608301905092915050565b6000602082019050919050565b6000616ab98261695d565b616ac38185616968565b9350616ace83616979565b8060005b83811015616aff578151616ae68882616a88565b9750616af183616aa1565b925050600181019050616ad2565b5085935050505092915050565b60006020820190508181036000830152616b268184616aae565b905092915050565b600080600060608486031215616b4757616b466165ba565b5b6000616b5586828701616908565b9350506020616b6686828701616908565b9250506040616b7786828701616908565b9150509250925092565b60008060408385031215616b9857616b976165ba565b5b6000616ba68582860161660d565b9250506020616bb78582860161660d565b9150509250929050565b61016082016000820151616bd860008501826167f1565b506020820151616beb6020850182616989565b506040820151616bfe6040850182616989565b506060820151616c1160608501826167f1565b506080820151616c246080850182616989565b5060a0820151616c3760a0850182616998565b5060c0820151616c4a60c0850182616989565b5060e0820151616c5d60e08501826167f1565b50610100820151616c726101008501826167f1565b50610120820151616c876101208501826167f1565b50610140820151616c9c610140850182616989565b50505050565b600061016082019050616cb86000830184616bc1565b92915050565b616cc7816165e4565b82525050565b6000602082019050616ce26000830184616cbe565b92915050565b60008060008060008060c08789031215616d0557616d046165ba565b5b6000616d1389828a0161660d565b9650506020616d2489828a01616908565b9550506040616d3589828a01616908565b9450506060616d4689828a0161660d565b9350506080616d5789828a01616908565b92505060a0616d6889828a01616908565b9150509295509295509295565b600081519050919050565b600082825260208201905092915050565b6000819050602082019050919050565b60c082016000820151616db760008501826167f1565b506020820151616dca6020850182616989565b506040820151616ddd6040850182616989565b506060820151616df060608501826167f1565b506080820151616e036080850182616989565b5060a0820151616e1660a0850182616989565b50505050565b6000616e288383616da1565b60c08301905092915050565b6000602082019050919050565b6000616e4c82616d75565b616e568185616d80565b9350616e6183616d91565b8060005b83811015616e92578151616e798882616e1c565b9750616e8483616e34565b925050600181019050616e65565b5085935050505092915050565b60006020820190508181036000830152616eb98184616e41565b905092915050565b616eca816168e7565b82525050565b6000602082019050616ee56000830184616ec1565b92915050565b600080600060608486031215616f0457616f036165ba565b5b6000616f128682870161660d565b9350506020616f2386828701616908565b9250506040616f348682870161660d565b9150509250925092565b60c082016000820151616f5460008501826167f1565b506020820151616f676020850182616989565b506040820151616f7a6040850182616989565b506060820151616f8d60608501826167f1565b506080820151616fa06080850182616989565b5060a0820151616fb360a0850182616989565b50505050565b600060c082019050616fce6000830184616f3e565b92915050565b600081519050919050565b600082825260208201905092915050565b6000819050602082019050919050565b600060408301600083015161701860008601826167f1565b5060208301518482036020860152617030828261684f565b9150508091505092915050565b60006170498383617000565b905092915050565b6000602082019050919050565b600061706982616fd4565b6170738185616fdf565b93508360208202850161708585616ff0565b8060005b858110156170c157848403895281516170a2858261703d565b94506170ad83617051565b925060208a01995050600181019050617089565b50829750879550505050505092915050565b600060208201905081810360008301526170ed818461705e565b905092915050565b600081519050919050565b600082825260208201905092915050565b6000819050602082019050919050565b60808201600082015161713760008501826167f1565b50602082015161714a60208501826167f1565b50604082015161715d60408501826167f1565b5060608201516171706060850182616989565b50505050565b60006171828383617121565b60808301905092915050565b6000602082019050919050565b60006171a6826170f5565b6171b08185617100565b93506171bb83617111565b8060005b838110156171ec5781516171d38882617176565b97506171de8361718e565b9250506001810190506171bf565b5085935050505092915050565b60006020820190508181036000830152617213818461719b565b905092915050565b600081519050919050565b600082825260208201905092915050565b6000819050602082019050919050565b600060408301600083015161725f60008601826167f1565b5060208301518482036020860152617277828261684f565b9150508091505092915050565b60006172908383617247565b905092915050565b6000602082019050919050565b60006172b08261721b565b6172ba8185617226565b9350836020820285016172cc85617237565b8060005b8581101561730857848403895281516172e98582617284565b94506172f483617298565b925060208a019950506001810190506172d0565b50829750879550505050505092915050565b6000602082019050818103600083015261733481846172a5565b905092915050565b600081519050919050565b600082825260208201905092915050565b6000819050602082019050919050565b60608201600082015161737e60008501826167f1565b50602082015161739160208501826167f1565b5060408201516173a46040850182616989565b50505050565b60006173b68383617368565b60608301905092915050565b6000602082019050919050565b60006173da8261733c565b6173e48185617347565b93506173ef83617358565b8060005b8381101561742057815161740788826173aa565b9750617412836173c2565b9250506001810190506173f3565b5085935050505092915050565b6000602082019050818103600083015261744781846173cf565b905092915050565b600060408301600083015161746760008601826167f1565b506020830151848203602086015261747f828261684f565b9150508091505092915050565b600060208201905081810360008301526174a6818461744f565b905092915050565b60006060820190506174c36000830186616ec1565b6174d06020830185616ec1565b6174dd6040830184616ec1565b949350505050565b600081519050919050565b600082825260208201905092915050565b6000819050602082019050919050565b600060408301600083015161752960008601826167f1565b5060208301518482036020860152617541828261684f565b9150508091505092915050565b600061755a8383617511565b905092915050565b6000602082019050919050565b600061757a826174e5565b61758481856174f0565b93508360208202850161759685617501565b8060005b858110156175d257848403895281516175b3858261754e565b94506175be83617562565b925060208a0199505060018101905061759a565b50829750879550505050505092915050565b600060208201905081810360008301526175fe818461756f565b905092915050565b8082525050565b617616816165e4565b82525050565b60006040820190506176316000830185617606565b61763e602083018461760d565b9392505050565b61764e8161657a565b811461765957600080fd5b50565b60008151905061766b81617645565b92915050565b600060208284031215617687576176866165ba565b5b60006176958482850161765c565b91505092915050565b600082825260208201905092915050565b7f524d310000000000000000000000000000000000000000000000000000000000600082015250565b60006176e560038361769e565b91506176f0826176af565b602082019050919050565b60006020820190508181036000830152617714816176d8565b9050919050565b600082825260208201905092915050565b600061773782616800565b617741818561771b565b935061775181856020860161681c565b61775a8161662c565b840191505092915050565b600060608201905061777a6000830186617606565b617787602083018561760d565b8181036040830152617799818461772c565b9050949350505050565b60006177ae82616800565b6177b8818561769e565b93506177c881856020860161681c565b6177d18161662c565b840191505092915050565b600060208201905081810360008301526177f681846177a3565b905092915050565b8082525050565b600060408201905061781a60008301856177fe565b617827602083018461760d565b9392505050565b600080fd5b600080fd5b600081519050617847816165f6565b92915050565b600061786061785b846166b8565b61669d565b90508281526020810184848401111561787c5761787b616627565b5b61788784828561681c565b509392505050565b600082601f8301126178a4576178a3616622565b5b81516178b484826020860161784d565b91505092915050565b6000604082840312156178d3576178d261782e565b5b6178dd604061669d565b905060006178ed84828501617838565b600083015250602082015167ffffffffffffffff81111561791157617910617833565b5b61791d8482850161788f565b60208301525092915050565b60006020828403121561793f5761793e6165ba565b5b600082015167ffffffffffffffff81111561795d5761795c6165bf565b5b617969848285016178bd565b91505092915050565b7f4e487b7100000000000000000000000000000000000000000000000000000000600052603260045260246000fd5b600081519050919050565b600081905092915050565b60006179c2826179a1565b6179cc81856179ac565b93506179dc81856020860161681c565b80840191505092915050565b60006179f482846179b7565b915081905092915050565b600081519050617a0e816168f1565b92915050565b600060208284031215617a2a57617a296165ba565b5b6000617a38848285016179ff565b91505092915050565b7f4e487b7100000000000000000000000000000000000000000000000000000000600052601160045260246000fd5b6000617a7b826168e7565b9150617a86836168e7565b9250827fffffffffffffffffffffffffffffffffffffffffffffffffffffffffffffffff03821115617abb57617aba617a41565b5b828201905092915050565b6000617ad1826168e7565b91507fffffffffffffffffffffffffffffffffffffffffffffffffffffffffffffffff821415617b0457617b03617a41565b5b600182019050919050565b8082525050565b617b1f816168e7565b82525050565b6000606082019050617b3a6000830186617b0f565b617b47602083018561760d565b617b546040830184617b16565b949350505050565b7f524d320000000000000000000000000000000000000000000000000000000000600082015250565b6000617b9260038361769e565b9150617b9d82617b5c565b602082019050919050565b60006020820190508181036000830152617bc181617b85565b9050919050565b7f524d340000000000000000000000000000000000000000000000000000000000600082015250565b6000617bfe60038361769e565b9150617c0982617bc8565b602082019050919050565b60006020820190508181036000830152617c2d81617bf1565b9050919050565b7f524d323200000000000000000000000000000000000000000000000000000000600082015250565b6000617c6a60048361769e565b9150617c7582617c34565b602082019050919050565b60006020820190508181036000830152617c9981617c5d565b9050919050565b7f524d323100000000000000000000000000000000000000000000000000000000600082015250565b6000617cd660048361769e565b9150617ce182617ca0565b602082019050919050565b60006020820190508181036000830152617d0581617cc9565b9050919050565b6000819050919050565b6000819050919050565b6000617d3b617d36617d3184617d0c565b617d16565b6168e7565b9050919050565b617d4b81617d20565b82525050565b600060e082019050617d66600083018a617b0f565b617d73602083018961760d565b617d806040830188617b16565b617d8d6060830187617b16565b617d9a608083018661760d565b617da760a0830185617d42565b617db460c0830184617b16565b98975050505050505050565b6000604082019050617dd56000830185616ec1565b617de26020830184616ec1565b9392505050565b7f4e487b7100000000000000000000000000000000000000000000000000000000600052602260045260246000fd5b60006002820490506001821680617e3057607f821691505b60208210811415617e4457617e43617de9565b5b50919050565b600081905092915050565b60008190508160005260206000209050919050565b60008154617e7781617e18565b617e818186617e4a565b94506001821660008114617e9c5760018114617ead57617ee0565b60ff19831686528186019350617ee0565b617eb685617e55565b60005b83811015617ed857815481890152600182019150602081019050617eb9565b838801955050505b50505092915050565b6000617ef58284617e6a565b915081905092915050565b7f524d313200000000000000000000000000000000000000000000000000000000600082015250565b6000617f3660048361769e565b9150617f4182617f00565b602082019050919050565b60006020820190508181036000830152617f6581617f29565b9050919050565b6000606082019050617f8160008301866177fe565b617f8e602083018561760d565b8181036040830152617fa0818461772c565b9050949350505050565b7f524d313800000000000000000000000000000000000000000000000000000000600082015250565b6000617fe060048361769e565b9150617feb82617faa565b602082019050919050565b6000602082019050818103600083015261800f81617fd3565b9050919050565b8082525050565b60006060820190506180326000830186618016565b61803f602083018561760d565b61804c604083018461760d565b949350505050565b50565b60006180646000836179ac565b915061806f82618054565b600082019050919050565b600061808582618057565b9150819050919050565b7f524d313400000000000000000000000000000000000000000000000000000000600082015250565b60006180c560048361769e565b91506180d08261808f565b602082019050919050565b600060208201905081810360008301526180f4816180b8565b9050919050565b60006040820190506181106000830185616cbe565b61811d6020830184616ec1565b9392505050565b7f524d313900000000000000000000000000000000000000000000000000000000600082015250565b600061815a60048361769e565b915061816582618124565b602082019050919050565b600060208201905081810360008301526181898161814d565b9050919050565b60006060820190506181a56000830186616cbe565b6181b26020830185616cbe565b6181bf6040830184616ec1565b949350505050565b7f524d323000000000000000000000000000000000000000000000000000000000600082015250565b60006181fd60048361769e565b9150618208826181c7565b602082019050919050565b6000602082019050818103600083015261822c816181f0565b9050919050565b8082525050565b600060608201905061824f6000830186618233565b61825c602083018561760d565b6182696040830184617b16565b949350505050565b600061016082840312156182885761828761782e565b5b61829361016061669d565b905060006182a384828501617838565b60008301525060206182b7848285016179ff565b60208301525060406182cb848285016179ff565b60408301525060606182df84828501617838565b60608301525060806182f3848285016179ff565b60808301525060a06183078482850161765c565b60a08301525060c061831b848285016179ff565b60c08301525060e061832f84828501617838565b60e08301525061010061834484828501617838565b6101008301525061012061835a84828501617838565b61012083015250610140618370848285016179ff565b6101408301525092915050565b60006101608284031215618394576183936165ba565b5b60006183a284828501618271565b91505092915050565b7f524d330000000000000000000000000000000000000000000000000000000000600082015250565b60006183e160038361769e565b91506183ec826183ab565b602082019050919050565b60006020820190508181036000830152618410816183d4565b9050919050565b7f524d350000000000000000000000000000000000000000000000000000000000600082015250565b600061844d60038361769e565b915061845882618417565b602082019050919050565b6000602082019050818103600083015261847c81618440565b9050919050565b8082525050565b600060408201905061849f6000830185618483565b6184ac602083018461760d565b9392505050565b600060e0820190506184c8600083018a617b0f565b6184d5602083018961760d565b6184e26040830188617b16565b6184ef6060830187617b16565b6184fc608083018661760d565b61850960a0830185617b16565b61851660c0830184617b16565b98975050505050505050565b600060a0820190506185376000830188616ec1565b6185446020830187616cbe565b6185516040830186616ec1565b61855e6060830185616ec1565b61856b6080830184616cbe565b9695505050505050565b7f524d313000000000000000000000000000000000000000000000000000000000600082015250565b60006185ab60048361769e565b91506185b682618575565b602082019050919050565b600060208201905081810360008301526185da8161859e565b9050919050565b7f524d313600000000000000000000000000000000000000000000000000000000600082015250565b600061861760048361769e565b9150618622826185e1565b602082019050919050565b600060208201905081810360008301526186468161860a565b9050919050565b6000618658826168e7565b9150618663836168e7565b92508282101561867657618675617a41565b5b828203905092915050565b600061868c826168e7565b9150618697836168e7565b9250817fffffffffffffffffffffffffffffffffffffffffffffffffffffffffffffffff04831182151516156186d0576186cf617a41565b5b828202905092915050565b60006080820190506186f06000830187618016565b6186fd602083018661760d565b61870a604083018561760d565b6187176060830184617b16565b95945050505050565b600061010082019050618736600083018b616ec1565b618743602083018a616cbe565b6187506040830189616ec1565b61875d6060830188616586565b61876a6080830187616ec1565b61877760a0830186616cbe565b61878460c0830185616cbe565b61879160e0830184616ec1565b9998505050505050505050565b6000604082840312156187b4576187b361782e565b5b6187be604061669d565b905060006187ce84828501617838565b600083015250602082015167ffffffffffffffff8111156187f2576187f1617833565b5b6187fe8482850161788f565b60208301525092915050565b6000602082840312156188205761881f6165ba565b5b600082015167ffffffffffffffff81111561883e5761883d6165bf565b5b61884a8482850161879e565b91505092915050565b7f524d370000000000000000000000000000000000000000000000000000000000600082015250565b600061888960038361769e565b915061889482618853565b602082019050919050565b600060208201905081810360008301526188b88161887c565b9050919050565b7f524d360000000000000000000000000000000000000000000000000000000000600082015250565b60006188f560038361769e565b9150618900826188bf565b602082019050919050565b60006020820190508181036000830152618924816188e8565b9050919050565b7f524d390000000000000000000000000000000000000000000000000000000000600082015250565b600061896160038361769e565b915061896c8261892b565b602082019050919050565b6000602082019050818103600083015261899081618954565b9050919050565b600060c082840312156189ad576189ac61782e565b5b6189b760c061669d565b905060006189c784828501617838565b60008301525060206189db848285016179ff565b60208301525060406189ef848285016179ff565b6040830152506060618a0384828501617838565b6060830152506080618a17848285016179ff565b60808301525060a0618a2b848285016179ff565b60a08301525092915050565b600060c08284031215618a4d57618a4c6165ba565b5b6000618a5b84828501618997565b91505092915050565b7f524d380000000000000000000000000000000000000000000000000000000000600082015250565b6000618a9a60038361769e565b9150618aa582618a64565b602082019050919050565b60006020820190508181036000830152618ac981618a8d565b9050919050565b618ad9816165e4565b82525050565b618ae8816168e7565b82525050565b618af78161657a565b82525050565b61016082016000820151618b146000850182618ad0565b506020820151618b276020850182618adf565b506040820151618b3a6040850182618adf565b506060820151618b4d6060850182618ad0565b506080820151618b606080850182618adf565b5060a0820151618b7360a0850182618aee565b5060c0820151618b8660c0850182618adf565b5060e0820151618b9960e0850182618ad0565b50610100820151618bae610100850182618ad0565b50610120820151618bc3610120850182618ad0565b50610140820151618bd8610140850182618adf565b50505050565b600061018082019050618bf46000830185618233565b618c016020830184618afd565b9392505050565b8082525050565b600060a082019050618c246000830188618c08565b618c31602083018761760d565b618c3e604083018661760d565b618c4b606083018561760d565b618c586080830184617b16565b9695505050505050565b600060408284031215618c7857618c7761782e565b5b618c82604061669d565b90506000618c9284828501617838565b600083015250602082015167ffffffffffffffff811115618cb657618cb5617833565b5b618cc28482850161788f565b60208301525092915050565b600060208284031215618ce457618ce36165ba565b5b600082015167ffffffffffffffff811115618d0257618d016165bf565b5b618d0e84828501618c62565b91505092915050565b7f524d313300000000000000000000000000000000000000000000000000000000600082015250565b6000618d4d60048361769e565b9150618d5882618d17565b602082019050919050565b60006020820190508181036000830152618d7c81618d40565b9050919050565b6000606082019050618d986000830186618483565b618da5602083018561760d565b8181036040830152618db7818461772c565b9050949350505050565b7f524d313700000000000000000000000000000000000000000000000000000000600082015250565b6000618df760048361769e565b9150618e0282618dc1565b602082019050919050565b60006020820190508181036000830152618e2681618dea565b9050919050565b7f4f776e61626c653a206e6577206f776e657220697320746865207a65726f206160008201527f6464726573730000000000000000000000000000000000000000000000000000602082015250565b6000618e8960268361769e565b9150618e9482618e2d565b604082019050919050565b60006020820190508181036000830152618eb881618e7c565b9050919050565b60006040820190508181036000830152618ed981856177a3565b9050618ee86020830184616586565b9392505050565b7f4f776e61626c653a2063616c6c6572206973206e6f7420746865206f776e6572600082015250565b6000618f2560208361769e565b9150618f3082618eef565b602082019050919050565b60006020820190508181036000830152618f5481618f18565b9050919050565b7f5061757361626c653a2070617573656400000000000000000000000000000000600082015250565b6000618f9160108361769e565b9150618f9c82618f5b565b602082019050919050565b60006020820190508181036000830152618fc081618f84565b9050919050565b6000618fd2826165c4565b9050919050565b618fe281618fc7565b8114618fed57600080fd5b50565b600081519050618fff81618fd9565b92915050565b60006020828403121561901b5761901a6165ba565b5b600061902984828501618ff0565b91505092915050565b6000604082019050818103600083015261904c81856177a3565b905061905b6020830184616cbe565b9392505050565b7f4e487b7100000000000000000000000000000000000000000000000000000000600052601260045260246000fd5b600061909c826168e7565b91506190a7836168e7565b9250826190b7576190b6619062565b5b828204905092915050565b7f5061757361626c653a206e6f7420706175736564000000000000000000000000600082015250565b60006190f860148361769e565b9150619103826190c2565b602082019050919050565b60006020820190508181036000830152619127816190eb565b9050919050565b60007fffffffff0000000000000000000000000000000000000000000000000000000082169050919050565b6191638161912e565b82525050565b600060208201905061917e600083018461915a565b9291505056fea2646970667358221220fcfdcd2f29e4b703d793465cb11847c9776c3cfbbea5a10f15a4ee5fecdee77964736f6c63430008090033",
  "linkReferences": {
    "contracts/iterableMapLib.sol": {
      "accountBalanceIterableMap": [
        {
          "length": 20,
          "start": 7809
        },
        {
          "length": 20,
          "start": 8618
        },
        {
          "length": 20,
          "start": 11580
        },
        {
          "length": 20,
          "start": 11828
        },
        {
          "length": 20,
          "start": 11981
        },
        {
          "length": 20,
          "start": 12135
        },
        {
          "length": 20,
          "start": 13947
        },
        {
          "length": 20,
          "start": 22749
        },
        {
          "length": 20,
          "start": 22902
        },
        {
          "length": 20,
          "start": 23056
        }
      ],
      "collectionDataIterableMap": [
        {
          "length": 20,
          "start": 3730
        },
        {
          "length": 20,
          "start": 3938
        },
        {
          "length": 20,
          "start": 5428
        },
        {
          "length": 20,
          "start": 5639
        },
        {
          "length": 20,
          "start": 17708
        },
        {
          "length": 20,
          "start": 17916
        },
        {
          "length": 20,
          "start": 18065
        },
        {
          "length": 20,
          "start": 21134
        }
      ],
      "pendingRentFeeIterableMap": [
        {
          "length": 20,
          "start": 15671
        },
        {
          "length": 20,
          "start": 19895
        },
        {
          "length": 20,
          "start": 23239
        }
      ],
      "registerDataIterableMap": [
        {
          "length": 20,
          "start": 4931
        },
        {
          "length": 20,
          "start": 5959
        },
        {
          "length": 20,
          "start": 9971
        },
        {
          "length": 20,
          "start": 10444
        },
        {
          "length": 20,
          "start": 14110
        },
        {
          "length": 20,
          "start": 14770
        },
        {
          "length": 20,
          "start": 14982
        },
        {
          "length": 20,
          "start": 15994
        },
        {
          "length": 20,
          "start": 18343
        },
        {
          "length": 20,
          "start": 19056
        },
        {
          "length": 20,
          "start": 21505
        },
        {
          "length": 20,
          "start": 21715
        },
        {
          "length": 20,
          "start": 21861
        }
      ],
      "rentDataIterableMap": [
        {
          "length": 20,
          "start": 8922
        },
        {
          "length": 20,
          "start": 10761
        },
        {
          "length": 20,
          "start": 10992
        },
        {
          "length": 20,
          "start": 11289
        },
        {
          "length": 20,
          "start": 12324
        },
        {
          "length": 20,
          "start": 12471
        },
        {
          "length": 20,
          "start": 14560
        },
        {
          "length": 20,
          "start": 15516
        },
        {
          "length": 20,
          "start": 18765
        },
        {
          "length": 20,
          "start": 19754
        },
        {
          "length": 20,
          "start": 22186
        },
        {
          "length": 20,
          "start": 22396
        },
        {
          "length": 20,
          "start": 23399
        }
      ],
      "serviceDataIterableMap": [
        {
          "length": 20,
          "start": 4203
        },
        {
          "length": 20,
          "start": 7169
        },
        {
          "length": 20,
          "start": 7377
        },
        {
          "length": 20,
          "start": 9087
        },
        {
          "length": 20,
          "start": 9295
        },
        {
          "length": 20,
          "start": 9444
        },
        {
          "length": 20,
          "start": 14322
        },
        {
          "length": 20,
          "start": 18555
        }
      ],
      "tokenDataIterableMap": [
        {
          "length": 20,
          "start": 10235
        },
        {
          "length": 20,
          "start": 13324
        },
        {
          "length": 20,
          "start": 13532
        },
        {
          "length": 20,
          "start": 13681
        },
        {
          "length": 20,
          "start": 20226
        },
        {
          "length": 20,
          "start": 20434
        }
      ]
    }
  },
  "deployedLinkReferences": {
    "contracts/iterableMapLib.sol": {
      "accountBalanceIterableMap": [
        {
          "length": 20,
          "start": 6712
        },
        {
          "length": 20,
          "start": 7521
        },
        {
          "length": 20,
          "start": 10483
        },
        {
          "length": 20,
          "start": 10731
        },
        {
          "length": 20,
          "start": 10884
        },
        {
          "length": 20,
          "start": 11038
        },
        {
          "length": 20,
          "start": 12850
        },
        {
          "length": 20,
          "start": 21652
        },
        {
          "length": 20,
          "start": 21805
        },
        {
          "length": 20,
          "start": 21959
        }
      ],
      "collectionDataIterableMap": [
        {
          "length": 20,
          "start": 2633
        },
        {
          "length": 20,
          "start": 2841
        },
        {
          "length": 20,
          "start": 4331
        },
        {
          "length": 20,
          "start": 4542
        },
        {
          "length": 20,
          "start": 16611
        },
        {
          "length": 20,
          "start": 16819
        },
        {
          "length": 20,
          "start": 16968
        },
        {
          "length": 20,
          "start": 20037
        }
      ],
      "pendingRentFeeIterableMap": [
        {
          "length": 20,
          "start": 14574
        },
        {
          "length": 20,
          "start": 18798
        },
        {
          "length": 20,
          "start": 22142
        }
      ],
      "registerDataIterableMap": [
        {
          "length": 20,
          "start": 3834
        },
        {
          "length": 20,
          "start": 4862
        },
        {
          "length": 20,
          "start": 8874
        },
        {
          "length": 20,
          "start": 9347
        },
        {
          "length": 20,
          "start": 13013
        },
        {
          "length": 20,
          "start": 13673
        },
        {
          "length": 20,
          "start": 13885
        },
        {
          "length": 20,
          "start": 14897
        },
        {
          "length": 20,
          "start": 17246
        },
        {
          "length": 20,
          "start": 17959
        },
        {
          "length": 20,
          "start": 20408
        },
        {
          "length": 20,
          "start": 20618
        },
        {
          "length": 20,
          "start": 20764
        }
      ],
      "rentDataIterableMap": [
        {
          "length": 20,
          "start": 7825
        },
        {
          "length": 20,
          "start": 9664
        },
        {
          "length": 20,
          "start": 9895
        },
        {
          "length": 20,
          "start": 10192
        },
        {
          "length": 20,
          "start": 11227
        },
        {
          "length": 20,
          "start": 11374
        },
        {
          "length": 20,
          "start": 13463
        },
        {
          "length": 20,
          "start": 14419
        },
        {
          "length": 20,
          "start": 17668
        },
        {
          "length": 20,
          "start": 18657
        },
        {
          "length": 20,
          "start": 21089
        },
        {
          "length": 20,
          "start": 21299
        },
        {
          "length": 20,
          "start": 22302
        }
      ],
      "serviceDataIterableMap": [
        {
          "length": 20,
          "start": 3106
        },
        {
          "length": 20,
          "start": 6072
        },
        {
          "length": 20,
          "start": 6280
        },
        {
          "length": 20,
          "start": 7990
        },
        {
          "length": 20,
          "start": 8198
        },
        {
          "length": 20,
          "start": 8347
        },
        {
          "length": 20,
          "start": 13225
        },
        {
          "length": 20,
          "start": 17458
        }
      ],
      "tokenDataIterableMap": [
        {
          "length": 20,
          "start": 9138
        },
        {
          "length": 20,
          "start": 12227
        },
        {
          "length": 20,
          "start": 12435
        },
        {
          "length": 20,
          "start": 12584
        },
        {
          "length": 20,
          "start": 19129
        },
        {
          "length": 20,
          "start": 19337
        }
      ]
    }
  }
}