{
  "_format": "hh-sol-artifact-1",
  "contractName": "faucetToken",
  "sourceName": "contracts/faucetToken.sol",
  "abi": [
    {
      "inputs": [
        {
          "internalType": "string",
          "name": "rewardTokenName_",
          "type": "string"
        },
        {
          "internalType": "string",
          "name": "rewardTokenSymbol_",
          "type": "string"
        },
        {
          "internalType": "address",
          "name": "rewardTokenShareContractAddress_",
          "type": "address"
        },
        {
          "internalType": "address",
          "name": "projectTeamAccountAddress_",
          "type": "address"
        }
      ],
      "stateMutability": "nonpayable",
      "type": "constructor"
    },
    {
      "anonymous": false,
      "inputs": [
        {
          "indexed": true,
          "internalType": "address",
          "name": "owner",
          "type": "address"
        },
        {
          "indexed": true,
          "internalType": "address",
          "name": "spender",
          "type": "address"
        },
        {
          "indexed": false,
          "internalType": "uint256",
          "name": "value",
          "type": "uint256"
        }
      ],
      "name": "Approval",
      "type": "event"
    },
    {
      "anonymous": false,
      "inputs": [
        {
          "indexed": false,
          "internalType": "uint256",
          "name": "amount",
          "type": "uint256"
        }
      ],
      "name": "Faucet",
      "type": "event"
    },
    {
      "anonymous": false,
      "inputs": [
        {
          "indexed": false,
          "internalType": "uint256",
          "name": "amount",
          "type": "uint256"
        }
      ],
      "name": "RewardTokenReleased",
      "type": "event"
    },
    {
      "anonymous": false,
      "inputs": [
        {
          "indexed": true,
          "internalType": "address",
          "name": "from",
          "type": "address"
        },
        {
          "indexed": true,
          "internalType": "address",
          "name": "to",
          "type": "address"
        },
        {
          "indexed": false,
          "internalType": "uint256",
          "name": "value",
          "type": "uint256"
        }
      ],
      "name": "Transfer",
      "type": "event"
    },
    {
      "inputs": [],
      "name": "DOMAIN_SEPARATOR",
      "outputs": [
        {
          "internalType": "bytes32",
          "name": "",
          "type": "bytes32"
        }
      ],
      "stateMutability": "view",
      "type": "function"
    },
    {
      "inputs": [
        {
          "internalType": "address",
          "name": "owner",
          "type": "address"
        },
        {
          "internalType": "address",
          "name": "spender",
          "type": "address"
        }
      ],
      "name": "allowance",
      "outputs": [
        {
          "internalType": "uint256",
          "name": "",
          "type": "uint256"
        }
      ],
      "stateMutability": "view",
      "type": "function"
    },
    {
      "inputs": [
        {
          "internalType": "address",
          "name": "spender",
          "type": "address"
        },
        {
          "internalType": "uint256",
          "name": "amount",
          "type": "uint256"
        }
      ],
      "name": "approve",
      "outputs": [
        {
          "internalType": "bool",
          "name": "",
          "type": "bool"
        }
      ],
      "stateMutability": "nonpayable",
      "type": "function"
    },
    {
      "inputs": [
        {
          "internalType": "address",
          "name": "account",
          "type": "address"
        }
      ],
      "name": "balanceOf",
      "outputs": [
        {
          "internalType": "uint256",
          "name": "",
          "type": "uint256"
        }
      ],
      "stateMutability": "view",
      "type": "function"
    },
    {
      "inputs": [],
      "name": "decimals",
      "outputs": [
        {
          "internalType": "uint8",
          "name": "",
          "type": "uint8"
        }
      ],
      "stateMutability": "view",
      "type": "function"
    },
    {
      "inputs": [
        {
          "internalType": "address",
          "name": "spender",
          "type": "address"
        },
        {
          "internalType": "uint256",
          "name": "subtractedValue",
          "type": "uint256"
        }
      ],
      "name": "decreaseAllowance",
      "outputs": [
        {
          "internalType": "bool",
          "name": "",
          "type": "bool"
        }
      ],
      "stateMutability": "nonpayable",
      "type": "function"
    },
    {
      "inputs": [],
      "name": "duration",
      "outputs": [
        {
          "internalType": "uint256",
          "name": "",
          "type": "uint256"
        }
      ],
      "stateMutability": "view",
      "type": "function"
    },
    {
      "inputs": [],
      "name": "faucet",
      "outputs": [],
      "stateMutability": "nonpayable",
      "type": "function"
    },
    {
      "inputs": [],
      "name": "frequency",
      "outputs": [
        {
          "internalType": "uint256",
          "name": "",
          "type": "uint256"
        }
      ],
      "stateMutability": "view",
      "type": "function"
    },
    {
      "inputs": [
        {
          "internalType": "address",
          "name": "spender",
          "type": "address"
        },
        {
          "internalType": "uint256",
          "name": "addedValue",
          "type": "uint256"
        }
      ],
      "name": "increaseAllowance",
      "outputs": [
        {
          "internalType": "bool",
          "name": "",
          "type": "bool"
        }
      ],
      "stateMutability": "nonpayable",
      "type": "function"
    },
    {
      "inputs": [],
      "name": "minimumReleasable",
      "outputs": [
        {
          "internalType": "uint256",
          "name": "",
          "type": "uint256"
        }
      ],
      "stateMutability": "view",
      "type": "function"
    },
    {
      "inputs": [],
      "name": "name",
      "outputs": [
        {
          "internalType": "string",
          "name": "",
          "type": "string"
        }
      ],
      "stateMutability": "view",
      "type": "function"
    },
    {
      "inputs": [
        {
          "internalType": "address",
          "name": "owner",
          "type": "address"
        }
      ],
      "name": "nonces",
      "outputs": [
        {
          "internalType": "uint256",
          "name": "",
          "type": "uint256"
        }
      ],
      "stateMutability": "view",
      "type": "function"
    },
    {
      "inputs": [
        {
          "internalType": "address",
          "name": "owner",
          "type": "address"
        },
        {
          "internalType": "address",
          "name": "spender",
          "type": "address"
        },
        {
          "internalType": "uint256",
          "name": "value",
          "type": "uint256"
        },
        {
          "internalType": "uint256",
          "name": "deadline",
          "type": "uint256"
        },
        {
          "internalType": "uint8",
          "name": "v",
          "type": "uint8"
        },
        {
          "internalType": "bytes32",
          "name": "r",
          "type": "bytes32"
        },
        {
          "internalType": "bytes32",
          "name": "s",
          "type": "bytes32"
        }
      ],
      "name": "permit",
      "outputs": [],
      "stateMutability": "nonpayable",
      "type": "function"
    },
    {
      "inputs": [],
      "name": "releasable",
      "outputs": [
        {
          "internalType": "uint256",
          "name": "",
          "type": "uint256"
        }
      ],
      "stateMutability": "view",
      "type": "function"
    },
    {
      "inputs": [],
      "name": "release",
      "outputs": [],
      "stateMutability": "nonpayable",
      "type": "function"
    },
    {
      "inputs": [],
      "name": "released",
      "outputs": [
        {
          "internalType": "uint256",
          "name": "",
          "type": "uint256"
        }
      ],
      "stateMutability": "view",
      "type": "function"
    },
    {
      "inputs": [],
      "name": "remainingTimestampToNextVesting",
      "outputs": [
        {
          "internalType": "uint256",
          "name": "",
          "type": "uint256"
        }
      ],
      "stateMutability": "view",
      "type": "function"
    },
    {
      "inputs": [],
      "name": "rewardTokenShareContractAddress",
      "outputs": [
        {
          "internalType": "address",
          "name": "",
          "type": "address"
        }
      ],
      "stateMutability": "view",
      "type": "function"
    },
    {
      "inputs": [],
      "name": "start",
      "outputs": [
        {
          "internalType": "uint256",
          "name": "",
          "type": "uint256"
        }
      ],
      "stateMutability": "view",
      "type": "function"
    },
    {
      "inputs": [],
      "name": "symbol",
      "outputs": [
        {
          "internalType": "string",
          "name": "",
          "type": "string"
        }
      ],
      "stateMutability": "view",
      "type": "function"
    },
    {
      "inputs": [],
      "name": "totalAllocation",
      "outputs": [
        {
          "internalType": "uint256",
          "name": "",
          "type": "uint256"
        }
      ],
      "stateMutability": "view",
      "type": "function"
    },
    {
      "inputs": [],
      "name": "totalSupply",
      "outputs": [
        {
          "internalType": "uint256",
          "name": "",
          "type": "uint256"
        }
      ],
      "stateMutability": "view",
      "type": "function"
    },
    {
      "inputs": [
        {
          "internalType": "address",
          "name": "to",
          "type": "address"
        },
        {
          "internalType": "uint256",
          "name": "amount",
          "type": "uint256"
        }
      ],
      "name": "transfer",
      "outputs": [
        {
          "internalType": "bool",
          "name": "",
          "type": "bool"
        }
      ],
      "stateMutability": "nonpayable",
      "type": "function"
    },
    {
      "inputs": [
        {
          "internalType": "address",
          "name": "from",
          "type": "address"
        },
        {
          "internalType": "address",
          "name": "to",
          "type": "address"
        },
        {
          "internalType": "uint256",
          "name": "amount",
          "type": "uint256"
        }
      ],
      "name": "transferFrom",
      "outputs": [
        {
          "internalType": "bool",
          "name": "",
          "type": "bool"
        }
      ],
      "stateMutability": "nonpayable",
      "type": "function"
    },
    {
      "inputs": [
        {
          "internalType": "uint256",
          "name": "timestamp_",
          "type": "uint256"
        }
      ],
      "name": "vestedAmount",
      "outputs": [
        {
          "internalType": "uint256",
          "name": "",
          "type": "uint256"
        }
      ],
      "stateMutability": "view",
      "type": "function"
    }
  ],
  "bytecode": "0x6101e060405268056bc75e2d631000006101c0523480156200002057600080fd5b5060405162001c8c38038062001c8c83398101604081905262000043916200045c565b838383838380604051806040016040528060018152602001603160f81b815250868681600390805190602001906200007d929190620002cc565b50805162000093906004906020840190620002cc565b5050825160208085019190912083518483012060e08290526101008190524660a0818152604080517f8b73c3c69bb8fe3d512ecc4cf759cc79239f7b179b0ffacaa9a75d522b39400f81880181905281830187905260608201869052608082019490945230818401528151808203909301835260c0019052805194019390932091935091906080523060c0526101205250505050506001600160a01b038216620001aa5760405162461bcd60e51b815260206004820152603c60248201527f726577617264546f6b656e3a20726577617264546f6b656e5368617265436f6e60448201527f747261637441646472657373206973207a65726f20616464726573730000000060648201526084015b60405180910390fd5b6001600160a01b03821661014052426101605263090321006101805260326101a052620001e3816aa56fa5b99019a5c800000062000209565b620001fb306b0295be96e64066972000000062000209565b50505050505050506200054f565b6001600160a01b038216620002615760405162461bcd60e51b815260206004820152601f60248201527f45524332303a206d696e7420746f20746865207a65726f2061646472657373006044820152606401620001a1565b8060026000828254620002759190620004eb565b90915550506001600160a01b038216600081815260208181526040808320805486019055518481527fddf252ad1be2c89b69c2b068fc378daa952ba7f163c4a11628f55a4df523b3ef910160405180910390a35050565b828054620002da9062000512565b90600052602060002090601f016020900481019282620002fe576000855562000349565b82601f106200031957805160ff191683800117855562000349565b8280016001018555821562000349579182015b82811115620003495782518255916020019190600101906200032c565b50620003579291506200035b565b5090565b5b808211156200035757600081556001016200035c565b634e487b7160e01b600052604160045260246000fd5b600082601f8301126200039a57600080fd5b81516001600160401b0380821115620003b757620003b762000372565b604051601f8301601f19908116603f01168101908282118183101715620003e257620003e262000372565b81604052838152602092508683858801011115620003ff57600080fd5b600091505b8382101562000423578582018301518183018401529082019062000404565b83821115620004355760008385830101525b9695505050505050565b80516001600160a01b03811681146200045757600080fd5b919050565b600080600080608085870312156200047357600080fd5b84516001600160401b03808211156200048b57600080fd5b620004998883890162000388565b95506020870151915080821115620004b057600080fd5b50620004bf8782880162000388565b935050620004d0604086016200043f565b9150620004e0606086016200043f565b905092959194509250565b600082198211156200050d57634e487b7160e01b600052601160045260246000fd5b500190565b600181811c908216806200052757607f821691505b602082108114156200054957634e487b7160e01b600052602260045260246000fd5b50919050565b60805160a05160c05160e05161010051610120516101405161016051610180516101a0516101c0516116af620005dd600039600081816108d40152610929015260006109510152600061038f015260006106fa0152600061071e01526000610dd701526000610e2601526000610e0101526000610d5a01526000610d8401526000610dae01526116af6000f3fe608060405234801561001057600080fd5b506004361061013e5760003560e01c806306fdde0314610143578063095ea7b3146101615780630fb5a6b41461018457806318160ddd1461019a5780631bfce853146101a257806323b872dd146101b5578063313ce567146101c85780633644e515146101d757806339509351146101df57806370a08231146101f257806379203dc41461021b5780637ecebe00146102235780637fbc5e711461023657806386d1a69f1461023e57806395d89b411461024857806396132521146102505780639e4ed21614610258578063a457c2d714610260578063a9059cbb14610273578063be9a655514610286578063ca44496e1461028e578063d505accf146102a3578063dd62ed3e146102b6578063de5f72fd146102c9578063ead50da3146102d1578063fbccedae146102d9575b600080fd5b61014b6102e1565b604051610158919061138c565b60405180910390f35b61017461016f3660046113db565b610373565b6040519015158152602001610158565b61018c61038d565b604051908152602001610158565b60025461018c565b61018c6101b0366004611405565b6103b1565b6101746101c336600461141e565b6103c4565b60405160128152602001610158565b61018c6103e8565b6101746101ed3660046113db565b6103f7565b61018c61020036600461145a565b6001600160a01b031660009081526020819052604090205490565b61018c610419565b61018c61023136600461145a565b6104a1565b61018c6104bf565b6102466104db565b005b61014b6105ec565b60075461018c565b61018c6105fb565b61017461026e3660046113db565b61066f565b6101746102813660046113db565b6106ea565b61018c6106f8565b61029661071c565b604051610158919061147c565b6102466102b1366004611490565b610740565b61018c6102c4366004611503565b6108a4565b6102466108cf565b61018c61094f565b61018c610973565b6060600380546102f090611536565b80601f016020809104026020016040519081016040528092919081815260200182805461031c90611536565b80156103695780601f1061033e57610100808354040283529160200191610369565b820191906000526020600020905b81548152906001019060200180831161034c57829003601f168201915b5050505050905090565b600033610381818585610991565b60019150505b92915050565b7f000000000000000000000000000000000000000000000000000000000000000090565b60006103876103be610419565b83610ab5565b6000336103d2858285610b2f565b6103dd858585610ba9565b506001949350505050565b60006103f2610d4d565b905090565b60003361038181858561040a83836108a4565b6104149190611581565b610991565b600061042460075490565b6040516370a0823160e01b815230906370a082319061044790839060040161147c565b60206040518083038186803b15801561045f57600080fd5b505afa158015610473573d6000803e3d6000fd5b505050506040513d601f19601f820116820180604052508101906104979190611599565b6103f29190611581565b6001600160a01b038116600090815260056020526040812054610387565b60006104c961094f565b6104d1610419565b6103f291906115b2565b60006104e5610973565b90506104ef61094f565b6104f7610419565b61050191906115b2565b811161058d5760405162461bcd60e51b815260206004820152604a60248201527f726577617264546f6b656e3a2052656c65617361626c6520616d6f756e74206960448201527f7320736d616c6c6572207468616e207468652076657374696e67206d696e696d6064820152693ab69030b6b7bab73a1760b11b608482015260a4015b60405180910390fd5b806007600082825461059f9190611581565b90915550506040518181527fd3f992c7c1e4410888fed88c0f4274d4d31419df66d8fbb0ac18d687612850bc9060200160405180910390a16105e9306105e361071c565b83610e74565b50565b6060600480546102f090611536565b6000428161060761094f565b61060f61038d565b61061991906115b2565b90506000805b61062761094f565b8110156106665761063881846115d4565b61064290856115f3565b91508282101561065457509392505050565b8061065e8161160a565b91505061061f565b50909392505050565b6000338161067d82866108a4565b9050838110156106dd5760405162461bcd60e51b815260206004820152602560248201527f45524332303a2064656372656173656420616c6c6f77616e63652062656c6f77604482015264207a65726f60d81b6064820152608401610584565b6103dd8286868403610991565b600033610381818585610ba9565b7f000000000000000000000000000000000000000000000000000000000000000090565b7f000000000000000000000000000000000000000000000000000000000000000090565b834211156107905760405162461bcd60e51b815260206004820152601d60248201527f45524332305065726d69743a206578706972656420646561646c696e650000006044820152606401610584565b60007f6e71edae12b1b97f4d1f60370fef10105fa2faae0126114a169c64845d6126c98888886107bf8c610ecb565b6040805160208101969096526001600160a01b0394851690860152929091166060840152608083015260a082015260c0810186905260e001604051602081830303815290604052805190602001209050600061081a82610ef3565b9050600061082a82878787610f41565b9050896001600160a01b0316816001600160a01b03161461088d5760405162461bcd60e51b815260206004820152601e60248201527f45524332305065726d69743a20696e76616c6964207369676e617475726500006044820152606401610584565b6108988a8a8a610991565b50505050505050505050565b6001600160a01b03918216600090815260016020908152604080832093909416825291909152205490565b6040517f000000000000000000000000000000000000000000000000000000000000000081527fdcccdbbfb277d3f05d1098d34e3540b731dcde9e6f6d74d27f8316797035140a9060200160405180910390a161094d30337f0000000000000000000000000000000000000000000000000000000000000000610e74565b565b7f000000000000000000000000000000000000000000000000000000000000000090565b600061097e60075490565b610987426103b1565b6103f291906115f3565b6001600160a01b0383166109f35760405162461bcd60e51b8152602060048201526024808201527f45524332303a20617070726f76652066726f6d20746865207a65726f206164646044820152637265737360e01b6064820152608401610584565b6001600160a01b038216610a545760405162461bcd60e51b815260206004820152602260248201527f45524332303a20617070726f766520746f20746865207a65726f206164647265604482015261737360f01b6064820152608401610584565b6001600160a01b0383811660008181526001602090815260408083209487168084529482529182902085905590518481527f8c5be1e5ebec7d5bd14f71427d1e84f3dd0314c0f7b2291e5b200ac8c7c3b925910160405180910390a3505050565b6000610abf6106f8565b821015610ace57506000610387565b610ad661038d565b610ade6106f8565b610ae89190611581565b821115610af6575081610387565b6000610b0061038d565b610b086106f8565b610b1290856115f3565b610b1c90866115d4565b610b2691906115b2565b91506103879050565b6000610b3b84846108a4565b90506000198114610ba35781811015610b965760405162461bcd60e51b815260206004820152601d60248201527f45524332303a20696e73756666696369656e7420616c6c6f77616e63650000006044820152606401610584565b610ba38484848403610991565b50505050565b6001600160a01b038316610c0d5760405162461bcd60e51b815260206004820152602560248201527f45524332303a207472616e736665722066726f6d20746865207a65726f206164604482015264647265737360d81b6064820152608401610584565b6001600160a01b038216610c6f5760405162461bcd60e51b815260206004820152602360248201527f45524332303a207472616e7366657220746f20746865207a65726f206164647260448201526265737360e81b6064820152608401610584565b6001600160a01b03831660009081526020819052604090205481811015610ce75760405162461bcd60e51b815260206004820152602660248201527f45524332303a207472616e7366657220616d6f756e7420657863656564732062604482015265616c616e636560d01b6064820152608401610584565b6001600160a01b03848116600081815260208181526040808320878703905593871680835291849020805487019055925185815290927fddf252ad1be2c89b69c2b068fc378daa952ba7f163c4a11628f55a4df523b3ef910160405180910390a3610ba3565b6000306001600160a01b037f000000000000000000000000000000000000000000000000000000000000000016148015610da657507f000000000000000000000000000000000000000000000000000000000000000046145b15610dd057507f000000000000000000000000000000000000000000000000000000000000000090565b50604080517f00000000000000000000000000000000000000000000000000000000000000006020808301919091527f0000000000000000000000000000000000000000000000000000000000000000828401527f000000000000000000000000000000000000000000000000000000000000000060608301524660808301523060a0808401919091528351808403909101815260c0909201909252805191012090565b604080516001600160a01b038416602482015260448082018490528251808303909101815260649091019091526020810180516001600160e01b031663a9059cbb60e01b179052610ec6908490610f6b565b505050565b6001600160a01b03811660009081526005602052604090208054600181018255905b50919050565b6000610387610f00610d4d565b8360405161190160f01b6020820152602281018390526042810182905260009060620160405160208183030381529060405280519060200120905092915050565b6000806000610f528787878761103d565b91509150610f5f816110f7565b5090505b949350505050565b6000610fc0826040518060400160405280602081526020017f5361666545524332303a206c6f772d6c6576656c2063616c6c206661696c6564815250856001600160a01b03166112409092919063ffffffff16565b805190915015610ec65780806020019051810190610fde9190611625565b610ec65760405162461bcd60e51b815260206004820152602a60248201527f5361666545524332303a204552433230206f7065726174696f6e20646964206e6044820152691bdd081cdd58d8d9595960b21b6064820152608401610584565b6000806fa2a8918ca85bafe22016d0b997e4df60600160ff1b0383111561106a57506000905060036110ee565b6040805160008082526020820180845289905260ff881692820192909252606081018690526080810185905260019060a0016020604051602081039080840390855afa1580156110be573d6000803e3d6000fd5b5050604051601f1901519150506001600160a01b0381166110e7576000600192509250506110ee565b9150600090505b94509492505050565b600081600481111561110b5761110b611647565b14156111145750565b600181600481111561112857611128611647565b14156111715760405162461bcd60e51b815260206004820152601860248201527745434453413a20696e76616c6964207369676e617475726560401b6044820152606401610584565b600281600481111561118557611185611647565b14156111d35760405162461bcd60e51b815260206004820152601f60248201527f45434453413a20696e76616c6964207369676e6174757265206c656e677468006044820152606401610584565b60038160048111156111e7576111e7611647565b14156105e95760405162461bcd60e51b815260206004820152602260248201527f45434453413a20696e76616c6964207369676e6174757265202773272076616c604482015261756560f01b6064820152608401610584565b6060610f63848460008585600080866001600160a01b03168587604051611267919061165d565b60006040518083038185875af1925050503d80600081146112a4576040519150601f19603f3d011682016040523d82523d6000602084013e6112a9565b606091505b50915091506112ba878383876112c5565b979650505050505050565b6060831561133157825161132a576001600160a01b0385163b61132a5760405162461bcd60e51b815260206004820152601d60248201527f416464726573733a2063616c6c20746f206e6f6e2d636f6e74726163740000006044820152606401610584565b5081610f63565b610f6383838151156113465781518083602001fd5b8060405162461bcd60e51b8152600401610584919061138c565b60005b8381101561137b578181015183820152602001611363565b83811115610ba35750506000910152565b60208152600082518060208401526113ab816040850160208701611360565b601f01601f19169190910160400192915050565b80356001600160a01b03811681146113d657600080fd5b919050565b600080604083850312156113ee57600080fd5b6113f7836113bf565b946020939093013593505050565b60006020828403121561141757600080fd5b5035919050565b60008060006060848603121561143357600080fd5b61143c846113bf565b925061144a602085016113bf565b9150604084013590509250925092565b60006020828403121561146c57600080fd5b611475826113bf565b9392505050565b6001600160a01b0391909116815260200190565b600080600080600080600060e0888a0312156114ab57600080fd5b6114b4886113bf565b96506114c2602089016113bf565b95506040880135945060608801359350608088013560ff811681146114e657600080fd5b9699959850939692959460a0840135945060c09093013592915050565b6000806040838503121561151657600080fd5b61151f836113bf565b915061152d602084016113bf565b90509250929050565b600181811c9082168061154a57607f821691505b60208210811415610eed57634e487b7160e01b600052602260045260246000fd5b634e487b7160e01b600052601160045260246000fd5b600082198211156115945761159461156b565b500190565b6000602082840312156115ab57600080fd5b5051919050565b6000826115cf57634e487b7160e01b600052601260045260246000fd5b500490565b60008160001904831182151516156115ee576115ee61156b565b500290565b6000828210156116055761160561156b565b500390565b600060001982141561161e5761161e61156b565b5060010190565b60006020828403121561163757600080fd5b8151801515811461147557600080fd5b634e487b7160e01b600052602160045260246000fd5b6000825161166f818460208701611360565b919091019291505056fea2646970667358221220607ec6ae8475c7cce00c3e60b3ea7f01c3dd54a8da50936fea052e0207feac1264736f6c63430008090033",
  "linkReferences": {},
  "deployedLinkReferences": {}
}