{
  "_format": "hh-sol-artifact-1",
  "contractName": "faucetToken",
  "sourceName": "contracts/faucetToken.sol",
  "abi": [
    {
      "inputs": [
        {
          "internalType": "string",
          "name": "rewardTokenName_",
          "type": "string"
        },
        {
          "internalType": "string",
          "name": "rewardTokenSymbol_",
          "type": "string"
        },
        {
          "internalType": "address",
          "name": "rewardTokenShareContractAddress_",
          "type": "address"
        },
        {
          "internalType": "address",
          "name": "projectTeamAccountAddress_",
          "type": "address"
        }
      ],
      "stateMutability": "nonpayable",
      "type": "constructor"
    },
    {
      "anonymous": false,
      "inputs": [
        {
          "indexed": true,
          "internalType": "address",
          "name": "owner",
          "type": "address"
        },
        {
          "indexed": true,
          "internalType": "address",
          "name": "spender",
          "type": "address"
        },
        {
          "indexed": false,
          "internalType": "uint256",
          "name": "value",
          "type": "uint256"
        }
      ],
      "name": "Approval",
      "type": "event"
    },
    {
      "anonymous": false,
      "inputs": [
        {
          "indexed": false,
          "internalType": "uint256",
          "name": "amount",
          "type": "uint256"
        }
      ],
      "name": "Faucet",
      "type": "event"
    },
    {
      "anonymous": false,
      "inputs": [
        {
          "indexed": false,
          "internalType": "uint256",
          "name": "amount",
          "type": "uint256"
        }
      ],
      "name": "RewardTokenReleased",
      "type": "event"
    },
    {
      "anonymous": false,
      "inputs": [
        {
          "indexed": true,
          "internalType": "address",
          "name": "from",
          "type": "address"
        },
        {
          "indexed": true,
          "internalType": "address",
          "name": "to",
          "type": "address"
        },
        {
          "indexed": false,
          "internalType": "uint256",
          "name": "value",
          "type": "uint256"
        }
      ],
      "name": "Transfer",
      "type": "event"
    },
    {
      "inputs": [],
      "name": "DOMAIN_SEPARATOR",
      "outputs": [
        {
          "internalType": "bytes32",
          "name": "",
          "type": "bytes32"
        }
      ],
      "stateMutability": "view",
      "type": "function"
    },
    {
      "inputs": [
        {
          "internalType": "address",
          "name": "owner",
          "type": "address"
        },
        {
          "internalType": "address",
          "name": "spender",
          "type": "address"
        }
      ],
      "name": "allowance",
      "outputs": [
        {
          "internalType": "uint256",
          "name": "",
          "type": "uint256"
        }
      ],
      "stateMutability": "view",
      "type": "function"
    },
    {
      "inputs": [
        {
          "internalType": "address",
          "name": "spender",
          "type": "address"
        },
        {
          "internalType": "uint256",
          "name": "amount",
          "type": "uint256"
        }
      ],
      "name": "approve",
      "outputs": [
        {
          "internalType": "bool",
          "name": "",
          "type": "bool"
        }
      ],
      "stateMutability": "nonpayable",
      "type": "function"
    },
    {
      "inputs": [
        {
          "internalType": "address",
          "name": "account",
          "type": "address"
        }
      ],
      "name": "balanceOf",
      "outputs": [
        {
          "internalType": "uint256",
          "name": "",
          "type": "uint256"
        }
      ],
      "stateMutability": "view",
      "type": "function"
    },
    {
      "inputs": [],
      "name": "currentReleasable",
      "outputs": [
        {
          "internalType": "uint256",
          "name": "",
          "type": "uint256"
        }
      ],
      "stateMutability": "view",
      "type": "function"
    },
    {
      "inputs": [],
      "name": "decimals",
      "outputs": [
        {
          "internalType": "uint8",
          "name": "",
          "type": "uint8"
        }
      ],
      "stateMutability": "view",
      "type": "function"
    },
    {
      "inputs": [
        {
          "internalType": "address",
          "name": "spender",
          "type": "address"
        },
        {
          "internalType": "uint256",
          "name": "subtractedValue",
          "type": "uint256"
        }
      ],
      "name": "decreaseAllowance",
      "outputs": [
        {
          "internalType": "bool",
          "name": "",
          "type": "bool"
        }
      ],
      "stateMutability": "nonpayable",
      "type": "function"
    },
    {
      "inputs": [],
      "name": "duration",
      "outputs": [
        {
          "internalType": "uint256",
          "name": "",
          "type": "uint256"
        }
      ],
      "stateMutability": "view",
      "type": "function"
    },
    {
      "inputs": [],
      "name": "faucet",
      "outputs": [],
      "stateMutability": "nonpayable",
      "type": "function"
    },
    {
      "inputs": [],
      "name": "frequency",
      "outputs": [
        {
          "internalType": "uint256",
          "name": "",
          "type": "uint256"
        }
      ],
      "stateMutability": "view",
      "type": "function"
    },
    {
      "inputs": [
        {
          "internalType": "address",
          "name": "spender",
          "type": "address"
        },
        {
          "internalType": "uint256",
          "name": "addedValue",
          "type": "uint256"
        }
      ],
      "name": "increaseAllowance",
      "outputs": [
        {
          "internalType": "bool",
          "name": "",
          "type": "bool"
        }
      ],
      "stateMutability": "nonpayable",
      "type": "function"
    },
    {
      "inputs": [],
      "name": "minimumReleasable",
      "outputs": [
        {
          "internalType": "uint256",
          "name": "",
          "type": "uint256"
        }
      ],
      "stateMutability": "view",
      "type": "function"
    },
    {
      "inputs": [],
      "name": "name",
      "outputs": [
        {
          "internalType": "string",
          "name": "",
          "type": "string"
        }
      ],
      "stateMutability": "view",
      "type": "function"
    },
    {
      "inputs": [
        {
          "internalType": "address",
          "name": "owner",
          "type": "address"
        }
      ],
      "name": "nonces",
      "outputs": [
        {
          "internalType": "uint256",
          "name": "",
          "type": "uint256"
        }
      ],
      "stateMutability": "view",
      "type": "function"
    },
    {
      "inputs": [
        {
          "internalType": "address",
          "name": "owner",
          "type": "address"
        },
        {
          "internalType": "address",
          "name": "spender",
          "type": "address"
        },
        {
          "internalType": "uint256",
          "name": "value",
          "type": "uint256"
        },
        {
          "internalType": "uint256",
          "name": "deadline",
          "type": "uint256"
        },
        {
          "internalType": "uint8",
          "name": "v",
          "type": "uint8"
        },
        {
          "internalType": "bytes32",
          "name": "r",
          "type": "bytes32"
        },
        {
          "internalType": "bytes32",
          "name": "s",
          "type": "bytes32"
        }
      ],
      "name": "permit",
      "outputs": [],
      "stateMutability": "nonpayable",
      "type": "function"
    },
    {
      "inputs": [],
      "name": "release",
      "outputs": [],
      "stateMutability": "nonpayable",
      "type": "function"
    },
    {
      "inputs": [],
      "name": "remainingTimestampToNextVesting",
      "outputs": [
        {
          "internalType": "uint256",
          "name": "",
          "type": "uint256"
        }
      ],
      "stateMutability": "view",
      "type": "function"
    },
    {
      "inputs": [],
      "name": "rewardTokenShareContractAddress",
      "outputs": [
        {
          "internalType": "address",
          "name": "",
          "type": "address"
        }
      ],
      "stateMutability": "view",
      "type": "function"
    },
    {
      "inputs": [],
      "name": "start",
      "outputs": [
        {
          "internalType": "uint256",
          "name": "",
          "type": "uint256"
        }
      ],
      "stateMutability": "view",
      "type": "function"
    },
    {
      "inputs": [],
      "name": "symbol",
      "outputs": [
        {
          "internalType": "string",
          "name": "",
          "type": "string"
        }
      ],
      "stateMutability": "view",
      "type": "function"
    },
    {
      "inputs": [],
      "name": "totalAllocation",
      "outputs": [
        {
          "internalType": "uint256",
          "name": "",
          "type": "uint256"
        }
      ],
      "stateMutability": "view",
      "type": "function"
    },
    {
      "inputs": [],
      "name": "totalReleased",
      "outputs": [
        {
          "internalType": "uint256",
          "name": "",
          "type": "uint256"
        }
      ],
      "stateMutability": "view",
      "type": "function"
    },
    {
      "inputs": [],
      "name": "totalSupply",
      "outputs": [
        {
          "internalType": "uint256",
          "name": "",
          "type": "uint256"
        }
      ],
      "stateMutability": "view",
      "type": "function"
    },
    {
      "inputs": [
        {
          "internalType": "uint256",
          "name": "timestamp_",
          "type": "uint256"
        }
      ],
      "name": "totalVestedAmount",
      "outputs": [
        {
          "internalType": "uint256",
          "name": "",
          "type": "uint256"
        }
      ],
      "stateMutability": "view",
      "type": "function"
    },
    {
      "inputs": [
        {
          "internalType": "address",
          "name": "to",
          "type": "address"
        },
        {
          "internalType": "uint256",
          "name": "amount",
          "type": "uint256"
        }
      ],
      "name": "transfer",
      "outputs": [
        {
          "internalType": "bool",
          "name": "",
          "type": "bool"
        }
      ],
      "stateMutability": "nonpayable",
      "type": "function"
    },
    {
      "inputs": [
        {
          "internalType": "address",
          "name": "from",
          "type": "address"
        },
        {
          "internalType": "address",
          "name": "to",
          "type": "address"
        },
        {
          "internalType": "uint256",
          "name": "amount",
          "type": "uint256"
        }
      ],
      "name": "transferFrom",
      "outputs": [
        {
          "internalType": "bool",
          "name": "",
          "type": "bool"
        }
      ],
      "stateMutability": "nonpayable",
      "type": "function"
    }
  ],
  "bytecode": "0x6101e060405268056bc75e2d631000006101c0523480156200002057600080fd5b5060405162001c7838038062001c7883398101604081905262000043916200045c565b838383838380604051806040016040528060018152602001603160f81b815250868681600390805190602001906200007d929190620002cc565b50805162000093906004906020840190620002cc565b5050825160208085019190912083518483012060e08290526101008190524660a0818152604080517f8b73c3c69bb8fe3d512ecc4cf759cc79239f7b179b0ffacaa9a75d522b39400f81880181905281830187905260608201869052608082019490945230818401528151808203909301835260c0019052805194019390932091935091906080523060c0526101205250505050506001600160a01b038216620001aa5760405162461bcd60e51b815260206004820152603c60248201527f726577617264546f6b656e3a20726577617264546f6b656e5368617265436f6e60448201527f747261637441646472657373206973207a65726f20616464726573730000000060648201526084015b60405180910390fd5b6001600160a01b03821661014052426101605263090321006101805260326101a052620001e3816aa56fa5b99019a5c800000062000209565b620001fb306b0295be96e64066972000000062000209565b50505050505050506200054f565b6001600160a01b038216620002615760405162461bcd60e51b815260206004820152601f60248201527f45524332303a206d696e7420746f20746865207a65726f2061646472657373006044820152606401620001a1565b8060026000828254620002759190620004eb565b90915550506001600160a01b038216600081815260208181526040808320805486019055518481527fddf252ad1be2c89b69c2b068fc378daa952ba7f163c4a11628f55a4df523b3ef910160405180910390a35050565b828054620002da9062000512565b90600052602060002090601f016020900481019282620002fe576000855562000349565b82601f106200031957805160ff191683800117855562000349565b8280016001018555821562000349579182015b82811115620003495782518255916020019190600101906200032c565b50620003579291506200035b565b5090565b5b808211156200035757600081556001016200035c565b634e487b7160e01b600052604160045260246000fd5b600082601f8301126200039a57600080fd5b81516001600160401b0380821115620003b757620003b762000372565b604051601f8301601f19908116603f01168101908282118183101715620003e257620003e262000372565b81604052838152602092508683858801011115620003ff57600080fd5b600091505b8382101562000423578582018301518183018401529082019062000404565b83821115620004355760008385830101525b9695505050505050565b80516001600160a01b03811681146200045757600080fd5b919050565b600080600080608085870312156200047357600080fd5b84516001600160401b03808211156200048b57600080fd5b620004998883890162000388565b95506020870151915080821115620004b057600080fd5b50620004bf8782880162000388565b935050620004d0604086016200043f565b9150620004e0606086016200043f565b905092959194509250565b600082198211156200050d57634e487b7160e01b600052601160045260246000fd5b500190565b600181811c908216806200052757607f821691505b602082108114156200054957634e487b7160e01b600052602260045260246000fd5b50919050565b60805160a05160c05160e05161010051610120516101405161016051610180516101a0516101c05161169b620005dd600039600081816108db0152610930015260006109580152600061038f015260006107010152600061072501526000610d4601526000610d9501526000610d7001526000610cc901526000610cf301526000610d1d015261169b6000f3fe608060405234801561001057600080fd5b506004361061013e5760003560e01c806306fdde0314610143578063095ea7b3146101615780630fb5a6b41461018457806318160ddd1461019a57806323b872dd146101a2578063313ce567146101b55780633644e515146101c457806339509351146101cc5780633f6406f5146101df5780636916a207146101f257806370a08231146101fa57806379203dc4146102235780637ecebe001461022b5780637fbc5e711461023e57806386d1a69f1461024657806395d89b41146102505780639e4ed21614610258578063a457c2d714610260578063a9059cbb14610273578063be9a655514610286578063ca44496e1461028e578063d505accf146102a3578063dd62ed3e146102b6578063de5f72fd146102c9578063e33b7de3146102d1578063ead50da3146102d9575b600080fd5b61014b6102e1565b6040516101589190611378565b60405180910390f35b61017461016f3660046113c7565b610373565b6040519015158152602001610158565b61018c61038d565b604051908152602001610158565b60025461018c565b6101746101b03660046113f1565b6103b1565b60405160128152602001610158565b61018c6103d5565b6101746101da3660046113c7565b6103e4565b61018c6101ed36600461142d565b610406565b61018c610419565b61018c610208366004611446565b6001600160a01b031660009081526020819052604090205490565b61018c610437565b61018c610239366004611446565b6104bf565b61018c6104dd565b61024e6104f9565b005b61014b6105f3565b61018c610602565b61017461026e3660046113c7565b610676565b6101746102813660046113c7565b6106f1565b61018c6106ff565b610296610723565b6040516101589190611468565b61024e6102b136600461147c565b610747565b61018c6102c43660046114ef565b6108ab565b61024e6108d6565b60075461018c565b61018c610956565b6060600380546102f090611522565b80601f016020809104026020016040519081016040528092919081815260200182805461031c90611522565b80156103695780601f1061033e57610100808354040283529160200191610369565b820191906000526020600020905b81548152906001019060200180831161034c57829003601f168201915b5050505050905090565b60003361038181858561097a565b60019150505b92915050565b7f000000000000000000000000000000000000000000000000000000000000000090565b6000336103bf858285610a9e565b6103ca858585610b18565b506001949350505050565b60006103df610cbc565b905090565b6000336103818185856103f783836108ab565b610401919061156d565b61097a565b6000610387610413610437565b83610de3565b600061042460075490565b61042d42610406565b6103df9190611585565b600061044260075490565b6040516370a0823160e01b815230906370a0823190610465908390600401611468565b60206040518083038186803b15801561047d57600080fd5b505afa158015610491573d6000803e3d6000fd5b505050506040513d601f19601f820116820180604052508101906104b5919061159c565b6103df919061156d565b6001600160a01b038116600090815260056020526040812054610387565b60006104e7610956565b6104ef610437565b6103df91906115b5565b6000610503610419565b905061050d6104dd565b81116105945760405162461bcd60e51b815260206004820152604560248201527f726577617264546f6b656e3a2052656c65617361626c6520616d6f756e74206960448201527f7320736d616c6c6572207468616e20746865206d696e696d756d52656c65617360648201526430b136329760d91b608482015260a4015b60405180910390fd5b6105a6306105a0610723565b83610e5d565b80600760008282546105b8919061156d565b90915550506040518181527fd3f992c7c1e4410888fed88c0f4274d4d31419df66d8fbb0ac18d687612850bc9060200160405180910390a150565b6060600480546102f090611522565b6000428161060e610956565b61061661038d565b61062091906115b5565b90506000805b61062e610956565b81101561066d5761063f81846115d7565b6106499085611585565b91508282101561065b57509392505050565b80610665816115f6565b915050610626565b50909392505050565b6000338161068482866108ab565b9050838110156106e45760405162461bcd60e51b815260206004820152602560248201527f45524332303a2064656372656173656420616c6c6f77616e63652062656c6f77604482015264207a65726f60d81b606482015260840161058b565b6103ca828686840361097a565b600033610381818585610b18565b7f000000000000000000000000000000000000000000000000000000000000000090565b7f000000000000000000000000000000000000000000000000000000000000000090565b834211156107975760405162461bcd60e51b815260206004820152601d60248201527f45524332305065726d69743a206578706972656420646561646c696e65000000604482015260640161058b565b60007f6e71edae12b1b97f4d1f60370fef10105fa2faae0126114a169c64845d6126c98888886107c68c610eb4565b6040805160208101969096526001600160a01b0394851690860152929091166060840152608083015260a082015260c0810186905260e001604051602081830303815290604052805190602001209050600061082182610edc565b9050600061083182878787610f2a565b9050896001600160a01b0316816001600160a01b0316146108945760405162461bcd60e51b815260206004820152601e60248201527f45524332305065726d69743a20696e76616c6964207369676e61747572650000604482015260640161058b565b61089f8a8a8a61097a565b50505050505050505050565b6001600160a01b03918216600090815260016020908152604080832093909416825291909152205490565b6040517f000000000000000000000000000000000000000000000000000000000000000081527fdcccdbbfb277d3f05d1098d34e3540b731dcde9e6f6d74d27f8316797035140a9060200160405180910390a161095430337f0000000000000000000000000000000000000000000000000000000000000000610e5d565b565b7f000000000000000000000000000000000000000000000000000000000000000090565b6001600160a01b0383166109dc5760405162461bcd60e51b8152602060048201526024808201527f45524332303a20617070726f76652066726f6d20746865207a65726f206164646044820152637265737360e01b606482015260840161058b565b6001600160a01b038216610a3d5760405162461bcd60e51b815260206004820152602260248201527f45524332303a20617070726f766520746f20746865207a65726f206164647265604482015261737360f01b606482015260840161058b565b6001600160a01b0383811660008181526001602090815260408083209487168084529482529182902085905590518481527f8c5be1e5ebec7d5bd14f71427d1e84f3dd0314c0f7b2291e5b200ac8c7c3b925910160405180910390a3505050565b6000610aaa84846108ab565b90506000198114610b125781811015610b055760405162461bcd60e51b815260206004820152601d60248201527f45524332303a20696e73756666696369656e7420616c6c6f77616e6365000000604482015260640161058b565b610b12848484840361097a565b50505050565b6001600160a01b038316610b7c5760405162461bcd60e51b815260206004820152602560248201527f45524332303a207472616e736665722066726f6d20746865207a65726f206164604482015264647265737360d81b606482015260840161058b565b6001600160a01b038216610bde5760405162461bcd60e51b815260206004820152602360248201527f45524332303a207472616e7366657220746f20746865207a65726f206164647260448201526265737360e81b606482015260840161058b565b6001600160a01b03831660009081526020819052604090205481811015610c565760405162461bcd60e51b815260206004820152602660248201527f45524332303a207472616e7366657220616d6f756e7420657863656564732062604482015265616c616e636560d01b606482015260840161058b565b6001600160a01b03848116600081815260208181526040808320878703905593871680835291849020805487019055925185815290927fddf252ad1be2c89b69c2b068fc378daa952ba7f163c4a11628f55a4df523b3ef910160405180910390a3610b12565b6000306001600160a01b037f000000000000000000000000000000000000000000000000000000000000000016148015610d1557507f000000000000000000000000000000000000000000000000000000000000000046145b15610d3f57507f000000000000000000000000000000000000000000000000000000000000000090565b50604080517f00000000000000000000000000000000000000000000000000000000000000006020808301919091527f0000000000000000000000000000000000000000000000000000000000000000828401527f000000000000000000000000000000000000000000000000000000000000000060608301524660808301523060a0808401919091528351808403909101815260c0909201909252805191012090565b6000610ded6106ff565b821015610dfc57506000610387565b610e0461038d565b610e0c6106ff565b610e16919061156d565b821115610e24575081610387565b6000610e2e61038d565b610e366106ff565b610e409085611585565b610e4a90866115d7565b610e5491906115b5565b91506103879050565b604080516001600160a01b038416602482015260448082018490528251808303909101815260649091019091526020810180516001600160e01b031663a9059cbb60e01b179052610eaf908490610f54565b505050565b6001600160a01b03811660009081526005602052604090208054600181018255905b50919050565b6000610387610ee9610cbc565b8360405161190160f01b6020820152602281018390526042810182905260009060620160405160208183030381529060405280519060200120905092915050565b6000806000610f3b87878787611026565b91509150610f48816110e0565b5090505b949350505050565b6000610fa9826040518060400160405280602081526020017f5361666545524332303a206c6f772d6c6576656c2063616c6c206661696c6564815250856001600160a01b031661122c9092919063ffffffff16565b805190915015610eaf5780806020019051810190610fc79190611611565b610eaf5760405162461bcd60e51b815260206004820152602a60248201527f5361666545524332303a204552433230206f7065726174696f6e20646964206e6044820152691bdd081cdd58d8d9595960b21b606482015260840161058b565b6000806fa2a8918ca85bafe22016d0b997e4df60600160ff1b0383111561105357506000905060036110d7565b6040805160008082526020820180845289905260ff881692820192909252606081018690526080810185905260019060a0016020604051602081039080840390855afa1580156110a7573d6000803e3d6000fd5b5050604051601f1901519150506001600160a01b0381166110d0576000600192509250506110d7565b9150600090505b94509492505050565b60008160048111156110f4576110f4611633565b14156110fd5750565b600181600481111561111157611111611633565b141561115a5760405162461bcd60e51b815260206004820152601860248201527745434453413a20696e76616c6964207369676e617475726560401b604482015260640161058b565b600281600481111561116e5761116e611633565b14156111bc5760405162461bcd60e51b815260206004820152601f60248201527f45434453413a20696e76616c6964207369676e6174757265206c656e67746800604482015260640161058b565b60038160048111156111d0576111d0611633565b14156112295760405162461bcd60e51b815260206004820152602260248201527f45434453413a20696e76616c6964207369676e6174757265202773272076616c604482015261756560f01b606482015260840161058b565b50565b6060610f4c848460008585600080866001600160a01b031685876040516112539190611649565b60006040518083038185875af1925050503d8060008114611290576040519150601f19603f3d011682016040523d82523d6000602084013e611295565b606091505b50915091506112a6878383876112b1565b979650505050505050565b6060831561131d578251611316576001600160a01b0385163b6113165760405162461bcd60e51b815260206004820152601d60248201527f416464726573733a2063616c6c20746f206e6f6e2d636f6e7472616374000000604482015260640161058b565b5081610f4c565b610f4c83838151156113325781518083602001fd5b8060405162461bcd60e51b815260040161058b9190611378565b60005b8381101561136757818101518382015260200161134f565b83811115610b125750506000910152565b602081526000825180602084015261139781604085016020870161134c565b601f01601f19169190910160400192915050565b80356001600160a01b03811681146113c257600080fd5b919050565b600080604083850312156113da57600080fd5b6113e3836113ab565b946020939093013593505050565b60008060006060848603121561140657600080fd5b61140f846113ab565b925061141d602085016113ab565b9150604084013590509250925092565b60006020828403121561143f57600080fd5b5035919050565b60006020828403121561145857600080fd5b611461826113ab565b9392505050565b6001600160a01b0391909116815260200190565b600080600080600080600060e0888a03121561149757600080fd5b6114a0886113ab565b96506114ae602089016113ab565b95506040880135945060608801359350608088013560ff811681146114d257600080fd5b9699959850939692959460a0840135945060c09093013592915050565b6000806040838503121561150257600080fd5b61150b836113ab565b9150611519602084016113ab565b90509250929050565b600181811c9082168061153657607f821691505b60208210811415610ed657634e487b7160e01b600052602260045260246000fd5b634e487b7160e01b600052601160045260246000fd5b6000821982111561158057611580611557565b500190565b60008282101561159757611597611557565b500390565b6000602082840312156115ae57600080fd5b5051919050565b6000826115d257634e487b7160e01b600052601260045260246000fd5b500490565b60008160001904831182151516156115f1576115f1611557565b500290565b600060001982141561160a5761160a611557565b5060010190565b60006020828403121561162357600080fd5b8151801515811461146157600080fd5b634e487b7160e01b600052602160045260246000fd5b6000825161165b81846020870161134c565b919091019291505056fea2646970667358221220531f3abe5d18b4c6cd19e7a465cda8b4102e8b80d87b9e2115b1c083fb065deb64736f6c63430008090033",
  "linkReferences": {},
  "deployedLinkReferences": {}
}