{
  "_format": "hh-sol-artifact-1",
  "contractName": "faucetToken",
  "sourceName": "contracts/faucetToken.sol",
  "abi": [
    {
      "inputs": [
        {
          "internalType": "string",
          "name": "rewardTokenName_",
          "type": "string"
        },
        {
          "internalType": "string",
          "name": "rewardTokenSymbol_",
          "type": "string"
        },
        {
          "internalType": "address",
          "name": "rewardTokenShareContractAddress_",
          "type": "address"
        },
        {
          "internalType": "address",
          "name": "projectTeamAccountAddress_",
          "type": "address"
        }
      ],
      "stateMutability": "nonpayable",
      "type": "constructor"
    },
    {
      "anonymous": false,
      "inputs": [
        {
          "indexed": true,
          "internalType": "address",
          "name": "owner",
          "type": "address"
        },
        {
          "indexed": true,
          "internalType": "address",
          "name": "spender",
          "type": "address"
        },
        {
          "indexed": false,
          "internalType": "uint256",
          "name": "value",
          "type": "uint256"
        }
      ],
      "name": "Approval",
      "type": "event"
    },
    {
      "anonymous": false,
      "inputs": [
        {
          "indexed": false,
          "internalType": "uint256",
          "name": "amount",
          "type": "uint256"
        }
      ],
      "name": "Faucet",
      "type": "event"
    },
    {
      "anonymous": false,
      "inputs": [
        {
          "indexed": false,
          "internalType": "uint256",
          "name": "amount",
          "type": "uint256"
        }
      ],
      "name": "RewardTokenReleased",
      "type": "event"
    },
    {
      "anonymous": false,
      "inputs": [
        {
          "indexed": true,
          "internalType": "address",
          "name": "from",
          "type": "address"
        },
        {
          "indexed": true,
          "internalType": "address",
          "name": "to",
          "type": "address"
        },
        {
          "indexed": false,
          "internalType": "uint256",
          "name": "value",
          "type": "uint256"
        }
      ],
      "name": "Transfer",
      "type": "event"
    },
    {
      "inputs": [],
      "name": "DOMAIN_SEPARATOR",
      "outputs": [
        {
          "internalType": "bytes32",
          "name": "",
          "type": "bytes32"
        }
      ],
      "stateMutability": "view",
      "type": "function"
    },
    {
      "inputs": [],
      "name": "VERSION",
      "outputs": [
        {
          "internalType": "string",
          "name": "",
          "type": "string"
        }
      ],
      "stateMutability": "view",
      "type": "function"
    },
    {
      "inputs": [
        {
          "internalType": "address",
          "name": "owner",
          "type": "address"
        },
        {
          "internalType": "address",
          "name": "spender",
          "type": "address"
        }
      ],
      "name": "allowance",
      "outputs": [
        {
          "internalType": "uint256",
          "name": "",
          "type": "uint256"
        }
      ],
      "stateMutability": "view",
      "type": "function"
    },
    {
      "inputs": [
        {
          "internalType": "address",
          "name": "spender",
          "type": "address"
        },
        {
          "internalType": "uint256",
          "name": "amount",
          "type": "uint256"
        }
      ],
      "name": "approve",
      "outputs": [
        {
          "internalType": "bool",
          "name": "",
          "type": "bool"
        }
      ],
      "stateMutability": "nonpayable",
      "type": "function"
    },
    {
      "inputs": [
        {
          "internalType": "address",
          "name": "account",
          "type": "address"
        }
      ],
      "name": "balanceOf",
      "outputs": [
        {
          "internalType": "uint256",
          "name": "",
          "type": "uint256"
        }
      ],
      "stateMutability": "view",
      "type": "function"
    },
    {
      "inputs": [],
      "name": "currentReleasable",
      "outputs": [
        {
          "internalType": "uint256",
          "name": "",
          "type": "uint256"
        }
      ],
      "stateMutability": "view",
      "type": "function"
    },
    {
      "inputs": [],
      "name": "decimals",
      "outputs": [
        {
          "internalType": "uint8",
          "name": "",
          "type": "uint8"
        }
      ],
      "stateMutability": "view",
      "type": "function"
    },
    {
      "inputs": [
        {
          "internalType": "address",
          "name": "spender",
          "type": "address"
        },
        {
          "internalType": "uint256",
          "name": "subtractedValue",
          "type": "uint256"
        }
      ],
      "name": "decreaseAllowance",
      "outputs": [
        {
          "internalType": "bool",
          "name": "",
          "type": "bool"
        }
      ],
      "stateMutability": "nonpayable",
      "type": "function"
    },
    {
      "inputs": [],
      "name": "duration",
      "outputs": [
        {
          "internalType": "uint256",
          "name": "",
          "type": "uint256"
        }
      ],
      "stateMutability": "view",
      "type": "function"
    },
    {
      "inputs": [],
      "name": "faucet",
      "outputs": [],
      "stateMutability": "nonpayable",
      "type": "function"
    },
    {
      "inputs": [],
      "name": "frequency",
      "outputs": [
        {
          "internalType": "uint256",
          "name": "",
          "type": "uint256"
        }
      ],
      "stateMutability": "view",
      "type": "function"
    },
    {
      "inputs": [
        {
          "internalType": "address",
          "name": "spender",
          "type": "address"
        },
        {
          "internalType": "uint256",
          "name": "addedValue",
          "type": "uint256"
        }
      ],
      "name": "increaseAllowance",
      "outputs": [
        {
          "internalType": "bool",
          "name": "",
          "type": "bool"
        }
      ],
      "stateMutability": "nonpayable",
      "type": "function"
    },
    {
      "inputs": [],
      "name": "minimumReleasable",
      "outputs": [
        {
          "internalType": "uint256",
          "name": "",
          "type": "uint256"
        }
      ],
      "stateMutability": "view",
      "type": "function"
    },
    {
      "inputs": [],
      "name": "name",
      "outputs": [
        {
          "internalType": "string",
          "name": "",
          "type": "string"
        }
      ],
      "stateMutability": "view",
      "type": "function"
    },
    {
      "inputs": [
        {
          "internalType": "address",
          "name": "owner",
          "type": "address"
        }
      ],
      "name": "nonces",
      "outputs": [
        {
          "internalType": "uint256",
          "name": "",
          "type": "uint256"
        }
      ],
      "stateMutability": "view",
      "type": "function"
    },
    {
      "inputs": [
        {
          "internalType": "address",
          "name": "owner",
          "type": "address"
        },
        {
          "internalType": "address",
          "name": "spender",
          "type": "address"
        },
        {
          "internalType": "uint256",
          "name": "value",
          "type": "uint256"
        },
        {
          "internalType": "uint256",
          "name": "deadline",
          "type": "uint256"
        },
        {
          "internalType": "uint8",
          "name": "v",
          "type": "uint8"
        },
        {
          "internalType": "bytes32",
          "name": "r",
          "type": "bytes32"
        },
        {
          "internalType": "bytes32",
          "name": "s",
          "type": "bytes32"
        }
      ],
      "name": "permit",
      "outputs": [],
      "stateMutability": "nonpayable",
      "type": "function"
    },
    {
      "inputs": [],
      "name": "release",
      "outputs": [],
      "stateMutability": "nonpayable",
      "type": "function"
    },
    {
      "inputs": [],
      "name": "remainingTimestampToNextVesting",
      "outputs": [
        {
          "internalType": "uint256",
          "name": "",
          "type": "uint256"
        }
      ],
      "stateMutability": "view",
      "type": "function"
    },
    {
      "inputs": [],
      "name": "rewardTokenShareContractAddress",
      "outputs": [
        {
          "internalType": "address",
          "name": "",
          "type": "address"
        }
      ],
      "stateMutability": "view",
      "type": "function"
    },
    {
      "inputs": [],
      "name": "start",
      "outputs": [
        {
          "internalType": "uint256",
          "name": "",
          "type": "uint256"
        }
      ],
      "stateMutability": "view",
      "type": "function"
    },
    {
      "inputs": [],
      "name": "symbol",
      "outputs": [
        {
          "internalType": "string",
          "name": "",
          "type": "string"
        }
      ],
      "stateMutability": "view",
      "type": "function"
    },
    {
      "inputs": [],
      "name": "totalAllocation",
      "outputs": [
        {
          "internalType": "uint256",
          "name": "",
          "type": "uint256"
        }
      ],
      "stateMutability": "view",
      "type": "function"
    },
    {
      "inputs": [],
      "name": "totalReleased",
      "outputs": [
        {
          "internalType": "uint256",
          "name": "",
          "type": "uint256"
        }
      ],
      "stateMutability": "view",
      "type": "function"
    },
    {
      "inputs": [],
      "name": "totalSupply",
      "outputs": [
        {
          "internalType": "uint256",
          "name": "",
          "type": "uint256"
        }
      ],
      "stateMutability": "view",
      "type": "function"
    },
    {
      "inputs": [
        {
          "internalType": "uint256",
          "name": "timestamp_",
          "type": "uint256"
        }
      ],
      "name": "totalVestedAmount",
      "outputs": [
        {
          "internalType": "uint256",
          "name": "",
          "type": "uint256"
        }
      ],
      "stateMutability": "view",
      "type": "function"
    },
    {
      "inputs": [
        {
          "internalType": "address",
          "name": "to",
          "type": "address"
        },
        {
          "internalType": "uint256",
          "name": "amount",
          "type": "uint256"
        }
      ],
      "name": "transfer",
      "outputs": [
        {
          "internalType": "bool",
          "name": "",
          "type": "bool"
        }
      ],
      "stateMutability": "nonpayable",
      "type": "function"
    },
    {
      "inputs": [
        {
          "internalType": "address",
          "name": "from",
          "type": "address"
        },
        {
          "internalType": "address",
          "name": "to",
          "type": "address"
        },
        {
          "internalType": "uint256",
          "name": "amount",
          "type": "uint256"
        }
      ],
      "name": "transferFrom",
      "outputs": [
        {
          "internalType": "bool",
          "name": "",
          "type": "bool"
        }
      ],
      "stateMutability": "nonpayable",
      "type": "function"
    }
  ],
  "bytecode": "0x61022060405260056101e081905264302e302e3560d81b6102009081526200002b9160079190620002f3565b5068056bc75e2d631000006101c0523480156200004757600080fd5b5060405162001d2038038062001d208339810160408190526200006a9162000483565b838383838380604051806040016040528060018152602001603160f81b81525086868160039080519060200190620000a4929190620002f3565b508051620000ba906004906020840190620002f3565b5050825160208085019190912083518483012060e08290526101008190524660a0818152604080517f8b73c3c69bb8fe3d512ecc4cf759cc79239f7b179b0ffacaa9a75d522b39400f81880181905281830187905260608201869052608082019490945230818401528151808203909301835260c0019052805194019390932091935091906080523060c0526101205250505050506001600160a01b038216620001d15760405162461bcd60e51b815260206004820152603c60248201527f726577617264546f6b656e3a20726577617264546f6b656e5368617265436f6e60448201527f747261637441646472657373206973207a65726f20616464726573730000000060648201526084015b60405180910390fd5b6001600160a01b03821661014052426101605263090321006101805260326101a0526200020a816aa56fa5b99019a5c800000062000230565b62000222306b0295be96e64066972000000062000230565b505050505050505062000576565b6001600160a01b038216620002885760405162461bcd60e51b815260206004820152601f60248201527f45524332303a206d696e7420746f20746865207a65726f2061646472657373006044820152606401620001c8565b80600260008282546200029c919062000512565b90915550506001600160a01b038216600081815260208181526040808320805486019055518481527fddf252ad1be2c89b69c2b068fc378daa952ba7f163c4a11628f55a4df523b3ef910160405180910390a35050565b828054620003019062000539565b90600052602060002090601f01602090048101928262000325576000855562000370565b82601f106200034057805160ff191683800117855562000370565b8280016001018555821562000370579182015b828111156200037057825182559160200191906001019062000353565b506200037e92915062000382565b5090565b5b808211156200037e576000815560010162000383565b634e487b7160e01b600052604160045260246000fd5b600082601f830112620003c157600080fd5b81516001600160401b0380821115620003de57620003de62000399565b604051601f8301601f19908116603f0116810190828211818310171562000409576200040962000399565b816040528381526020925086838588010111156200042657600080fd5b600091505b838210156200044a57858201830151818301840152908201906200042b565b838211156200045c5760008385830101525b9695505050505050565b80516001600160a01b03811681146200047e57600080fd5b919050565b600080600080608085870312156200049a57600080fd5b84516001600160401b0380821115620004b257600080fd5b620004c088838901620003af565b95506020870151915080821115620004d757600080fd5b50620004e687828801620003af565b935050620004f76040860162000466565b9150620005076060860162000466565b905092959194509250565b600082198211156200053457634e487b7160e01b600052601160045260246000fd5b500190565b600181811c908216806200054e57607f821691505b602082108114156200057057634e487b7160e01b600052602260045260246000fd5b50919050565b60805160a05160c05160e05161010051610120516101405161016051610180516101a0516101c05161171c62000604600039600081816108cd01526109220152600061094a015260006103a2015260006106f30152600061071701526000610dc601526000610e1501526000610df001526000610d4901526000610d7301526000610d9d015261171c6000f3fe608060405234801561001057600080fd5b50600436106101495760003560e01c806306fdde031461014e578063095ea7b31461016c5780630fb5a6b41461018f57806318160ddd146101a557806323b872dd146101ad578063313ce567146101c05780633644e515146101cf57806339509351146101d75780633f6406f5146101ea5780636916a207146101fd57806370a082311461020557806379203dc41461022e5780637ecebe00146102365780637fbc5e711461024957806386d1a69f1461025157806395d89b411461025b5780639e4ed21614610263578063a457c2d71461026b578063a9059cbb1461027e578063be9a655514610291578063ca44496e14610299578063d505accf146102ae578063dd62ed3e146102c1578063de5f72fd146102d4578063e33b7de3146102dc578063ead50da3146102e4578063ffa1ad74146102ec575b600080fd5b6101566102f4565b60405161016391906113f8565b60405180910390f35b61017f61017a366004611447565b610386565b6040519015158152602001610163565b6101976103a0565b604051908152602001610163565b600254610197565b61017f6101bb366004611471565b6103c4565b60405160128152602001610163565b6101976103e8565b61017f6101e5366004611447565b6103f7565b6101976101f83660046114ad565b610419565b61019761042c565b6101976102133660046114c6565b6001600160a01b031660009081526020819052604090205490565b61019761044a565b6101976102443660046114c6565b6104d2565b6101976104f0565b61025961050c565b005b610156610606565b610197610615565b61017f610279366004611447565b610668565b61017f61028c366004611447565b6106e3565b6101976106f1565b6102a1610715565b60405161016391906114e8565b6102596102bc3660046114fc565b610739565b6101976102cf36600461156f565b61089d565b6102596108c8565b600854610197565b610197610948565b61015661096c565b606060038054610303906115a2565b80601f016020809104026020016040519081016040528092919081815260200182805461032f906115a2565b801561037c5780601f106103515761010080835404028352916020019161037c565b820191906000526020600020905b81548152906001019060200180831161035f57829003601f168201915b5050505050905090565b6000336103948185856109fa565b60019150505b92915050565b7f000000000000000000000000000000000000000000000000000000000000000090565b6000336103d2858285610b1e565b6103dd858585610b98565b506001949350505050565b60006103f2610d3c565b905090565b60003361039481858561040a838361089d565b61041491906115ed565b6109fa565b600061039a61042661044a565b83610e63565b600061043760085490565b61044042610419565b6103f29190611605565b600061045560085490565b6040516370a0823160e01b815230906370a08231906104789083906004016114e8565b60206040518083038186803b15801561049057600080fd5b505afa1580156104a4573d6000803e3d6000fd5b505050506040513d601f19601f820116820180604052508101906104c8919061161c565b6103f291906115ed565b6001600160a01b03811660009081526005602052604081205461039a565b60006104fa610948565b61050261044a565b6103f2919061164b565b600061051661042c565b90506105206104f0565b81116105a75760405162461bcd60e51b815260206004820152604560248201527f726577617264546f6b656e3a2052656c65617361626c6520616d6f756e74206960448201527f7320736d616c6c6572207468616e20746865206d696e696d756d52656c65617360648201526430b136329760d91b608482015260a4015b60405180910390fd5b6105b9306105b3610715565b83610edd565b80600860008282546105cb91906115ed565b90915550506040518181527fd3f992c7c1e4410888fed88c0f4274d4d31419df66d8fbb0ac18d687612850bc9060200160405180910390a150565b606060048054610303906115a2565b60004281610621610948565b6106296103a0565b610633919061164b565b90506000816106406106f1565b61064a9085611605565b610654919061165f565b90506106608183611605565b935050505090565b60003381610676828661089d565b9050838110156106d65760405162461bcd60e51b815260206004820152602560248201527f45524332303a2064656372656173656420616c6c6f77616e63652062656c6f77604482015264207a65726f60d81b606482015260840161059e565b6103dd82868684036109fa565b600033610394818585610b98565b7f000000000000000000000000000000000000000000000000000000000000000090565b7f000000000000000000000000000000000000000000000000000000000000000090565b834211156107895760405162461bcd60e51b815260206004820152601d60248201527f45524332305065726d69743a206578706972656420646561646c696e65000000604482015260640161059e565b60007f6e71edae12b1b97f4d1f60370fef10105fa2faae0126114a169c64845d6126c98888886107b88c610f34565b6040805160208101969096526001600160a01b0394851690860152929091166060840152608083015260a082015260c0810186905260e001604051602081830303815290604052805190602001209050600061081382610f5c565b9050600061082382878787610faa565b9050896001600160a01b0316816001600160a01b0316146108865760405162461bcd60e51b815260206004820152601e60248201527f45524332305065726d69743a20696e76616c6964207369676e61747572650000604482015260640161059e565b6108918a8a8a6109fa565b50505050505050505050565b6001600160a01b03918216600090815260016020908152604080832093909416825291909152205490565b6040517f000000000000000000000000000000000000000000000000000000000000000081527fdcccdbbfb277d3f05d1098d34e3540b731dcde9e6f6d74d27f8316797035140a9060200160405180910390a161094630337f0000000000000000000000000000000000000000000000000000000000000000610edd565b565b7f000000000000000000000000000000000000000000000000000000000000000090565b60078054610979906115a2565b80601f01602080910402602001604051908101604052809291908181526020018280546109a5906115a2565b80156109f25780601f106109c7576101008083540402835291602001916109f2565b820191906000526020600020905b8154815290600101906020018083116109d557829003601f168201915b505050505081565b6001600160a01b038316610a5c5760405162461bcd60e51b8152602060048201526024808201527f45524332303a20617070726f76652066726f6d20746865207a65726f206164646044820152637265737360e01b606482015260840161059e565b6001600160a01b038216610abd5760405162461bcd60e51b815260206004820152602260248201527f45524332303a20617070726f766520746f20746865207a65726f206164647265604482015261737360f01b606482015260840161059e565b6001600160a01b0383811660008181526001602090815260408083209487168084529482529182902085905590518481527f8c5be1e5ebec7d5bd14f71427d1e84f3dd0314c0f7b2291e5b200ac8c7c3b925910160405180910390a3505050565b6000610b2a848461089d565b90506000198114610b925781811015610b855760405162461bcd60e51b815260206004820152601d60248201527f45524332303a20696e73756666696369656e7420616c6c6f77616e6365000000604482015260640161059e565b610b9284848484036109fa565b50505050565b6001600160a01b038316610bfc5760405162461bcd60e51b815260206004820152602560248201527f45524332303a207472616e736665722066726f6d20746865207a65726f206164604482015264647265737360d81b606482015260840161059e565b6001600160a01b038216610c5e5760405162461bcd60e51b815260206004820152602360248201527f45524332303a207472616e7366657220746f20746865207a65726f206164647260448201526265737360e81b606482015260840161059e565b6001600160a01b03831660009081526020819052604090205481811015610cd65760405162461bcd60e51b815260206004820152602660248201527f45524332303a207472616e7366657220616d6f756e7420657863656564732062604482015265616c616e636560d01b606482015260840161059e565b6001600160a01b03848116600081815260208181526040808320878703905593871680835291849020805487019055925185815290927fddf252ad1be2c89b69c2b068fc378daa952ba7f163c4a11628f55a4df523b3ef910160405180910390a3610b92565b6000306001600160a01b037f000000000000000000000000000000000000000000000000000000000000000016148015610d9557507f000000000000000000000000000000000000000000000000000000000000000046145b15610dbf57507f000000000000000000000000000000000000000000000000000000000000000090565b50604080517f00000000000000000000000000000000000000000000000000000000000000006020808301919091527f0000000000000000000000000000000000000000000000000000000000000000828401527f000000000000000000000000000000000000000000000000000000000000000060608301524660808301523060a0808401919091528351808403909101815260c0909201909252805191012090565b6000610e6d6106f1565b821015610e7c5750600061039a565b610e846103a0565b610e8c6106f1565b610e9691906115ed565b821115610ea457508161039a565b6000610eae6103a0565b610eb66106f1565b610ec09085611605565b610eca9086611673565b610ed4919061164b565b915061039a9050565b604080516001600160a01b038416602482015260448082018490528251808303909101815260649091019091526020810180516001600160e01b031663a9059cbb60e01b179052610f2f908490610fd4565b505050565b6001600160a01b03811660009081526005602052604090208054600181018255905b50919050565b600061039a610f69610d3c565b8360405161190160f01b6020820152602281018390526042810182905260009060620160405160208183030381529060405280519060200120905092915050565b6000806000610fbb878787876110a6565b91509150610fc881611160565b5090505b949350505050565b6000611029826040518060400160405280602081526020017f5361666545524332303a206c6f772d6c6576656c2063616c6c206661696c6564815250856001600160a01b03166112ac9092919063ffffffff16565b805190915015610f2f57808060200190518101906110479190611692565b610f2f5760405162461bcd60e51b815260206004820152602a60248201527f5361666545524332303a204552433230206f7065726174696f6e20646964206e6044820152691bdd081cdd58d8d9595960b21b606482015260840161059e565b6000806fa2a8918ca85bafe22016d0b997e4df60600160ff1b038311156110d35750600090506003611157565b6040805160008082526020820180845289905260ff881692820192909252606081018690526080810185905260019060a0016020604051602081039080840390855afa158015611127573d6000803e3d6000fd5b5050604051601f1901519150506001600160a01b03811661115057600060019250925050611157565b9150600090505b94509492505050565b6000816004811115611174576111746116b4565b141561117d5750565b6001816004811115611191576111916116b4565b14156111da5760405162461bcd60e51b815260206004820152601860248201527745434453413a20696e76616c6964207369676e617475726560401b604482015260640161059e565b60028160048111156111ee576111ee6116b4565b141561123c5760405162461bcd60e51b815260206004820152601f60248201527f45434453413a20696e76616c6964207369676e6174757265206c656e67746800604482015260640161059e565b6003816004811115611250576112506116b4565b14156112a95760405162461bcd60e51b815260206004820152602260248201527f45434453413a20696e76616c6964207369676e6174757265202773272076616c604482015261756560f01b606482015260840161059e565b50565b6060610fcc848460008585600080866001600160a01b031685876040516112d391906116ca565b60006040518083038185875af1925050503d8060008114611310576040519150601f19603f3d011682016040523d82523d6000602084013e611315565b606091505b509150915061132687838387611331565b979650505050505050565b6060831561139d578251611396576001600160a01b0385163b6113965760405162461bcd60e51b815260206004820152601d60248201527f416464726573733a2063616c6c20746f206e6f6e2d636f6e7472616374000000604482015260640161059e565b5081610fcc565b610fcc83838151156113b25781518083602001fd5b8060405162461bcd60e51b815260040161059e91906113f8565b60005b838110156113e75781810151838201526020016113cf565b83811115610b925750506000910152565b60208152600082518060208401526114178160408501602087016113cc565b601f01601f19169190910160400192915050565b80356001600160a01b038116811461144257600080fd5b919050565b6000806040838503121561145a57600080fd5b6114638361142b565b946020939093013593505050565b60008060006060848603121561148657600080fd5b61148f8461142b565b925061149d6020850161142b565b9150604084013590509250925092565b6000602082840312156114bf57600080fd5b5035919050565b6000602082840312156114d857600080fd5b6114e18261142b565b9392505050565b6001600160a01b0391909116815260200190565b600080600080600080600060e0888a03121561151757600080fd5b6115208861142b565b965061152e6020890161142b565b95506040880135945060608801359350608088013560ff8116811461155257600080fd5b9699959850939692959460a0840135945060c09093013592915050565b6000806040838503121561158257600080fd5b61158b8361142b565b91506115996020840161142b565b90509250929050565b600181811c908216806115b657607f821691505b60208210811415610f5657634e487b7160e01b600052602260045260246000fd5b634e487b7160e01b600052601160045260246000fd5b60008219821115611600576116006115d7565b500190565b600082821015611617576116176115d7565b500390565b60006020828403121561162e57600080fd5b5051919050565b634e487b7160e01b600052601260045260246000fd5b60008261165a5761165a611635565b500490565b60008261166e5761166e611635565b500690565b600081600019048311821515161561168d5761168d6115d7565b500290565b6000602082840312156116a457600080fd5b815180151581146114e157600080fd5b634e487b7160e01b600052602160045260246000fd5b600082516116dc8184602087016113cc565b919091019291505056fea26469706673582212207d56be9984a119e3d7529a0a193bf4c218e7a2b63d0738eaeee6571c6ba1abf164736f6c63430008090033",
  "linkReferences": {},
  "deployedLinkReferences": {}
}