{
  "_format": "hh-sol-artifact-1",
  "contractName": "faucetToken",
  "sourceName": "contracts/faucetToken.sol",
  "abi": [
    {
      "inputs": [
        {
          "internalType": "string",
          "name": "rewardTokenName_",
          "type": "string"
        },
        {
          "internalType": "string",
          "name": "rewardTokenSymbol_",
          "type": "string"
        },
        {
          "internalType": "address",
          "name": "rewardTokenShareContractAddress_",
          "type": "address"
        },
        {
          "internalType": "address",
          "name": "projectTeamAccountAddress_",
          "type": "address"
        }
      ],
      "stateMutability": "nonpayable",
      "type": "constructor"
    },
    {
      "inputs": [],
      "name": "InvalidShortString",
      "type": "error"
    },
    {
      "inputs": [
        {
          "internalType": "string",
          "name": "str",
          "type": "string"
        }
      ],
      "name": "StringTooLong",
      "type": "error"
    },
    {
      "anonymous": false,
      "inputs": [
        {
          "indexed": true,
          "internalType": "address",
          "name": "owner",
          "type": "address"
        },
        {
          "indexed": true,
          "internalType": "address",
          "name": "spender",
          "type": "address"
        },
        {
          "indexed": false,
          "internalType": "uint256",
          "name": "value",
          "type": "uint256"
        }
      ],
      "name": "Approval",
      "type": "event"
    },
    {
      "anonymous": false,
      "inputs": [],
      "name": "EIP712DomainChanged",
      "type": "event"
    },
    {
      "anonymous": false,
      "inputs": [
        {
          "indexed": false,
          "internalType": "uint256",
          "name": "amount",
          "type": "uint256"
        }
      ],
      "name": "Faucet",
      "type": "event"
    },
    {
      "anonymous": false,
      "inputs": [
        {
          "indexed": false,
          "internalType": "uint256",
          "name": "amount",
          "type": "uint256"
        }
      ],
      "name": "RewardTokenReleased",
      "type": "event"
    },
    {
      "anonymous": false,
      "inputs": [
        {
          "indexed": true,
          "internalType": "address",
          "name": "from",
          "type": "address"
        },
        {
          "indexed": true,
          "internalType": "address",
          "name": "to",
          "type": "address"
        },
        {
          "indexed": false,
          "internalType": "uint256",
          "name": "value",
          "type": "uint256"
        }
      ],
      "name": "Transfer",
      "type": "event"
    },
    {
      "inputs": [],
      "name": "DOMAIN_SEPARATOR",
      "outputs": [
        {
          "internalType": "bytes32",
          "name": "",
          "type": "bytes32"
        }
      ],
      "stateMutability": "view",
      "type": "function"
    },
    {
      "inputs": [],
      "name": "VERSION",
      "outputs": [
        {
          "internalType": "string",
          "name": "",
          "type": "string"
        }
      ],
      "stateMutability": "view",
      "type": "function"
    },
    {
      "inputs": [
        {
          "internalType": "address",
          "name": "owner",
          "type": "address"
        },
        {
          "internalType": "address",
          "name": "spender",
          "type": "address"
        }
      ],
      "name": "allowance",
      "outputs": [
        {
          "internalType": "uint256",
          "name": "",
          "type": "uint256"
        }
      ],
      "stateMutability": "view",
      "type": "function"
    },
    {
      "inputs": [
        {
          "internalType": "address",
          "name": "spender",
          "type": "address"
        },
        {
          "internalType": "uint256",
          "name": "amount",
          "type": "uint256"
        }
      ],
      "name": "approve",
      "outputs": [
        {
          "internalType": "bool",
          "name": "",
          "type": "bool"
        }
      ],
      "stateMutability": "nonpayable",
      "type": "function"
    },
    {
      "inputs": [
        {
          "internalType": "address",
          "name": "account",
          "type": "address"
        }
      ],
      "name": "balanceOf",
      "outputs": [
        {
          "internalType": "uint256",
          "name": "",
          "type": "uint256"
        }
      ],
      "stateMutability": "view",
      "type": "function"
    },
    {
      "inputs": [],
      "name": "currentReleasable",
      "outputs": [
        {
          "internalType": "uint256",
          "name": "",
          "type": "uint256"
        }
      ],
      "stateMutability": "view",
      "type": "function"
    },
    {
      "inputs": [],
      "name": "decimals",
      "outputs": [
        {
          "internalType": "uint8",
          "name": "",
          "type": "uint8"
        }
      ],
      "stateMutability": "view",
      "type": "function"
    },
    {
      "inputs": [
        {
          "internalType": "address",
          "name": "spender",
          "type": "address"
        },
        {
          "internalType": "uint256",
          "name": "subtractedValue",
          "type": "uint256"
        }
      ],
      "name": "decreaseAllowance",
      "outputs": [
        {
          "internalType": "bool",
          "name": "",
          "type": "bool"
        }
      ],
      "stateMutability": "nonpayable",
      "type": "function"
    },
    {
      "inputs": [],
      "name": "duration",
      "outputs": [
        {
          "internalType": "uint256",
          "name": "",
          "type": "uint256"
        }
      ],
      "stateMutability": "view",
      "type": "function"
    },
    {
      "inputs": [],
      "name": "eip712Domain",
      "outputs": [
        {
          "internalType": "bytes1",
          "name": "fields",
          "type": "bytes1"
        },
        {
          "internalType": "string",
          "name": "name",
          "type": "string"
        },
        {
          "internalType": "string",
          "name": "version",
          "type": "string"
        },
        {
          "internalType": "uint256",
          "name": "chainId",
          "type": "uint256"
        },
        {
          "internalType": "address",
          "name": "verifyingContract",
          "type": "address"
        },
        {
          "internalType": "bytes32",
          "name": "salt",
          "type": "bytes32"
        },
        {
          "internalType": "uint256[]",
          "name": "extensions",
          "type": "uint256[]"
        }
      ],
      "stateMutability": "view",
      "type": "function"
    },
    {
      "inputs": [],
      "name": "faucet",
      "outputs": [],
      "stateMutability": "nonpayable",
      "type": "function"
    },
    {
      "inputs": [],
      "name": "frequency",
      "outputs": [
        {
          "internalType": "uint256",
          "name": "",
          "type": "uint256"
        }
      ],
      "stateMutability": "view",
      "type": "function"
    },
    {
      "inputs": [
        {
          "internalType": "address",
          "name": "spender",
          "type": "address"
        },
        {
          "internalType": "uint256",
          "name": "addedValue",
          "type": "uint256"
        }
      ],
      "name": "increaseAllowance",
      "outputs": [
        {
          "internalType": "bool",
          "name": "",
          "type": "bool"
        }
      ],
      "stateMutability": "nonpayable",
      "type": "function"
    },
    {
      "inputs": [],
      "name": "minimumReleasable",
      "outputs": [
        {
          "internalType": "uint256",
          "name": "",
          "type": "uint256"
        }
      ],
      "stateMutability": "view",
      "type": "function"
    },
    {
      "inputs": [],
      "name": "name",
      "outputs": [
        {
          "internalType": "string",
          "name": "",
          "type": "string"
        }
      ],
      "stateMutability": "view",
      "type": "function"
    },
    {
      "inputs": [
        {
          "internalType": "address",
          "name": "owner",
          "type": "address"
        }
      ],
      "name": "nonces",
      "outputs": [
        {
          "internalType": "uint256",
          "name": "",
          "type": "uint256"
        }
      ],
      "stateMutability": "view",
      "type": "function"
    },
    {
      "inputs": [
        {
          "internalType": "address",
          "name": "owner",
          "type": "address"
        },
        {
          "internalType": "address",
          "name": "spender",
          "type": "address"
        },
        {
          "internalType": "uint256",
          "name": "value",
          "type": "uint256"
        },
        {
          "internalType": "uint256",
          "name": "deadline",
          "type": "uint256"
        },
        {
          "internalType": "uint8",
          "name": "v",
          "type": "uint8"
        },
        {
          "internalType": "bytes32",
          "name": "r",
          "type": "bytes32"
        },
        {
          "internalType": "bytes32",
          "name": "s",
          "type": "bytes32"
        }
      ],
      "name": "permit",
      "outputs": [],
      "stateMutability": "nonpayable",
      "type": "function"
    },
    {
      "inputs": [],
      "name": "release",
      "outputs": [],
      "stateMutability": "nonpayable",
      "type": "function"
    },
    {
      "inputs": [],
      "name": "remainingTimestampToNextVesting",
      "outputs": [
        {
          "internalType": "uint256",
          "name": "",
          "type": "uint256"
        }
      ],
      "stateMutability": "view",
      "type": "function"
    },
    {
      "inputs": [],
      "name": "rewardTokenShareContractAddress",
      "outputs": [
        {
          "internalType": "address",
          "name": "",
          "type": "address"
        }
      ],
      "stateMutability": "view",
      "type": "function"
    },
    {
      "inputs": [],
      "name": "start",
      "outputs": [
        {
          "internalType": "uint256",
          "name": "",
          "type": "uint256"
        }
      ],
      "stateMutability": "view",
      "type": "function"
    },
    {
      "inputs": [],
      "name": "symbol",
      "outputs": [
        {
          "internalType": "string",
          "name": "",
          "type": "string"
        }
      ],
      "stateMutability": "view",
      "type": "function"
    },
    {
      "inputs": [],
      "name": "totalAllocation",
      "outputs": [
        {
          "internalType": "uint256",
          "name": "",
          "type": "uint256"
        }
      ],
      "stateMutability": "view",
      "type": "function"
    },
    {
      "inputs": [],
      "name": "totalReleased",
      "outputs": [
        {
          "internalType": "uint256",
          "name": "",
          "type": "uint256"
        }
      ],
      "stateMutability": "view",
      "type": "function"
    },
    {
      "inputs": [],
      "name": "totalSupply",
      "outputs": [
        {
          "internalType": "uint256",
          "name": "",
          "type": "uint256"
        }
      ],
      "stateMutability": "view",
      "type": "function"
    },
    {
      "inputs": [
        {
          "internalType": "uint256",
          "name": "timestamp_",
          "type": "uint256"
        }
      ],
      "name": "totalVestedAmount",
      "outputs": [
        {
          "internalType": "uint256",
          "name": "",
          "type": "uint256"
        }
      ],
      "stateMutability": "view",
      "type": "function"
    },
    {
      "inputs": [
        {
          "internalType": "address",
          "name": "to",
          "type": "address"
        },
        {
          "internalType": "uint256",
          "name": "amount",
          "type": "uint256"
        }
      ],
      "name": "transfer",
      "outputs": [
        {
          "internalType": "bool",
          "name": "",
          "type": "bool"
        }
      ],
      "stateMutability": "nonpayable",
      "type": "function"
    },
    {
      "inputs": [
        {
          "internalType": "address",
          "name": "from",
          "type": "address"
        },
        {
          "internalType": "address",
          "name": "to",
          "type": "address"
        },
        {
          "internalType": "uint256",
          "name": "amount",
          "type": "uint256"
        }
      ],
      "name": "transferFrom",
      "outputs": [
        {
          "internalType": "bool",
          "name": "",
          "type": "bool"
        }
      ],
      "stateMutability": "nonpayable",
      "type": "function"
    }
  ],
  "bytecode": "0x610240604052600561020081905264302e302e3560d81b6102209081526200002b9160099190620003cb565b5068056bc75e2d631000006101e0523480156200004757600080fd5b50604051620021de380380620021de8339810160408190526200006a9162000568565b838383838380604051806040016040528060018152602001603160f81b81525086868160039080519060200190620000a4929190620003cb565b508051620000ba906004906020840190620003cb565b505050620000d86005836200026e60201b62000aa91790919060201c565b61012052620000f58160066200026e602090811b62000aa917901c565b61014052815160208084019190912060e052815190820120610100524660a0526200018360e05161010051604080517f8b73c3c69bb8fe3d512ecc4cf759cc79239f7b179b0ffacaa9a75d522b39400f60208201529081019290925260608201524660808201523060a082015260009060c00160405160208183030381529060405280519060200120905090565b60805250503060c052506001600160a01b0382166200020f5760405162461bcd60e51b815260206004820152603c60248201527f726577617264546f6b656e3a20726577617264546f6b656e5368617265436f6e60448201527f747261637441646472657373206973207a65726f20616464726573730000000060648201526084015b60405180910390fd5b6001600160a01b03821661016052426101805263090321006101a05260326101c05262000248816aa56fa5b99019a5c8000000620002c2565b62000260306b0295be96e640669720000000620002c2565b5050505050505050620006b2565b60006020835110156200028e57620002868362000385565b9050620002bc565b82620002a583620003c860201b62000ae01760201c565b8151620002b69260200190620003cb565b5060ff90505b92915050565b6001600160a01b0382166200031a5760405162461bcd60e51b815260206004820152601f60248201527f45524332303a206d696e7420746f20746865207a65726f206164647265737300604482015260640162000206565b80600260008282546200032e9190620005f7565b90915550506001600160a01b038216600081815260208181526040808320805486019055518481527fddf252ad1be2c89b69c2b068fc378daa952ba7f163c4a11628f55a4df523b3ef910160405180910390a35050565b600080829050601f81511115620003b3578260405163305a27a960e01b81526004016200020691906200061e565b8051620003c08262000653565b179392505050565b90565b828054620003d9906200067b565b90600052602060002090601f016020900481019282620003fd576000855562000448565b82601f106200041857805160ff191683800117855562000448565b8280016001018555821562000448579182015b82811115620004485782518255916020019190600101906200042b565b50620004569291506200045a565b5090565b5b808211156200045657600081556001016200045b565b634e487b7160e01b600052604160045260246000fd5b60005b83811015620004a45781810151838201526020016200048a565b83811115620004b4576000848401525b50505050565b600082601f830112620004cc57600080fd5b81516001600160401b0380821115620004e957620004e962000471565b604051601f8301601f19908116603f0116810190828211818310171562000514576200051462000471565b816040528381528660208588010111156200052e57600080fd5b6200054184602083016020890162000487565b9695505050505050565b80516001600160a01b03811681146200056357600080fd5b919050565b600080600080608085870312156200057f57600080fd5b84516001600160401b03808211156200059757600080fd5b620005a588838901620004ba565b95506020870151915080821115620005bc57600080fd5b50620005cb87828801620004ba565b935050620005dc604086016200054b565b9150620005ec606086016200054b565b905092959194509250565b600082198211156200061957634e487b7160e01b600052601160045260246000fd5b500190565b60208152600082518060208401526200063f81604085016020870162000487565b601f01601f19169190910160400192915050565b8051602080830151919081101562000675576000198160200360031b1b821691505b50919050565b600181811c908216806200069057607f821691505b602082108114156200067557634e487b7160e01b600052602260045260246000fd5b60805160a05160c05160e05161010051610120516101405161016051610180516101a0516101c0516101e051611a936200074b6000396000818161097c01526109d1015260006109f9015260006103c8015260006107a2015260006107c60152600061056b0152600061054001526000610eff01526000610ed701526000610e3201526000610e5c01526000610e860152611a936000f3fe608060405234801561001057600080fd5b50600436106101545760003560e01c806306fdde0314610159578063095ea7b3146101775780630fb5a6b41461019a57806318160ddd146101b057806323b872dd146101b8578063313ce567146101cb5780633644e515146101da57806339509351146101e25780633f6406f5146101f55780636916a2071461020857806370a082311461021057806379203dc4146102395780637ecebe00146102415780637fbc5e711461025457806384b0196e1461025c57806386d1a69f1461027757806395d89b41146102815780639e4ed21614610289578063a457c2d714610291578063a9059cbb146102a4578063be9a6555146102b7578063ca44496e146102bf578063d505accf146102d4578063dd62ed3e146102e7578063de5f72fd146102fa578063e33b7de314610302578063ead50da31461030a578063ffa1ad7414610312575b600080fd5b61016161031a565b60405161016e91906116d5565b60405180910390f35b61018a61018536600461170b565b6103ac565b604051901515815260200161016e565b6101a26103c6565b60405190815260200161016e565b6002546101a2565b61018a6101c6366004611735565b6103ea565b6040516012815260200161016e565b6101a261040e565b61018a6101f036600461170b565b61041d565b6101a2610203366004611771565b61043f565b6101a2610452565b6101a261021e36600461178a565b6001600160a01b031660009081526020819052604090205490565b6101a2610470565b6101a261024f36600461178a565b6104f8565b6101a2610516565b610264610532565b60405161016e97969594939291906117a5565b61027f6105bb565b005b6101616106b5565b6101a26106c4565b61018a61029f36600461170b565b610717565b61018a6102b236600461170b565b610792565b6101a26107a0565b6102c76107c4565b60405161016e919061183b565b61027f6102e236600461184f565b6107e8565b6101a26102f53660046118c2565b61094c565b61027f610977565b600a546101a2565b6101a26109f7565b610161610a1b565b606060038054610329906118f5565b80601f0160208091040260200160405190810160405280929190818152602001828054610355906118f5565b80156103a25780601f10610377576101008083540402835291602001916103a2565b820191906000526020600020905b81548152906001019060200180831161038557829003601f168201915b5050505050905090565b6000336103ba818585610ae3565b60019150505b92915050565b7f000000000000000000000000000000000000000000000000000000000000000090565b6000336103f8858285610c07565b610403858585610c81565b506001949350505050565b6000610418610e25565b905090565b6000336103ba818585610430838361094c565b61043a9190611940565b610ae3565b60006103c061044c610470565b83610f50565b600061045d600a5490565b6104664261043f565b6104189190611958565b600061047b600a5490565b6040516370a0823160e01b815230906370a082319061049e90839060040161183b565b60206040518083038186803b1580156104b657600080fd5b505afa1580156104ca573d6000803e3d6000fd5b505050506040513d601f19601f820116820180604052508101906104ee919061196f565b6104189190611940565b6001600160a01b0381166000908152600760205260408120546103c0565b60006105206109f7565b610528610470565b610418919061199e565b6000606080828080836105667f00000000000000000000000000000000000000000000000000000000000000006005610fca565b6105917f00000000000000000000000000000000000000000000000000000000000000006006610fca565b60408051600080825260208201909252600f60f81b9b939a50919850469750309650945092509050565b60006105c5610452565b90506105cf610516565b81116106565760405162461bcd60e51b815260206004820152604560248201527f726577617264546f6b656e3a2052656c65617361626c6520616d6f756e74206960448201527f7320736d616c6c6572207468616e20746865206d696e696d756d52656c65617360648201526430b136329760d91b608482015260a4015b60405180910390fd5b610668306106626107c4565b8361106e565b80600a600082825461067a9190611940565b90915550506040518181527fd3f992c7c1e4410888fed88c0f4274d4d31419df66d8fbb0ac18d687612850bc9060200160405180910390a150565b606060048054610329906118f5565b600042816106d06109f7565b6106d86103c6565b6106e2919061199e565b90506000816106ef6107a0565b6106f99085611958565b61070391906119b2565b905061070f8183611958565b935050505090565b60003381610725828661094c565b9050838110156107855760405162461bcd60e51b815260206004820152602560248201527f45524332303a2064656372656173656420616c6c6f77616e63652062656c6f77604482015264207a65726f60d81b606482015260840161064d565b6104038286868403610ae3565b6000336103ba818585610c81565b7f000000000000000000000000000000000000000000000000000000000000000090565b7f000000000000000000000000000000000000000000000000000000000000000090565b834211156108385760405162461bcd60e51b815260206004820152601d60248201527f45524332305065726d69743a206578706972656420646561646c696e65000000604482015260640161064d565b60007f6e71edae12b1b97f4d1f60370fef10105fa2faae0126114a169c64845d6126c98888886108678c6110c5565b6040805160208101969096526001600160a01b0394851690860152929091166060840152608083015260a082015260c0810186905260e00160405160208183030381529060405280519060200120905060006108c2826110ed565b905060006108d28287878761111a565b9050896001600160a01b0316816001600160a01b0316146109355760405162461bcd60e51b815260206004820152601e60248201527f45524332305065726d69743a20696e76616c6964207369676e61747572650000604482015260640161064d565b6109408a8a8a610ae3565b50505050505050505050565b6001600160a01b03918216600090815260016020908152604080832093909416825291909152205490565b6040517f000000000000000000000000000000000000000000000000000000000000000081527fdcccdbbfb277d3f05d1098d34e3540b731dcde9e6f6d74d27f8316797035140a9060200160405180910390a16109f530337f000000000000000000000000000000000000000000000000000000000000000061106e565b565b7f000000000000000000000000000000000000000000000000000000000000000090565b60098054610a28906118f5565b80601f0160208091040260200160405190810160405280929190818152602001828054610a54906118f5565b8015610aa15780601f10610a7657610100808354040283529160200191610aa1565b820191906000526020600020905b815481529060010190602001808311610a8457829003601f168201915b505050505081565b6000602083511015610ac557610abe83611144565b90506103c0565b82828151610ad692602001906115e4565b5060ff90506103c0565b90565b6001600160a01b038316610b455760405162461bcd60e51b8152602060048201526024808201527f45524332303a20617070726f76652066726f6d20746865207a65726f206164646044820152637265737360e01b606482015260840161064d565b6001600160a01b038216610ba65760405162461bcd60e51b815260206004820152602260248201527f45524332303a20617070726f766520746f20746865207a65726f206164647265604482015261737360f01b606482015260840161064d565b6001600160a01b0383811660008181526001602090815260408083209487168084529482529182902085905590518481527f8c5be1e5ebec7d5bd14f71427d1e84f3dd0314c0f7b2291e5b200ac8c7c3b925910160405180910390a3505050565b6000610c13848461094c565b90506000198114610c7b5781811015610c6e5760405162461bcd60e51b815260206004820152601d60248201527f45524332303a20696e73756666696369656e7420616c6c6f77616e6365000000604482015260640161064d565b610c7b8484848403610ae3565b50505050565b6001600160a01b038316610ce55760405162461bcd60e51b815260206004820152602560248201527f45524332303a207472616e736665722066726f6d20746865207a65726f206164604482015264647265737360d81b606482015260840161064d565b6001600160a01b038216610d475760405162461bcd60e51b815260206004820152602360248201527f45524332303a207472616e7366657220746f20746865207a65726f206164647260448201526265737360e81b606482015260840161064d565b6001600160a01b03831660009081526020819052604090205481811015610dbf5760405162461bcd60e51b815260206004820152602660248201527f45524332303a207472616e7366657220616d6f756e7420657863656564732062604482015265616c616e636560d01b606482015260840161064d565b6001600160a01b03848116600081815260208181526040808320878703905593871680835291849020805487019055925185815290927fddf252ad1be2c89b69c2b068fc378daa952ba7f163c4a11628f55a4df523b3ef910160405180910390a3610c7b565b6000306001600160a01b037f000000000000000000000000000000000000000000000000000000000000000016148015610e7e57507f000000000000000000000000000000000000000000000000000000000000000046145b15610ea857507f000000000000000000000000000000000000000000000000000000000000000090565b610418604080517f8b73c3c69bb8fe3d512ecc4cf759cc79239f7b179b0ffacaa9a75d522b39400f60208201527f0000000000000000000000000000000000000000000000000000000000000000918101919091527f000000000000000000000000000000000000000000000000000000000000000060608201524660808201523060a082015260009060c00160405160208183030381529060405280519060200120905090565b6000610f5a6107a0565b821015610f69575060006103c0565b610f716103c6565b610f796107a0565b610f839190611940565b821115610f915750816103c0565b6000610f9b6103c6565b610fa36107a0565b610fad9085611958565b610fb790866119c6565b610fc1919061199e565b91506103c09050565b606060ff8314610fdd57610abe83611182565b818054610fe9906118f5565b80601f0160208091040260200160405190810160405280929190818152602001828054611015906118f5565b80156110625780601f1061103757610100808354040283529160200191611062565b820191906000526020600020905b81548152906001019060200180831161104557829003601f168201915b505050505090506103c0565b604080516001600160a01b038416602482015260448082018490528251808303909101815260649091019091526020810180516001600160e01b031663a9059cbb60e01b1790526110c09084906111c1565b505050565b6001600160a01b03811660009081526007602052604090208054600181018255905b50919050565b60006103c06110fa610e25565b8360405161190160f01b8152600281019290925260228201526042902090565b600080600061112b87878787611296565b9150915061113881611350565b5090505b949350505050565b600080829050601f8151111561116f578260405163305a27a960e01b815260040161064d91906116d5565b805161117a826119e5565b179392505050565b6060600061118f8361149c565b604080516020808252818301909252919250600091906020820181803683375050509182525060208101929092525090565b6000611216826040518060400160405280602081526020017f5361666545524332303a206c6f772d6c6576656c2063616c6c206661696c6564815250856001600160a01b03166114c49092919063ffffffff16565b90508051600014806112375750808060200190518101906112379190611a09565b6110c05760405162461bcd60e51b815260206004820152602a60248201527f5361666545524332303a204552433230206f7065726174696f6e20646964206e6044820152691bdd081cdd58d8d9595960b21b606482015260840161064d565b6000806fa2a8918ca85bafe22016d0b997e4df60600160ff1b038311156112c35750600090506003611347565b6040805160008082526020820180845289905260ff881692820192909252606081018690526080810185905260019060a0016020604051602081039080840390855afa158015611317573d6000803e3d6000fd5b5050604051601f1901519150506001600160a01b03811661134057600060019250925050611347565b9150600090505b94509492505050565b600081600481111561136457611364611a2b565b141561136d5750565b600181600481111561138157611381611a2b565b14156113ca5760405162461bcd60e51b815260206004820152601860248201527745434453413a20696e76616c6964207369676e617475726560401b604482015260640161064d565b60028160048111156113de576113de611a2b565b141561142c5760405162461bcd60e51b815260206004820152601f60248201527f45434453413a20696e76616c6964207369676e6174757265206c656e67746800604482015260640161064d565b600381600481111561144057611440611a2b565b14156114995760405162461bcd60e51b815260206004820152602260248201527f45434453413a20696e76616c6964207369676e6174757265202773272076616c604482015261756560f01b606482015260840161064d565b50565b600060ff8216601f8111156103c057604051632cd44ac360e21b815260040160405180910390fd5b606061113c848460008585600080866001600160a01b031685876040516114eb9190611a41565b60006040518083038185875af1925050503d8060008114611528576040519150601f19603f3d011682016040523d82523d6000602084013e61152d565b606091505b509150915061153e87838387611549565b979650505050505050565b606083156115b55782516115ae576001600160a01b0385163b6115ae5760405162461bcd60e51b815260206004820152601d60248201527f416464726573733a2063616c6c20746f206e6f6e2d636f6e7472616374000000604482015260640161064d565b508161113c565b61113c83838151156115ca5781518083602001fd5b8060405162461bcd60e51b815260040161064d91906116d5565b8280546115f0906118f5565b90600052602060002090601f0160209004810192826116125760008555611658565b82601f1061162b57805160ff1916838001178555611658565b82800160010185558215611658579182015b8281111561165857825182559160200191906001019061163d565b50611664929150611668565b5090565b5b808211156116645760008155600101611669565b60005b83811015611698578181015183820152602001611680565b83811115610c7b5750506000910152565b600081518084526116c181602086016020860161167d565b601f01601f19169290920160200192915050565b6020815260006116e860208301846116a9565b9392505050565b80356001600160a01b038116811461170657600080fd5b919050565b6000806040838503121561171e57600080fd5b611727836116ef565b946020939093013593505050565b60008060006060848603121561174a57600080fd5b611753846116ef565b9250611761602085016116ef565b9150604084013590509250925092565b60006020828403121561178357600080fd5b5035919050565b60006020828403121561179c57600080fd5b6116e8826116ef565b60ff60f81b881681526000602060e0818401526117c560e084018a6116a9565b83810360408501526117d7818a6116a9565b606085018990526001600160a01b038816608086015260a0850187905284810360c0860152855180825283870192509083019060005b818110156118295783518352928401929184019160010161180d565b50909c9b505050505050505050505050565b6001600160a01b0391909116815260200190565b600080600080600080600060e0888a03121561186a57600080fd5b611873886116ef565b9650611881602089016116ef565b95506040880135945060608801359350608088013560ff811681146118a557600080fd5b9699959850939692959460a0840135945060c09093013592915050565b600080604083850312156118d557600080fd5b6118de836116ef565b91506118ec602084016116ef565b90509250929050565b600181811c9082168061190957607f821691505b602082108114156110e757634e487b7160e01b600052602260045260246000fd5b634e487b7160e01b600052601160045260246000fd5b600082198211156119535761195361192a565b500190565b60008282101561196a5761196a61192a565b500390565b60006020828403121561198157600080fd5b5051919050565b634e487b7160e01b600052601260045260246000fd5b6000826119ad576119ad611988565b500490565b6000826119c1576119c1611988565b500690565b60008160001904831182151516156119e0576119e061192a565b500290565b805160208083015191908110156110e75760001960209190910360031b1b16919050565b600060208284031215611a1b57600080fd5b815180151581146116e857600080fd5b634e487b7160e01b600052602160045260246000fd5b60008251611a5381846020870161167d565b919091019291505056fea26469706673582212204dd90f3eb45b7051d8e006e875172d77e4a9cb4e48cb31d0ea48a1bcdb48c11364736f6c63430008090033",
  "linkReferences": {},
  "deployedLinkReferences": {}
}