{
  "_format": "hh-sol-artifact-1",
  "contractName": "paymentNFT",
  "sourceName": "contracts/paymentNFT.sol",
  "abi": [
    {
      "inputs": [
        {
          "internalType": "string",
          "name": "name_",
          "type": "string"
        },
        {
          "internalType": "string",
          "name": "symbol_",
          "type": "string"
        },
        {
          "internalType": "string",
          "name": "baseTokenURI_",
          "type": "string"
        }
      ],
      "stateMutability": "nonpayable",
      "type": "constructor"
    },
    {
      "anonymous": false,
      "inputs": [
        {
          "indexed": true,
          "internalType": "address",
          "name": "owner",
          "type": "address"
        },
        {
          "indexed": true,
          "internalType": "address",
          "name": "approved",
          "type": "address"
        },
        {
          "indexed": true,
          "internalType": "uint256",
          "name": "tokenId",
          "type": "uint256"
        }
      ],
      "name": "Approval",
      "type": "event"
    },
    {
      "anonymous": false,
      "inputs": [
        {
          "indexed": true,
          "internalType": "address",
          "name": "owner",
          "type": "address"
        },
        {
          "indexed": true,
          "internalType": "address",
          "name": "operator",
          "type": "address"
        },
        {
          "indexed": false,
          "internalType": "bool",
          "name": "approved",
          "type": "bool"
        }
      ],
      "name": "ApprovalForAll",
      "type": "event"
    },
    {
      "anonymous": false,
      "inputs": [
        {
          "indexed": false,
          "internalType": "address",
          "name": "account",
          "type": "address"
        }
      ],
      "name": "Paused",
      "type": "event"
    },
    {
      "anonymous": false,
      "inputs": [
        {
          "indexed": true,
          "internalType": "bytes32",
          "name": "role",
          "type": "bytes32"
        },
        {
          "indexed": true,
          "internalType": "bytes32",
          "name": "previousAdminRole",
          "type": "bytes32"
        },
        {
          "indexed": true,
          "internalType": "bytes32",
          "name": "newAdminRole",
          "type": "bytes32"
        }
      ],
      "name": "RoleAdminChanged",
      "type": "event"
    },
    {
      "anonymous": false,
      "inputs": [
        {
          "indexed": true,
          "internalType": "bytes32",
          "name": "role",
          "type": "bytes32"
        },
        {
          "indexed": true,
          "internalType": "address",
          "name": "account",
          "type": "address"
        },
        {
          "indexed": true,
          "internalType": "address",
          "name": "sender",
          "type": "address"
        }
      ],
      "name": "RoleGranted",
      "type": "event"
    },
    {
      "anonymous": false,
      "inputs": [
        {
          "indexed": true,
          "internalType": "bytes32",
          "name": "role",
          "type": "bytes32"
        },
        {
          "indexed": true,
          "internalType": "address",
          "name": "account",
          "type": "address"
        },
        {
          "indexed": true,
          "internalType": "address",
          "name": "sender",
          "type": "address"
        }
      ],
      "name": "RoleRevoked",
      "type": "event"
    },
    {
      "anonymous": false,
      "inputs": [
        {
          "indexed": true,
          "internalType": "address",
          "name": "from",
          "type": "address"
        },
        {
          "indexed": true,
          "internalType": "address",
          "name": "to",
          "type": "address"
        },
        {
          "indexed": true,
          "internalType": "uint256",
          "name": "tokenId",
          "type": "uint256"
        }
      ],
      "name": "Transfer",
      "type": "event"
    },
    {
      "anonymous": false,
      "inputs": [
        {
          "indexed": false,
          "internalType": "address",
          "name": "account",
          "type": "address"
        }
      ],
      "name": "Unpaused",
      "type": "event"
    },
    {
      "inputs": [],
      "name": "DEFAULT_ADMIN_ROLE",
      "outputs": [
        {
          "internalType": "bytes32",
          "name": "",
          "type": "bytes32"
        }
      ],
      "stateMutability": "view",
      "type": "function"
    },
    {
      "inputs": [],
      "name": "MINTER_ROLE",
      "outputs": [
        {
          "internalType": "bytes32",
          "name": "",
          "type": "bytes32"
        }
      ],
      "stateMutability": "view",
      "type": "function"
    },
    {
      "inputs": [],
      "name": "PAUSER_ROLE",
      "outputs": [
        {
          "internalType": "bytes32",
          "name": "",
          "type": "bytes32"
        }
      ],
      "stateMutability": "view",
      "type": "function"
    },
    {
      "inputs": [],
      "name": "REGISTER_ROLE",
      "outputs": [
        {
          "internalType": "bytes32",
          "name": "",
          "type": "bytes32"
        }
      ],
      "stateMutability": "view",
      "type": "function"
    },
    {
      "inputs": [],
      "name": "SETTER_ROLE",
      "outputs": [
        {
          "internalType": "bytes32",
          "name": "",
          "type": "bytes32"
        }
      ],
      "stateMutability": "view",
      "type": "function"
    },
    {
      "inputs": [],
      "name": "VERSION",
      "outputs": [
        {
          "internalType": "string",
          "name": "",
          "type": "string"
        }
      ],
      "stateMutability": "view",
      "type": "function"
    },
    {
      "inputs": [
        {
          "internalType": "address",
          "name": "to",
          "type": "address"
        },
        {
          "internalType": "uint256",
          "name": "tokenId",
          "type": "uint256"
        }
      ],
      "name": "approve",
      "outputs": [],
      "stateMutability": "nonpayable",
      "type": "function"
    },
    {
      "inputs": [
        {
          "internalType": "address",
          "name": "owner",
          "type": "address"
        }
      ],
      "name": "balanceOf",
      "outputs": [
        {
          "internalType": "uint256",
          "name": "",
          "type": "uint256"
        }
      ],
      "stateMutability": "view",
      "type": "function"
    },
    {
      "inputs": [
        {
          "internalType": "uint256",
          "name": "tokenId",
          "type": "uint256"
        }
      ],
      "name": "burn",
      "outputs": [],
      "stateMutability": "nonpayable",
      "type": "function"
    },
    {
      "inputs": [
        {
          "internalType": "address",
          "name": "registerAddress",
          "type": "address"
        }
      ],
      "name": "checkRegisterRole",
      "outputs": [
        {
          "internalType": "bool",
          "name": "result",
          "type": "bool"
        }
      ],
      "stateMutability": "view",
      "type": "function"
    },
    {
      "inputs": [
        {
          "internalType": "uint256",
          "name": "tokenId",
          "type": "uint256"
        }
      ],
      "name": "getApproved",
      "outputs": [
        {
          "internalType": "address",
          "name": "",
          "type": "address"
        }
      ],
      "stateMutability": "view",
      "type": "function"
    },
    {
      "inputs": [],
      "name": "getBaseURI",
      "outputs": [
        {
          "internalType": "string",
          "name": "",
          "type": "string"
        }
      ],
      "stateMutability": "view",
      "type": "function"
    },
    {
      "inputs": [
        {
          "internalType": "bytes32",
          "name": "role",
          "type": "bytes32"
        }
      ],
      "name": "getRoleAdmin",
      "outputs": [
        {
          "internalType": "bytes32",
          "name": "",
          "type": "bytes32"
        }
      ],
      "stateMutability": "view",
      "type": "function"
    },
    {
      "inputs": [
        {
          "internalType": "bytes32",
          "name": "role",
          "type": "bytes32"
        },
        {
          "internalType": "address",
          "name": "account",
          "type": "address"
        }
      ],
      "name": "grantRole",
      "outputs": [],
      "stateMutability": "nonpayable",
      "type": "function"
    },
    {
      "inputs": [
        {
          "internalType": "bytes32",
          "name": "role",
          "type": "bytes32"
        },
        {
          "internalType": "address",
          "name": "account",
          "type": "address"
        }
      ],
      "name": "hasRole",
      "outputs": [
        {
          "internalType": "bool",
          "name": "",
          "type": "bool"
        }
      ],
      "stateMutability": "view",
      "type": "function"
    },
    {
      "inputs": [
        {
          "internalType": "address",
          "name": "owner",
          "type": "address"
        },
        {
          "internalType": "address",
          "name": "operator",
          "type": "address"
        }
      ],
      "name": "isApprovedForAll",
      "outputs": [
        {
          "internalType": "bool",
          "name": "",
          "type": "bool"
        }
      ],
      "stateMutability": "view",
      "type": "function"
    },
    {
      "inputs": [],
      "name": "name",
      "outputs": [
        {
          "internalType": "string",
          "name": "",
          "type": "string"
        }
      ],
      "stateMutability": "view",
      "type": "function"
    },
    {
      "inputs": [
        {
          "internalType": "uint256",
          "name": "tokenId",
          "type": "uint256"
        }
      ],
      "name": "ownerOf",
      "outputs": [
        {
          "internalType": "address",
          "name": "",
          "type": "address"
        }
      ],
      "stateMutability": "view",
      "type": "function"
    },
    {
      "inputs": [],
      "name": "pause",
      "outputs": [],
      "stateMutability": "nonpayable",
      "type": "function"
    },
    {
      "inputs": [],
      "name": "paused",
      "outputs": [
        {
          "internalType": "bool",
          "name": "",
          "type": "bool"
        }
      ],
      "stateMutability": "view",
      "type": "function"
    },
    {
      "inputs": [
        {
          "internalType": "bytes32",
          "name": "role",
          "type": "bytes32"
        },
        {
          "internalType": "address",
          "name": "account",
          "type": "address"
        }
      ],
      "name": "renounceRole",
      "outputs": [],
      "stateMutability": "nonpayable",
      "type": "function"
    },
    {
      "inputs": [
        {
          "internalType": "bytes32",
          "name": "role",
          "type": "bytes32"
        },
        {
          "internalType": "address",
          "name": "account",
          "type": "address"
        }
      ],
      "name": "revokeRole",
      "outputs": [],
      "stateMutability": "nonpayable",
      "type": "function"
    },
    {
      "inputs": [
        {
          "internalType": "address",
          "name": "to_",
          "type": "address"
        }
      ],
      "name": "safeMint",
      "outputs": [],
      "stateMutability": "nonpayable",
      "type": "function"
    },
    {
      "inputs": [
        {
          "internalType": "address",
          "name": "to_",
          "type": "address"
        },
        {
          "internalType": "uint256",
          "name": "amount_",
          "type": "uint256"
        }
      ],
      "name": "safeMintAmount",
      "outputs": [],
      "stateMutability": "nonpayable",
      "type": "function"
    },
    {
      "inputs": [
        {
          "internalType": "address",
          "name": "from",
          "type": "address"
        },
        {
          "internalType": "address",
          "name": "to",
          "type": "address"
        },
        {
          "internalType": "uint256",
          "name": "tokenId",
          "type": "uint256"
        }
      ],
      "name": "safeTransferFrom",
      "outputs": [],
      "stateMutability": "nonpayable",
      "type": "function"
    },
    {
      "inputs": [
        {
          "internalType": "address",
          "name": "from",
          "type": "address"
        },
        {
          "internalType": "address",
          "name": "to",
          "type": "address"
        },
        {
          "internalType": "uint256",
          "name": "tokenId",
          "type": "uint256"
        },
        {
          "internalType": "bytes",
          "name": "data",
          "type": "bytes"
        }
      ],
      "name": "safeTransferFrom",
      "outputs": [],
      "stateMutability": "nonpayable",
      "type": "function"
    },
    {
      "inputs": [
        {
          "internalType": "address",
          "name": "operator",
          "type": "address"
        },
        {
          "internalType": "bool",
          "name": "approved",
          "type": "bool"
        }
      ],
      "name": "setApprovalForAll",
      "outputs": [],
      "stateMutability": "nonpayable",
      "type": "function"
    },
    {
      "inputs": [
        {
          "internalType": "string",
          "name": "baseTokenURI_",
          "type": "string"
        }
      ],
      "name": "setBaseURI",
      "outputs": [],
      "stateMutability": "nonpayable",
      "type": "function"
    },
    {
      "inputs": [
        {
          "internalType": "bytes4",
          "name": "interfaceId",
          "type": "bytes4"
        }
      ],
      "name": "supportsInterface",
      "outputs": [
        {
          "internalType": "bool",
          "name": "",
          "type": "bool"
        }
      ],
      "stateMutability": "view",
      "type": "function"
    },
    {
      "inputs": [],
      "name": "symbol",
      "outputs": [
        {
          "internalType": "string",
          "name": "",
          "type": "string"
        }
      ],
      "stateMutability": "view",
      "type": "function"
    },
    {
      "inputs": [
        {
          "internalType": "uint256",
          "name": "index",
          "type": "uint256"
        }
      ],
      "name": "tokenByIndex",
      "outputs": [
        {
          "internalType": "uint256",
          "name": "",
          "type": "uint256"
        }
      ],
      "stateMutability": "view",
      "type": "function"
    },
    {
      "inputs": [
        {
          "internalType": "address",
          "name": "owner",
          "type": "address"
        },
        {
          "internalType": "uint256",
          "name": "index",
          "type": "uint256"
        }
      ],
      "name": "tokenOfOwnerByIndex",
      "outputs": [
        {
          "internalType": "uint256",
          "name": "",
          "type": "uint256"
        }
      ],
      "stateMutability": "view",
      "type": "function"
    },
    {
      "inputs": [
        {
          "internalType": "uint256",
          "name": "tokenId",
          "type": "uint256"
        }
      ],
      "name": "tokenURI",
      "outputs": [
        {
          "internalType": "string",
          "name": "",
          "type": "string"
        }
      ],
      "stateMutability": "view",
      "type": "function"
    },
    {
      "inputs": [],
      "name": "totalSupply",
      "outputs": [
        {
          "internalType": "uint256",
          "name": "",
          "type": "uint256"
        }
      ],
      "stateMutability": "view",
      "type": "function"
    },
    {
      "inputs": [
        {
          "internalType": "address",
          "name": "from",
          "type": "address"
        },
        {
          "internalType": "address",
          "name": "to",
          "type": "address"
        },
        {
          "internalType": "uint256",
          "name": "tokenId",
          "type": "uint256"
        }
      ],
      "name": "transferFrom",
      "outputs": [],
      "stateMutability": "nonpayable",
      "type": "function"
    },
    {
      "inputs": [],
      "name": "unpause",
      "outputs": [],
      "stateMutability": "nonpayable",
      "type": "function"
    }
  ],
  "bytecode": "0x60c06040526005608081905264302e302e3560d81b60a09081526200002891600c91906200021d565b503480156200003657600080fd5b506040516200281338038062002813833981016040819052620000599162000390565b82828282828160009080519060200190620000769291906200021d565b5080516200008c9060019060208401906200021d565b5050600a805460ff19169055508051620000ae90600e9060208401906200021d565b50620000bc60003362000178565b620000e87f65d7a28e3265b37a6474929f336521b332c1681b933f6cb9f3376673440d862a3362000178565b620001147f9f2df0fed2c77648de5860a4cc508cd0818c85b8b8a1ab4ceeef8d981c8956a63362000178565b620001407f61c92169ef077349011ff0b1383c894d86c5f0b41d986366b58a6cf31e93beda3362000178565b6200016c7fd1f21ec03a6eb050fba156f5316dad461735df521fb446dd42c5a4728e9c70fe3362000178565b5050505050506200045e565b6000828152600b602090815260408083206001600160a01b038516845290915290205460ff1662000219576000828152600b602090815260408083206001600160a01b03851684529091529020805460ff19166001179055620001d83390565b6001600160a01b0316816001600160a01b0316837f2f8788117e7eff1d82e926ec794901d17c78024a50270940304540a733656f0d60405160405180910390a45b5050565b8280546200022b9062000421565b90600052602060002090601f0160209004810192826200024f57600085556200029a565b82601f106200026a57805160ff19168380011785556200029a565b828001600101855582156200029a579182015b828111156200029a5782518255916020019190600101906200027d565b50620002a8929150620002ac565b5090565b5b80821115620002a85760008155600101620002ad565b634e487b7160e01b600052604160045260246000fd5b600082601f830112620002eb57600080fd5b81516001600160401b0380821115620003085762000308620002c3565b604051601f8301601f19908116603f01168101908282118183101715620003335762000333620002c3565b816040528381526020925086838588010111156200035057600080fd5b600091505b8382101562000374578582018301518183018401529082019062000355565b83821115620003865760008385830101525b9695505050505050565b600080600060608486031215620003a657600080fd5b83516001600160401b0380821115620003be57600080fd5b620003cc87838801620002d9565b94506020860151915080821115620003e357600080fd5b620003f187838801620002d9565b935060408601519150808211156200040857600080fd5b506200041786828701620002d9565b9150509250925092565b600181811c908216806200043657607f821691505b602082108114156200045857634e487b7160e01b600052602260045260246000fd5b50919050565b6123a5806200046e6000396000f3fe608060405234801561001057600080fd5b50600436106101ac5760003560e01c806301ffc9a7146101b157806306fdde03146101d9578063081812fc146101ee578063095ea7b31461020e57806318160ddd1461022357806323b872dd14610235578063248a9ca3146102485780632f2ff15d1461025b5780632f745c591461026e57806336568abe146102815780633f4ba83a1461029457806340d097c31461029c57806342842e0e146102af57806342966c68146102c25780634f6ccce7146102d557806355f804b3146102e857806358c64602146102fb5780635c975abb1461030e5780636352211e1461031957806370a082311461032c578063714c53981461033f57806374f53317146103475780638456cb591461035c57806391d148541461036457806395d89b4114610377578063a2011b3f1461037f578063a217fddf14610394578063a22cb4651461039c578063b88d4fde146103af578063c6890de1146103c2578063c87b56dd146103d5578063d5391393146103e8578063d547741f146103fd578063e63ab1e914610410578063e985e9c514610425578063ffa1ad7414610438575b600080fd5b6101c46101bf366004611c5c565b610440565b60405190151581526020015b60405180910390f35b6101e161046b565b6040516101d09190611cd1565b6102016101fc366004611ce4565b6104fd565b6040516101d09190611cfd565b61022161021c366004611d2d565b610524565b005b6008545b6040519081526020016101d0565b610221610243366004611d57565b61063f565b610227610256366004611ce4565b610671565b610221610269366004611d93565b610686565b61022761027c366004611d2d565b6106a2565b61022161028f366004611d93565b610738565b6102216107b6565b6102216102aa366004611dbf565b6107d9565b6102216102bd366004611d57565b610816565b6102216102d0366004611ce4565b610831565b6102276102e3366004611ce4565b61085f565b6102216102f6366004611e65565b6108f2565b6101c4610309366004611dbf565b61091d565b600a5460ff166101c4565b610201610327366004611ce4565b610937565b61022761033a366004611dbf565b61096b565b6101e16109f1565b6102276000805160206122f083398151915281565b610221610a00565b6101c4610372366004611d93565b610a20565b6101e1610a4b565b6102276000805160206122d083398151915281565b610227600081565b6102216103aa366004611ead565b610a5a565b6102216103bd366004611ee9565b610a65565b6102216103d0366004611d2d565b610a9d565b6101e16103e3366004611ce4565b610af8565b61022760008051602061233083398151915281565b61022161040b366004611d93565b610b5f565b61022760008051602061231083398151915281565b6101c4610433366004611f64565b610b7b565b6101e1610ba9565b60006001600160e01b03198216632c63230160e11b1480610465575061046582610c37565b92915050565b60606000805461047a90611f8e565b80601f01602080910402602001604051908101604052809291908181526020018280546104a690611f8e565b80156104f35780601f106104c8576101008083540402835291602001916104f3565b820191906000526020600020905b8154815290600101906020018083116104d657829003601f168201915b5050505050905090565b600061050882610c5c565b506000908152600460205260409020546001600160a01b031690565b600061052f82610937565b9050806001600160a01b0316836001600160a01b031614156105a25760405162461bcd60e51b815260206004820152602160248201527f4552433732313a20617070726f76616c20746f2063757272656e74206f776e656044820152603960f91b60648201526084015b60405180910390fd5b336001600160a01b03821614806105be57506105be8133610b7b565b6106305760405162461bcd60e51b815260206004820152603d60248201527f4552433732313a20617070726f76652063616c6c6572206973206e6f7420746f60448201527f6b656e206f776e6572206f7220617070726f76656420666f7220616c6c0000006064820152608401610599565b61063a8383610c81565b505050565b61064a335b82610cef565b6106665760405162461bcd60e51b815260040161059990611fc9565b61063a838383610d4e565b6000908152600b602052604090206001015490565b61068f82610671565b61069881610ead565b61063a8383610eb7565b60006106ad8361096b565b821061070f5760405162461bcd60e51b815260206004820152602b60248201527f455243373231456e756d657261626c653a206f776e657220696e646578206f7560448201526a74206f6620626f756e647360a81b6064820152608401610599565b506001600160a01b03919091166000908152600660209081526040808320938352929052205490565b6001600160a01b03811633146107a85760405162461bcd60e51b815260206004820152602f60248201527f416363657373436f6e74726f6c3a2063616e206f6e6c792072656e6f756e636560448201526e103937b632b9903337b91039b2b63360891b6064820152608401610599565b6107b28282610f3d565b5050565b6000805160206123108339815191526107ce81610ead565b6107d6610fa4565b50565b6000805160206123308339815191526107f181610ead565b6107ff600d80546001019055565b600061080a600d5490565b905061063a8382610ff0565b61063a83838360405180602001604052806000815250610a65565b61083a33610644565b6108565760405162461bcd60e51b815260040161059990611fc9565b6107d68161100a565b600061086a60085490565b82106108cd5760405162461bcd60e51b815260206004820152602c60248201527f455243373231456e756d657261626c653a20676c6f62616c20696e646578206f60448201526b7574206f6620626f756e647360a01b6064820152608401610599565b600882815481106108e0576108e0612016565b90600052602060002001549050919050565b6000805160206122d083398151915261090a81610ead565b815161063a90600e906020850190611bad565b60006104656000805160206122f083398151915283610a20565b6000806109438361109b565b90506001600160a01b0381166104655760405162461bcd60e51b81526004016105999061202c565b60006001600160a01b0382166109d55760405162461bcd60e51b815260206004820152602960248201527f4552433732313a2061646472657373207a65726f206973206e6f7420612076616044820152683634b21037bbb732b960b91b6064820152608401610599565b506001600160a01b031660009081526003602052604090205490565b6060600e805461047a90611f8e565b600080516020612310833981519152610a1881610ead565b6107d66110b6565b6000918252600b602090815260408084206001600160a01b0393909316845291905290205460ff1690565b60606001805461047a90611f8e565b6107b23383836110f3565b610a6f3383610cef565b610a8b5760405162461bcd60e51b815260040161059990611fc9565b610a97848484846111be565b50505050565b600080516020612330833981519152610ab581610ead565b60005b82811015610a9757610ace600d80546001019055565b6000610ad9600d5490565b9050610ae58582610ff0565b5080610af081612074565b915050610ab8565b6060610b0382610c5c565b6000610b0d6109f1565b90506000815111610b2d5760405180602001604052806000815250610b58565b80610b37846111f1565b604051602001610b4892919061208f565b6040516020818303038152906040525b9392505050565b610b6882610671565b610b7181610ead565b61063a8383610f3d565b6001600160a01b03918216600090815260056020908152604080832093909416825291909152205460ff1690565b600c8054610bb690611f8e565b80601f0160208091040260200160405190810160405280929190818152602001828054610be290611f8e565b8015610c2f5780601f10610c0457610100808354040283529160200191610c2f565b820191906000526020600020905b815481529060010190602001808311610c1257829003601f168201915b505050505081565b60006001600160e01b03198216637965db0b60e01b148061046557506104658261128d565b610c65816112b2565b6107d65760405162461bcd60e51b81526004016105999061202c565b600081815260046020526040902080546001600160a01b0319166001600160a01b0384169081179091558190610cb682610937565b6001600160a01b03167f8c5be1e5ebec7d5bd14f71427d1e84f3dd0314c0f7b2291e5b200ac8c7c3b92560405160405180910390a45050565b600080610cfb83610937565b9050806001600160a01b0316846001600160a01b03161480610d225750610d228185610b7b565b80610d465750836001600160a01b0316610d3b846104fd565b6001600160a01b0316145b949350505050565b826001600160a01b0316610d6182610937565b6001600160a01b031614610d875760405162461bcd60e51b8152600401610599906120be565b6001600160a01b038216610de95760405162461bcd60e51b8152602060048201526024808201527f4552433732313a207472616e7366657220746f20746865207a65726f206164646044820152637265737360e01b6064820152608401610599565b610df683838360016112cf565b826001600160a01b0316610e0982610937565b6001600160a01b031614610e2f5760405162461bcd60e51b8152600401610599906120be565b600081815260046020908152604080832080546001600160a01b03199081169091556001600160a01b03878116808652600385528386208054600019019055908716808652838620805460010190558686526002909452828520805490921684179091559051849360008051602061235083398151915291a4505050565b6107d681336112e3565b610ec18282610a20565b6107b2576000828152600b602090815260408083206001600160a01b03851684529091529020805460ff19166001179055610ef93390565b6001600160a01b0316816001600160a01b0316837f2f8788117e7eff1d82e926ec794901d17c78024a50270940304540a733656f0d60405160405180910390a45050565b610f478282610a20565b156107b2576000828152600b602090815260408083206001600160a01b0385168085529252808320805460ff1916905551339285917ff6391f5c32d9c69d2a47ea670b442974b53935d1edc7fd64eb21e047a839171b9190a45050565b610fac61133c565b600a805460ff191690557f5db9ee0a495bf2e6ff9c91a7834c1ba4fdd244a5e8aa4e537bd38aeae4b073aa335b604051610fe69190611cfd565b60405180910390a1565b6107b2828260405180602001604052806000815250611387565b600061101582610937565b90506110258160008460016112cf565b61102e82610937565b600083815260046020908152604080832080546001600160a01b03199081169091556001600160a01b038516808552600384528285208054600019019055878552600290935281842080549091169055519293508492600080516020612350833981519152908390a45050565b6000908152600260205260409020546001600160a01b031690565b6110be6113ba565b600a805460ff191660011790557f62e78cea01bee320cd4e420270b5ea74000d11b0c9f74754ebdbfc544b05a258610fd93390565b816001600160a01b0316836001600160a01b031614156111515760405162461bcd60e51b815260206004820152601960248201527822a9219b99189d1030b8383937bb32903a379031b0b63632b960391b6044820152606401610599565b6001600160a01b03838116600081815260056020908152604080832094871680845294825291829020805460ff191686151590811790915591519182527f17307eab39ab6107e8899845ad3d59bd9653f200f220920489ca2b5937696c31910160405180910390a3505050565b6111c9848484610d4e565b6111d584848484611400565b610a975760405162461bcd60e51b815260040161059990612103565b606060006111fe8361150d565b60010190506000816001600160401b0381111561121d5761121d611dda565b6040519080825280601f01601f191660200182016040528015611247576020820181803683370190505b5090508181016020015b600019016f181899199a1a9b1b9c1cb0b131b232b360811b600a86061a8153600a850494508461128057611285565b611251565b509392505050565b60006001600160e01b0319821663780e9d6360e01b14806104655750610465826115e3565b6000806112be8361109b565b6001600160a01b0316141592915050565b6112d76113ba565b610a9784848484611633565b6112ed8282610a20565b6107b2576112fa81611767565b611305836020611779565b604051602001611316929190612155565b60408051601f198184030181529082905262461bcd60e51b825261059991600401611cd1565b600a5460ff166113855760405162461bcd60e51b815260206004820152601460248201527314185d5cd8589b194e881b9bdd081c185d5cd95960621b6044820152606401610599565b565b6113918383611914565b61139e6000848484611400565b61063a5760405162461bcd60e51b815260040161059990612103565b600a5460ff16156113855760405162461bcd60e51b815260206004820152601060248201526f14185d5cd8589b194e881c185d5cd95960821b6044820152606401610599565b60006001600160a01b0384163b1561150257604051630a85bd0160e11b81526001600160a01b0385169063150b7a02906114449033908990889088906004016121c4565b602060405180830381600087803b15801561145e57600080fd5b505af192505050801561148e575060408051601f3d908101601f1916820190925261148b91810190612201565b60015b6114e8573d8080156114bc576040519150601f19603f3d011682016040523d82523d6000602084013e6114c1565b606091505b5080516114e05760405162461bcd60e51b815260040161059990612103565b805181602001fd5b6001600160e01b031916630a85bd0160e11b149050610d46565b506001949350505050565b60008072184f03e93ff9f4daa797ed6e38ed64bf6a1f0160401b831061154c5772184f03e93ff9f4daa797ed6e38ed64bf6a1f0160401b830492506040015b6904ee2d6d415b85acef8160201b8310611576576904ee2d6d415b85acef8160201b830492506020015b662386f26fc10000831061159457662386f26fc10000830492506010015b6305f5e10083106115ac576305f5e100830492506008015b61271083106115c057612710830492506004015b606483106115d2576064830492506002015b600a83106104655760010192915050565b60006001600160e01b031982166380ac58cd60e01b148061161457506001600160e01b03198216635b5e139f60e01b145b8061046557506301ffc9a760e01b6001600160e01b0319831614610465565b60018111156116a25760405162461bcd60e51b815260206004820152603560248201527f455243373231456e756d657261626c653a20636f6e7365637574697665207472604482015274185b9cd9995c9cc81b9bdd081cdd5c1c1bdc9d1959605a1b6064820152608401610599565b816001600160a01b0385166116fe576116f981600880546000838152600960205260408120829055600182018355919091527ff3f7a9fe364faab93b216da50a3214154f22a0a2b415b23a84c8169e8b636ee30155565b611721565b836001600160a01b0316856001600160a01b031614611721576117218582611a1d565b6001600160a01b03841661173d5761173881611aba565b611760565b846001600160a01b0316846001600160a01b031614611760576117608482611b69565b5050505050565b60606104656001600160a01b03831660145b6060600061178883600261221e565b61179390600261223d565b6001600160401b038111156117aa576117aa611dda565b6040519080825280601f01601f1916602001820160405280156117d4576020820181803683370190505b509050600360fc1b816000815181106117ef576117ef612016565b60200101906001600160f81b031916908160001a905350600f60fb1b8160018151811061181e5761181e612016565b60200101906001600160f81b031916908160001a905350600061184284600261221e565b61184d90600161223d565b90505b60018111156118c5576f181899199a1a9b1b9c1cb0b131b232b360811b85600f166010811061188157611881612016565b1a60f81b82828151811061189757611897612016565b60200101906001600160f81b031916908160001a90535060049490941c936118be81612255565b9050611850565b508315610b585760405162461bcd60e51b815260206004820181905260248201527f537472696e67733a20686578206c656e67746820696e73756666696369656e746044820152606401610599565b6001600160a01b03821661196a5760405162461bcd60e51b815260206004820181905260248201527f4552433732313a206d696e7420746f20746865207a65726f20616464726573736044820152606401610599565b611973816112b2565b156119905760405162461bcd60e51b81526004016105999061226c565b61199e6000838360016112cf565b6119a7816112b2565b156119c45760405162461bcd60e51b81526004016105999061226c565b6001600160a01b038216600081815260036020908152604080832080546001019055848352600290915280822080546001600160a01b031916841790555183929190600080516020612350833981519152908290a45050565b60006001611a2a8461096b565b611a3491906122a2565b600083815260076020526040902054909150808214611a87576001600160a01b03841660009081526006602090815260408083208584528252808320548484528184208190558352600790915290208190555b5060009182526007602090815260408084208490556001600160a01b039094168352600681528383209183525290812055565b600854600090611acc906001906122a2565b60008381526009602052604081205460088054939450909284908110611af457611af4612016565b906000526020600020015490508060088381548110611b1557611b15612016565b6000918252602080832090910192909255828152600990915260408082208490558582528120556008805480611b4d57611b4d6122b9565b6001900381819060005260206000200160009055905550505050565b6000611b748361096b565b6001600160a01b039093166000908152600660209081526040808320868452825280832085905593825260079052919091209190915550565b828054611bb990611f8e565b90600052602060002090601f016020900481019282611bdb5760008555611c21565b82601f10611bf457805160ff1916838001178555611c21565b82800160010185558215611c21579182015b82811115611c21578251825591602001919060010190611c06565b50611c2d929150611c31565b5090565b5b80821115611c2d5760008155600101611c32565b6001600160e01b0319811681146107d657600080fd5b600060208284031215611c6e57600080fd5b8135610b5881611c46565b60005b83811015611c94578181015183820152602001611c7c565b83811115610a975750506000910152565b60008151808452611cbd816020860160208601611c79565b601f01601f19169290920160200192915050565b602081526000610b586020830184611ca5565b600060208284031215611cf657600080fd5b5035919050565b6001600160a01b0391909116815260200190565b80356001600160a01b0381168114611d2857600080fd5b919050565b60008060408385031215611d4057600080fd5b611d4983611d11565b946020939093013593505050565b600080600060608486031215611d6c57600080fd5b611d7584611d11565b9250611d8360208501611d11565b9150604084013590509250925092565b60008060408385031215611da657600080fd5b82359150611db660208401611d11565b90509250929050565b600060208284031215611dd157600080fd5b610b5882611d11565b634e487b7160e01b600052604160045260246000fd5b60006001600160401b0380841115611e0a57611e0a611dda565b604051601f8501601f19908116603f01168101908282118183101715611e3257611e32611dda565b81604052809350858152868686011115611e4b57600080fd5b858560208301376000602087830101525050509392505050565b600060208284031215611e7757600080fd5b81356001600160401b03811115611e8d57600080fd5b8201601f81018413611e9e57600080fd5b610d4684823560208401611df0565b60008060408385031215611ec057600080fd5b611ec983611d11565b915060208301358015158114611ede57600080fd5b809150509250929050565b60008060008060808587031215611eff57600080fd5b611f0885611d11565b9350611f1660208601611d11565b92506040850135915060608501356001600160401b03811115611f3857600080fd5b8501601f81018713611f4957600080fd5b611f5887823560208401611df0565b91505092959194509250565b60008060408385031215611f7757600080fd5b611f8083611d11565b9150611db660208401611d11565b600181811c90821680611fa257607f821691505b60208210811415611fc357634e487b7160e01b600052602260045260246000fd5b50919050565b6020808252602d908201527f4552433732313a2063616c6c6572206973206e6f7420746f6b656e206f776e6560408201526c1c881bdc88185c1c1c9bdd9959609a1b606082015260800190565b634e487b7160e01b600052603260045260246000fd5b602080825260189082015277115490cdcc8c4e881a5b9d985b1a59081d1bdad95b88125160421b604082015260600190565b634e487b7160e01b600052601160045260246000fd5b60006000198214156120885761208861205e565b5060010190565b600083516120a1818460208801611c79565b8351908301906120b5818360208801611c79565b01949350505050565b60208082526025908201527f4552433732313a207472616e736665722066726f6d20696e636f72726563742060408201526437bbb732b960d91b606082015260800190565b60208082526032908201527f4552433732313a207472616e7366657220746f206e6f6e20455243373231526560408201527131b2b4bb32b91034b6b83632b6b2b73a32b960711b606082015260800190565b76020b1b1b2b9b9a1b7b73a3937b61d1030b1b1b7bab73a1604d1b815260008351612187816017850160208801611c79565b7001034b99036b4b9b9b4b733903937b6329607d1b60179184019182015283516121b8816028840160208801611c79565b01602801949350505050565b6001600160a01b03858116825284166020820152604081018390526080606082018190526000906121f790830184611ca5565b9695505050505050565b60006020828403121561221357600080fd5b8151610b5881611c46565b60008160001904831182151516156122385761223861205e565b500290565b600082198211156122505761225061205e565b500190565b6000816122645761226461205e565b506000190190565b6020808252601c908201527b115490cdcc8c4e881d1bdad95b88185b1c9958591e481b5a5b9d195960221b604082015260600190565b6000828210156122b4576122b461205e565b500390565b634e487b7160e01b600052603160045260246000fdfe61c92169ef077349011ff0b1383c894d86c5f0b41d986366b58a6cf31e93bedad1f21ec03a6eb050fba156f5316dad461735df521fb446dd42c5a4728e9c70fe65d7a28e3265b37a6474929f336521b332c1681b933f6cb9f3376673440d862a9f2df0fed2c77648de5860a4cc508cd0818c85b8b8a1ab4ceeef8d981c8956a6ddf252ad1be2c89b69c2b068fc378daa952ba7f163c4a11628f55a4df523b3efa2646970667358221220d817caa68cfadd526c460a8ec62fde0e20ea8e9cbf8626931e4fdd43325affed64736f6c63430008090033",
  "linkReferences": {},
  "deployedLinkReferences": {}
}