{
  "_format": "hh-sol-artifact-1",
  "contractName": "promptNFT",
  "sourceName": "contracts/promptNFT.sol",
  "abi": [
    {
      "inputs": [
        {
          "internalType": "string",
          "name": "name_",
          "type": "string"
        },
        {
          "internalType": "string",
          "name": "symbol_",
          "type": "string"
        },
        {
          "internalType": "address payable",
          "name": "rentMarketContractAddress_",
          "type": "address"
        }
      ],
      "stateMutability": "nonpayable",
      "type": "constructor"
    },
    {
      "anonymous": false,
      "inputs": [
        {
          "indexed": true,
          "internalType": "address",
          "name": "owner",
          "type": "address"
        },
        {
          "indexed": true,
          "internalType": "address",
          "name": "approved",
          "type": "address"
        },
        {
          "indexed": true,
          "internalType": "uint256",
          "name": "tokenId",
          "type": "uint256"
        }
      ],
      "name": "Approval",
      "type": "event"
    },
    {
      "anonymous": false,
      "inputs": [
        {
          "indexed": true,
          "internalType": "address",
          "name": "owner",
          "type": "address"
        },
        {
          "indexed": true,
          "internalType": "address",
          "name": "operator",
          "type": "address"
        },
        {
          "indexed": false,
          "internalType": "bool",
          "name": "approved",
          "type": "bool"
        }
      ],
      "name": "ApprovalForAll",
      "type": "event"
    },
    {
      "anonymous": false,
      "inputs": [
        {
          "indexed": false,
          "internalType": "address",
          "name": "account",
          "type": "address"
        }
      ],
      "name": "Paused",
      "type": "event"
    },
    {
      "anonymous": false,
      "inputs": [
        {
          "indexed": true,
          "internalType": "bytes32",
          "name": "role",
          "type": "bytes32"
        },
        {
          "indexed": true,
          "internalType": "bytes32",
          "name": "previousAdminRole",
          "type": "bytes32"
        },
        {
          "indexed": true,
          "internalType": "bytes32",
          "name": "newAdminRole",
          "type": "bytes32"
        }
      ],
      "name": "RoleAdminChanged",
      "type": "event"
    },
    {
      "anonymous": false,
      "inputs": [
        {
          "indexed": true,
          "internalType": "bytes32",
          "name": "role",
          "type": "bytes32"
        },
        {
          "indexed": true,
          "internalType": "address",
          "name": "account",
          "type": "address"
        },
        {
          "indexed": true,
          "internalType": "address",
          "name": "sender",
          "type": "address"
        }
      ],
      "name": "RoleGranted",
      "type": "event"
    },
    {
      "anonymous": false,
      "inputs": [
        {
          "indexed": true,
          "internalType": "bytes32",
          "name": "role",
          "type": "bytes32"
        },
        {
          "indexed": true,
          "internalType": "address",
          "name": "account",
          "type": "address"
        },
        {
          "indexed": true,
          "internalType": "address",
          "name": "sender",
          "type": "address"
        }
      ],
      "name": "RoleRevoked",
      "type": "event"
    },
    {
      "anonymous": false,
      "inputs": [
        {
          "indexed": true,
          "internalType": "address",
          "name": "from",
          "type": "address"
        },
        {
          "indexed": true,
          "internalType": "address",
          "name": "to",
          "type": "address"
        },
        {
          "indexed": true,
          "internalType": "uint256",
          "name": "tokenId",
          "type": "uint256"
        }
      ],
      "name": "Transfer",
      "type": "event"
    },
    {
      "anonymous": false,
      "inputs": [
        {
          "indexed": false,
          "internalType": "address",
          "name": "account",
          "type": "address"
        }
      ],
      "name": "Unpaused",
      "type": "event"
    },
    {
      "inputs": [],
      "name": "CHANGER_ROLE",
      "outputs": [
        {
          "internalType": "bytes32",
          "name": "",
          "type": "bytes32"
        }
      ],
      "stateMutability": "view",
      "type": "function"
    },
    {
      "inputs": [],
      "name": "DEFAULT_ADMIN_ROLE",
      "outputs": [
        {
          "internalType": "bytes32",
          "name": "",
          "type": "bytes32"
        }
      ],
      "stateMutability": "view",
      "type": "function"
    },
    {
      "inputs": [],
      "name": "PAUSER_ROLE",
      "outputs": [
        {
          "internalType": "bytes32",
          "name": "",
          "type": "bytes32"
        }
      ],
      "stateMutability": "view",
      "type": "function"
    },
    {
      "inputs": [],
      "name": "PROMPTER_ROLE",
      "outputs": [
        {
          "internalType": "bytes32",
          "name": "",
          "type": "bytes32"
        }
      ],
      "stateMutability": "view",
      "type": "function"
    },
    {
      "inputs": [],
      "name": "REGISTER_ROLE",
      "outputs": [
        {
          "internalType": "bytes32",
          "name": "",
          "type": "bytes32"
        }
      ],
      "stateMutability": "view",
      "type": "function"
    },
    {
      "inputs": [
        {
          "internalType": "address",
          "name": "to",
          "type": "address"
        },
        {
          "internalType": "uint256",
          "name": "tokenId",
          "type": "uint256"
        }
      ],
      "name": "approve",
      "outputs": [],
      "stateMutability": "nonpayable",
      "type": "function"
    },
    {
      "inputs": [
        {
          "internalType": "address",
          "name": "owner",
          "type": "address"
        }
      ],
      "name": "balanceOf",
      "outputs": [
        {
          "internalType": "uint256",
          "name": "",
          "type": "uint256"
        }
      ],
      "stateMutability": "view",
      "type": "function"
    },
    {
      "inputs": [
        {
          "internalType": "uint256",
          "name": "tokenId",
          "type": "uint256"
        }
      ],
      "name": "burn",
      "outputs": [],
      "stateMutability": "nonpayable",
      "type": "function"
    },
    {
      "inputs": [
        {
          "internalType": "address payable",
          "name": "rentMarketContractAddress_",
          "type": "address"
        }
      ],
      "name": "changeRentMarketContract",
      "outputs": [],
      "stateMutability": "nonpayable",
      "type": "function"
    },
    {
      "inputs": [
        {
          "internalType": "address",
          "name": "registerAddress",
          "type": "address"
        }
      ],
      "name": "checkRegisterRole",
      "outputs": [
        {
          "internalType": "bool",
          "name": "result",
          "type": "bool"
        }
      ],
      "stateMutability": "view",
      "type": "function"
    },
    {
      "inputs": [
        {
          "internalType": "uint256",
          "name": "tokenId",
          "type": "uint256"
        },
        {
          "components": [
            {
              "internalType": "string",
              "name": "version",
              "type": "string"
            },
            {
              "internalType": "string",
              "name": "ephemPublicKey",
              "type": "string"
            },
            {
              "internalType": "string",
              "name": "nonce",
              "type": "string"
            },
            {
              "internalType": "string",
              "name": "ciphertext",
              "type": "string"
            }
          ],
          "internalType": "struct promptNFT.encryptData",
          "name": "contractOwnerEncryptPromptData",
          "type": "tuple"
        },
        {
          "components": [
            {
              "internalType": "string",
              "name": "version",
              "type": "string"
            },
            {
              "internalType": "string",
              "name": "ephemPublicKey",
              "type": "string"
            },
            {
              "internalType": "string",
              "name": "nonce",
              "type": "string"
            },
            {
              "internalType": "string",
              "name": "ciphertext",
              "type": "string"
            }
          ],
          "internalType": "struct promptNFT.encryptData",
          "name": "contractOwnerEncryptNegativePromptData",
          "type": "tuple"
        }
      ],
      "name": "claimContractOwnerPrompt",
      "outputs": [],
      "stateMutability": "nonpayable",
      "type": "function"
    },
    {
      "inputs": [
        {
          "internalType": "uint256",
          "name": "tokenId",
          "type": "uint256"
        },
        {
          "components": [
            {
              "internalType": "string",
              "name": "version",
              "type": "string"
            },
            {
              "internalType": "string",
              "name": "ephemPublicKey",
              "type": "string"
            },
            {
              "internalType": "string",
              "name": "nonce",
              "type": "string"
            },
            {
              "internalType": "string",
              "name": "ciphertext",
              "type": "string"
            }
          ],
          "internalType": "struct promptNFT.encryptData",
          "name": "tokenOwnerEncryptPromptData",
          "type": "tuple"
        },
        {
          "components": [
            {
              "internalType": "string",
              "name": "version",
              "type": "string"
            },
            {
              "internalType": "string",
              "name": "ephemPublicKey",
              "type": "string"
            },
            {
              "internalType": "string",
              "name": "nonce",
              "type": "string"
            },
            {
              "internalType": "string",
              "name": "ciphertext",
              "type": "string"
            }
          ],
          "internalType": "struct promptNFT.encryptData",
          "name": "tokenOwnerEncryptNegativePromptData",
          "type": "tuple"
        }
      ],
      "name": "claimTokenOwnerPrompt",
      "outputs": [],
      "stateMutability": "nonpayable",
      "type": "function"
    },
    {
      "inputs": [
        {
          "internalType": "uint256",
          "name": "tokenId",
          "type": "uint256"
        }
      ],
      "name": "getApproved",
      "outputs": [
        {
          "internalType": "address",
          "name": "",
          "type": "address"
        }
      ],
      "stateMutability": "view",
      "type": "function"
    },
    {
      "inputs": [
        {
          "internalType": "uint256",
          "name": "tokenId",
          "type": "uint256"
        }
      ],
      "name": "getContractOwnerPrompt",
      "outputs": [
        {
          "components": [
            {
              "internalType": "string",
              "name": "version",
              "type": "string"
            },
            {
              "internalType": "string",
              "name": "ephemPublicKey",
              "type": "string"
            },
            {
              "internalType": "string",
              "name": "nonce",
              "type": "string"
            },
            {
              "internalType": "string",
              "name": "ciphertext",
              "type": "string"
            }
          ],
          "internalType": "struct promptNFT.encryptData",
          "name": "",
          "type": "tuple"
        },
        {
          "components": [
            {
              "internalType": "string",
              "name": "version",
              "type": "string"
            },
            {
              "internalType": "string",
              "name": "ephemPublicKey",
              "type": "string"
            },
            {
              "internalType": "string",
              "name": "nonce",
              "type": "string"
            },
            {
              "internalType": "string",
              "name": "ciphertext",
              "type": "string"
            }
          ],
          "internalType": "struct promptNFT.encryptData",
          "name": "",
          "type": "tuple"
        }
      ],
      "stateMutability": "view",
      "type": "function"
    },
    {
      "inputs": [
        {
          "internalType": "uint256",
          "name": "tokenId",
          "type": "uint256"
        }
      ],
      "name": "getModelName",
      "outputs": [
        {
          "internalType": "string",
          "name": "",
          "type": "string"
        }
      ],
      "stateMutability": "view",
      "type": "function"
    },
    {
      "inputs": [
        {
          "internalType": "bytes32",
          "name": "role",
          "type": "bytes32"
        }
      ],
      "name": "getRoleAdmin",
      "outputs": [
        {
          "internalType": "bytes32",
          "name": "",
          "type": "bytes32"
        }
      ],
      "stateMutability": "view",
      "type": "function"
    },
    {
      "inputs": [
        {
          "internalType": "uint256",
          "name": "tokenId",
          "type": "uint256"
        }
      ],
      "name": "getTokenOwnerPrompt",
      "outputs": [
        {
          "components": [
            {
              "internalType": "string",
              "name": "version",
              "type": "string"
            },
            {
              "internalType": "string",
              "name": "ephemPublicKey",
              "type": "string"
            },
            {
              "internalType": "string",
              "name": "nonce",
              "type": "string"
            },
            {
              "internalType": "string",
              "name": "ciphertext",
              "type": "string"
            }
          ],
          "internalType": "struct promptNFT.encryptData",
          "name": "",
          "type": "tuple"
        },
        {
          "components": [
            {
              "internalType": "string",
              "name": "version",
              "type": "string"
            },
            {
              "internalType": "string",
              "name": "ephemPublicKey",
              "type": "string"
            },
            {
              "internalType": "string",
              "name": "nonce",
              "type": "string"
            },
            {
              "internalType": "string",
              "name": "ciphertext",
              "type": "string"
            }
          ],
          "internalType": "struct promptNFT.encryptData",
          "name": "",
          "type": "tuple"
        }
      ],
      "stateMutability": "view",
      "type": "function"
    },
    {
      "inputs": [
        {
          "internalType": "bytes32",
          "name": "role",
          "type": "bytes32"
        },
        {
          "internalType": "address",
          "name": "account",
          "type": "address"
        }
      ],
      "name": "grantRole",
      "outputs": [],
      "stateMutability": "nonpayable",
      "type": "function"
    },
    {
      "inputs": [
        {
          "internalType": "bytes32",
          "name": "role",
          "type": "bytes32"
        },
        {
          "internalType": "address",
          "name": "account",
          "type": "address"
        }
      ],
      "name": "hasRole",
      "outputs": [
        {
          "internalType": "bool",
          "name": "",
          "type": "bool"
        }
      ],
      "stateMutability": "view",
      "type": "function"
    },
    {
      "inputs": [
        {
          "internalType": "address",
          "name": "owner",
          "type": "address"
        },
        {
          "internalType": "address",
          "name": "operator",
          "type": "address"
        }
      ],
      "name": "isApprovedForAll",
      "outputs": [
        {
          "internalType": "bool",
          "name": "",
          "type": "bool"
        }
      ],
      "stateMutability": "view",
      "type": "function"
    },
    {
      "inputs": [],
      "name": "name",
      "outputs": [
        {
          "internalType": "string",
          "name": "",
          "type": "string"
        }
      ],
      "stateMutability": "view",
      "type": "function"
    },
    {
      "inputs": [
        {
          "internalType": "uint256",
          "name": "tokenId",
          "type": "uint256"
        }
      ],
      "name": "ownerOf",
      "outputs": [
        {
          "internalType": "address",
          "name": "",
          "type": "address"
        }
      ],
      "stateMutability": "view",
      "type": "function"
    },
    {
      "inputs": [],
      "name": "pause",
      "outputs": [],
      "stateMutability": "nonpayable",
      "type": "function"
    },
    {
      "inputs": [],
      "name": "paused",
      "outputs": [
        {
          "internalType": "bool",
          "name": "",
          "type": "bool"
        }
      ],
      "stateMutability": "view",
      "type": "function"
    },
    {
      "inputs": [
        {
          "internalType": "bytes32",
          "name": "role",
          "type": "bytes32"
        },
        {
          "internalType": "address",
          "name": "account",
          "type": "address"
        }
      ],
      "name": "renounceRole",
      "outputs": [],
      "stateMutability": "nonpayable",
      "type": "function"
    },
    {
      "inputs": [
        {
          "internalType": "bytes32",
          "name": "role",
          "type": "bytes32"
        },
        {
          "internalType": "address",
          "name": "account",
          "type": "address"
        }
      ],
      "name": "revokeRole",
      "outputs": [],
      "stateMutability": "nonpayable",
      "type": "function"
    },
    {
      "inputs": [
        {
          "internalType": "address",
          "name": "to_",
          "type": "address"
        },
        {
          "internalType": "string",
          "name": "uri_",
          "type": "string"
        },
        {
          "internalType": "string",
          "name": "modelName_",
          "type": "string"
        },
        {
          "components": [
            {
              "internalType": "string",
              "name": "version",
              "type": "string"
            },
            {
              "internalType": "string",
              "name": "ephemPublicKey",
              "type": "string"
            },
            {
              "internalType": "string",
              "name": "nonce",
              "type": "string"
            },
            {
              "internalType": "string",
              "name": "ciphertext",
              "type": "string"
            }
          ],
          "internalType": "struct promptNFT.encryptData",
          "name": "tokenOwnerEncryptPromptData_",
          "type": "tuple"
        },
        {
          "components": [
            {
              "internalType": "string",
              "name": "version",
              "type": "string"
            },
            {
              "internalType": "string",
              "name": "ephemPublicKey",
              "type": "string"
            },
            {
              "internalType": "string",
              "name": "nonce",
              "type": "string"
            },
            {
              "internalType": "string",
              "name": "ciphertext",
              "type": "string"
            }
          ],
          "internalType": "struct promptNFT.encryptData",
          "name": "tokenOwnerEncryptNegativePromptData_",
          "type": "tuple"
        },
        {
          "components": [
            {
              "internalType": "string",
              "name": "version",
              "type": "string"
            },
            {
              "internalType": "string",
              "name": "ephemPublicKey",
              "type": "string"
            },
            {
              "internalType": "string",
              "name": "nonce",
              "type": "string"
            },
            {
              "internalType": "string",
              "name": "ciphertext",
              "type": "string"
            }
          ],
          "internalType": "struct promptNFT.encryptData",
          "name": "contractOwnerEncryptPromptData_",
          "type": "tuple"
        },
        {
          "components": [
            {
              "internalType": "string",
              "name": "version",
              "type": "string"
            },
            {
              "internalType": "string",
              "name": "ephemPublicKey",
              "type": "string"
            },
            {
              "internalType": "string",
              "name": "nonce",
              "type": "string"
            },
            {
              "internalType": "string",
              "name": "ciphertext",
              "type": "string"
            }
          ],
          "internalType": "struct promptNFT.encryptData",
          "name": "contractOwnerEncryptNegativePromptData_",
          "type": "tuple"
        }
      ],
      "name": "safeMint",
      "outputs": [
        {
          "internalType": "uint256",
          "name": "",
          "type": "uint256"
        }
      ],
      "stateMutability": "nonpayable",
      "type": "function"
    },
    {
      "inputs": [
        {
          "internalType": "address",
          "name": "from",
          "type": "address"
        },
        {
          "internalType": "address",
          "name": "to",
          "type": "address"
        },
        {
          "internalType": "uint256",
          "name": "tokenId",
          "type": "uint256"
        }
      ],
      "name": "safeTransferFrom",
      "outputs": [],
      "stateMutability": "nonpayable",
      "type": "function"
    },
    {
      "inputs": [
        {
          "internalType": "address",
          "name": "from",
          "type": "address"
        },
        {
          "internalType": "address",
          "name": "to",
          "type": "address"
        },
        {
          "internalType": "uint256",
          "name": "tokenId",
          "type": "uint256"
        },
        {
          "internalType": "bytes",
          "name": "data",
          "type": "bytes"
        }
      ],
      "name": "safeTransferFrom",
      "outputs": [],
      "stateMutability": "nonpayable",
      "type": "function"
    },
    {
      "inputs": [
        {
          "internalType": "address",
          "name": "operator",
          "type": "address"
        },
        {
          "internalType": "bool",
          "name": "approved",
          "type": "bool"
        }
      ],
      "name": "setApprovalForAll",
      "outputs": [],
      "stateMutability": "nonpayable",
      "type": "function"
    },
    {
      "inputs": [
        {
          "internalType": "bytes4",
          "name": "interfaceId",
          "type": "bytes4"
        }
      ],
      "name": "supportsInterface",
      "outputs": [
        {
          "internalType": "bool",
          "name": "",
          "type": "bool"
        }
      ],
      "stateMutability": "view",
      "type": "function"
    },
    {
      "inputs": [],
      "name": "symbol",
      "outputs": [
        {
          "internalType": "string",
          "name": "",
          "type": "string"
        }
      ],
      "stateMutability": "view",
      "type": "function"
    },
    {
      "inputs": [
        {
          "internalType": "uint256",
          "name": "index",
          "type": "uint256"
        }
      ],
      "name": "tokenByIndex",
      "outputs": [
        {
          "internalType": "uint256",
          "name": "",
          "type": "uint256"
        }
      ],
      "stateMutability": "view",
      "type": "function"
    },
    {
      "inputs": [
        {
          "internalType": "address",
          "name": "owner",
          "type": "address"
        },
        {
          "internalType": "uint256",
          "name": "index",
          "type": "uint256"
        }
      ],
      "name": "tokenOfOwnerByIndex",
      "outputs": [
        {
          "internalType": "uint256",
          "name": "",
          "type": "uint256"
        }
      ],
      "stateMutability": "view",
      "type": "function"
    },
    {
      "inputs": [
        {
          "internalType": "uint256",
          "name": "tokenId",
          "type": "uint256"
        }
      ],
      "name": "tokenURI",
      "outputs": [
        {
          "internalType": "string",
          "name": "",
          "type": "string"
        }
      ],
      "stateMutability": "view",
      "type": "function"
    },
    {
      "inputs": [],
      "name": "totalSupply",
      "outputs": [
        {
          "internalType": "uint256",
          "name": "",
          "type": "uint256"
        }
      ],
      "stateMutability": "view",
      "type": "function"
    },
    {
      "inputs": [
        {
          "internalType": "address",
          "name": "from",
          "type": "address"
        },
        {
          "internalType": "address",
          "name": "to",
          "type": "address"
        },
        {
          "internalType": "uint256",
          "name": "tokenId",
          "type": "uint256"
        }
      ],
      "name": "transferFrom",
      "outputs": [],
      "stateMutability": "nonpayable",
      "type": "function"
    },
    {
      "inputs": [],
      "name": "unpause",
      "outputs": [],
      "stateMutability": "nonpayable",
      "type": "function"
    }
  ],
  "bytecode": "0x60806040523480156200001157600080fd5b5060405162003e3838038062003e3883398101604081905262000034916200033d565b8251839083906200004d906000906020850190620001ca565b50805162000063906001906020840190620001ca565b5050600b805460ff1916905550600e80546001600160a01b0319166001600160a01b0383161790556200009860003362000125565b620000c47f65d7a28e3265b37a6474929f336521b332c1681b933f6cb9f3376673440d862a3362000125565b620000f07fd0643f51bd184a6a394cdade44604c05442b11e696dabba32ec676f5e962b8353362000125565b6200011c7fd1f21ec03a6eb050fba156f5316dad461735df521fb446dd42c5a4728e9c70fe3362000125565b50505062000407565b6000828152600c602090815260408083206001600160a01b038516845290915290205460ff16620001c6576000828152600c602090815260408083206001600160a01b03851684529091529020805460ff19166001179055620001853390565b6001600160a01b0316816001600160a01b0316837f2f8788117e7eff1d82e926ec794901d17c78024a50270940304540a733656f0d60405160405180910390a45b5050565b828054620001d890620003ca565b90600052602060002090601f016020900481019282620001fc576000855562000247565b82601f106200021757805160ff191683800117855562000247565b8280016001018555821562000247579182015b82811115620002475782518255916020019190600101906200022a565b506200025592915062000259565b5090565b5b808211156200025557600081556001016200025a565b634e487b7160e01b600052604160045260246000fd5b600082601f8301126200029857600080fd5b81516001600160401b0380821115620002b557620002b562000270565b604051601f8301601f19908116603f01168101908282118183101715620002e057620002e062000270565b81604052838152602092508683858801011115620002fd57600080fd5b600091505b8382101562000321578582018301518183018401529082019062000302565b83821115620003335760008385830101525b9695505050505050565b6000806000606084860312156200035357600080fd5b83516001600160401b03808211156200036b57600080fd5b620003798783880162000286565b945060208601519150808211156200039057600080fd5b506200039f8682870162000286565b604086015190935090506001600160a01b0381168114620003bf57600080fd5b809150509250925092565b600181811c90821680620003df57607f821691505b602082108114156200040157634e487b7160e01b600052602260045260246000fd5b50919050565b613a2180620004176000396000f3fe608060405234801561001057600080fd5b50600436106101c25760003560e01c806301ffc9a7146101c757806306e54ceb146101ef57806306fdde0314610210578063081812fc14610225578063095ea7b31461024557806318160ddd1461025a5780631827b9551461026c57806323b872dd14610281578063248a9ca314610294578063289f6e33146102a75780632f2ff15d146102ba5780632f745c59146102cd57806336568abe146102e05780633f4ba83a146102f357806342842e0e146102fb57806342966c681461030e5780634f6ccce71461032157806358c64602146103345780635c975abb146103475780636352211e1461035257806370a082311461036557806374f53317146103785780638456cb591461038d57806391d148541461039557806395d89b41146103a85780639a6ee03b146103b05780639cac21b4146103c35780639d58729e146103d6578063a217fddf146103e9578063a22cb465146103f1578063b7ff648714610404578063b88d4fde14610417578063c87b56dd1461042a578063d547741f1461043d578063e63ab1e914610450578063e985e9c514610465578063fab4fcc514610478578063fd4d49681461048d575b600080fd5b6101da6101d5366004612ffe565b6104a0565b60405190151581526020015b60405180910390f35b6102026101fd36600461301b565b6104b1565b6040516101e69291906130f7565b6102186109ab565b6040516101e6919061311c565b61023861023336600461301b565b610a3d565b6040516101e6919061312f565b610258610253366004613168565b610a64565b005b6008545b6040519081526020016101e6565b61025e60008051602061394c83398151915281565b61025861028f366004613194565b610b7f565b61025e6102a236600461301b565b610bb1565b6102586102b53660046131d5565b610bc6565b6102586102c83660046131f2565b610c01565b61025e6102db366004613168565b610c1d565b6102586102ee3660046131f2565b610cb3565b610258610d31565b610258610309366004613194565b610d54565b61025861031c36600461301b565b610d6f565b61025e61032f36600461301b565b610d9d565b6101da6103423660046131d5565b610e30565b600b5460ff166101da565b61023861036036600461301b565b610e4a565b61025e6103733660046131d5565b610e7e565b61025e60008051602061398c83398151915281565b610258610f04565b6101da6103a33660046131f2565b610f24565b610218610f4f565b6102186103be36600461301b565b610f5e565b6102026103d136600461301b565b611000565b6102586103e43660046133ad565b61155d565b61025e600081565b6102586103ff366004613427565b61166d565b6102586104123660046133ad565b611678565b610258610425366004613455565b6117e1565b61021861043836600461301b565b611819565b61025861044b3660046131f2565b611824565b61025e6000805160206139ac83398151915281565b6101da6104733660046134d4565b611840565b61025e60008051602061396c83398151915281565b61025e61049b366004613502565b61186e565b60006104ab82611ba7565b92915050565b6104b9612ef1565b6104c1612ef1565b60008051602061394c8339815191526104d981611bcc565b600084815260126020908152604080832060139092529182902082516080810190935281549192909183908290829061051190613608565b80601f016020809104026020016040519081016040528092919081815260200182805461053d90613608565b801561058a5780601f1061055f5761010080835404028352916020019161058a565b820191906000526020600020905b81548152906001019060200180831161056d57829003601f168201915b505050505081526020016001820180546105a390613608565b80601f01602080910402602001604051908101604052809291908181526020018280546105cf90613608565b801561061c5780601f106105f15761010080835404028352916020019161061c565b820191906000526020600020905b8154815290600101906020018083116105ff57829003601f168201915b5050505050815260200160028201805461063590613608565b80601f016020809104026020016040519081016040528092919081815260200182805461066190613608565b80156106ae5780601f10610683576101008083540402835291602001916106ae565b820191906000526020600020905b81548152906001019060200180831161069157829003601f168201915b505050505081526020016003820180546106c790613608565b80601f01602080910402602001604051908101604052809291908181526020018280546106f390613608565b80156107405780601f1061071557610100808354040283529160200191610740565b820191906000526020600020905b81548152906001019060200180831161072357829003601f168201915b50505050508152505091508060405180608001604052908160008201805461076790613608565b80601f016020809104026020016040519081016040528092919081815260200182805461079390613608565b80156107e05780601f106107b5576101008083540402835291602001916107e0565b820191906000526020600020905b8154815290600101906020018083116107c357829003601f168201915b505050505081526020016001820180546107f990613608565b80601f016020809104026020016040519081016040528092919081815260200182805461082590613608565b80156108725780601f1061084757610100808354040283529160200191610872565b820191906000526020600020905b81548152906001019060200180831161085557829003601f168201915b5050505050815260200160028201805461088b90613608565b80601f01602080910402602001604051908101604052809291908181526020018280546108b790613608565b80156109045780601f106108d957610100808354040283529160200191610904565b820191906000526020600020905b8154815290600101906020018083116108e757829003601f168201915b5050505050815260200160038201805461091d90613608565b80601f016020809104026020016040519081016040528092919081815260200182805461094990613608565b80156109965780601f1061096b57610100808354040283529160200191610996565b820191906000526020600020905b81548152906001019060200180831161097957829003601f168201915b50505050508152505090509250925050915091565b6060600080546109ba90613608565b80601f01602080910402602001604051908101604052809291908181526020018280546109e690613608565b8015610a335780601f10610a0857610100808354040283529160200191610a33565b820191906000526020600020905b815481529060010190602001808311610a1657829003601f168201915b5050505050905090565b6000610a4882611bd6565b506000908152600460205260409020546001600160a01b031690565b6000610a6f82610e4a565b9050806001600160a01b0316836001600160a01b03161415610ae25760405162461bcd60e51b815260206004820152602160248201527f4552433732313a20617070726f76616c20746f2063757272656e74206f776e656044820152603960f91b60648201526084015b60405180910390fd5b336001600160a01b0382161480610afe5750610afe8133611840565b610b705760405162461bcd60e51b815260206004820152603d60248201527f4552433732313a20617070726f76652063616c6c6572206973206e6f7420746f60448201527f6b656e206f776e6572206f7220617070726f76656420666f7220616c6c0000006064820152608401610ad9565b610b7a8383611bfb565b505050565b610b8a335b82611c69565b610ba65760405162461bcd60e51b8152600401610ad990613643565b610b7a838383611cc8565b6000908152600c602052604090206001015490565b60008051602061396c833981519152610bde81611bcc565b50600e80546001600160a01b0319166001600160a01b0392909216919091179055565b610c0a82610bb1565b610c1381611bcc565b610b7a8383611e2f565b6000610c2883610e7e565b8210610c8a5760405162461bcd60e51b815260206004820152602b60248201527f455243373231456e756d657261626c653a206f776e657220696e646578206f7560448201526a74206f6620626f756e647360a81b6064820152608401610ad9565b506001600160a01b03919091166000908152600660209081526040808320938352929052205490565b6001600160a01b0381163314610d235760405162461bcd60e51b815260206004820152602f60248201527f416363657373436f6e74726f6c3a2063616e206f6e6c792072656e6f756e636560448201526e103937b632b9903337b91039b2b63360891b6064820152608401610ad9565b610d2d8282611eb5565b5050565b6000805160206139ac833981519152610d4981611bcc565b610d51611f1c565b50565b610b7a838383604051806020016040528060008152506117e1565b610d7833610b84565b610d945760405162461bcd60e51b8152600401610ad990613643565b610d5181611f68565b6000610da860085490565b8210610e0b5760405162461bcd60e51b815260206004820152602c60248201527f455243373231456e756d657261626c653a20676c6f62616c20696e646578206f60448201526b7574206f6620626f756e647360a01b6064820152608401610ad9565b60088281548110610e1e57610e1e613690565b90600052602060002001549050919050565b60006104ab60008051602061398c83398151915283610f24565b600080610e5683611ff9565b90506001600160a01b0381166104ab5760405162461bcd60e51b8152600401610ad9906136a6565b60006001600160a01b038216610ee85760405162461bcd60e51b815260206004820152602960248201527f4552433732313a2061646472657373207a65726f206973206e6f7420612076616044820152683634b21037bbb732b960b91b6064820152608401610ad9565b506001600160a01b031660009081526003602052604090205490565b6000805160206139ac833981519152610f1c81611bcc565b610d51612014565b6000918252600c602090815260408084206001600160a01b0393909316845291905290205460ff1690565b6060600180546109ba90613608565b6000818152600f60205260409020805460609190610f7b90613608565b80601f0160208091040260200160405190810160405280929190818152602001828054610fa790613608565b8015610ff45780601f10610fc957610100808354040283529160200191610ff4565b820191906000526020600020905b815481529060010190602001808311610fd757829003601f168201915b50505050509050919050565b611008612ef1565b611010612ef1565b61101b335b84611c69565b61108c5760405162461bcd60e51b815260206004820152603c60248201527f4552433732313a20676574546f6b656e4f776e657250726f6d70742063616c6c60448201527b195c881a5cc81b9bdd081bdddb995c881b9bdc88185c1c1c9bdd995960221b6064820152608401610ad9565b60008381526010602090815260408083206011909252918290208251608081019093528154919290918390829082906110c490613608565b80601f01602080910402602001604051908101604052809291908181526020018280546110f090613608565b801561113d5780601f106111125761010080835404028352916020019161113d565b820191906000526020600020905b81548152906001019060200180831161112057829003601f168201915b5050505050815260200160018201805461115690613608565b80601f016020809104026020016040519081016040528092919081815260200182805461118290613608565b80156111cf5780601f106111a4576101008083540402835291602001916111cf565b820191906000526020600020905b8154815290600101906020018083116111b257829003601f168201915b505050505081526020016002820180546111e890613608565b80601f016020809104026020016040519081016040528092919081815260200182805461121490613608565b80156112615780601f1061123657610100808354040283529160200191611261565b820191906000526020600020905b81548152906001019060200180831161124457829003601f168201915b5050505050815260200160038201805461127a90613608565b80601f01602080910402602001604051908101604052809291908181526020018280546112a690613608565b80156112f35780601f106112c8576101008083540402835291602001916112f3565b820191906000526020600020905b8154815290600101906020018083116112d657829003601f168201915b50505050508152505091508060405180608001604052908160008201805461131a90613608565b80601f016020809104026020016040519081016040528092919081815260200182805461134690613608565b80156113935780601f1061136857610100808354040283529160200191611393565b820191906000526020600020905b81548152906001019060200180831161137657829003601f168201915b505050505081526020016001820180546113ac90613608565b80601f01602080910402602001604051908101604052809291908181526020018280546113d890613608565b80156114255780601f106113fa57610100808354040283529160200191611425565b820191906000526020600020905b81548152906001019060200180831161140857829003601f168201915b5050505050815260200160028201805461143e90613608565b80601f016020809104026020016040519081016040528092919081815260200182805461146a90613608565b80156114b75780601f1061148c576101008083540402835291602001916114b7565b820191906000526020600020905b81548152906001019060200180831161149a57829003601f168201915b505050505081526020016003820180546114d090613608565b80601f01602080910402602001604051908101604052809291908181526020018280546114fc90613608565b80156115495780601f1061151e57610100808354040283529160200191611549565b820191906000526020600020905b81548152906001019060200180831161152c57829003601f168201915b505050505081525050905091509150915091565b60008051602061394c83398151915261157581611bcc565b600084815260126020908152604090912084518051869361159a928492910190612f19565b5060208281015180516115b39260018501920190612f19565b50604082015180516115cf916002840191602090910190612f19565b50606082015180516115eb916003840191602090910190612f19565b5050506000848152601360209081526040909120835180518593611613928492910190612f19565b50602082810151805161162c9260018501920190612f19565b5060408201518051611648916002840191602090910190612f19565b5060608201518051611664916003840191602090910190612f19565b50505050505050565b610d2d338383612051565b61168133611015565b6116ea5760405162461bcd60e51b815260206004820152603460248201527f4552433732313a20636c61696d50726f6d70742063616c6c6572206973206e6f6044820152731d081bdddb995c881b9bdc88185c1c1c9bdd995960621b6064820152608401610ad9565b600083815260106020908152604090912083518051859361170f928492910190612f19565b5060208281015180516117289260018501920190612f19565b5060408201518051611744916002840191602090910190612f19565b5060608201518051611760916003840191602090910190612f19565b5050506000838152601160209081526040909120825180518493611788928492910190612f19565b5060208281015180516117a19260018501920190612f19565b50604082015180516117bd916002840191602090910190612f19565b50606082015180516117d9916003840191602090910190612f19565b505050505050565b6117eb3383611c69565b6118075760405162461bcd60e51b8152600401610ad990613643565b6118138484848461211c565b50505050565b60606104ab8261214f565b61182d82610bb1565b61183681611bcc565b610b7a8383611eb5565b6001600160a01b03918216600090815260056020908152604080832093909416825291909152205460ff1690565b600061187e600d80546001019055565b6000611889600d5490565b90506118958982612258565b61189f8189612272565b6000818152600f6020908152604090912088516118be928a0190612f19565b5060008181526010602090815260409091208751805189936118e4928492910190612f19565b5060208281015180516118fd9260018501920190612f19565b5060408201518051611919916002840191602090910190612f19565b5060608201518051611935916003840191602090910190612f19565b505050600081815260116020908152604090912086518051889361195d928492910190612f19565b5060208281015180516119769260018501920190612f19565b5060408201518051611992916002840191602090910190612f19565b50606082015180516119ae916003840191602090910190612f19565b50505060008181526012602090815260409091208551805187936119d6928492910190612f19565b5060208281015180516119ef9260018501920190612f19565b5060408201518051611a0b916002840191602090910190612f19565b5060608201518051611a27916003840191602090910190612f19565b5050506000818152601360209081526040909120845180518693611a4f928492910190612f19565b506020828101518051611a689260018501920190612f19565b5060408201518051611a84916002840191602090910190612f19565b5060608201518051611aa0916003840191602090910190612f19565b5050600e546040516317a6b60960e01b815230600482015260248101849052600092506001600160a01b03909116906317a6b60990604401602060405180830381600087803b158015611af257600080fd5b505af1158015611b06573d6000803e3d6000fd5b505050506040513d601f19601f82011682018060405250810190611b2a91906136d8565b905080611b9a5760405162461bcd60e51b815260206004820152603860248201527f43616c6c2072656769737465724e46542066756e6374696f6e206f662072656e6044820152773a26b0b935b2ba1031b7b73a3930b1ba103330b4b632b21760411b6064820152608401610ad9565b5098975050505050505050565b60006001600160e01b03198216637965db0b60e01b14806104ab57506104ab826122fd565b610d518133612322565b611bdf8161237b565b610d515760405162461bcd60e51b8152600401610ad9906136a6565b600081815260046020526040902080546001600160a01b0319166001600160a01b0384169081179091558190611c3082610e4a565b6001600160a01b03167f8c5be1e5ebec7d5bd14f71427d1e84f3dd0314c0f7b2291e5b200ac8c7c3b92560405160405180910390a45050565b600080611c7583610e4a565b9050806001600160a01b0316846001600160a01b03161480611c9c5750611c9c8185611840565b80611cc05750836001600160a01b0316611cb584610a3d565b6001600160a01b0316145b949350505050565b826001600160a01b0316611cdb82610e4a565b6001600160a01b031614611d015760405162461bcd60e51b8152600401610ad9906136f5565b6001600160a01b038216611d635760405162461bcd60e51b8152602060048201526024808201527f4552433732313a207472616e7366657220746f20746865207a65726f206164646044820152637265737360e01b6064820152608401610ad9565b611d708383836001612398565b826001600160a01b0316611d8382610e4a565b6001600160a01b031614611da95760405162461bcd60e51b8152600401610ad9906136f5565b600081815260046020908152604080832080546001600160a01b03199081169091556001600160a01b0387811680865260038552838620805460001901905590871680865283862080546001019055868652600290945282852080549092168417909155905184936000805160206139cc83398151915291a4610b7a83838360016123ac565b611e398282610f24565b610d2d576000828152600c602090815260408083206001600160a01b03851684529091529020805460ff19166001179055611e713390565b6001600160a01b0316816001600160a01b0316837f2f8788117e7eff1d82e926ec794901d17c78024a50270940304540a733656f0d60405160405180910390a45050565b611ebf8282610f24565b15610d2d576000828152600c602090815260408083206001600160a01b0385168085529252808320805460ff1916905551339285917ff6391f5c32d9c69d2a47ea670b442974b53935d1edc7fd64eb21e047a839171b9190a45050565b611f246123f7565b600b805460ff191690557f5db9ee0a495bf2e6ff9c91a7834c1ba4fdd244a5e8aa4e537bd38aeae4b073aa335b604051611f5e919061312f565b60405180910390a1565b611f7181612442565b600081815260106020526040812090611f8a8282612f9d565b611f98600183016000612f9d565b611fa6600283016000612f9d565b611fb4600383016000612f9d565b5050600081815260126020526040812090611fcf8282612f9d565b611fdd600183016000612f9d565b611feb600283016000612f9d565b610b7a600383016000612f9d565b6000908152600260205260409020546001600160a01b031690565b61201c612482565b600b805460ff191660011790557f62e78cea01bee320cd4e420270b5ea74000d11b0c9f74754ebdbfc544b05a258611f513390565b816001600160a01b0316836001600160a01b031614156120af5760405162461bcd60e51b815260206004820152601960248201527822a9219b99189d1030b8383937bb32903a379031b0b63632b960391b6044820152606401610ad9565b6001600160a01b03838116600081815260056020908152604080832094871680845294825291829020805460ff191686151590811790915591519182527f17307eab39ab6107e8899845ad3d59bd9653f200f220920489ca2b5937696c31910160405180910390a3505050565b612127848484611cc8565b612133848484846124c8565b6118135760405162461bcd60e51b8152600401610ad99061373a565b606061215a82611bd6565b6000828152600a60205260408120805461217390613608565b80601f016020809104026020016040519081016040528092919081815260200182805461219f90613608565b80156121ec5780601f106121c1576101008083540402835291602001916121ec565b820191906000526020600020905b8154815290600101906020018083116121cf57829003601f168201915b50505050509050600061220a60408051602081019091526000815290565b905080516000141561221d575092915050565b81511561224f57808260405160200161223792919061378c565b60405160208183030381529060405292505050919050565b611cc0846125d5565b610d2d828260405180602001604052806000815250612649565b61227b8261237b565b6122de5760405162461bcd60e51b815260206004820152602e60248201527f45524337323155524953746f726167653a2055524920736574206f66206e6f6e60448201526d32bc34b9ba32b73a103a37b5b2b760911b6064820152608401610ad9565b6000828152600a602090815260409091208251610b7a92840190612f19565b60006001600160e01b0319821663780e9d6360e01b14806104ab57506104ab8261267c565b61232c8282610f24565b610d2d57612339816126cc565b6123448360206126de565b6040516020016123559291906137bb565b60408051601f198184030181529082905262461bcd60e51b8252610ad99160040161311c565b60008061238783611ff9565b6001600160a01b0316141592915050565b6123a0612482565b61181384848484612879565b6123b4612482565b6000828152601060205260408120906123cd8282612f9d565b6123db600183016000612f9d565b6123e9600283016000612f9d565b6117d9600383016000612f9d565b600b5460ff166124405760405162461bcd60e51b815260206004820152601460248201527314185d5cd8589b194e881b9bdd081c185d5cd95960621b6044820152606401610ad9565b565b61244b816129b9565b6000818152600a60205260409020805461246490613608565b159050610d51576000818152600a60205260408120610d5191612f9d565b600b5460ff16156124405760405162461bcd60e51b815260206004820152601060248201526f14185d5cd8589b194e881c185d5cd95960821b6044820152606401610ad9565b60006001600160a01b0384163b156125ca57604051630a85bd0160e11b81526001600160a01b0385169063150b7a029061250c90339089908890889060040161382a565b602060405180830381600087803b15801561252657600080fd5b505af1925050508015612556575060408051601f3d908101601f1916820190925261255391810190613867565b60015b6125b0573d808015612584576040519150601f19603f3d011682016040523d82523d6000602084013e612589565b606091505b5080516125a85760405162461bcd60e51b8152600401610ad99061373a565b805181602001fd5b6001600160e01b031916630a85bd0160e11b149050611cc0565b506001949350505050565b60606125e082611bd6565b60006125f760408051602081019091526000815290565b905060008151116126175760405180602001604052806000815250612642565b8061262184612a54565b60405160200161263292919061378c565b6040516020818303038152906040525b9392505050565b6126538383612af0565b61266060008484846124c8565b610b7a5760405162461bcd60e51b8152600401610ad99061373a565b60006001600160e01b031982166380ac58cd60e01b14806126ad57506001600160e01b03198216635b5e139f60e01b145b806104ab57506301ffc9a760e01b6001600160e01b03198316146104ab565b60606104ab6001600160a01b03831660145b606060006126ed83600261389a565b6126f89060026138b9565b6001600160401b0381111561270f5761270f613222565b6040519080825280601f01601f191660200182016040528015612739576020820181803683370190505b509050600360fc1b8160008151811061275457612754613690565b60200101906001600160f81b031916908160001a905350600f60fb1b8160018151811061278357612783613690565b60200101906001600160f81b031916908160001a90535060006127a784600261389a565b6127b29060016138b9565b90505b600181111561282a576f181899199a1a9b1b9c1cb0b131b232b360811b85600f16601081106127e6576127e6613690565b1a60f81b8282815181106127fc576127fc613690565b60200101906001600160f81b031916908160001a90535060049490941c93612823816138d1565b90506127b5565b5083156126425760405162461bcd60e51b815260206004820181905260248201527f537472696e67733a20686578206c656e67746820696e73756666696369656e746044820152606401610ad9565b61288584848484612c03565b60018111156128f45760405162461bcd60e51b815260206004820152603560248201527f455243373231456e756d657261626c653a20636f6e7365637574697665207472604482015274185b9cd9995c9cc81b9bdd081cdd5c1c1bdc9d1959605a1b6064820152608401610ad9565b816001600160a01b0385166129505761294b81600880546000838152600960205260408120829055600182018355919091527ff3f7a9fe364faab93b216da50a3214154f22a0a2b415b23a84c8169e8b636ee30155565b612973565b836001600160a01b0316856001600160a01b031614612973576129738582612c8b565b6001600160a01b03841661298f5761298a81612d28565b6129b2565b846001600160a01b0316846001600160a01b0316146129b2576129b28482612dd7565b5050505050565b60006129c482610e4a565b90506129d4816000846001612398565b6129dd82610e4a565b600083815260046020908152604080832080546001600160a01b03199081169091556001600160a01b0385168085526003845282852080546000190190558785526002909352818420805490911690555192935084926000805160206139cc833981519152908390a4610d2d8160008460016123ac565b60606000612a6183612e1b565b60010190506000816001600160401b03811115612a8057612a80613222565b6040519080825280601f01601f191660200182016040528015612aaa576020820181803683370190505b5090508181016020015b600019016f181899199a1a9b1b9c1cb0b131b232b360811b600a86061a8153600a8504945084612ae357612ae8565b612ab4565b509392505050565b6001600160a01b038216612b465760405162461bcd60e51b815260206004820181905260248201527f4552433732313a206d696e7420746f20746865207a65726f20616464726573736044820152606401610ad9565b612b4f8161237b565b15612b6c5760405162461bcd60e51b8152600401610ad9906138e8565b612b7a600083836001612398565b612b838161237b565b15612ba05760405162461bcd60e51b8152600401610ad9906138e8565b6001600160a01b038216600081815260036020908152604080832080546001019055848352600290915280822080546001600160a01b0319168417905551839291906000805160206139cc833981519152908290a4610d2d6000838360016123ac565b6001811115611813576001600160a01b03841615612c49576001600160a01b03841660009081526003602052604081208054839290612c4390849061391e565b90915550505b6001600160a01b03831615611813576001600160a01b03831660009081526003602052604081208054839290612c809084906138b9565b909155505050505050565b60006001612c9884610e7e565b612ca2919061391e565b600083815260076020526040902054909150808214612cf5576001600160a01b03841660009081526006602090815260408083208584528252808320548484528184208190558352600790915290208190555b5060009182526007602090815260408084208490556001600160a01b039094168352600681528383209183525290812055565b600854600090612d3a9060019061391e565b60008381526009602052604081205460088054939450909284908110612d6257612d62613690565b906000526020600020015490508060088381548110612d8357612d83613690565b6000918252602080832090910192909255828152600990915260408082208490558582528120556008805480612dbb57612dbb613935565b6001900381819060005260206000200160009055905550505050565b6000612de283610e7e565b6001600160a01b039093166000908152600660209081526040808320868452825280832085905593825260079052919091209190915550565b60008072184f03e93ff9f4daa797ed6e38ed64bf6a1f0160401b8310612e5a5772184f03e93ff9f4daa797ed6e38ed64bf6a1f0160401b830492506040015b6904ee2d6d415b85acef8160201b8310612e84576904ee2d6d415b85acef8160201b830492506020015b662386f26fc100008310612ea257662386f26fc10000830492506010015b6305f5e1008310612eba576305f5e100830492506008015b6127108310612ece57612710830492506004015b60648310612ee0576064830492506002015b600a83106104ab5760010192915050565b6040518060800160405280606081526020016060815260200160608152602001606081525090565b828054612f2590613608565b90600052602060002090601f016020900481019282612f475760008555612f8d565b82601f10612f6057805160ff1916838001178555612f8d565b82800160010185558215612f8d579182015b82811115612f8d578251825591602001919060010190612f72565b50612f99929150612fd3565b5090565b508054612fa990613608565b6000825580601f10612fb9575050565b601f016020900490600052602060002090810190610d5191905b5b80821115612f995760008155600101612fd4565b6001600160e01b031981168114610d5157600080fd5b60006020828403121561301057600080fd5b813561264281612fe8565b60006020828403121561302d57600080fd5b5035919050565b60005b8381101561304f578181015183820152602001613037565b838111156118135750506000910152565b60008151808452613078816020860160208601613034565b601f01601f19169290920160200192915050565b60008151608084526130a16080850182613060565b9050602083015184820360208601526130ba8282613060565b915050604083015184820360408601526130d48282613060565b915050606083015184820360608601526130ee8282613060565b95945050505050565b60408152600061310a604083018561308c565b82810360208401526130ee818561308c565b6020815260006126426020830184613060565b6001600160a01b0391909116815260200190565b6001600160a01b0381168114610d5157600080fd5b803561316381613143565b919050565b6000806040838503121561317b57600080fd5b823561318681613143565b946020939093013593505050565b6000806000606084860312156131a957600080fd5b83356131b481613143565b925060208401356131c481613143565b929592945050506040919091013590565b6000602082840312156131e757600080fd5b813561264281613143565b6000806040838503121561320557600080fd5b82359150602083013561321781613143565b809150509250929050565b634e487b7160e01b600052604160045260246000fd5b604051608081016001600160401b038111828210171561325a5761325a613222565b60405290565b60006001600160401b038084111561327a5761327a613222565b604051601f8501601f19908116603f011681019082821181831017156132a2576132a2613222565b816040528093508581528686860111156132bb57600080fd5b858560208301376000602087830101525050509392505050565b600082601f8301126132e657600080fd5b61264283833560208501613260565b60006080828403121561330757600080fd5b61330f613238565b905081356001600160401b038082111561332857600080fd5b613334858386016132d5565b8352602084013591508082111561334a57600080fd5b613356858386016132d5565b6020840152604084013591508082111561336f57600080fd5b61337b858386016132d5565b6040840152606084013591508082111561339457600080fd5b506133a1848285016132d5565b60608301525092915050565b6000806000606084860312156133c257600080fd5b8335925060208401356001600160401b03808211156133e057600080fd5b6133ec878388016132f5565b9350604086013591508082111561340257600080fd5b5061340f868287016132f5565b9150509250925092565b8015158114610d5157600080fd5b6000806040838503121561343a57600080fd5b823561344581613143565b9150602083013561321781613419565b6000806000806080858703121561346b57600080fd5b843561347681613143565b9350602085013561348681613143565b92506040850135915060608501356001600160401b038111156134a857600080fd5b8501601f810187136134b957600080fd5b6134c887823560208401613260565b91505092959194509250565b600080604083850312156134e757600080fd5b82356134f281613143565b9150602083013561321781613143565b600080600080600080600060e0888a03121561351d57600080fd5b61352688613158565b965060208801356001600160401b038082111561354257600080fd5b61354e8b838c016132d5565b975060408a013591508082111561356457600080fd5b6135708b838c016132d5565b965060608a013591508082111561358657600080fd5b6135928b838c016132f5565b955060808a01359150808211156135a857600080fd5b6135b48b838c016132f5565b945060a08a01359150808211156135ca57600080fd5b6135d68b838c016132f5565b935060c08a01359150808211156135ec57600080fd5b506135f98a828b016132f5565b91505092959891949750929550565b600181811c9082168061361c57607f821691505b6020821081141561363d57634e487b7160e01b600052602260045260246000fd5b50919050565b6020808252602d908201527f4552433732313a2063616c6c6572206973206e6f7420746f6b656e206f776e6560408201526c1c881bdc88185c1c1c9bdd9959609a1b606082015260800190565b634e487b7160e01b600052603260045260246000fd5b602080825260189082015277115490cdcc8c4e881a5b9d985b1a59081d1bdad95b88125160421b604082015260600190565b6000602082840312156136ea57600080fd5b815161264281613419565b60208082526025908201527f4552433732313a207472616e736665722066726f6d20696e636f72726563742060408201526437bbb732b960d91b606082015260800190565b60208082526032908201527f4552433732313a207472616e7366657220746f206e6f6e20455243373231526560408201527131b2b4bb32b91034b6b83632b6b2b73a32b960711b606082015260800190565b6000835161379e818460208801613034565b8351908301906137b2818360208801613034565b01949350505050565b76020b1b1b2b9b9a1b7b73a3937b61d1030b1b1b7bab73a1604d1b8152600083516137ed816017850160208801613034565b7001034b99036b4b9b9b4b733903937b6329607d1b601791840191820152835161381e816028840160208801613034565b01602801949350505050565b6001600160a01b038581168252841660208201526040810183905260806060820181905260009061385d90830184613060565b9695505050505050565b60006020828403121561387957600080fd5b815161264281612fe8565b634e487b7160e01b600052601160045260246000fd5b60008160001904831182151516156138b4576138b4613884565b500290565b600082198211156138cc576138cc613884565b500190565b6000816138e0576138e0613884565b506000190190565b6020808252601c908201527b115490cdcc8c4e881d1bdad95b88185b1c9958591e481b5a5b9d195960221b604082015260600190565b60008282101561393057613930613884565b500390565b634e487b7160e01b600052603160045260246000fdfed0643f51bd184a6a394cdade44604c05442b11e696dabba32ec676f5e962b8356310cf9c937bcad92df0897b8ab11d37ff788bec126c5807fb57fb0423e3f40dd1f21ec03a6eb050fba156f5316dad461735df521fb446dd42c5a4728e9c70fe65d7a28e3265b37a6474929f336521b332c1681b933f6cb9f3376673440d862addf252ad1be2c89b69c2b068fc378daa952ba7f163c4a11628f55a4df523b3efa2646970667358221220f385cf28edd1819b04c0c0319ecaa3e42a9f9760a43dd767a911ac08f2281d7064736f6c63430008090033",
  "linkReferences": {},
  "deployedLinkReferences": {}
}