{
  "_format": "hh-sol-artifact-1",
  "contractName": "promptNFT",
  "sourceName": "contracts/promptNFT.sol",
  "abi": [
    {
      "inputs": [
        {
          "internalType": "string",
          "name": "name_",
          "type": "string"
        },
        {
          "internalType": "string",
          "name": "symbol_",
          "type": "string"
        },
        {
          "internalType": "address payable",
          "name": "rentMarketContractAddress_",
          "type": "address"
        }
      ],
      "stateMutability": "nonpayable",
      "type": "constructor"
    },
    {
      "anonymous": false,
      "inputs": [
        {
          "indexed": true,
          "internalType": "address",
          "name": "owner",
          "type": "address"
        },
        {
          "indexed": true,
          "internalType": "address",
          "name": "approved",
          "type": "address"
        },
        {
          "indexed": true,
          "internalType": "uint256",
          "name": "tokenId",
          "type": "uint256"
        }
      ],
      "name": "Approval",
      "type": "event"
    },
    {
      "anonymous": false,
      "inputs": [
        {
          "indexed": true,
          "internalType": "address",
          "name": "owner",
          "type": "address"
        },
        {
          "indexed": true,
          "internalType": "address",
          "name": "operator",
          "type": "address"
        },
        {
          "indexed": false,
          "internalType": "bool",
          "name": "approved",
          "type": "bool"
        }
      ],
      "name": "ApprovalForAll",
      "type": "event"
    },
    {
      "anonymous": false,
      "inputs": [
        {
          "indexed": false,
          "internalType": "address",
          "name": "account",
          "type": "address"
        }
      ],
      "name": "Paused",
      "type": "event"
    },
    {
      "anonymous": false,
      "inputs": [
        {
          "indexed": true,
          "internalType": "bytes32",
          "name": "role",
          "type": "bytes32"
        },
        {
          "indexed": true,
          "internalType": "bytes32",
          "name": "previousAdminRole",
          "type": "bytes32"
        },
        {
          "indexed": true,
          "internalType": "bytes32",
          "name": "newAdminRole",
          "type": "bytes32"
        }
      ],
      "name": "RoleAdminChanged",
      "type": "event"
    },
    {
      "anonymous": false,
      "inputs": [
        {
          "indexed": true,
          "internalType": "bytes32",
          "name": "role",
          "type": "bytes32"
        },
        {
          "indexed": true,
          "internalType": "address",
          "name": "account",
          "type": "address"
        },
        {
          "indexed": true,
          "internalType": "address",
          "name": "sender",
          "type": "address"
        }
      ],
      "name": "RoleGranted",
      "type": "event"
    },
    {
      "anonymous": false,
      "inputs": [
        {
          "indexed": true,
          "internalType": "bytes32",
          "name": "role",
          "type": "bytes32"
        },
        {
          "indexed": true,
          "internalType": "address",
          "name": "account",
          "type": "address"
        },
        {
          "indexed": true,
          "internalType": "address",
          "name": "sender",
          "type": "address"
        }
      ],
      "name": "RoleRevoked",
      "type": "event"
    },
    {
      "anonymous": false,
      "inputs": [
        {
          "indexed": true,
          "internalType": "address",
          "name": "from",
          "type": "address"
        },
        {
          "indexed": true,
          "internalType": "address",
          "name": "to",
          "type": "address"
        },
        {
          "indexed": true,
          "internalType": "uint256",
          "name": "tokenId",
          "type": "uint256"
        }
      ],
      "name": "Transfer",
      "type": "event"
    },
    {
      "anonymous": false,
      "inputs": [
        {
          "indexed": false,
          "internalType": "address",
          "name": "account",
          "type": "address"
        }
      ],
      "name": "Unpaused",
      "type": "event"
    },
    {
      "inputs": [],
      "name": "CHANGER_ROLE",
      "outputs": [
        {
          "internalType": "bytes32",
          "name": "",
          "type": "bytes32"
        }
      ],
      "stateMutability": "view",
      "type": "function"
    },
    {
      "inputs": [],
      "name": "DEFAULT_ADMIN_ROLE",
      "outputs": [
        {
          "internalType": "bytes32",
          "name": "",
          "type": "bytes32"
        }
      ],
      "stateMutability": "view",
      "type": "function"
    },
    {
      "inputs": [],
      "name": "PAUSER_ROLE",
      "outputs": [
        {
          "internalType": "bytes32",
          "name": "",
          "type": "bytes32"
        }
      ],
      "stateMutability": "view",
      "type": "function"
    },
    {
      "inputs": [],
      "name": "PROMPTER_ROLE",
      "outputs": [
        {
          "internalType": "bytes32",
          "name": "",
          "type": "bytes32"
        }
      ],
      "stateMutability": "view",
      "type": "function"
    },
    {
      "inputs": [
        {
          "internalType": "address",
          "name": "to",
          "type": "address"
        },
        {
          "internalType": "uint256",
          "name": "tokenId",
          "type": "uint256"
        }
      ],
      "name": "approve",
      "outputs": [],
      "stateMutability": "nonpayable",
      "type": "function"
    },
    {
      "inputs": [
        {
          "internalType": "address",
          "name": "owner",
          "type": "address"
        }
      ],
      "name": "balanceOf",
      "outputs": [
        {
          "internalType": "uint256",
          "name": "",
          "type": "uint256"
        }
      ],
      "stateMutability": "view",
      "type": "function"
    },
    {
      "inputs": [
        {
          "internalType": "uint256",
          "name": "tokenId",
          "type": "uint256"
        }
      ],
      "name": "burn",
      "outputs": [],
      "stateMutability": "nonpayable",
      "type": "function"
    },
    {
      "inputs": [
        {
          "internalType": "address payable",
          "name": "rentMarketContractAddress_",
          "type": "address"
        }
      ],
      "name": "changeRentMarketContract",
      "outputs": [],
      "stateMutability": "nonpayable",
      "type": "function"
    },
    {
      "inputs": [
        {
          "internalType": "uint256",
          "name": "tokenId",
          "type": "uint256"
        },
        {
          "components": [
            {
              "internalType": "string",
              "name": "version",
              "type": "string"
            },
            {
              "internalType": "string",
              "name": "ephemPublicKey",
              "type": "string"
            },
            {
              "internalType": "string",
              "name": "nonce",
              "type": "string"
            },
            {
              "internalType": "string",
              "name": "ciphertext",
              "type": "string"
            }
          ],
          "internalType": "struct promptNFT.encryptData",
          "name": "contractOwnerEncryptPromptData",
          "type": "tuple"
        },
        {
          "components": [
            {
              "internalType": "string",
              "name": "version",
              "type": "string"
            },
            {
              "internalType": "string",
              "name": "ephemPublicKey",
              "type": "string"
            },
            {
              "internalType": "string",
              "name": "nonce",
              "type": "string"
            },
            {
              "internalType": "string",
              "name": "ciphertext",
              "type": "string"
            }
          ],
          "internalType": "struct promptNFT.encryptData",
          "name": "contractOwnerEncryptNegativePromptData",
          "type": "tuple"
        }
      ],
      "name": "claimContractOwnerPrompt",
      "outputs": [],
      "stateMutability": "nonpayable",
      "type": "function"
    },
    {
      "inputs": [
        {
          "internalType": "uint256",
          "name": "tokenId",
          "type": "uint256"
        },
        {
          "components": [
            {
              "internalType": "string",
              "name": "version",
              "type": "string"
            },
            {
              "internalType": "string",
              "name": "ephemPublicKey",
              "type": "string"
            },
            {
              "internalType": "string",
              "name": "nonce",
              "type": "string"
            },
            {
              "internalType": "string",
              "name": "ciphertext",
              "type": "string"
            }
          ],
          "internalType": "struct promptNFT.encryptData",
          "name": "tokenOwnerEncryptPromptData",
          "type": "tuple"
        },
        {
          "components": [
            {
              "internalType": "string",
              "name": "version",
              "type": "string"
            },
            {
              "internalType": "string",
              "name": "ephemPublicKey",
              "type": "string"
            },
            {
              "internalType": "string",
              "name": "nonce",
              "type": "string"
            },
            {
              "internalType": "string",
              "name": "ciphertext",
              "type": "string"
            }
          ],
          "internalType": "struct promptNFT.encryptData",
          "name": "tokenOwnerEncryptNegativePromptData",
          "type": "tuple"
        }
      ],
      "name": "claimTokenOwnerPrompt",
      "outputs": [],
      "stateMutability": "nonpayable",
      "type": "function"
    },
    {
      "inputs": [
        {
          "internalType": "uint256",
          "name": "tokenId",
          "type": "uint256"
        }
      ],
      "name": "getApproved",
      "outputs": [
        {
          "internalType": "address",
          "name": "",
          "type": "address"
        }
      ],
      "stateMutability": "view",
      "type": "function"
    },
    {
      "inputs": [
        {
          "internalType": "uint256",
          "name": "tokenId",
          "type": "uint256"
        }
      ],
      "name": "getContractOwnerPrompt",
      "outputs": [
        {
          "components": [
            {
              "internalType": "string",
              "name": "version",
              "type": "string"
            },
            {
              "internalType": "string",
              "name": "ephemPublicKey",
              "type": "string"
            },
            {
              "internalType": "string",
              "name": "nonce",
              "type": "string"
            },
            {
              "internalType": "string",
              "name": "ciphertext",
              "type": "string"
            }
          ],
          "internalType": "struct promptNFT.encryptData",
          "name": "",
          "type": "tuple"
        },
        {
          "components": [
            {
              "internalType": "string",
              "name": "version",
              "type": "string"
            },
            {
              "internalType": "string",
              "name": "ephemPublicKey",
              "type": "string"
            },
            {
              "internalType": "string",
              "name": "nonce",
              "type": "string"
            },
            {
              "internalType": "string",
              "name": "ciphertext",
              "type": "string"
            }
          ],
          "internalType": "struct promptNFT.encryptData",
          "name": "",
          "type": "tuple"
        }
      ],
      "stateMutability": "view",
      "type": "function"
    },
    {
      "inputs": [
        {
          "internalType": "uint256",
          "name": "tokenId",
          "type": "uint256"
        }
      ],
      "name": "getModelName",
      "outputs": [
        {
          "internalType": "string",
          "name": "",
          "type": "string"
        }
      ],
      "stateMutability": "view",
      "type": "function"
    },
    {
      "inputs": [
        {
          "internalType": "bytes32",
          "name": "role",
          "type": "bytes32"
        }
      ],
      "name": "getRoleAdmin",
      "outputs": [
        {
          "internalType": "bytes32",
          "name": "",
          "type": "bytes32"
        }
      ],
      "stateMutability": "view",
      "type": "function"
    },
    {
      "inputs": [
        {
          "internalType": "uint256",
          "name": "tokenId",
          "type": "uint256"
        }
      ],
      "name": "getTokenOwnerPrompt",
      "outputs": [
        {
          "components": [
            {
              "internalType": "string",
              "name": "version",
              "type": "string"
            },
            {
              "internalType": "string",
              "name": "ephemPublicKey",
              "type": "string"
            },
            {
              "internalType": "string",
              "name": "nonce",
              "type": "string"
            },
            {
              "internalType": "string",
              "name": "ciphertext",
              "type": "string"
            }
          ],
          "internalType": "struct promptNFT.encryptData",
          "name": "",
          "type": "tuple"
        },
        {
          "components": [
            {
              "internalType": "string",
              "name": "version",
              "type": "string"
            },
            {
              "internalType": "string",
              "name": "ephemPublicKey",
              "type": "string"
            },
            {
              "internalType": "string",
              "name": "nonce",
              "type": "string"
            },
            {
              "internalType": "string",
              "name": "ciphertext",
              "type": "string"
            }
          ],
          "internalType": "struct promptNFT.encryptData",
          "name": "",
          "type": "tuple"
        }
      ],
      "stateMutability": "view",
      "type": "function"
    },
    {
      "inputs": [
        {
          "internalType": "bytes32",
          "name": "role",
          "type": "bytes32"
        },
        {
          "internalType": "address",
          "name": "account",
          "type": "address"
        }
      ],
      "name": "grantRole",
      "outputs": [],
      "stateMutability": "nonpayable",
      "type": "function"
    },
    {
      "inputs": [
        {
          "internalType": "bytes32",
          "name": "role",
          "type": "bytes32"
        },
        {
          "internalType": "address",
          "name": "account",
          "type": "address"
        }
      ],
      "name": "hasRole",
      "outputs": [
        {
          "internalType": "bool",
          "name": "",
          "type": "bool"
        }
      ],
      "stateMutability": "view",
      "type": "function"
    },
    {
      "inputs": [
        {
          "internalType": "address",
          "name": "owner",
          "type": "address"
        },
        {
          "internalType": "address",
          "name": "operator",
          "type": "address"
        }
      ],
      "name": "isApprovedForAll",
      "outputs": [
        {
          "internalType": "bool",
          "name": "",
          "type": "bool"
        }
      ],
      "stateMutability": "view",
      "type": "function"
    },
    {
      "inputs": [],
      "name": "name",
      "outputs": [
        {
          "internalType": "string",
          "name": "",
          "type": "string"
        }
      ],
      "stateMutability": "view",
      "type": "function"
    },
    {
      "inputs": [
        {
          "internalType": "uint256",
          "name": "tokenId",
          "type": "uint256"
        }
      ],
      "name": "ownerOf",
      "outputs": [
        {
          "internalType": "address",
          "name": "",
          "type": "address"
        }
      ],
      "stateMutability": "view",
      "type": "function"
    },
    {
      "inputs": [],
      "name": "pause",
      "outputs": [],
      "stateMutability": "nonpayable",
      "type": "function"
    },
    {
      "inputs": [],
      "name": "paused",
      "outputs": [
        {
          "internalType": "bool",
          "name": "",
          "type": "bool"
        }
      ],
      "stateMutability": "view",
      "type": "function"
    },
    {
      "inputs": [
        {
          "internalType": "bytes32",
          "name": "role",
          "type": "bytes32"
        },
        {
          "internalType": "address",
          "name": "account",
          "type": "address"
        }
      ],
      "name": "renounceRole",
      "outputs": [],
      "stateMutability": "nonpayable",
      "type": "function"
    },
    {
      "inputs": [
        {
          "internalType": "bytes32",
          "name": "role",
          "type": "bytes32"
        },
        {
          "internalType": "address",
          "name": "account",
          "type": "address"
        }
      ],
      "name": "revokeRole",
      "outputs": [],
      "stateMutability": "nonpayable",
      "type": "function"
    },
    {
      "inputs": [
        {
          "internalType": "address",
          "name": "to_",
          "type": "address"
        },
        {
          "internalType": "string",
          "name": "uri_",
          "type": "string"
        },
        {
          "internalType": "string",
          "name": "modelName_",
          "type": "string"
        },
        {
          "components": [
            {
              "internalType": "string",
              "name": "version",
              "type": "string"
            },
            {
              "internalType": "string",
              "name": "ephemPublicKey",
              "type": "string"
            },
            {
              "internalType": "string",
              "name": "nonce",
              "type": "string"
            },
            {
              "internalType": "string",
              "name": "ciphertext",
              "type": "string"
            }
          ],
          "internalType": "struct promptNFT.encryptData",
          "name": "tokenOwnerEncryptPromptData_",
          "type": "tuple"
        },
        {
          "components": [
            {
              "internalType": "string",
              "name": "version",
              "type": "string"
            },
            {
              "internalType": "string",
              "name": "ephemPublicKey",
              "type": "string"
            },
            {
              "internalType": "string",
              "name": "nonce",
              "type": "string"
            },
            {
              "internalType": "string",
              "name": "ciphertext",
              "type": "string"
            }
          ],
          "internalType": "struct promptNFT.encryptData",
          "name": "tokenOwnerEncryptNegativePromptData_",
          "type": "tuple"
        },
        {
          "components": [
            {
              "internalType": "string",
              "name": "version",
              "type": "string"
            },
            {
              "internalType": "string",
              "name": "ephemPublicKey",
              "type": "string"
            },
            {
              "internalType": "string",
              "name": "nonce",
              "type": "string"
            },
            {
              "internalType": "string",
              "name": "ciphertext",
              "type": "string"
            }
          ],
          "internalType": "struct promptNFT.encryptData",
          "name": "contractOwnerEncryptPromptData_",
          "type": "tuple"
        },
        {
          "components": [
            {
              "internalType": "string",
              "name": "version",
              "type": "string"
            },
            {
              "internalType": "string",
              "name": "ephemPublicKey",
              "type": "string"
            },
            {
              "internalType": "string",
              "name": "nonce",
              "type": "string"
            },
            {
              "internalType": "string",
              "name": "ciphertext",
              "type": "string"
            }
          ],
          "internalType": "struct promptNFT.encryptData",
          "name": "contractOwnerEncryptNegativePromptData_",
          "type": "tuple"
        }
      ],
      "name": "safeMint",
      "outputs": [
        {
          "internalType": "uint256",
          "name": "",
          "type": "uint256"
        }
      ],
      "stateMutability": "nonpayable",
      "type": "function"
    },
    {
      "inputs": [
        {
          "internalType": "address",
          "name": "from",
          "type": "address"
        },
        {
          "internalType": "address",
          "name": "to",
          "type": "address"
        },
        {
          "internalType": "uint256",
          "name": "tokenId",
          "type": "uint256"
        }
      ],
      "name": "safeTransferFrom",
      "outputs": [],
      "stateMutability": "nonpayable",
      "type": "function"
    },
    {
      "inputs": [
        {
          "internalType": "address",
          "name": "from",
          "type": "address"
        },
        {
          "internalType": "address",
          "name": "to",
          "type": "address"
        },
        {
          "internalType": "uint256",
          "name": "tokenId",
          "type": "uint256"
        },
        {
          "internalType": "bytes",
          "name": "data",
          "type": "bytes"
        }
      ],
      "name": "safeTransferFrom",
      "outputs": [],
      "stateMutability": "nonpayable",
      "type": "function"
    },
    {
      "inputs": [
        {
          "internalType": "address",
          "name": "operator",
          "type": "address"
        },
        {
          "internalType": "bool",
          "name": "approved",
          "type": "bool"
        }
      ],
      "name": "setApprovalForAll",
      "outputs": [],
      "stateMutability": "nonpayable",
      "type": "function"
    },
    {
      "inputs": [
        {
          "internalType": "bytes4",
          "name": "interfaceId",
          "type": "bytes4"
        }
      ],
      "name": "supportsInterface",
      "outputs": [
        {
          "internalType": "bool",
          "name": "",
          "type": "bool"
        }
      ],
      "stateMutability": "view",
      "type": "function"
    },
    {
      "inputs": [],
      "name": "symbol",
      "outputs": [
        {
          "internalType": "string",
          "name": "",
          "type": "string"
        }
      ],
      "stateMutability": "view",
      "type": "function"
    },
    {
      "inputs": [
        {
          "internalType": "uint256",
          "name": "index",
          "type": "uint256"
        }
      ],
      "name": "tokenByIndex",
      "outputs": [
        {
          "internalType": "uint256",
          "name": "",
          "type": "uint256"
        }
      ],
      "stateMutability": "view",
      "type": "function"
    },
    {
      "inputs": [
        {
          "internalType": "address",
          "name": "owner",
          "type": "address"
        },
        {
          "internalType": "uint256",
          "name": "index",
          "type": "uint256"
        }
      ],
      "name": "tokenOfOwnerByIndex",
      "outputs": [
        {
          "internalType": "uint256",
          "name": "",
          "type": "uint256"
        }
      ],
      "stateMutability": "view",
      "type": "function"
    },
    {
      "inputs": [
        {
          "internalType": "uint256",
          "name": "tokenId",
          "type": "uint256"
        }
      ],
      "name": "tokenURI",
      "outputs": [
        {
          "internalType": "string",
          "name": "",
          "type": "string"
        }
      ],
      "stateMutability": "view",
      "type": "function"
    },
    {
      "inputs": [],
      "name": "totalSupply",
      "outputs": [
        {
          "internalType": "uint256",
          "name": "",
          "type": "uint256"
        }
      ],
      "stateMutability": "view",
      "type": "function"
    },
    {
      "inputs": [
        {
          "internalType": "address",
          "name": "from",
          "type": "address"
        },
        {
          "internalType": "address",
          "name": "to",
          "type": "address"
        },
        {
          "internalType": "uint256",
          "name": "tokenId",
          "type": "uint256"
        }
      ],
      "name": "transferFrom",
      "outputs": [],
      "stateMutability": "nonpayable",
      "type": "function"
    },
    {
      "inputs": [],
      "name": "unpause",
      "outputs": [],
      "stateMutability": "nonpayable",
      "type": "function"
    }
  ],
  "bytecode": "0x60806040523480156200001157600080fd5b5060405162003d9438038062003d94833981016040819052620000349162000311565b8251839083906200004d9060009060208501906200019e565b508051620000639060019060208401906200019e565b5050600b805460ff1916905550600e80546001600160a01b0319166001600160a01b03831617905562000098600033620000f9565b620000c47f65d7a28e3265b37a6474929f336521b332c1681b933f6cb9f3376673440d862a33620000f9565b620000f07fd0643f51bd184a6a394cdade44604c05442b11e696dabba32ec676f5e962b83533620000f9565b505050620003db565b6000828152600c602090815260408083206001600160a01b038516845290915290205460ff166200019a576000828152600c602090815260408083206001600160a01b03851684529091529020805460ff19166001179055620001593390565b6001600160a01b0316816001600160a01b0316837f2f8788117e7eff1d82e926ec794901d17c78024a50270940304540a733656f0d60405160405180910390a45b5050565b828054620001ac906200039e565b90600052602060002090601f016020900481019282620001d057600085556200021b565b82601f10620001eb57805160ff19168380011785556200021b565b828001600101855582156200021b579182015b828111156200021b578251825591602001919060010190620001fe565b50620002299291506200022d565b5090565b5b808211156200022957600081556001016200022e565b634e487b7160e01b600052604160045260246000fd5b600082601f8301126200026c57600080fd5b81516001600160401b038082111562000289576200028962000244565b604051601f8301601f19908116603f01168101908282118183101715620002b457620002b462000244565b81604052838152602092508683858801011115620002d157600080fd5b600091505b83821015620002f55785820183015181830184015290820190620002d6565b83821115620003075760008385830101525b9695505050505050565b6000806000606084860312156200032757600080fd5b83516001600160401b03808211156200033f57600080fd5b6200034d878388016200025a565b945060208601519150808211156200036457600080fd5b5062000373868287016200025a565b604086015190935090506001600160a01b03811681146200039357600080fd5b809150509250925092565b600181811c90821680620003b357607f821691505b60208210811415620003d557634e487b7160e01b600052602260045260246000fd5b50919050565b6139a980620003eb6000396000f3fe608060405234801561001057600080fd5b50600436106101ac5760003560e01c806301ffc9a7146101b157806306e54ceb146101d957806306fdde03146101fa578063081812fc1461020f578063095ea7b31461022f57806318160ddd146102445780631827b9551461025657806323b872dd1461026b578063248a9ca31461027e578063289f6e33146102915780632f2ff15d146102a45780632f745c59146102b757806336568abe146102ca5780633f4ba83a146102dd57806342842e0e146102e557806342966c68146102f85780634f6ccce71461030b5780635c975abb1461031e5780636352211e1461032957806370a082311461033c5780638456cb591461034f57806391d148541461035757806395d89b411461036a5780639a6ee03b146103725780639cac21b4146103855780639d58729e14610398578063a217fddf146103ab578063a22cb465146103b3578063b7ff6487146103c6578063b88d4fde146103d9578063c87b56dd146103ec578063d547741f146103ff578063e63ab1e914610412578063e985e9c514610427578063fab4fcc51461043a578063fd4d49681461044f575b600080fd5b6101c46101bf366004612fa6565b610462565b60405190151581526020015b60405180910390f35b6101ec6101e7366004612fc3565b610473565b6040516101d092919061309f565b61020261096d565b6040516101d091906130c4565b61022261021d366004612fc3565b6109ff565b6040516101d091906130d7565b61024261023d366004613110565b610a26565b005b6008545b6040519081526020016101d0565b6102486000805160206138f483398151915281565b61024261027936600461313c565b610b41565b61024861028c366004612fc3565b610b73565b61024261029f36600461317d565b610b88565b6102426102b236600461319a565b610bc3565b6102486102c5366004613110565b610bdf565b6102426102d836600461319a565b610c75565b610242610cf3565b6102426102f336600461313c565b610d16565b610242610306366004612fc3565b610d31565b610248610319366004612fc3565b610d5f565b600b5460ff166101c4565b610222610337366004612fc3565b610df2565b61024861034a36600461317d565b610e26565b610242610eac565b6101c461036536600461319a565b610ecc565b610202610ef7565b610202610380366004612fc3565b610f06565b6101ec610393366004612fc3565b610fa8565b6102426103a6366004613355565b611505565b610248600081565b6102426103c13660046133cf565b611615565b6102426103d4366004613355565b611620565b6102426103e73660046133fd565b611789565b6102026103fa366004612fc3565b6117c1565b61024261040d36600461319a565b6117cc565b61024860008051602061393483398151915281565b6101c461043536600461347c565b6117e8565b61024860008051602061391483398151915281565b61024861045d3660046134aa565b611816565b600061046d82611b4f565b92915050565b61047b612e99565b610483612e99565b6000805160206138f483398151915261049b81611b74565b60008481526012602090815260408083206013909252918290208251608081019093528154919290918390829082906104d3906135b0565b80601f01602080910402602001604051908101604052809291908181526020018280546104ff906135b0565b801561054c5780601f106105215761010080835404028352916020019161054c565b820191906000526020600020905b81548152906001019060200180831161052f57829003601f168201915b50505050508152602001600182018054610565906135b0565b80601f0160208091040260200160405190810160405280929190818152602001828054610591906135b0565b80156105de5780601f106105b3576101008083540402835291602001916105de565b820191906000526020600020905b8154815290600101906020018083116105c157829003601f168201915b505050505081526020016002820180546105f7906135b0565b80601f0160208091040260200160405190810160405280929190818152602001828054610623906135b0565b80156106705780601f1061064557610100808354040283529160200191610670565b820191906000526020600020905b81548152906001019060200180831161065357829003601f168201915b50505050508152602001600382018054610689906135b0565b80601f01602080910402602001604051908101604052809291908181526020018280546106b5906135b0565b80156107025780601f106106d757610100808354040283529160200191610702565b820191906000526020600020905b8154815290600101906020018083116106e557829003601f168201915b505050505081525050915080604051806080016040529081600082018054610729906135b0565b80601f0160208091040260200160405190810160405280929190818152602001828054610755906135b0565b80156107a25780601f10610777576101008083540402835291602001916107a2565b820191906000526020600020905b81548152906001019060200180831161078557829003601f168201915b505050505081526020016001820180546107bb906135b0565b80601f01602080910402602001604051908101604052809291908181526020018280546107e7906135b0565b80156108345780601f1061080957610100808354040283529160200191610834565b820191906000526020600020905b81548152906001019060200180831161081757829003601f168201915b5050505050815260200160028201805461084d906135b0565b80601f0160208091040260200160405190810160405280929190818152602001828054610879906135b0565b80156108c65780601f1061089b576101008083540402835291602001916108c6565b820191906000526020600020905b8154815290600101906020018083116108a957829003601f168201915b505050505081526020016003820180546108df906135b0565b80601f016020809104026020016040519081016040528092919081815260200182805461090b906135b0565b80156109585780601f1061092d57610100808354040283529160200191610958565b820191906000526020600020905b81548152906001019060200180831161093b57829003601f168201915b50505050508152505090509250925050915091565b60606000805461097c906135b0565b80601f01602080910402602001604051908101604052809291908181526020018280546109a8906135b0565b80156109f55780601f106109ca576101008083540402835291602001916109f5565b820191906000526020600020905b8154815290600101906020018083116109d857829003601f168201915b5050505050905090565b6000610a0a82611b7e565b506000908152600460205260409020546001600160a01b031690565b6000610a3182610df2565b9050806001600160a01b0316836001600160a01b03161415610aa45760405162461bcd60e51b815260206004820152602160248201527f4552433732313a20617070726f76616c20746f2063757272656e74206f776e656044820152603960f91b60648201526084015b60405180910390fd5b336001600160a01b0382161480610ac05750610ac081336117e8565b610b325760405162461bcd60e51b815260206004820152603d60248201527f4552433732313a20617070726f76652063616c6c6572206973206e6f7420746f60448201527f6b656e206f776e6572206f7220617070726f76656420666f7220616c6c0000006064820152608401610a9b565b610b3c8383611ba3565b505050565b610b4c335b82611c11565b610b685760405162461bcd60e51b8152600401610a9b906135eb565b610b3c838383611c70565b6000908152600c602052604090206001015490565b600080516020613914833981519152610ba081611b74565b50600e80546001600160a01b0319166001600160a01b0392909216919091179055565b610bcc82610b73565b610bd581611b74565b610b3c8383611dd7565b6000610bea83610e26565b8210610c4c5760405162461bcd60e51b815260206004820152602b60248201527f455243373231456e756d657261626c653a206f776e657220696e646578206f7560448201526a74206f6620626f756e647360a81b6064820152608401610a9b565b506001600160a01b03919091166000908152600660209081526040808320938352929052205490565b6001600160a01b0381163314610ce55760405162461bcd60e51b815260206004820152602f60248201527f416363657373436f6e74726f6c3a2063616e206f6e6c792072656e6f756e636560448201526e103937b632b9903337b91039b2b63360891b6064820152608401610a9b565b610cef8282611e5d565b5050565b600080516020613934833981519152610d0b81611b74565b610d13611ec4565b50565b610b3c83838360405180602001604052806000815250611789565b610d3a33610b46565b610d565760405162461bcd60e51b8152600401610a9b906135eb565b610d1381611f10565b6000610d6a60085490565b8210610dcd5760405162461bcd60e51b815260206004820152602c60248201527f455243373231456e756d657261626c653a20676c6f62616c20696e646578206f60448201526b7574206f6620626f756e647360a01b6064820152608401610a9b565b60088281548110610de057610de0613638565b90600052602060002001549050919050565b600080610dfe83611fa1565b90506001600160a01b03811661046d5760405162461bcd60e51b8152600401610a9b9061364e565b60006001600160a01b038216610e905760405162461bcd60e51b815260206004820152602960248201527f4552433732313a2061646472657373207a65726f206973206e6f7420612076616044820152683634b21037bbb732b960b91b6064820152608401610a9b565b506001600160a01b031660009081526003602052604090205490565b600080516020613934833981519152610ec481611b74565b610d13611fbc565b6000918252600c602090815260408084206001600160a01b0393909316845291905290205460ff1690565b60606001805461097c906135b0565b6000818152600f60205260409020805460609190610f23906135b0565b80601f0160208091040260200160405190810160405280929190818152602001828054610f4f906135b0565b8015610f9c5780601f10610f7157610100808354040283529160200191610f9c565b820191906000526020600020905b815481529060010190602001808311610f7f57829003601f168201915b50505050509050919050565b610fb0612e99565b610fb8612e99565b610fc3335b84611c11565b6110345760405162461bcd60e51b815260206004820152603c60248201527f4552433732313a20676574546f6b656e4f776e657250726f6d70742063616c6c60448201527b195c881a5cc81b9bdd081bdddb995c881b9bdc88185c1c1c9bdd995960221b6064820152608401610a9b565b600083815260106020908152604080832060119092529182902082516080810190935281549192909183908290829061106c906135b0565b80601f0160208091040260200160405190810160405280929190818152602001828054611098906135b0565b80156110e55780601f106110ba576101008083540402835291602001916110e5565b820191906000526020600020905b8154815290600101906020018083116110c857829003601f168201915b505050505081526020016001820180546110fe906135b0565b80601f016020809104026020016040519081016040528092919081815260200182805461112a906135b0565b80156111775780601f1061114c57610100808354040283529160200191611177565b820191906000526020600020905b81548152906001019060200180831161115a57829003601f168201915b50505050508152602001600282018054611190906135b0565b80601f01602080910402602001604051908101604052809291908181526020018280546111bc906135b0565b80156112095780601f106111de57610100808354040283529160200191611209565b820191906000526020600020905b8154815290600101906020018083116111ec57829003601f168201915b50505050508152602001600382018054611222906135b0565b80601f016020809104026020016040519081016040528092919081815260200182805461124e906135b0565b801561129b5780601f106112705761010080835404028352916020019161129b565b820191906000526020600020905b81548152906001019060200180831161127e57829003601f168201915b5050505050815250509150806040518060800160405290816000820180546112c2906135b0565b80601f01602080910402602001604051908101604052809291908181526020018280546112ee906135b0565b801561133b5780601f106113105761010080835404028352916020019161133b565b820191906000526020600020905b81548152906001019060200180831161131e57829003601f168201915b50505050508152602001600182018054611354906135b0565b80601f0160208091040260200160405190810160405280929190818152602001828054611380906135b0565b80156113cd5780601f106113a2576101008083540402835291602001916113cd565b820191906000526020600020905b8154815290600101906020018083116113b057829003601f168201915b505050505081526020016002820180546113e6906135b0565b80601f0160208091040260200160405190810160405280929190818152602001828054611412906135b0565b801561145f5780601f106114345761010080835404028352916020019161145f565b820191906000526020600020905b81548152906001019060200180831161144257829003601f168201915b50505050508152602001600382018054611478906135b0565b80601f01602080910402602001604051908101604052809291908181526020018280546114a4906135b0565b80156114f15780601f106114c6576101008083540402835291602001916114f1565b820191906000526020600020905b8154815290600101906020018083116114d457829003601f168201915b505050505081525050905091509150915091565b6000805160206138f483398151915261151d81611b74565b6000848152601260209081526040909120845180518693611542928492910190612ec1565b50602082810151805161155b9260018501920190612ec1565b5060408201518051611577916002840191602090910190612ec1565b5060608201518051611593916003840191602090910190612ec1565b50505060008481526013602090815260409091208351805185936115bb928492910190612ec1565b5060208281015180516115d49260018501920190612ec1565b50604082015180516115f0916002840191602090910190612ec1565b506060820151805161160c916003840191602090910190612ec1565b50505050505050565b610cef338383611ff9565b61162933610fbd565b6116925760405162461bcd60e51b815260206004820152603460248201527f4552433732313a20636c61696d50726f6d70742063616c6c6572206973206e6f6044820152731d081bdddb995c881b9bdc88185c1c1c9bdd995960621b6064820152608401610a9b565b60008381526010602090815260409091208351805185936116b7928492910190612ec1565b5060208281015180516116d09260018501920190612ec1565b50604082015180516116ec916002840191602090910190612ec1565b5060608201518051611708916003840191602090910190612ec1565b5050506000838152601160209081526040909120825180518493611730928492910190612ec1565b5060208281015180516117499260018501920190612ec1565b5060408201518051611765916002840191602090910190612ec1565b5060608201518051611781916003840191602090910190612ec1565b505050505050565b6117933383611c11565b6117af5760405162461bcd60e51b8152600401610a9b906135eb565b6117bb848484846120c4565b50505050565b606061046d826120f7565b6117d582610b73565b6117de81611b74565b610b3c8383611e5d565b6001600160a01b03918216600090815260056020908152604080832093909416825291909152205460ff1690565b6000611826600d80546001019055565b6000611831600d5490565b905061183d8982612200565b611847818961221a565b6000818152600f602090815260409091208851611866928a0190612ec1565b50600081815260106020908152604090912087518051899361188c928492910190612ec1565b5060208281015180516118a59260018501920190612ec1565b50604082015180516118c1916002840191602090910190612ec1565b50606082015180516118dd916003840191602090910190612ec1565b5050506000818152601160209081526040909120865180518893611905928492910190612ec1565b50602082810151805161191e9260018501920190612ec1565b506040820151805161193a916002840191602090910190612ec1565b5060608201518051611956916003840191602090910190612ec1565b505050600081815260126020908152604090912085518051879361197e928492910190612ec1565b5060208281015180516119979260018501920190612ec1565b50604082015180516119b3916002840191602090910190612ec1565b50606082015180516119cf916003840191602090910190612ec1565b50505060008181526013602090815260409091208451805186936119f7928492910190612ec1565b506020828101518051611a109260018501920190612ec1565b5060408201518051611a2c916002840191602090910190612ec1565b5060608201518051611a48916003840191602090910190612ec1565b5050600e546040516317a6b60960e01b815230600482015260248101849052600092506001600160a01b03909116906317a6b60990604401602060405180830381600087803b158015611a9a57600080fd5b505af1158015611aae573d6000803e3d6000fd5b505050506040513d601f19601f82011682018060405250810190611ad29190613680565b905080611b425760405162461bcd60e51b815260206004820152603860248201527f43616c6c2072656769737465724e46542066756e6374696f6e206f662072656e6044820152773a26b0b935b2ba1031b7b73a3930b1ba103330b4b632b21760411b6064820152608401610a9b565b5098975050505050505050565b60006001600160e01b03198216637965db0b60e01b148061046d575061046d826122a5565b610d1381336122ca565b611b8781612323565b610d135760405162461bcd60e51b8152600401610a9b9061364e565b600081815260046020526040902080546001600160a01b0319166001600160a01b0384169081179091558190611bd882610df2565b6001600160a01b03167f8c5be1e5ebec7d5bd14f71427d1e84f3dd0314c0f7b2291e5b200ac8c7c3b92560405160405180910390a45050565b600080611c1d83610df2565b9050806001600160a01b0316846001600160a01b03161480611c445750611c4481856117e8565b80611c685750836001600160a01b0316611c5d846109ff565b6001600160a01b0316145b949350505050565b826001600160a01b0316611c8382610df2565b6001600160a01b031614611ca95760405162461bcd60e51b8152600401610a9b9061369d565b6001600160a01b038216611d0b5760405162461bcd60e51b8152602060048201526024808201527f4552433732313a207472616e7366657220746f20746865207a65726f206164646044820152637265737360e01b6064820152608401610a9b565b611d188383836001612340565b826001600160a01b0316611d2b82610df2565b6001600160a01b031614611d515760405162461bcd60e51b8152600401610a9b9061369d565b600081815260046020908152604080832080546001600160a01b03199081169091556001600160a01b03878116808652600385528386208054600019019055908716808652838620805460010190558686526002909452828520805490921684179091559051849360008051602061395483398151915291a4610b3c8383836001612354565b611de18282610ecc565b610cef576000828152600c602090815260408083206001600160a01b03851684529091529020805460ff19166001179055611e193390565b6001600160a01b0316816001600160a01b0316837f2f8788117e7eff1d82e926ec794901d17c78024a50270940304540a733656f0d60405160405180910390a45050565b611e678282610ecc565b15610cef576000828152600c602090815260408083206001600160a01b0385168085529252808320805460ff1916905551339285917ff6391f5c32d9c69d2a47ea670b442974b53935d1edc7fd64eb21e047a839171b9190a45050565b611ecc61239f565b600b805460ff191690557f5db9ee0a495bf2e6ff9c91a7834c1ba4fdd244a5e8aa4e537bd38aeae4b073aa335b604051611f0691906130d7565b60405180910390a1565b611f19816123ea565b600081815260106020526040812090611f328282612f45565b611f40600183016000612f45565b611f4e600283016000612f45565b611f5c600383016000612f45565b5050600081815260126020526040812090611f778282612f45565b611f85600183016000612f45565b611f93600283016000612f45565b610b3c600383016000612f45565b6000908152600260205260409020546001600160a01b031690565b611fc461242a565b600b805460ff191660011790557f62e78cea01bee320cd4e420270b5ea74000d11b0c9f74754ebdbfc544b05a258611ef93390565b816001600160a01b0316836001600160a01b031614156120575760405162461bcd60e51b815260206004820152601960248201527822a9219b99189d1030b8383937bb32903a379031b0b63632b960391b6044820152606401610a9b565b6001600160a01b03838116600081815260056020908152604080832094871680845294825291829020805460ff191686151590811790915591519182527f17307eab39ab6107e8899845ad3d59bd9653f200f220920489ca2b5937696c31910160405180910390a3505050565b6120cf848484611c70565b6120db84848484612470565b6117bb5760405162461bcd60e51b8152600401610a9b906136e2565b606061210282611b7e565b6000828152600a60205260408120805461211b906135b0565b80601f0160208091040260200160405190810160405280929190818152602001828054612147906135b0565b80156121945780601f1061216957610100808354040283529160200191612194565b820191906000526020600020905b81548152906001019060200180831161217757829003601f168201915b5050505050905060006121b260408051602081019091526000815290565b90508051600014156121c5575092915050565b8151156121f75780826040516020016121df929190613734565b60405160208183030381529060405292505050919050565b611c688461257d565b610cef8282604051806020016040528060008152506125f1565b61222382612323565b6122865760405162461bcd60e51b815260206004820152602e60248201527f45524337323155524953746f726167653a2055524920736574206f66206e6f6e60448201526d32bc34b9ba32b73a103a37b5b2b760911b6064820152608401610a9b565b6000828152600a602090815260409091208251610b3c92840190612ec1565b60006001600160e01b0319821663780e9d6360e01b148061046d575061046d82612624565b6122d48282610ecc565b610cef576122e181612674565b6122ec836020612686565b6040516020016122fd929190613763565b60408051601f198184030181529082905262461bcd60e51b8252610a9b916004016130c4565b60008061232f83611fa1565b6001600160a01b0316141592915050565b61234861242a565b6117bb84848484612821565b61235c61242a565b6000828152601060205260408120906123758282612f45565b612383600183016000612f45565b612391600283016000612f45565b611781600383016000612f45565b600b5460ff166123e85760405162461bcd60e51b815260206004820152601460248201527314185d5cd8589b194e881b9bdd081c185d5cd95960621b6044820152606401610a9b565b565b6123f381612961565b6000818152600a60205260409020805461240c906135b0565b159050610d13576000818152600a60205260408120610d1391612f45565b600b5460ff16156123e85760405162461bcd60e51b815260206004820152601060248201526f14185d5cd8589b194e881c185d5cd95960821b6044820152606401610a9b565b60006001600160a01b0384163b1561257257604051630a85bd0160e11b81526001600160a01b0385169063150b7a02906124b49033908990889088906004016137d2565b602060405180830381600087803b1580156124ce57600080fd5b505af19250505080156124fe575060408051601f3d908101601f191682019092526124fb9181019061380f565b60015b612558573d80801561252c576040519150601f19603f3d011682016040523d82523d6000602084013e612531565b606091505b5080516125505760405162461bcd60e51b8152600401610a9b906136e2565b805181602001fd5b6001600160e01b031916630a85bd0160e11b149050611c68565b506001949350505050565b606061258882611b7e565b600061259f60408051602081019091526000815290565b905060008151116125bf57604051806020016040528060008152506125ea565b806125c9846129fc565b6040516020016125da929190613734565b6040516020818303038152906040525b9392505050565b6125fb8383612a98565b6126086000848484612470565b610b3c5760405162461bcd60e51b8152600401610a9b906136e2565b60006001600160e01b031982166380ac58cd60e01b148061265557506001600160e01b03198216635b5e139f60e01b145b8061046d57506301ffc9a760e01b6001600160e01b031983161461046d565b606061046d6001600160a01b03831660145b60606000612695836002613842565b6126a0906002613861565b6001600160401b038111156126b7576126b76131ca565b6040519080825280601f01601f1916602001820160405280156126e1576020820181803683370190505b509050600360fc1b816000815181106126fc576126fc613638565b60200101906001600160f81b031916908160001a905350600f60fb1b8160018151811061272b5761272b613638565b60200101906001600160f81b031916908160001a905350600061274f846002613842565b61275a906001613861565b90505b60018111156127d2576f181899199a1a9b1b9c1cb0b131b232b360811b85600f166010811061278e5761278e613638565b1a60f81b8282815181106127a4576127a4613638565b60200101906001600160f81b031916908160001a90535060049490941c936127cb81613879565b905061275d565b5083156125ea5760405162461bcd60e51b815260206004820181905260248201527f537472696e67733a20686578206c656e67746820696e73756666696369656e746044820152606401610a9b565b61282d84848484612bab565b600181111561289c5760405162461bcd60e51b815260206004820152603560248201527f455243373231456e756d657261626c653a20636f6e7365637574697665207472604482015274185b9cd9995c9cc81b9bdd081cdd5c1c1bdc9d1959605a1b6064820152608401610a9b565b816001600160a01b0385166128f8576128f381600880546000838152600960205260408120829055600182018355919091527ff3f7a9fe364faab93b216da50a3214154f22a0a2b415b23a84c8169e8b636ee30155565b61291b565b836001600160a01b0316856001600160a01b03161461291b5761291b8582612c33565b6001600160a01b0384166129375761293281612cd0565b61295a565b846001600160a01b0316846001600160a01b03161461295a5761295a8482612d7f565b5050505050565b600061296c82610df2565b905061297c816000846001612340565b61298582610df2565b600083815260046020908152604080832080546001600160a01b03199081169091556001600160a01b038516808552600384528285208054600019019055878552600290935281842080549091169055519293508492600080516020613954833981519152908390a4610cef816000846001612354565b60606000612a0983612dc3565b60010190506000816001600160401b03811115612a2857612a286131ca565b6040519080825280601f01601f191660200182016040528015612a52576020820181803683370190505b5090508181016020015b600019016f181899199a1a9b1b9c1cb0b131b232b360811b600a86061a8153600a8504945084612a8b57612a90565b612a5c565b509392505050565b6001600160a01b038216612aee5760405162461bcd60e51b815260206004820181905260248201527f4552433732313a206d696e7420746f20746865207a65726f20616464726573736044820152606401610a9b565b612af781612323565b15612b145760405162461bcd60e51b8152600401610a9b90613890565b612b22600083836001612340565b612b2b81612323565b15612b485760405162461bcd60e51b8152600401610a9b90613890565b6001600160a01b038216600081815260036020908152604080832080546001019055848352600290915280822080546001600160a01b031916841790555183929190600080516020613954833981519152908290a4610cef600083836001612354565b60018111156117bb576001600160a01b03841615612bf1576001600160a01b03841660009081526003602052604081208054839290612beb9084906138c6565b90915550505b6001600160a01b038316156117bb576001600160a01b03831660009081526003602052604081208054839290612c28908490613861565b909155505050505050565b60006001612c4084610e26565b612c4a91906138c6565b600083815260076020526040902054909150808214612c9d576001600160a01b03841660009081526006602090815260408083208584528252808320548484528184208190558352600790915290208190555b5060009182526007602090815260408084208490556001600160a01b039094168352600681528383209183525290812055565b600854600090612ce2906001906138c6565b60008381526009602052604081205460088054939450909284908110612d0a57612d0a613638565b906000526020600020015490508060088381548110612d2b57612d2b613638565b6000918252602080832090910192909255828152600990915260408082208490558582528120556008805480612d6357612d636138dd565b6001900381819060005260206000200160009055905550505050565b6000612d8a83610e26565b6001600160a01b039093166000908152600660209081526040808320868452825280832085905593825260079052919091209190915550565b60008072184f03e93ff9f4daa797ed6e38ed64bf6a1f0160401b8310612e025772184f03e93ff9f4daa797ed6e38ed64bf6a1f0160401b830492506040015b6904ee2d6d415b85acef8160201b8310612e2c576904ee2d6d415b85acef8160201b830492506020015b662386f26fc100008310612e4a57662386f26fc10000830492506010015b6305f5e1008310612e62576305f5e100830492506008015b6127108310612e7657612710830492506004015b60648310612e88576064830492506002015b600a831061046d5760010192915050565b6040518060800160405280606081526020016060815260200160608152602001606081525090565b828054612ecd906135b0565b90600052602060002090601f016020900481019282612eef5760008555612f35565b82601f10612f0857805160ff1916838001178555612f35565b82800160010185558215612f35579182015b82811115612f35578251825591602001919060010190612f1a565b50612f41929150612f7b565b5090565b508054612f51906135b0565b6000825580601f10612f61575050565b601f016020900490600052602060002090810190610d1391905b5b80821115612f415760008155600101612f7c565b6001600160e01b031981168114610d1357600080fd5b600060208284031215612fb857600080fd5b81356125ea81612f90565b600060208284031215612fd557600080fd5b5035919050565b60005b83811015612ff7578181015183820152602001612fdf565b838111156117bb5750506000910152565b60008151808452613020816020860160208601612fdc565b601f01601f19169290920160200192915050565b60008151608084526130496080850182613008565b9050602083015184820360208601526130628282613008565b9150506040830151848203604086015261307c8282613008565b915050606083015184820360608601526130968282613008565b95945050505050565b6040815260006130b26040830185613034565b82810360208401526130968185613034565b6020815260006125ea6020830184613008565b6001600160a01b0391909116815260200190565b6001600160a01b0381168114610d1357600080fd5b803561310b816130eb565b919050565b6000806040838503121561312357600080fd5b823561312e816130eb565b946020939093013593505050565b60008060006060848603121561315157600080fd5b833561315c816130eb565b9250602084013561316c816130eb565b929592945050506040919091013590565b60006020828403121561318f57600080fd5b81356125ea816130eb565b600080604083850312156131ad57600080fd5b8235915060208301356131bf816130eb565b809150509250929050565b634e487b7160e01b600052604160045260246000fd5b604051608081016001600160401b0381118282101715613202576132026131ca565b60405290565b60006001600160401b0380841115613222576132226131ca565b604051601f8501601f19908116603f0116810190828211818310171561324a5761324a6131ca565b8160405280935085815286868601111561326357600080fd5b858560208301376000602087830101525050509392505050565b600082601f83011261328e57600080fd5b6125ea83833560208501613208565b6000608082840312156132af57600080fd5b6132b76131e0565b905081356001600160401b03808211156132d057600080fd5b6132dc8583860161327d565b835260208401359150808211156132f257600080fd5b6132fe8583860161327d565b6020840152604084013591508082111561331757600080fd5b6133238583860161327d565b6040840152606084013591508082111561333c57600080fd5b506133498482850161327d565b60608301525092915050565b60008060006060848603121561336a57600080fd5b8335925060208401356001600160401b038082111561338857600080fd5b6133948783880161329d565b935060408601359150808211156133aa57600080fd5b506133b78682870161329d565b9150509250925092565b8015158114610d1357600080fd5b600080604083850312156133e257600080fd5b82356133ed816130eb565b915060208301356131bf816133c1565b6000806000806080858703121561341357600080fd5b843561341e816130eb565b9350602085013561342e816130eb565b92506040850135915060608501356001600160401b0381111561345057600080fd5b8501601f8101871361346157600080fd5b61347087823560208401613208565b91505092959194509250565b6000806040838503121561348f57600080fd5b823561349a816130eb565b915060208301356131bf816130eb565b600080600080600080600060e0888a0312156134c557600080fd5b6134ce88613100565b965060208801356001600160401b03808211156134ea57600080fd5b6134f68b838c0161327d565b975060408a013591508082111561350c57600080fd5b6135188b838c0161327d565b965060608a013591508082111561352e57600080fd5b61353a8b838c0161329d565b955060808a013591508082111561355057600080fd5b61355c8b838c0161329d565b945060a08a013591508082111561357257600080fd5b61357e8b838c0161329d565b935060c08a013591508082111561359457600080fd5b506135a18a828b0161329d565b91505092959891949750929550565b600181811c908216806135c457607f821691505b602082108114156135e557634e487b7160e01b600052602260045260246000fd5b50919050565b6020808252602d908201527f4552433732313a2063616c6c6572206973206e6f7420746f6b656e206f776e6560408201526c1c881bdc88185c1c1c9bdd9959609a1b606082015260800190565b634e487b7160e01b600052603260045260246000fd5b602080825260189082015277115490cdcc8c4e881a5b9d985b1a59081d1bdad95b88125160421b604082015260600190565b60006020828403121561369257600080fd5b81516125ea816133c1565b60208082526025908201527f4552433732313a207472616e736665722066726f6d20696e636f72726563742060408201526437bbb732b960d91b606082015260800190565b60208082526032908201527f4552433732313a207472616e7366657220746f206e6f6e20455243373231526560408201527131b2b4bb32b91034b6b83632b6b2b73a32b960711b606082015260800190565b60008351613746818460208801612fdc565b83519083019061375a818360208801612fdc565b01949350505050565b76020b1b1b2b9b9a1b7b73a3937b61d1030b1b1b7bab73a1604d1b815260008351613795816017850160208801612fdc565b7001034b99036b4b9b9b4b733903937b6329607d1b60179184019182015283516137c6816028840160208801612fdc565b01602801949350505050565b6001600160a01b038581168252841660208201526040810183905260806060820181905260009061380590830184613008565b9695505050505050565b60006020828403121561382157600080fd5b81516125ea81612f90565b634e487b7160e01b600052601160045260246000fd5b600081600019048311821515161561385c5761385c61382c565b500290565b600082198211156138745761387461382c565b500190565b6000816138885761388861382c565b506000190190565b6020808252601c908201527b115490cdcc8c4e881d1bdad95b88185b1c9958591e481b5a5b9d195960221b604082015260600190565b6000828210156138d8576138d861382c565b500390565b634e487b7160e01b600052603160045260246000fdfed0643f51bd184a6a394cdade44604c05442b11e696dabba32ec676f5e962b8356310cf9c937bcad92df0897b8ab11d37ff788bec126c5807fb57fb0423e3f40d65d7a28e3265b37a6474929f336521b332c1681b933f6cb9f3376673440d862addf252ad1be2c89b69c2b068fc378daa952ba7f163c4a11628f55a4df523b3efa26469706673582212200014ca78f4fd34cc969d039a9a3722f90f600bed26d1009ad76ea7d47bd6d64764736f6c63430008090033",
  "linkReferences": {},
  "deployedLinkReferences": {}
}