{
  "_format": "hh-sol-artifact-1",
  "contractName": "promptNFT",
  "sourceName": "contracts/promptNFT.sol",
  "abi": [
    {
      "inputs": [
        {
          "internalType": "string",
          "name": "name_",
          "type": "string"
        },
        {
          "internalType": "string",
          "name": "symbol_",
          "type": "string"
        },
        {
          "internalType": "address payable",
          "name": "rentMarketContractAddress_",
          "type": "address"
        }
      ],
      "stateMutability": "nonpayable",
      "type": "constructor"
    },
    {
      "anonymous": false,
      "inputs": [
        {
          "indexed": true,
          "internalType": "address",
          "name": "owner",
          "type": "address"
        },
        {
          "indexed": true,
          "internalType": "address",
          "name": "approved",
          "type": "address"
        },
        {
          "indexed": true,
          "internalType": "uint256",
          "name": "tokenId",
          "type": "uint256"
        }
      ],
      "name": "Approval",
      "type": "event"
    },
    {
      "anonymous": false,
      "inputs": [
        {
          "indexed": true,
          "internalType": "address",
          "name": "owner",
          "type": "address"
        },
        {
          "indexed": true,
          "internalType": "address",
          "name": "operator",
          "type": "address"
        },
        {
          "indexed": false,
          "internalType": "bool",
          "name": "approved",
          "type": "bool"
        }
      ],
      "name": "ApprovalForAll",
      "type": "event"
    },
    {
      "anonymous": false,
      "inputs": [
        {
          "indexed": false,
          "internalType": "address",
          "name": "account",
          "type": "address"
        }
      ],
      "name": "Paused",
      "type": "event"
    },
    {
      "anonymous": false,
      "inputs": [
        {
          "indexed": true,
          "internalType": "bytes32",
          "name": "role",
          "type": "bytes32"
        },
        {
          "indexed": true,
          "internalType": "bytes32",
          "name": "previousAdminRole",
          "type": "bytes32"
        },
        {
          "indexed": true,
          "internalType": "bytes32",
          "name": "newAdminRole",
          "type": "bytes32"
        }
      ],
      "name": "RoleAdminChanged",
      "type": "event"
    },
    {
      "anonymous": false,
      "inputs": [
        {
          "indexed": true,
          "internalType": "bytes32",
          "name": "role",
          "type": "bytes32"
        },
        {
          "indexed": true,
          "internalType": "address",
          "name": "account",
          "type": "address"
        },
        {
          "indexed": true,
          "internalType": "address",
          "name": "sender",
          "type": "address"
        }
      ],
      "name": "RoleGranted",
      "type": "event"
    },
    {
      "anonymous": false,
      "inputs": [
        {
          "indexed": true,
          "internalType": "bytes32",
          "name": "role",
          "type": "bytes32"
        },
        {
          "indexed": true,
          "internalType": "address",
          "name": "account",
          "type": "address"
        },
        {
          "indexed": true,
          "internalType": "address",
          "name": "sender",
          "type": "address"
        }
      ],
      "name": "RoleRevoked",
      "type": "event"
    },
    {
      "anonymous": false,
      "inputs": [
        {
          "indexed": true,
          "internalType": "address",
          "name": "from",
          "type": "address"
        },
        {
          "indexed": true,
          "internalType": "address",
          "name": "to",
          "type": "address"
        },
        {
          "indexed": true,
          "internalType": "uint256",
          "name": "tokenId",
          "type": "uint256"
        }
      ],
      "name": "Transfer",
      "type": "event"
    },
    {
      "anonymous": false,
      "inputs": [
        {
          "indexed": false,
          "internalType": "address",
          "name": "account",
          "type": "address"
        }
      ],
      "name": "Unpaused",
      "type": "event"
    },
    {
      "inputs": [],
      "name": "CHANGER_ROLE",
      "outputs": [
        {
          "internalType": "bytes32",
          "name": "",
          "type": "bytes32"
        }
      ],
      "stateMutability": "view",
      "type": "function"
    },
    {
      "inputs": [],
      "name": "DEFAULT_ADMIN_ROLE",
      "outputs": [
        {
          "internalType": "bytes32",
          "name": "",
          "type": "bytes32"
        }
      ],
      "stateMutability": "view",
      "type": "function"
    },
    {
      "inputs": [],
      "name": "PAUSER_ROLE",
      "outputs": [
        {
          "internalType": "bytes32",
          "name": "",
          "type": "bytes32"
        }
      ],
      "stateMutability": "view",
      "type": "function"
    },
    {
      "inputs": [],
      "name": "PROMPTER_ROLE",
      "outputs": [
        {
          "internalType": "bytes32",
          "name": "",
          "type": "bytes32"
        }
      ],
      "stateMutability": "view",
      "type": "function"
    },
    {
      "inputs": [],
      "name": "VERSION",
      "outputs": [
        {
          "internalType": "string",
          "name": "",
          "type": "string"
        }
      ],
      "stateMutability": "view",
      "type": "function"
    },
    {
      "inputs": [
        {
          "internalType": "address",
          "name": "to",
          "type": "address"
        },
        {
          "internalType": "uint256",
          "name": "tokenId",
          "type": "uint256"
        }
      ],
      "name": "approve",
      "outputs": [],
      "stateMutability": "nonpayable",
      "type": "function"
    },
    {
      "inputs": [
        {
          "internalType": "address",
          "name": "owner",
          "type": "address"
        }
      ],
      "name": "balanceOf",
      "outputs": [
        {
          "internalType": "uint256",
          "name": "",
          "type": "uint256"
        }
      ],
      "stateMutability": "view",
      "type": "function"
    },
    {
      "inputs": [
        {
          "internalType": "uint256",
          "name": "tokenId",
          "type": "uint256"
        }
      ],
      "name": "burn",
      "outputs": [],
      "stateMutability": "nonpayable",
      "type": "function"
    },
    {
      "inputs": [
        {
          "internalType": "address payable",
          "name": "rentMarketContractAddress_",
          "type": "address"
        }
      ],
      "name": "changeRentMarketContract",
      "outputs": [],
      "stateMutability": "nonpayable",
      "type": "function"
    },
    {
      "inputs": [
        {
          "internalType": "uint256",
          "name": "tokenId",
          "type": "uint256"
        },
        {
          "components": [
            {
              "internalType": "string",
              "name": "version",
              "type": "string"
            },
            {
              "internalType": "string",
              "name": "ephemPublicKey",
              "type": "string"
            },
            {
              "internalType": "string",
              "name": "nonce",
              "type": "string"
            },
            {
              "internalType": "string",
              "name": "ciphertext",
              "type": "string"
            }
          ],
          "internalType": "struct promptNFT.encryptData",
          "name": "contractOwnerEncryptPromptData",
          "type": "tuple"
        },
        {
          "components": [
            {
              "internalType": "string",
              "name": "version",
              "type": "string"
            },
            {
              "internalType": "string",
              "name": "ephemPublicKey",
              "type": "string"
            },
            {
              "internalType": "string",
              "name": "nonce",
              "type": "string"
            },
            {
              "internalType": "string",
              "name": "ciphertext",
              "type": "string"
            }
          ],
          "internalType": "struct promptNFT.encryptData",
          "name": "contractOwnerEncryptNegativePromptData",
          "type": "tuple"
        }
      ],
      "name": "claimContractOwnerPrompt",
      "outputs": [],
      "stateMutability": "nonpayable",
      "type": "function"
    },
    {
      "inputs": [
        {
          "internalType": "uint256",
          "name": "tokenId",
          "type": "uint256"
        },
        {
          "components": [
            {
              "internalType": "string",
              "name": "version",
              "type": "string"
            },
            {
              "internalType": "string",
              "name": "ephemPublicKey",
              "type": "string"
            },
            {
              "internalType": "string",
              "name": "nonce",
              "type": "string"
            },
            {
              "internalType": "string",
              "name": "ciphertext",
              "type": "string"
            }
          ],
          "internalType": "struct promptNFT.encryptData",
          "name": "tokenOwnerEncryptPromptData",
          "type": "tuple"
        },
        {
          "components": [
            {
              "internalType": "string",
              "name": "version",
              "type": "string"
            },
            {
              "internalType": "string",
              "name": "ephemPublicKey",
              "type": "string"
            },
            {
              "internalType": "string",
              "name": "nonce",
              "type": "string"
            },
            {
              "internalType": "string",
              "name": "ciphertext",
              "type": "string"
            }
          ],
          "internalType": "struct promptNFT.encryptData",
          "name": "tokenOwnerEncryptNegativePromptData",
          "type": "tuple"
        }
      ],
      "name": "claimTokenOwnerPrompt",
      "outputs": [],
      "stateMutability": "nonpayable",
      "type": "function"
    },
    {
      "inputs": [
        {
          "internalType": "uint256",
          "name": "tokenId",
          "type": "uint256"
        }
      ],
      "name": "getApproved",
      "outputs": [
        {
          "internalType": "address",
          "name": "",
          "type": "address"
        }
      ],
      "stateMutability": "view",
      "type": "function"
    },
    {
      "inputs": [
        {
          "internalType": "uint256",
          "name": "tokenId",
          "type": "uint256"
        }
      ],
      "name": "getContractOwnerPrompt",
      "outputs": [
        {
          "components": [
            {
              "internalType": "string",
              "name": "version",
              "type": "string"
            },
            {
              "internalType": "string",
              "name": "ephemPublicKey",
              "type": "string"
            },
            {
              "internalType": "string",
              "name": "nonce",
              "type": "string"
            },
            {
              "internalType": "string",
              "name": "ciphertext",
              "type": "string"
            }
          ],
          "internalType": "struct promptNFT.encryptData",
          "name": "",
          "type": "tuple"
        },
        {
          "components": [
            {
              "internalType": "string",
              "name": "version",
              "type": "string"
            },
            {
              "internalType": "string",
              "name": "ephemPublicKey",
              "type": "string"
            },
            {
              "internalType": "string",
              "name": "nonce",
              "type": "string"
            },
            {
              "internalType": "string",
              "name": "ciphertext",
              "type": "string"
            }
          ],
          "internalType": "struct promptNFT.encryptData",
          "name": "",
          "type": "tuple"
        }
      ],
      "stateMutability": "view",
      "type": "function"
    },
    {
      "inputs": [
        {
          "internalType": "uint256",
          "name": "tokenId",
          "type": "uint256"
        }
      ],
      "name": "getModelName",
      "outputs": [
        {
          "internalType": "string",
          "name": "",
          "type": "string"
        }
      ],
      "stateMutability": "view",
      "type": "function"
    },
    {
      "inputs": [],
      "name": "getRentMarketContractAddress",
      "outputs": [
        {
          "internalType": "address",
          "name": "",
          "type": "address"
        }
      ],
      "stateMutability": "view",
      "type": "function"
    },
    {
      "inputs": [
        {
          "internalType": "bytes32",
          "name": "role",
          "type": "bytes32"
        }
      ],
      "name": "getRoleAdmin",
      "outputs": [
        {
          "internalType": "bytes32",
          "name": "",
          "type": "bytes32"
        }
      ],
      "stateMutability": "view",
      "type": "function"
    },
    {
      "inputs": [
        {
          "internalType": "uint256",
          "name": "tokenId",
          "type": "uint256"
        }
      ],
      "name": "getTokenOwnerPrompt",
      "outputs": [
        {
          "components": [
            {
              "internalType": "string",
              "name": "version",
              "type": "string"
            },
            {
              "internalType": "string",
              "name": "ephemPublicKey",
              "type": "string"
            },
            {
              "internalType": "string",
              "name": "nonce",
              "type": "string"
            },
            {
              "internalType": "string",
              "name": "ciphertext",
              "type": "string"
            }
          ],
          "internalType": "struct promptNFT.encryptData",
          "name": "",
          "type": "tuple"
        },
        {
          "components": [
            {
              "internalType": "string",
              "name": "version",
              "type": "string"
            },
            {
              "internalType": "string",
              "name": "ephemPublicKey",
              "type": "string"
            },
            {
              "internalType": "string",
              "name": "nonce",
              "type": "string"
            },
            {
              "internalType": "string",
              "name": "ciphertext",
              "type": "string"
            }
          ],
          "internalType": "struct promptNFT.encryptData",
          "name": "",
          "type": "tuple"
        }
      ],
      "stateMutability": "view",
      "type": "function"
    },
    {
      "inputs": [
        {
          "internalType": "bytes32",
          "name": "role",
          "type": "bytes32"
        },
        {
          "internalType": "address",
          "name": "account",
          "type": "address"
        }
      ],
      "name": "grantRole",
      "outputs": [],
      "stateMutability": "nonpayable",
      "type": "function"
    },
    {
      "inputs": [
        {
          "internalType": "bytes32",
          "name": "role",
          "type": "bytes32"
        },
        {
          "internalType": "address",
          "name": "account",
          "type": "address"
        }
      ],
      "name": "hasRole",
      "outputs": [
        {
          "internalType": "bool",
          "name": "",
          "type": "bool"
        }
      ],
      "stateMutability": "view",
      "type": "function"
    },
    {
      "inputs": [
        {
          "internalType": "address",
          "name": "owner",
          "type": "address"
        },
        {
          "internalType": "address",
          "name": "operator",
          "type": "address"
        }
      ],
      "name": "isApprovedForAll",
      "outputs": [
        {
          "internalType": "bool",
          "name": "",
          "type": "bool"
        }
      ],
      "stateMutability": "view",
      "type": "function"
    },
    {
      "inputs": [],
      "name": "name",
      "outputs": [
        {
          "internalType": "string",
          "name": "",
          "type": "string"
        }
      ],
      "stateMutability": "view",
      "type": "function"
    },
    {
      "inputs": [
        {
          "internalType": "uint256",
          "name": "tokenId",
          "type": "uint256"
        }
      ],
      "name": "ownerOf",
      "outputs": [
        {
          "internalType": "address",
          "name": "",
          "type": "address"
        }
      ],
      "stateMutability": "view",
      "type": "function"
    },
    {
      "inputs": [],
      "name": "pause",
      "outputs": [],
      "stateMutability": "nonpayable",
      "type": "function"
    },
    {
      "inputs": [],
      "name": "paused",
      "outputs": [
        {
          "internalType": "bool",
          "name": "",
          "type": "bool"
        }
      ],
      "stateMutability": "view",
      "type": "function"
    },
    {
      "inputs": [
        {
          "internalType": "bytes32",
          "name": "role",
          "type": "bytes32"
        },
        {
          "internalType": "address",
          "name": "account",
          "type": "address"
        }
      ],
      "name": "renounceRole",
      "outputs": [],
      "stateMutability": "nonpayable",
      "type": "function"
    },
    {
      "inputs": [
        {
          "internalType": "bytes32",
          "name": "role",
          "type": "bytes32"
        },
        {
          "internalType": "address",
          "name": "account",
          "type": "address"
        }
      ],
      "name": "revokeRole",
      "outputs": [],
      "stateMutability": "nonpayable",
      "type": "function"
    },
    {
      "inputs": [
        {
          "internalType": "address",
          "name": "to_",
          "type": "address"
        },
        {
          "internalType": "string",
          "name": "uri_",
          "type": "string"
        },
        {
          "internalType": "string",
          "name": "modelName_",
          "type": "string"
        },
        {
          "components": [
            {
              "internalType": "string",
              "name": "version",
              "type": "string"
            },
            {
              "internalType": "string",
              "name": "ephemPublicKey",
              "type": "string"
            },
            {
              "internalType": "string",
              "name": "nonce",
              "type": "string"
            },
            {
              "internalType": "string",
              "name": "ciphertext",
              "type": "string"
            }
          ],
          "internalType": "struct promptNFT.encryptData",
          "name": "tokenOwnerEncryptPromptData_",
          "type": "tuple"
        },
        {
          "components": [
            {
              "internalType": "string",
              "name": "version",
              "type": "string"
            },
            {
              "internalType": "string",
              "name": "ephemPublicKey",
              "type": "string"
            },
            {
              "internalType": "string",
              "name": "nonce",
              "type": "string"
            },
            {
              "internalType": "string",
              "name": "ciphertext",
              "type": "string"
            }
          ],
          "internalType": "struct promptNFT.encryptData",
          "name": "tokenOwnerEncryptNegativePromptData_",
          "type": "tuple"
        },
        {
          "components": [
            {
              "internalType": "string",
              "name": "version",
              "type": "string"
            },
            {
              "internalType": "string",
              "name": "ephemPublicKey",
              "type": "string"
            },
            {
              "internalType": "string",
              "name": "nonce",
              "type": "string"
            },
            {
              "internalType": "string",
              "name": "ciphertext",
              "type": "string"
            }
          ],
          "internalType": "struct promptNFT.encryptData",
          "name": "contractOwnerEncryptPromptData_",
          "type": "tuple"
        },
        {
          "components": [
            {
              "internalType": "string",
              "name": "version",
              "type": "string"
            },
            {
              "internalType": "string",
              "name": "ephemPublicKey",
              "type": "string"
            },
            {
              "internalType": "string",
              "name": "nonce",
              "type": "string"
            },
            {
              "internalType": "string",
              "name": "ciphertext",
              "type": "string"
            }
          ],
          "internalType": "struct promptNFT.encryptData",
          "name": "contractOwnerEncryptNegativePromptData_",
          "type": "tuple"
        }
      ],
      "name": "safeMint",
      "outputs": [
        {
          "internalType": "uint256",
          "name": "",
          "type": "uint256"
        }
      ],
      "stateMutability": "nonpayable",
      "type": "function"
    },
    {
      "inputs": [
        {
          "internalType": "address",
          "name": "from",
          "type": "address"
        },
        {
          "internalType": "address",
          "name": "to",
          "type": "address"
        },
        {
          "internalType": "uint256",
          "name": "tokenId",
          "type": "uint256"
        }
      ],
      "name": "safeTransferFrom",
      "outputs": [],
      "stateMutability": "nonpayable",
      "type": "function"
    },
    {
      "inputs": [
        {
          "internalType": "address",
          "name": "from",
          "type": "address"
        },
        {
          "internalType": "address",
          "name": "to",
          "type": "address"
        },
        {
          "internalType": "uint256",
          "name": "tokenId",
          "type": "uint256"
        },
        {
          "internalType": "bytes",
          "name": "data",
          "type": "bytes"
        }
      ],
      "name": "safeTransferFrom",
      "outputs": [],
      "stateMutability": "nonpayable",
      "type": "function"
    },
    {
      "inputs": [
        {
          "internalType": "address",
          "name": "operator",
          "type": "address"
        },
        {
          "internalType": "bool",
          "name": "approved",
          "type": "bool"
        }
      ],
      "name": "setApprovalForAll",
      "outputs": [],
      "stateMutability": "nonpayable",
      "type": "function"
    },
    {
      "inputs": [
        {
          "internalType": "bytes4",
          "name": "interfaceId",
          "type": "bytes4"
        }
      ],
      "name": "supportsInterface",
      "outputs": [
        {
          "internalType": "bool",
          "name": "",
          "type": "bool"
        }
      ],
      "stateMutability": "view",
      "type": "function"
    },
    {
      "inputs": [],
      "name": "symbol",
      "outputs": [
        {
          "internalType": "string",
          "name": "",
          "type": "string"
        }
      ],
      "stateMutability": "view",
      "type": "function"
    },
    {
      "inputs": [
        {
          "internalType": "uint256",
          "name": "index",
          "type": "uint256"
        }
      ],
      "name": "tokenByIndex",
      "outputs": [
        {
          "internalType": "uint256",
          "name": "",
          "type": "uint256"
        }
      ],
      "stateMutability": "view",
      "type": "function"
    },
    {
      "inputs": [
        {
          "internalType": "address",
          "name": "owner",
          "type": "address"
        },
        {
          "internalType": "uint256",
          "name": "index",
          "type": "uint256"
        }
      ],
      "name": "tokenOfOwnerByIndex",
      "outputs": [
        {
          "internalType": "uint256",
          "name": "",
          "type": "uint256"
        }
      ],
      "stateMutability": "view",
      "type": "function"
    },
    {
      "inputs": [
        {
          "internalType": "uint256",
          "name": "tokenId",
          "type": "uint256"
        }
      ],
      "name": "tokenURI",
      "outputs": [
        {
          "internalType": "string",
          "name": "",
          "type": "string"
        }
      ],
      "stateMutability": "view",
      "type": "function"
    },
    {
      "inputs": [],
      "name": "totalSupply",
      "outputs": [
        {
          "internalType": "uint256",
          "name": "",
          "type": "uint256"
        }
      ],
      "stateMutability": "view",
      "type": "function"
    },
    {
      "inputs": [
        {
          "internalType": "address",
          "name": "from",
          "type": "address"
        },
        {
          "internalType": "address",
          "name": "to",
          "type": "address"
        },
        {
          "internalType": "uint256",
          "name": "tokenId",
          "type": "uint256"
        }
      ],
      "name": "transferFrom",
      "outputs": [],
      "stateMutability": "nonpayable",
      "type": "function"
    },
    {
      "inputs": [],
      "name": "unpause",
      "outputs": [],
      "stateMutability": "nonpayable",
      "type": "function"
    }
  ],
  "bytecode": "0x60c06040526005608081905264302e302e3560d81b60a09081526200002891600d919062000495565b503480156200003657600080fd5b50604051620042b6380380620042b6833981016040819052620000599162000615565b8251839083906200007290600090602085019062000495565b5080516200008890600190602084019062000495565b5050600b805460ff1916905550620000a260003362000129565b620000ce7f65d7a28e3265b37a6474929f336521b332c1681b933f6cb9f3376673440d862a3362000129565b620000e9600080516020620042968339815191523362000129565b620001157fd0643f51bd184a6a394cdade44604c05442b11e696dabba32ec676f5e962b8353362000129565b6200012081620001b4565b50505062000810565b620001358282620001fc565b620001b0576000828152600c602090815260408083206001600160a01b03851684529091529020805460ff191660011790556200016f3390565b6001600160a01b0316816001600160a01b0316837f2f8788117e7eff1d82e926ec794901d17c78024a50270940304540a733656f0d60405160405180910390a45b5050565b60008051602062004296833981519152620001cf8162000227565b50600f80546001600160a01b039092166001600160a01b0319928316811790915560108054909216179055565b6000918252600c602090815260408084206001600160a01b0393909316845291905290205460ff1690565b62000233813362000236565b50565b620002428282620001fc565b620001b0576200025d81620002b760201b62001c161760201c565b6200027383602062001c28620002d5821b17811c565b60405160200162000286929190620006a2565b60408051601f198184030181529082905262461bcd60e51b8252620002ae916004016200071b565b60405180910390fd5b6060620002cf6001600160a01b0383166014620002d5565b92915050565b60606000620002e683600262000766565b620002f390600262000788565b6001600160401b038111156200030d576200030d6200053b565b6040519080825280601f01601f19166020018201604052801562000338576020820181803683370190505b509050600360fc1b81600081518110620003565762000356620007a3565b60200101906001600160f81b031916908160001a905350600f60fb1b81600181518110620003885762000388620007a3565b60200101906001600160f81b031916908160001a9053506000620003ae84600262000766565b620003bb90600162000788565b90505b60018111156200043d576f181899199a1a9b1b9c1cb0b131b232b360811b85600f1660108110620003f357620003f3620007a3565b1a60f81b8282815181106200040c576200040c620007a3565b60200101906001600160f81b031916908160001a90535060049490941c936200043581620007b9565b9050620003be565b5083156200048e5760405162461bcd60e51b815260206004820181905260248201527f537472696e67733a20686578206c656e67746820696e73756666696369656e746044820152606401620002ae565b9392505050565b828054620004a390620007d3565b90600052602060002090601f016020900481019282620004c7576000855562000512565b82601f10620004e257805160ff191683800117855562000512565b8280016001018555821562000512579182015b8281111562000512578251825591602001919060010190620004f5565b506200052092915062000524565b5090565b5b8082111562000520576000815560010162000525565b634e487b7160e01b600052604160045260246000fd5b60005b838110156200056e57818101518382015260200162000554565b838111156200057e576000848401525b50505050565b600082601f8301126200059657600080fd5b81516001600160401b0380821115620005b357620005b36200053b565b604051601f8301601f19908116603f01168101908282118183101715620005de57620005de6200053b565b81604052838152866020858801011115620005f857600080fd5b6200060b84602083016020890162000551565b9695505050505050565b6000806000606084860312156200062b57600080fd5b83516001600160401b03808211156200064357600080fd5b620006518783880162000584565b945060208601519150808211156200066857600080fd5b50620006778682870162000584565b604086015190935090506001600160a01b03811681146200069757600080fd5b809150509250925092565b7f416363657373436f6e74726f6c3a206163636f756e7420000000000000000000815260008351620006dc81601785016020880162000551565b7001034b99036b4b9b9b4b733903937b6329607d1b60179184019182015283516200070f81602884016020880162000551565b01602801949350505050565b60208152600082518060208401526200073c81604085016020870162000551565b601f01601f19169190910160400192915050565b634e487b7160e01b600052601160045260246000fd5b600081600019048311821515161562000783576200078362000750565b500290565b600082198211156200079e576200079e62000750565b500190565b634e487b7160e01b600052603260045260246000fd5b600081620007cb57620007cb62000750565b506000190190565b600181811c90821680620007e857607f821691505b602082108114156200080a57634e487b7160e01b600052602260045260246000fd5b50919050565b613a7680620008206000396000f3fe608060405234801561001057600080fd5b50600436106101c25760003560e01c806301ffc9a7146101c757806306e54ceb146101ef57806306fdde0314610210578063081812fc14610225578063095ea7b31461024557806318160ddd1461025a5780631827b9551461026c57806323b872dd14610281578063248a9ca314610294578063289f6e33146102a75780632f2ff15d146102ba5780632f745c59146102cd57806336568abe146102e05780633f4ba83a146102f357806342842e0e146102fb57806342966c681461030e5780634f6ccce714610321578063563460e5146103345780635c975abb146103455780636352211e1461035057806370a08231146103635780638456cb591461037657806391d148541461037e57806395d89b41146103915780639a6ee03b146103995780639cac21b4146103ac5780639d58729e146103bf578063a217fddf146103d2578063a22cb465146103da578063b7ff6487146103ed578063b88d4fde14610400578063c87b56dd14610413578063d547741f14610426578063e63ab1e914610439578063e985e9c51461044e578063fab4fcc514610461578063fd4d496814610476578063ffa1ad7414610489575b600080fd5b6101da6101d5366004613073565b610491565b60405190151581526020015b60405180910390f35b6102026101fd366004613090565b6104a2565b6040516101e692919061316c565b61021861099c565b6040516101e69190613191565b610238610233366004613090565b610a2e565b6040516101e691906131a4565b6102586102533660046131dd565b610a55565b005b6008545b6040519081526020016101e6565b61025e6000805160206139c183398151915281565b61025861028f366004613209565b610b70565b61025e6102a2366004613090565b610ba2565b6102586102b536600461324a565b610bb7565b6102586102c8366004613267565b610bfc565b61025e6102db3660046131dd565b610c18565b6102586102ee366004613267565b610cae565b610258610d2c565b610258610309366004613209565b610d4f565b61025861031c366004613090565b610d6a565b61025e61032f366004613090565b610d98565b6010546001600160a01b0316610238565b600b5460ff166101da565b61023861035e366004613090565b610e2b565b61025e61037136600461324a565b610e5f565b610258610ee5565b6101da61038c366004613267565b610f05565b610218610f30565b6102186103a7366004613090565b610f3f565b6102026103ba366004613090565b610fe1565b6102586103cd366004613422565b61153e565b61025e600081565b6102586103e836600461349c565b61164e565b6102586103fb366004613422565b611659565b61025861040e3660046134ca565b6117c2565b610218610421366004613090565b6117fa565b610258610434366004613267565b611805565b61025e600080516020613a0183398151915281565b6101da61045c366004613549565b611821565b61025e6000805160206139e183398151915281565b61025e610484366004613577565b61184f565b610218611b88565b600061049c82611dca565b92915050565b6104aa612f66565b6104b2612f66565b6000805160206139c18339815191526104ca81611def565b60008481526014602090815260408083206015909252918290208251608081019093528154919290918390829082906105029061367d565b80601f016020809104026020016040519081016040528092919081815260200182805461052e9061367d565b801561057b5780601f106105505761010080835404028352916020019161057b565b820191906000526020600020905b81548152906001019060200180831161055e57829003601f168201915b505050505081526020016001820180546105949061367d565b80601f01602080910402602001604051908101604052809291908181526020018280546105c09061367d565b801561060d5780601f106105e25761010080835404028352916020019161060d565b820191906000526020600020905b8154815290600101906020018083116105f057829003601f168201915b505050505081526020016002820180546106269061367d565b80601f01602080910402602001604051908101604052809291908181526020018280546106529061367d565b801561069f5780601f106106745761010080835404028352916020019161069f565b820191906000526020600020905b81548152906001019060200180831161068257829003601f168201915b505050505081526020016003820180546106b89061367d565b80601f01602080910402602001604051908101604052809291908181526020018280546106e49061367d565b80156107315780601f1061070657610100808354040283529160200191610731565b820191906000526020600020905b81548152906001019060200180831161071457829003601f168201915b5050505050815250509150806040518060800160405290816000820180546107589061367d565b80601f01602080910402602001604051908101604052809291908181526020018280546107849061367d565b80156107d15780601f106107a6576101008083540402835291602001916107d1565b820191906000526020600020905b8154815290600101906020018083116107b457829003601f168201915b505050505081526020016001820180546107ea9061367d565b80601f01602080910402602001604051908101604052809291908181526020018280546108169061367d565b80156108635780601f1061083857610100808354040283529160200191610863565b820191906000526020600020905b81548152906001019060200180831161084657829003601f168201915b5050505050815260200160028201805461087c9061367d565b80601f01602080910402602001604051908101604052809291908181526020018280546108a89061367d565b80156108f55780601f106108ca576101008083540402835291602001916108f5565b820191906000526020600020905b8154815290600101906020018083116108d857829003601f168201915b5050505050815260200160038201805461090e9061367d565b80601f016020809104026020016040519081016040528092919081815260200182805461093a9061367d565b80156109875780601f1061095c57610100808354040283529160200191610987565b820191906000526020600020905b81548152906001019060200180831161096a57829003601f168201915b50505050508152505090509250925050915091565b6060600080546109ab9061367d565b80601f01602080910402602001604051908101604052809291908181526020018280546109d79061367d565b8015610a245780601f106109f957610100808354040283529160200191610a24565b820191906000526020600020905b815481529060010190602001808311610a0757829003601f168201915b5050505050905090565b6000610a3982611df9565b506000908152600460205260409020546001600160a01b031690565b6000610a6082610e2b565b9050806001600160a01b0316836001600160a01b03161415610ad35760405162461bcd60e51b815260206004820152602160248201527f4552433732313a20617070726f76616c20746f2063757272656e74206f776e656044820152603960f91b60648201526084015b60405180910390fd5b336001600160a01b0382161480610aef5750610aef8133611821565b610b615760405162461bcd60e51b815260206004820152603d60248201527f4552433732313a20617070726f76652063616c6c6572206973206e6f7420746f60448201527f6b656e206f776e6572206f7220617070726f76656420666f7220616c6c0000006064820152608401610aca565b610b6b8383611e1e565b505050565b610b7b335b82611e8c565b610b975760405162461bcd60e51b8152600401610aca906136b8565b610b6b838383611eeb565b6000908152600c602052604090206001015490565b6000805160206139e1833981519152610bcf81611def565b50600f80546001600160a01b039092166001600160a01b0319928316811790915560108054909216179055565b610c0582610ba2565b610c0e81611def565b610b6b8383612052565b6000610c2383610e5f565b8210610c855760405162461bcd60e51b815260206004820152602b60248201527f455243373231456e756d657261626c653a206f776e657220696e646578206f7560448201526a74206f6620626f756e647360a81b6064820152608401610aca565b506001600160a01b03919091166000908152600660209081526040808320938352929052205490565b6001600160a01b0381163314610d1e5760405162461bcd60e51b815260206004820152602f60248201527f416363657373436f6e74726f6c3a2063616e206f6e6c792072656e6f756e636560448201526e103937b632b9903337b91039b2b63360891b6064820152608401610aca565b610d2882826120d8565b5050565b600080516020613a01833981519152610d4481611def565b610d4c61213f565b50565b610b6b838383604051806020016040528060008152506117c2565b610d7333610b75565b610d8f5760405162461bcd60e51b8152600401610aca906136b8565b610d4c8161218b565b6000610da360085490565b8210610e065760405162461bcd60e51b815260206004820152602c60248201527f455243373231456e756d657261626c653a20676c6f62616c20696e646578206f60448201526b7574206f6620626f756e647360a01b6064820152608401610aca565b60088281548110610e1957610e19613705565b90600052602060002001549050919050565b600080610e378361221c565b90506001600160a01b03811661049c5760405162461bcd60e51b8152600401610aca9061371b565b60006001600160a01b038216610ec95760405162461bcd60e51b815260206004820152602960248201527f4552433732313a2061646472657373207a65726f206973206e6f7420612076616044820152683634b21037bbb732b960b91b6064820152608401610aca565b506001600160a01b031660009081526003602052604090205490565b600080516020613a01833981519152610efd81611def565b610d4c612237565b6000918252600c602090815260408084206001600160a01b0393909316845291905290205460ff1690565b6060600180546109ab9061367d565b6000818152601160205260409020805460609190610f5c9061367d565b80601f0160208091040260200160405190810160405280929190818152602001828054610f889061367d565b8015610fd55780601f10610faa57610100808354040283529160200191610fd5565b820191906000526020600020905b815481529060010190602001808311610fb857829003601f168201915b50505050509050919050565b610fe9612f66565b610ff1612f66565b610ffc335b84611e8c565b61106d5760405162461bcd60e51b815260206004820152603c60248201527f4552433732313a20676574546f6b656e4f776e657250726f6d70742063616c6c60448201527b195c881a5cc81b9bdd081bdddb995c881b9bdc88185c1c1c9bdd995960221b6064820152608401610aca565b60008381526012602090815260408083206013909252918290208251608081019093528154919290918390829082906110a59061367d565b80601f01602080910402602001604051908101604052809291908181526020018280546110d19061367d565b801561111e5780601f106110f35761010080835404028352916020019161111e565b820191906000526020600020905b81548152906001019060200180831161110157829003601f168201915b505050505081526020016001820180546111379061367d565b80601f01602080910402602001604051908101604052809291908181526020018280546111639061367d565b80156111b05780601f10611185576101008083540402835291602001916111b0565b820191906000526020600020905b81548152906001019060200180831161119357829003601f168201915b505050505081526020016002820180546111c99061367d565b80601f01602080910402602001604051908101604052809291908181526020018280546111f59061367d565b80156112425780601f1061121757610100808354040283529160200191611242565b820191906000526020600020905b81548152906001019060200180831161122557829003601f168201915b5050505050815260200160038201805461125b9061367d565b80601f01602080910402602001604051908101604052809291908181526020018280546112879061367d565b80156112d45780601f106112a9576101008083540402835291602001916112d4565b820191906000526020600020905b8154815290600101906020018083116112b757829003601f168201915b5050505050815250509150806040518060800160405290816000820180546112fb9061367d565b80601f01602080910402602001604051908101604052809291908181526020018280546113279061367d565b80156113745780601f1061134957610100808354040283529160200191611374565b820191906000526020600020905b81548152906001019060200180831161135757829003601f168201915b5050505050815260200160018201805461138d9061367d565b80601f01602080910402602001604051908101604052809291908181526020018280546113b99061367d565b80156114065780601f106113db57610100808354040283529160200191611406565b820191906000526020600020905b8154815290600101906020018083116113e957829003601f168201915b5050505050815260200160028201805461141f9061367d565b80601f016020809104026020016040519081016040528092919081815260200182805461144b9061367d565b80156114985780601f1061146d57610100808354040283529160200191611498565b820191906000526020600020905b81548152906001019060200180831161147b57829003601f168201915b505050505081526020016003820180546114b19061367d565b80601f01602080910402602001604051908101604052809291908181526020018280546114dd9061367d565b801561152a5780601f106114ff5761010080835404028352916020019161152a565b820191906000526020600020905b81548152906001019060200180831161150d57829003601f168201915b505050505081525050905091509150915091565b6000805160206139c183398151915261155681611def565b600084815260146020908152604090912084518051869361157b928492910190612f8e565b5060208281015180516115949260018501920190612f8e565b50604082015180516115b0916002840191602090910190612f8e565b50606082015180516115cc916003840191602090910190612f8e565b50505060008481526015602090815260409091208351805185936115f4928492910190612f8e565b50602082810151805161160d9260018501920190612f8e565b5060408201518051611629916002840191602090910190612f8e565b5060608201518051611645916003840191602090910190612f8e565b50505050505050565b610d28338383612274565b61166233610ff6565b6116cb5760405162461bcd60e51b815260206004820152603460248201527f4552433732313a20636c61696d50726f6d70742063616c6c6572206973206e6f6044820152731d081bdddb995c881b9bdc88185c1c1c9bdd995960621b6064820152608401610aca565b60008381526012602090815260409091208351805185936116f0928492910190612f8e565b5060208281015180516117099260018501920190612f8e565b5060408201518051611725916002840191602090910190612f8e565b5060608201518051611741916003840191602090910190612f8e565b5050506000838152601360209081526040909120825180518493611769928492910190612f8e565b5060208281015180516117829260018501920190612f8e565b506040820151805161179e916002840191602090910190612f8e565b50606082015180516117ba916003840191602090910190612f8e565b505050505050565b6117cc3383611e8c565b6117e85760405162461bcd60e51b8152600401610aca906136b8565b6117f48484848461233f565b50505050565b606061049c82612372565b61180e82610ba2565b61181781611def565b610b6b83836120d8565b6001600160a01b03918216600090815260056020908152604080832093909416825291909152205460ff1690565b600061185f600e80546001019055565b600061186a600e5490565b9050611876898261247b565b6118808189612495565b6000818152601160209081526040909120885161189f928a0190612f8e565b5060008181526012602090815260409091208751805189936118c5928492910190612f8e565b5060208281015180516118de9260018501920190612f8e565b50604082015180516118fa916002840191602090910190612f8e565b5060608201518051611916916003840191602090910190612f8e565b505050600081815260136020908152604090912086518051889361193e928492910190612f8e565b5060208281015180516119579260018501920190612f8e565b5060408201518051611973916002840191602090910190612f8e565b506060820151805161198f916003840191602090910190612f8e565b50505060008181526014602090815260409091208551805187936119b7928492910190612f8e565b5060208281015180516119d09260018501920190612f8e565b50604082015180516119ec916002840191602090910190612f8e565b5060608201518051611a08916003840191602090910190612f8e565b5050506000818152601560209081526040909120845180518693611a30928492910190612f8e565b506020828101518051611a499260018501920190612f8e565b5060408201518051611a65916002840191602090910190612f8e565b5060608201518051611a81916003840191602090910190612f8e565b5050600f546040516317a6b60960e01b815230600482015260248101849052600092506001600160a01b03909116906317a6b60990604401602060405180830381600087803b158015611ad357600080fd5b505af1158015611ae7573d6000803e3d6000fd5b505050506040513d601f19601f82011682018060405250810190611b0b919061374d565b905080611b7b5760405162461bcd60e51b815260206004820152603860248201527f43616c6c2072656769737465724e46542066756e6374696f6e206f662072656e6044820152773a26b0b935b2ba1031b7b73a3930b1ba103330b4b632b21760411b6064820152608401610aca565b5098975050505050505050565b600d8054611b959061367d565b80601f0160208091040260200160405190810160405280929190818152602001828054611bc19061367d565b8015611c0e5780601f10611be357610100808354040283529160200191611c0e565b820191906000526020600020905b815481529060010190602001808311611bf157829003601f168201915b505050505081565b606061049c6001600160a01b03831660145b60606000611c37836002613780565b611c4290600261379f565b6001600160401b03811115611c5957611c59613297565b6040519080825280601f01601f191660200182016040528015611c83576020820181803683370190505b509050600360fc1b81600081518110611c9e57611c9e613705565b60200101906001600160f81b031916908160001a905350600f60fb1b81600181518110611ccd57611ccd613705565b60200101906001600160f81b031916908160001a9053506000611cf1846002613780565b611cfc90600161379f565b90505b6001811115611d74576f181899199a1a9b1b9c1cb0b131b232b360811b85600f1660108110611d3057611d30613705565b1a60f81b828281518110611d4657611d46613705565b60200101906001600160f81b031916908160001a90535060049490941c93611d6d816137b7565b9050611cff565b508315611dc35760405162461bcd60e51b815260206004820181905260248201527f537472696e67733a20686578206c656e67746820696e73756666696369656e746044820152606401610aca565b9392505050565b60006001600160e01b03198216637965db0b60e01b148061049c575061049c82612520565b610d4c8133612545565b611e028161259e565b610d4c5760405162461bcd60e51b8152600401610aca9061371b565b600081815260046020526040902080546001600160a01b0319166001600160a01b0384169081179091558190611e5382610e2b565b6001600160a01b03167f8c5be1e5ebec7d5bd14f71427d1e84f3dd0314c0f7b2291e5b200ac8c7c3b92560405160405180910390a45050565b600080611e9883610e2b565b9050806001600160a01b0316846001600160a01b03161480611ebf5750611ebf8185611821565b80611ee35750836001600160a01b0316611ed884610a2e565b6001600160a01b0316145b949350505050565b826001600160a01b0316611efe82610e2b565b6001600160a01b031614611f245760405162461bcd60e51b8152600401610aca906137ce565b6001600160a01b038216611f865760405162461bcd60e51b8152602060048201526024808201527f4552433732313a207472616e7366657220746f20746865207a65726f206164646044820152637265737360e01b6064820152608401610aca565b611f9383838360016125bb565b826001600160a01b0316611fa682610e2b565b6001600160a01b031614611fcc5760405162461bcd60e51b8152600401610aca906137ce565b600081815260046020908152604080832080546001600160a01b03199081169091556001600160a01b038781168086526003855283862080546000190190559087168086528386208054600101905586865260029094528285208054909216841790915590518493600080516020613a2183398151915291a4610b6b83838360016125cf565b61205c8282610f05565b610d28576000828152600c602090815260408083206001600160a01b03851684529091529020805460ff191660011790556120943390565b6001600160a01b0316816001600160a01b0316837f2f8788117e7eff1d82e926ec794901d17c78024a50270940304540a733656f0d60405160405180910390a45050565b6120e28282610f05565b15610d28576000828152600c602090815260408083206001600160a01b0385168085529252808320805460ff1916905551339285917ff6391f5c32d9c69d2a47ea670b442974b53935d1edc7fd64eb21e047a839171b9190a45050565b61214761261a565b600b805460ff191690557f5db9ee0a495bf2e6ff9c91a7834c1ba4fdd244a5e8aa4e537bd38aeae4b073aa335b60405161218191906131a4565b60405180910390a1565b61219481612665565b6000818152601260205260408120906121ad8282613012565b6121bb600183016000613012565b6121c9600283016000613012565b6121d7600383016000613012565b50506000818152601460205260408120906121f28282613012565b612200600183016000613012565b61220e600283016000613012565b610b6b600383016000613012565b6000908152600260205260409020546001600160a01b031690565b61223f6126a5565b600b805460ff191660011790557f62e78cea01bee320cd4e420270b5ea74000d11b0c9f74754ebdbfc544b05a2586121743390565b816001600160a01b0316836001600160a01b031614156122d25760405162461bcd60e51b815260206004820152601960248201527822a9219b99189d1030b8383937bb32903a379031b0b63632b960391b6044820152606401610aca565b6001600160a01b03838116600081815260056020908152604080832094871680845294825291829020805460ff191686151590811790915591519182527f17307eab39ab6107e8899845ad3d59bd9653f200f220920489ca2b5937696c31910160405180910390a3505050565b61234a848484611eeb565b612356848484846126eb565b6117f45760405162461bcd60e51b8152600401610aca90613813565b606061237d82611df9565b6000828152600a6020526040812080546123969061367d565b80601f01602080910402602001604051908101604052809291908181526020018280546123c29061367d565b801561240f5780601f106123e45761010080835404028352916020019161240f565b820191906000526020600020905b8154815290600101906020018083116123f257829003601f168201915b50505050509050600061242d60408051602081019091526000815290565b9050805160001415612440575092915050565b81511561247257808260405160200161245a929190613865565b60405160208183030381529060405292505050919050565b611ee3846127f8565b610d2882826040518060200160405280600081525061286b565b61249e8261259e565b6125015760405162461bcd60e51b815260206004820152602e60248201527f45524337323155524953746f726167653a2055524920736574206f66206e6f6e60448201526d32bc34b9ba32b73a103a37b5b2b760911b6064820152608401610aca565b6000828152600a602090815260409091208251610b6b92840190612f8e565b60006001600160e01b0319821663780e9d6360e01b148061049c575061049c8261289e565b61254f8282610f05565b610d285761255c81611c16565b612567836020611c28565b604051602001612578929190613894565b60408051601f198184030181529082905262461bcd60e51b8252610aca91600401613191565b6000806125aa8361221c565b6001600160a01b0316141592915050565b6125c36126a5565b6117f4848484846128ee565b6125d76126a5565b6000828152601260205260408120906125f08282613012565b6125fe600183016000613012565b61260c600283016000613012565b6117ba600383016000613012565b600b5460ff166126635760405162461bcd60e51b815260206004820152601460248201527314185d5cd8589b194e881b9bdd081c185d5cd95960621b6044820152606401610aca565b565b61266e81612a2e565b6000818152600a6020526040902080546126879061367d565b159050610d4c576000818152600a60205260408120610d4c91613012565b600b5460ff16156126635760405162461bcd60e51b815260206004820152601060248201526f14185d5cd8589b194e881c185d5cd95960821b6044820152606401610aca565b60006001600160a01b0384163b156127ed57604051630a85bd0160e11b81526001600160a01b0385169063150b7a029061272f903390899088908890600401613903565b602060405180830381600087803b15801561274957600080fd5b505af1925050508015612779575060408051601f3d908101601f1916820190925261277691810190613940565b60015b6127d3573d8080156127a7576040519150601f19603f3d011682016040523d82523d6000602084013e6127ac565b606091505b5080516127cb5760405162461bcd60e51b8152600401610aca90613813565b805181602001fd5b6001600160e01b031916630a85bd0160e11b149050611ee3565b506001949350505050565b606061280382611df9565b600061281a60408051602081019091526000815290565b9050600081511161283a5760405180602001604052806000815250611dc3565b8061284484612ac9565b604051602001612855929190613865565b6040516020818303038152906040529392505050565b6128758383612b65565b61288260008484846126eb565b610b6b5760405162461bcd60e51b8152600401610aca90613813565b60006001600160e01b031982166380ac58cd60e01b14806128cf57506001600160e01b03198216635b5e139f60e01b145b8061049c57506301ffc9a760e01b6001600160e01b031983161461049c565b6128fa84848484612c78565b60018111156129695760405162461bcd60e51b815260206004820152603560248201527f455243373231456e756d657261626c653a20636f6e7365637574697665207472604482015274185b9cd9995c9cc81b9bdd081cdd5c1c1bdc9d1959605a1b6064820152608401610aca565b816001600160a01b0385166129c5576129c081600880546000838152600960205260408120829055600182018355919091527ff3f7a9fe364faab93b216da50a3214154f22a0a2b415b23a84c8169e8b636ee30155565b6129e8565b836001600160a01b0316856001600160a01b0316146129e8576129e88582612d00565b6001600160a01b038416612a04576129ff81612d9d565b612a27565b846001600160a01b0316846001600160a01b031614612a2757612a278482612e4c565b5050505050565b6000612a3982610e2b565b9050612a498160008460016125bb565b612a5282610e2b565b600083815260046020908152604080832080546001600160a01b03199081169091556001600160a01b038516808552600384528285208054600019019055878552600290935281842080549091169055519293508492600080516020613a21833981519152908390a4610d288160008460016125cf565b60606000612ad683612e90565b60010190506000816001600160401b03811115612af557612af5613297565b6040519080825280601f01601f191660200182016040528015612b1f576020820181803683370190505b5090508181016020015b600019016f181899199a1a9b1b9c1cb0b131b232b360811b600a86061a8153600a8504945084612b5857612b5d565b612b29565b509392505050565b6001600160a01b038216612bbb5760405162461bcd60e51b815260206004820181905260248201527f4552433732313a206d696e7420746f20746865207a65726f20616464726573736044820152606401610aca565b612bc48161259e565b15612be15760405162461bcd60e51b8152600401610aca9061395d565b612bef6000838360016125bb565b612bf88161259e565b15612c155760405162461bcd60e51b8152600401610aca9061395d565b6001600160a01b038216600081815260036020908152604080832080546001019055848352600290915280822080546001600160a01b031916841790555183929190600080516020613a21833981519152908290a4610d286000838360016125cf565b60018111156117f4576001600160a01b03841615612cbe576001600160a01b03841660009081526003602052604081208054839290612cb8908490613993565b90915550505b6001600160a01b038316156117f4576001600160a01b03831660009081526003602052604081208054839290612cf590849061379f565b909155505050505050565b60006001612d0d84610e5f565b612d179190613993565b600083815260076020526040902054909150808214612d6a576001600160a01b03841660009081526006602090815260408083208584528252808320548484528184208190558352600790915290208190555b5060009182526007602090815260408084208490556001600160a01b039094168352600681528383209183525290812055565b600854600090612daf90600190613993565b60008381526009602052604081205460088054939450909284908110612dd757612dd7613705565b906000526020600020015490508060088381548110612df857612df8613705565b6000918252602080832090910192909255828152600990915260408082208490558582528120556008805480612e3057612e306139aa565b6001900381819060005260206000200160009055905550505050565b6000612e5783610e5f565b6001600160a01b039093166000908152600660209081526040808320868452825280832085905593825260079052919091209190915550565b60008072184f03e93ff9f4daa797ed6e38ed64bf6a1f0160401b8310612ecf5772184f03e93ff9f4daa797ed6e38ed64bf6a1f0160401b830492506040015b6904ee2d6d415b85acef8160201b8310612ef9576904ee2d6d415b85acef8160201b830492506020015b662386f26fc100008310612f1757662386f26fc10000830492506010015b6305f5e1008310612f2f576305f5e100830492506008015b6127108310612f4357612710830492506004015b60648310612f55576064830492506002015b600a831061049c5760010192915050565b6040518060800160405280606081526020016060815260200160608152602001606081525090565b828054612f9a9061367d565b90600052602060002090601f016020900481019282612fbc5760008555613002565b82601f10612fd557805160ff1916838001178555613002565b82800160010185558215613002579182015b82811115613002578251825591602001919060010190612fe7565b5061300e929150613048565b5090565b50805461301e9061367d565b6000825580601f1061302e575050565b601f016020900490600052602060002090810190610d4c91905b5b8082111561300e5760008155600101613049565b6001600160e01b031981168114610d4c57600080fd5b60006020828403121561308557600080fd5b8135611dc38161305d565b6000602082840312156130a257600080fd5b5035919050565b60005b838110156130c45781810151838201526020016130ac565b838111156117f45750506000910152565b600081518084526130ed8160208601602086016130a9565b601f01601f19169290920160200192915050565b600081516080845261311660808501826130d5565b90506020830151848203602086015261312f82826130d5565b9150506040830151848203604086015261314982826130d5565b9150506060830151848203606086015261316382826130d5565b95945050505050565b60408152600061317f6040830185613101565b82810360208401526131638185613101565b602081526000611dc360208301846130d5565b6001600160a01b0391909116815260200190565b6001600160a01b0381168114610d4c57600080fd5b80356131d8816131b8565b919050565b600080604083850312156131f057600080fd5b82356131fb816131b8565b946020939093013593505050565b60008060006060848603121561321e57600080fd5b8335613229816131b8565b92506020840135613239816131b8565b929592945050506040919091013590565b60006020828403121561325c57600080fd5b8135611dc3816131b8565b6000806040838503121561327a57600080fd5b82359150602083013561328c816131b8565b809150509250929050565b634e487b7160e01b600052604160045260246000fd5b604051608081016001600160401b03811182821017156132cf576132cf613297565b60405290565b60006001600160401b03808411156132ef576132ef613297565b604051601f8501601f19908116603f0116810190828211818310171561331757613317613297565b8160405280935085815286868601111561333057600080fd5b858560208301376000602087830101525050509392505050565b600082601f83011261335b57600080fd5b611dc3838335602085016132d5565b60006080828403121561337c57600080fd5b6133846132ad565b905081356001600160401b038082111561339d57600080fd5b6133a98583860161334a565b835260208401359150808211156133bf57600080fd5b6133cb8583860161334a565b602084015260408401359150808211156133e457600080fd5b6133f08583860161334a565b6040840152606084013591508082111561340957600080fd5b506134168482850161334a565b60608301525092915050565b60008060006060848603121561343757600080fd5b8335925060208401356001600160401b038082111561345557600080fd5b6134618783880161336a565b9350604086013591508082111561347757600080fd5b506134848682870161336a565b9150509250925092565b8015158114610d4c57600080fd5b600080604083850312156134af57600080fd5b82356134ba816131b8565b9150602083013561328c8161348e565b600080600080608085870312156134e057600080fd5b84356134eb816131b8565b935060208501356134fb816131b8565b92506040850135915060608501356001600160401b0381111561351d57600080fd5b8501601f8101871361352e57600080fd5b61353d878235602084016132d5565b91505092959194509250565b6000806040838503121561355c57600080fd5b8235613567816131b8565b9150602083013561328c816131b8565b600080600080600080600060e0888a03121561359257600080fd5b61359b886131cd565b965060208801356001600160401b03808211156135b757600080fd5b6135c38b838c0161334a565b975060408a01359150808211156135d957600080fd5b6135e58b838c0161334a565b965060608a01359150808211156135fb57600080fd5b6136078b838c0161336a565b955060808a013591508082111561361d57600080fd5b6136298b838c0161336a565b945060a08a013591508082111561363f57600080fd5b61364b8b838c0161336a565b935060c08a013591508082111561366157600080fd5b5061366e8a828b0161336a565b91505092959891949750929550565b600181811c9082168061369157607f821691505b602082108114156136b257634e487b7160e01b600052602260045260246000fd5b50919050565b6020808252602d908201527f4552433732313a2063616c6c6572206973206e6f7420746f6b656e206f776e6560408201526c1c881bdc88185c1c1c9bdd9959609a1b606082015260800190565b634e487b7160e01b600052603260045260246000fd5b602080825260189082015277115490cdcc8c4e881a5b9d985b1a59081d1bdad95b88125160421b604082015260600190565b60006020828403121561375f57600080fd5b8151611dc38161348e565b634e487b7160e01b600052601160045260246000fd5b600081600019048311821515161561379a5761379a61376a565b500290565b600082198211156137b2576137b261376a565b500190565b6000816137c6576137c661376a565b506000190190565b60208082526025908201527f4552433732313a207472616e736665722066726f6d20696e636f72726563742060408201526437bbb732b960d91b606082015260800190565b60208082526032908201527f4552433732313a207472616e7366657220746f206e6f6e20455243373231526560408201527131b2b4bb32b91034b6b83632b6b2b73a32b960711b606082015260800190565b600083516138778184602088016130a9565b83519083019061388b8183602088016130a9565b01949350505050565b76020b1b1b2b9b9a1b7b73a3937b61d1030b1b1b7bab73a1604d1b8152600083516138c68160178501602088016130a9565b7001034b99036b4b9b9b4b733903937b6329607d1b60179184019182015283516138f78160288401602088016130a9565b01602801949350505050565b6001600160a01b0385811682528416602082015260408101839052608060608201819052600090613936908301846130d5565b9695505050505050565b60006020828403121561395257600080fd5b8151611dc38161305d565b6020808252601c908201527b115490cdcc8c4e881d1bdad95b88185b1c9958591e481b5a5b9d195960221b604082015260600190565b6000828210156139a5576139a561376a565b500390565b634e487b7160e01b600052603160045260246000fdfed0643f51bd184a6a394cdade44604c05442b11e696dabba32ec676f5e962b8356310cf9c937bcad92df0897b8ab11d37ff788bec126c5807fb57fb0423e3f40d65d7a28e3265b37a6474929f336521b332c1681b933f6cb9f3376673440d862addf252ad1be2c89b69c2b068fc378daa952ba7f163c4a11628f55a4df523b3efa2646970667358221220a708bb05193fc4329f1c294db86d8aecf8ad77d4c8a88653ceba39d9675c5e0464736f6c634300080900336310cf9c937bcad92df0897b8ab11d37ff788bec126c5807fb57fb0423e3f40d",
  "linkReferences": {},
  "deployedLinkReferences": {}
}