{
  "_format": "hh-sol-artifact-1",
  "contractName": "promptNFT",
  "sourceName": "contracts/promptNFT.sol",
  "abi": [
    {
      "inputs": [
        {
          "internalType": "string",
          "name": "name_",
          "type": "string"
        },
        {
          "internalType": "string",
          "name": "symbol_",
          "type": "string"
        },
        {
          "internalType": "address payable",
          "name": "rentMarketContractAddress_",
          "type": "address"
        }
      ],
      "stateMutability": "nonpayable",
      "type": "constructor"
    },
    {
      "anonymous": false,
      "inputs": [
        {
          "indexed": true,
          "internalType": "address",
          "name": "owner",
          "type": "address"
        },
        {
          "indexed": true,
          "internalType": "address",
          "name": "approved",
          "type": "address"
        },
        {
          "indexed": true,
          "internalType": "uint256",
          "name": "tokenId",
          "type": "uint256"
        }
      ],
      "name": "Approval",
      "type": "event"
    },
    {
      "anonymous": false,
      "inputs": [
        {
          "indexed": true,
          "internalType": "address",
          "name": "owner",
          "type": "address"
        },
        {
          "indexed": true,
          "internalType": "address",
          "name": "operator",
          "type": "address"
        },
        {
          "indexed": false,
          "internalType": "bool",
          "name": "approved",
          "type": "bool"
        }
      ],
      "name": "ApprovalForAll",
      "type": "event"
    },
    {
      "anonymous": false,
      "inputs": [
        {
          "indexed": false,
          "internalType": "uint256",
          "name": "_fromTokenId",
          "type": "uint256"
        },
        {
          "indexed": false,
          "internalType": "uint256",
          "name": "_toTokenId",
          "type": "uint256"
        }
      ],
      "name": "BatchMetadataUpdate",
      "type": "event"
    },
    {
      "anonymous": false,
      "inputs": [
        {
          "indexed": false,
          "internalType": "uint256",
          "name": "_tokenId",
          "type": "uint256"
        }
      ],
      "name": "MetadataUpdate",
      "type": "event"
    },
    {
      "anonymous": false,
      "inputs": [
        {
          "indexed": false,
          "internalType": "address",
          "name": "account",
          "type": "address"
        }
      ],
      "name": "Paused",
      "type": "event"
    },
    {
      "anonymous": false,
      "inputs": [
        {
          "indexed": true,
          "internalType": "bytes32",
          "name": "role",
          "type": "bytes32"
        },
        {
          "indexed": true,
          "internalType": "bytes32",
          "name": "previousAdminRole",
          "type": "bytes32"
        },
        {
          "indexed": true,
          "internalType": "bytes32",
          "name": "newAdminRole",
          "type": "bytes32"
        }
      ],
      "name": "RoleAdminChanged",
      "type": "event"
    },
    {
      "anonymous": false,
      "inputs": [
        {
          "indexed": true,
          "internalType": "bytes32",
          "name": "role",
          "type": "bytes32"
        },
        {
          "indexed": true,
          "internalType": "address",
          "name": "account",
          "type": "address"
        },
        {
          "indexed": true,
          "internalType": "address",
          "name": "sender",
          "type": "address"
        }
      ],
      "name": "RoleGranted",
      "type": "event"
    },
    {
      "anonymous": false,
      "inputs": [
        {
          "indexed": true,
          "internalType": "bytes32",
          "name": "role",
          "type": "bytes32"
        },
        {
          "indexed": true,
          "internalType": "address",
          "name": "account",
          "type": "address"
        },
        {
          "indexed": true,
          "internalType": "address",
          "name": "sender",
          "type": "address"
        }
      ],
      "name": "RoleRevoked",
      "type": "event"
    },
    {
      "anonymous": false,
      "inputs": [
        {
          "indexed": true,
          "internalType": "address",
          "name": "from",
          "type": "address"
        },
        {
          "indexed": true,
          "internalType": "address",
          "name": "to",
          "type": "address"
        },
        {
          "indexed": true,
          "internalType": "uint256",
          "name": "tokenId",
          "type": "uint256"
        }
      ],
      "name": "Transfer",
      "type": "event"
    },
    {
      "anonymous": false,
      "inputs": [
        {
          "indexed": false,
          "internalType": "address",
          "name": "account",
          "type": "address"
        }
      ],
      "name": "Unpaused",
      "type": "event"
    },
    {
      "inputs": [],
      "name": "CHANGER_ROLE",
      "outputs": [
        {
          "internalType": "bytes32",
          "name": "",
          "type": "bytes32"
        }
      ],
      "stateMutability": "view",
      "type": "function"
    },
    {
      "inputs": [],
      "name": "DEFAULT_ADMIN_ROLE",
      "outputs": [
        {
          "internalType": "bytes32",
          "name": "",
          "type": "bytes32"
        }
      ],
      "stateMutability": "view",
      "type": "function"
    },
    {
      "inputs": [],
      "name": "PAUSER_ROLE",
      "outputs": [
        {
          "internalType": "bytes32",
          "name": "",
          "type": "bytes32"
        }
      ],
      "stateMutability": "view",
      "type": "function"
    },
    {
      "inputs": [],
      "name": "PROMPTER_ROLE",
      "outputs": [
        {
          "internalType": "bytes32",
          "name": "",
          "type": "bytes32"
        }
      ],
      "stateMutability": "view",
      "type": "function"
    },
    {
      "inputs": [],
      "name": "VERSION",
      "outputs": [
        {
          "internalType": "string",
          "name": "",
          "type": "string"
        }
      ],
      "stateMutability": "view",
      "type": "function"
    },
    {
      "inputs": [
        {
          "internalType": "address",
          "name": "to",
          "type": "address"
        },
        {
          "internalType": "uint256",
          "name": "tokenId",
          "type": "uint256"
        }
      ],
      "name": "approve",
      "outputs": [],
      "stateMutability": "nonpayable",
      "type": "function"
    },
    {
      "inputs": [
        {
          "internalType": "address",
          "name": "owner",
          "type": "address"
        }
      ],
      "name": "balanceOf",
      "outputs": [
        {
          "internalType": "uint256",
          "name": "",
          "type": "uint256"
        }
      ],
      "stateMutability": "view",
      "type": "function"
    },
    {
      "inputs": [
        {
          "internalType": "uint256",
          "name": "tokenId",
          "type": "uint256"
        }
      ],
      "name": "burn",
      "outputs": [],
      "stateMutability": "nonpayable",
      "type": "function"
    },
    {
      "inputs": [
        {
          "internalType": "address payable",
          "name": "rentMarketContractAddress_",
          "type": "address"
        }
      ],
      "name": "changeRentMarketContract",
      "outputs": [],
      "stateMutability": "nonpayable",
      "type": "function"
    },
    {
      "inputs": [
        {
          "internalType": "uint256",
          "name": "tokenId",
          "type": "uint256"
        },
        {
          "components": [
            {
              "internalType": "string",
              "name": "version",
              "type": "string"
            },
            {
              "internalType": "string",
              "name": "ephemPublicKey",
              "type": "string"
            },
            {
              "internalType": "string",
              "name": "nonce",
              "type": "string"
            },
            {
              "internalType": "string",
              "name": "ciphertext",
              "type": "string"
            }
          ],
          "internalType": "struct promptNFT.encryptData",
          "name": "contractOwnerEncryptPromptData",
          "type": "tuple"
        },
        {
          "components": [
            {
              "internalType": "string",
              "name": "version",
              "type": "string"
            },
            {
              "internalType": "string",
              "name": "ephemPublicKey",
              "type": "string"
            },
            {
              "internalType": "string",
              "name": "nonce",
              "type": "string"
            },
            {
              "internalType": "string",
              "name": "ciphertext",
              "type": "string"
            }
          ],
          "internalType": "struct promptNFT.encryptData",
          "name": "contractOwnerEncryptNegativePromptData",
          "type": "tuple"
        }
      ],
      "name": "claimContractOwnerPrompt",
      "outputs": [],
      "stateMutability": "nonpayable",
      "type": "function"
    },
    {
      "inputs": [
        {
          "internalType": "uint256",
          "name": "tokenId",
          "type": "uint256"
        },
        {
          "components": [
            {
              "internalType": "string",
              "name": "version",
              "type": "string"
            },
            {
              "internalType": "string",
              "name": "ephemPublicKey",
              "type": "string"
            },
            {
              "internalType": "string",
              "name": "nonce",
              "type": "string"
            },
            {
              "internalType": "string",
              "name": "ciphertext",
              "type": "string"
            }
          ],
          "internalType": "struct promptNFT.encryptData",
          "name": "tokenOwnerEncryptPromptData",
          "type": "tuple"
        },
        {
          "components": [
            {
              "internalType": "string",
              "name": "version",
              "type": "string"
            },
            {
              "internalType": "string",
              "name": "ephemPublicKey",
              "type": "string"
            },
            {
              "internalType": "string",
              "name": "nonce",
              "type": "string"
            },
            {
              "internalType": "string",
              "name": "ciphertext",
              "type": "string"
            }
          ],
          "internalType": "struct promptNFT.encryptData",
          "name": "tokenOwnerEncryptNegativePromptData",
          "type": "tuple"
        }
      ],
      "name": "claimTokenOwnerPrompt",
      "outputs": [],
      "stateMutability": "nonpayable",
      "type": "function"
    },
    {
      "inputs": [
        {
          "internalType": "uint256",
          "name": "tokenId",
          "type": "uint256"
        }
      ],
      "name": "getApproved",
      "outputs": [
        {
          "internalType": "address",
          "name": "",
          "type": "address"
        }
      ],
      "stateMutability": "view",
      "type": "function"
    },
    {
      "inputs": [
        {
          "internalType": "uint256",
          "name": "tokenId",
          "type": "uint256"
        }
      ],
      "name": "getContractOwnerPrompt",
      "outputs": [
        {
          "components": [
            {
              "internalType": "string",
              "name": "version",
              "type": "string"
            },
            {
              "internalType": "string",
              "name": "ephemPublicKey",
              "type": "string"
            },
            {
              "internalType": "string",
              "name": "nonce",
              "type": "string"
            },
            {
              "internalType": "string",
              "name": "ciphertext",
              "type": "string"
            }
          ],
          "internalType": "struct promptNFT.encryptData",
          "name": "",
          "type": "tuple"
        },
        {
          "components": [
            {
              "internalType": "string",
              "name": "version",
              "type": "string"
            },
            {
              "internalType": "string",
              "name": "ephemPublicKey",
              "type": "string"
            },
            {
              "internalType": "string",
              "name": "nonce",
              "type": "string"
            },
            {
              "internalType": "string",
              "name": "ciphertext",
              "type": "string"
            }
          ],
          "internalType": "struct promptNFT.encryptData",
          "name": "",
          "type": "tuple"
        }
      ],
      "stateMutability": "view",
      "type": "function"
    },
    {
      "inputs": [
        {
          "internalType": "uint256",
          "name": "tokenId",
          "type": "uint256"
        }
      ],
      "name": "getModelName",
      "outputs": [
        {
          "internalType": "string",
          "name": "",
          "type": "string"
        }
      ],
      "stateMutability": "view",
      "type": "function"
    },
    {
      "inputs": [],
      "name": "getRentMarketContractAddress",
      "outputs": [
        {
          "internalType": "address",
          "name": "",
          "type": "address"
        }
      ],
      "stateMutability": "view",
      "type": "function"
    },
    {
      "inputs": [
        {
          "internalType": "bytes32",
          "name": "role",
          "type": "bytes32"
        }
      ],
      "name": "getRoleAdmin",
      "outputs": [
        {
          "internalType": "bytes32",
          "name": "",
          "type": "bytes32"
        }
      ],
      "stateMutability": "view",
      "type": "function"
    },
    {
      "inputs": [
        {
          "internalType": "uint256",
          "name": "tokenId",
          "type": "uint256"
        }
      ],
      "name": "getTokenOwnerPrompt",
      "outputs": [
        {
          "components": [
            {
              "internalType": "string",
              "name": "version",
              "type": "string"
            },
            {
              "internalType": "string",
              "name": "ephemPublicKey",
              "type": "string"
            },
            {
              "internalType": "string",
              "name": "nonce",
              "type": "string"
            },
            {
              "internalType": "string",
              "name": "ciphertext",
              "type": "string"
            }
          ],
          "internalType": "struct promptNFT.encryptData",
          "name": "",
          "type": "tuple"
        },
        {
          "components": [
            {
              "internalType": "string",
              "name": "version",
              "type": "string"
            },
            {
              "internalType": "string",
              "name": "ephemPublicKey",
              "type": "string"
            },
            {
              "internalType": "string",
              "name": "nonce",
              "type": "string"
            },
            {
              "internalType": "string",
              "name": "ciphertext",
              "type": "string"
            }
          ],
          "internalType": "struct promptNFT.encryptData",
          "name": "",
          "type": "tuple"
        }
      ],
      "stateMutability": "view",
      "type": "function"
    },
    {
      "inputs": [
        {
          "internalType": "bytes32",
          "name": "role",
          "type": "bytes32"
        },
        {
          "internalType": "address",
          "name": "account",
          "type": "address"
        }
      ],
      "name": "grantRole",
      "outputs": [],
      "stateMutability": "nonpayable",
      "type": "function"
    },
    {
      "inputs": [
        {
          "internalType": "bytes32",
          "name": "role",
          "type": "bytes32"
        },
        {
          "internalType": "address",
          "name": "account",
          "type": "address"
        }
      ],
      "name": "hasRole",
      "outputs": [
        {
          "internalType": "bool",
          "name": "",
          "type": "bool"
        }
      ],
      "stateMutability": "view",
      "type": "function"
    },
    {
      "inputs": [
        {
          "internalType": "address",
          "name": "owner",
          "type": "address"
        },
        {
          "internalType": "address",
          "name": "operator",
          "type": "address"
        }
      ],
      "name": "isApprovedForAll",
      "outputs": [
        {
          "internalType": "bool",
          "name": "",
          "type": "bool"
        }
      ],
      "stateMutability": "view",
      "type": "function"
    },
    {
      "inputs": [],
      "name": "name",
      "outputs": [
        {
          "internalType": "string",
          "name": "",
          "type": "string"
        }
      ],
      "stateMutability": "view",
      "type": "function"
    },
    {
      "inputs": [
        {
          "internalType": "uint256",
          "name": "tokenId",
          "type": "uint256"
        }
      ],
      "name": "ownerOf",
      "outputs": [
        {
          "internalType": "address",
          "name": "",
          "type": "address"
        }
      ],
      "stateMutability": "view",
      "type": "function"
    },
    {
      "inputs": [],
      "name": "pause",
      "outputs": [],
      "stateMutability": "nonpayable",
      "type": "function"
    },
    {
      "inputs": [],
      "name": "paused",
      "outputs": [
        {
          "internalType": "bool",
          "name": "",
          "type": "bool"
        }
      ],
      "stateMutability": "view",
      "type": "function"
    },
    {
      "inputs": [
        {
          "internalType": "bytes32",
          "name": "role",
          "type": "bytes32"
        },
        {
          "internalType": "address",
          "name": "account",
          "type": "address"
        }
      ],
      "name": "renounceRole",
      "outputs": [],
      "stateMutability": "nonpayable",
      "type": "function"
    },
    {
      "inputs": [
        {
          "internalType": "bytes32",
          "name": "role",
          "type": "bytes32"
        },
        {
          "internalType": "address",
          "name": "account",
          "type": "address"
        }
      ],
      "name": "revokeRole",
      "outputs": [],
      "stateMutability": "nonpayable",
      "type": "function"
    },
    {
      "inputs": [
        {
          "internalType": "address",
          "name": "to_",
          "type": "address"
        },
        {
          "internalType": "string",
          "name": "uri_",
          "type": "string"
        },
        {
          "internalType": "string",
          "name": "modelName_",
          "type": "string"
        },
        {
          "components": [
            {
              "internalType": "string",
              "name": "version",
              "type": "string"
            },
            {
              "internalType": "string",
              "name": "ephemPublicKey",
              "type": "string"
            },
            {
              "internalType": "string",
              "name": "nonce",
              "type": "string"
            },
            {
              "internalType": "string",
              "name": "ciphertext",
              "type": "string"
            }
          ],
          "internalType": "struct promptNFT.encryptData",
          "name": "tokenOwnerEncryptPromptData_",
          "type": "tuple"
        },
        {
          "components": [
            {
              "internalType": "string",
              "name": "version",
              "type": "string"
            },
            {
              "internalType": "string",
              "name": "ephemPublicKey",
              "type": "string"
            },
            {
              "internalType": "string",
              "name": "nonce",
              "type": "string"
            },
            {
              "internalType": "string",
              "name": "ciphertext",
              "type": "string"
            }
          ],
          "internalType": "struct promptNFT.encryptData",
          "name": "tokenOwnerEncryptNegativePromptData_",
          "type": "tuple"
        },
        {
          "components": [
            {
              "internalType": "string",
              "name": "version",
              "type": "string"
            },
            {
              "internalType": "string",
              "name": "ephemPublicKey",
              "type": "string"
            },
            {
              "internalType": "string",
              "name": "nonce",
              "type": "string"
            },
            {
              "internalType": "string",
              "name": "ciphertext",
              "type": "string"
            }
          ],
          "internalType": "struct promptNFT.encryptData",
          "name": "contractOwnerEncryptPromptData_",
          "type": "tuple"
        },
        {
          "components": [
            {
              "internalType": "string",
              "name": "version",
              "type": "string"
            },
            {
              "internalType": "string",
              "name": "ephemPublicKey",
              "type": "string"
            },
            {
              "internalType": "string",
              "name": "nonce",
              "type": "string"
            },
            {
              "internalType": "string",
              "name": "ciphertext",
              "type": "string"
            }
          ],
          "internalType": "struct promptNFT.encryptData",
          "name": "contractOwnerEncryptNegativePromptData_",
          "type": "tuple"
        }
      ],
      "name": "safeMint",
      "outputs": [
        {
          "internalType": "uint256",
          "name": "",
          "type": "uint256"
        }
      ],
      "stateMutability": "nonpayable",
      "type": "function"
    },
    {
      "inputs": [
        {
          "internalType": "address",
          "name": "from",
          "type": "address"
        },
        {
          "internalType": "address",
          "name": "to",
          "type": "address"
        },
        {
          "internalType": "uint256",
          "name": "tokenId",
          "type": "uint256"
        }
      ],
      "name": "safeTransferFrom",
      "outputs": [],
      "stateMutability": "nonpayable",
      "type": "function"
    },
    {
      "inputs": [
        {
          "internalType": "address",
          "name": "from",
          "type": "address"
        },
        {
          "internalType": "address",
          "name": "to",
          "type": "address"
        },
        {
          "internalType": "uint256",
          "name": "tokenId",
          "type": "uint256"
        },
        {
          "internalType": "bytes",
          "name": "data",
          "type": "bytes"
        }
      ],
      "name": "safeTransferFrom",
      "outputs": [],
      "stateMutability": "nonpayable",
      "type": "function"
    },
    {
      "inputs": [
        {
          "internalType": "address",
          "name": "operator",
          "type": "address"
        },
        {
          "internalType": "bool",
          "name": "approved",
          "type": "bool"
        }
      ],
      "name": "setApprovalForAll",
      "outputs": [],
      "stateMutability": "nonpayable",
      "type": "function"
    },
    {
      "inputs": [
        {
          "internalType": "bytes4",
          "name": "interfaceId",
          "type": "bytes4"
        }
      ],
      "name": "supportsInterface",
      "outputs": [
        {
          "internalType": "bool",
          "name": "",
          "type": "bool"
        }
      ],
      "stateMutability": "view",
      "type": "function"
    },
    {
      "inputs": [],
      "name": "symbol",
      "outputs": [
        {
          "internalType": "string",
          "name": "",
          "type": "string"
        }
      ],
      "stateMutability": "view",
      "type": "function"
    },
    {
      "inputs": [
        {
          "internalType": "uint256",
          "name": "index",
          "type": "uint256"
        }
      ],
      "name": "tokenByIndex",
      "outputs": [
        {
          "internalType": "uint256",
          "name": "",
          "type": "uint256"
        }
      ],
      "stateMutability": "view",
      "type": "function"
    },
    {
      "inputs": [
        {
          "internalType": "address",
          "name": "owner",
          "type": "address"
        },
        {
          "internalType": "uint256",
          "name": "index",
          "type": "uint256"
        }
      ],
      "name": "tokenOfOwnerByIndex",
      "outputs": [
        {
          "internalType": "uint256",
          "name": "",
          "type": "uint256"
        }
      ],
      "stateMutability": "view",
      "type": "function"
    },
    {
      "inputs": [
        {
          "internalType": "uint256",
          "name": "tokenId",
          "type": "uint256"
        }
      ],
      "name": "tokenURI",
      "outputs": [
        {
          "internalType": "string",
          "name": "",
          "type": "string"
        }
      ],
      "stateMutability": "view",
      "type": "function"
    },
    {
      "inputs": [],
      "name": "totalSupply",
      "outputs": [
        {
          "internalType": "uint256",
          "name": "",
          "type": "uint256"
        }
      ],
      "stateMutability": "view",
      "type": "function"
    },
    {
      "inputs": [
        {
          "internalType": "address",
          "name": "from",
          "type": "address"
        },
        {
          "internalType": "address",
          "name": "to",
          "type": "address"
        },
        {
          "internalType": "uint256",
          "name": "tokenId",
          "type": "uint256"
        }
      ],
      "name": "transferFrom",
      "outputs": [],
      "stateMutability": "nonpayable",
      "type": "function"
    },
    {
      "inputs": [],
      "name": "unpause",
      "outputs": [],
      "stateMutability": "nonpayable",
      "type": "function"
    }
  ],
  "bytecode": "0x60c06040526005608081905264302e302e3560d81b60a09081526200002891600d919062000495565b503480156200003657600080fd5b506040516200427f3803806200427f833981016040819052620000599162000615565b8251839083906200007290600090602085019062000495565b5080516200008890600190602084019062000495565b5050600b805460ff1916905550620000a260003362000129565b620000ce7f65d7a28e3265b37a6474929f336521b332c1681b933f6cb9f3376673440d862a3362000129565b620000e96000805160206200425f8339815191523362000129565b620001157fd0643f51bd184a6a394cdade44604c05442b11e696dabba32ec676f5e962b8353362000129565b6200012081620001b4565b50505062000810565b620001358282620001fc565b620001b0576000828152600c602090815260408083206001600160a01b03851684529091529020805460ff191660011790556200016f3390565b6001600160a01b0316816001600160a01b0316837f2f8788117e7eff1d82e926ec794901d17c78024a50270940304540a733656f0d60405160405180910390a45b5050565b6000805160206200425f833981519152620001cf8162000227565b50600f80546001600160a01b039092166001600160a01b0319928316811790915560108054909216179055565b6000918252600c602090815260408084206001600160a01b0393909316845291905290205460ff1690565b62000233813362000236565b50565b620002428282620001fc565b620001b0576200025d81620002b760201b62001c161760201c565b6200027383602062001c28620002d5821b17811c565b60405160200162000286929190620006a2565b60408051601f198184030181529082905262461bcd60e51b8252620002ae916004016200071b565b60405180910390fd5b6060620002cf6001600160a01b0383166014620002d5565b92915050565b60606000620002e683600262000766565b620002f390600262000788565b6001600160401b038111156200030d576200030d6200053b565b6040519080825280601f01601f19166020018201604052801562000338576020820181803683370190505b509050600360fc1b81600081518110620003565762000356620007a3565b60200101906001600160f81b031916908160001a905350600f60fb1b81600181518110620003885762000388620007a3565b60200101906001600160f81b031916908160001a9053506000620003ae84600262000766565b620003bb90600162000788565b90505b60018111156200043d576f181899199a1a9b1b9c1cb0b131b232b360811b85600f1660108110620003f357620003f3620007a3565b1a60f81b8282815181106200040c576200040c620007a3565b60200101906001600160f81b031916908160001a90535060049490941c936200043581620007b9565b9050620003be565b5083156200048e5760405162461bcd60e51b815260206004820181905260248201527f537472696e67733a20686578206c656e67746820696e73756666696369656e746044820152606401620002ae565b9392505050565b828054620004a390620007d3565b90600052602060002090601f016020900481019282620004c7576000855562000512565b82601f10620004e257805160ff191683800117855562000512565b8280016001018555821562000512579182015b8281111562000512578251825591602001919060010190620004f5565b506200052092915062000524565b5090565b5b8082111562000520576000815560010162000525565b634e487b7160e01b600052604160045260246000fd5b60005b838110156200056e57818101518382015260200162000554565b838111156200057e576000848401525b50505050565b600082601f8301126200059657600080fd5b81516001600160401b0380821115620005b357620005b36200053b565b604051601f8301601f19908116603f01168101908282118183101715620005de57620005de6200053b565b81604052838152866020858801011115620005f857600080fd5b6200060b84602083016020890162000551565b9695505050505050565b6000806000606084860312156200062b57600080fd5b83516001600160401b03808211156200064357600080fd5b620006518783880162000584565b945060208601519150808211156200066857600080fd5b50620006778682870162000584565b604086015190935090506001600160a01b03811681146200069757600080fd5b809150509250925092565b7f416363657373436f6e74726f6c3a206163636f756e7420000000000000000000815260008351620006dc81601785016020880162000551565b7001034b99036b4b9b9b4b733903937b6329607d1b60179184019182015283516200070f81602884016020880162000551565b01602801949350505050565b60208152600082518060208401526200073c81604085016020870162000551565b601f01601f19169190910160400192915050565b634e487b7160e01b600052601160045260246000fd5b600081600019048311821515161562000783576200078362000750565b500290565b600082198211156200079e576200079e62000750565b500190565b634e487b7160e01b600052603260045260246000fd5b600081620007cb57620007cb62000750565b506000190190565b600181811c90821680620007e857607f821691505b602082108114156200080a57634e487b7160e01b600052602260045260246000fd5b50919050565b613a3f80620008206000396000f3fe608060405234801561001057600080fd5b50600436106101c25760003560e01c806301ffc9a7146101c757806306e54ceb146101ef57806306fdde0314610210578063081812fc14610225578063095ea7b31461024557806318160ddd1461025a5780631827b9551461026c57806323b872dd14610281578063248a9ca314610294578063289f6e33146102a75780632f2ff15d146102ba5780632f745c59146102cd57806336568abe146102e05780633f4ba83a146102f357806342842e0e146102fb57806342966c681461030e5780634f6ccce714610321578063563460e5146103345780635c975abb146103455780636352211e1461035057806370a08231146103635780638456cb591461037657806391d148541461037e57806395d89b41146103915780639a6ee03b146103995780639cac21b4146103ac5780639d58729e146103bf578063a217fddf146103d2578063a22cb465146103da578063b7ff6487146103ed578063b88d4fde14610400578063c87b56dd14610413578063d547741f14610426578063e63ab1e914610439578063e985e9c51461044e578063fab4fcc514610461578063fd4d496814610476578063ffa1ad7414610489575b600080fd5b6101da6101d536600461303c565b610491565b60405190151581526020015b60405180910390f35b6102026101fd366004613059565b6104a2565b6040516101e6929190613135565b61021861099c565b6040516101e6919061315a565b610238610233366004613059565b610a2e565b6040516101e6919061316d565b6102586102533660046131a6565b610a55565b005b6008545b6040519081526020016101e6565b61025e60008051602061398a83398151915281565b61025861028f3660046131d2565b610b70565b61025e6102a2366004613059565b610ba2565b6102586102b5366004613213565b610bb7565b6102586102c8366004613230565b610bfc565b61025e6102db3660046131a6565b610c18565b6102586102ee366004613230565b610cae565b610258610d2c565b6102586103093660046131d2565b610d4f565b61025861031c366004613059565b610d6a565b61025e61032f366004613059565b610d98565b6010546001600160a01b0316610238565b600b5460ff166101da565b61023861035e366004613059565b610e2b565b61025e610371366004613213565b610e5f565b610258610ee5565b6101da61038c366004613230565b610f05565b610218610f30565b6102186103a7366004613059565b610f3f565b6102026103ba366004613059565b610fe1565b6102586103cd3660046133eb565b61153e565b61025e600081565b6102586103e8366004613465565b61164e565b6102586103fb3660046133eb565b611659565b61025861040e366004613493565b6117c2565b610218610421366004613059565b6117fa565b610258610434366004613230565b611805565b61025e6000805160206139ca83398151915281565b6101da61045c366004613512565b611821565b61025e6000805160206139aa83398151915281565b61025e610484366004613540565b61184f565b610218611b88565b600061049c82611dca565b92915050565b6104aa612f2f565b6104b2612f2f565b60008051602061398a8339815191526104ca81611def565b600084815260146020908152604080832060159092529182902082516080810190935281549192909183908290829061050290613646565b80601f016020809104026020016040519081016040528092919081815260200182805461052e90613646565b801561057b5780601f106105505761010080835404028352916020019161057b565b820191906000526020600020905b81548152906001019060200180831161055e57829003601f168201915b5050505050815260200160018201805461059490613646565b80601f01602080910402602001604051908101604052809291908181526020018280546105c090613646565b801561060d5780601f106105e25761010080835404028352916020019161060d565b820191906000526020600020905b8154815290600101906020018083116105f057829003601f168201915b5050505050815260200160028201805461062690613646565b80601f016020809104026020016040519081016040528092919081815260200182805461065290613646565b801561069f5780601f106106745761010080835404028352916020019161069f565b820191906000526020600020905b81548152906001019060200180831161068257829003601f168201915b505050505081526020016003820180546106b890613646565b80601f01602080910402602001604051908101604052809291908181526020018280546106e490613646565b80156107315780601f1061070657610100808354040283529160200191610731565b820191906000526020600020905b81548152906001019060200180831161071457829003601f168201915b50505050508152505091508060405180608001604052908160008201805461075890613646565b80601f016020809104026020016040519081016040528092919081815260200182805461078490613646565b80156107d15780601f106107a6576101008083540402835291602001916107d1565b820191906000526020600020905b8154815290600101906020018083116107b457829003601f168201915b505050505081526020016001820180546107ea90613646565b80601f016020809104026020016040519081016040528092919081815260200182805461081690613646565b80156108635780601f1061083857610100808354040283529160200191610863565b820191906000526020600020905b81548152906001019060200180831161084657829003601f168201915b5050505050815260200160028201805461087c90613646565b80601f01602080910402602001604051908101604052809291908181526020018280546108a890613646565b80156108f55780601f106108ca576101008083540402835291602001916108f5565b820191906000526020600020905b8154815290600101906020018083116108d857829003601f168201915b5050505050815260200160038201805461090e90613646565b80601f016020809104026020016040519081016040528092919081815260200182805461093a90613646565b80156109875780601f1061095c57610100808354040283529160200191610987565b820191906000526020600020905b81548152906001019060200180831161096a57829003601f168201915b50505050508152505090509250925050915091565b6060600080546109ab90613646565b80601f01602080910402602001604051908101604052809291908181526020018280546109d790613646565b8015610a245780601f106109f957610100808354040283529160200191610a24565b820191906000526020600020905b815481529060010190602001808311610a0757829003601f168201915b5050505050905090565b6000610a3982611df9565b506000908152600460205260409020546001600160a01b031690565b6000610a6082610e2b565b9050806001600160a01b0316836001600160a01b03161415610ad35760405162461bcd60e51b815260206004820152602160248201527f4552433732313a20617070726f76616c20746f2063757272656e74206f776e656044820152603960f91b60648201526084015b60405180910390fd5b336001600160a01b0382161480610aef5750610aef8133611821565b610b615760405162461bcd60e51b815260206004820152603d60248201527f4552433732313a20617070726f76652063616c6c6572206973206e6f7420746f60448201527f6b656e206f776e6572206f7220617070726f76656420666f7220616c6c0000006064820152608401610aca565b610b6b8383611e1e565b505050565b610b7b335b82611e8c565b610b975760405162461bcd60e51b8152600401610aca90613681565b610b6b838383611eeb565b6000908152600c602052604090206001015490565b6000805160206139aa833981519152610bcf81611def565b50600f80546001600160a01b039092166001600160a01b0319928316811790915560108054909216179055565b610c0582610ba2565b610c0e81611def565b610b6b8383612052565b6000610c2383610e5f565b8210610c855760405162461bcd60e51b815260206004820152602b60248201527f455243373231456e756d657261626c653a206f776e657220696e646578206f7560448201526a74206f6620626f756e647360a81b6064820152608401610aca565b506001600160a01b03919091166000908152600660209081526040808320938352929052205490565b6001600160a01b0381163314610d1e5760405162461bcd60e51b815260206004820152602f60248201527f416363657373436f6e74726f6c3a2063616e206f6e6c792072656e6f756e636560448201526e103937b632b9903337b91039b2b63360891b6064820152608401610aca565b610d2882826120d8565b5050565b6000805160206139ca833981519152610d4481611def565b610d4c61213f565b50565b610b6b838383604051806020016040528060008152506117c2565b610d7333610b75565b610d8f5760405162461bcd60e51b8152600401610aca90613681565b610d4c8161218b565b6000610da360085490565b8210610e065760405162461bcd60e51b815260206004820152602c60248201527f455243373231456e756d657261626c653a20676c6f62616c20696e646578206f60448201526b7574206f6620626f756e647360a01b6064820152608401610aca565b60088281548110610e1957610e196136ce565b90600052602060002001549050919050565b600080610e378361221c565b90506001600160a01b03811661049c5760405162461bcd60e51b8152600401610aca906136e4565b60006001600160a01b038216610ec95760405162461bcd60e51b815260206004820152602960248201527f4552433732313a2061646472657373207a65726f206973206e6f7420612076616044820152683634b21037bbb732b960b91b6064820152608401610aca565b506001600160a01b031660009081526003602052604090205490565b6000805160206139ca833981519152610efd81611def565b610d4c612237565b6000918252600c602090815260408084206001600160a01b0393909316845291905290205460ff1690565b6060600180546109ab90613646565b6000818152601160205260409020805460609190610f5c90613646565b80601f0160208091040260200160405190810160405280929190818152602001828054610f8890613646565b8015610fd55780601f10610faa57610100808354040283529160200191610fd5565b820191906000526020600020905b815481529060010190602001808311610fb857829003601f168201915b50505050509050919050565b610fe9612f2f565b610ff1612f2f565b610ffc335b84611e8c565b61106d5760405162461bcd60e51b815260206004820152603c60248201527f4552433732313a20676574546f6b656e4f776e657250726f6d70742063616c6c60448201527b195c881a5cc81b9bdd081bdddb995c881b9bdc88185c1c1c9bdd995960221b6064820152608401610aca565b60008381526012602090815260408083206013909252918290208251608081019093528154919290918390829082906110a590613646565b80601f01602080910402602001604051908101604052809291908181526020018280546110d190613646565b801561111e5780601f106110f35761010080835404028352916020019161111e565b820191906000526020600020905b81548152906001019060200180831161110157829003601f168201915b5050505050815260200160018201805461113790613646565b80601f016020809104026020016040519081016040528092919081815260200182805461116390613646565b80156111b05780601f10611185576101008083540402835291602001916111b0565b820191906000526020600020905b81548152906001019060200180831161119357829003601f168201915b505050505081526020016002820180546111c990613646565b80601f01602080910402602001604051908101604052809291908181526020018280546111f590613646565b80156112425780601f1061121757610100808354040283529160200191611242565b820191906000526020600020905b81548152906001019060200180831161122557829003601f168201915b5050505050815260200160038201805461125b90613646565b80601f016020809104026020016040519081016040528092919081815260200182805461128790613646565b80156112d45780601f106112a9576101008083540402835291602001916112d4565b820191906000526020600020905b8154815290600101906020018083116112b757829003601f168201915b5050505050815250509150806040518060800160405290816000820180546112fb90613646565b80601f016020809104026020016040519081016040528092919081815260200182805461132790613646565b80156113745780601f1061134957610100808354040283529160200191611374565b820191906000526020600020905b81548152906001019060200180831161135757829003601f168201915b5050505050815260200160018201805461138d90613646565b80601f01602080910402602001604051908101604052809291908181526020018280546113b990613646565b80156114065780601f106113db57610100808354040283529160200191611406565b820191906000526020600020905b8154815290600101906020018083116113e957829003601f168201915b5050505050815260200160028201805461141f90613646565b80601f016020809104026020016040519081016040528092919081815260200182805461144b90613646565b80156114985780601f1061146d57610100808354040283529160200191611498565b820191906000526020600020905b81548152906001019060200180831161147b57829003601f168201915b505050505081526020016003820180546114b190613646565b80601f01602080910402602001604051908101604052809291908181526020018280546114dd90613646565b801561152a5780601f106114ff5761010080835404028352916020019161152a565b820191906000526020600020905b81548152906001019060200180831161150d57829003601f168201915b505050505081525050905091509150915091565b60008051602061398a83398151915261155681611def565b600084815260146020908152604090912084518051869361157b928492910190612f57565b5060208281015180516115949260018501920190612f57565b50604082015180516115b0916002840191602090910190612f57565b50606082015180516115cc916003840191602090910190612f57565b50505060008481526015602090815260409091208351805185936115f4928492910190612f57565b50602082810151805161160d9260018501920190612f57565b5060408201518051611629916002840191602090910190612f57565b5060608201518051611645916003840191602090910190612f57565b50505050505050565b610d28338383612274565b61166233610ff6565b6116cb5760405162461bcd60e51b815260206004820152603460248201527f4552433732313a20636c61696d50726f6d70742063616c6c6572206973206e6f6044820152731d081bdddb995c881b9bdc88185c1c1c9bdd995960621b6064820152608401610aca565b60008381526012602090815260409091208351805185936116f0928492910190612f57565b5060208281015180516117099260018501920190612f57565b5060408201518051611725916002840191602090910190612f57565b5060608201518051611741916003840191602090910190612f57565b5050506000838152601360209081526040909120825180518493611769928492910190612f57565b5060208281015180516117829260018501920190612f57565b506040820151805161179e916002840191602090910190612f57565b50606082015180516117ba916003840191602090910190612f57565b505050505050565b6117cc3383611e8c565b6117e85760405162461bcd60e51b8152600401610aca90613681565b6117f48484848461233f565b50505050565b606061049c82612372565b61180e82610ba2565b61181781611def565b610b6b83836120d8565b6001600160a01b03918216600090815260056020908152604080832093909416825291909152205460ff1690565b600061185f600e80546001019055565b600061186a600e5490565b9050611876898261247b565b6118808189612495565b6000818152601160209081526040909120885161189f928a0190612f57565b5060008181526012602090815260409091208751805189936118c5928492910190612f57565b5060208281015180516118de9260018501920190612f57565b50604082015180516118fa916002840191602090910190612f57565b5060608201518051611916916003840191602090910190612f57565b505050600081815260136020908152604090912086518051889361193e928492910190612f57565b5060208281015180516119579260018501920190612f57565b5060408201518051611973916002840191602090910190612f57565b506060820151805161198f916003840191602090910190612f57565b50505060008181526014602090815260409091208551805187936119b7928492910190612f57565b5060208281015180516119d09260018501920190612f57565b50604082015180516119ec916002840191602090910190612f57565b5060608201518051611a08916003840191602090910190612f57565b5050506000818152601560209081526040909120845180518693611a30928492910190612f57565b506020828101518051611a499260018501920190612f57565b5060408201518051611a65916002840191602090910190612f57565b5060608201518051611a81916003840191602090910190612f57565b5050600f546040516317a6b60960e01b815230600482015260248101849052600092506001600160a01b03909116906317a6b60990604401602060405180830381600087803b158015611ad357600080fd5b505af1158015611ae7573d6000803e3d6000fd5b505050506040513d601f19601f82011682018060405250810190611b0b9190613716565b905080611b7b5760405162461bcd60e51b815260206004820152603860248201527f43616c6c2072656769737465724e46542066756e6374696f6e206f662072656e6044820152773a26b0b935b2ba1031b7b73a3930b1ba103330b4b632b21760411b6064820152608401610aca565b5098975050505050505050565b600d8054611b9590613646565b80601f0160208091040260200160405190810160405280929190818152602001828054611bc190613646565b8015611c0e5780601f10611be357610100808354040283529160200191611c0e565b820191906000526020600020905b815481529060010190602001808311611bf157829003601f168201915b505050505081565b606061049c6001600160a01b03831660145b60606000611c37836002613749565b611c42906002613768565b6001600160401b03811115611c5957611c59613260565b6040519080825280601f01601f191660200182016040528015611c83576020820181803683370190505b509050600360fc1b81600081518110611c9e57611c9e6136ce565b60200101906001600160f81b031916908160001a905350600f60fb1b81600181518110611ccd57611ccd6136ce565b60200101906001600160f81b031916908160001a9053506000611cf1846002613749565b611cfc906001613768565b90505b6001811115611d74576f181899199a1a9b1b9c1cb0b131b232b360811b85600f1660108110611d3057611d306136ce565b1a60f81b828281518110611d4657611d466136ce565b60200101906001600160f81b031916908160001a90535060049490941c93611d6d81613780565b9050611cff565b508315611dc35760405162461bcd60e51b815260206004820181905260248201527f537472696e67733a20686578206c656e67746820696e73756666696369656e746044820152606401610aca565b9392505050565b60006001600160e01b03198216637965db0b60e01b148061049c575061049c82612558565b610d4c813361257d565b611e02816125d6565b610d4c5760405162461bcd60e51b8152600401610aca906136e4565b600081815260046020526040902080546001600160a01b0319166001600160a01b0384169081179091558190611e5382610e2b565b6001600160a01b03167f8c5be1e5ebec7d5bd14f71427d1e84f3dd0314c0f7b2291e5b200ac8c7c3b92560405160405180910390a45050565b600080611e9883610e2b565b9050806001600160a01b0316846001600160a01b03161480611ebf5750611ebf8185611821565b80611ee35750836001600160a01b0316611ed884610a2e565b6001600160a01b0316145b949350505050565b826001600160a01b0316611efe82610e2b565b6001600160a01b031614611f245760405162461bcd60e51b8152600401610aca90613797565b6001600160a01b038216611f865760405162461bcd60e51b8152602060048201526024808201527f4552433732313a207472616e7366657220746f20746865207a65726f206164646044820152637265737360e01b6064820152608401610aca565b611f9383838360016125f3565b826001600160a01b0316611fa682610e2b565b6001600160a01b031614611fcc5760405162461bcd60e51b8152600401610aca90613797565b600081815260046020908152604080832080546001600160a01b03199081169091556001600160a01b0387811680865260038552838620805460001901905590871680865283862080546001019055868652600290945282852080549092168417909155905184936000805160206139ea83398151915291a4610b6b8383836001612607565b61205c8282610f05565b610d28576000828152600c602090815260408083206001600160a01b03851684529091529020805460ff191660011790556120943390565b6001600160a01b0316816001600160a01b0316837f2f8788117e7eff1d82e926ec794901d17c78024a50270940304540a733656f0d60405160405180910390a45050565b6120e28282610f05565b15610d28576000828152600c602090815260408083206001600160a01b0385168085529252808320805460ff1916905551339285917ff6391f5c32d9c69d2a47ea670b442974b53935d1edc7fd64eb21e047a839171b9190a45050565b612147612652565b600b805460ff191690557f5db9ee0a495bf2e6ff9c91a7834c1ba4fdd244a5e8aa4e537bd38aeae4b073aa335b604051612181919061316d565b60405180910390a1565b6121948161269d565b6000818152601260205260408120906121ad8282612fdb565b6121bb600183016000612fdb565b6121c9600283016000612fdb565b6121d7600383016000612fdb565b50506000818152601460205260408120906121f28282612fdb565b612200600183016000612fdb565b61220e600283016000612fdb565b610b6b600383016000612fdb565b6000908152600260205260409020546001600160a01b031690565b61223f6126dd565b600b805460ff191660011790557f62e78cea01bee320cd4e420270b5ea74000d11b0c9f74754ebdbfc544b05a2586121743390565b816001600160a01b0316836001600160a01b031614156122d25760405162461bcd60e51b815260206004820152601960248201527822a9219b99189d1030b8383937bb32903a379031b0b63632b960391b6044820152606401610aca565b6001600160a01b03838116600081815260056020908152604080832094871680845294825291829020805460ff191686151590811790915591519182527f17307eab39ab6107e8899845ad3d59bd9653f200f220920489ca2b5937696c31910160405180910390a3505050565b61234a848484611eeb565b61235684848484612723565b6117f45760405162461bcd60e51b8152600401610aca906137dc565b606061237d82611df9565b6000828152600a60205260408120805461239690613646565b80601f01602080910402602001604051908101604052809291908181526020018280546123c290613646565b801561240f5780601f106123e45761010080835404028352916020019161240f565b820191906000526020600020905b8154815290600101906020018083116123f257829003601f168201915b50505050509050600061242d60408051602081019091526000815290565b9050805160001415612440575092915050565b81511561247257808260405160200161245a92919061382e565b60405160208183030381529060405292505050919050565b611ee384612830565b610d288282604051806020016040528060008152506128a3565b61249e826125d6565b6125015760405162461bcd60e51b815260206004820152602e60248201527f45524337323155524953746f726167653a2055524920736574206f66206e6f6e60448201526d32bc34b9ba32b73a103a37b5b2b760911b6064820152608401610aca565b6000828152600a60209081526040909120825161252092840190612f57565b506040518281527ff8e1a15aba9398e019f0b49df1a4fde98ee17ae345cb5f6b5e2c27f5033e8ce79060200160405180910390a15050565b60006001600160e01b03198216632483248360e11b148061049c575061049c826128d6565b6125878282610f05565b610d285761259481611c16565b61259f836020611c28565b6040516020016125b092919061385d565b60408051601f198184030181529082905262461bcd60e51b8252610aca9160040161315a565b6000806125e28361221c565b6001600160a01b0316141592915050565b6125fb6126dd565b6117f4848484846128fb565b61260f6126dd565b6000828152601260205260408120906126288282612fdb565b612636600183016000612fdb565b612644600283016000612fdb565b6117ba600383016000612fdb565b600b5460ff1661269b5760405162461bcd60e51b815260206004820152601460248201527314185d5cd8589b194e881b9bdd081c185d5cd95960621b6044820152606401610aca565b565b6126a681612a2f565b6000818152600a6020526040902080546126bf90613646565b159050610d4c576000818152600a60205260408120610d4c91612fdb565b600b5460ff161561269b5760405162461bcd60e51b815260206004820152601060248201526f14185d5cd8589b194e881c185d5cd95960821b6044820152606401610aca565b60006001600160a01b0384163b1561282557604051630a85bd0160e11b81526001600160a01b0385169063150b7a02906127679033908990889088906004016138cc565b602060405180830381600087803b15801561278157600080fd5b505af19250505080156127b1575060408051601f3d908101601f191682019092526127ae91810190613909565b60015b61280b573d8080156127df576040519150601f19603f3d011682016040523d82523d6000602084013e6127e4565b606091505b5080516128035760405162461bcd60e51b8152600401610aca906137dc565b805181602001fd5b6001600160e01b031916630a85bd0160e11b149050611ee3565b506001949350505050565b606061283b82611df9565b600061285260408051602081019091526000815290565b905060008151116128725760405180602001604052806000815250611dc3565b8061287c84612aca565b60405160200161288d92919061382e565b6040516020818303038152906040529392505050565b6128ad8383612b66565b6128ba6000848484612723565b610b6b5760405162461bcd60e51b8152600401610aca906137dc565b60006001600160e01b0319821663780e9d6360e01b148061049c575061049c82612c79565b600181111561296a5760405162461bcd60e51b815260206004820152603560248201527f455243373231456e756d657261626c653a20636f6e7365637574697665207472604482015274185b9cd9995c9cc81b9bdd081cdd5c1c1bdc9d1959605a1b6064820152608401610aca565b816001600160a01b0385166129c6576129c181600880546000838152600960205260408120829055600182018355919091527ff3f7a9fe364faab93b216da50a3214154f22a0a2b415b23a84c8169e8b636ee30155565b6129e9565b836001600160a01b0316856001600160a01b0316146129e9576129e98582612cc9565b6001600160a01b038416612a0557612a0081612d66565b612a28565b846001600160a01b0316846001600160a01b031614612a2857612a288482612e15565b5050505050565b6000612a3a82610e2b565b9050612a4a8160008460016125f3565b612a5382610e2b565b600083815260046020908152604080832080546001600160a01b03199081169091556001600160a01b0385168085526003845282852080546000190190558785526002909352818420805490911690555192935084926000805160206139ea833981519152908390a4610d28816000846001612607565b60606000612ad783612e59565b60010190506000816001600160401b03811115612af657612af6613260565b6040519080825280601f01601f191660200182016040528015612b20576020820181803683370190505b5090508181016020015b600019016f181899199a1a9b1b9c1cb0b131b232b360811b600a86061a8153600a8504945084612b5957612b5e565b612b2a565b509392505050565b6001600160a01b038216612bbc5760405162461bcd60e51b815260206004820181905260248201527f4552433732313a206d696e7420746f20746865207a65726f20616464726573736044820152606401610aca565b612bc5816125d6565b15612be25760405162461bcd60e51b8152600401610aca90613926565b612bf06000838360016125f3565b612bf9816125d6565b15612c165760405162461bcd60e51b8152600401610aca90613926565b6001600160a01b038216600081815260036020908152604080832080546001019055848352600290915280822080546001600160a01b0319168417905551839291906000805160206139ea833981519152908290a4610d28600083836001612607565b60006001600160e01b031982166380ac58cd60e01b1480612caa57506001600160e01b03198216635b5e139f60e01b145b8061049c57506301ffc9a760e01b6001600160e01b031983161461049c565b60006001612cd684610e5f565b612ce0919061395c565b600083815260076020526040902054909150808214612d33576001600160a01b03841660009081526006602090815260408083208584528252808320548484528184208190558352600790915290208190555b5060009182526007602090815260408084208490556001600160a01b039094168352600681528383209183525290812055565b600854600090612d789060019061395c565b60008381526009602052604081205460088054939450909284908110612da057612da06136ce565b906000526020600020015490508060088381548110612dc157612dc16136ce565b6000918252602080832090910192909255828152600990915260408082208490558582528120556008805480612df957612df9613973565b6001900381819060005260206000200160009055905550505050565b6000612e2083610e5f565b6001600160a01b039093166000908152600660209081526040808320868452825280832085905593825260079052919091209190915550565b60008072184f03e93ff9f4daa797ed6e38ed64bf6a1f0160401b8310612e985772184f03e93ff9f4daa797ed6e38ed64bf6a1f0160401b830492506040015b6904ee2d6d415b85acef8160201b8310612ec2576904ee2d6d415b85acef8160201b830492506020015b662386f26fc100008310612ee057662386f26fc10000830492506010015b6305f5e1008310612ef8576305f5e100830492506008015b6127108310612f0c57612710830492506004015b60648310612f1e576064830492506002015b600a831061049c5760010192915050565b6040518060800160405280606081526020016060815260200160608152602001606081525090565b828054612f6390613646565b90600052602060002090601f016020900481019282612f855760008555612fcb565b82601f10612f9e57805160ff1916838001178555612fcb565b82800160010185558215612fcb579182015b82811115612fcb578251825591602001919060010190612fb0565b50612fd7929150613011565b5090565b508054612fe790613646565b6000825580601f10612ff7575050565b601f016020900490600052602060002090810190610d4c91905b5b80821115612fd75760008155600101613012565b6001600160e01b031981168114610d4c57600080fd5b60006020828403121561304e57600080fd5b8135611dc381613026565b60006020828403121561306b57600080fd5b5035919050565b60005b8381101561308d578181015183820152602001613075565b838111156117f45750506000910152565b600081518084526130b6816020860160208601613072565b601f01601f19169290920160200192915050565b60008151608084526130df608085018261309e565b9050602083015184820360208601526130f8828261309e565b91505060408301518482036040860152613112828261309e565b9150506060830151848203606086015261312c828261309e565b95945050505050565b60408152600061314860408301856130ca565b828103602084015261312c81856130ca565b602081526000611dc3602083018461309e565b6001600160a01b0391909116815260200190565b6001600160a01b0381168114610d4c57600080fd5b80356131a181613181565b919050565b600080604083850312156131b957600080fd5b82356131c481613181565b946020939093013593505050565b6000806000606084860312156131e757600080fd5b83356131f281613181565b9250602084013561320281613181565b929592945050506040919091013590565b60006020828403121561322557600080fd5b8135611dc381613181565b6000806040838503121561324357600080fd5b82359150602083013561325581613181565b809150509250929050565b634e487b7160e01b600052604160045260246000fd5b604051608081016001600160401b038111828210171561329857613298613260565b60405290565b60006001600160401b03808411156132b8576132b8613260565b604051601f8501601f19908116603f011681019082821181831017156132e0576132e0613260565b816040528093508581528686860111156132f957600080fd5b858560208301376000602087830101525050509392505050565b600082601f83011261332457600080fd5b611dc38383356020850161329e565b60006080828403121561334557600080fd5b61334d613276565b905081356001600160401b038082111561336657600080fd5b61337285838601613313565b8352602084013591508082111561338857600080fd5b61339485838601613313565b602084015260408401359150808211156133ad57600080fd5b6133b985838601613313565b604084015260608401359150808211156133d257600080fd5b506133df84828501613313565b60608301525092915050565b60008060006060848603121561340057600080fd5b8335925060208401356001600160401b038082111561341e57600080fd5b61342a87838801613333565b9350604086013591508082111561344057600080fd5b5061344d86828701613333565b9150509250925092565b8015158114610d4c57600080fd5b6000806040838503121561347857600080fd5b823561348381613181565b9150602083013561325581613457565b600080600080608085870312156134a957600080fd5b84356134b481613181565b935060208501356134c481613181565b92506040850135915060608501356001600160401b038111156134e657600080fd5b8501601f810187136134f757600080fd5b6135068782356020840161329e565b91505092959194509250565b6000806040838503121561352557600080fd5b823561353081613181565b9150602083013561325581613181565b600080600080600080600060e0888a03121561355b57600080fd5b61356488613196565b965060208801356001600160401b038082111561358057600080fd5b61358c8b838c01613313565b975060408a01359150808211156135a257600080fd5b6135ae8b838c01613313565b965060608a01359150808211156135c457600080fd5b6135d08b838c01613333565b955060808a01359150808211156135e657600080fd5b6135f28b838c01613333565b945060a08a013591508082111561360857600080fd5b6136148b838c01613333565b935060c08a013591508082111561362a57600080fd5b506136378a828b01613333565b91505092959891949750929550565b600181811c9082168061365a57607f821691505b6020821081141561367b57634e487b7160e01b600052602260045260246000fd5b50919050565b6020808252602d908201527f4552433732313a2063616c6c6572206973206e6f7420746f6b656e206f776e6560408201526c1c881bdc88185c1c1c9bdd9959609a1b606082015260800190565b634e487b7160e01b600052603260045260246000fd5b602080825260189082015277115490cdcc8c4e881a5b9d985b1a59081d1bdad95b88125160421b604082015260600190565b60006020828403121561372857600080fd5b8151611dc381613457565b634e487b7160e01b600052601160045260246000fd5b600081600019048311821515161561376357613763613733565b500290565b6000821982111561377b5761377b613733565b500190565b60008161378f5761378f613733565b506000190190565b60208082526025908201527f4552433732313a207472616e736665722066726f6d20696e636f72726563742060408201526437bbb732b960d91b606082015260800190565b60208082526032908201527f4552433732313a207472616e7366657220746f206e6f6e20455243373231526560408201527131b2b4bb32b91034b6b83632b6b2b73a32b960711b606082015260800190565b60008351613840818460208801613072565b835190830190613854818360208801613072565b01949350505050565b76020b1b1b2b9b9a1b7b73a3937b61d1030b1b1b7bab73a1604d1b81526000835161388f816017850160208801613072565b7001034b99036b4b9b9b4b733903937b6329607d1b60179184019182015283516138c0816028840160208801613072565b01602801949350505050565b6001600160a01b03858116825284166020820152604081018390526080606082018190526000906138ff9083018461309e565b9695505050505050565b60006020828403121561391b57600080fd5b8151611dc381613026565b6020808252601c908201527b115490cdcc8c4e881d1bdad95b88185b1c9958591e481b5a5b9d195960221b604082015260600190565b60008282101561396e5761396e613733565b500390565b634e487b7160e01b600052603160045260246000fdfed0643f51bd184a6a394cdade44604c05442b11e696dabba32ec676f5e962b8356310cf9c937bcad92df0897b8ab11d37ff788bec126c5807fb57fb0423e3f40d65d7a28e3265b37a6474929f336521b332c1681b933f6cb9f3376673440d862addf252ad1be2c89b69c2b068fc378daa952ba7f163c4a11628f55a4df523b3efa26469706673582212206d3bd5e13b40f4208282f839dbd08b2b9ec1e842646c2fbed202a11abd63a44164736f6c634300080900336310cf9c937bcad92df0897b8ab11d37ff788bec126c5807fb57fb0423e3f40d",
  "linkReferences": {},
  "deployedLinkReferences": {}
}