{
  "_format": "hh-sol-artifact-1",
  "contractName": "rentMarket",
  "sourceName": "contracts/rentMarket.sol",
  "abi": [
    {
      "inputs": [],
      "stateMutability": "nonpayable",
      "type": "constructor"
    },
    {
      "anonymous": false,
      "inputs": [
        {
          "indexed": true,
          "internalType": "address",
          "name": "nftAddress",
          "type": "address"
        },
        {
          "indexed": true,
          "internalType": "uint256",
          "name": "tokenId",
          "type": "uint256"
        },
        {
          "indexed": false,
          "internalType": "uint256",
          "name": "rentFee",
          "type": "uint256"
        },
        {
          "indexed": false,
          "internalType": "address",
          "name": "feeTokenAddress",
          "type": "address"
        },
        {
          "indexed": false,
          "internalType": "uint256",
          "name": "rentFeeByToken",
          "type": "uint256"
        },
        {
          "indexed": false,
          "internalType": "uint256",
          "name": "rentDuration",
          "type": "uint256"
        },
        {
          "indexed": false,
          "internalType": "address",
          "name": "NFTOwnerAddress",
          "type": "address"
        },
        {
          "indexed": true,
          "internalType": "address",
          "name": "changerAddress",
          "type": "address"
        }
      ],
      "name": "ChangeNFT",
      "type": "event"
    },
    {
      "anonymous": false,
      "inputs": [
        {
          "indexed": true,
          "internalType": "address",
          "name": "sender",
          "type": "address"
        }
      ],
      "name": "Fallback",
      "type": "event"
    },
    {
      "anonymous": false,
      "inputs": [
        {
          "indexed": true,
          "internalType": "address",
          "name": "previousOwner",
          "type": "address"
        },
        {
          "indexed": true,
          "internalType": "address",
          "name": "newOwner",
          "type": "address"
        }
      ],
      "name": "OwnershipTransferred",
      "type": "event"
    },
    {
      "anonymous": false,
      "inputs": [
        {
          "indexed": false,
          "internalType": "address",
          "name": "account",
          "type": "address"
        }
      ],
      "name": "Paused",
      "type": "event"
    },
    {
      "anonymous": false,
      "inputs": [
        {
          "indexed": true,
          "internalType": "address",
          "name": "sender",
          "type": "address"
        },
        {
          "indexed": true,
          "internalType": "uint256",
          "name": "value",
          "type": "uint256"
        }
      ],
      "name": "Receive",
      "type": "event"
    },
    {
      "anonymous": false,
      "inputs": [
        {
          "indexed": true,
          "internalType": "address",
          "name": "collectionAddress",
          "type": "address"
        },
        {
          "indexed": false,
          "internalType": "string",
          "name": "uri",
          "type": "string"
        }
      ],
      "name": "RegisterCollection",
      "type": "event"
    },
    {
      "anonymous": false,
      "inputs": [
        {
          "indexed": true,
          "internalType": "address",
          "name": "nftAddress",
          "type": "address"
        },
        {
          "indexed": true,
          "internalType": "uint256",
          "name": "tokenId",
          "type": "uint256"
        },
        {
          "indexed": false,
          "internalType": "uint256",
          "name": "rentFee",
          "type": "uint256"
        },
        {
          "indexed": false,
          "internalType": "uint256",
          "name": "rentDuration",
          "type": "uint256"
        },
        {
          "indexed": true,
          "internalType": "address",
          "name": "NFTOwnerAddress",
          "type": "address"
        }
      ],
      "name": "RegisterNFT",
      "type": "event"
    },
    {
      "anonymous": false,
      "inputs": [
        {
          "indexed": true,
          "internalType": "address",
          "name": "serviceAddress",
          "type": "address"
        },
        {
          "indexed": false,
          "internalType": "string",
          "name": "uri",
          "type": "string"
        }
      ],
      "name": "RegisterService",
      "type": "event"
    },
    {
      "anonymous": false,
      "inputs": [
        {
          "indexed": true,
          "internalType": "address",
          "name": "tokenAddress",
          "type": "address"
        },
        {
          "indexed": false,
          "internalType": "string",
          "name": "name",
          "type": "string"
        }
      ],
      "name": "RegisterToken",
      "type": "event"
    },
    {
      "anonymous": false,
      "inputs": [
        {
          "indexed": true,
          "internalType": "address",
          "name": "nftAddress",
          "type": "address"
        },
        {
          "indexed": true,
          "internalType": "uint256",
          "name": "tokenId",
          "type": "uint256"
        },
        {
          "indexed": false,
          "internalType": "uint256",
          "name": "rentFee",
          "type": "uint256"
        },
        {
          "indexed": false,
          "internalType": "address",
          "name": "feeTokenAddress",
          "type": "address"
        },
        {
          "indexed": false,
          "internalType": "uint256",
          "name": "rentFeeByToken",
          "type": "uint256"
        },
        {
          "indexed": false,
          "internalType": "bool",
          "name": "isRentByToken",
          "type": "bool"
        },
        {
          "indexed": false,
          "internalType": "uint256",
          "name": "rentDuration",
          "type": "uint256"
        },
        {
          "indexed": false,
          "internalType": "address",
          "name": "renterAddress",
          "type": "address"
        },
        {
          "indexed": true,
          "internalType": "address",
          "name": "renteeAddress",
          "type": "address"
        },
        {
          "indexed": false,
          "internalType": "address",
          "name": "serviceAddress",
          "type": "address"
        },
        {
          "indexed": false,
          "internalType": "uint256",
          "name": "rentStartTimestamp",
          "type": "uint256"
        }
      ],
      "name": "RentNFT",
      "type": "event"
    },
    {
      "anonymous": false,
      "inputs": [
        {
          "indexed": true,
          "internalType": "address",
          "name": "nftAddress",
          "type": "address"
        },
        {
          "indexed": true,
          "internalType": "uint256",
          "name": "tokenId",
          "type": "uint256"
        },
        {
          "indexed": false,
          "internalType": "uint256",
          "name": "rentFee",
          "type": "uint256"
        },
        {
          "indexed": false,
          "internalType": "address",
          "name": "feeTokenAddress",
          "type": "address"
        },
        {
          "indexed": false,
          "internalType": "uint256",
          "name": "rentFeeByToken",
          "type": "uint256"
        },
        {
          "indexed": false,
          "internalType": "bool",
          "name": "isRentByToken",
          "type": "bool"
        },
        {
          "indexed": false,
          "internalType": "uint256",
          "name": "rentDuration",
          "type": "uint256"
        },
        {
          "indexed": false,
          "internalType": "address",
          "name": "renterAddress",
          "type": "address"
        },
        {
          "indexed": true,
          "internalType": "address",
          "name": "renteeAddress",
          "type": "address"
        },
        {
          "indexed": false,
          "internalType": "address",
          "name": "serviceAddress",
          "type": "address"
        },
        {
          "indexed": false,
          "internalType": "uint256",
          "name": "rentStartTimestamp",
          "type": "uint256"
        }
      ],
      "name": "SettleRentData",
      "type": "event"
    },
    {
      "anonymous": false,
      "inputs": [
        {
          "indexed": false,
          "internalType": "address",
          "name": "account",
          "type": "address"
        }
      ],
      "name": "Unpaused",
      "type": "event"
    },
    {
      "anonymous": false,
      "inputs": [
        {
          "indexed": true,
          "internalType": "address",
          "name": "collectionAddress",
          "type": "address"
        },
        {
          "indexed": false,
          "internalType": "string",
          "name": "uri",
          "type": "string"
        }
      ],
      "name": "UnregisterCollection",
      "type": "event"
    },
    {
      "anonymous": false,
      "inputs": [
        {
          "indexed": true,
          "internalType": "address",
          "name": "nftAddress",
          "type": "address"
        },
        {
          "indexed": true,
          "internalType": "uint256",
          "name": "tokenId",
          "type": "uint256"
        },
        {
          "indexed": false,
          "internalType": "uint256",
          "name": "rentFee",
          "type": "uint256"
        },
        {
          "indexed": false,
          "internalType": "address",
          "name": "feeTokenAddress",
          "type": "address"
        },
        {
          "indexed": false,
          "internalType": "uint256",
          "name": "rentFeeByToken",
          "type": "uint256"
        },
        {
          "indexed": false,
          "internalType": "uint256",
          "name": "rentDuration",
          "type": "uint256"
        },
        {
          "indexed": false,
          "internalType": "address",
          "name": "NFTOwnerAddress",
          "type": "address"
        },
        {
          "indexed": true,
          "internalType": "address",
          "name": "UnregisterAddress",
          "type": "address"
        }
      ],
      "name": "UnregisterNFT",
      "type": "event"
    },
    {
      "anonymous": false,
      "inputs": [
        {
          "indexed": true,
          "internalType": "address",
          "name": "serviceAddress",
          "type": "address"
        },
        {
          "indexed": false,
          "internalType": "string",
          "name": "uri",
          "type": "string"
        }
      ],
      "name": "UnregisterService",
      "type": "event"
    },
    {
      "anonymous": false,
      "inputs": [
        {
          "indexed": true,
          "internalType": "address",
          "name": "tokenAddress",
          "type": "address"
        },
        {
          "indexed": false,
          "internalType": "string",
          "name": "name",
          "type": "string"
        }
      ],
      "name": "UnregisterToken",
      "type": "event"
    },
    {
      "anonymous": false,
      "inputs": [
        {
          "indexed": true,
          "internalType": "address",
          "name": "nftAddress",
          "type": "address"
        },
        {
          "indexed": true,
          "internalType": "uint256",
          "name": "tokenId",
          "type": "uint256"
        },
        {
          "indexed": false,
          "internalType": "uint256",
          "name": "rentFee",
          "type": "uint256"
        },
        {
          "indexed": false,
          "internalType": "address",
          "name": "feeTokenAddress",
          "type": "address"
        },
        {
          "indexed": false,
          "internalType": "uint256",
          "name": "rentFeeByToken",
          "type": "uint256"
        },
        {
          "indexed": false,
          "internalType": "bool",
          "name": "isRentByToken",
          "type": "bool"
        },
        {
          "indexed": false,
          "internalType": "uint256",
          "name": "rentDuration",
          "type": "uint256"
        },
        {
          "indexed": false,
          "internalType": "address",
          "name": "renterAddress",
          "type": "address"
        },
        {
          "indexed": true,
          "internalType": "address",
          "name": "renteeAddress",
          "type": "address"
        },
        {
          "indexed": false,
          "internalType": "address",
          "name": "serviceAddress",
          "type": "address"
        },
        {
          "indexed": false,
          "internalType": "uint256",
          "name": "rentStartTimestamp",
          "type": "uint256"
        }
      ],
      "name": "UnrentNFT",
      "type": "event"
    },
    {
      "anonymous": false,
      "inputs": [
        {
          "indexed": true,
          "internalType": "address",
          "name": "recipient",
          "type": "address"
        },
        {
          "indexed": true,
          "internalType": "address",
          "name": "tokenAddress",
          "type": "address"
        },
        {
          "indexed": true,
          "internalType": "uint256",
          "name": "amount",
          "type": "uint256"
        }
      ],
      "name": "WithdrawMyBalance",
      "type": "event"
    },
    {
      "stateMutability": "payable",
      "type": "fallback"
    },
    {
      "inputs": [
        {
          "internalType": "address",
          "name": "nftAddress",
          "type": "address"
        },
        {
          "internalType": "uint256",
          "name": "tokenId",
          "type": "uint256"
        },
        {
          "internalType": "uint256",
          "name": "rentFee",
          "type": "uint256"
        },
        {
          "internalType": "address",
          "name": "feeTokenAddress",
          "type": "address"
        },
        {
          "internalType": "uint256",
          "name": "rentFeeByToken",
          "type": "uint256"
        },
        {
          "internalType": "uint256",
          "name": "rentDuration",
          "type": "uint256"
        }
      ],
      "name": "changeNFT",
      "outputs": [
        {
          "internalType": "bool",
          "name": "success",
          "type": "bool"
        }
      ],
      "stateMutability": "nonpayable",
      "type": "function"
    },
    {
      "inputs": [
        {
          "internalType": "address",
          "name": "tokenAddress_",
          "type": "address"
        },
        {
          "internalType": "address",
          "name": "rewardTokenShareContractAddress_",
          "type": "address"
        }
      ],
      "name": "distributeVestingToken",
      "outputs": [],
      "stateMutability": "nonpayable",
      "type": "function"
    },
    {
      "inputs": [],
      "name": "getAllAccountBalance",
      "outputs": [
        {
          "components": [
            {
              "internalType": "address",
              "name": "accountAddress",
              "type": "address"
            },
            {
              "internalType": "address",
              "name": "tokenAddress",
              "type": "address"
            },
            {
              "internalType": "uint256",
              "name": "amount",
              "type": "uint256"
            }
          ],
          "internalType": "struct accountBalanceIterableMap.accountBalance[]",
          "name": "",
          "type": "tuple[]"
        }
      ],
      "stateMutability": "view",
      "type": "function"
    },
    {
      "inputs": [],
      "name": "getAllCollection",
      "outputs": [
        {
          "components": [
            {
              "internalType": "address",
              "name": "collectionAddress",
              "type": "address"
            },
            {
              "internalType": "string",
              "name": "uri",
              "type": "string"
            }
          ],
          "internalType": "struct collectionDataIterableMap.collectionData[]",
          "name": "",
          "type": "tuple[]"
        }
      ],
      "stateMutability": "view",
      "type": "function"
    },
    {
      "inputs": [],
      "name": "getAllPendingRentFee",
      "outputs": [
        {
          "components": [
            {
              "internalType": "address",
              "name": "renterAddress",
              "type": "address"
            },
            {
              "internalType": "address",
              "name": "serviceAddress",
              "type": "address"
            },
            {
              "internalType": "address",
              "name": "feeTokenAddress",
              "type": "address"
            },
            {
              "internalType": "uint256",
              "name": "amount",
              "type": "uint256"
            }
          ],
          "internalType": "struct pendingRentFeeIterableMap.pendingRentFee[]",
          "name": "",
          "type": "tuple[]"
        }
      ],
      "stateMutability": "view",
      "type": "function"
    },
    {
      "inputs": [],
      "name": "getAllRegisterData",
      "outputs": [
        {
          "components": [
            {
              "internalType": "address",
              "name": "nftAddress",
              "type": "address"
            },
            {
              "internalType": "uint256",
              "name": "tokenId",
              "type": "uint256"
            },
            {
              "internalType": "uint256",
              "name": "rentFee",
              "type": "uint256"
            },
            {
              "internalType": "address",
              "name": "feeTokenAddress",
              "type": "address"
            },
            {
              "internalType": "uint256",
              "name": "rentFeeByToken",
              "type": "uint256"
            },
            {
              "internalType": "uint256",
              "name": "rentDuration",
              "type": "uint256"
            }
          ],
          "internalType": "struct registerDataIterableMap.registerData[]",
          "name": "",
          "type": "tuple[]"
        }
      ],
      "stateMutability": "view",
      "type": "function"
    },
    {
      "inputs": [],
      "name": "getAllRentData",
      "outputs": [
        {
          "components": [
            {
              "internalType": "address",
              "name": "nftAddress",
              "type": "address"
            },
            {
              "internalType": "uint256",
              "name": "tokenId",
              "type": "uint256"
            },
            {
              "internalType": "uint256",
              "name": "rentFee",
              "type": "uint256"
            },
            {
              "internalType": "address",
              "name": "feeTokenAddress",
              "type": "address"
            },
            {
              "internalType": "uint256",
              "name": "rentFeeByToken",
              "type": "uint256"
            },
            {
              "internalType": "bool",
              "name": "isRentByToken",
              "type": "bool"
            },
            {
              "internalType": "uint256",
              "name": "rentDuration",
              "type": "uint256"
            },
            {
              "internalType": "address",
              "name": "renterAddress",
              "type": "address"
            },
            {
              "internalType": "address",
              "name": "renteeAddress",
              "type": "address"
            },
            {
              "internalType": "address",
              "name": "serviceAddress",
              "type": "address"
            },
            {
              "internalType": "uint256",
              "name": "rentStartTimestamp",
              "type": "uint256"
            }
          ],
          "internalType": "struct rentDataIterableMap.rentData[]",
          "name": "",
          "type": "tuple[]"
        }
      ],
      "stateMutability": "view",
      "type": "function"
    },
    {
      "inputs": [],
      "name": "getAllService",
      "outputs": [
        {
          "components": [
            {
              "internalType": "address",
              "name": "serviceAddress",
              "type": "address"
            },
            {
              "internalType": "string",
              "name": "uri",
              "type": "string"
            }
          ],
          "internalType": "struct serviceDataIterableMap.serviceData[]",
          "name": "",
          "type": "tuple[]"
        }
      ],
      "stateMutability": "view",
      "type": "function"
    },
    {
      "inputs": [],
      "name": "getAllToken",
      "outputs": [
        {
          "components": [
            {
              "internalType": "address",
              "name": "tokenAddress",
              "type": "address"
            },
            {
              "internalType": "string",
              "name": "name",
              "type": "string"
            }
          ],
          "internalType": "struct tokenDataIterableMap.tokenData[]",
          "name": "",
          "type": "tuple[]"
        }
      ],
      "stateMutability": "view",
      "type": "function"
    },
    {
      "inputs": [
        {
          "internalType": "address",
          "name": "collectionAddress",
          "type": "address"
        }
      ],
      "name": "getCollection",
      "outputs": [
        {
          "components": [
            {
              "internalType": "address",
              "name": "collectionAddress",
              "type": "address"
            },
            {
              "internalType": "string",
              "name": "uri",
              "type": "string"
            }
          ],
          "internalType": "struct collectionDataIterableMap.collectionData",
          "name": "",
          "type": "tuple"
        }
      ],
      "stateMutability": "view",
      "type": "function"
    },
    {
      "inputs": [],
      "name": "getFeeQuota",
      "outputs": [
        {
          "internalType": "uint256",
          "name": "renterFeeQuota",
          "type": "uint256"
        },
        {
          "internalType": "uint256",
          "name": "serviceFeeQuota",
          "type": "uint256"
        },
        {
          "internalType": "uint256",
          "name": "marketFeeQuota",
          "type": "uint256"
        }
      ],
      "stateMutability": "view",
      "type": "function"
    },
    {
      "inputs": [],
      "name": "getMarketShareAddress",
      "outputs": [
        {
          "internalType": "address",
          "name": "shareAddress",
          "type": "address"
        }
      ],
      "stateMutability": "view",
      "type": "function"
    },
    {
      "inputs": [
        {
          "internalType": "address",
          "name": "tokenAddress",
          "type": "address"
        }
      ],
      "name": "getMyBalance",
      "outputs": [
        {
          "internalType": "uint256",
          "name": "balance",
          "type": "uint256"
        }
      ],
      "stateMutability": "view",
      "type": "function"
    },
    {
      "inputs": [
        {
          "internalType": "address",
          "name": "nftAddress",
          "type": "address"
        },
        {
          "internalType": "uint256",
          "name": "tokenId",
          "type": "uint256"
        }
      ],
      "name": "getRegisterData",
      "outputs": [
        {
          "components": [
            {
              "internalType": "address",
              "name": "nftAddress",
              "type": "address"
            },
            {
              "internalType": "uint256",
              "name": "tokenId",
              "type": "uint256"
            },
            {
              "internalType": "uint256",
              "name": "rentFee",
              "type": "uint256"
            },
            {
              "internalType": "address",
              "name": "feeTokenAddress",
              "type": "address"
            },
            {
              "internalType": "uint256",
              "name": "rentFeeByToken",
              "type": "uint256"
            },
            {
              "internalType": "uint256",
              "name": "rentDuration",
              "type": "uint256"
            }
          ],
          "internalType": "struct registerDataIterableMap.registerData",
          "name": "",
          "type": "tuple"
        }
      ],
      "stateMutability": "view",
      "type": "function"
    },
    {
      "inputs": [
        {
          "internalType": "address",
          "name": "nftAddress",
          "type": "address"
        },
        {
          "internalType": "uint256",
          "name": "tokenId",
          "type": "uint256"
        }
      ],
      "name": "getRentData",
      "outputs": [
        {
          "components": [
            {
              "internalType": "address",
              "name": "nftAddress",
              "type": "address"
            },
            {
              "internalType": "uint256",
              "name": "tokenId",
              "type": "uint256"
            },
            {
              "internalType": "uint256",
              "name": "rentFee",
              "type": "uint256"
            },
            {
              "internalType": "address",
              "name": "feeTokenAddress",
              "type": "address"
            },
            {
              "internalType": "uint256",
              "name": "rentFeeByToken",
              "type": "uint256"
            },
            {
              "internalType": "bool",
              "name": "isRentByToken",
              "type": "bool"
            },
            {
              "internalType": "uint256",
              "name": "rentDuration",
              "type": "uint256"
            },
            {
              "internalType": "address",
              "name": "renterAddress",
              "type": "address"
            },
            {
              "internalType": "address",
              "name": "renteeAddress",
              "type": "address"
            },
            {
              "internalType": "address",
              "name": "serviceAddress",
              "type": "address"
            },
            {
              "internalType": "uint256",
              "name": "rentStartTimestamp",
              "type": "uint256"
            }
          ],
          "internalType": "struct rentDataIterableMap.rentData",
          "name": "",
          "type": "tuple"
        }
      ],
      "stateMutability": "view",
      "type": "function"
    },
    {
      "inputs": [
        {
          "internalType": "address",
          "name": "serviceAddress",
          "type": "address"
        }
      ],
      "name": "getService",
      "outputs": [
        {
          "components": [
            {
              "internalType": "address",
              "name": "serviceAddress",
              "type": "address"
            },
            {
              "internalType": "string",
              "name": "uri",
              "type": "string"
            }
          ],
          "internalType": "struct serviceDataIterableMap.serviceData",
          "name": "",
          "type": "tuple"
        }
      ],
      "stateMutability": "view",
      "type": "function"
    },
    {
      "inputs": [],
      "name": "getThreshold",
      "outputs": [
        {
          "internalType": "uint256",
          "name": "",
          "type": "uint256"
        }
      ],
      "stateMutability": "view",
      "type": "function"
    },
    {
      "inputs": [
        {
          "internalType": "address",
          "name": "tokenAddress_",
          "type": "address"
        }
      ],
      "name": "getTotalAccountBalance",
      "outputs": [
        {
          "internalType": "uint256",
          "name": "totalAccountBalance_",
          "type": "uint256"
        }
      ],
      "stateMutability": "view",
      "type": "function"
    },
    {
      "inputs": [
        {
          "internalType": "address",
          "name": "account",
          "type": "address"
        }
      ],
      "name": "isOwnerOrRenter",
      "outputs": [
        {
          "internalType": "bool",
          "name": "success",
          "type": "bool"
        }
      ],
      "stateMutability": "view",
      "type": "function"
    },
    {
      "inputs": [],
      "name": "owner",
      "outputs": [
        {
          "internalType": "address",
          "name": "",
          "type": "address"
        }
      ],
      "stateMutability": "view",
      "type": "function"
    },
    {
      "inputs": [],
      "name": "pause",
      "outputs": [],
      "stateMutability": "nonpayable",
      "type": "function"
    },
    {
      "inputs": [],
      "name": "paused",
      "outputs": [
        {
          "internalType": "bool",
          "name": "",
          "type": "bool"
        }
      ],
      "stateMutability": "view",
      "type": "function"
    },
    {
      "inputs": [
        {
          "internalType": "address",
          "name": "collectionAddress",
          "type": "address"
        },
        {
          "internalType": "string",
          "name": "uri",
          "type": "string"
        }
      ],
      "name": "registerCollection",
      "outputs": [
        {
          "internalType": "bool",
          "name": "success",
          "type": "bool"
        }
      ],
      "stateMutability": "nonpayable",
      "type": "function"
    },
    {
      "inputs": [
        {
          "internalType": "address",
          "name": "nftAddress",
          "type": "address"
        },
        {
          "internalType": "uint256",
          "name": "tokenId",
          "type": "uint256"
        }
      ],
      "name": "registerNFT",
      "outputs": [
        {
          "internalType": "bool",
          "name": "success",
          "type": "bool"
        }
      ],
      "stateMutability": "nonpayable",
      "type": "function"
    },
    {
      "inputs": [
        {
          "internalType": "address",
          "name": "serviceAddress",
          "type": "address"
        },
        {
          "internalType": "string",
          "name": "uri",
          "type": "string"
        }
      ],
      "name": "registerService",
      "outputs": [
        {
          "internalType": "bool",
          "name": "success",
          "type": "bool"
        }
      ],
      "stateMutability": "nonpayable",
      "type": "function"
    },
    {
      "inputs": [
        {
          "internalType": "address",
          "name": "tokenAddress",
          "type": "address"
        },
        {
          "internalType": "string",
          "name": "name",
          "type": "string"
        }
      ],
      "name": "registerToken",
      "outputs": [
        {
          "internalType": "bool",
          "name": "success",
          "type": "bool"
        }
      ],
      "stateMutability": "nonpayable",
      "type": "function"
    },
    {
      "inputs": [],
      "name": "renounceOwnership",
      "outputs": [],
      "stateMutability": "nonpayable",
      "type": "function"
    },
    {
      "inputs": [
        {
          "internalType": "address",
          "name": "nftAddress",
          "type": "address"
        },
        {
          "internalType": "uint256",
          "name": "tokenId",
          "type": "uint256"
        },
        {
          "internalType": "address",
          "name": "serviceAddress",
          "type": "address"
        }
      ],
      "name": "rentNFT",
      "outputs": [
        {
          "internalType": "bool",
          "name": "success",
          "type": "bool"
        }
      ],
      "stateMutability": "payable",
      "type": "function"
    },
    {
      "inputs": [
        {
          "internalType": "address",
          "name": "nftAddress",
          "type": "address"
        },
        {
          "internalType": "uint256",
          "name": "tokenId",
          "type": "uint256"
        },
        {
          "internalType": "address",
          "name": "serviceAddress",
          "type": "address"
        }
      ],
      "name": "rentNFTByToken",
      "outputs": [
        {
          "internalType": "bool",
          "name": "success",
          "type": "bool"
        }
      ],
      "stateMutability": "payable",
      "type": "function"
    },
    {
      "inputs": [
        {
          "internalType": "uint256",
          "name": "renterFeeQuota",
          "type": "uint256"
        },
        {
          "internalType": "uint256",
          "name": "serviceFeeQuota",
          "type": "uint256"
        },
        {
          "internalType": "uint256",
          "name": "marketFeeQuota",
          "type": "uint256"
        }
      ],
      "name": "setFeeQuota",
      "outputs": [],
      "stateMutability": "nonpayable",
      "type": "function"
    },
    {
      "inputs": [
        {
          "internalType": "address",
          "name": "shareAddress",
          "type": "address"
        }
      ],
      "name": "setMarketShareAddress",
      "outputs": [],
      "stateMutability": "nonpayable",
      "type": "function"
    },
    {
      "inputs": [
        {
          "internalType": "uint256",
          "name": "threshold_",
          "type": "uint256"
        }
      ],
      "name": "setThreshold",
      "outputs": [],
      "stateMutability": "nonpayable",
      "type": "function"
    },
    {
      "inputs": [
        {
          "internalType": "address",
          "name": "nftAddress",
          "type": "address"
        },
        {
          "internalType": "uint256",
          "name": "tokenId",
          "type": "uint256"
        }
      ],
      "name": "settleRentData",
      "outputs": [
        {
          "internalType": "bool",
          "name": "success",
          "type": "bool"
        }
      ],
      "stateMutability": "nonpayable",
      "type": "function"
    },
    {
      "inputs": [
        {
          "internalType": "address",
          "name": "newOwner",
          "type": "address"
        }
      ],
      "name": "transferOwnership",
      "outputs": [],
      "stateMutability": "nonpayable",
      "type": "function"
    },
    {
      "inputs": [],
      "name": "unpause",
      "outputs": [],
      "stateMutability": "nonpayable",
      "type": "function"
    },
    {
      "inputs": [
        {
          "internalType": "address",
          "name": "collectionAddress",
          "type": "address"
        }
      ],
      "name": "unregisterCollection",
      "outputs": [
        {
          "internalType": "bool",
          "name": "success",
          "type": "bool"
        }
      ],
      "stateMutability": "nonpayable",
      "type": "function"
    },
    {
      "inputs": [
        {
          "internalType": "address",
          "name": "nftAddress",
          "type": "address"
        },
        {
          "internalType": "uint256",
          "name": "tokenId",
          "type": "uint256"
        }
      ],
      "name": "unregisterNFT",
      "outputs": [
        {
          "internalType": "bool",
          "name": "success",
          "type": "bool"
        }
      ],
      "stateMutability": "nonpayable",
      "type": "function"
    },
    {
      "inputs": [
        {
          "internalType": "address",
          "name": "serviceAddress",
          "type": "address"
        }
      ],
      "name": "unregisterService",
      "outputs": [
        {
          "internalType": "bool",
          "name": "success",
          "type": "bool"
        }
      ],
      "stateMutability": "nonpayable",
      "type": "function"
    },
    {
      "inputs": [
        {
          "internalType": "address",
          "name": "tokenAddress",
          "type": "address"
        }
      ],
      "name": "unregisterToken",
      "outputs": [
        {
          "internalType": "bool",
          "name": "success",
          "type": "bool"
        }
      ],
      "stateMutability": "nonpayable",
      "type": "function"
    },
    {
      "inputs": [
        {
          "internalType": "address",
          "name": "nftAddress",
          "type": "address"
        },
        {
          "internalType": "uint256",
          "name": "tokenId",
          "type": "uint256"
        }
      ],
      "name": "unrentNFT",
      "outputs": [
        {
          "internalType": "bool",
          "name": "success",
          "type": "bool"
        }
      ],
      "stateMutability": "nonpayable",
      "type": "function"
    },
    {
      "inputs": [
        {
          "internalType": "address",
          "name": "recipient",
          "type": "address"
        },
        {
          "internalType": "address",
          "name": "tokenAddress",
          "type": "address"
        }
      ],
      "name": "withdrawMyBalance",
      "outputs": [
        {
          "internalType": "bool",
          "name": "success",
          "type": "bool"
        }
      ],
      "stateMutability": "payable",
      "type": "function"
    },
    {
      "stateMutability": "payable",
      "type": "receive"
    }
  ],
  "bytecode": "0x6080604052670de0b6b3a76400006002556201518060035560236004556023600555601e60065560646007553480156200003857600080fd5b50620000443362000069565b6000805460ff60a01b19169055600180546001600160a01b03191633179055620000b9565b600080546001600160a01b038381166001600160a01b0319831681178455604051919092169283917f8be0079c531659141344cd1fd0a4f28419497f9722a3daafe3b4186f6b6457e09190a35050565b615f5a80620000c96000396000f3fe6080604052600436106101da5760003560e01c806301cf2bae1461023b57806306eb924f1461026e57806315a523021461029e578063173cb999146102cb57806317a6b609146102eb5780631c2c2c241461030b5780632736a8621461032d5780632d7402261461034f5780632e6379ed1461036f5780633f4ba83a146103825780634419ebb61461039757806345d44eda146103c45780634b6c05fa146103e45780635c975abb1461040b5780636558fce6146104205780636b4a08961461044057806370473d8614610460578063715018a61461048257806377860cdd146104975780637e3ef7cd146104b757806381ac825c146104d757806383b2f911146104ea5780638456cb591461051757806385e3c1d41461052c5780638bb72e831461054e5780638da5cb5b1461057057806395dbd44014610585578063960bfe04146105a7578063adee9abd146105c7578063d4002fed146105e7578063d4fbeb19146105fa578063e2fcbf731461061a578063e40de8871461063c578063e5d1420f1461065c578063e75235b81461067c578063e7823fac14610691578063e8592fc7146106b1578063ec51c0d1146106d1578063ee5afa5214610702578063eec3104214610722578063f2fde38b146107445761020e565b3661020e57604051349033907fd6717f327e0cb88b4a97a7f67a453e9258252c34937ccbdd86de7cb840e7def390600090a3005b60405133907fdd0c5778ddb0b0501649417aeffed44057db3d5d530231758c8dc5ef6eeb789490600090a2005b34801561024757600080fd5b5061025b610256366004615152565b610764565b6040519081526020015b60405180910390f35b34801561027a57600080fd5b5061028e610289366004615205565b610825565b6040519015158152602001610265565b3480156102aa57600080fd5b506102be6102b9366004615152565b6109e0565b604051610265919061532f565b3480156102d757600080fd5b5061028e6102e6366004615152565b610a76565b3480156102f757600080fd5b5061028e610306366004615342565b610c1f565b34801561031757600080fd5b50610320611003565b6040516102659190615411565b34801561033957600080fd5b5061034d610348366004615460565b611174565b005b34801561035b57600080fd5b5061028e61036a366004615205565b6111d7565b61028e61037d36600461548c565b611365565b34801561038e57600080fd5b5061034d611757565b3480156103a357600080fd5b506103b76103b2366004615342565b611769565b60405161026591906154c5565b3480156103d057600080fd5b5061028e6103df366004615152565b611805565b3480156103f057600080fd5b506001546001600160a01b03165b60405161026591906154d4565b34801561041757600080fd5b5061028e611a4a565b34801561042c57600080fd5b5061028e61043b3660046154e8565b611a5a565b34801561044c57600080fd5b5061028e61045b366004615342565b611d38565b34801561046c57600080fd5b506104756123e6565b6040516102659190615589565b34801561048e57600080fd5b5061034d612510565b3480156104a357600080fd5b5061028e6104b2366004615152565b612522565b3480156104c357600080fd5b5061025b6104d2366004615152565b612746565b61028e6104e53660046155cb565b6127d5565b3480156104f657600080fd5b5061050a610505366004615342565b612ea3565b604051610265919061560d565b34801561052357600080fd5b5061034d612f37565b34801561053857600080fd5b50610541612f47565b604051610265919061561b565b34801561055a57600080fd5b506105636130db565b604051610265919061567d565b34801561057c57600080fd5b506103fe61320e565b34801561059157600080fd5b5061059a61321d565b60405161026591906156ef565b3480156105b357600080fd5b5061034d6105c2366004615744565b6133a4565b3480156105d357600080fd5b5061028e6105e2366004615152565b6133b1565b61028e6105f53660046155cb565b6135d5565b34801561060657600080fd5b5061028e610615366004615205565b613bb9565b34801561062657600080fd5b5061062f613d47565b604051610265919061575d565b34801561064857600080fd5b506102be610657366004615152565b613e50565b34801561066857600080fd5b5061028e610677366004615342565b613e92565b34801561068857600080fd5b5060075461025b565b34801561069d57600080fd5b5061034d6106ac36600461548c565b614168565b3480156106bd57600080fd5b5061028e6106cc366004615342565b614440565b3480156106dd57600080fd5b5060045460055460065460408051938452602084019290925290820152606001610265565b34801561070e57600080fd5b5061034d61071d366004615152565b6149c6565b34801561072e57600080fd5b506107376149f0565b60405161026591906157b5565b34801561075057600080fd5b5061034d61075f366004615152565b614b77565b60008061076f61502e565b60005b60155481101561081c576015805460149190839081106107945761079461580a565b906000526020600020016040516107ab9190615855565b908152604080516020928190038301812060608201835260018101546001600160a01b039081168352600282015481169483018590526003909101549282019290925293508616141561080a5760408201516108079084615907565b92505b806108148161591f565b915050610772565b50909392505050565b600061082f614bf0565b610837614c4f565b6040516360f353e160e01b815273__$79a40a2052c9947e027843e42106f8b048$__906360f353e19061087190600a90879060040161593a565b60206040518083038186803b15801561088957600080fd5b505af415801561089d573d6000803e3d6000fd5b505050506040513d601f19601f820116820180604052508101906108c19190615961565b156108e75760405162461bcd60e51b81526004016108de9061597c565b60405180910390fd5b60405163287af74760e01b815260009073__$79a40a2052c9947e027843e42106f8b048$__9063287af7479061092690600a9088908890600401615999565b60206040518083038186803b15801561093e57600080fd5b505af4158015610952573d6000803e3d6000fd5b505050506040513d601f19601f820116820180604052508101906109769190615961565b9050600181151514156109ce57836001600160a01b03167fdcc2016b74f9e1be59c35f005623093f22ee185961aa79657be041dba04ed0a4846040516109bc91906159cc565b60405180910390a260019150506109da565b60009150506109da565b505b92915050565b6109e861504e565b604051631eb966b960e01b815273__$a27ab5a2953dc10a9c552591268754b616$__90631eb966b990610a2290600c90869060040161593a565b60006040518083038186803b158015610a3a57600080fd5b505af4158015610a4e573d6000803e3d6000fd5b505050506040513d6000823e601f3d908101601f191682016040526109da9190810190615a9f565b6000806060600080610a866149f0565b905060005b8151811015610b87576000828281518110610aa857610aa861580a565b6020026020010151600001519050806001600160a01b031688604051602401610ad191906154d4565b60408051601f198184030181529181526020820180516001600160e01b03166370a0823160e01b17905251610b069190615ad3565b600060405180830381855afa9150503d8060008114610b41576040519150601f19603f3d011682016040523d82523d6000602084013e610b46565b606091505b5080519197509550600090610b649087016020908101908801615aef565b9050610b708186615907565b945050508080610b7f9061591f565b915050610a8b565b508115610b9a5750600195945050505050565b6000610ba4611003565b905060005b8151811015610c11576000828281518110610bc657610bc661580a565b602002602001015161010001519050886001600160a01b0316816001600160a01b03161415610bfe5750600198975050505050505050565b5080610c098161591f565b915050610ba9565b506000979650505050505050565b6000610c29614c4f565b6040516304ecf28360e41b815273__$aabfbf51bc7bf3b8af0580fb7224204a01$__90634ecf283090610c6590600e9087908790600401615b08565b60206040518083038186803b158015610c7d57600080fd5b505af4158015610c91573d6000803e3d6000fd5b505050506040513d601f19601f82011682018060405250810190610cb59190615961565b15610ce85760405162461bcd60e51b815260206004820152600360248201526229269960e91b60448201526064016108de565b6000610cf48433614c97565b90506000610d028585614d4a565b90506001600160a01b038116610d435760405162461bcd60e51b81526004016108de90602080825260049082015263524d323160e01b604082015260600190565b60018215151480610d5c57506001600160a01b03811633145b80610df257506040516360f353e160e01b815273__$79a40a2052c9947e027843e42106f8b048$__906360f353e190610d9c90600a90339060040161593a565b60206040518083038186803b158015610db457600080fd5b505af4158015610dc8573d6000803e3d6000fd5b505050506040513d601f19601f82011682018060405250810190610dec9190615961565b15156001145b610e245760405162461bcd60e51b815260206004820152600360248201526214934d60ea1b60448201526064016108de565b6040516360f353e160e01b815273__$79a40a2052c9947e027843e42106f8b048$__906360f353e190610e5e90600a90899060040161593a565b60206040518083038186803b158015610e7657600080fd5b505af4158015610e8a573d6000803e3d6000fd5b505050506040513d601f19601f82011682018060405250810190610eae9190615961565b1515600114610ee85760405162461bcd60e51b81526004016108de906020808252600490820152632926991960e11b604082015260600190565b60025460035460405163cddd4b6760e01b815260009273__$aabfbf51bc7bf3b8af0580fb7224204a01$__9263cddd4b6792610f3392600e928c928c92918991829190600401615b27565b60206040518083038186803b158015610f4b57600080fd5b505af4158015610f5f573d6000803e3d6000fd5b505050506040513d601f19601f82011682018060405250810190610f839190615961565b905060018115151415610ff757816001600160a01b031685876001600160a01b03167f582e65d918b73308f2eb058e75e68168f22c49c2994530f72d46177c78435cbb600254600354604051610fe3929190918252602082015260400190565b60405180910390a4600193505050506109da565b600093505050506109da565b6011546060906000906001600160401b038111156110235761102361516f565b60405190808252806020026020018201604052801561105c57816020015b611049615066565b8152602001906001900390816110415790505b50905060005b60115481101561116e576011805460109190839081106110845761108461580a565b9060005260206000200160405161109b9190615855565b9081526040805191829003602090810183206101608401835260018101546001600160a01b03908116855260028201549285019290925260038101549284019290925260048201548116606084015260058201546080840152600682015460ff16151560a0840152600782015460c08401526008820154811660e084015260098201548116610100840152600a82015416610120830152600b015461014082015282518390839081106111505761115061580a565b602002602001018190525080806111669061591f565b915050611062565b50919050565b61117c614bf0565b806111878385615907565b6111919190615907565b6064146111c95760405162461bcd60e51b81526004016108de906020808252600490820152632926989960e11b604082015260600190565b600492909255600555600655565b60006111e1614bf0565b6111e9614c4f565b604051638c9a6cc360e01b815273__$a27ab5a2953dc10a9c552591268754b616$__90638c9a6cc39061122390600c90879060040161593a565b60206040518083038186803b15801561123b57600080fd5b505af415801561124f573d6000803e3d6000fd5b505050506040513d601f19601f820116820180604052508101906112739190615961565b156112905760405162461bcd60e51b81526004016108de9061597c565b6040516327a7887760e21b815260009073__$a27ab5a2953dc10a9c552591268754b616$__90639e9e21dc906112cf90600c9088908890600401615999565b60206040518083038186803b1580156112e757600080fd5b505af41580156112fb573d6000803e3d6000fd5b505050506040513d601f19601f8201168201806040525081019061131f9190615961565b9050600181151514156109ce57836001600160a01b03167f26e277514df07793f28eff0e6f05b34a8dc0be0012b50d1b6162ce3c958b0c4e846040516109bc91906159cc565b6000336001600160a01b0384161480611396575061138161320e565b6001600160a01b0316336001600160a01b0316145b6113cb5760405162461bcd60e51b81526004016108de906020808252600490820152630a49a62760e31b604082015260600190565b60405163b52bf90f60e01b815260009073__$35fde6ac6f7fb08b81f20635e2dfbb2343$__9063b52bf90f9061140a9060149088908890600401615b65565b60206040518083038186803b15801561142257600080fd5b505af4158015611436573d6000803e3d6000fd5b505050506040513d601f19601f8201168201806040525081019061145a9190615aef565b905080156109d8576001600160a01b038316611502576000846001600160a01b03168260405160006040518083038185875af1925050503d80600081146114bd576040519150601f19603f3d011682016040523d82523d6000602084013e6114c2565b606091505b50509050806114fc5760405162461bcd60e51b81526004016108de9060208082526004908201526314934c4d60e21b604082015260600190565b50611664565b60405163095ea7b360e01b8152306004820152602481018290526000906001600160a01b0385169063095ea7b390604401602060405180830381600087803b15801561154d57600080fd5b505af1158015611561573d6000803e3d6000fd5b505050506040513d601f19601f820116820180604052508101906115859190615961565b9050806115bd5760405162461bcd60e51b81526004016108de90602080825260049082015263524d313960e01b604082015260600190565b6040516323b872dd60e01b81526000906001600160a01b038616906323b872dd906115f09030908a908890600401615b84565b602060405180830381600087803b15801561160a57600080fd5b505af115801561161e573d6000803e3d6000fd5b505050506040513d601f19601f820116820180604052508101906116429190615961565b9050806116615760405162461bcd60e51b81526004016108de90615ba8565b50505b60405163bc824a9360e01b815260009073__$35fde6ac6f7fb08b81f20635e2dfbb2343$__9063bc824a93906116a39060149089908990600401615b65565b60206040518083038186803b1580156116bb57600080fd5b505af41580156116cf573d6000803e3d6000fd5b505050506040513d601f19601f820116820180604052508101906116f39190615961565b90506001811515141561174c5781846001600160a01b0316866001600160a01b03167ff19b643806aff6923e6a83303f2c43467bb6e47487c68586ec0bcfb7097e8f7660405160405180910390a46001925050506109da565b6000925050506109da565b61175f614bf0565b611767614e11565b565b611771615066565b60405163af8b7c8160e01b815273__$c9b49513854812b7b6c4b448b2aa4684e3$__9063af8b7c81906117ad9060109087908790600401615b08565b6101606040518083038186803b1580156117c657600080fd5b505af41580156117da573d6000803e3d6000fd5b505050506040513d601f19601f820116820180604052508101906117fe9190615bc6565b9392505050565b600061180f614bf0565b604051638c9a6cc360e01b815273__$a27ab5a2953dc10a9c552591268754b616$__90638c9a6cc39061184990600c90869060040161593a565b60206040518083038186803b15801561186157600080fd5b505af4158015611875573d6000803e3d6000fd5b505050506040513d601f19601f820116820180604052508101906118999190615961565b15156001146118ba5760405162461bcd60e51b81526004016108de90615c7f565b604051631eb966b960e01b815260009073__$a27ab5a2953dc10a9c552591268754b616$__90631eb966b9906118f790600c90879060040161593a565b60006040518083038186803b15801561190f57600080fd5b505af4158015611923573d6000803e3d6000fd5b505050506040513d6000823e601f3d908101601f1916820160405261194b9190810190615a9f565b604051634c3bfbf560e11b815290915060009073__$a27ab5a2953dc10a9c552591268754b616$__90639877f7ea9061198b90600c90889060040161593a565b60206040518083038186803b1580156119a357600080fd5b505af41580156119b7573d6000803e3d6000fd5b505050506040513d601f19601f820116820180604052508101906119db9190615961565b905060018115151415611a3b5781600001516001600160a01b03167fd3bb6cf267814a3d42a12164c9ac01a59db6d9121ae676500da60fd56b086d3b8360200151604051611a2991906159cc565b60405180910390a25060019392505050565b5060009392505050565b919050565b600054600160a01b900460ff1690565b6000611a64614c4f565b6000611a708888614d4a565b9050336001600160a01b0382161480611aa15750611a8c61320e565b6001600160a01b0316336001600160a01b0316145b611abd5760405162461bcd60e51b81526004016108de90615c9c565b6040516304ecf28360e41b815273__$aabfbf51bc7bf3b8af0580fb7224204a01$__90634ecf283090611af990600e908c908c90600401615b08565b60206040518083038186803b158015611b1157600080fd5b505af4158015611b25573d6000803e3d6000fd5b505050506040513d601f19601f82011682018060405250810190611b499190615961565b1515600114611b6a5760405162461bcd60e51b81526004016108de90615c7f565b6001600160a01b03851615611c2457604051631f04869b60e31b815273__$4fab912f99daae96c763763589e4636ca5$__9063f82434d890611bb390600890899060040161593a565b60206040518083038186803b158015611bcb57600080fd5b505af4158015611bdf573d6000803e3d6000fd5b505050506040513d601f19601f82011682018060405250810190611c039190615961565b1515600114611c245760405162461bcd60e51b81526004016108de90615ba8565b6040516313d3de6d60e11b815260009073__$aabfbf51bc7bf3b8af0580fb7224204a01$__906327a7bcda90611c6b90600e908d908d908d908d908d908d90600401615b27565b60206040518083038186803b158015611c8357600080fd5b505af4158015611c97573d6000803e3d6000fd5b505050506040513d601f19601f82011682018060405250810190611cbb9190615961565b905060018115151415611d2757336001600160a01b0316888a6001600160a01b03167f4388754cf451950a50e2520e86758fc59ec9e88a7f6a09f2db5de37d545639298a8a8a8a89604051611d14959493929190615cb9565b60405180910390a4600192505050611d2e565b6000925050505b9695505050505050565b60405163e99a8e3960e01b815260009081908190819073__$c9b49513854812b7b6c4b448b2aa4684e3$__9063e99a8e3990611d7d906010908a908a90600401615b08565b60206040518083038186803b158015611d9557600080fd5b505af4158015611da9573d6000803e3d6000fd5b505050506040513d601f19601f82011682018060405250810190611dcd9190615961565b1515600114611dee5760405162461bcd60e51b81526004016108de90615ce5565b33611df761320e565b6001600160a01b031614611e365760405162461bcd60e51b81526004016108de906020808252600490820152632926989b60e11b604082015260600190565b60405163af8b7c8160e01b815260009073__$c9b49513854812b7b6c4b448b2aa4684e3$__9063af8b7c8190611e75906010908b908b90600401615b08565b6101606040518083038186803b158015611e8e57600080fd5b505af4158015611ea2573d6000803e3d6000fd5b505050506040513d601f19601f82011682018060405250810190611ec69190615bc6565b90508060a001511515600115151415611ee55780608001519150611eed565b806040015191505b610140810151429081118015611f1657508160c00151826101400151611f139190615907565b81105b15611fee57600082610140015182611f2e9190615d03565b9050611f47611f3d8286615d1a565b8460c00151614e60565b9550611f538487614e6c565b610100840151606085015160405163071cd41560e31b815292975073__$35fde6ac6f7fb08b81f20635e2dfbb2343$__926338e6a0a892611f9b926014928b90600401615d39565b60206040518083038186803b158015611fb357600080fd5b505af4158015611fc7573d6000803e3d6000fd5b505050506040513d601f19601f82011682018060405250810190611feb9190615961565b50505b841561220e57600061200e600454876120079190615d1a565b6064614e60565b90506000612023600554886120079190615d1a565b9050600081612032848a615d03565b61203c9190615d03565b60e0860151606087015160405163071cd41560e31b815292935073__$35fde6ac6f7fb08b81f20635e2dfbb2343$__926338e6a0a892612083926014928990600401615d39565b60206040518083038186803b15801561209b57600080fd5b505af41580156120af573d6000803e3d6000fd5b505050506040513d601f19601f820116820180604052508101906120d39190615961565b50610120850151606086015160405163071cd41560e31b815273__$35fde6ac6f7fb08b81f20635e2dfbb2343$__926338e6a0a89261211b9260149291908890600401615d39565b60206040518083038186803b15801561213357600080fd5b505af4158015612147573d6000803e3d6000fd5b505050506040513d601f19601f8201168201806040525081019061216b9190615961565b50600154606086015160405163071cd41560e31b815273__$35fde6ac6f7fb08b81f20635e2dfbb2343$__926338e6a0a8926121b9926014926001600160a01b031691908790600401615d39565b60206040518083038186803b1580156121d157600080fd5b505af41580156121e5573d6000803e3d6000fd5b505050506040513d601f19601f820116820180604052508101906122099190615961565b505050505b60405163af8b7c8160e01b815260009073__$c9b49513854812b7b6c4b448b2aa4684e3$__9063af8b7c819061224d906010908d908d90600401615b08565b6101606040518083038186803b15801561226657600080fd5b505af415801561227a573d6000803e3d6000fd5b505050506040513d601f19601f8201168201806040525081019061229e9190615bc6565b604051631d865d9360e21b815290915060009073__$c9b49513854812b7b6c4b448b2aa4684e3$__90637619764c906122e0906010908e908e90600401615b08565b60206040518083038186803b1580156122f857600080fd5b505af415801561230c573d6000803e3d6000fd5b505050506040513d601f19601f820116820180604052508101906123309190615961565b9050600181151514156123d6578161010001516001600160a01b0316826020015183600001516001600160a01b03167f1e47184299ef1ae0147489de864e2860294ab4125cb78ff3488bce09ea0192f68560400151866060015187608001518860a001518960c001518a60e001518b61012001518c61014001516040516123be989796959493929190615d5e565b60405180910390a460019750505050505050506109da565b60009750505050505050506109da565b600f546060906000906001600160401b038111156124065761240661516f565b60405190808252806020026020018201604052801561243f57816020015b61242c6150c2565b8152602001906001900390816124245790505b50905060005b600f5481101561116e57600f8054600e9190839081106124675761246761580a565b9060005260206000200160405161247e9190615855565b90815260408051918290036020908101832060c08401835260018101546001600160a01b0390811685526002820154928501929092526003810154928401929092526004820154166060830152600581015460808301526006015460a082015282518390839081106124f2576124f261580a565b602002602001018190525080806125089061591f565b915050612445565b612518614bf0565b6117676000614e78565b600061252c614bf0565b604051631f04869b60e31b815273__$4fab912f99daae96c763763589e4636ca5$__9063f82434d89061256690600890869060040161593a565b60206040518083038186803b15801561257e57600080fd5b505af4158015612592573d6000803e3d6000fd5b505050506040513d601f19601f820116820180604052508101906125b69190615961565b15156001146125d75760405162461bcd60e51b81526004016108de90615c7f565b604051630a93aab960e31b815260009073__$4fab912f99daae96c763763589e4636ca5$__9063549d55c89061261490600890879060040161593a565b60006040518083038186803b15801561262c57600080fd5b505af4158015612640573d6000803e3d6000fd5b505050506040513d6000823e601f3d908101601f191682016040526126689190810190615a9f565b6040516359c0255d60e01b815290915060009073__$4fab912f99daae96c763763589e4636ca5$__906359c0255d906126a890600890889060040161593a565b60206040518083038186803b1580156126c057600080fd5b505af41580156126d4573d6000803e3d6000fd5b505050506040513d601f19601f820116820180604052508101906126f89190615961565b905060018115151415611a3b5781600001516001600160a01b03167f037af5869c73bd98d861d265ed2fe7856d434102678eab240cfac53917ef4e838360200151604051611a2991906159cc565b60405163b52bf90f60e01b815260009073__$35fde6ac6f7fb08b81f20635e2dfbb2343$__9063b52bf90f906127859060149033908790600401615b65565b60206040518083038186803b15801561279d57600080fd5b505af41580156127b1573d6000803e3d6000fd5b505050506040513d601f19601f820116820180604052508101906109da9190615aef565b60006127df614c4f565b6127e761510a565b6040516304ecf28360e41b815273__$aabfbf51bc7bf3b8af0580fb7224204a01$__90634ecf28309061282390600e9089908990600401615b08565b60206040518083038186803b15801561283b57600080fd5b505af415801561284f573d6000803e3d6000fd5b505050506040513d601f19601f820116820180604052508101906128739190615961565b15156001146128945760405162461bcd60e51b81526004016108de90615da4565b604051638c9a6cc360e01b815273__$a27ab5a2953dc10a9c552591268754b616$__90638c9a6cc3906128ce90600c90879060040161593a565b60206040518083038186803b1580156128e657600080fd5b505af41580156128fa573d6000803e3d6000fd5b505050506040513d601f19601f8201168201806040525081019061291e9190615961565b151560011461293f5760405162461bcd60e51b81526004016108de90615dc1565b604051630163053760e51b8152349073__$aabfbf51bc7bf3b8af0580fb7224204a01$__90632c60a6e09061297d90600e908a908a90600401615b08565b60c06040518083038186803b15801561299557600080fd5b505af41580156129a9573d6000803e3d6000fd5b505050506040513d601f19601f820116820180604052508101906129cd9190615dde565b6040015114612a045760405162461bcd60e51b81526020600482015260036024820152620a49a760eb1b60448201526064016108de565b604051630163053760e51b815260009073__$aabfbf51bc7bf3b8af0580fb7224204a01$__90632c60a6e090612a4390600e908a908a90600401615b08565b60c06040518083038186803b158015612a5b57600080fd5b505af4158015612a6f573d6000803e3d6000fd5b505050506040513d601f19601f82011682018060405250810190612a939190615dde565b6000835260405163e99a8e3960e01b815290915073__$c9b49513854812b7b6c4b448b2aa4684e3$__9063e99a8e3990612ad6906010908a908a90600401615b08565b60206040518083038186803b158015612aee57600080fd5b505af4158015612b02573d6000803e3d6000fd5b505050506040513d601f19601f82011682018060405250810190612b269190615961565b151560011415612c595760405163af8b7c8160e01b815260009073__$c9b49513854812b7b6c4b448b2aa4684e3$__9063af8b7c8190612b6f906010908b908b90600401615b08565b6101606040518083038186803b158015612b8857600080fd5b505af4158015612b9c573d6000803e3d6000fd5b505050506040513d601f19601f82011682018060405250810190612bc09190615bc6565b60c08101518452604051631d865d9360e21b815290915073__$c9b49513854812b7b6c4b448b2aa4684e3$__90637619764c90612c06906010908b908b90600401615b08565b60206040518083038186803b158015612c1e57600080fd5b505af4158015612c32573d6000803e3d6000fd5b505050506040513d601f19601f82011682018060405250810190612c569190615961565b50505b612c638686614d4a565b6001600160a01b03166040830152612c79615066565b6001600160a01b03808816825260208201879052604080840151908301526060808401519091169082015260808083015190820152600060a080830191909152835190830151612cc99190615907565b60c08201526040808401516001600160a01b0390811660e084015233610100840152861661012083015242610140830152516332ada61b60e01b815273__$c9b49513854812b7b6c4b448b2aa4684e3$__906332ada61b90612d32906010908590600401615e68565b60206040518083038186803b158015612d4a57600080fd5b505af4158015612d5e573d6000803e3d6000fd5b505050506040513d601f19601f82011682018060405250810190612d829190615961565b15156060840181905260011415612e965760408084015190516343d434b560e11b815273__$cd3810e67fa8b653e5355050e47a521f6f$__916387a8696a91612dd7916012918a906000903490600401615e7d565b60206040518083038186803b158015612def57600080fd5b505af4158015612e03573d6000803e3d6000fd5b505050506040513d601f19601f82011682018060405250810190612e279190615961565b50336001600160a01b031686886001600160a01b0316600080516020615f0583398151915285604001518660600151876080015160008960a001518b604001518e8b6101400151604051612e82989796959493929190615d5e565b60405180910390a4600193505050506117fe565b5060009695505050505050565b612eab6150c2565b604051630163053760e51b815273__$aabfbf51bc7bf3b8af0580fb7224204a01$__90632c60a6e090612ee790600e9087908790600401615b08565b60c06040518083038186803b158015612eff57600080fd5b505af4158015612f13573d6000803e3d6000fd5b505050506040513d601f19601f820116820180604052508101906117fe9190615dde565b612f3f614bf0565b611767614ec8565b6009546060906000906001600160401b03811115612f6757612f6761516f565b604051908082528060200260200182016040528015612fad57816020015b604080518082019091526000815260606020820152815260200190600190039081612f855790505b50905060005b60095481101561116e57600980546008919083908110612fd557612fd561580a565b90600052602060002001604051612fec9190615855565b9081526040805191829003602090810183208383019092526001820180546001600160a01b03168452600290920180549184019161302990615820565b80601f016020809104026020016040519081016040528092919081815260200182805461305590615820565b80156130a25780601f10613077576101008083540402835291602001916130a2565b820191906000526020600020905b81548152906001019060200180831161308557829003601f168201915b5050505050815250508282815181106130bd576130bd61580a565b602002602001018190525080806130d39061591f565b915050612fb3565b6013546060906000906001600160401b038111156130fb576130fb61516f565b60405190808252806020026020018201604052801561314d57816020015b6040805160808101825260008082526020808301829052928201819052606082015282526000199092019101816131195790505b50905060005b60135481101561116e576013805460129190839081106131755761317561580a565b9060005260206000200160405161318c9190615855565b90815260408051918290036020908101832060808401835260018101546001600160a01b039081168552600282015481169285019290925260038101549091169183019190915260040154606082015282518390839081106131f0576131f061580a565b602002602001018190525080806132069061591f565b915050613153565b6000546001600160a01b031690565b600d546060906000906001600160401b0381111561323d5761323d61516f565b60405190808252806020026020018201604052801561327657816020015b61326361504e565b81526020019060019003908161325b5790505b50905060005b600d5481101561116e57600d8054600c91908390811061329e5761329e61580a565b906000526020600020016040516132b59190615855565b9081526040805191829003602090810183208383019092526001820180546001600160a01b0316845260029092018054918401916132f290615820565b80601f016020809104026020016040519081016040528092919081815260200182805461331e90615820565b801561336b5780601f106133405761010080835404028352916020019161336b565b820191906000526020600020905b81548152906001019060200180831161334e57829003601f168201915b5050505050815250508282815181106133865761338661580a565b6020026020010181905250808061339c9061591f565b91505061327c565b6133ac614bf0565b600755565b60006133bb614bf0565b6040516360f353e160e01b815273__$79a40a2052c9947e027843e42106f8b048$__906360f353e1906133f590600a90869060040161593a565b60206040518083038186803b15801561340d57600080fd5b505af4158015613421573d6000803e3d6000fd5b505050506040513d601f19601f820116820180604052508101906134459190615961565b15156001146134665760405162461bcd60e51b81526004016108de90615c7f565b60405163044aed2360e01b815260009073__$79a40a2052c9947e027843e42106f8b048$__9063044aed23906134a390600a90879060040161593a565b60006040518083038186803b1580156134bb57600080fd5b505af41580156134cf573d6000803e3d6000fd5b505050506040513d6000823e601f3d908101601f191682016040526134f79190810190615a9f565b60405163a3fb822560e01b815290915060009073__$79a40a2052c9947e027843e42106f8b048$__9063a3fb82259061353790600a90889060040161593a565b60206040518083038186803b15801561354f57600080fd5b505af4158015613563573d6000803e3d6000fd5b505050506040513d601f19601f820116820180604052508101906135879190615961565b905060018115151415611a3b5781600001516001600160a01b03167fe32dbca0dcbe2dc4205cd30b4b23a82cff3e9b7e12a5682683185c6f33c978be8360200151604051611a2991906159cc565b60006135df614c4f565b6040516304ecf28360e41b815273__$aabfbf51bc7bf3b8af0580fb7224204a01$__90634ecf28309061361b90600e9088908890600401615b08565b60206040518083038186803b15801561363357600080fd5b505af4158015613647573d6000803e3d6000fd5b505050506040513d601f19601f8201168201806040525081019061366b9190615961565b151560011461368c5760405162461bcd60e51b81526004016108de90615da4565b604051638c9a6cc360e01b815273__$a27ab5a2953dc10a9c552591268754b616$__90638c9a6cc3906136c690600c90869060040161593a565b60206040518083038186803b1580156136de57600080fd5b505af41580156136f2573d6000803e3d6000fd5b505050506040513d601f19601f820116820180604052508101906137169190615961565b15156001146137375760405162461bcd60e51b81526004016108de90615dc1565b341561376e5760405162461bcd60e51b81526004016108de90602080825260049082015263524d313360e01b604082015260600190565b61377661510a565b6137808585614d4a565b6001600160a01b031660408083019190915251630163053760e51b815260009073__$aabfbf51bc7bf3b8af0580fb7224204a01$__90632c60a6e0906137cf90600e908a908a90600401615b08565b60c06040518083038186803b1580156137e757600080fd5b505af41580156137fb573d6000803e3d6000fd5b505050506040513d601f19601f8201168201806040525081019061381f9190615dde565b60608101519091506001600160a01b031661384c5760405162461bcd60e51b81526004016108de90615ba8565b80606001516001600160a01b031663dd62ed3e33306040518363ffffffff1660e01b815260040161387e929190615eab565b60206040518083038186803b15801561389657600080fd5b505afa1580156138aa573d6000803e3d6000fd5b505050506040513d601f19601f820116820180604052508101906138ce9190615aef565b60208301819052608082015111156139115760405162461bcd60e51b81526004016108de90602080825260049082015263524d323360e01b604082015260600190565b606081015160808201516040516323b872dd60e01b81526001600160a01b03909216916323b872dd9161394a9133913091600401615b84565b602060405180830381600087803b15801561396457600080fd5b505af1158015613978573d6000803e3d6000fd5b505050506040513d601f19601f8201168201806040525081019061399c9190615961565b1515606083018190526139b4576000925050506117fe565b6139bc615066565b6001600160a01b038088168252602082018790526040808401518184015260608085015183169084015260808085015190840152600160a08085019190915284015160c084015284810151821660e08401523361010084015290861661012083015242610140830152516332ada61b60e01b815273__$c9b49513854812b7b6c4b448b2aa4684e3$__906332ada61b90613a5d906010908590600401615e68565b60206040518083038186803b158015613a7557600080fd5b505af4158015613a89573d6000803e3d6000fd5b505050506040513d601f19601f82011682018060405250810190613aad9190615961565b506040808401516060840151608085015192516343d434b560e11b815273__$cd3810e67fa8b653e5355050e47a521f6f$__936387a8696a93613af99360129391928c92600401615e7d565b60206040518083038186803b158015613b1157600080fd5b505af4158015613b25573d6000803e3d6000fd5b505050506040513d601f19601f82011682018060405250810190613b499190615961565b50336001600160a01b031686886001600160a01b0316600080516020615f0583398151915285604001518660600151876080015160018960a001518b604001518e8b6101400151604051613ba4989796959493929190615d5e565b60405180910390a45060019695505050505050565b6000613bc3614bf0565b613bcb614c4f565b604051631f04869b60e31b815273__$4fab912f99daae96c763763589e4636ca5$__9063f82434d890613c0590600890879060040161593a565b60206040518083038186803b158015613c1d57600080fd5b505af4158015613c31573d6000803e3d6000fd5b505050506040513d601f19601f82011682018060405250810190613c559190615961565b15613c725760405162461bcd60e51b81526004016108de9061597c565b6040516331d0579b60e11b815260009073__$4fab912f99daae96c763763589e4636ca5$__906363a0af3690613cb19060089088908890600401615999565b60206040518083038186803b158015613cc957600080fd5b505af4158015613cdd573d6000803e3d6000fd5b505050506040513d601f19601f82011682018060405250810190613d019190615961565b9050600181151514156109ce57836001600160a01b03167ff76071867aae1eed00218b5aa8d4736b9b2161325ea3e48d283258a7e4ba75f5846040516109bc91906159cc565b6015546060906000906001600160401b03811115613d6757613d6761516f565b604051908082528060200260200182016040528015613da057816020015b613d8d61502e565b815260200190600190039081613d855790505b50905060005b60155481101561116e57601580546014919083908110613dc857613dc861580a565b90600052602060002001604051613ddf9190615855565b90815260408051918290036020908101832060608401835260018101546001600160a01b0390811685526002820154169184019190915260030154908201528251839083908110613e3257613e3261580a565b60200260200101819052508080613e489061591f565b915050613da6565b613e5861504e565b60405163044aed2360e01b815273__$79a40a2052c9947e027843e42106f8b048$__9063044aed2390610a2290600a90869060040161593a565b600080613e9f8433614c97565b90506000613ead8585614d4a565b905060018215151480613ec85750336001600160a01b038216145b80613eeb5750613ed661320e565b6001600160a01b0316336001600160a01b0316145b613f075760405162461bcd60e51b81526004016108de90615c9c565b6040516304ecf28360e41b815273__$aabfbf51bc7bf3b8af0580fb7224204a01$__90634ecf283090613f4390600e9089908990600401615b08565b60206040518083038186803b158015613f5b57600080fd5b505af4158015613f6f573d6000803e3d6000fd5b505050506040513d601f19601f82011682018060405250810190613f939190615961565b1515600114613fb45760405162461bcd60e51b81526004016108de90615c7f565b604051630163053760e51b815260009073__$aabfbf51bc7bf3b8af0580fb7224204a01$__90632c60a6e090613ff390600e908a908a90600401615b08565b60c06040518083038186803b15801561400b57600080fd5b505af415801561401f573d6000803e3d6000fd5b505050506040513d601f19601f820116820180604052508101906140439190615dde565b604051631f8195ef60e11b815290915060009073__$aabfbf51bc7bf3b8af0580fb7224204a01$__90633f032bde9061408590600e908b908b90600401615b08565b60206040518083038186803b15801561409d57600080fd5b505af41580156140b1573d6000803e3d6000fd5b505050506040513d601f19601f820116820180604052508101906140d59190615961565b90506001811515141561415b57336001600160a01b0316826020015183600001516001600160a01b03167f47ef5674b8623b6a0bece5fae33a1a29ad79a7846a5be46a0b2e256b94f9ee318560400151866060015187608001518860a001518a604051614146959493929190615cb9565b60405180910390a460019450505050506109da565b60009450505050506109da565b600754614173575050565b604051636eb1769f60e11b81526000906001600160a01b0384169063dd62ed3e906141a49085903090600401615eab565b60206040518083038186803b1580156141bc57600080fd5b505afa1580156141d0573d6000803e3d6000fd5b505050506040513d601f19601f820116820180604052508101906141f49190615aef565b90508061420057505050565b600061420b84610764565b9050600061421761502e565b60005b60155481101561437e5760075481106142325761437e565b60158054601491908390811061424a5761424a61580a565b906000526020600020016040516142619190615855565b908152604080516020928190038301812060608201835260018101546001600160a01b039081168352600282015481169483018590526003909101549282019290925293508816141561436c5760006142c98360400151876142c39190615d1a565b86614e60565b90506142d58185615907565b8351602085015160405163071cd41560e31b815292965073__$35fde6ac6f7fb08b81f20635e2dfbb2343$__926338e6a0a892614319926014928790600401615d39565b60206040518083038186803b15801561433157600080fd5b505af4158015614345573d6000803e3d6000fd5b505050506040513d601f19601f820116820180604052508101906143699190615961565b50505b806143768161591f565b91505061421a565b50600061438b8386615d03565b11156144385760015473__$35fde6ac6f7fb08b81f20635e2dfbb2343$__906338e6a0a8906014906001600160a01b0316896143c7878a615d03565b6040518563ffffffff1660e01b81526004016143e69493929190615d39565b60206040518083038186803b1580156143fe57600080fd5b505af4158015614412573d6000803e3d6000fd5b505050506040513d601f19601f820116820180604052508101906144369190615961565b505b505050505050565b60405163e99a8e3960e01b815260009073__$c9b49513854812b7b6c4b448b2aa4684e3$__9063e99a8e399061447f9060109087908790600401615b08565b60206040518083038186803b15801561449757600080fd5b505af41580156144ab573d6000803e3d6000fd5b505050506040513d601f19601f820116820180604052508101906144cf9190615961565b15156001146144f05760405162461bcd60e51b81526004016108de90615ce5565b60405163af8b7c8160e01b815260009073__$c9b49513854812b7b6c4b448b2aa4684e3$__9063af8b7c819061452f9060109088908890600401615b08565b6101606040518083038186803b15801561454857600080fd5b505af415801561455c573d6000803e3d6000fd5b505050506040513d601f19601f820116820180604052508101906145809190615bc6565b90508060c001518161014001516145979190615907565b42116145ce5760405162461bcd60e51b81526004016108de90602080825260049082015263524d313760e01b604082015260600190565b60008160a0015115156001151514156145ec575060808101516145f3565b5060408101515b6000614606600454836120079190615d1a565b9050600061461b600554846120079190615d1a565b905060008161462a8486615d03565b6146349190615d03565b60e0860151606087015160405163071cd41560e31b815292935073__$35fde6ac6f7fb08b81f20635e2dfbb2343$__926338e6a0a89261467b926014928990600401615d39565b60206040518083038186803b15801561469357600080fd5b505af41580156146a7573d6000803e3d6000fd5b505050506040513d601f19601f820116820180604052508101906146cb9190615961565b50610120850151606086015160405163071cd41560e31b815273__$35fde6ac6f7fb08b81f20635e2dfbb2343$__926338e6a0a8926147139260149291908890600401615d39565b60206040518083038186803b15801561472b57600080fd5b505af415801561473f573d6000803e3d6000fd5b505050506040513d601f19601f820116820180604052508101906147639190615961565b50600154606086015160405163071cd41560e31b815273__$35fde6ac6f7fb08b81f20635e2dfbb2343$__926338e6a0a8926147b1926014926001600160a01b031691908790600401615d39565b60206040518083038186803b1580156147c957600080fd5b505af41580156147dd573d6000803e3d6000fd5b505050506040513d601f19601f820116820180604052508101906148019190615961565b5060e08501516101208601516060870151604051631a9a5d7160e21b815273__$cd3810e67fa8b653e5355050e47a521f6f$__93636a6975c49361484c936012938b90600401615e7d565b60206040518083038186803b15801561486457600080fd5b505af4158015614878573d6000803e3d6000fd5b505050506040513d601f19601f8201168201806040525081019061489c9190615961565b5084516020860151604051631d865d9360e21b815273__$c9b49513854812b7b6c4b448b2aa4684e3$__92637619764c926148de926010929190600401615b08565b60206040518083038186803b1580156148f657600080fd5b505af415801561490a573d6000803e3d6000fd5b505050506040513d601f19601f8201168201806040525081019061492e9190615961565b508461010001516001600160a01b0316856020015186600001516001600160a01b03167f2941e86df5e844db000359f0e9abe470952bac636d89a010e9d5d513aad469fa886040015189606001518a608001518b60a001518c60c001518d60e001518e61012001518f61014001516040516149b0989796959493929190615d5e565b60405180910390a4506001979650505050505050565b6149ce614bf0565b600180546001600160a01b0319166001600160a01b0392909216919091179055565b600b546060906000906001600160401b03811115614a1057614a1061516f565b604051908082528060200260200182016040528015614a4957816020015b614a3661504e565b815260200190600190039081614a2e5790505b50905060005b600b5481101561116e57600b8054600a919083908110614a7157614a7161580a565b90600052602060002001604051614a889190615855565b9081526040805191829003602090810183208383019092526001820180546001600160a01b031684526002909201805491840191614ac590615820565b80601f0160208091040260200160405190810160405280929190818152602001828054614af190615820565b8015614b3e5780601f10614b1357610100808354040283529160200191614b3e565b820191906000526020600020905b815481529060010190602001808311614b2157829003601f168201915b505050505081525050828281518110614b5957614b5961580a565b60200260200101819052508080614b6f9061591f565b915050614a4f565b614b7f614bf0565b6001600160a01b038116614be45760405162461bcd60e51b815260206004820152602660248201527f4f776e61626c653a206e6577206f776e657220697320746865207a65726f206160448201526564647265737360d01b60648201526084016108de565b614bed81614e78565b50565b33614bf961320e565b6001600160a01b0316146117675760405162461bcd60e51b815260206004820181905260248201527f4f776e61626c653a2063616c6c6572206973206e6f7420746865206f776e657260448201526064016108de565b614c57611a4a565b156117675760405162461bcd60e51b815260206004820152601060248201526f14185d5cd8589b194e881c185d5cd95960821b60448201526064016108de565b600080614cb46001600160a01b038516632c63230160e11b614f0b565b9050600181151514156109ce57604051632c63230160e11b81526000906001600160a01b038616906358c6460290614cf09087906004016154d4565b60206040518083038186803b158015614d0857600080fd5b505afa158015614d1c573d6000803e3d6000fd5b505050506040513d601f19601f82011682018060405250810190614d409190615961565b92506109da915050565b6000806060846001600160a01b031684604051602401614d6c91815260200190565b60408051601f198184030181529181526020820180516001600160e01b03166331a9108f60e11b17905251614da19190615ad3565b6000604051808303816000865af19150503d8060008114614dde576040519150601f19603f3d011682016040523d82523d6000602084013e614de3565b606091505b5090925090506001821515141561174c5780806020019051810190614e089190615ec5565b925050506109da565b614e19614f27565b6000805460ff60a01b191690557f5db9ee0a495bf2e6ff9c91a7834c1ba4fdd244a5e8aa4e537bd38aeae4b073aa335b604051614e5691906154d4565b60405180910390a1565b60006117fe8284615ee2565b60006117fe8284615d03565b600080546001600160a01b038381166001600160a01b0319831681178455604051919092169283917f8be0079c531659141344cd1fd0a4f28419497f9722a3daafe3b4186f6b6457e09190a35050565b614ed0614c4f565b6000805460ff60a01b1916600160a01b1790557f62e78cea01bee320cd4e420270b5ea74000d11b0c9f74754ebdbfc544b05a258614e493390565b6000614f1683614f72565b80156117fe57506117fe8383614fa5565b614f2f611a4a565b6117675760405162461bcd60e51b815260206004820152601460248201527314185d5cd8589b194e881b9bdd081c185d5cd95960621b60448201526064016108de565b6000614f85826301ffc9a760e01b614fa5565b80156109da5750614f9e826001600160e01b0319614fa5565b1592915050565b604080516001600160e01b03198316602480830191909152825180830390910181526044909101909152602080820180516001600160e01b03166301ffc9a760e01b178152825160009392849283928392918391908a617530fa92503d91506000519050828015615017575060208210155b80156150235750600081115b979650505050505050565b604080516060810182526000808252602082018190529181019190915290565b60408051808201909152600081526060602082015290565b6040805161016081018252600080825260208201819052918101829052606081018290526080810182905260a0810182905260c0810182905260e081018290526101008101829052610120810182905261014081019190915290565b6040518060c0016040528060006001600160a01b03168152602001600081526020016000815260200160006001600160a01b0316815260200160008152602001600081525090565b6040518060800160405280600081526020016000815260200160006001600160a01b031681526020016000151581525090565b6001600160a01b0381168114614bed57600080fd5b60006020828403121561516457600080fd5b81356117fe8161513d565b634e487b7160e01b600052604160045260246000fd5b60405161016081016001600160401b03811182821017156151a8576151a861516f565b60405290565b604051601f8201601f191681016001600160401b03811182821017156151d6576151d661516f565b604052919050565b60006001600160401b038211156151f7576151f761516f565b50601f01601f191660200190565b6000806040838503121561521857600080fd5b82356152238161513d565b915060208301356001600160401b0381111561523e57600080fd5b8301601f8101851361524f57600080fd5b803561526261525d826151de565b6151ae565b81815286602083850101111561527757600080fd5b816020840160208301376000602083830101528093505050509250929050565b6001600160a01b03169052565b60005b838110156152bf5781810151838201526020016152a7565b838111156152ce576000848401525b50505050565b600081518084526152ec8160208601602086016152a4565b601f01601f19169290920160200192915050565b60018060a01b038151168252600060208201516040602085015261532760408501826152d4565b949350505050565b6020815260006117fe6020830184615300565b6000806040838503121561535557600080fd5b82356153608161513d565b946020939093013593505050565b615379828251615297565b6020810151602083015260408101516040830152606081015161539f6060840182615297565b506080810151608083015260a08101516153bd60a084018215159052565b5060c081015160c083015260e08101516153da60e0840182615297565b50610100808201516153ee82850182615297565b50506101208082015161540382850182615297565b505061014090810151910152565b6020808252825182820181905260009190848201906040850190845b818110156154545761544083855161536e565b92840192610160929092019160010161542d565b50909695505050505050565b60008060006060848603121561547557600080fd5b505081359360208301359350604090920135919050565b6000806040838503121561549f57600080fd5b82356154aa8161513d565b915060208301356154ba8161513d565b809150509250929050565b61016081016109da828461536e565b6001600160a01b0391909116815260200190565b60008060008060008060c0878903121561550157600080fd5b863561550c8161513d565b95506020870135945060408701359350606087013561552a8161513d565b9598949750929560808101359460a0909101359350915050565b80516001600160a01b0390811683526020808301519084015260408083015190840152606080830151909116908301526080808201519083015260a090810151910152565b6020808252825182820181905260009190848201906040850190845b81811015615454576155b8838551615544565b9284019260c092909201916001016155a5565b6000806000606084860312156155e057600080fd5b83356155eb8161513d565b92506020840135915060408401356156028161513d565b809150509250925092565b60c081016109da8284615544565b6000602080830181845280855180835260408601915060408160051b870101925083870160005b8281101561567057603f1988860301845261565e858351615300565b94509285019290850190600101615642565b5092979650505050505050565b602080825282518282018190526000919060409081850190868401855b828110156156e257815180516001600160a01b03908116865287820151811688870152868201511686860152606090810151908501526080909301929085019060010161569a565b5091979650505050505050565b6000602080830181845280855180835260408601915060408160051b870101925083870160005b8281101561567057603f19888603018452615732858351615300565b94509285019290850190600101615716565b60006020828403121561575657600080fd5b5035919050565b602080825282518282018190526000919060409081850190868401855b828110156156e257815180516001600160a01b039081168652878201511687860152850151858501526060909301929085019060010161577a565b6000602080830181845280855180835260408601915060408160051b870101925083870160005b8281101561567057603f198886030184526157f8858351615300565b945092850192908501906001016157dc565b634e487b7160e01b600052603260045260246000fd5b600181811c9082168061583457607f821691505b6020821081141561116e57634e487b7160e01b600052602260045260246000fd5b600080835481600182811c91508083168061587157607f831692505b602080841082141561589157634e487b7160e01b86526022600452602486fd5b8180156158a557600181146158b6576158e3565b60ff198616895284890196506158e3565b60008a81526020902060005b868110156158db5781548b8201529085019083016158c2565b505084890196505b509498975050505050505050565b634e487b7160e01b600052601160045260246000fd5b6000821982111561591a5761591a6158f1565b500190565b6000600019821415615933576159336158f1565b5060010190565b9182526001600160a01b0316602082015260400190565b80518015158114611a4557600080fd5b60006020828403121561597357600080fd5b6117fe82615951565b602080825260039082015262524d3160e81b604082015260600190565b8381526001600160a01b03831660208201526060604082018190526000906159c3908301846152d4565b95945050505050565b6020815260006117fe60208301846152d4565b8051611a458161513d565b6000604082840312156159fc57600080fd5b604080519081016001600160401b038082118383101715615a1f57615a1f61516f565b8160405282935084519150615a338261513d565b90825260208401519080821115615a4957600080fd5b508301601f81018513615a5b57600080fd5b8051615a6961525d826151de565b818152866020838501011115615a7e57600080fd5b615a8f8260208301602086016152a4565b8060208501525050505092915050565b600060208284031215615ab157600080fd5b81516001600160401b03811115615ac757600080fd5b615327848285016159ea565b60008251615ae58184602087016152a4565b9190910192915050565b600060208284031215615b0157600080fd5b5051919050565b9283526001600160a01b03919091166020830152604082015260600190565b9687526001600160a01b03958616602088015260408701949094526060860192909252909216608084015260a083019190915260c082015260e00190565b9283526001600160a01b03918216602084015216604082015260600190565b6001600160a01b039384168152919092166020820152604081019190915260600190565b6020808252600490820152630524d32360e41b604082015260600190565b60006101608284031215615bd957600080fd5b615be1615185565b615bea836159df565b81526020830151602082015260408301516040820152615c0c606084016159df565b606082015260808301516080820152615c2760a08401615951565b60a082015260c083015160c0820152615c4260e084016159df565b60e0820152610100615c558185016159df565b90820152610120615c678482016159df565b90820152610140928301519281019290925250919050565b602080825260039082015262524d3360e81b604082015260600190565b602080825260039082015262524d3560e81b604082015260600190565b9485526001600160a01b0393841660208601526040850192909252606084015216608082015260a00190565b6020808252600490820152630524d31360e41b604082015260600190565b600082821015615d1557615d156158f1565b500390565b6000816000190483118215151615615d3457615d346158f1565b500290565b9384526001600160a01b03928316602085015291166040830152606082015260800190565b9788526001600160a01b039687166020890152604088019590955292151560608701526080860191909152831660a085015290911660c083015260e08201526101000190565b602080825260039082015262524d3760e81b604082015260600190565b60208082526003908201526229269b60e91b604082015260600190565b600060c08284031215615df057600080fd5b60405160c081016001600160401b0381118282101715615e1257615e1261516f565b6040528251615e208161513d565b8082525060208301516020820152604083015160408201526060830151615e468161513d565b60608201526080838101519082015260a0928301519281019290925250919050565b82815261018081016117fe602083018461536e565b9485526001600160a01b03938416602086015291831660408501529091166060830152608082015260a00190565b6001600160a01b0392831681529116602082015260400190565b600060208284031215615ed757600080fd5b81516117fe8161513d565b600082615eff57634e487b7160e01b600052601260045260246000fd5b50049056fefe632cd15df82b5e105c28c0d0da9eb0228667912a4b1e430151d7c0d9227759a2646970667358221220ed9e0b4c4b181200784acecac466bbd16ddd013a2dbfb0578f5f2f95871d767a64736f6c63430008090033",
  "linkReferences": {
    "contracts/iterableMapLib.sol": {
      "accountBalanceIterableMap": [
        {
          "length": 20,
          "start": 5286
        },
        {
          "length": 20,
          "start": 5951
        },
        {
          "length": 20,
          "start": 8249
        },
        {
          "length": 20,
          "start": 8481
        },
        {
          "length": 20,
          "start": 8631
        },
        {
          "length": 20,
          "start": 8780
        },
        {
          "length": 20,
          "start": 10273
        },
        {
          "length": 20,
          "start": 17335
        },
        {
          "length": 20,
          "start": 17503
        },
        {
          "length": 20,
          "start": 18201
        },
        {
          "length": 20,
          "start": 18351
        },
        {
          "length": 20,
          "start": 18500
        }
      ],
      "collectionDataIterableMap": [
        {
          "length": 20,
          "start": 2319
        },
        {
          "length": 20,
          "start": 2498
        },
        {
          "length": 20,
          "start": 3642
        },
        {
          "length": 20,
          "start": 3836
        },
        {
          "length": 20,
          "start": 13459
        },
        {
          "length": 20,
          "start": 13633
        },
        {
          "length": 20,
          "start": 13781
        },
        {
          "length": 20,
          "start": 16176
        }
      ],
      "pendingRentFeeIterableMap": [
        {
          "length": 20,
          "start": 11888
        },
        {
          "length": 20,
          "start": 15253
        },
        {
          "length": 20,
          "start": 18666
        }
      ],
      "registerDataIterableMap": [
        {
          "length": 20,
          "start": 3329
        },
        {
          "length": 20,
          "start": 4041
        },
        {
          "length": 20,
          "start": 7061
        },
        {
          "length": 20,
          "start": 7423
        },
        {
          "length": 20,
          "start": 10431
        },
        {
          "length": 20,
          "start": 10777
        },
        {
          "length": 20,
          "start": 10975
        },
        {
          "length": 20,
          "start": 12163
        },
        {
          "length": 20,
          "start": 14007
        },
        {
          "length": 20,
          "start": 14443
        },
        {
          "length": 20,
          "start": 16351
        },
        {
          "length": 20,
          "start": 16527
        },
        {
          "length": 20,
          "start": 16673
        }
      ],
      "rentDataIterableMap": [
        {
          "length": 20,
          "start": 6217
        },
        {
          "length": 20,
          "start": 7705
        },
        {
          "length": 20,
          "start": 7953
        },
        {
          "length": 20,
          "start": 8937
        },
        {
          "length": 20,
          "start": 9084
        },
        {
          "length": 20,
          "start": 11122
        },
        {
          "length": 20,
          "start": 11275
        },
        {
          "length": 20,
          "start": 11426
        },
        {
          "length": 20,
          "start": 11728
        },
        {
          "length": 20,
          "start": 15099
        },
        {
          "length": 20,
          "start": 17691
        },
        {
          "length": 20,
          "start": 17867
        },
        {
          "length": 20,
          "start": 18812
        }
      ],
      "serviceDataIterableMap": [
        {
          "length": 20,
          "start": 2752
        },
        {
          "length": 20,
          "start": 4801
        },
        {
          "length": 20,
          "start": 4971
        },
        {
          "length": 20,
          "start": 6375
        },
        {
          "length": 20,
          "start": 6549
        },
        {
          "length": 20,
          "start": 6697
        },
        {
          "length": 20,
          "start": 10604
        },
        {
          "length": 20,
          "start": 14180
        }
      ],
      "tokenDataIterableMap": [
        {
          "length": 20,
          "start": 7249
        },
        {
          "length": 20,
          "start": 9732
        },
        {
          "length": 20,
          "start": 9906
        },
        {
          "length": 20,
          "start": 10054
        },
        {
          "length": 20,
          "start": 15523
        },
        {
          "length": 20,
          "start": 15693
        }
      ]
    }
  },
  "deployedLinkReferences": {
    "contracts/iterableMapLib.sol": {
      "accountBalanceIterableMap": [
        {
          "length": 20,
          "start": 5085
        },
        {
          "length": 20,
          "start": 5750
        },
        {
          "length": 20,
          "start": 8048
        },
        {
          "length": 20,
          "start": 8280
        },
        {
          "length": 20,
          "start": 8430
        },
        {
          "length": 20,
          "start": 8579
        },
        {
          "length": 20,
          "start": 10072
        },
        {
          "length": 20,
          "start": 17134
        },
        {
          "length": 20,
          "start": 17302
        },
        {
          "length": 20,
          "start": 18000
        },
        {
          "length": 20,
          "start": 18150
        },
        {
          "length": 20,
          "start": 18299
        }
      ],
      "collectionDataIterableMap": [
        {
          "length": 20,
          "start": 2118
        },
        {
          "length": 20,
          "start": 2297
        },
        {
          "length": 20,
          "start": 3441
        },
        {
          "length": 20,
          "start": 3635
        },
        {
          "length": 20,
          "start": 13258
        },
        {
          "length": 20,
          "start": 13432
        },
        {
          "length": 20,
          "start": 13580
        },
        {
          "length": 20,
          "start": 15975
        }
      ],
      "pendingRentFeeIterableMap": [
        {
          "length": 20,
          "start": 11687
        },
        {
          "length": 20,
          "start": 15052
        },
        {
          "length": 20,
          "start": 18465
        }
      ],
      "registerDataIterableMap": [
        {
          "length": 20,
          "start": 3128
        },
        {
          "length": 20,
          "start": 3840
        },
        {
          "length": 20,
          "start": 6860
        },
        {
          "length": 20,
          "start": 7222
        },
        {
          "length": 20,
          "start": 10230
        },
        {
          "length": 20,
          "start": 10576
        },
        {
          "length": 20,
          "start": 10774
        },
        {
          "length": 20,
          "start": 11962
        },
        {
          "length": 20,
          "start": 13806
        },
        {
          "length": 20,
          "start": 14242
        },
        {
          "length": 20,
          "start": 16150
        },
        {
          "length": 20,
          "start": 16326
        },
        {
          "length": 20,
          "start": 16472
        }
      ],
      "rentDataIterableMap": [
        {
          "length": 20,
          "start": 6016
        },
        {
          "length": 20,
          "start": 7504
        },
        {
          "length": 20,
          "start": 7752
        },
        {
          "length": 20,
          "start": 8736
        },
        {
          "length": 20,
          "start": 8883
        },
        {
          "length": 20,
          "start": 10921
        },
        {
          "length": 20,
          "start": 11074
        },
        {
          "length": 20,
          "start": 11225
        },
        {
          "length": 20,
          "start": 11527
        },
        {
          "length": 20,
          "start": 14898
        },
        {
          "length": 20,
          "start": 17490
        },
        {
          "length": 20,
          "start": 17666
        },
        {
          "length": 20,
          "start": 18611
        }
      ],
      "serviceDataIterableMap": [
        {
          "length": 20,
          "start": 2551
        },
        {
          "length": 20,
          "start": 4600
        },
        {
          "length": 20,
          "start": 4770
        },
        {
          "length": 20,
          "start": 6174
        },
        {
          "length": 20,
          "start": 6348
        },
        {
          "length": 20,
          "start": 6496
        },
        {
          "length": 20,
          "start": 10403
        },
        {
          "length": 20,
          "start": 13979
        }
      ],
      "tokenDataIterableMap": [
        {
          "length": 20,
          "start": 7048
        },
        {
          "length": 20,
          "start": 9531
        },
        {
          "length": 20,
          "start": 9705
        },
        {
          "length": 20,
          "start": 9853
        },
        {
          "length": 20,
          "start": 15322
        },
        {
          "length": 20,
          "start": 15492
        }
      ]
    }
  }
}