{
  "_format": "hh-sol-artifact-1",
  "contractName": "rentMarket",
  "sourceName": "contracts/rentMarket.sol",
  "abi": [
    {
      "inputs": [],
      "stateMutability": "nonpayable",
      "type": "constructor"
    },
    {
      "anonymous": false,
      "inputs": [
        {
          "indexed": true,
          "internalType": "address",
          "name": "nftAddress",
          "type": "address"
        },
        {
          "indexed": true,
          "internalType": "uint256",
          "name": "tokenId",
          "type": "uint256"
        },
        {
          "indexed": false,
          "internalType": "uint256",
          "name": "rentFee",
          "type": "uint256"
        },
        {
          "indexed": false,
          "internalType": "address",
          "name": "feeTokenAddress",
          "type": "address"
        },
        {
          "indexed": false,
          "internalType": "uint256",
          "name": "rentFeeByToken",
          "type": "uint256"
        },
        {
          "indexed": false,
          "internalType": "uint256",
          "name": "rentDuration",
          "type": "uint256"
        },
        {
          "indexed": false,
          "internalType": "address",
          "name": "NFTOwnerAddress",
          "type": "address"
        },
        {
          "indexed": true,
          "internalType": "address",
          "name": "changerAddress",
          "type": "address"
        }
      ],
      "name": "ChangeNFT",
      "type": "event"
    },
    {
      "anonymous": false,
      "inputs": [
        {
          "indexed": true,
          "internalType": "address",
          "name": "sender",
          "type": "address"
        }
      ],
      "name": "Fallback",
      "type": "event"
    },
    {
      "anonymous": false,
      "inputs": [
        {
          "indexed": true,
          "internalType": "address",
          "name": "previousOwner",
          "type": "address"
        },
        {
          "indexed": true,
          "internalType": "address",
          "name": "newOwner",
          "type": "address"
        }
      ],
      "name": "OwnershipTransferred",
      "type": "event"
    },
    {
      "anonymous": false,
      "inputs": [
        {
          "indexed": false,
          "internalType": "address",
          "name": "account",
          "type": "address"
        }
      ],
      "name": "Paused",
      "type": "event"
    },
    {
      "anonymous": false,
      "inputs": [
        {
          "indexed": true,
          "internalType": "address",
          "name": "sender",
          "type": "address"
        },
        {
          "indexed": true,
          "internalType": "uint256",
          "name": "value",
          "type": "uint256"
        }
      ],
      "name": "Receive",
      "type": "event"
    },
    {
      "anonymous": false,
      "inputs": [
        {
          "indexed": true,
          "internalType": "address",
          "name": "collectionAddress",
          "type": "address"
        },
        {
          "indexed": false,
          "internalType": "string",
          "name": "uri",
          "type": "string"
        }
      ],
      "name": "RegisterCollection",
      "type": "event"
    },
    {
      "anonymous": false,
      "inputs": [
        {
          "indexed": true,
          "internalType": "address",
          "name": "nftAddress",
          "type": "address"
        },
        {
          "indexed": true,
          "internalType": "uint256",
          "name": "tokenId",
          "type": "uint256"
        },
        {
          "indexed": false,
          "internalType": "uint256",
          "name": "rentFee",
          "type": "uint256"
        },
        {
          "indexed": false,
          "internalType": "uint256",
          "name": "rentDuration",
          "type": "uint256"
        },
        {
          "indexed": true,
          "internalType": "address",
          "name": "NFTOwnerAddress",
          "type": "address"
        }
      ],
      "name": "RegisterNFT",
      "type": "event"
    },
    {
      "anonymous": false,
      "inputs": [
        {
          "indexed": true,
          "internalType": "address",
          "name": "serviceAddress",
          "type": "address"
        },
        {
          "indexed": false,
          "internalType": "string",
          "name": "uri",
          "type": "string"
        }
      ],
      "name": "RegisterService",
      "type": "event"
    },
    {
      "anonymous": false,
      "inputs": [
        {
          "indexed": true,
          "internalType": "address",
          "name": "tokenAddress",
          "type": "address"
        },
        {
          "indexed": false,
          "internalType": "string",
          "name": "name",
          "type": "string"
        }
      ],
      "name": "RegisterToken",
      "type": "event"
    },
    {
      "anonymous": false,
      "inputs": [
        {
          "indexed": true,
          "internalType": "address",
          "name": "nftAddress",
          "type": "address"
        },
        {
          "indexed": true,
          "internalType": "uint256",
          "name": "tokenId",
          "type": "uint256"
        },
        {
          "indexed": false,
          "internalType": "uint256",
          "name": "rentFee",
          "type": "uint256"
        },
        {
          "indexed": false,
          "internalType": "address",
          "name": "feeTokenAddress",
          "type": "address"
        },
        {
          "indexed": false,
          "internalType": "uint256",
          "name": "rentFeeByToken",
          "type": "uint256"
        },
        {
          "indexed": false,
          "internalType": "bool",
          "name": "isRentByToken",
          "type": "bool"
        },
        {
          "indexed": false,
          "internalType": "uint256",
          "name": "rentDuration",
          "type": "uint256"
        },
        {
          "indexed": false,
          "internalType": "address",
          "name": "renterAddress",
          "type": "address"
        },
        {
          "indexed": true,
          "internalType": "address",
          "name": "renteeAddress",
          "type": "address"
        },
        {
          "indexed": false,
          "internalType": "address",
          "name": "serviceAddress",
          "type": "address"
        },
        {
          "indexed": false,
          "internalType": "uint256",
          "name": "rentStartTimestamp",
          "type": "uint256"
        }
      ],
      "name": "RentNFT",
      "type": "event"
    },
    {
      "anonymous": false,
      "inputs": [
        {
          "indexed": true,
          "internalType": "address",
          "name": "nftAddress",
          "type": "address"
        },
        {
          "indexed": true,
          "internalType": "uint256",
          "name": "tokenId",
          "type": "uint256"
        },
        {
          "indexed": false,
          "internalType": "uint256",
          "name": "rentFee",
          "type": "uint256"
        },
        {
          "indexed": false,
          "internalType": "address",
          "name": "feeTokenAddress",
          "type": "address"
        },
        {
          "indexed": false,
          "internalType": "uint256",
          "name": "rentFeeByToken",
          "type": "uint256"
        },
        {
          "indexed": false,
          "internalType": "bool",
          "name": "isRentByToken",
          "type": "bool"
        },
        {
          "indexed": false,
          "internalType": "uint256",
          "name": "rentDuration",
          "type": "uint256"
        },
        {
          "indexed": false,
          "internalType": "address",
          "name": "renterAddress",
          "type": "address"
        },
        {
          "indexed": true,
          "internalType": "address",
          "name": "renteeAddress",
          "type": "address"
        },
        {
          "indexed": false,
          "internalType": "address",
          "name": "serviceAddress",
          "type": "address"
        },
        {
          "indexed": false,
          "internalType": "uint256",
          "name": "rentStartTimestamp",
          "type": "uint256"
        }
      ],
      "name": "SettleRentData",
      "type": "event"
    },
    {
      "anonymous": false,
      "inputs": [
        {
          "indexed": false,
          "internalType": "address",
          "name": "account",
          "type": "address"
        }
      ],
      "name": "Unpaused",
      "type": "event"
    },
    {
      "anonymous": false,
      "inputs": [
        {
          "indexed": true,
          "internalType": "address",
          "name": "collectionAddress",
          "type": "address"
        },
        {
          "indexed": false,
          "internalType": "string",
          "name": "uri",
          "type": "string"
        }
      ],
      "name": "UnregisterCollection",
      "type": "event"
    },
    {
      "anonymous": false,
      "inputs": [
        {
          "indexed": true,
          "internalType": "address",
          "name": "nftAddress",
          "type": "address"
        },
        {
          "indexed": true,
          "internalType": "uint256",
          "name": "tokenId",
          "type": "uint256"
        },
        {
          "indexed": false,
          "internalType": "uint256",
          "name": "rentFee",
          "type": "uint256"
        },
        {
          "indexed": false,
          "internalType": "address",
          "name": "feeTokenAddress",
          "type": "address"
        },
        {
          "indexed": false,
          "internalType": "uint256",
          "name": "rentFeeByToken",
          "type": "uint256"
        },
        {
          "indexed": false,
          "internalType": "uint256",
          "name": "rentDuration",
          "type": "uint256"
        },
        {
          "indexed": false,
          "internalType": "address",
          "name": "NFTOwnerAddress",
          "type": "address"
        },
        {
          "indexed": true,
          "internalType": "address",
          "name": "UnregisterAddress",
          "type": "address"
        }
      ],
      "name": "UnregisterNFT",
      "type": "event"
    },
    {
      "anonymous": false,
      "inputs": [
        {
          "indexed": true,
          "internalType": "address",
          "name": "serviceAddress",
          "type": "address"
        },
        {
          "indexed": false,
          "internalType": "string",
          "name": "uri",
          "type": "string"
        }
      ],
      "name": "UnregisterService",
      "type": "event"
    },
    {
      "anonymous": false,
      "inputs": [
        {
          "indexed": true,
          "internalType": "address",
          "name": "tokenAddress",
          "type": "address"
        },
        {
          "indexed": false,
          "internalType": "string",
          "name": "name",
          "type": "string"
        }
      ],
      "name": "UnregisterToken",
      "type": "event"
    },
    {
      "anonymous": false,
      "inputs": [
        {
          "indexed": true,
          "internalType": "address",
          "name": "nftAddress",
          "type": "address"
        },
        {
          "indexed": true,
          "internalType": "uint256",
          "name": "tokenId",
          "type": "uint256"
        },
        {
          "indexed": false,
          "internalType": "uint256",
          "name": "rentFee",
          "type": "uint256"
        },
        {
          "indexed": false,
          "internalType": "address",
          "name": "feeTokenAddress",
          "type": "address"
        },
        {
          "indexed": false,
          "internalType": "uint256",
          "name": "rentFeeByToken",
          "type": "uint256"
        },
        {
          "indexed": false,
          "internalType": "bool",
          "name": "isRentByToken",
          "type": "bool"
        },
        {
          "indexed": false,
          "internalType": "uint256",
          "name": "rentDuration",
          "type": "uint256"
        },
        {
          "indexed": false,
          "internalType": "address",
          "name": "renterAddress",
          "type": "address"
        },
        {
          "indexed": true,
          "internalType": "address",
          "name": "renteeAddress",
          "type": "address"
        },
        {
          "indexed": false,
          "internalType": "address",
          "name": "serviceAddress",
          "type": "address"
        },
        {
          "indexed": false,
          "internalType": "uint256",
          "name": "rentStartTimestamp",
          "type": "uint256"
        }
      ],
      "name": "UnrentNFT",
      "type": "event"
    },
    {
      "anonymous": false,
      "inputs": [
        {
          "indexed": true,
          "internalType": "address",
          "name": "recipient",
          "type": "address"
        },
        {
          "indexed": true,
          "internalType": "address",
          "name": "tokenAddress",
          "type": "address"
        },
        {
          "indexed": true,
          "internalType": "uint256",
          "name": "amount",
          "type": "uint256"
        }
      ],
      "name": "WithdrawMyBalance",
      "type": "event"
    },
    {
      "stateMutability": "payable",
      "type": "fallback"
    },
    {
      "inputs": [],
      "name": "VERSION",
      "outputs": [
        {
          "internalType": "string",
          "name": "",
          "type": "string"
        }
      ],
      "stateMutability": "view",
      "type": "function"
    },
    {
      "inputs": [
        {
          "internalType": "address",
          "name": "nftAddress",
          "type": "address"
        },
        {
          "internalType": "uint256",
          "name": "tokenId",
          "type": "uint256"
        },
        {
          "internalType": "uint256",
          "name": "rentFee",
          "type": "uint256"
        },
        {
          "internalType": "address",
          "name": "feeTokenAddress",
          "type": "address"
        },
        {
          "internalType": "uint256",
          "name": "rentFeeByToken",
          "type": "uint256"
        },
        {
          "internalType": "uint256",
          "name": "rentDuration",
          "type": "uint256"
        }
      ],
      "name": "changeNFT",
      "outputs": [
        {
          "internalType": "bool",
          "name": "success",
          "type": "bool"
        }
      ],
      "stateMutability": "nonpayable",
      "type": "function"
    },
    {
      "inputs": [
        {
          "internalType": "address",
          "name": "tokenAddress_",
          "type": "address"
        },
        {
          "internalType": "address",
          "name": "rewardTokenShareContractAddress_",
          "type": "address"
        }
      ],
      "name": "distributeVestingToken",
      "outputs": [],
      "stateMutability": "nonpayable",
      "type": "function"
    },
    {
      "inputs": [],
      "name": "getAllAccountBalance",
      "outputs": [
        {
          "components": [
            {
              "internalType": "address",
              "name": "accountAddress",
              "type": "address"
            },
            {
              "internalType": "address",
              "name": "tokenAddress",
              "type": "address"
            },
            {
              "internalType": "uint256",
              "name": "amount",
              "type": "uint256"
            }
          ],
          "internalType": "struct accountBalanceIterableMap.accountBalance[]",
          "name": "",
          "type": "tuple[]"
        }
      ],
      "stateMutability": "view",
      "type": "function"
    },
    {
      "inputs": [],
      "name": "getAllCollection",
      "outputs": [
        {
          "components": [
            {
              "internalType": "address",
              "name": "collectionAddress",
              "type": "address"
            },
            {
              "internalType": "string",
              "name": "uri",
              "type": "string"
            }
          ],
          "internalType": "struct collectionDataIterableMap.collectionData[]",
          "name": "",
          "type": "tuple[]"
        }
      ],
      "stateMutability": "view",
      "type": "function"
    },
    {
      "inputs": [],
      "name": "getAllPendingRentFee",
      "outputs": [
        {
          "components": [
            {
              "internalType": "address",
              "name": "renterAddress",
              "type": "address"
            },
            {
              "internalType": "address",
              "name": "serviceAddress",
              "type": "address"
            },
            {
              "internalType": "address",
              "name": "feeTokenAddress",
              "type": "address"
            },
            {
              "internalType": "uint256",
              "name": "amount",
              "type": "uint256"
            }
          ],
          "internalType": "struct pendingRentFeeIterableMap.pendingRentFee[]",
          "name": "",
          "type": "tuple[]"
        }
      ],
      "stateMutability": "view",
      "type": "function"
    },
    {
      "inputs": [],
      "name": "getAllRegisterData",
      "outputs": [
        {
          "components": [
            {
              "internalType": "address",
              "name": "nftAddress",
              "type": "address"
            },
            {
              "internalType": "uint256",
              "name": "tokenId",
              "type": "uint256"
            },
            {
              "internalType": "uint256",
              "name": "rentFee",
              "type": "uint256"
            },
            {
              "internalType": "address",
              "name": "feeTokenAddress",
              "type": "address"
            },
            {
              "internalType": "uint256",
              "name": "rentFeeByToken",
              "type": "uint256"
            },
            {
              "internalType": "uint256",
              "name": "rentDuration",
              "type": "uint256"
            }
          ],
          "internalType": "struct registerDataIterableMap.registerData[]",
          "name": "",
          "type": "tuple[]"
        }
      ],
      "stateMutability": "view",
      "type": "function"
    },
    {
      "inputs": [],
      "name": "getAllRentData",
      "outputs": [
        {
          "components": [
            {
              "internalType": "address",
              "name": "nftAddress",
              "type": "address"
            },
            {
              "internalType": "uint256",
              "name": "tokenId",
              "type": "uint256"
            },
            {
              "internalType": "uint256",
              "name": "rentFee",
              "type": "uint256"
            },
            {
              "internalType": "address",
              "name": "feeTokenAddress",
              "type": "address"
            },
            {
              "internalType": "uint256",
              "name": "rentFeeByToken",
              "type": "uint256"
            },
            {
              "internalType": "bool",
              "name": "isRentByToken",
              "type": "bool"
            },
            {
              "internalType": "uint256",
              "name": "rentDuration",
              "type": "uint256"
            },
            {
              "internalType": "address",
              "name": "renterAddress",
              "type": "address"
            },
            {
              "internalType": "address",
              "name": "renteeAddress",
              "type": "address"
            },
            {
              "internalType": "address",
              "name": "serviceAddress",
              "type": "address"
            },
            {
              "internalType": "uint256",
              "name": "rentStartTimestamp",
              "type": "uint256"
            }
          ],
          "internalType": "struct rentDataIterableMap.rentData[]",
          "name": "",
          "type": "tuple[]"
        }
      ],
      "stateMutability": "view",
      "type": "function"
    },
    {
      "inputs": [],
      "name": "getAllService",
      "outputs": [
        {
          "components": [
            {
              "internalType": "address",
              "name": "serviceAddress",
              "type": "address"
            },
            {
              "internalType": "string",
              "name": "uri",
              "type": "string"
            }
          ],
          "internalType": "struct serviceDataIterableMap.serviceData[]",
          "name": "",
          "type": "tuple[]"
        }
      ],
      "stateMutability": "view",
      "type": "function"
    },
    {
      "inputs": [],
      "name": "getAllToken",
      "outputs": [
        {
          "components": [
            {
              "internalType": "address",
              "name": "tokenAddress",
              "type": "address"
            },
            {
              "internalType": "string",
              "name": "name",
              "type": "string"
            }
          ],
          "internalType": "struct tokenDataIterableMap.tokenData[]",
          "name": "",
          "type": "tuple[]"
        }
      ],
      "stateMutability": "view",
      "type": "function"
    },
    {
      "inputs": [
        {
          "internalType": "address",
          "name": "collectionAddress",
          "type": "address"
        }
      ],
      "name": "getCollection",
      "outputs": [
        {
          "components": [
            {
              "internalType": "address",
              "name": "collectionAddress",
              "type": "address"
            },
            {
              "internalType": "string",
              "name": "uri",
              "type": "string"
            }
          ],
          "internalType": "struct collectionDataIterableMap.collectionData",
          "name": "",
          "type": "tuple"
        }
      ],
      "stateMutability": "view",
      "type": "function"
    },
    {
      "inputs": [],
      "name": "getFeeQuota",
      "outputs": [
        {
          "internalType": "uint256",
          "name": "renterFeeQuota",
          "type": "uint256"
        },
        {
          "internalType": "uint256",
          "name": "serviceFeeQuota",
          "type": "uint256"
        },
        {
          "internalType": "uint256",
          "name": "marketFeeQuota",
          "type": "uint256"
        }
      ],
      "stateMutability": "view",
      "type": "function"
    },
    {
      "inputs": [],
      "name": "getMarketShareAddress",
      "outputs": [
        {
          "internalType": "address",
          "name": "shareAddress",
          "type": "address"
        }
      ],
      "stateMutability": "view",
      "type": "function"
    },
    {
      "inputs": [
        {
          "internalType": "address",
          "name": "tokenAddress",
          "type": "address"
        }
      ],
      "name": "getMyBalance",
      "outputs": [
        {
          "internalType": "uint256",
          "name": "balance",
          "type": "uint256"
        }
      ],
      "stateMutability": "view",
      "type": "function"
    },
    {
      "inputs": [
        {
          "internalType": "address",
          "name": "nftAddress",
          "type": "address"
        },
        {
          "internalType": "uint256",
          "name": "tokenId",
          "type": "uint256"
        }
      ],
      "name": "getRegisterData",
      "outputs": [
        {
          "components": [
            {
              "internalType": "address",
              "name": "nftAddress",
              "type": "address"
            },
            {
              "internalType": "uint256",
              "name": "tokenId",
              "type": "uint256"
            },
            {
              "internalType": "uint256",
              "name": "rentFee",
              "type": "uint256"
            },
            {
              "internalType": "address",
              "name": "feeTokenAddress",
              "type": "address"
            },
            {
              "internalType": "uint256",
              "name": "rentFeeByToken",
              "type": "uint256"
            },
            {
              "internalType": "uint256",
              "name": "rentDuration",
              "type": "uint256"
            }
          ],
          "internalType": "struct registerDataIterableMap.registerData",
          "name": "",
          "type": "tuple"
        }
      ],
      "stateMutability": "view",
      "type": "function"
    },
    {
      "inputs": [
        {
          "internalType": "address",
          "name": "nftAddress",
          "type": "address"
        },
        {
          "internalType": "uint256",
          "name": "tokenId",
          "type": "uint256"
        }
      ],
      "name": "getRentData",
      "outputs": [
        {
          "components": [
            {
              "internalType": "address",
              "name": "nftAddress",
              "type": "address"
            },
            {
              "internalType": "uint256",
              "name": "tokenId",
              "type": "uint256"
            },
            {
              "internalType": "uint256",
              "name": "rentFee",
              "type": "uint256"
            },
            {
              "internalType": "address",
              "name": "feeTokenAddress",
              "type": "address"
            },
            {
              "internalType": "uint256",
              "name": "rentFeeByToken",
              "type": "uint256"
            },
            {
              "internalType": "bool",
              "name": "isRentByToken",
              "type": "bool"
            },
            {
              "internalType": "uint256",
              "name": "rentDuration",
              "type": "uint256"
            },
            {
              "internalType": "address",
              "name": "renterAddress",
              "type": "address"
            },
            {
              "internalType": "address",
              "name": "renteeAddress",
              "type": "address"
            },
            {
              "internalType": "address",
              "name": "serviceAddress",
              "type": "address"
            },
            {
              "internalType": "uint256",
              "name": "rentStartTimestamp",
              "type": "uint256"
            }
          ],
          "internalType": "struct rentDataIterableMap.rentData",
          "name": "",
          "type": "tuple"
        }
      ],
      "stateMutability": "view",
      "type": "function"
    },
    {
      "inputs": [
        {
          "internalType": "address",
          "name": "serviceAddress",
          "type": "address"
        }
      ],
      "name": "getService",
      "outputs": [
        {
          "components": [
            {
              "internalType": "address",
              "name": "serviceAddress",
              "type": "address"
            },
            {
              "internalType": "string",
              "name": "uri",
              "type": "string"
            }
          ],
          "internalType": "struct serviceDataIterableMap.serviceData",
          "name": "",
          "type": "tuple"
        }
      ],
      "stateMutability": "view",
      "type": "function"
    },
    {
      "inputs": [],
      "name": "getThreshold",
      "outputs": [
        {
          "internalType": "uint256",
          "name": "",
          "type": "uint256"
        }
      ],
      "stateMutability": "view",
      "type": "function"
    },
    {
      "inputs": [
        {
          "internalType": "address",
          "name": "tokenAddress_",
          "type": "address"
        }
      ],
      "name": "getTotalAccountBalance",
      "outputs": [
        {
          "internalType": "uint256",
          "name": "totalAccountBalance_",
          "type": "uint256"
        }
      ],
      "stateMutability": "view",
      "type": "function"
    },
    {
      "inputs": [],
      "name": "owner",
      "outputs": [
        {
          "internalType": "address",
          "name": "",
          "type": "address"
        }
      ],
      "stateMutability": "view",
      "type": "function"
    },
    {
      "inputs": [],
      "name": "pause",
      "outputs": [],
      "stateMutability": "nonpayable",
      "type": "function"
    },
    {
      "inputs": [],
      "name": "paused",
      "outputs": [
        {
          "internalType": "bool",
          "name": "",
          "type": "bool"
        }
      ],
      "stateMutability": "view",
      "type": "function"
    },
    {
      "inputs": [
        {
          "internalType": "address",
          "name": "collectionAddress",
          "type": "address"
        },
        {
          "internalType": "string",
          "name": "uri",
          "type": "string"
        }
      ],
      "name": "registerCollection",
      "outputs": [
        {
          "internalType": "bool",
          "name": "success",
          "type": "bool"
        }
      ],
      "stateMutability": "nonpayable",
      "type": "function"
    },
    {
      "inputs": [
        {
          "internalType": "address",
          "name": "nftAddress",
          "type": "address"
        },
        {
          "internalType": "uint256",
          "name": "tokenId",
          "type": "uint256"
        }
      ],
      "name": "registerNFT",
      "outputs": [
        {
          "internalType": "bool",
          "name": "success",
          "type": "bool"
        }
      ],
      "stateMutability": "nonpayable",
      "type": "function"
    },
    {
      "inputs": [
        {
          "internalType": "address",
          "name": "serviceAddress",
          "type": "address"
        },
        {
          "internalType": "string",
          "name": "uri",
          "type": "string"
        }
      ],
      "name": "registerService",
      "outputs": [
        {
          "internalType": "bool",
          "name": "success",
          "type": "bool"
        }
      ],
      "stateMutability": "nonpayable",
      "type": "function"
    },
    {
      "inputs": [
        {
          "internalType": "address",
          "name": "tokenAddress",
          "type": "address"
        },
        {
          "internalType": "string",
          "name": "name",
          "type": "string"
        }
      ],
      "name": "registerToken",
      "outputs": [
        {
          "internalType": "bool",
          "name": "success",
          "type": "bool"
        }
      ],
      "stateMutability": "nonpayable",
      "type": "function"
    },
    {
      "inputs": [],
      "name": "renounceOwnership",
      "outputs": [],
      "stateMutability": "nonpayable",
      "type": "function"
    },
    {
      "inputs": [
        {
          "internalType": "address",
          "name": "nftAddress",
          "type": "address"
        },
        {
          "internalType": "uint256",
          "name": "tokenId",
          "type": "uint256"
        },
        {
          "internalType": "address",
          "name": "serviceAddress",
          "type": "address"
        }
      ],
      "name": "rentNFT",
      "outputs": [
        {
          "internalType": "bool",
          "name": "success",
          "type": "bool"
        }
      ],
      "stateMutability": "payable",
      "type": "function"
    },
    {
      "inputs": [
        {
          "internalType": "address",
          "name": "nftAddress",
          "type": "address"
        },
        {
          "internalType": "uint256",
          "name": "tokenId",
          "type": "uint256"
        },
        {
          "internalType": "address",
          "name": "serviceAddress",
          "type": "address"
        },
        {
          "internalType": "uint256",
          "name": "deadline",
          "type": "uint256"
        },
        {
          "internalType": "uint8",
          "name": "v",
          "type": "uint8"
        },
        {
          "internalType": "bytes32",
          "name": "r",
          "type": "bytes32"
        },
        {
          "internalType": "bytes32",
          "name": "s",
          "type": "bytes32"
        }
      ],
      "name": "rentNFTByToken",
      "outputs": [],
      "stateMutability": "payable",
      "type": "function"
    },
    {
      "inputs": [
        {
          "internalType": "uint256",
          "name": "renterFeeQuota",
          "type": "uint256"
        },
        {
          "internalType": "uint256",
          "name": "serviceFeeQuota",
          "type": "uint256"
        },
        {
          "internalType": "uint256",
          "name": "marketFeeQuota",
          "type": "uint256"
        }
      ],
      "name": "setFeeQuota",
      "outputs": [],
      "stateMutability": "nonpayable",
      "type": "function"
    },
    {
      "inputs": [
        {
          "internalType": "address",
          "name": "shareAddress",
          "type": "address"
        }
      ],
      "name": "setMarketShareAddress",
      "outputs": [],
      "stateMutability": "nonpayable",
      "type": "function"
    },
    {
      "inputs": [
        {
          "internalType": "uint256",
          "name": "threshold_",
          "type": "uint256"
        }
      ],
      "name": "setThreshold",
      "outputs": [],
      "stateMutability": "nonpayable",
      "type": "function"
    },
    {
      "inputs": [
        {
          "internalType": "address",
          "name": "nftAddress",
          "type": "address"
        },
        {
          "internalType": "uint256",
          "name": "tokenId",
          "type": "uint256"
        }
      ],
      "name": "settleRentData",
      "outputs": [
        {
          "internalType": "bool",
          "name": "success",
          "type": "bool"
        }
      ],
      "stateMutability": "nonpayable",
      "type": "function"
    },
    {
      "inputs": [
        {
          "internalType": "address",
          "name": "newOwner",
          "type": "address"
        }
      ],
      "name": "transferOwnership",
      "outputs": [],
      "stateMutability": "nonpayable",
      "type": "function"
    },
    {
      "inputs": [],
      "name": "unpause",
      "outputs": [],
      "stateMutability": "nonpayable",
      "type": "function"
    },
    {
      "inputs": [
        {
          "internalType": "address",
          "name": "collectionAddress",
          "type": "address"
        }
      ],
      "name": "unregisterCollection",
      "outputs": [
        {
          "internalType": "bool",
          "name": "success",
          "type": "bool"
        }
      ],
      "stateMutability": "nonpayable",
      "type": "function"
    },
    {
      "inputs": [
        {
          "internalType": "address",
          "name": "nftAddress",
          "type": "address"
        },
        {
          "internalType": "uint256",
          "name": "tokenId",
          "type": "uint256"
        }
      ],
      "name": "unregisterNFT",
      "outputs": [
        {
          "internalType": "bool",
          "name": "success",
          "type": "bool"
        }
      ],
      "stateMutability": "nonpayable",
      "type": "function"
    },
    {
      "inputs": [
        {
          "internalType": "address",
          "name": "serviceAddress",
          "type": "address"
        }
      ],
      "name": "unregisterService",
      "outputs": [
        {
          "internalType": "bool",
          "name": "success",
          "type": "bool"
        }
      ],
      "stateMutability": "nonpayable",
      "type": "function"
    },
    {
      "inputs": [
        {
          "internalType": "address",
          "name": "tokenAddress",
          "type": "address"
        }
      ],
      "name": "unregisterToken",
      "outputs": [
        {
          "internalType": "bool",
          "name": "success",
          "type": "bool"
        }
      ],
      "stateMutability": "nonpayable",
      "type": "function"
    },
    {
      "inputs": [
        {
          "internalType": "address",
          "name": "nftAddress",
          "type": "address"
        },
        {
          "internalType": "uint256",
          "name": "tokenId",
          "type": "uint256"
        }
      ],
      "name": "unrentNFT",
      "outputs": [
        {
          "internalType": "bool",
          "name": "success",
          "type": "bool"
        }
      ],
      "stateMutability": "nonpayable",
      "type": "function"
    },
    {
      "inputs": [
        {
          "internalType": "address",
          "name": "recipient",
          "type": "address"
        },
        {
          "internalType": "address",
          "name": "tokenAddress",
          "type": "address"
        }
      ],
      "name": "withdrawMyBalance",
      "outputs": [
        {
          "internalType": "bool",
          "name": "success",
          "type": "bool"
        }
      ],
      "stateMutability": "payable",
      "type": "function"
    },
    {
      "stateMutability": "payable",
      "type": "receive"
    }
  ],
  "bytecode": "0x60c06040526005608081905264302e302e3560d81b60a0908152620000289160019190620000de565b50670de0b6b3a7640000600355620151806004556050600555600a600655600a60075560646008553480156200005d57600080fd5b5062000069336200008e565b6000805460ff60a01b19169055600280546001600160a01b03191633179055620001c1565b600080546001600160a01b038381166001600160a01b0319831681178455604051919092169283917f8be0079c531659141344cd1fd0a4f28419497f9722a3daafe3b4186f6b6457e09190a35050565b828054620000ec9062000184565b90600052602060002090601f0160209004810192826200011057600085556200015b565b82601f106200012b57805160ff19168380011785556200015b565b828001600101855582156200015b579182015b828111156200015b5782518255916020019190600101906200013e565b50620001699291506200016d565b5090565b5b808211156200016957600081556001016200016e565b600181811c908216806200019957607f821691505b60208210811415620001bb57634e487b7160e01b600052602260045260246000fd5b50919050565b615f2080620001d16000396000f3fe6080604052600436106101da5760003560e01c806301cf2bae1461023b57806306eb924f1461026e57806315a523021461029e57806317a6b609146102cb5780631c2c2c24146102eb5780632736a8621461030d5780632803aa131461032f5780632d740226146103425780632e6379ed146103625780633f4ba83a146103755780634419ebb61461038a57806345d44eda146103b75780634b6c05fa146103d75780635c975abb146103fe5780636558fce6146104135780636b4a08961461043357806370473d8614610453578063715018a61461047557806377860cdd1461048a5780637e3ef7cd146104aa57806381ac825c146104ca57806383b2f911146104dd5780638456cb591461050a57806385e3c1d41461051f5780638bb72e83146105415780638da5cb5b1461056357806395dbd44014610578578063960bfe041461059a578063adee9abd146105ba578063d4fbeb19146105da578063e2fcbf73146105fa578063e40de8871461061c578063e5d1420f1461063c578063e75235b81461065c578063e7823fac14610671578063e8592fc714610691578063ec51c0d1146106b1578063ee5afa52146106e2578063eec3104214610702578063f2fde38b14610724578063ffa1ad74146107445761020e565b3661020e57604051349033907fd6717f327e0cb88b4a97a7f67a453e9258252c34937ccbdd86de7cb840e7def390600090a3005b60405133907fdd0c5778ddb0b0501649417aeffed44057db3d5d530231758c8dc5ef6eeb789490600090a2005b34801561024757600080fd5b5061025b6102563660046150bb565b610766565b6040519081526020015b60405180910390f35b34801561027a57600080fd5b5061028e61028936600461516e565b610827565b6040519015158152602001610265565b3480156102aa57600080fd5b506102be6102b93660046150bb565b6109e2565b6040516102659190615298565b3480156102d757600080fd5b5061028e6102e63660046152ab565b610a78565b3480156102f757600080fd5b50610300610e5d565b604051610265919061537a565b34801561031957600080fd5b5061032d6103283660046153c9565b610fce565b005b61032d61033d3660046153f5565b611031565b34801561034e57600080fd5b5061028e61035d36600461516e565b611698565b61028e61037036600461546c565b611826565b34801561038157600080fd5b5061032d611c18565b34801561039657600080fd5b506103aa6103a53660046152ab565b611c2a565b60405161026591906154a5565b3480156103c357600080fd5b5061028e6103d23660046150bb565b611cc6565b3480156103e357600080fd5b506002546001600160a01b03165b60405161026591906154b4565b34801561040a57600080fd5b5061028e611f0b565b34801561041f57600080fd5b5061028e61042e3660046154c8565b611f1b565b34801561043f57600080fd5b5061028e61044e3660046152ab565b6121f9565b34801561045f57600080fd5b506104686128a7565b6040516102659190615569565b34801561048157600080fd5b5061032d6129d1565b34801561049657600080fd5b5061028e6104a53660046150bb565b6129e3565b3480156104b657600080fd5b5061025b6104c53660046150bb565b612c07565b61028e6104d83660046155ab565b612c96565b3480156104e957600080fd5b506104fd6104f83660046152ab565b613365565b60405161026591906155ed565b34801561051657600080fd5b5061032d6133f9565b34801561052b57600080fd5b50610534613409565b60405161026591906155fb565b34801561054d57600080fd5b5061055661359d565b604051610265919061565d565b34801561056f57600080fd5b506103f16136d0565b34801561058457600080fd5b5061058d6136df565b60405161026591906156cf565b3480156105a657600080fd5b5061032d6105b5366004615724565b613866565b3480156105c657600080fd5b5061028e6105d53660046150bb565b613873565b3480156105e657600080fd5b5061028e6105f536600461516e565b613a97565b34801561060657600080fd5b5061060f613c25565b604051610265919061573d565b34801561062857600080fd5b506102be6106373660046150bb565b613d2e565b34801561064857600080fd5b5061028e6106573660046152ab565b613d70565b34801561066857600080fd5b5060085461025b565b34801561067d57600080fd5b5061032d61068c36600461546c565b614046565b34801561069d57600080fd5b5061028e6106ac3660046152ab565b614320565b3480156106bd57600080fd5b5060055460065460075460408051938452602084019290925290820152606001610265565b3480156106ee57600080fd5b5061032d6106fd3660046150bb565b6148a6565b34801561070e57600080fd5b506107176148d0565b6040516102659190615795565b34801561073057600080fd5b5061032d61073f3660046150bb565b614a57565b34801561075057600080fd5b50610759614ad0565b60405161026591906157ea565b600080610771614f9c565b60005b60165481101561081e57601680546015919083908110610796576107966157fd565b906000526020600020016040516107ad9190615848565b908152604080516020928190038301812060608201835260018101546001600160a01b039081168352600282015481169483018590526003909101549282019290925293508616141561080c57604082015161080990846158fa565b92505b8061081681615912565b915050610774565b50909392505050565b6000610831614b5e565b610839614bbd565b6040516360f353e160e01b815273__$79a40a2052c9947e027843e42106f8b048$__906360f353e19061087390600b90879060040161592d565b60206040518083038186803b15801561088b57600080fd5b505af415801561089f573d6000803e3d6000fd5b505050506040513d601f19601f820116820180604052508101906108c39190615954565b156108e95760405162461bcd60e51b81526004016108e09061596f565b60405180910390fd5b60405163287af74760e01b815260009073__$79a40a2052c9947e027843e42106f8b048$__9063287af7479061092890600b908890889060040161598c565b60206040518083038186803b15801561094057600080fd5b505af4158015610954573d6000803e3d6000fd5b505050506040513d601f19601f820116820180604052508101906109789190615954565b9050600181151514156109d057836001600160a01b03167fdcc2016b74f9e1be59c35f005623093f22ee185961aa79657be041dba04ed0a4846040516109be91906157ea565b60405180910390a260019150506109dc565b60009150506109dc565b505b92915050565b6109ea614fbc565b604051631eb966b960e01b815273__$a27ab5a2953dc10a9c552591268754b616$__90631eb966b990610a2490600d90869060040161592d565b60006040518083038186803b158015610a3c57600080fd5b505af4158015610a50573d6000803e3d6000fd5b505050506040513d6000823e601f3d908101601f191682016040526109dc9190810190615a7f565b6000610a82614bbd565b6040516304ecf28360e41b815273__$aabfbf51bc7bf3b8af0580fb7224204a01$__90634ecf283090610abe90600f9087908790600401615ab3565b60206040518083038186803b158015610ad657600080fd5b505af4158015610aea573d6000803e3d6000fd5b505050506040513d601f19601f82011682018060405250810190610b0e9190615954565b15610b415760405162461bcd60e51b815260206004820152600360248201526229269960e91b60448201526064016108e0565b6000610b4d8433614c05565b90506000610b5b8585614cb8565b90506001600160a01b038116610b9c5760405162461bcd60e51b81526004016108e090602080825260049082015263524d323160e01b604082015260600190565b60018215151480610bb557506001600160a01b03811633145b80610c4b57506040516360f353e160e01b815273__$79a40a2052c9947e027843e42106f8b048$__906360f353e190610bf590600b90339060040161592d565b60206040518083038186803b158015610c0d57600080fd5b505af4158015610c21573d6000803e3d6000fd5b505050506040513d601f19601f82011682018060405250810190610c459190615954565b15156001145b610c7d5760405162461bcd60e51b815260206004820152600360248201526214934d60ea1b60448201526064016108e0565b6040516360f353e160e01b815273__$79a40a2052c9947e027843e42106f8b048$__906360f353e190610cb790600b90899060040161592d565b60206040518083038186803b158015610ccf57600080fd5b505af4158015610ce3573d6000803e3d6000fd5b505050506040513d601f19601f82011682018060405250810190610d079190615954565b1515600114610d415760405162461bcd60e51b81526004016108e0906020808252600490820152632926991960e11b604082015260600190565b6003546004805460405163cddd4b6760e01b815260009373__$aabfbf51bc7bf3b8af0580fb7224204a01$__9363cddd4b6793610d8d93600f938d938d9391928a928392909101615ad2565b60206040518083038186803b158015610da557600080fd5b505af4158015610db9573d6000803e3d6000fd5b505050506040513d601f19601f82011682018060405250810190610ddd9190615954565b905060018115151415610e5157816001600160a01b031685876001600160a01b03167f582e65d918b73308f2eb058e75e68168f22c49c2994530f72d46177c78435cbb600354600454604051610e3d929190918252602082015260400190565b60405180910390a4600193505050506109dc565b600093505050506109dc565b6012546060906000906001600160401b03811115610e7d57610e7d6150d8565b604051908082528060200260200182016040528015610eb657816020015b610ea3614fd4565b815260200190600190039081610e9b5790505b50905060005b601254811015610fc857601280546011919083908110610ede57610ede6157fd565b90600052602060002001604051610ef59190615848565b9081526040805191829003602090810183206101608401835260018101546001600160a01b03908116855260028201549285019290925260038101549284019290925260048201548116606084015260058201546080840152600682015460ff16151560a0840152600782015460c08401526008820154811660e084015260098201548116610100840152600a82015416610120830152600b01546101408201528251839083908110610faa57610faa6157fd565b60200260200101819052508080610fc090615912565b915050610ebc565b50919050565b610fd6614b5e565b80610fe183856158fa565b610feb91906158fa565b6064146110235760405162461bcd60e51b81526004016108e0906020808252600490820152632926989960e11b604082015260600190565b600592909255600655600755565b611039614bbd565b6040516304ecf28360e41b815273__$aabfbf51bc7bf3b8af0580fb7224204a01$__90634ecf28309061107590600f908b908b90600401615ab3565b60206040518083038186803b15801561108d57600080fd5b505af41580156110a1573d6000803e3d6000fd5b505050506040513d601f19601f820116820180604052508101906110c59190615954565b15156001146110e65760405162461bcd60e51b81526004016108e090615b10565b604051638c9a6cc360e01b815273__$a27ab5a2953dc10a9c552591268754b616$__90638c9a6cc39061112090600d90899060040161592d565b60206040518083038186803b15801561113857600080fd5b505af415801561114c573d6000803e3d6000fd5b505050506040513d601f19601f820116820180604052508101906111709190615954565b15156001146111915760405162461bcd60e51b81526004016108e090615b2d565b34156111c85760405162461bcd60e51b81526004016108e090602080825260049082015263524d313360e01b604082015260600190565b6111d0615030565b6001600160a01b03861660408201526111e98888614cb8565b6001600160a01b03166060820152604051630163053760e51b815260009073__$aabfbf51bc7bf3b8af0580fb7224204a01$__90632c60a6e09061123690600f908d908d90600401615ab3565b60c06040518083038186803b15801561124e57600080fd5b505af4158015611262573d6000803e3d6000fd5b505050506040513d601f19601f820116820180604052508101906112869190615b4a565b60608101519091506001600160a01b03166112b35760405162461bcd60e51b81526004016108e090615bd4565b80606001516001600160a01b03166370a08231336040518263ffffffff1660e01b81526004016112e391906154b4565b60206040518083038186803b1580156112fb57600080fd5b505afa15801561130f573d6000803e3d6000fd5b505050506040513d601f19601f820116820180604052508101906113339190615bf2565b60208301819052608082015111156113765760405162461bcd60e51b81526004016108e090602080825260049082015263524d323360e01b604082015260600190565b6060810151608082015160405163d505accf60e01b815233600482015230602482015260448101919091526064810188905260ff8716608482015260a4810186905260c481018590526001600160a01b039091169063d505accf9060e401600060405180830381600087803b1580156113ee57600080fd5b505af1158015611402573d6000803e3d6000fd5b5050505080606001516001600160a01b03166323b872dd333084608001516040518463ffffffff1660e01b815260040161143e93929190615c0b565b602060405180830381600087803b15801561145857600080fd5b505af115801561146c573d6000803e3d6000fd5b505050506040513d601f19601f820116820180604052508101906114909190615954565b50611499614fd4565b6001600160a01b03808b168252602082018a90526040808401518184015260608085015183168185015260808086015190850152600160a08086019190915285015160c0850152850151821660e08401523361010084015290891661012083015242610140830152516332ada61b60e01b815273__$c9b49513854812b7b6c4b448b2aa4684e3$__906332ada61b90611539906011908590600401615c2f565b60206040518083038186803b15801561155157600080fd5b505af4158015611565573d6000803e3d6000fd5b505050506040513d601f19601f820116820180604052508101906115899190615954565b506060808401519083015160808401516040516343d434b560e11b815273__$cd3810e67fa8b653e5355050e47a521f6f$__936387a8696a936115d5936013938f929190600401615c44565b60206040518083038186803b1580156115ed57600080fd5b505af4158015611601573d6000803e3d6000fd5b505050506040513d601f19601f820116820180604052508101906116259190615954565b50336001600160a01b0316898b6001600160a01b0316600080516020615ecb83398151915285604001518660600151876080015160018960a001518b606001518c604001518b6101400151604051611684989796959493929190615c72565b60405180910390a450505050505050505050565b60006116a2614b5e565b6116aa614bbd565b604051638c9a6cc360e01b815273__$a27ab5a2953dc10a9c552591268754b616$__90638c9a6cc3906116e490600d90879060040161592d565b60206040518083038186803b1580156116fc57600080fd5b505af4158015611710573d6000803e3d6000fd5b505050506040513d601f19601f820116820180604052508101906117349190615954565b156117515760405162461bcd60e51b81526004016108e09061596f565b6040516327a7887760e21b815260009073__$a27ab5a2953dc10a9c552591268754b616$__90639e9e21dc9061179090600d908890889060040161598c565b60206040518083038186803b1580156117a857600080fd5b505af41580156117bc573d6000803e3d6000fd5b505050506040513d601f19601f820116820180604052508101906117e09190615954565b9050600181151514156109d057836001600160a01b03167f26e277514df07793f28eff0e6f05b34a8dc0be0012b50d1b6162ce3c958b0c4e846040516109be91906157ea565b6000336001600160a01b038416148061185757506118426136d0565b6001600160a01b0316336001600160a01b0316145b61188c5760405162461bcd60e51b81526004016108e0906020808252600490820152630a49a62760e31b604082015260600190565b60405163b52bf90f60e01b815260009073__$35fde6ac6f7fb08b81f20635e2dfbb2343$__9063b52bf90f906118cb9060159088908890600401615cb8565b60206040518083038186803b1580156118e357600080fd5b505af41580156118f7573d6000803e3d6000fd5b505050506040513d601f19601f8201168201806040525081019061191b9190615bf2565b905080156109da576001600160a01b0383166119c3576000846001600160a01b03168260405160006040518083038185875af1925050503d806000811461197e576040519150601f19603f3d011682016040523d82523d6000602084013e611983565b606091505b50509050806119bd5760405162461bcd60e51b81526004016108e09060208082526004908201526314934c4d60e21b604082015260600190565b50611b25565b60405163095ea7b360e01b8152306004820152602481018290526000906001600160a01b0385169063095ea7b390604401602060405180830381600087803b158015611a0e57600080fd5b505af1158015611a22573d6000803e3d6000fd5b505050506040513d601f19601f82011682018060405250810190611a469190615954565b905080611a7e5760405162461bcd60e51b81526004016108e090602080825260049082015263524d313960e01b604082015260600190565b6040516323b872dd60e01b81526000906001600160a01b038616906323b872dd90611ab19030908a908890600401615c0b565b602060405180830381600087803b158015611acb57600080fd5b505af1158015611adf573d6000803e3d6000fd5b505050506040513d601f19601f82011682018060405250810190611b039190615954565b905080611b225760405162461bcd60e51b81526004016108e090615bd4565b50505b60405163bc824a9360e01b815260009073__$35fde6ac6f7fb08b81f20635e2dfbb2343$__9063bc824a9390611b649060159089908990600401615cb8565b60206040518083038186803b158015611b7c57600080fd5b505af4158015611b90573d6000803e3d6000fd5b505050506040513d601f19601f82011682018060405250810190611bb49190615954565b905060018115151415611c0d5781846001600160a01b0316866001600160a01b03167ff19b643806aff6923e6a83303f2c43467bb6e47487c68586ec0bcfb7097e8f7660405160405180910390a46001925050506109dc565b6000925050506109dc565b611c20614b5e565b611c28614d7f565b565b611c32614fd4565b60405163af8b7c8160e01b815273__$c9b49513854812b7b6c4b448b2aa4684e3$__9063af8b7c8190611c6e9060119087908790600401615ab3565b6101606040518083038186803b158015611c8757600080fd5b505af4158015611c9b573d6000803e3d6000fd5b505050506040513d601f19601f82011682018060405250810190611cbf9190615cd7565b9392505050565b6000611cd0614b5e565b604051638c9a6cc360e01b815273__$a27ab5a2953dc10a9c552591268754b616$__90638c9a6cc390611d0a90600d90869060040161592d565b60206040518083038186803b158015611d2257600080fd5b505af4158015611d36573d6000803e3d6000fd5b505050506040513d601f19601f82011682018060405250810190611d5a9190615954565b1515600114611d7b5760405162461bcd60e51b81526004016108e090615d90565b604051631eb966b960e01b815260009073__$a27ab5a2953dc10a9c552591268754b616$__90631eb966b990611db890600d90879060040161592d565b60006040518083038186803b158015611dd057600080fd5b505af4158015611de4573d6000803e3d6000fd5b505050506040513d6000823e601f3d908101601f19168201604052611e0c9190810190615a7f565b604051634c3bfbf560e11b815290915060009073__$a27ab5a2953dc10a9c552591268754b616$__90639877f7ea90611e4c90600d90889060040161592d565b60206040518083038186803b158015611e6457600080fd5b505af4158015611e78573d6000803e3d6000fd5b505050506040513d601f19601f82011682018060405250810190611e9c9190615954565b905060018115151415611efc5781600001516001600160a01b03167fd3bb6cf267814a3d42a12164c9ac01a59db6d9121ae676500da60fd56b086d3b8360200151604051611eea91906157ea565b60405180910390a25060019392505050565b5060009392505050565b919050565b600054600160a01b900460ff1690565b6000611f25614bbd565b6000611f318888614cb8565b9050336001600160a01b0382161480611f625750611f4d6136d0565b6001600160a01b0316336001600160a01b0316145b611f7e5760405162461bcd60e51b81526004016108e090615dad565b6040516304ecf28360e41b815273__$aabfbf51bc7bf3b8af0580fb7224204a01$__90634ecf283090611fba90600f908c908c90600401615ab3565b60206040518083038186803b158015611fd257600080fd5b505af4158015611fe6573d6000803e3d6000fd5b505050506040513d601f19601f8201168201806040525081019061200a9190615954565b151560011461202b5760405162461bcd60e51b81526004016108e090615d90565b6001600160a01b038516156120e557604051631f04869b60e31b815273__$4fab912f99daae96c763763589e4636ca5$__9063f82434d89061207490600990899060040161592d565b60206040518083038186803b15801561208c57600080fd5b505af41580156120a0573d6000803e3d6000fd5b505050506040513d601f19601f820116820180604052508101906120c49190615954565b15156001146120e55760405162461bcd60e51b81526004016108e090615bd4565b6040516313d3de6d60e11b815260009073__$aabfbf51bc7bf3b8af0580fb7224204a01$__906327a7bcda9061212c90600f908d908d908d908d908d908d90600401615ad2565b60206040518083038186803b15801561214457600080fd5b505af4158015612158573d6000803e3d6000fd5b505050506040513d601f19601f8201168201806040525081019061217c9190615954565b9050600181151514156121e857336001600160a01b0316888a6001600160a01b03167f4388754cf451950a50e2520e86758fc59ec9e88a7f6a09f2db5de37d545639298a8a8a8a896040516121d5959493929190615dca565b60405180910390a46001925050506121ef565b6000925050505b9695505050505050565b60405163e99a8e3960e01b815260009081908190819073__$c9b49513854812b7b6c4b448b2aa4684e3$__9063e99a8e399061223e906011908a908a90600401615ab3565b60206040518083038186803b15801561225657600080fd5b505af415801561226a573d6000803e3d6000fd5b505050506040513d601f19601f8201168201806040525081019061228e9190615954565b15156001146122af5760405162461bcd60e51b81526004016108e090615df6565b336122b86136d0565b6001600160a01b0316146122f75760405162461bcd60e51b81526004016108e0906020808252600490820152632926989b60e11b604082015260600190565b60405163af8b7c8160e01b815260009073__$c9b49513854812b7b6c4b448b2aa4684e3$__9063af8b7c8190612336906011908b908b90600401615ab3565b6101606040518083038186803b15801561234f57600080fd5b505af4158015612363573d6000803e3d6000fd5b505050506040513d601f19601f820116820180604052508101906123879190615cd7565b90508060a0015115156001151514156123a657806080015191506123ae565b806040015191505b6101408101514290811180156123d757508160c001518261014001516123d491906158fa565b81105b156124af576000826101400151826123ef9190615e14565b90506124086123fe8286615e2b565b8460c00151614dce565b95506124148487614dda565b610100840151606085015160405163071cd41560e31b815292975073__$35fde6ac6f7fb08b81f20635e2dfbb2343$__926338e6a0a89261245c926015928b90600401615e4a565b60206040518083038186803b15801561247457600080fd5b505af4158015612488573d6000803e3d6000fd5b505050506040513d601f19601f820116820180604052508101906124ac9190615954565b50505b84156126cf5760006124cf600554876124c89190615e2b565b6064614dce565b905060006124e4600654886124c89190615e2b565b90506000816124f3848a615e14565b6124fd9190615e14565b60e0860151606087015160405163071cd41560e31b815292935073__$35fde6ac6f7fb08b81f20635e2dfbb2343$__926338e6a0a892612544926015928990600401615e4a565b60206040518083038186803b15801561255c57600080fd5b505af4158015612570573d6000803e3d6000fd5b505050506040513d601f19601f820116820180604052508101906125949190615954565b50610120850151606086015160405163071cd41560e31b815273__$35fde6ac6f7fb08b81f20635e2dfbb2343$__926338e6a0a8926125dc9260159291908890600401615e4a565b60206040518083038186803b1580156125f457600080fd5b505af4158015612608573d6000803e3d6000fd5b505050506040513d601f19601f8201168201806040525081019061262c9190615954565b50600254606086015160405163071cd41560e31b815273__$35fde6ac6f7fb08b81f20635e2dfbb2343$__926338e6a0a89261267a926015926001600160a01b031691908790600401615e4a565b60206040518083038186803b15801561269257600080fd5b505af41580156126a6573d6000803e3d6000fd5b505050506040513d601f19601f820116820180604052508101906126ca9190615954565b505050505b60405163af8b7c8160e01b815260009073__$c9b49513854812b7b6c4b448b2aa4684e3$__9063af8b7c819061270e906011908d908d90600401615ab3565b6101606040518083038186803b15801561272757600080fd5b505af415801561273b573d6000803e3d6000fd5b505050506040513d601f19601f8201168201806040525081019061275f9190615cd7565b604051631d865d9360e21b815290915060009073__$c9b49513854812b7b6c4b448b2aa4684e3$__90637619764c906127a1906011908e908e90600401615ab3565b60206040518083038186803b1580156127b957600080fd5b505af41580156127cd573d6000803e3d6000fd5b505050506040513d601f19601f820116820180604052508101906127f19190615954565b905060018115151415612897578161010001516001600160a01b0316826020015183600001516001600160a01b03167f1e47184299ef1ae0147489de864e2860294ab4125cb78ff3488bce09ea0192f68560400151866060015187608001518860a001518960c001518a60e001518b61012001518c610140015160405161287f989796959493929190615c72565b60405180910390a460019750505050505050506109dc565b60009750505050505050506109dc565b6010546060906000906001600160401b038111156128c7576128c76150d8565b60405190808252806020026020018201604052801561290057816020015b6128ed61505e565b8152602001906001900390816128e55790505b50905060005b601054811015610fc85760108054600f919083908110612928576129286157fd565b9060005260206000200160405161293f9190615848565b90815260408051918290036020908101832060c08401835260018101546001600160a01b0390811685526002820154928501929092526003810154928401929092526004820154166060830152600581015460808301526006015460a082015282518390839081106129b3576129b36157fd565b602002602001018190525080806129c990615912565b915050612906565b6129d9614b5e565b611c286000614de6565b60006129ed614b5e565b604051631f04869b60e31b815273__$4fab912f99daae96c763763589e4636ca5$__9063f82434d890612a2790600990869060040161592d565b60206040518083038186803b158015612a3f57600080fd5b505af4158015612a53573d6000803e3d6000fd5b505050506040513d601f19601f82011682018060405250810190612a779190615954565b1515600114612a985760405162461bcd60e51b81526004016108e090615d90565b604051630a93aab960e31b815260009073__$4fab912f99daae96c763763589e4636ca5$__9063549d55c890612ad590600990879060040161592d565b60006040518083038186803b158015612aed57600080fd5b505af4158015612b01573d6000803e3d6000fd5b505050506040513d6000823e601f3d908101601f19168201604052612b299190810190615a7f565b6040516359c0255d60e01b815290915060009073__$4fab912f99daae96c763763589e4636ca5$__906359c0255d90612b6990600990889060040161592d565b60206040518083038186803b158015612b8157600080fd5b505af4158015612b95573d6000803e3d6000fd5b505050506040513d601f19601f82011682018060405250810190612bb99190615954565b905060018115151415611efc5781600001516001600160a01b03167f037af5869c73bd98d861d265ed2fe7856d434102678eab240cfac53917ef4e838360200151604051611eea91906157ea565b60405163b52bf90f60e01b815260009073__$35fde6ac6f7fb08b81f20635e2dfbb2343$__9063b52bf90f90612c469060159033908790600401615cb8565b60206040518083038186803b158015612c5e57600080fd5b505af4158015612c72573d6000803e3d6000fd5b505050506040513d601f19601f820116820180604052508101906109dc9190615bf2565b6000612ca0614bbd565b612ca8615030565b6040516304ecf28360e41b815273__$aabfbf51bc7bf3b8af0580fb7224204a01$__90634ecf283090612ce490600f9089908990600401615ab3565b60206040518083038186803b158015612cfc57600080fd5b505af4158015612d10573d6000803e3d6000fd5b505050506040513d601f19601f82011682018060405250810190612d349190615954565b1515600114612d555760405162461bcd60e51b81526004016108e090615b10565b604051638c9a6cc360e01b815273__$a27ab5a2953dc10a9c552591268754b616$__90638c9a6cc390612d8f90600d90879060040161592d565b60206040518083038186803b158015612da757600080fd5b505af4158015612dbb573d6000803e3d6000fd5b505050506040513d601f19601f82011682018060405250810190612ddf9190615954565b1515600114612e005760405162461bcd60e51b81526004016108e090615b2d565b604051630163053760e51b8152349073__$aabfbf51bc7bf3b8af0580fb7224204a01$__90632c60a6e090612e3e90600f908a908a90600401615ab3565b60c06040518083038186803b158015612e5657600080fd5b505af4158015612e6a573d6000803e3d6000fd5b505050506040513d601f19601f82011682018060405250810190612e8e9190615b4a565b6040015114612ec55760405162461bcd60e51b81526020600482015260036024820152620a49a760eb1b60448201526064016108e0565b604051630163053760e51b815260009073__$aabfbf51bc7bf3b8af0580fb7224204a01$__90632c60a6e090612f0490600f908a908a90600401615ab3565b60c06040518083038186803b158015612f1c57600080fd5b505af4158015612f30573d6000803e3d6000fd5b505050506040513d601f19601f82011682018060405250810190612f549190615b4a565b6000835260405163e99a8e3960e01b815290915073__$c9b49513854812b7b6c4b448b2aa4684e3$__9063e99a8e3990612f97906011908a908a90600401615ab3565b60206040518083038186803b158015612faf57600080fd5b505af4158015612fc3573d6000803e3d6000fd5b505050506040513d601f19601f82011682018060405250810190612fe79190615954565b15156001141561311a5760405163af8b7c8160e01b815260009073__$c9b49513854812b7b6c4b448b2aa4684e3$__9063af8b7c8190613030906011908b908b90600401615ab3565b6101606040518083038186803b15801561304957600080fd5b505af415801561305d573d6000803e3d6000fd5b505050506040513d601f19601f820116820180604052508101906130819190615cd7565b60c08101518452604051631d865d9360e21b815290915073__$c9b49513854812b7b6c4b448b2aa4684e3$__90637619764c906130c7906011908b908b90600401615ab3565b60206040518083038186803b1580156130df57600080fd5b505af41580156130f3573d6000803e3d6000fd5b505050506040513d601f19601f820116820180604052508101906131179190615954565b50505b6131248686614cb8565b6001600160a01b0316606083015261313a614fd4565b6001600160a01b03808816825260208201879052604080840151908301526060808401519091169082015260808083015190820152600060a08083019190915283519083015161318a91906158fa565b60c082015260608301516001600160a01b0390811660e0830152336101008301528516610120820152426101408201526040516332ada61b60e01b815273__$c9b49513854812b7b6c4b448b2aa4684e3$__906332ada61b906131f4906011908590600401615c2f565b60206040518083038186803b15801561320c57600080fd5b505af4158015613220573d6000803e3d6000fd5b505050506040513d601f19601f820116820180604052508101906132449190615954565b151560808401819052600114156133585760608301516040516343d434b560e11b815273__$cd3810e67fa8b653e5355050e47a521f6f$__916387a8696a91613299916013918a906000903490600401615c44565b60206040518083038186803b1580156132b157600080fd5b505af41580156132c5573d6000803e3d6000fd5b505050506040513d601f19601f820116820180604052508101906132e99190615954565b50336001600160a01b031686886001600160a01b0316600080516020615ecb83398151915285604001518660600151876080015160008960a001518b606001518e8b6101400151604051613344989796959493929190615c72565b60405180910390a460019350505050611cbf565b5060009695505050505050565b61336d61505e565b604051630163053760e51b815273__$aabfbf51bc7bf3b8af0580fb7224204a01$__90632c60a6e0906133a990600f9087908790600401615ab3565b60c06040518083038186803b1580156133c157600080fd5b505af41580156133d5573d6000803e3d6000fd5b505050506040513d601f19601f82011682018060405250810190611cbf9190615b4a565b613401614b5e565b611c28614e36565b600a546060906000906001600160401b03811115613429576134296150d8565b60405190808252806020026020018201604052801561346f57816020015b6040805180820190915260008152606060208201528152602001906001900390816134475790505b50905060005b600a54811015610fc857600a80546009919083908110613497576134976157fd565b906000526020600020016040516134ae9190615848565b9081526040805191829003602090810183208383019092526001820180546001600160a01b0316845260029092018054918401916134eb90615813565b80601f016020809104026020016040519081016040528092919081815260200182805461351790615813565b80156135645780601f1061353957610100808354040283529160200191613564565b820191906000526020600020905b81548152906001019060200180831161354757829003601f168201915b50505050508152505082828151811061357f5761357f6157fd565b6020026020010181905250808061359590615912565b915050613475565b6014546060906000906001600160401b038111156135bd576135bd6150d8565b60405190808252806020026020018201604052801561360f57816020015b6040805160808101825260008082526020808301829052928201819052606082015282526000199092019101816135db5790505b50905060005b601454811015610fc857601480546013919083908110613637576136376157fd565b9060005260206000200160405161364e9190615848565b90815260408051918290036020908101832060808401835260018101546001600160a01b039081168552600282015481169285019290925260038101549091169183019190915260040154606082015282518390839081106136b2576136b26157fd565b602002602001018190525080806136c890615912565b915050613615565b6000546001600160a01b031690565b600e546060906000906001600160401b038111156136ff576136ff6150d8565b60405190808252806020026020018201604052801561373857816020015b613725614fbc565b81526020019060019003908161371d5790505b50905060005b600e54811015610fc857600e8054600d919083908110613760576137606157fd565b906000526020600020016040516137779190615848565b9081526040805191829003602090810183208383019092526001820180546001600160a01b0316845260029092018054918401916137b490615813565b80601f01602080910402602001604051908101604052809291908181526020018280546137e090615813565b801561382d5780601f106138025761010080835404028352916020019161382d565b820191906000526020600020905b81548152906001019060200180831161381057829003601f168201915b505050505081525050828281518110613848576138486157fd565b6020026020010181905250808061385e90615912565b91505061373e565b61386e614b5e565b600855565b600061387d614b5e565b6040516360f353e160e01b815273__$79a40a2052c9947e027843e42106f8b048$__906360f353e1906138b790600b90869060040161592d565b60206040518083038186803b1580156138cf57600080fd5b505af41580156138e3573d6000803e3d6000fd5b505050506040513d601f19601f820116820180604052508101906139079190615954565b15156001146139285760405162461bcd60e51b81526004016108e090615d90565b60405163044aed2360e01b815260009073__$79a40a2052c9947e027843e42106f8b048$__9063044aed239061396590600b90879060040161592d565b60006040518083038186803b15801561397d57600080fd5b505af4158015613991573d6000803e3d6000fd5b505050506040513d6000823e601f3d908101601f191682016040526139b99190810190615a7f565b60405163a3fb822560e01b815290915060009073__$79a40a2052c9947e027843e42106f8b048$__9063a3fb8225906139f990600b90889060040161592d565b60206040518083038186803b158015613a1157600080fd5b505af4158015613a25573d6000803e3d6000fd5b505050506040513d601f19601f82011682018060405250810190613a499190615954565b905060018115151415611efc5781600001516001600160a01b03167fe32dbca0dcbe2dc4205cd30b4b23a82cff3e9b7e12a5682683185c6f33c978be8360200151604051611eea91906157ea565b6000613aa1614b5e565b613aa9614bbd565b604051631f04869b60e31b815273__$4fab912f99daae96c763763589e4636ca5$__9063f82434d890613ae390600990879060040161592d565b60206040518083038186803b158015613afb57600080fd5b505af4158015613b0f573d6000803e3d6000fd5b505050506040513d601f19601f82011682018060405250810190613b339190615954565b15613b505760405162461bcd60e51b81526004016108e09061596f565b6040516331d0579b60e11b815260009073__$4fab912f99daae96c763763589e4636ca5$__906363a0af3690613b8f906009908890889060040161598c565b60206040518083038186803b158015613ba757600080fd5b505af4158015613bbb573d6000803e3d6000fd5b505050506040513d601f19601f82011682018060405250810190613bdf9190615954565b9050600181151514156109d057836001600160a01b03167ff76071867aae1eed00218b5aa8d4736b9b2161325ea3e48d283258a7e4ba75f5846040516109be91906157ea565b6016546060906000906001600160401b03811115613c4557613c456150d8565b604051908082528060200260200182016040528015613c7e57816020015b613c6b614f9c565b815260200190600190039081613c635790505b50905060005b601654811015610fc857601680546015919083908110613ca657613ca66157fd565b90600052602060002001604051613cbd9190615848565b90815260408051918290036020908101832060608401835260018101546001600160a01b0390811685526002820154169184019190915260030154908201528251839083908110613d1057613d106157fd565b60200260200101819052508080613d2690615912565b915050613c84565b613d36614fbc565b60405163044aed2360e01b815273__$79a40a2052c9947e027843e42106f8b048$__9063044aed2390610a2490600b90869060040161592d565b600080613d7d8433614c05565b90506000613d8b8585614cb8565b905060018215151480613da65750336001600160a01b038216145b80613dc95750613db46136d0565b6001600160a01b0316336001600160a01b0316145b613de55760405162461bcd60e51b81526004016108e090615dad565b6040516304ecf28360e41b815273__$aabfbf51bc7bf3b8af0580fb7224204a01$__90634ecf283090613e2190600f9089908990600401615ab3565b60206040518083038186803b158015613e3957600080fd5b505af4158015613e4d573d6000803e3d6000fd5b505050506040513d601f19601f82011682018060405250810190613e719190615954565b1515600114613e925760405162461bcd60e51b81526004016108e090615d90565b604051630163053760e51b815260009073__$aabfbf51bc7bf3b8af0580fb7224204a01$__90632c60a6e090613ed190600f908a908a90600401615ab3565b60c06040518083038186803b158015613ee957600080fd5b505af4158015613efd573d6000803e3d6000fd5b505050506040513d601f19601f82011682018060405250810190613f219190615b4a565b604051631f8195ef60e11b815290915060009073__$aabfbf51bc7bf3b8af0580fb7224204a01$__90633f032bde90613f6390600f908b908b90600401615ab3565b60206040518083038186803b158015613f7b57600080fd5b505af4158015613f8f573d6000803e3d6000fd5b505050506040513d601f19601f82011682018060405250810190613fb39190615954565b90506001811515141561403957336001600160a01b0316826020015183600001516001600160a01b03167f47ef5674b8623b6a0bece5fae33a1a29ad79a7846a5be46a0b2e256b94f9ee318560400151866060015187608001518860a001518a604051614024959493929190615dca565b60405180910390a460019450505050506109dc565b60009450505050506109dc565b600854614051575050565b604051636eb1769f60e11b81526001600160a01b0382811660048301523060248301526000919084169063dd62ed3e9060440160206040518083038186803b15801561409c57600080fd5b505afa1580156140b0573d6000803e3d6000fd5b505050506040513d601f19601f820116820180604052508101906140d49190615bf2565b9050806140e057505050565b60006140eb84610766565b905060006140f7614f9c565b60005b60165481101561425e5760085481106141125761425e565b60168054601591908390811061412a5761412a6157fd565b906000526020600020016040516141419190615848565b908152604080516020928190038301812060608201835260018101546001600160a01b039081168352600282015481169483018590526003909101549282019290925293508816141561424c5760006141a98360400151876141a39190615e2b565b86614dce565b90506141b581856158fa565b8351602085015160405163071cd41560e31b815292965073__$35fde6ac6f7fb08b81f20635e2dfbb2343$__926338e6a0a8926141f9926015928790600401615e4a565b60206040518083038186803b15801561421157600080fd5b505af4158015614225573d6000803e3d6000fd5b505050506040513d601f19601f820116820180604052508101906142499190615954565b50505b8061425681615912565b9150506140fa565b50600061426b8386615e14565b11156143185760025473__$35fde6ac6f7fb08b81f20635e2dfbb2343$__906338e6a0a8906015906001600160a01b0316896142a7878a615e14565b6040518563ffffffff1660e01b81526004016142c69493929190615e4a565b60206040518083038186803b1580156142de57600080fd5b505af41580156142f2573d6000803e3d6000fd5b505050506040513d601f19601f820116820180604052508101906143169190615954565b505b505050505050565b60405163e99a8e3960e01b815260009073__$c9b49513854812b7b6c4b448b2aa4684e3$__9063e99a8e399061435f9060119087908790600401615ab3565b60206040518083038186803b15801561437757600080fd5b505af415801561438b573d6000803e3d6000fd5b505050506040513d601f19601f820116820180604052508101906143af9190615954565b15156001146143d05760405162461bcd60e51b81526004016108e090615df6565b60405163af8b7c8160e01b815260009073__$c9b49513854812b7b6c4b448b2aa4684e3$__9063af8b7c819061440f9060119088908890600401615ab3565b6101606040518083038186803b15801561442857600080fd5b505af415801561443c573d6000803e3d6000fd5b505050506040513d601f19601f820116820180604052508101906144609190615cd7565b90508060c0015181610140015161447791906158fa565b42116144ae5760405162461bcd60e51b81526004016108e090602080825260049082015263524d313760e01b604082015260600190565b60008160a0015115156001151514156144cc575060808101516144d3565b5060408101515b60006144e6600554836124c89190615e2b565b905060006144fb600654846124c89190615e2b565b905060008161450a8486615e14565b6145149190615e14565b60e0860151606087015160405163071cd41560e31b815292935073__$35fde6ac6f7fb08b81f20635e2dfbb2343$__926338e6a0a89261455b926015928990600401615e4a565b60206040518083038186803b15801561457357600080fd5b505af4158015614587573d6000803e3d6000fd5b505050506040513d601f19601f820116820180604052508101906145ab9190615954565b50610120850151606086015160405163071cd41560e31b815273__$35fde6ac6f7fb08b81f20635e2dfbb2343$__926338e6a0a8926145f39260159291908890600401615e4a565b60206040518083038186803b15801561460b57600080fd5b505af415801561461f573d6000803e3d6000fd5b505050506040513d601f19601f820116820180604052508101906146439190615954565b50600254606086015160405163071cd41560e31b815273__$35fde6ac6f7fb08b81f20635e2dfbb2343$__926338e6a0a892614691926015926001600160a01b031691908790600401615e4a565b60206040518083038186803b1580156146a957600080fd5b505af41580156146bd573d6000803e3d6000fd5b505050506040513d601f19601f820116820180604052508101906146e19190615954565b5060e08501516101208601516060870151604051631a9a5d7160e21b815273__$cd3810e67fa8b653e5355050e47a521f6f$__93636a6975c49361472c936013938b90600401615c44565b60206040518083038186803b15801561474457600080fd5b505af4158015614758573d6000803e3d6000fd5b505050506040513d601f19601f8201168201806040525081019061477c9190615954565b5084516020860151604051631d865d9360e21b815273__$c9b49513854812b7b6c4b448b2aa4684e3$__92637619764c926147be926011929190600401615ab3565b60206040518083038186803b1580156147d657600080fd5b505af41580156147ea573d6000803e3d6000fd5b505050506040513d601f19601f8201168201806040525081019061480e9190615954565b508461010001516001600160a01b0316856020015186600001516001600160a01b03167f2941e86df5e844db000359f0e9abe470952bac636d89a010e9d5d513aad469fa886040015189606001518a608001518b60a001518c60c001518d60e001518e61012001518f6101400151604051614890989796959493929190615c72565b60405180910390a4506001979650505050505050565b6148ae614b5e565b600280546001600160a01b0319166001600160a01b0392909216919091179055565b600c546060906000906001600160401b038111156148f0576148f06150d8565b60405190808252806020026020018201604052801561492957816020015b614916614fbc565b81526020019060019003908161490e5790505b50905060005b600c54811015610fc857600c8054600b919083908110614951576149516157fd565b906000526020600020016040516149689190615848565b9081526040805191829003602090810183208383019092526001820180546001600160a01b0316845260029092018054918401916149a590615813565b80601f01602080910402602001604051908101604052809291908181526020018280546149d190615813565b8015614a1e5780601f106149f357610100808354040283529160200191614a1e565b820191906000526020600020905b815481529060010190602001808311614a0157829003601f168201915b505050505081525050828281518110614a3957614a396157fd565b60200260200101819052508080614a4f90615912565b91505061492f565b614a5f614b5e565b6001600160a01b038116614ac45760405162461bcd60e51b815260206004820152602660248201527f4f776e61626c653a206e6577206f776e657220697320746865207a65726f206160448201526564647265737360d01b60648201526084016108e0565b614acd81614de6565b50565b60018054614add90615813565b80601f0160208091040260200160405190810160405280929190818152602001828054614b0990615813565b8015614b565780601f10614b2b57610100808354040283529160200191614b56565b820191906000526020600020905b815481529060010190602001808311614b3957829003601f168201915b505050505081565b33614b676136d0565b6001600160a01b031614611c285760405162461bcd60e51b815260206004820181905260248201527f4f776e61626c653a2063616c6c6572206973206e6f7420746865206f776e657260448201526064016108e0565b614bc5611f0b565b15611c285760405162461bcd60e51b815260206004820152601060248201526f14185d5cd8589b194e881c185d5cd95960821b60448201526064016108e0565b600080614c226001600160a01b038516632c63230160e11b614e79565b9050600181151514156109d057604051632c63230160e11b81526000906001600160a01b038616906358c6460290614c5e9087906004016154b4565b60206040518083038186803b158015614c7657600080fd5b505afa158015614c8a573d6000803e3d6000fd5b505050506040513d601f19601f82011682018060405250810190614cae9190615954565b92506109dc915050565b6000806060846001600160a01b031684604051602401614cda91815260200190565b60408051601f198184030181529181526020820180516001600160e01b03166331a9108f60e11b17905251614d0f9190615e6f565b6000604051808303816000865af19150503d8060008114614d4c576040519150601f19603f3d011682016040523d82523d6000602084013e614d51565b606091505b50909250905060018215151415611c0d5780806020019051810190614d769190615e8b565b925050506109dc565b614d87614e95565b6000805460ff60a01b191690557f5db9ee0a495bf2e6ff9c91a7834c1ba4fdd244a5e8aa4e537bd38aeae4b073aa335b604051614dc491906154b4565b60405180910390a1565b6000611cbf8284615ea8565b6000611cbf8284615e14565b600080546001600160a01b038381166001600160a01b0319831681178455604051919092169283917f8be0079c531659141344cd1fd0a4f28419497f9722a3daafe3b4186f6b6457e09190a35050565b614e3e614bbd565b6000805460ff60a01b1916600160a01b1790557f62e78cea01bee320cd4e420270b5ea74000d11b0c9f74754ebdbfc544b05a258614db73390565b6000614e8483614ee0565b8015611cbf5750611cbf8383614f13565b614e9d611f0b565b611c285760405162461bcd60e51b815260206004820152601460248201527314185d5cd8589b194e881b9bdd081c185d5cd95960621b60448201526064016108e0565b6000614ef3826301ffc9a760e01b614f13565b80156109dc5750614f0c826001600160e01b0319614f13565b1592915050565b604080516001600160e01b03198316602480830191909152825180830390910181526044909101909152602080820180516001600160e01b03166301ffc9a760e01b178152825160009392849283928392918391908a617530fa92503d91506000519050828015614f85575060208210155b8015614f915750600081115b979650505050505050565b604080516060810182526000808252602082018190529181019190915290565b60408051808201909152600081526060602082015290565b6040805161016081018252600080825260208201819052918101829052606081018290526080810182905260a0810182905260c0810182905260e081018290526101008101829052610120810182905261014081019190915290565b6040805160a08101825260008082526020820181905291810182905260608101829052608081019190915290565b6040518060c0016040528060006001600160a01b03168152602001600081526020016000815260200160006001600160a01b0316815260200160008152602001600081525090565b6001600160a01b0381168114614acd57600080fd5b6000602082840312156150cd57600080fd5b8135611cbf816150a6565b634e487b7160e01b600052604160045260246000fd5b60405161016081016001600160401b0381118282101715615111576151116150d8565b60405290565b604051601f8201601f191681016001600160401b038111828210171561513f5761513f6150d8565b604052919050565b60006001600160401b03821115615160576151606150d8565b50601f01601f191660200190565b6000806040838503121561518157600080fd5b823561518c816150a6565b915060208301356001600160401b038111156151a757600080fd5b8301601f810185136151b857600080fd5b80356151cb6151c682615147565b615117565b8181528660208385010111156151e057600080fd5b816020840160208301376000602083830101528093505050509250929050565b6001600160a01b03169052565b60005b83811015615228578181015183820152602001615210565b83811115615237576000848401525b50505050565b6000815180845261525581602086016020860161520d565b601f01601f19169290920160200192915050565b60018060a01b0381511682526000602082015160406020850152615290604085018261523d565b949350505050565b602081526000611cbf6020830184615269565b600080604083850312156152be57600080fd5b82356152c9816150a6565b946020939093013593505050565b6152e2828251615200565b602081015160208301526040810151604083015260608101516153086060840182615200565b506080810151608083015260a081015161532660a084018215159052565b5060c081015160c083015260e081015161534360e0840182615200565b506101008082015161535782850182615200565b50506101208082015161536c82850182615200565b505061014090810151910152565b6020808252825182820181905260009190848201906040850190845b818110156153bd576153a98385516152d7565b928401926101609290920191600101615396565b50909695505050505050565b6000806000606084860312156153de57600080fd5b505081359360208301359350604090920135919050565b600080600080600080600060e0888a03121561541057600080fd5b873561541b816150a6565b9650602088013595506040880135615432816150a6565b945060608801359350608088013560ff8116811461544f57600080fd5b9699959850939692959460a0840135945060c09093013592915050565b6000806040838503121561547f57600080fd5b823561548a816150a6565b9150602083013561549a816150a6565b809150509250929050565b61016081016109dc82846152d7565b6001600160a01b0391909116815260200190565b60008060008060008060c087890312156154e157600080fd5b86356154ec816150a6565b95506020870135945060408701359350606087013561550a816150a6565b9598949750929560808101359460a0909101359350915050565b80516001600160a01b0390811683526020808301519084015260408083015190840152606080830151909116908301526080808201519083015260a090810151910152565b6020808252825182820181905260009190848201906040850190845b818110156153bd57615598838551615524565b9284019260c09290920191600101615585565b6000806000606084860312156155c057600080fd5b83356155cb816150a6565b92506020840135915060408401356155e2816150a6565b809150509250925092565b60c081016109dc8284615524565b6000602080830181845280855180835260408601915060408160051b870101925083870160005b8281101561565057603f1988860301845261563e858351615269565b94509285019290850190600101615622565b5092979650505050505050565b602080825282518282018190526000919060409081850190868401855b828110156156c257815180516001600160a01b03908116865287820151811688870152868201511686860152606090810151908501526080909301929085019060010161567a565b5091979650505050505050565b6000602080830181845280855180835260408601915060408160051b870101925083870160005b8281101561565057603f19888603018452615712858351615269565b945092850192908501906001016156f6565b60006020828403121561573657600080fd5b5035919050565b602080825282518282018190526000919060409081850190868401855b828110156156c257815180516001600160a01b039081168652878201511687860152850151858501526060909301929085019060010161575a565b6000602080830181845280855180835260408601915060408160051b870101925083870160005b8281101561565057603f198886030184526157d8858351615269565b945092850192908501906001016157bc565b602081526000611cbf602083018461523d565b634e487b7160e01b600052603260045260246000fd5b600181811c9082168061582757607f821691505b60208210811415610fc857634e487b7160e01b600052602260045260246000fd5b600080835481600182811c91508083168061586457607f831692505b602080841082141561588457634e487b7160e01b86526022600452602486fd5b81801561589857600181146158a9576158d6565b60ff198616895284890196506158d6565b60008a81526020902060005b868110156158ce5781548b8201529085019083016158b5565b505084890196505b509498975050505050505050565b634e487b7160e01b600052601160045260246000fd5b6000821982111561590d5761590d6158e4565b500190565b6000600019821415615926576159266158e4565b5060010190565b9182526001600160a01b0316602082015260400190565b80518015158114611f0657600080fd5b60006020828403121561596657600080fd5b611cbf82615944565b602080825260039082015262524d3160e81b604082015260600190565b8381526001600160a01b03831660208201526060604082018190526000906159b69083018461523d565b95945050505050565b8051611f06816150a6565b6000604082840312156159dc57600080fd5b604080519081016001600160401b0380821183831017156159ff576159ff6150d8565b8160405282935084519150615a13826150a6565b90825260208401519080821115615a2957600080fd5b508301601f81018513615a3b57600080fd5b8051615a496151c682615147565b818152866020838501011115615a5e57600080fd5b615a6f82602083016020860161520d565b8060208501525050505092915050565b600060208284031215615a9157600080fd5b81516001600160401b03811115615aa757600080fd5b615290848285016159ca565b9283526001600160a01b03919091166020830152604082015260600190565b9687526001600160a01b03958616602088015260408701949094526060860192909252909216608084015260a083019190915260c082015260e00190565b602080825260039082015262524d3760e81b604082015260600190565b60208082526003908201526229269b60e91b604082015260600190565b600060c08284031215615b5c57600080fd5b60405160c081016001600160401b0381118282101715615b7e57615b7e6150d8565b6040528251615b8c816150a6565b8082525060208301516020820152604083015160408201526060830151615bb2816150a6565b60608201526080838101519082015260a0928301519281019290925250919050565b6020808252600490820152630524d32360e41b604082015260600190565b600060208284031215615c0457600080fd5b5051919050565b6001600160a01b039384168152919092166020820152604081019190915260600190565b8281526101808101611cbf60208301846152d7565b9485526001600160a01b03938416602086015291831660408501529091166060830152608082015260a00190565b9788526001600160a01b039687166020890152604088019590955292151560608701526080860191909152831660a085015290911660c083015260e08201526101000190565b9283526001600160a01b03918216602084015216604082015260600190565b60006101608284031215615cea57600080fd5b615cf26150ee565b615cfb836159bf565b81526020830151602082015260408301516040820152615d1d606084016159bf565b606082015260808301516080820152615d3860a08401615944565b60a082015260c083015160c0820152615d5360e084016159bf565b60e0820152610100615d668185016159bf565b90820152610120615d788482016159bf565b90820152610140928301519281019290925250919050565b602080825260039082015262524d3360e81b604082015260600190565b602080825260039082015262524d3560e81b604082015260600190565b9485526001600160a01b0393841660208601526040850192909252606084015216608082015260a00190565b6020808252600490820152630524d31360e41b604082015260600190565b600082821015615e2657615e266158e4565b500390565b6000816000190483118215151615615e4557615e456158e4565b500290565b9384526001600160a01b03928316602085015291166040830152606082015260800190565b60008251615e8181846020870161520d565b9190910192915050565b600060208284031215615e9d57600080fd5b8151611cbf816150a6565b600082615ec557634e487b7160e01b600052601260045260246000fd5b50049056fefe632cd15df82b5e105c28c0d0da9eb0228667912a4b1e430151d7c0d9227759a2646970667358221220493576e15bbe07016a62f150c22a42405f9b53efd1cb68c6a9bcf12b58ef99e764736f6c63430008090033",
  "linkReferences": {
    "contracts/iterableMapLib.sol": {
      "accountBalanceIterableMap": [
        {
          "length": 20,
          "start": 6767
        },
        {
          "length": 20,
          "start": 7432
        },
        {
          "length": 20,
          "start": 9730
        },
        {
          "length": 20,
          "start": 9962
        },
        {
          "length": 20,
          "start": 10112
        },
        {
          "length": 20,
          "start": 10261
        },
        {
          "length": 20,
          "start": 11754
        },
        {
          "length": 20,
          "start": 17311
        },
        {
          "length": 20,
          "start": 17479
        },
        {
          "length": 20,
          "start": 18177
        },
        {
          "length": 20,
          "start": 18327
        },
        {
          "length": 20,
          "start": 18476
        }
      ],
      "collectionDataIterableMap": [
        {
          "length": 20,
          "start": 2585
        },
        {
          "length": 20,
          "start": 2764
        },
        {
          "length": 20,
          "start": 3483
        },
        {
          "length": 20,
          "start": 3677
        },
        {
          "length": 20,
          "start": 14941
        },
        {
          "length": 20,
          "start": 15115
        },
        {
          "length": 20,
          "start": 15263
        },
        {
          "length": 20,
          "start": 16150
        }
      ],
      "pendingRentFeeIterableMap": [
        {
          "length": 20,
          "start": 6009
        },
        {
          "length": 20,
          "start": 13370
        },
        {
          "length": 20,
          "start": 18642
        }
      ],
      "registerDataIterableMap": [
        {
          "length": 20,
          "start": 3170
        },
        {
          "length": 20,
          "start": 3883
        },
        {
          "length": 20,
          "start": 4633
        },
        {
          "length": 20,
          "start": 5082
        },
        {
          "length": 20,
          "start": 8542
        },
        {
          "length": 20,
          "start": 8904
        },
        {
          "length": 20,
          "start": 11912
        },
        {
          "length": 20,
          "start": 12258
        },
        {
          "length": 20,
          "start": 12456
        },
        {
          "length": 20,
          "start": 13645
        },
        {
          "length": 20,
          "start": 16325
        },
        {
          "length": 20,
          "start": 16501
        },
        {
          "length": 20,
          "start": 16647
        }
      ],
      "rentDataIterableMap": [
        {
          "length": 20,
          "start": 5855
        },
        {
          "length": 20,
          "start": 7698
        },
        {
          "length": 20,
          "start": 9186
        },
        {
          "length": 20,
          "start": 9434
        },
        {
          "length": 20,
          "start": 10418
        },
        {
          "length": 20,
          "start": 10565
        },
        {
          "length": 20,
          "start": 12603
        },
        {
          "length": 20,
          "start": 12756
        },
        {
          "length": 20,
          "start": 12907
        },
        {
          "length": 20,
          "start": 13210
        },
        {
          "length": 20,
          "start": 17667
        },
        {
          "length": 20,
          "start": 17843
        },
        {
          "length": 20,
          "start": 18788
        }
      ],
      "serviceDataIterableMap": [
        {
          "length": 20,
          "start": 3018
        },
        {
          "length": 20,
          "start": 4806
        },
        {
          "length": 20,
          "start": 6282
        },
        {
          "length": 20,
          "start": 6452
        },
        {
          "length": 20,
          "start": 7856
        },
        {
          "length": 20,
          "start": 8030
        },
        {
          "length": 20,
          "start": 8178
        },
        {
          "length": 20,
          "start": 12085
        }
      ],
      "tokenDataIterableMap": [
        {
          "length": 20,
          "start": 8730
        },
        {
          "length": 20,
          "start": 11213
        },
        {
          "length": 20,
          "start": 11387
        },
        {
          "length": 20,
          "start": 11535
        },
        {
          "length": 20,
          "start": 15497
        },
        {
          "length": 20,
          "start": 15667
        }
      ]
    }
  },
  "deployedLinkReferences": {
    "contracts/iterableMapLib.sol": {
      "accountBalanceIterableMap": [
        {
          "length": 20,
          "start": 6302
        },
        {
          "length": 20,
          "start": 6967
        },
        {
          "length": 20,
          "start": 9265
        },
        {
          "length": 20,
          "start": 9497
        },
        {
          "length": 20,
          "start": 9647
        },
        {
          "length": 20,
          "start": 9796
        },
        {
          "length": 20,
          "start": 11289
        },
        {
          "length": 20,
          "start": 16846
        },
        {
          "length": 20,
          "start": 17014
        },
        {
          "length": 20,
          "start": 17712
        },
        {
          "length": 20,
          "start": 17862
        },
        {
          "length": 20,
          "start": 18011
        }
      ],
      "collectionDataIterableMap": [
        {
          "length": 20,
          "start": 2120
        },
        {
          "length": 20,
          "start": 2299
        },
        {
          "length": 20,
          "start": 3018
        },
        {
          "length": 20,
          "start": 3212
        },
        {
          "length": 20,
          "start": 14476
        },
        {
          "length": 20,
          "start": 14650
        },
        {
          "length": 20,
          "start": 14798
        },
        {
          "length": 20,
          "start": 15685
        }
      ],
      "pendingRentFeeIterableMap": [
        {
          "length": 20,
          "start": 5544
        },
        {
          "length": 20,
          "start": 12905
        },
        {
          "length": 20,
          "start": 18177
        }
      ],
      "registerDataIterableMap": [
        {
          "length": 20,
          "start": 2705
        },
        {
          "length": 20,
          "start": 3418
        },
        {
          "length": 20,
          "start": 4168
        },
        {
          "length": 20,
          "start": 4617
        },
        {
          "length": 20,
          "start": 8077
        },
        {
          "length": 20,
          "start": 8439
        },
        {
          "length": 20,
          "start": 11447
        },
        {
          "length": 20,
          "start": 11793
        },
        {
          "length": 20,
          "start": 11991
        },
        {
          "length": 20,
          "start": 13180
        },
        {
          "length": 20,
          "start": 15860
        },
        {
          "length": 20,
          "start": 16036
        },
        {
          "length": 20,
          "start": 16182
        }
      ],
      "rentDataIterableMap": [
        {
          "length": 20,
          "start": 5390
        },
        {
          "length": 20,
          "start": 7233
        },
        {
          "length": 20,
          "start": 8721
        },
        {
          "length": 20,
          "start": 8969
        },
        {
          "length": 20,
          "start": 9953
        },
        {
          "length": 20,
          "start": 10100
        },
        {
          "length": 20,
          "start": 12138
        },
        {
          "length": 20,
          "start": 12291
        },
        {
          "length": 20,
          "start": 12442
        },
        {
          "length": 20,
          "start": 12745
        },
        {
          "length": 20,
          "start": 17202
        },
        {
          "length": 20,
          "start": 17378
        },
        {
          "length": 20,
          "start": 18323
        }
      ],
      "serviceDataIterableMap": [
        {
          "length": 20,
          "start": 2553
        },
        {
          "length": 20,
          "start": 4341
        },
        {
          "length": 20,
          "start": 5817
        },
        {
          "length": 20,
          "start": 5987
        },
        {
          "length": 20,
          "start": 7391
        },
        {
          "length": 20,
          "start": 7565
        },
        {
          "length": 20,
          "start": 7713
        },
        {
          "length": 20,
          "start": 11620
        }
      ],
      "tokenDataIterableMap": [
        {
          "length": 20,
          "start": 8265
        },
        {
          "length": 20,
          "start": 10748
        },
        {
          "length": 20,
          "start": 10922
        },
        {
          "length": 20,
          "start": 11070
        },
        {
          "length": 20,
          "start": 15032
        },
        {
          "length": 20,
          "start": 15202
        }
      ]
    }
  }
}