{
  "_format": "hh-sol-artifact-1",
  "contractName": "rentMarket",
  "sourceName": "contracts/rentMarket.sol",
  "abi": [
    {
      "inputs": [],
      "stateMutability": "nonpayable",
      "type": "constructor"
    },
    {
      "anonymous": false,
      "inputs": [
        {
          "indexed": true,
          "internalType": "address",
          "name": "nftAddress",
          "type": "address"
        },
        {
          "indexed": true,
          "internalType": "uint256",
          "name": "tokenId",
          "type": "uint256"
        },
        {
          "indexed": false,
          "internalType": "uint256",
          "name": "rentFee",
          "type": "uint256"
        },
        {
          "indexed": false,
          "internalType": "address",
          "name": "feeTokenAddress",
          "type": "address"
        },
        {
          "indexed": false,
          "internalType": "uint256",
          "name": "rentFeeByToken",
          "type": "uint256"
        },
        {
          "indexed": false,
          "internalType": "uint256",
          "name": "rentDuration",
          "type": "uint256"
        },
        {
          "indexed": false,
          "internalType": "address",
          "name": "NFTOwnerAddress",
          "type": "address"
        },
        {
          "indexed": true,
          "internalType": "address",
          "name": "changerAddress",
          "type": "address"
        }
      ],
      "name": "ChangeNFT",
      "type": "event"
    },
    {
      "anonymous": false,
      "inputs": [
        {
          "indexed": true,
          "internalType": "address",
          "name": "sender",
          "type": "address"
        }
      ],
      "name": "Fallback",
      "type": "event"
    },
    {
      "anonymous": false,
      "inputs": [
        {
          "indexed": true,
          "internalType": "address",
          "name": "previousOwner",
          "type": "address"
        },
        {
          "indexed": true,
          "internalType": "address",
          "name": "newOwner",
          "type": "address"
        }
      ],
      "name": "OwnershipTransferred",
      "type": "event"
    },
    {
      "anonymous": false,
      "inputs": [
        {
          "indexed": false,
          "internalType": "address",
          "name": "account",
          "type": "address"
        }
      ],
      "name": "Paused",
      "type": "event"
    },
    {
      "anonymous": false,
      "inputs": [
        {
          "indexed": true,
          "internalType": "address",
          "name": "sender",
          "type": "address"
        },
        {
          "indexed": true,
          "internalType": "uint256",
          "name": "value",
          "type": "uint256"
        }
      ],
      "name": "Receive",
      "type": "event"
    },
    {
      "anonymous": false,
      "inputs": [
        {
          "indexed": true,
          "internalType": "address",
          "name": "collectionAddress",
          "type": "address"
        },
        {
          "indexed": false,
          "internalType": "string",
          "name": "uri",
          "type": "string"
        }
      ],
      "name": "RegisterCollection",
      "type": "event"
    },
    {
      "anonymous": false,
      "inputs": [
        {
          "indexed": true,
          "internalType": "address",
          "name": "nftAddress",
          "type": "address"
        },
        {
          "indexed": true,
          "internalType": "uint256",
          "name": "tokenId",
          "type": "uint256"
        },
        {
          "indexed": false,
          "internalType": "uint256",
          "name": "rentFee",
          "type": "uint256"
        },
        {
          "indexed": false,
          "internalType": "uint256",
          "name": "rentDuration",
          "type": "uint256"
        },
        {
          "indexed": true,
          "internalType": "address",
          "name": "NFTOwnerAddress",
          "type": "address"
        }
      ],
      "name": "RegisterNFT",
      "type": "event"
    },
    {
      "anonymous": false,
      "inputs": [
        {
          "indexed": true,
          "internalType": "address",
          "name": "serviceAddress",
          "type": "address"
        },
        {
          "indexed": false,
          "internalType": "string",
          "name": "uri",
          "type": "string"
        }
      ],
      "name": "RegisterService",
      "type": "event"
    },
    {
      "anonymous": false,
      "inputs": [
        {
          "indexed": true,
          "internalType": "address",
          "name": "tokenAddress",
          "type": "address"
        },
        {
          "indexed": false,
          "internalType": "string",
          "name": "name",
          "type": "string"
        }
      ],
      "name": "RegisterToken",
      "type": "event"
    },
    {
      "anonymous": false,
      "inputs": [
        {
          "indexed": true,
          "internalType": "address",
          "name": "nftAddress",
          "type": "address"
        },
        {
          "indexed": true,
          "internalType": "uint256",
          "name": "tokenId",
          "type": "uint256"
        },
        {
          "indexed": false,
          "internalType": "uint256",
          "name": "rentFee",
          "type": "uint256"
        },
        {
          "indexed": false,
          "internalType": "address",
          "name": "feeTokenAddress",
          "type": "address"
        },
        {
          "indexed": false,
          "internalType": "uint256",
          "name": "rentFeeByToken",
          "type": "uint256"
        },
        {
          "indexed": false,
          "internalType": "bool",
          "name": "isRentByToken",
          "type": "bool"
        },
        {
          "indexed": false,
          "internalType": "uint256",
          "name": "rentDuration",
          "type": "uint256"
        },
        {
          "indexed": false,
          "internalType": "address",
          "name": "renterAddress",
          "type": "address"
        },
        {
          "indexed": true,
          "internalType": "address",
          "name": "renteeAddress",
          "type": "address"
        },
        {
          "indexed": false,
          "internalType": "address",
          "name": "serviceAddress",
          "type": "address"
        },
        {
          "indexed": false,
          "internalType": "uint256",
          "name": "rentStartTimestamp",
          "type": "uint256"
        }
      ],
      "name": "RentNFT",
      "type": "event"
    },
    {
      "anonymous": false,
      "inputs": [
        {
          "indexed": true,
          "internalType": "address",
          "name": "nftAddress",
          "type": "address"
        },
        {
          "indexed": true,
          "internalType": "uint256",
          "name": "tokenId",
          "type": "uint256"
        },
        {
          "indexed": false,
          "internalType": "uint256",
          "name": "rentFee",
          "type": "uint256"
        },
        {
          "indexed": false,
          "internalType": "address",
          "name": "feeTokenAddress",
          "type": "address"
        },
        {
          "indexed": false,
          "internalType": "uint256",
          "name": "rentFeeByToken",
          "type": "uint256"
        },
        {
          "indexed": false,
          "internalType": "bool",
          "name": "isRentByToken",
          "type": "bool"
        },
        {
          "indexed": false,
          "internalType": "uint256",
          "name": "rentDuration",
          "type": "uint256"
        },
        {
          "indexed": false,
          "internalType": "address",
          "name": "renterAddress",
          "type": "address"
        },
        {
          "indexed": true,
          "internalType": "address",
          "name": "renteeAddress",
          "type": "address"
        },
        {
          "indexed": false,
          "internalType": "address",
          "name": "serviceAddress",
          "type": "address"
        },
        {
          "indexed": false,
          "internalType": "uint256",
          "name": "rentStartTimestamp",
          "type": "uint256"
        }
      ],
      "name": "SettleRentData",
      "type": "event"
    },
    {
      "anonymous": false,
      "inputs": [
        {
          "indexed": false,
          "internalType": "address",
          "name": "account",
          "type": "address"
        }
      ],
      "name": "Unpaused",
      "type": "event"
    },
    {
      "anonymous": false,
      "inputs": [
        {
          "indexed": true,
          "internalType": "address",
          "name": "collectionAddress",
          "type": "address"
        },
        {
          "indexed": false,
          "internalType": "string",
          "name": "uri",
          "type": "string"
        }
      ],
      "name": "UnregisterCollection",
      "type": "event"
    },
    {
      "anonymous": false,
      "inputs": [
        {
          "indexed": true,
          "internalType": "address",
          "name": "nftAddress",
          "type": "address"
        },
        {
          "indexed": true,
          "internalType": "uint256",
          "name": "tokenId",
          "type": "uint256"
        },
        {
          "indexed": false,
          "internalType": "uint256",
          "name": "rentFee",
          "type": "uint256"
        },
        {
          "indexed": false,
          "internalType": "address",
          "name": "feeTokenAddress",
          "type": "address"
        },
        {
          "indexed": false,
          "internalType": "uint256",
          "name": "rentFeeByToken",
          "type": "uint256"
        },
        {
          "indexed": false,
          "internalType": "uint256",
          "name": "rentDuration",
          "type": "uint256"
        },
        {
          "indexed": false,
          "internalType": "address",
          "name": "NFTOwnerAddress",
          "type": "address"
        },
        {
          "indexed": true,
          "internalType": "address",
          "name": "UnregisterAddress",
          "type": "address"
        }
      ],
      "name": "UnregisterNFT",
      "type": "event"
    },
    {
      "anonymous": false,
      "inputs": [
        {
          "indexed": true,
          "internalType": "address",
          "name": "serviceAddress",
          "type": "address"
        },
        {
          "indexed": false,
          "internalType": "string",
          "name": "uri",
          "type": "string"
        }
      ],
      "name": "UnregisterService",
      "type": "event"
    },
    {
      "anonymous": false,
      "inputs": [
        {
          "indexed": true,
          "internalType": "address",
          "name": "tokenAddress",
          "type": "address"
        },
        {
          "indexed": false,
          "internalType": "string",
          "name": "name",
          "type": "string"
        }
      ],
      "name": "UnregisterToken",
      "type": "event"
    },
    {
      "anonymous": false,
      "inputs": [
        {
          "indexed": true,
          "internalType": "address",
          "name": "nftAddress",
          "type": "address"
        },
        {
          "indexed": true,
          "internalType": "uint256",
          "name": "tokenId",
          "type": "uint256"
        },
        {
          "indexed": false,
          "internalType": "uint256",
          "name": "rentFee",
          "type": "uint256"
        },
        {
          "indexed": false,
          "internalType": "address",
          "name": "feeTokenAddress",
          "type": "address"
        },
        {
          "indexed": false,
          "internalType": "uint256",
          "name": "rentFeeByToken",
          "type": "uint256"
        },
        {
          "indexed": false,
          "internalType": "bool",
          "name": "isRentByToken",
          "type": "bool"
        },
        {
          "indexed": false,
          "internalType": "uint256",
          "name": "rentDuration",
          "type": "uint256"
        },
        {
          "indexed": false,
          "internalType": "address",
          "name": "renterAddress",
          "type": "address"
        },
        {
          "indexed": true,
          "internalType": "address",
          "name": "renteeAddress",
          "type": "address"
        },
        {
          "indexed": false,
          "internalType": "address",
          "name": "serviceAddress",
          "type": "address"
        },
        {
          "indexed": false,
          "internalType": "uint256",
          "name": "rentStartTimestamp",
          "type": "uint256"
        }
      ],
      "name": "UnrentNFT",
      "type": "event"
    },
    {
      "anonymous": false,
      "inputs": [
        {
          "indexed": true,
          "internalType": "address",
          "name": "recipient",
          "type": "address"
        },
        {
          "indexed": true,
          "internalType": "address",
          "name": "tokenAddress",
          "type": "address"
        },
        {
          "indexed": true,
          "internalType": "uint256",
          "name": "amount",
          "type": "uint256"
        }
      ],
      "name": "WithdrawMyBalance",
      "type": "event"
    },
    {
      "stateMutability": "payable",
      "type": "fallback"
    },
    {
      "inputs": [],
      "name": "VERSION",
      "outputs": [
        {
          "internalType": "string",
          "name": "",
          "type": "string"
        }
      ],
      "stateMutability": "view",
      "type": "function"
    },
    {
      "inputs": [
        {
          "internalType": "address",
          "name": "nftAddress",
          "type": "address"
        },
        {
          "internalType": "uint256",
          "name": "tokenId",
          "type": "uint256"
        },
        {
          "internalType": "uint256",
          "name": "rentFee",
          "type": "uint256"
        },
        {
          "internalType": "address",
          "name": "feeTokenAddress",
          "type": "address"
        },
        {
          "internalType": "uint256",
          "name": "rentFeeByToken",
          "type": "uint256"
        },
        {
          "internalType": "uint256",
          "name": "rentDuration",
          "type": "uint256"
        }
      ],
      "name": "changeNFT",
      "outputs": [
        {
          "internalType": "bool",
          "name": "success",
          "type": "bool"
        }
      ],
      "stateMutability": "nonpayable",
      "type": "function"
    },
    {
      "inputs": [
        {
          "internalType": "address",
          "name": "tokenAddress_",
          "type": "address"
        },
        {
          "internalType": "address",
          "name": "rewardTokenShareContractAddress_",
          "type": "address"
        }
      ],
      "name": "distributeVestingToken",
      "outputs": [],
      "stateMutability": "nonpayable",
      "type": "function"
    },
    {
      "inputs": [],
      "name": "getAllAccountBalance",
      "outputs": [
        {
          "components": [
            {
              "internalType": "address",
              "name": "accountAddress",
              "type": "address"
            },
            {
              "internalType": "address",
              "name": "tokenAddress",
              "type": "address"
            },
            {
              "internalType": "uint256",
              "name": "amount",
              "type": "uint256"
            }
          ],
          "internalType": "struct accountBalanceIterableMap.accountBalance[]",
          "name": "",
          "type": "tuple[]"
        }
      ],
      "stateMutability": "view",
      "type": "function"
    },
    {
      "inputs": [],
      "name": "getAllCollection",
      "outputs": [
        {
          "components": [
            {
              "internalType": "address",
              "name": "collectionAddress",
              "type": "address"
            },
            {
              "internalType": "string",
              "name": "uri",
              "type": "string"
            }
          ],
          "internalType": "struct collectionDataIterableMap.collectionData[]",
          "name": "",
          "type": "tuple[]"
        }
      ],
      "stateMutability": "view",
      "type": "function"
    },
    {
      "inputs": [],
      "name": "getAllPendingRentFee",
      "outputs": [
        {
          "components": [
            {
              "internalType": "address",
              "name": "renterAddress",
              "type": "address"
            },
            {
              "internalType": "address",
              "name": "serviceAddress",
              "type": "address"
            },
            {
              "internalType": "address",
              "name": "feeTokenAddress",
              "type": "address"
            },
            {
              "internalType": "uint256",
              "name": "amount",
              "type": "uint256"
            }
          ],
          "internalType": "struct pendingRentFeeIterableMap.pendingRentFee[]",
          "name": "",
          "type": "tuple[]"
        }
      ],
      "stateMutability": "view",
      "type": "function"
    },
    {
      "inputs": [],
      "name": "getAllRegisterData",
      "outputs": [
        {
          "components": [
            {
              "internalType": "address",
              "name": "nftAddress",
              "type": "address"
            },
            {
              "internalType": "uint256",
              "name": "tokenId",
              "type": "uint256"
            },
            {
              "internalType": "uint256",
              "name": "rentFee",
              "type": "uint256"
            },
            {
              "internalType": "address",
              "name": "feeTokenAddress",
              "type": "address"
            },
            {
              "internalType": "uint256",
              "name": "rentFeeByToken",
              "type": "uint256"
            },
            {
              "internalType": "uint256",
              "name": "rentDuration",
              "type": "uint256"
            }
          ],
          "internalType": "struct registerDataIterableMap.registerData[]",
          "name": "",
          "type": "tuple[]"
        }
      ],
      "stateMutability": "view",
      "type": "function"
    },
    {
      "inputs": [],
      "name": "getAllRentData",
      "outputs": [
        {
          "components": [
            {
              "internalType": "address",
              "name": "nftAddress",
              "type": "address"
            },
            {
              "internalType": "uint256",
              "name": "tokenId",
              "type": "uint256"
            },
            {
              "internalType": "uint256",
              "name": "rentFee",
              "type": "uint256"
            },
            {
              "internalType": "address",
              "name": "feeTokenAddress",
              "type": "address"
            },
            {
              "internalType": "uint256",
              "name": "rentFeeByToken",
              "type": "uint256"
            },
            {
              "internalType": "bool",
              "name": "isRentByToken",
              "type": "bool"
            },
            {
              "internalType": "uint256",
              "name": "rentDuration",
              "type": "uint256"
            },
            {
              "internalType": "address",
              "name": "renterAddress",
              "type": "address"
            },
            {
              "internalType": "address",
              "name": "renteeAddress",
              "type": "address"
            },
            {
              "internalType": "address",
              "name": "serviceAddress",
              "type": "address"
            },
            {
              "internalType": "uint256",
              "name": "rentStartTimestamp",
              "type": "uint256"
            }
          ],
          "internalType": "struct rentDataIterableMap.rentData[]",
          "name": "",
          "type": "tuple[]"
        }
      ],
      "stateMutability": "view",
      "type": "function"
    },
    {
      "inputs": [],
      "name": "getAllService",
      "outputs": [
        {
          "components": [
            {
              "internalType": "address",
              "name": "serviceAddress",
              "type": "address"
            },
            {
              "internalType": "string",
              "name": "uri",
              "type": "string"
            }
          ],
          "internalType": "struct serviceDataIterableMap.serviceData[]",
          "name": "",
          "type": "tuple[]"
        }
      ],
      "stateMutability": "view",
      "type": "function"
    },
    {
      "inputs": [],
      "name": "getAllToken",
      "outputs": [
        {
          "components": [
            {
              "internalType": "address",
              "name": "tokenAddress",
              "type": "address"
            },
            {
              "internalType": "string",
              "name": "name",
              "type": "string"
            }
          ],
          "internalType": "struct tokenDataIterableMap.tokenData[]",
          "name": "",
          "type": "tuple[]"
        }
      ],
      "stateMutability": "view",
      "type": "function"
    },
    {
      "inputs": [
        {
          "internalType": "address",
          "name": "collectionAddress",
          "type": "address"
        }
      ],
      "name": "getCollection",
      "outputs": [
        {
          "components": [
            {
              "internalType": "address",
              "name": "collectionAddress",
              "type": "address"
            },
            {
              "internalType": "string",
              "name": "uri",
              "type": "string"
            }
          ],
          "internalType": "struct collectionDataIterableMap.collectionData",
          "name": "",
          "type": "tuple"
        }
      ],
      "stateMutability": "view",
      "type": "function"
    },
    {
      "inputs": [],
      "name": "getFeeQuota",
      "outputs": [
        {
          "internalType": "uint256",
          "name": "renterFeeQuota",
          "type": "uint256"
        },
        {
          "internalType": "uint256",
          "name": "serviceFeeQuota",
          "type": "uint256"
        },
        {
          "internalType": "uint256",
          "name": "marketFeeQuota",
          "type": "uint256"
        }
      ],
      "stateMutability": "view",
      "type": "function"
    },
    {
      "inputs": [],
      "name": "getMarketShareAddress",
      "outputs": [
        {
          "internalType": "address",
          "name": "shareAddress",
          "type": "address"
        }
      ],
      "stateMutability": "view",
      "type": "function"
    },
    {
      "inputs": [
        {
          "internalType": "address",
          "name": "tokenAddress",
          "type": "address"
        }
      ],
      "name": "getMyBalance",
      "outputs": [
        {
          "internalType": "uint256",
          "name": "balance",
          "type": "uint256"
        }
      ],
      "stateMutability": "view",
      "type": "function"
    },
    {
      "inputs": [
        {
          "internalType": "address",
          "name": "nftAddress",
          "type": "address"
        },
        {
          "internalType": "uint256",
          "name": "tokenId",
          "type": "uint256"
        }
      ],
      "name": "getRegisterData",
      "outputs": [
        {
          "components": [
            {
              "internalType": "address",
              "name": "nftAddress",
              "type": "address"
            },
            {
              "internalType": "uint256",
              "name": "tokenId",
              "type": "uint256"
            },
            {
              "internalType": "uint256",
              "name": "rentFee",
              "type": "uint256"
            },
            {
              "internalType": "address",
              "name": "feeTokenAddress",
              "type": "address"
            },
            {
              "internalType": "uint256",
              "name": "rentFeeByToken",
              "type": "uint256"
            },
            {
              "internalType": "uint256",
              "name": "rentDuration",
              "type": "uint256"
            }
          ],
          "internalType": "struct registerDataIterableMap.registerData",
          "name": "",
          "type": "tuple"
        }
      ],
      "stateMutability": "view",
      "type": "function"
    },
    {
      "inputs": [
        {
          "internalType": "address",
          "name": "nftAddress",
          "type": "address"
        }
      ],
      "name": "getRegisterDataByCollection",
      "outputs": [
        {
          "components": [
            {
              "internalType": "address",
              "name": "nftAddress",
              "type": "address"
            },
            {
              "internalType": "uint256",
              "name": "tokenId",
              "type": "uint256"
            },
            {
              "internalType": "uint256",
              "name": "rentFee",
              "type": "uint256"
            },
            {
              "internalType": "address",
              "name": "feeTokenAddress",
              "type": "address"
            },
            {
              "internalType": "uint256",
              "name": "rentFeeByToken",
              "type": "uint256"
            },
            {
              "internalType": "uint256",
              "name": "rentDuration",
              "type": "uint256"
            }
          ],
          "internalType": "struct registerDataIterableMap.registerData[]",
          "name": "",
          "type": "tuple[]"
        }
      ],
      "stateMutability": "view",
      "type": "function"
    },
    {
      "inputs": [
        {
          "internalType": "address",
          "name": "nftAddress",
          "type": "address"
        },
        {
          "internalType": "uint256",
          "name": "tokenId",
          "type": "uint256"
        },
        {
          "internalType": "address",
          "name": "renteeAddress",
          "type": "address"
        }
      ],
      "name": "getRentData",
      "outputs": [
        {
          "components": [
            {
              "internalType": "address",
              "name": "nftAddress",
              "type": "address"
            },
            {
              "internalType": "uint256",
              "name": "tokenId",
              "type": "uint256"
            },
            {
              "internalType": "uint256",
              "name": "rentFee",
              "type": "uint256"
            },
            {
              "internalType": "address",
              "name": "feeTokenAddress",
              "type": "address"
            },
            {
              "internalType": "uint256",
              "name": "rentFeeByToken",
              "type": "uint256"
            },
            {
              "internalType": "bool",
              "name": "isRentByToken",
              "type": "bool"
            },
            {
              "internalType": "uint256",
              "name": "rentDuration",
              "type": "uint256"
            },
            {
              "internalType": "address",
              "name": "renterAddress",
              "type": "address"
            },
            {
              "internalType": "address",
              "name": "renteeAddress",
              "type": "address"
            },
            {
              "internalType": "address",
              "name": "serviceAddress",
              "type": "address"
            },
            {
              "internalType": "uint256",
              "name": "rentStartTimestamp",
              "type": "uint256"
            }
          ],
          "internalType": "struct rentDataIterableMap.rentData",
          "name": "",
          "type": "tuple"
        }
      ],
      "stateMutability": "view",
      "type": "function"
    },
    {
      "inputs": [
        {
          "internalType": "address",
          "name": "nftAddress",
          "type": "address"
        }
      ],
      "name": "getRentDataByNftAddress",
      "outputs": [
        {
          "components": [
            {
              "internalType": "address",
              "name": "nftAddress",
              "type": "address"
            },
            {
              "internalType": "uint256",
              "name": "tokenId",
              "type": "uint256"
            },
            {
              "internalType": "uint256",
              "name": "rentFee",
              "type": "uint256"
            },
            {
              "internalType": "address",
              "name": "feeTokenAddress",
              "type": "address"
            },
            {
              "internalType": "uint256",
              "name": "rentFeeByToken",
              "type": "uint256"
            },
            {
              "internalType": "bool",
              "name": "isRentByToken",
              "type": "bool"
            },
            {
              "internalType": "uint256",
              "name": "rentDuration",
              "type": "uint256"
            },
            {
              "internalType": "address",
              "name": "renterAddress",
              "type": "address"
            },
            {
              "internalType": "address",
              "name": "renteeAddress",
              "type": "address"
            },
            {
              "internalType": "address",
              "name": "serviceAddress",
              "type": "address"
            },
            {
              "internalType": "uint256",
              "name": "rentStartTimestamp",
              "type": "uint256"
            }
          ],
          "internalType": "struct rentDataIterableMap.rentData[]",
          "name": "",
          "type": "tuple[]"
        }
      ],
      "stateMutability": "view",
      "type": "function"
    },
    {
      "inputs": [
        {
          "internalType": "address",
          "name": "renteeAddress",
          "type": "address"
        }
      ],
      "name": "getRentDataByRenteeAddress",
      "outputs": [
        {
          "components": [
            {
              "internalType": "address",
              "name": "nftAddress",
              "type": "address"
            },
            {
              "internalType": "uint256",
              "name": "tokenId",
              "type": "uint256"
            },
            {
              "internalType": "uint256",
              "name": "rentFee",
              "type": "uint256"
            },
            {
              "internalType": "address",
              "name": "feeTokenAddress",
              "type": "address"
            },
            {
              "internalType": "uint256",
              "name": "rentFeeByToken",
              "type": "uint256"
            },
            {
              "internalType": "bool",
              "name": "isRentByToken",
              "type": "bool"
            },
            {
              "internalType": "uint256",
              "name": "rentDuration",
              "type": "uint256"
            },
            {
              "internalType": "address",
              "name": "renterAddress",
              "type": "address"
            },
            {
              "internalType": "address",
              "name": "renteeAddress",
              "type": "address"
            },
            {
              "internalType": "address",
              "name": "serviceAddress",
              "type": "address"
            },
            {
              "internalType": "uint256",
              "name": "rentStartTimestamp",
              "type": "uint256"
            }
          ],
          "internalType": "struct rentDataIterableMap.rentData[]",
          "name": "",
          "type": "tuple[]"
        }
      ],
      "stateMutability": "view",
      "type": "function"
    },
    {
      "inputs": [
        {
          "internalType": "address",
          "name": "serviceAddress",
          "type": "address"
        }
      ],
      "name": "getService",
      "outputs": [
        {
          "components": [
            {
              "internalType": "address",
              "name": "serviceAddress",
              "type": "address"
            },
            {
              "internalType": "string",
              "name": "uri",
              "type": "string"
            }
          ],
          "internalType": "struct serviceDataIterableMap.serviceData",
          "name": "",
          "type": "tuple"
        }
      ],
      "stateMutability": "view",
      "type": "function"
    },
    {
      "inputs": [],
      "name": "getThreshold",
      "outputs": [
        {
          "internalType": "uint256",
          "name": "",
          "type": "uint256"
        }
      ],
      "stateMutability": "view",
      "type": "function"
    },
    {
      "inputs": [
        {
          "internalType": "address",
          "name": "tokenAddress_",
          "type": "address"
        }
      ],
      "name": "getTotalAccountBalance",
      "outputs": [
        {
          "internalType": "uint256",
          "name": "totalAccountBalance_",
          "type": "uint256"
        }
      ],
      "stateMutability": "view",
      "type": "function"
    },
    {
      "inputs": [],
      "name": "owner",
      "outputs": [
        {
          "internalType": "address",
          "name": "",
          "type": "address"
        }
      ],
      "stateMutability": "view",
      "type": "function"
    },
    {
      "inputs": [],
      "name": "pause",
      "outputs": [],
      "stateMutability": "nonpayable",
      "type": "function"
    },
    {
      "inputs": [],
      "name": "paused",
      "outputs": [
        {
          "internalType": "bool",
          "name": "",
          "type": "bool"
        }
      ],
      "stateMutability": "view",
      "type": "function"
    },
    {
      "inputs": [
        {
          "internalType": "address",
          "name": "collectionAddress",
          "type": "address"
        },
        {
          "internalType": "string",
          "name": "uri",
          "type": "string"
        }
      ],
      "name": "registerCollection",
      "outputs": [
        {
          "internalType": "bool",
          "name": "success",
          "type": "bool"
        }
      ],
      "stateMutability": "nonpayable",
      "type": "function"
    },
    {
      "inputs": [
        {
          "internalType": "address",
          "name": "nftAddress",
          "type": "address"
        },
        {
          "internalType": "uint256",
          "name": "tokenId",
          "type": "uint256"
        }
      ],
      "name": "registerNFT",
      "outputs": [
        {
          "internalType": "bool",
          "name": "success",
          "type": "bool"
        }
      ],
      "stateMutability": "nonpayable",
      "type": "function"
    },
    {
      "inputs": [
        {
          "internalType": "address",
          "name": "serviceAddress",
          "type": "address"
        },
        {
          "internalType": "string",
          "name": "uri",
          "type": "string"
        }
      ],
      "name": "registerService",
      "outputs": [
        {
          "internalType": "bool",
          "name": "success",
          "type": "bool"
        }
      ],
      "stateMutability": "nonpayable",
      "type": "function"
    },
    {
      "inputs": [
        {
          "internalType": "address",
          "name": "tokenAddress",
          "type": "address"
        },
        {
          "internalType": "string",
          "name": "name",
          "type": "string"
        }
      ],
      "name": "registerToken",
      "outputs": [
        {
          "internalType": "bool",
          "name": "success",
          "type": "bool"
        }
      ],
      "stateMutability": "nonpayable",
      "type": "function"
    },
    {
      "inputs": [],
      "name": "renounceOwnership",
      "outputs": [],
      "stateMutability": "nonpayable",
      "type": "function"
    },
    {
      "inputs": [
        {
          "internalType": "address",
          "name": "nftAddress",
          "type": "address"
        },
        {
          "internalType": "uint256",
          "name": "tokenId",
          "type": "uint256"
        },
        {
          "internalType": "address",
          "name": "serviceAddress",
          "type": "address"
        }
      ],
      "name": "rentNFT",
      "outputs": [
        {
          "internalType": "bool",
          "name": "success",
          "type": "bool"
        }
      ],
      "stateMutability": "payable",
      "type": "function"
    },
    {
      "inputs": [
        {
          "internalType": "address",
          "name": "nftAddress",
          "type": "address"
        },
        {
          "internalType": "uint256",
          "name": "tokenId",
          "type": "uint256"
        },
        {
          "internalType": "address",
          "name": "serviceAddress",
          "type": "address"
        },
        {
          "internalType": "uint256",
          "name": "deadline",
          "type": "uint256"
        },
        {
          "internalType": "uint8",
          "name": "v",
          "type": "uint8"
        },
        {
          "internalType": "bytes32",
          "name": "r",
          "type": "bytes32"
        },
        {
          "internalType": "bytes32",
          "name": "s",
          "type": "bytes32"
        }
      ],
      "name": "rentNFTByToken",
      "outputs": [],
      "stateMutability": "payable",
      "type": "function"
    },
    {
      "inputs": [
        {
          "internalType": "uint256",
          "name": "renterFeeQuota",
          "type": "uint256"
        },
        {
          "internalType": "uint256",
          "name": "serviceFeeQuota",
          "type": "uint256"
        },
        {
          "internalType": "uint256",
          "name": "marketFeeQuota",
          "type": "uint256"
        }
      ],
      "name": "setFeeQuota",
      "outputs": [],
      "stateMutability": "nonpayable",
      "type": "function"
    },
    {
      "inputs": [
        {
          "internalType": "address",
          "name": "shareAddress",
          "type": "address"
        }
      ],
      "name": "setMarketShareAddress",
      "outputs": [],
      "stateMutability": "nonpayable",
      "type": "function"
    },
    {
      "inputs": [
        {
          "internalType": "uint256",
          "name": "threshold_",
          "type": "uint256"
        }
      ],
      "name": "setThreshold",
      "outputs": [],
      "stateMutability": "nonpayable",
      "type": "function"
    },
    {
      "inputs": [
        {
          "internalType": "address",
          "name": "nftAddress",
          "type": "address"
        },
        {
          "internalType": "uint256",
          "name": "tokenId",
          "type": "uint256"
        },
        {
          "internalType": "address",
          "name": "renteeAddress",
          "type": "address"
        }
      ],
      "name": "settleRentData",
      "outputs": [
        {
          "internalType": "bool",
          "name": "success",
          "type": "bool"
        }
      ],
      "stateMutability": "nonpayable",
      "type": "function"
    },
    {
      "inputs": [
        {
          "internalType": "address",
          "name": "newOwner",
          "type": "address"
        }
      ],
      "name": "transferOwnership",
      "outputs": [],
      "stateMutability": "nonpayable",
      "type": "function"
    },
    {
      "inputs": [],
      "name": "unpause",
      "outputs": [],
      "stateMutability": "nonpayable",
      "type": "function"
    },
    {
      "inputs": [
        {
          "internalType": "address",
          "name": "collectionAddress",
          "type": "address"
        }
      ],
      "name": "unregisterCollection",
      "outputs": [
        {
          "internalType": "bool",
          "name": "success",
          "type": "bool"
        }
      ],
      "stateMutability": "nonpayable",
      "type": "function"
    },
    {
      "inputs": [
        {
          "internalType": "address",
          "name": "nftAddress",
          "type": "address"
        },
        {
          "internalType": "uint256",
          "name": "tokenId",
          "type": "uint256"
        }
      ],
      "name": "unregisterNFT",
      "outputs": [
        {
          "internalType": "bool",
          "name": "success",
          "type": "bool"
        }
      ],
      "stateMutability": "nonpayable",
      "type": "function"
    },
    {
      "inputs": [
        {
          "internalType": "address",
          "name": "serviceAddress",
          "type": "address"
        }
      ],
      "name": "unregisterService",
      "outputs": [
        {
          "internalType": "bool",
          "name": "success",
          "type": "bool"
        }
      ],
      "stateMutability": "nonpayable",
      "type": "function"
    },
    {
      "inputs": [
        {
          "internalType": "address",
          "name": "tokenAddress",
          "type": "address"
        }
      ],
      "name": "unregisterToken",
      "outputs": [
        {
          "internalType": "bool",
          "name": "success",
          "type": "bool"
        }
      ],
      "stateMutability": "nonpayable",
      "type": "function"
    },
    {
      "inputs": [
        {
          "internalType": "address",
          "name": "nftAddress",
          "type": "address"
        },
        {
          "internalType": "uint256",
          "name": "tokenId",
          "type": "uint256"
        },
        {
          "internalType": "address",
          "name": "renteeAddress",
          "type": "address"
        }
      ],
      "name": "unrentNFT",
      "outputs": [
        {
          "internalType": "bool",
          "name": "success",
          "type": "bool"
        }
      ],
      "stateMutability": "nonpayable",
      "type": "function"
    },
    {
      "inputs": [
        {
          "internalType": "address",
          "name": "recipient",
          "type": "address"
        },
        {
          "internalType": "address",
          "name": "tokenAddress",
          "type": "address"
        }
      ],
      "name": "withdrawMyBalance",
      "outputs": [
        {
          "internalType": "bool",
          "name": "success",
          "type": "bool"
        }
      ],
      "stateMutability": "payable",
      "type": "function"
    },
    {
      "stateMutability": "payable",
      "type": "receive"
    }
  ],
  "bytecode": "0x60c06040526005608081905264302e302e3560d81b60a0908152620000289160019190620000de565b50670de0b6b3a7640000600355620151806004556050600555600a600655600a60075560646008553480156200005d57600080fd5b5062000069336200008e565b6000805460ff60a01b19169055600280546001600160a01b03191633179055620001c1565b600080546001600160a01b038381166001600160a01b0319831681178455604051919092169283917f8be0079c531659141344cd1fd0a4f28419497f9722a3daafe3b4186f6b6457e09190a35050565b828054620000ec9062000184565b90600052602060002090601f0160209004810192826200011057600085556200015b565b82601f106200012b57805160ff19168380011785556200015b565b828001600101855582156200015b579182015b828111156200015b5782518255916020019190600101906200013e565b50620001699291506200016d565b5090565b5b808211156200016957600081556001016200016e565b600181811c908216806200019957607f821691505b60208210811415620001bb57634e487b7160e01b600052602260045260246000fd5b50919050565b615f4680620001d16000396000f3fe6080604052600436106101fb5760003560e01c806301cf2bae1461025c57806306eb924f1461028f5780630f3efb1e146102bf57806315a52302146102ec57806317a6b609146103195780631c2c2c24146103395780632736a8621461034e5780632803aa13146103705780632d740226146103835780632e6379ed146103a35780633f4ba83a146103b657806345d44eda146103cb5780634b6c05fa146103eb5780635c975abb1461041257806361cb6fac146104275780636558fce614610447578063684e46651461046757806370473d8614610487578063715018a6146104a957806377860cdd146104be5780637e3ef7cd146104de57806381ac825c146104fe57806383b2f911146105115780638456cb591461053e57806385218afc1461055357806385e3c1d4146105805780638bb72e83146105a25780638da5cb5b146105c457806395dbd440146105d9578063960bfe04146105fb5780639e5b74431461061b578063adee9abd1461063b578063d4fbeb191461065b578063e2fcbf731461067b578063e40de8871461069d578063e5d1420f146106bd578063e75235b8146106dd578063e7823fac146106f2578063ec51c0d114610712578063ee5afa5214610743578063eec3104214610763578063f2fde38b14610785578063f5b9e934146107a5578063ffa1ad74146107c55761022f565b3661022f57604051349033907fd6717f327e0cb88b4a97a7f67a453e9258252c34937ccbdd86de7cb840e7def390600090a3005b60405133907fdd0c5778ddb0b0501649417aeffed44057db3d5d530231758c8dc5ef6eeb789490600090a2005b34801561026857600080fd5b5061027c610277366004614c94565b6107e7565b6040519081526020015b60405180910390f35b34801561029b57600080fd5b506102af6102aa366004614d8b565b61087a565b6040519015158152602001610286565b3480156102cb57600080fd5b506102df6102da366004614c94565b610a34565b6040516102869190614ecd565b3480156102f857600080fd5b5061030c610307366004614c94565b610ac5565b6040516102869190614f9f565b34801561032557600080fd5b506102af610334366004614fb2565b610b66565b34801561034557600080fd5b506102df610f4b565b34801561035a57600080fd5b5061036e610369366004614fde565b610fda565b005b61036e61037e36600461500a565b61103d565b34801561038f57600080fd5b506102af61039e366004614d8b565b611887565b6102af6103b1366004615081565b611a15565b3480156103c257600080fd5b5061036e611e07565b3480156103d757600080fd5b506102af6103e6366004614c94565b611e19565b3480156103f757600080fd5b506002546001600160a01b03165b60405161028691906150ba565b34801561041e57600080fd5b506102af61205e565b34801561043357600080fd5b506102af6104423660046150ce565b61206e565b34801561045357600080fd5b506102af610462366004615110565b61261f565b34801561047357600080fd5b506102af6104823660046150ce565b6128fd565b34801561049357600080fd5b5061049c612fa7565b60405161028691906151b1565b3480156104b557600080fd5b5061036e613031565b3480156104ca57600080fd5b506102af6104d9366004614c94565b613043565b3480156104ea57600080fd5b5061027c6104f9366004614c94565b613267565b6102af61050c3660046150ce565b6132a6565b34801561051d57600080fd5b5061053161052c366004614fb2565b61397a565b60405161028691906151f3565b34801561054a57600080fd5b5061036e613a51565b34801561055f57600080fd5b5061057361056e3660046150ce565b613a61565b6040516102869190615201565b34801561058c57600080fd5b50610595613b00565b6040516102869190615210565b3480156105ae57600080fd5b506105b7613b8b565b6040516102869190615272565b3480156105d057600080fd5b50610405613c15565b3480156105e557600080fd5b506105ee613c24565b60405161028691906152e4565b34801561060757600080fd5b5061036e610616366004615339565b613c5f565b34801561062757600080fd5b506102df610636366004614c94565b613c6c565b34801561064757600080fd5b506102af610656366004614c94565b613ca9565b34801561066757600080fd5b506102af610676366004614d8b565b613ecd565b34801561068757600080fd5b5061069061405b565b6040516102869190615352565b3480156106a957600080fd5b5061030c6106b8366004614c94565b6140e5565b3480156106c957600080fd5b506102af6106d8366004614fb2565b614132565b3480156106e957600080fd5b5060085461027c565b3480156106fe57600080fd5b5061036e61070d366004615081565b614408565b34801561071e57600080fd5b5060055460065460075460408051938452602084019290925290820152606001610286565b34801561074f57600080fd5b5061036e61075e366004614c94565b6146f4565b34801561076f57600080fd5b5061077861471e565b60405161028691906153aa565b34801561079157600080fd5b5061036e6107a0366004614c94565b614759565b3480156107b157600080fd5b5061049c6107c0366004614c94565b6147d2565b3480156107d157600080fd5b506107da614863565b60405161028691906153ff565b60405163152c4ed360e11b815260009073__$35fde6ac6f7fb08b81f20635e2dfbb2343$__90632a589da690610824906015908690600401615412565b60206040518083038186803b15801561083c57600080fd5b505af4158015610850573d6000803e3d6000fd5b505050506040513d601f19601f820116820180604052508101906108749190615429565b92915050565b60006108846148f1565b61088c614950565b6040516360f353e160e01b815273__$79a40a2052c9947e027843e42106f8b048$__906360f353e1906108c690600b908790600401615412565b60206040518083038186803b1580156108de57600080fd5b505af41580156108f2573d6000803e3d6000fd5b505050506040513d601f19601f820116820180604052508101906109169190615452565b1561093c5760405162461bcd60e51b81526004016109339061546d565b60405180910390fd5b60405163287af74760e01b815260009073__$79a40a2052c9947e027843e42106f8b048$__9063287af7479061097b90600b908890889060040161548a565b60206040518083038186803b15801561099357600080fd5b505af41580156109a7573d6000803e3d6000fd5b505050506040513d601f19601f820116820180604052508101906109cb9190615452565b905060018115151415610a2357836001600160a01b03167fdcc2016b74f9e1be59c35f005623093f22ee185961aa79657be041dba04ed0a484604051610a1191906153ff565b60405180910390a26001915050610874565b6000915050610874565b5092915050565b604051636374589760e01b815260609073__$c9b49513854812b7b6c4b448b2aa4684e3$__90636374589790610a71906011908690600401615412565b60006040518083038186803b158015610a8957600080fd5b505af4158015610a9d573d6000803e3d6000fd5b505050506040513d6000823e601f3d908101601f1916820160405261087491908101906155a5565b60408051808201825260008152606060208201529051631eb966b960e01b815273__$a27ab5a2953dc10a9c552591268754b616$__90631eb966b990610b1290600d908690600401615412565b60006040518083038186803b158015610b2a57600080fd5b505af4158015610b3e573d6000803e3d6000fd5b505050506040513d6000823e601f3d908101601f1916820160405261087491908101906156f4565b6000610b70614950565b6040516304ecf28360e41b815273__$aabfbf51bc7bf3b8af0580fb7224204a01$__90634ecf283090610bac90600f9087908790600401615728565b60206040518083038186803b158015610bc457600080fd5b505af4158015610bd8573d6000803e3d6000fd5b505050506040513d601f19601f82011682018060405250810190610bfc9190615452565b15610c2f5760405162461bcd60e51b815260206004820152600360248201526229269960e91b6044820152606401610933565b6000610c3b8433614998565b90506000610c498585614a24565b90506001600160a01b038116610c8a5760405162461bcd60e51b815260040161093390602080825260049082015263524d323160e01b604082015260600190565b60018215151480610ca357506001600160a01b03811633145b80610d3957506040516360f353e160e01b815273__$79a40a2052c9947e027843e42106f8b048$__906360f353e190610ce390600b903390600401615412565b60206040518083038186803b158015610cfb57600080fd5b505af4158015610d0f573d6000803e3d6000fd5b505050506040513d601f19601f82011682018060405250810190610d339190615452565b15156001145b610d6b5760405162461bcd60e51b815260206004820152600360248201526214934d60ea1b6044820152606401610933565b6040516360f353e160e01b815273__$79a40a2052c9947e027843e42106f8b048$__906360f353e190610da590600b908990600401615412565b60206040518083038186803b158015610dbd57600080fd5b505af4158015610dd1573d6000803e3d6000fd5b505050506040513d601f19601f82011682018060405250810190610df59190615452565b1515600114610e2f5760405162461bcd60e51b8152600401610933906020808252600490820152632926991960e11b604082015260600190565b6003546004805460405163cddd4b6760e01b815260009373__$aabfbf51bc7bf3b8af0580fb7224204a01$__9363cddd4b6793610e7b93600f938d938d9391928a928392909101615747565b60206040518083038186803b158015610e9357600080fd5b505af4158015610ea7573d6000803e3d6000fd5b505050506040513d601f19601f82011682018060405250810190610ecb9190615452565b905060018115151415610f3f57816001600160a01b031685876001600160a01b03167f582e65d918b73308f2eb058e75e68168f22c49c2994530f72d46177c78435cbb600354600454604051610f2b929190918252602082015260400190565b60405180910390a460019350505050610874565b60009350505050610874565b604051631aff5fe560e21b81526011600482015260609073__$c9b49513854812b7b6c4b448b2aa4684e3$__90636bfd7f949060240160006040518083038186803b158015610f9957600080fd5b505af4158015610fad573d6000803e3d6000fd5b505050506040513d6000823e601f3d908101601f19168201604052610fd591908101906155a5565b905090565b610fe26148f1565b80610fed838561579b565b610ff7919061579b565b60641461102f5760405162461bcd60e51b8152600401610933906020808252600490820152632926989960e11b604082015260600190565b600592909255600655600755565b611045614950565b6040516304ecf28360e41b815273__$aabfbf51bc7bf3b8af0580fb7224204a01$__90634ecf28309061108190600f908b908b90600401615728565b60206040518083038186803b15801561109957600080fd5b505af41580156110ad573d6000803e3d6000fd5b505050506040513d601f19601f820116820180604052508101906110d19190615452565b15156001146110f25760405162461bcd60e51b8152600401610933906157b3565b604051638c9a6cc360e01b815273__$a27ab5a2953dc10a9c552591268754b616$__90638c9a6cc39061112c90600d908990600401615412565b60206040518083038186803b15801561114457600080fd5b505af4158015611158573d6000803e3d6000fd5b505050506040513d601f19601f8201168201806040525081019061117c9190615452565b151560011461119d5760405162461bcd60e51b8152600401610933906157d0565b34156111d45760405162461bcd60e51b815260040161093390602080825260049082015263524d313360e01b604082015260600190565b6111dc614bf5565b6001600160a01b03861660408201526111f58888614a24565b6001600160a01b03166060820152604051630163053760e51b815260009073__$aabfbf51bc7bf3b8af0580fb7224204a01$__90632c60a6e09061124290600f908d908d90600401615728565b60c06040518083038186803b15801561125a57600080fd5b505af415801561126e573d6000803e3d6000fd5b505050506040513d601f19601f82011682018060405250810190611292919061587c565b60608101519091506001600160a01b03166112bf5760405162461bcd60e51b815260040161093390615898565b80606001516001600160a01b03166370a08231336040518263ffffffff1660e01b81526004016112ef91906150ba565b60206040518083038186803b15801561130757600080fd5b505afa15801561131b573d6000803e3d6000fd5b505050506040513d601f19601f8201168201806040525081019061133f9190615429565b60208301819052608082015111156113825760405162461bcd60e51b815260040161093390602080825260049082015263524d323360e01b604082015260600190565b6060810151608082015160405163d505accf60e01b815233600482015230602482015260448101919091526064810188905260ff8716608482015260a4810186905260c481018590526001600160a01b039091169063d505accf9060e401600060405180830381600087803b1580156113fa57600080fd5b505af115801561140e573d6000803e3d6000fd5b5050505080606001516001600160a01b03166323b872dd333084608001516040518463ffffffff1660e01b815260040161144a939291906158b6565b602060405180830381600087803b15801561146457600080fd5b505af1158015611478573d6000803e3d6000fd5b505050506040513d601f19601f8201168201806040525081019061149c9190615452565b506000825260405163aabcf51360e01b815273__$c9b49513854812b7b6c4b448b2aa4684e3$__9063aabcf513906114df906011908d908d9033906004016158da565b60206040518083038186803b1580156114f757600080fd5b505af415801561150b573d6000803e3d6000fd5b505050506040513d601f19601f8201168201806040525081019061152f9190615452565b15156001141561166657604051633bc1597760e01b815260009073__$c9b49513854812b7b6c4b448b2aa4684e3$__90633bc159779061157a906011908e908e9033906004016158da565b6101606040518083038186803b15801561159357600080fd5b505af41580156115a7573d6000803e3d6000fd5b505050506040513d601f19601f820116820180604052508101906115cb9190615901565b60c0810151845260405163cbacb72760e01b815290915073__$c9b49513854812b7b6c4b448b2aa4684e3$__9063cbacb72790611613906011908e908e9033906004016158da565b60206040518083038186803b15801561162b57600080fd5b505af415801561163f573d6000803e3d6000fd5b505050506040513d601f19601f820116820180604052508101906116639190615452565b50505b61166e614c23565b6001600160a01b03808b168252602082018a9052604080840151908301526060808401519091169082015260808083015190820152600160a0808301919091528351908301516116be919061579b565b60c082015260608301516001600160a01b0390811660e0830152336101008301528816610120820152426101408201526040516332ada61b60e01b815273__$c9b49513854812b7b6c4b448b2aa4684e3$__906332ada61b9061172890601190859060040161591e565b60206040518083038186803b15801561174057600080fd5b505af4158015611754573d6000803e3d6000fd5b505050506040513d601f19601f820116820180604052508101906117789190615452565b506060808401519083015160808401516040516343d434b560e11b815273__$cd3810e67fa8b653e5355050e47a521f6f$__936387a8696a936117c4936013938f929190600401615933565b60206040518083038186803b1580156117dc57600080fd5b505af41580156117f0573d6000803e3d6000fd5b505050506040513d601f19601f820116820180604052508101906118149190615452565b50336001600160a01b0316898b6001600160a01b0316600080516020615ef183398151915285604001518660600151876080015160018960a001518b606001518c604001518b6101400151604051611873989796959493929190615961565b60405180910390a450505050505050505050565b60006118916148f1565b611899614950565b604051638c9a6cc360e01b815273__$a27ab5a2953dc10a9c552591268754b616$__90638c9a6cc3906118d390600d908790600401615412565b60206040518083038186803b1580156118eb57600080fd5b505af41580156118ff573d6000803e3d6000fd5b505050506040513d601f19601f820116820180604052508101906119239190615452565b156119405760405162461bcd60e51b81526004016109339061546d565b6040516327a7887760e21b815260009073__$a27ab5a2953dc10a9c552591268754b616$__90639e9e21dc9061197f90600d908890889060040161548a565b60206040518083038186803b15801561199757600080fd5b505af41580156119ab573d6000803e3d6000fd5b505050506040513d601f19601f820116820180604052508101906119cf9190615452565b905060018115151415610a2357836001600160a01b03167f26e277514df07793f28eff0e6f05b34a8dc0be0012b50d1b6162ce3c958b0c4e84604051610a1191906153ff565b6000336001600160a01b0384161480611a465750611a31613c15565b6001600160a01b0316336001600160a01b0316145b611a7b5760405162461bcd60e51b8152600401610933906020808252600490820152630a49a62760e31b604082015260600190565b60405163b52bf90f60e01b815260009073__$35fde6ac6f7fb08b81f20635e2dfbb2343$__9063b52bf90f90611aba90601590889088906004016159a7565b60206040518083038186803b158015611ad257600080fd5b505af4158015611ae6573d6000803e3d6000fd5b505050506040513d601f19601f82011682018060405250810190611b0a9190615429565b90508015610a2d576001600160a01b038316611bb2576000846001600160a01b03168260405160006040518083038185875af1925050503d8060008114611b6d576040519150601f19603f3d011682016040523d82523d6000602084013e611b72565b606091505b5050905080611bac5760405162461bcd60e51b81526004016109339060208082526004908201526314934c4d60e21b604082015260600190565b50611d14565b60405163095ea7b360e01b81526000906001600160a01b0385169063095ea7b390611be390309086906004016159c6565b602060405180830381600087803b158015611bfd57600080fd5b505af1158015611c11573d6000803e3d6000fd5b505050506040513d601f19601f82011682018060405250810190611c359190615452565b905080611c6d5760405162461bcd60e51b815260040161093390602080825260049082015263524d313960e01b604082015260600190565b6040516323b872dd60e01b81526000906001600160a01b038616906323b872dd90611ca09030908a9088906004016158b6565b602060405180830381600087803b158015611cba57600080fd5b505af1158015611cce573d6000803e3d6000fd5b505050506040513d601f19601f82011682018060405250810190611cf29190615452565b905080611d115760405162461bcd60e51b815260040161093390615898565b50505b60405163bc824a9360e01b815260009073__$35fde6ac6f7fb08b81f20635e2dfbb2343$__9063bc824a9390611d5390601590899089906004016159a7565b60206040518083038186803b158015611d6b57600080fd5b505af4158015611d7f573d6000803e3d6000fd5b505050506040513d601f19601f82011682018060405250810190611da39190615452565b905060018115151415611dfc5781846001600160a01b0316866001600160a01b03167ff19b643806aff6923e6a83303f2c43467bb6e47487c68586ec0bcfb7097e8f7660405160405180910390a4600192505050610874565b600092505050610874565b611e0f6148f1565b611e17614ab0565b565b6000611e236148f1565b604051638c9a6cc360e01b815273__$a27ab5a2953dc10a9c552591268754b616$__90638c9a6cc390611e5d90600d908690600401615412565b60206040518083038186803b158015611e7557600080fd5b505af4158015611e89573d6000803e3d6000fd5b505050506040513d601f19601f82011682018060405250810190611ead9190615452565b1515600114611ece5760405162461bcd60e51b8152600401610933906159df565b604051631eb966b960e01b815260009073__$a27ab5a2953dc10a9c552591268754b616$__90631eb966b990611f0b90600d908790600401615412565b60006040518083038186803b158015611f2357600080fd5b505af4158015611f37573d6000803e3d6000fd5b505050506040513d6000823e601f3d908101601f19168201604052611f5f91908101906156f4565b604051634c3bfbf560e11b815290915060009073__$a27ab5a2953dc10a9c552591268754b616$__90639877f7ea90611f9f90600d908890600401615412565b60206040518083038186803b158015611fb757600080fd5b505af4158015611fcb573d6000803e3d6000fd5b505050506040513d601f19601f82011682018060405250810190611fef9190615452565b90506001811515141561204f5781600001516001600160a01b03167fd3bb6cf267814a3d42a12164c9ac01a59db6d9121ae676500da60fd56b086d3b836020015160405161203d91906153ff565b60405180910390a25060019392505050565b5060009392505050565b919050565b600054600160a01b900460ff1690565b60405163aabcf51360e01b815260009073__$c9b49513854812b7b6c4b448b2aa4684e3$__9063aabcf513906120af906011908890889088906004016158da565b60206040518083038186803b1580156120c757600080fd5b505af41580156120db573d6000803e3d6000fd5b505050506040513d601f19601f820116820180604052508101906120ff9190615452565b15156001146121395760405162461bcd60e51b8152600401610933906020808252600490820152630524d31360e41b604082015260600190565b604051633bc1597760e01b815260009073__$c9b49513854812b7b6c4b448b2aa4684e3$__90633bc159779061217a906011908990899089906004016158da565b6101606040518083038186803b15801561219357600080fd5b505af41580156121a7573d6000803e3d6000fd5b505050506040513d601f19601f820116820180604052508101906121cb9190615901565b90508060c001518161014001516121e2919061579b565b42116122195760405162461bcd60e51b815260040161093390602080825260049082015263524d313760e01b604082015260600190565b60008160a0015115156001151514156122375750608081015161223e565b5060408101515b60006122586005548361225191906159fc565b6064614aff565b9050600061226d6006548461225191906159fc565b905060008161227c8486615a1b565b6122869190615a1b565b60e0860151606087015160405163071cd41560e31b815292935073__$35fde6ac6f7fb08b81f20635e2dfbb2343$__926338e6a0a8926122cd926015928990600401615a32565b60206040518083038186803b1580156122e557600080fd5b505af41580156122f9573d6000803e3d6000fd5b505050506040513d601f19601f8201168201806040525081019061231d9190615452565b50610120850151606086015160405163071cd41560e31b815273__$35fde6ac6f7fb08b81f20635e2dfbb2343$__926338e6a0a8926123659260159291908890600401615a32565b60206040518083038186803b15801561237d57600080fd5b505af4158015612391573d6000803e3d6000fd5b505050506040513d601f19601f820116820180604052508101906123b59190615452565b50600254606086015160405163071cd41560e31b815273__$35fde6ac6f7fb08b81f20635e2dfbb2343$__926338e6a0a892612403926015926001600160a01b031691908790600401615a32565b60206040518083038186803b15801561241b57600080fd5b505af415801561242f573d6000803e3d6000fd5b505050506040513d601f19601f820116820180604052508101906124539190615452565b5060e08501516101208601516060870151604051631a9a5d7160e21b815273__$cd3810e67fa8b653e5355050e47a521f6f$__93636a6975c49361249e936013938b90600401615933565b60206040518083038186803b1580156124b657600080fd5b505af41580156124ca573d6000803e3d6000fd5b505050506040513d601f19601f820116820180604052508101906124ee9190615452565b508451602086015161010087015160405163cbacb72760e01b815273__$c9b49513854812b7b6c4b448b2aa4684e3$__9363cbacb72793612534936011936004016158da565b60206040518083038186803b15801561254c57600080fd5b505af4158015612560573d6000803e3d6000fd5b505050506040513d601f19601f820116820180604052508101906125849190615452565b508461010001516001600160a01b0316856020015186600001516001600160a01b03167f2941e86df5e844db000359f0e9abe470952bac636d89a010e9d5d513aad469fa886040015189606001518a608001518b60a001518c60c001518d60e001518e61012001518f6101400151604051612606989796959493929190615961565b60405180910390a46001955050505050505b9392505050565b6000612629614950565b60006126358888614a24565b9050336001600160a01b03821614806126665750612651613c15565b6001600160a01b0316336001600160a01b0316145b6126825760405162461bcd60e51b815260040161093390615a57565b6040516304ecf28360e41b815273__$aabfbf51bc7bf3b8af0580fb7224204a01$__90634ecf2830906126be90600f908c908c90600401615728565b60206040518083038186803b1580156126d657600080fd5b505af41580156126ea573d6000803e3d6000fd5b505050506040513d601f19601f8201168201806040525081019061270e9190615452565b151560011461272f5760405162461bcd60e51b8152600401610933906159df565b6001600160a01b038516156127e957604051631f04869b60e31b815273__$4fab912f99daae96c763763589e4636ca5$__9063f82434d890612778906009908990600401615412565b60206040518083038186803b15801561279057600080fd5b505af41580156127a4573d6000803e3d6000fd5b505050506040513d601f19601f820116820180604052508101906127c89190615452565b15156001146127e95760405162461bcd60e51b815260040161093390615898565b6040516313d3de6d60e11b815260009073__$aabfbf51bc7bf3b8af0580fb7224204a01$__906327a7bcda9061283090600f908d908d908d908d908d908d90600401615747565b60206040518083038186803b15801561284857600080fd5b505af415801561285c573d6000803e3d6000fd5b505050506040513d601f19601f820116820180604052508101906128809190615452565b9050600181151514156128ec57336001600160a01b0316888a6001600160a01b03167f4388754cf451950a50e2520e86758fc59ec9e88a7f6a09f2db5de37d545639298a8a8a8a896040516128d9959493929190615a74565b60405180910390a46001925050506128f3565b6000925050505b9695505050505050565b60008080806001600160a01b038516331480156129a9575060405163aabcf51360e01b815273__$c9b49513854812b7b6c4b448b2aa4684e3$__9063aabcf51390612953906011908b908b9033906004016158da565b60206040518083038186803b15801561296b57600080fd5b505af415801561297f573d6000803e3d6000fd5b505050506040513d601f19601f820116820180604052508101906129a39190615452565b15156001145b806129c35750336129b8613c15565b6001600160a01b0316145b6129f85760405162461bcd60e51b815260040161093390602080825260049082015263524d313560e01b604082015260600190565b604051633bc1597760e01b815260009073__$c9b49513854812b7b6c4b448b2aa4684e3$__90633bc1597790612a39906011908c908c908c906004016158da565b6101606040518083038186803b158015612a5257600080fd5b505af4158015612a66573d6000803e3d6000fd5b505050506040513d601f19601f82011682018060405250810190612a8a9190615901565b90508060a001511515600115151415612aa95780608001519150612ab1565b806040015191505b610140810151429081118015612ada57508160c00151826101400151612ad7919061579b565b81105b15612bb257600082610140015182612af29190615a1b565b9050612b0b612b0182866159fc565b8460c00151614aff565b9550612b178487614b0b565b610100840151606085015160405163071cd41560e31b815292975073__$35fde6ac6f7fb08b81f20635e2dfbb2343$__926338e6a0a892612b5f926015928b90600401615a32565b60206040518083038186803b158015612b7757600080fd5b505af4158015612b8b573d6000803e3d6000fd5b505050506040513d601f19601f82011682018060405250810190612baf9190615452565b50505b8415612dcb576000612bcb6005548761225191906159fc565b90506000612be06006548861225191906159fc565b9050600081612bef848a615a1b565b612bf99190615a1b565b60e0860151606087015160405163071cd41560e31b815292935073__$35fde6ac6f7fb08b81f20635e2dfbb2343$__926338e6a0a892612c40926015928990600401615a32565b60206040518083038186803b158015612c5857600080fd5b505af4158015612c6c573d6000803e3d6000fd5b505050506040513d601f19601f82011682018060405250810190612c909190615452565b50610120850151606086015160405163071cd41560e31b815273__$35fde6ac6f7fb08b81f20635e2dfbb2343$__926338e6a0a892612cd89260159291908890600401615a32565b60206040518083038186803b158015612cf057600080fd5b505af4158015612d04573d6000803e3d6000fd5b505050506040513d601f19601f82011682018060405250810190612d289190615452565b50600254606086015160405163071cd41560e31b815273__$35fde6ac6f7fb08b81f20635e2dfbb2343$__926338e6a0a892612d76926015926001600160a01b031691908790600401615a32565b60206040518083038186803b158015612d8e57600080fd5b505af4158015612da2573d6000803e3d6000fd5b505050506040513d601f19601f82011682018060405250810190612dc69190615452565b505050505b604051633bc1597760e01b815260009073__$c9b49513854812b7b6c4b448b2aa4684e3$__90633bc1597790612e0c906011908e908e908e906004016158da565b6101606040518083038186803b158015612e2557600080fd5b505af4158015612e39573d6000803e3d6000fd5b505050506040513d601f19601f82011682018060405250810190612e5d9190615901565b60405163cbacb72760e01b815290915060009073__$c9b49513854812b7b6c4b448b2aa4684e3$__9063cbacb72790612ea1906011908f908f908f906004016158da565b60206040518083038186803b158015612eb957600080fd5b505af4158015612ecd573d6000803e3d6000fd5b505050506040513d601f19601f82011682018060405250810190612ef19190615452565b905060018115151415612f97578161010001516001600160a01b0316826020015183600001516001600160a01b03167f1e47184299ef1ae0147489de864e2860294ab4125cb78ff3488bce09ea0192f68560400151866060015187608001518860a001518960c001518a60e001518b61012001518c6101400151604051612f7f989796959493929190615961565b60405180910390a46001975050505050505050612618565b6000975050505050505050612618565b604051634d1deedd60e01b8152600f600482015260609073__$aabfbf51bc7bf3b8af0580fb7224204a01$__90634d1deedd9060240160006040518083038186803b158015612ff557600080fd5b505af4158015613009573d6000803e3d6000fd5b505050506040513d6000823e601f3d908101601f19168201604052610fd59190810190615aa0565b6130396148f1565b611e176000614b17565b600061304d6148f1565b604051631f04869b60e31b815273__$4fab912f99daae96c763763589e4636ca5$__9063f82434d890613087906009908690600401615412565b60206040518083038186803b15801561309f57600080fd5b505af41580156130b3573d6000803e3d6000fd5b505050506040513d601f19601f820116820180604052508101906130d79190615452565b15156001146130f85760405162461bcd60e51b8152600401610933906159df565b604051630a93aab960e31b815260009073__$4fab912f99daae96c763763589e4636ca5$__9063549d55c890613135906009908790600401615412565b60006040518083038186803b15801561314d57600080fd5b505af4158015613161573d6000803e3d6000fd5b505050506040513d6000823e601f3d908101601f1916820160405261318991908101906156f4565b6040516359c0255d60e01b815290915060009073__$4fab912f99daae96c763763589e4636ca5$__906359c0255d906131c9906009908890600401615412565b60206040518083038186803b1580156131e157600080fd5b505af41580156131f5573d6000803e3d6000fd5b505050506040513d601f19601f820116820180604052508101906132199190615452565b90506001811515141561204f5781600001516001600160a01b03167f037af5869c73bd98d861d265ed2fe7856d434102678eab240cfac53917ef4e83836020015160405161203d91906153ff565b60405163b52bf90f60e01b815260009073__$35fde6ac6f7fb08b81f20635e2dfbb2343$__9063b52bf90f9061082490601590339087906004016159a7565b60006132b0614950565b6132b8614bf5565b6040516304ecf28360e41b815273__$aabfbf51bc7bf3b8af0580fb7224204a01$__90634ecf2830906132f490600f9089908990600401615728565b60206040518083038186803b15801561330c57600080fd5b505af4158015613320573d6000803e3d6000fd5b505050506040513d601f19601f820116820180604052508101906133449190615452565b15156001146133655760405162461bcd60e51b8152600401610933906157b3565b604051638c9a6cc360e01b815273__$a27ab5a2953dc10a9c552591268754b616$__90638c9a6cc39061339f90600d908790600401615412565b60206040518083038186803b1580156133b757600080fd5b505af41580156133cb573d6000803e3d6000fd5b505050506040513d601f19601f820116820180604052508101906133ef9190615452565b15156001146134105760405162461bcd60e51b8152600401610933906157d0565b604051630163053760e51b8152349073__$aabfbf51bc7bf3b8af0580fb7224204a01$__90632c60a6e09061344e90600f908a908a90600401615728565b60c06040518083038186803b15801561346657600080fd5b505af415801561347a573d6000803e3d6000fd5b505050506040513d601f19601f8201168201806040525081019061349e919061587c565b60400151146134d55760405162461bcd60e51b81526020600482015260036024820152620a49a760eb1b6044820152606401610933565b604051630163053760e51b815260009073__$aabfbf51bc7bf3b8af0580fb7224204a01$__90632c60a6e09061351490600f908a908a90600401615728565b60c06040518083038186803b15801561352c57600080fd5b505af4158015613540573d6000803e3d6000fd5b505050506040513d601f19601f82011682018060405250810190613564919061587c565b6000835260405163aabcf51360e01b815290915073__$c9b49513854812b7b6c4b448b2aa4684e3$__9063aabcf513906135a9906011908a908a9033906004016158da565b60206040518083038186803b1580156135c157600080fd5b505af41580156135d5573d6000803e3d6000fd5b505050506040513d601f19601f820116820180604052508101906135f99190615452565b15156001141561373057604051633bc1597760e01b815260009073__$c9b49513854812b7b6c4b448b2aa4684e3$__90633bc1597790613644906011908b908b9033906004016158da565b6101606040518083038186803b15801561365d57600080fd5b505af4158015613671573d6000803e3d6000fd5b505050506040513d601f19601f820116820180604052508101906136959190615901565b60c0810151845260405163cbacb72760e01b815290915073__$c9b49513854812b7b6c4b448b2aa4684e3$__9063cbacb727906136dd906011908b908b9033906004016158da565b60206040518083038186803b1580156136f557600080fd5b505af4158015613709573d6000803e3d6000fd5b505050506040513d601f19601f8201168201806040525081019061372d9190615452565b50505b61373a8686614a24565b6001600160a01b03166060830152613750614c23565b6001600160a01b03808816825260208201879052604080840151908301526060808401519091169082015260808083015190820152600060a0808301919091528351908301516137a0919061579b565b60c082015260608301516001600160a01b0390811660e0830152336101008301528516610120820152426101408201526040516332ada61b60e01b815273__$c9b49513854812b7b6c4b448b2aa4684e3$__906332ada61b9061380a90601190859060040161591e565b60206040518083038186803b15801561382257600080fd5b505af4158015613836573d6000803e3d6000fd5b505050506040513d601f19601f8201168201806040525081019061385a9190615452565b1515608084018190526001141561396e5760608301516040516343d434b560e11b815273__$cd3810e67fa8b653e5355050e47a521f6f$__916387a8696a916138af916013918a906000903490600401615933565b60206040518083038186803b1580156138c757600080fd5b505af41580156138db573d6000803e3d6000fd5b505050506040513d601f19601f820116820180604052508101906138ff9190615452565b50336001600160a01b031686886001600160a01b0316600080516020615ef183398151915285604001518660600151876080015160008960a001518b606001518e8b610140015160405161395a989796959493929190615961565b60405180910390a460019350505050612618565b60009350505050612618565b6139c56040518060c0016040528060006001600160a01b03168152602001600081526020016000815260200160006001600160a01b0316815260200160008152602001600081525090565b604051630163053760e51b815273__$aabfbf51bc7bf3b8af0580fb7224204a01$__90632c60a6e090613a0190600f9087908790600401615728565b60c06040518083038186803b158015613a1957600080fd5b505af4158015613a2d573d6000803e3d6000fd5b505050506040513d601f19601f82011682018060405250810190612618919061587c565b613a596148f1565b611e17614b67565b613a69614c23565b604051633bc1597760e01b815273__$c9b49513854812b7b6c4b448b2aa4684e3$__90633bc1597790613aa7906011908890889088906004016158da565b6101606040518083038186803b158015613ac057600080fd5b505af4158015613ad4573d6000803e3d6000fd5b505050506040513d601f19601f82011682018060405250810190613af89190615901565b949350505050565b604051639890055960e01b81526009600482015260609073__$4fab912f99daae96c763763589e4636ca5$__906398900559906024015b60006040518083038186803b158015613b4f57600080fd5b505af4158015613b63573d6000803e3d6000fd5b505050506040513d6000823e601f3d908101601f19168201604052610fd59190810190615ba0565b60405163a759dccf60e01b81526013600482015260609073__$cd3810e67fa8b653e5355050e47a521f6f$__9063a759dccf9060240160006040518083038186803b158015613bd957600080fd5b505af4158015613bed573d6000803e3d6000fd5b505050506040513d6000823e601f3d908101601f19168201604052610fd59190810190615be8565b6000546001600160a01b031690565b604051634aa7304160e11b8152600d600482015260609073__$a27ab5a2953dc10a9c552591268754b616$__9063954e608290602401613b37565b613c676148f1565b600855565b60405163076b892160e11b815260609073__$c9b49513854812b7b6c4b448b2aa4684e3$__90630ed7124290610a71906011908690600401615412565b6000613cb36148f1565b6040516360f353e160e01b815273__$79a40a2052c9947e027843e42106f8b048$__906360f353e190613ced90600b908690600401615412565b60206040518083038186803b158015613d0557600080fd5b505af4158015613d19573d6000803e3d6000fd5b505050506040513d601f19601f82011682018060405250810190613d3d9190615452565b1515600114613d5e5760405162461bcd60e51b8152600401610933906159df565b60405163044aed2360e01b815260009073__$79a40a2052c9947e027843e42106f8b048$__9063044aed2390613d9b90600b908790600401615412565b60006040518083038186803b158015613db357600080fd5b505af4158015613dc7573d6000803e3d6000fd5b505050506040513d6000823e601f3d908101601f19168201604052613def91908101906156f4565b60405163a3fb822560e01b815290915060009073__$79a40a2052c9947e027843e42106f8b048$__9063a3fb822590613e2f90600b908890600401615412565b60206040518083038186803b158015613e4757600080fd5b505af4158015613e5b573d6000803e3d6000fd5b505050506040513d601f19601f82011682018060405250810190613e7f9190615452565b90506001811515141561204f5781600001516001600160a01b03167fe32dbca0dcbe2dc4205cd30b4b23a82cff3e9b7e12a5682683185c6f33c978be836020015160405161203d91906153ff565b6000613ed76148f1565b613edf614950565b604051631f04869b60e31b815273__$4fab912f99daae96c763763589e4636ca5$__9063f82434d890613f19906009908790600401615412565b60206040518083038186803b158015613f3157600080fd5b505af4158015613f45573d6000803e3d6000fd5b505050506040513d601f19601f82011682018060405250810190613f699190615452565b15613f865760405162461bcd60e51b81526004016109339061546d565b6040516331d0579b60e11b815260009073__$4fab912f99daae96c763763589e4636ca5$__906363a0af3690613fc5906009908890889060040161548a565b60206040518083038186803b158015613fdd57600080fd5b505af4158015613ff1573d6000803e3d6000fd5b505050506040513d601f19601f820116820180604052508101906140159190615452565b905060018115151415610a2357836001600160a01b03167ff76071867aae1eed00218b5aa8d4736b9b2161325ea3e48d283258a7e4ba75f584604051610a1191906153ff565b6040516309a25d3f60e11b81526015600482015260609073__$35fde6ac6f7fb08b81f20635e2dfbb2343$__90631344ba7e9060240160006040518083038186803b1580156140a957600080fd5b505af41580156140bd573d6000803e3d6000fd5b505050506040513d6000823e601f3d908101601f19168201604052610fd59190810190615ccc565b6040805180820182526000815260606020820152905163044aed2360e01b815273__$79a40a2052c9947e027843e42106f8b048$__9063044aed2390610b1290600b908690600401615412565b60008061413f8433614998565b9050600061414d8585614a24565b9050600182151514806141685750336001600160a01b038216145b8061418b5750614176613c15565b6001600160a01b0316336001600160a01b0316145b6141a75760405162461bcd60e51b815260040161093390615a57565b6040516304ecf28360e41b815273__$aabfbf51bc7bf3b8af0580fb7224204a01$__90634ecf2830906141e390600f9089908990600401615728565b60206040518083038186803b1580156141fb57600080fd5b505af415801561420f573d6000803e3d6000fd5b505050506040513d601f19601f820116820180604052508101906142339190615452565b15156001146142545760405162461bcd60e51b8152600401610933906159df565b604051630163053760e51b815260009073__$aabfbf51bc7bf3b8af0580fb7224204a01$__90632c60a6e09061429390600f908a908a90600401615728565b60c06040518083038186803b1580156142ab57600080fd5b505af41580156142bf573d6000803e3d6000fd5b505050506040513d601f19601f820116820180604052508101906142e3919061587c565b604051631f8195ef60e11b815290915060009073__$aabfbf51bc7bf3b8af0580fb7224204a01$__90633f032bde9061432590600f908b908b90600401615728565b60206040518083038186803b15801561433d57600080fd5b505af4158015614351573d6000803e3d6000fd5b505050506040513d601f19601f820116820180604052508101906143759190615452565b9050600181151514156143fb57336001600160a01b0316826020015183600001516001600160a01b03167f47ef5674b8623b6a0bece5fae33a1a29ad79a7846a5be46a0b2e256b94f9ee318560400151866060015187608001518860a001518a6040516143e6959493929190615a74565b60405180910390a46001945050505050610874565b6000945050505050610874565b600854614413575050565b604051636eb1769f60e11b81526000906001600160a01b0384169063dd62ed3e906144449085903090600401615d8f565b60206040518083038186803b15801561445c57600080fd5b505afa158015614470573d6000803e3d6000fd5b505050506040513d601f19601f820116820180604052508101906144949190615429565b9050806144a057505050565b60006144ab846107e7565b604080516060810182526000808252602082018190529181018290529192509060005b6016548110156146325760085481106144e657614632565b6016805460159190839081106144fe576144fe615da9565b906000526020600020016040516145159190615dfa565b908152604080516020928190038301812060608201835260018101546001600160a01b039081168352600282015481169483018590526003909101549282019290925293508816141561462057600061457d83604001518761457791906159fc565b86614aff565b9050614589818561579b565b8351602085015160405163071cd41560e31b815292965073__$35fde6ac6f7fb08b81f20635e2dfbb2343$__926338e6a0a8926145cd926015928790600401615a32565b60206040518083038186803b1580156145e557600080fd5b505af41580156145f9573d6000803e3d6000fd5b505050506040513d601f19601f8201168201806040525081019061461d9190615452565b50505b8061462a81615e96565b9150506144ce565b50600061463f8386615a1b565b11156146ec5760025473__$35fde6ac6f7fb08b81f20635e2dfbb2343$__906338e6a0a8906015906001600160a01b03168961467b878a615a1b565b6040518563ffffffff1660e01b815260040161469a9493929190615a32565b60206040518083038186803b1580156146b257600080fd5b505af41580156146c6573d6000803e3d6000fd5b505050506040513d601f19601f820116820180604052508101906146ea9190615452565b505b505050505050565b6146fc6148f1565b600280546001600160a01b0319166001600160a01b0392909216919091179055565b60405163486469f960e11b8152600b600482015260609073__$79a40a2052c9947e027843e42106f8b048$__906390c8d3f290602401613b37565b6147616148f1565b6001600160a01b0381166147c65760405162461bcd60e51b815260206004820152602660248201527f4f776e61626c653a206e6577206f776e657220697320746865207a65726f206160448201526564647265737360d01b6064820152608401610933565b6147cf81614b17565b50565b604051632220856160e11b815260609073__$aabfbf51bc7bf3b8af0580fb7224204a01$__906344410ac29061480f90600f908690600401615412565b60006040518083038186803b15801561482757600080fd5b505af415801561483b573d6000803e3d6000fd5b505050506040513d6000823e601f3d908101601f191682016040526108749190810190615aa0565b6001805461487090615dbf565b80601f016020809104026020016040519081016040528092919081815260200182805461489c90615dbf565b80156148e95780601f106148be576101008083540402835291602001916148e9565b820191906000526020600020905b8154815290600101906020018083116148cc57829003601f168201915b505050505081565b336148fa613c15565b6001600160a01b031614611e175760405162461bcd60e51b815260206004820181905260248201527f4f776e61626c653a2063616c6c6572206973206e6f7420746865206f776e65726044820152606401610933565b61495861205e565b15611e175760405162461bcd60e51b815260206004820152601060248201526f14185d5cd8589b194e881c185d5cd95960821b6044820152606401610933565b604051638bcad05360e01b815260009073__$29098fb509e6f00a7b9223a3b1aae53a23$__90638bcad053906149d49086908690600401615d8f565b60206040518083038186803b1580156149ec57600080fd5b505af4158015614a00573d6000803e3d6000fd5b505050506040513d601f19601f820116820180604052508101906126189190615452565b6040516318df7ec360e21b815260009073__$29098fb509e6f00a7b9223a3b1aae53a23$__9063637dfb0c90614a6090869086906004016159c6565b60206040518083038186803b158015614a7857600080fd5b505af4158015614a8c573d6000803e3d6000fd5b505050506040513d601f19601f820116820180604052508101906126189190615eb1565b614ab8614baa565b6000805460ff60a01b191690557f5db9ee0a495bf2e6ff9c91a7834c1ba4fdd244a5e8aa4e537bd38aeae4b073aa335b604051614af591906150ba565b60405180910390a1565b60006126188284615ece565b60006126188284615a1b565b600080546001600160a01b038381166001600160a01b0319831681178455604051919092169283917f8be0079c531659141344cd1fd0a4f28419497f9722a3daafe3b4186f6b6457e09190a35050565b614b6f614950565b6000805460ff60a01b1916600160a01b1790557f62e78cea01bee320cd4e420270b5ea74000d11b0c9f74754ebdbfc544b05a258614ae83390565b614bb261205e565b611e175760405162461bcd60e51b815260206004820152601460248201527314185d5cd8589b194e881b9bdd081c185d5cd95960621b6044820152606401610933565b6040805160a08101825260008082526020820181905291810182905260608101829052608081019190915290565b6040805161016081018252600080825260208201819052918101829052606081018290526080810182905260a0810182905260c0810182905260e081018290526101008101829052610120810182905261014081019190915290565b6001600160a01b03811681146147cf57600080fd5b600060208284031215614ca657600080fd5b813561261881614c7f565b634e487b7160e01b600052604160045260246000fd5b60405161016081016001600160401b0381118282101715614cea57614cea614cb1565b60405290565b604051608081016001600160401b0381118282101715614cea57614cea614cb1565b604051606081016001600160401b0381118282101715614cea57614cea614cb1565b604051601f8201601f191681016001600160401b0381118282101715614d5c57614d5c614cb1565b604052919050565b60006001600160401b03821115614d7d57614d7d614cb1565b50601f01601f191660200190565b60008060408385031215614d9e57600080fd5b8235614da981614c7f565b915060208301356001600160401b03811115614dc457600080fd5b8301601f81018513614dd557600080fd5b8035614de8614de382614d64565b614d34565b818152866020838501011115614dfd57600080fd5b816020840160208301376000602083830101528093505050509250929050565b6001600160a01b03169052565b614e35828251614e1d565b60208101516020830152604081015160408301526060810151614e5b6060840182614e1d565b506080810151608083015260a0810151614e7960a084018215159052565b5060c081015160c083015260e0810151614e9660e0840182614e1d565b5061010080820151614eaa82850182614e1d565b505061012080820151614ebf82850182614e1d565b505061014090810151910152565b6020808252825182820181905260009190848201906040850190845b81811015614f1057614efc838551614e2a565b928401926101609290920191600101614ee9565b50909695505050505050565b60005b83811015614f37578181015183820152602001614f1f565b83811115614f46576000848401525b50505050565b60008151808452614f64816020860160208601614f1c565b601f01601f19169290920160200192915050565b60018060a01b0381511682526000602082015160406020850152613af86040850182614f4c565b6020815260006126186020830184614f78565b60008060408385031215614fc557600080fd5b8235614fd081614c7f565b946020939093013593505050565b600080600060608486031215614ff357600080fd5b505081359360208301359350604090920135919050565b600080600080600080600060e0888a03121561502557600080fd5b873561503081614c7f565b965060208801359550604088013561504781614c7f565b945060608801359350608088013560ff8116811461506457600080fd5b9699959850939692959460a0840135945060c09093013592915050565b6000806040838503121561509457600080fd5b823561509f81614c7f565b915060208301356150af81614c7f565b809150509250929050565b6001600160a01b0391909116815260200190565b6000806000606084860312156150e357600080fd5b83356150ee81614c7f565b925060208401359150604084013561510581614c7f565b809150509250925092565b60008060008060008060c0878903121561512957600080fd5b863561513481614c7f565b95506020870135945060408701359350606087013561515281614c7f565b9598949750929560808101359460a0909101359350915050565b80516001600160a01b0390811683526020808301519084015260408083015190840152606080830151909116908301526080808201519083015260a090810151910152565b6020808252825182820181905260009190848201906040850190845b81811015614f10576151e083855161516c565b9284019260c092909201916001016151cd565b60c08101610874828461516c565b61016081016108748284614e2a565b6000602080830181845280855180835260408601915060408160051b870101925083870160005b8281101561526557603f19888603018452615253858351614f78565b94509285019290850190600101615237565b5092979650505050505050565b602080825282518282018190526000919060409081850190868401855b828110156152d757815180516001600160a01b03908116865287820151811688870152868201511686860152606090810151908501526080909301929085019060010161528f565b5091979650505050505050565b6000602080830181845280855180835260408601915060408160051b870101925083870160005b8281101561526557603f19888603018452615327858351614f78565b9450928501929085019060010161530b565b60006020828403121561534b57600080fd5b5035919050565b602080825282518282018190526000919060409081850190868401855b828110156152d757815180516001600160a01b039081168652878201511687860152850151858501526060909301929085019060010161536f565b6000602080830181845280855180835260408601915060408160051b870101925083870160005b8281101561526557603f198886030184526153ed858351614f78565b945092850192908501906001016153d1565b6020815260006126186020830184614f4c565b9182526001600160a01b0316602082015260400190565b60006020828403121561543b57600080fd5b5051919050565b8051801515811461205957600080fd5b60006020828403121561546457600080fd5b61261882615442565b602080825260039082015262524d3160e81b604082015260600190565b8381526001600160a01b03831660208201526060604082018190526000906154b490830184614f4c565b95945050505050565b60006001600160401b038211156154d6576154d6614cb1565b5060051b60200190565b805161205981614c7f565b600061016082840312156154fe57600080fd5b615506614cc7565b9050615511826154e0565b81526020820151602082015260408201516040820152615533606083016154e0565b60608201526080820151608082015261554e60a08301615442565b60a082015260c082015160c082015261556960e083016154e0565b60e082015261010061557c8184016154e0565b9082015261012061558e8382016154e0565b818301525061014080830151818301525092915050565b600060208083850312156155b857600080fd5b82516001600160401b038111156155ce57600080fd5b8301601f810185136155df57600080fd5b80516155ed614de3826154bd565b818152610160918202830184019184820191908884111561560d57600080fd5b938501935b838510156156335761562489866154eb565b83529384019391850191615612565b50979650505050505050565b60006040828403121561565157600080fd5b604080519081016001600160401b03808211838310171561567457615674614cb1565b816040528293508451915061568882614c7f565b9082526020840151908082111561569e57600080fd5b508301601f810185136156b057600080fd5b80516156be614de382614d64565b8181528660208385010111156156d357600080fd5b6156e4826020830160208601614f1c565b8060208501525050505092915050565b60006020828403121561570657600080fd5b81516001600160401b0381111561571c57600080fd5b613af88482850161563f565b9283526001600160a01b03919091166020830152604082015260600190565b9687526001600160a01b03958616602088015260408701949094526060860192909252909216608084015260a083019190915260c082015260e00190565b634e487b7160e01b600052601160045260246000fd5b600082198211156157ae576157ae615785565b500190565b602080825260039082015262524d3760e81b604082015260600190565b60208082526003908201526229269b60e91b604082015260600190565b600060c082840312156157ff57600080fd5b60405160c081016001600160401b038111828210171561582157615821614cb1565b8060405250809150825161583481614c7f565b808252506020830151602082015260408301516040820152606083015161585a81614c7f565b806060830152506080830151608082015260a083015160a08201525092915050565b600060c0828403121561588e57600080fd5b61261883836157ed565b6020808252600490820152630524d32360e41b604082015260600190565b6001600160a01b039384168152919092166020820152604081019190915260600190565b9384526001600160a01b039283166020850152604084019190915216606082015260800190565b6000610160828403121561591457600080fd5b61261883836154eb565b82815261018081016126186020830184614e2a565b9485526001600160a01b03938416602086015291831660408501529091166060830152608082015260a00190565b9788526001600160a01b039687166020890152604088019590955292151560608701526080860191909152831660a085015290911660c083015260e08201526101000190565b9283526001600160a01b03918216602084015216604082015260600190565b6001600160a01b03929092168252602082015260400190565b602080825260039082015262524d3360e81b604082015260600190565b6000816000190483118215151615615a1657615a16615785565b500290565b600082821015615a2d57615a2d615785565b500390565b9384526001600160a01b03928316602085015291166040830152606082015260800190565b602080825260039082015262524d3560e81b604082015260600190565b9485526001600160a01b0393841660208601526040850192909252606084015216608082015260a00190565b60006020808385031215615ab357600080fd5b82516001600160401b03811115615ac957600080fd5b8301601f81018513615ada57600080fd5b8051615ae8614de3826154bd565b81815260c09182028301840191848201919088841115615b0757600080fd5b938501935b8385101561563357615b1e89866157ed565b83529384019391850191615b0c565b6000615b3b614de3846154bd565b8381529050602080820190600585901b840186811115615b5a57600080fd5b845b81811015615b955780516001600160401b03811115615b7b5760008081fd5b615b878982890161563f565b855250928201928201615b5c565b505050509392505050565b600060208284031215615bb257600080fd5b81516001600160401b03811115615bc857600080fd5b8201601f81018413615bd957600080fd5b613af884825160208401615b2d565b60006020808385031215615bfb57600080fd5b82516001600160401b03811115615c1157600080fd5b8301601f81018513615c2257600080fd5b8051615c30614de3826154bd565b81815260079190911b82018301908381019087831115615c4f57600080fd5b928401925b82841015615cc15760808489031215615c6d5760008081fd5b615c75614cf0565b8451615c8081614c7f565b815284860151615c8f81614c7f565b81870152604085810151615ca281614c7f565b9082015260608581015190820152825260809093019290840190615c54565b979650505050505050565b60006020808385031215615cdf57600080fd5b82516001600160401b03811115615cf557600080fd5b8301601f81018513615d0657600080fd5b8051615d14614de3826154bd565b81815260609182028301840191848201919088841115615d3357600080fd5b938501935b838510156156335780858a031215615d505760008081fd5b615d58614d12565b8551615d6381614c7f565b815285870151615d7281614c7f565b818801526040868101519082015283529384019391850191615d38565b6001600160a01b0392831681529116602082015260400190565b634e487b7160e01b600052603260045260246000fd5b600181811c90821680615dd357607f821691505b60208210811415615df457634e487b7160e01b600052602260045260246000fd5b50919050565b600080835481600182811c915080831680615e1657607f831692505b6020808410821415615e3657634e487b7160e01b86526022600452602486fd5b818015615e4a5760018114615e5b57615e88565b60ff19861689528489019650615e88565b60008a81526020902060005b86811015615e805781548b820152908501908301615e67565b505084890196505b509498975050505050505050565b6000600019821415615eaa57615eaa615785565b5060010190565b600060208284031215615ec357600080fd5b815161261881614c7f565b600082615eeb57634e487b7160e01b600052601260045260246000fd5b50049056fefe632cd15df82b5e105c28c0d0da9eb0228667912a4b1e430151d7c0d9227759a2646970667358221220591154c0cda9404c33d6bfc311b4720b4d904dde66c0f39657a2b688c0559bc664736f6c63430008090033",
  "linkReferences": {
    "contracts/iterableMapLib.sol": {
      "accountBalanceIterableMap": [
        {
          "length": 20,
          "start": 2506
        },
        {
          "length": 20,
          "start": 7262
        },
        {
          "length": 20,
          "start": 7927
        },
        {
          "length": 20,
          "start": 9331
        },
        {
          "length": 20,
          "start": 9481
        },
        {
          "length": 20,
          "start": 9630
        },
        {
          "length": 20,
          "start": 11525
        },
        {
          "length": 20,
          "start": 11750
        },
        {
          "length": 20,
          "start": 11900
        },
        {
          "length": 20,
          "start": 12049
        },
        {
          "length": 20,
          "start": 13386
        },
        {
          "length": 20,
          "start": 16965
        },
        {
          "length": 20,
          "start": 18291
        },
        {
          "length": 20,
          "start": 18459
        }
      ],
      "collectionDataIterableMap": [
        {
          "length": 20,
          "start": 2668
        },
        {
          "length": 20,
          "start": 2847
        },
        {
          "length": 20,
          "start": 3721
        },
        {
          "length": 20,
          "start": 3915
        },
        {
          "length": 20,
          "start": 16019
        },
        {
          "length": 20,
          "start": 16193
        },
        {
          "length": 20,
          "start": 16341
        },
        {
          "length": 20,
          "start": 17112
        },
        {
          "length": 20,
          "start": 18696
        }
      ],
      "pendingRentFeeIterableMap": [
        {
          "length": 20,
          "start": 6504
        },
        {
          "length": 20,
          "start": 9796
        },
        {
          "length": 20,
          "start": 14928
        },
        {
          "length": 20,
          "start": 15733
        }
      ],
      "registerDataIterableMap": [
        {
          "length": 20,
          "start": 3408
        },
        {
          "length": 20,
          "start": 4121
        },
        {
          "length": 20,
          "start": 4645
        },
        {
          "length": 20,
          "start": 5094
        },
        {
          "length": 20,
          "start": 10338
        },
        {
          "length": 20,
          "start": 10700
        },
        {
          "length": 20,
          "start": 12689
        },
        {
          "length": 20,
          "start": 13464
        },
        {
          "length": 20,
          "start": 13810
        },
        {
          "length": 20,
          "start": 14008
        },
        {
          "length": 20,
          "start": 15269
        },
        {
          "length": 20,
          "start": 17287
        },
        {
          "length": 20,
          "start": 17463
        },
        {
          "length": 20,
          "start": 17609
        },
        {
          "length": 20,
          "start": 18869
        }
      ],
      "rentDataIterableMap": [
        {
          "length": 20,
          "start": 3095
        },
        {
          "length": 20,
          "start": 4405
        },
        {
          "length": 20,
          "start": 5761
        },
        {
          "length": 20,
          "start": 5916
        },
        {
          "length": 20,
          "start": 6069
        },
        {
          "length": 20,
          "start": 6350
        },
        {
          "length": 20,
          "start": 8785
        },
        {
          "length": 20,
          "start": 8988
        },
        {
          "length": 20,
          "start": 9948
        },
        {
          "length": 20,
          "start": 10997
        },
        {
          "length": 20,
          "start": 11227
        },
        {
          "length": 20,
          "start": 12206
        },
        {
          "length": 20,
          "start": 12355
        },
        {
          "length": 20,
          "start": 14155
        },
        {
          "length": 20,
          "start": 14310
        },
        {
          "length": 20,
          "start": 14463
        },
        {
          "length": 20,
          "start": 14768
        },
        {
          "length": 20,
          "start": 15433
        },
        {
          "length": 20,
          "start": 15951
        }
      ],
      "serviceDataIterableMap": [
        {
          "length": 20,
          "start": 3256
        },
        {
          "length": 20,
          "start": 4818
        },
        {
          "length": 20,
          "start": 6777
        },
        {
          "length": 20,
          "start": 6947
        },
        {
          "length": 20,
          "start": 8195
        },
        {
          "length": 20,
          "start": 8369
        },
        {
          "length": 20,
          "start": 8517
        },
        {
          "length": 20,
          "start": 13637
        },
        {
          "length": 20,
          "start": 15886
        }
      ],
      "tokenDataIterableMap": [
        {
          "length": 20,
          "start": 10526
        },
        {
          "length": 20,
          "start": 12845
        },
        {
          "length": 20,
          "start": 13019
        },
        {
          "length": 20,
          "start": 13167
        },
        {
          "length": 20,
          "start": 15594
        },
        {
          "length": 20,
          "start": 16575
        },
        {
          "length": 20,
          "start": 16745
        }
      ]
    },
    "contracts/utilFunctions.sol": {
      "utilFunctions": [
        {
          "length": 20,
          "start": 19323
        },
        {
          "length": 20,
          "start": 19463
        }
      ]
    }
  },
  "deployedLinkReferences": {
    "contracts/iterableMapLib.sol": {
      "accountBalanceIterableMap": [
        {
          "length": 20,
          "start": 2041
        },
        {
          "length": 20,
          "start": 6797
        },
        {
          "length": 20,
          "start": 7462
        },
        {
          "length": 20,
          "start": 8866
        },
        {
          "length": 20,
          "start": 9016
        },
        {
          "length": 20,
          "start": 9165
        },
        {
          "length": 20,
          "start": 11060
        },
        {
          "length": 20,
          "start": 11285
        },
        {
          "length": 20,
          "start": 11435
        },
        {
          "length": 20,
          "start": 11584
        },
        {
          "length": 20,
          "start": 12921
        },
        {
          "length": 20,
          "start": 16500
        },
        {
          "length": 20,
          "start": 17826
        },
        {
          "length": 20,
          "start": 17994
        }
      ],
      "collectionDataIterableMap": [
        {
          "length": 20,
          "start": 2203
        },
        {
          "length": 20,
          "start": 2382
        },
        {
          "length": 20,
          "start": 3256
        },
        {
          "length": 20,
          "start": 3450
        },
        {
          "length": 20,
          "start": 15554
        },
        {
          "length": 20,
          "start": 15728
        },
        {
          "length": 20,
          "start": 15876
        },
        {
          "length": 20,
          "start": 16647
        },
        {
          "length": 20,
          "start": 18231
        }
      ],
      "pendingRentFeeIterableMap": [
        {
          "length": 20,
          "start": 6039
        },
        {
          "length": 20,
          "start": 9331
        },
        {
          "length": 20,
          "start": 14463
        },
        {
          "length": 20,
          "start": 15268
        }
      ],
      "registerDataIterableMap": [
        {
          "length": 20,
          "start": 2943
        },
        {
          "length": 20,
          "start": 3656
        },
        {
          "length": 20,
          "start": 4180
        },
        {
          "length": 20,
          "start": 4629
        },
        {
          "length": 20,
          "start": 9873
        },
        {
          "length": 20,
          "start": 10235
        },
        {
          "length": 20,
          "start": 12224
        },
        {
          "length": 20,
          "start": 12999
        },
        {
          "length": 20,
          "start": 13345
        },
        {
          "length": 20,
          "start": 13543
        },
        {
          "length": 20,
          "start": 14804
        },
        {
          "length": 20,
          "start": 16822
        },
        {
          "length": 20,
          "start": 16998
        },
        {
          "length": 20,
          "start": 17144
        },
        {
          "length": 20,
          "start": 18404
        }
      ],
      "rentDataIterableMap": [
        {
          "length": 20,
          "start": 2630
        },
        {
          "length": 20,
          "start": 3940
        },
        {
          "length": 20,
          "start": 5296
        },
        {
          "length": 20,
          "start": 5451
        },
        {
          "length": 20,
          "start": 5604
        },
        {
          "length": 20,
          "start": 5885
        },
        {
          "length": 20,
          "start": 8320
        },
        {
          "length": 20,
          "start": 8523
        },
        {
          "length": 20,
          "start": 9483
        },
        {
          "length": 20,
          "start": 10532
        },
        {
          "length": 20,
          "start": 10762
        },
        {
          "length": 20,
          "start": 11741
        },
        {
          "length": 20,
          "start": 11890
        },
        {
          "length": 20,
          "start": 13690
        },
        {
          "length": 20,
          "start": 13845
        },
        {
          "length": 20,
          "start": 13998
        },
        {
          "length": 20,
          "start": 14303
        },
        {
          "length": 20,
          "start": 14968
        },
        {
          "length": 20,
          "start": 15486
        }
      ],
      "serviceDataIterableMap": [
        {
          "length": 20,
          "start": 2791
        },
        {
          "length": 20,
          "start": 4353
        },
        {
          "length": 20,
          "start": 6312
        },
        {
          "length": 20,
          "start": 6482
        },
        {
          "length": 20,
          "start": 7730
        },
        {
          "length": 20,
          "start": 7904
        },
        {
          "length": 20,
          "start": 8052
        },
        {
          "length": 20,
          "start": 13172
        },
        {
          "length": 20,
          "start": 15421
        }
      ],
      "tokenDataIterableMap": [
        {
          "length": 20,
          "start": 10061
        },
        {
          "length": 20,
          "start": 12380
        },
        {
          "length": 20,
          "start": 12554
        },
        {
          "length": 20,
          "start": 12702
        },
        {
          "length": 20,
          "start": 15129
        },
        {
          "length": 20,
          "start": 16110
        },
        {
          "length": 20,
          "start": 16280
        }
      ]
    },
    "contracts/utilFunctions.sol": {
      "utilFunctions": [
        {
          "length": 20,
          "start": 18858
        },
        {
          "length": 20,
          "start": 18998
        }
      ]
    }
  }
}