{
  "_format": "hh-sol-artifact-1",
  "contractName": "rentMarket",
  "sourceName": "contracts/rentMarket.sol",
  "abi": [
    {
      "inputs": [],
      "stateMutability": "nonpayable",
      "type": "constructor"
    },
    {
      "anonymous": false,
      "inputs": [
        {
          "indexed": true,
          "internalType": "address",
          "name": "nftAddress",
          "type": "address"
        },
        {
          "indexed": true,
          "internalType": "uint256",
          "name": "tokenId",
          "type": "uint256"
        },
        {
          "indexed": false,
          "internalType": "uint256",
          "name": "rentFee",
          "type": "uint256"
        },
        {
          "indexed": false,
          "internalType": "address",
          "name": "feeTokenAddress",
          "type": "address"
        },
        {
          "indexed": false,
          "internalType": "uint256",
          "name": "rentFeeByToken",
          "type": "uint256"
        },
        {
          "indexed": false,
          "internalType": "uint256",
          "name": "rentDuration",
          "type": "uint256"
        },
        {
          "indexed": false,
          "internalType": "address",
          "name": "NFTOwnerAddress",
          "type": "address"
        },
        {
          "indexed": true,
          "internalType": "address",
          "name": "changerAddress",
          "type": "address"
        }
      ],
      "name": "ChangeNFT",
      "type": "event"
    },
    {
      "anonymous": false,
      "inputs": [
        {
          "indexed": true,
          "internalType": "address",
          "name": "sender",
          "type": "address"
        }
      ],
      "name": "Fallback",
      "type": "event"
    },
    {
      "anonymous": false,
      "inputs": [
        {
          "indexed": true,
          "internalType": "address",
          "name": "previousOwner",
          "type": "address"
        },
        {
          "indexed": true,
          "internalType": "address",
          "name": "newOwner",
          "type": "address"
        }
      ],
      "name": "OwnershipTransferred",
      "type": "event"
    },
    {
      "anonymous": false,
      "inputs": [
        {
          "indexed": false,
          "internalType": "address",
          "name": "account",
          "type": "address"
        }
      ],
      "name": "Paused",
      "type": "event"
    },
    {
      "anonymous": false,
      "inputs": [
        {
          "indexed": true,
          "internalType": "address",
          "name": "sender",
          "type": "address"
        },
        {
          "indexed": true,
          "internalType": "uint256",
          "name": "value",
          "type": "uint256"
        }
      ],
      "name": "Receive",
      "type": "event"
    },
    {
      "anonymous": false,
      "inputs": [
        {
          "indexed": true,
          "internalType": "address",
          "name": "collectionAddress",
          "type": "address"
        },
        {
          "indexed": false,
          "internalType": "string",
          "name": "uri",
          "type": "string"
        }
      ],
      "name": "RegisterCollection",
      "type": "event"
    },
    {
      "anonymous": false,
      "inputs": [
        {
          "indexed": true,
          "internalType": "address",
          "name": "nftAddress",
          "type": "address"
        },
        {
          "indexed": true,
          "internalType": "uint256",
          "name": "tokenId",
          "type": "uint256"
        },
        {
          "indexed": false,
          "internalType": "uint256",
          "name": "rentFee",
          "type": "uint256"
        },
        {
          "indexed": false,
          "internalType": "uint256",
          "name": "rentDuration",
          "type": "uint256"
        },
        {
          "indexed": true,
          "internalType": "address",
          "name": "NFTOwnerAddress",
          "type": "address"
        }
      ],
      "name": "RegisterNFT",
      "type": "event"
    },
    {
      "anonymous": false,
      "inputs": [
        {
          "indexed": true,
          "internalType": "address",
          "name": "serviceAddress",
          "type": "address"
        },
        {
          "indexed": false,
          "internalType": "string",
          "name": "uri",
          "type": "string"
        }
      ],
      "name": "RegisterService",
      "type": "event"
    },
    {
      "anonymous": false,
      "inputs": [
        {
          "indexed": true,
          "internalType": "address",
          "name": "tokenAddress",
          "type": "address"
        },
        {
          "indexed": false,
          "internalType": "string",
          "name": "name",
          "type": "string"
        }
      ],
      "name": "RegisterToken",
      "type": "event"
    },
    {
      "anonymous": false,
      "inputs": [
        {
          "indexed": true,
          "internalType": "address",
          "name": "nftAddress",
          "type": "address"
        },
        {
          "indexed": true,
          "internalType": "uint256",
          "name": "tokenId",
          "type": "uint256"
        },
        {
          "indexed": false,
          "internalType": "uint256",
          "name": "rentFee",
          "type": "uint256"
        },
        {
          "indexed": false,
          "internalType": "address",
          "name": "feeTokenAddress",
          "type": "address"
        },
        {
          "indexed": false,
          "internalType": "uint256",
          "name": "rentFeeByToken",
          "type": "uint256"
        },
        {
          "indexed": false,
          "internalType": "bool",
          "name": "isRentByToken",
          "type": "bool"
        },
        {
          "indexed": false,
          "internalType": "uint256",
          "name": "rentDuration",
          "type": "uint256"
        },
        {
          "indexed": false,
          "internalType": "address",
          "name": "renterAddress",
          "type": "address"
        },
        {
          "indexed": true,
          "internalType": "address",
          "name": "renteeAddress",
          "type": "address"
        },
        {
          "indexed": false,
          "internalType": "address",
          "name": "serviceAddress",
          "type": "address"
        },
        {
          "indexed": false,
          "internalType": "uint256",
          "name": "rentStartTimestamp",
          "type": "uint256"
        }
      ],
      "name": "RentNFT",
      "type": "event"
    },
    {
      "anonymous": false,
      "inputs": [
        {
          "indexed": true,
          "internalType": "address",
          "name": "nftAddress",
          "type": "address"
        },
        {
          "indexed": true,
          "internalType": "uint256",
          "name": "tokenId",
          "type": "uint256"
        },
        {
          "indexed": false,
          "internalType": "uint256",
          "name": "rentFee",
          "type": "uint256"
        },
        {
          "indexed": false,
          "internalType": "address",
          "name": "feeTokenAddress",
          "type": "address"
        },
        {
          "indexed": false,
          "internalType": "uint256",
          "name": "rentFeeByToken",
          "type": "uint256"
        },
        {
          "indexed": false,
          "internalType": "bool",
          "name": "isRentByToken",
          "type": "bool"
        },
        {
          "indexed": false,
          "internalType": "uint256",
          "name": "rentDuration",
          "type": "uint256"
        },
        {
          "indexed": false,
          "internalType": "address",
          "name": "renterAddress",
          "type": "address"
        },
        {
          "indexed": true,
          "internalType": "address",
          "name": "renteeAddress",
          "type": "address"
        },
        {
          "indexed": false,
          "internalType": "address",
          "name": "serviceAddress",
          "type": "address"
        },
        {
          "indexed": false,
          "internalType": "uint256",
          "name": "rentStartTimestamp",
          "type": "uint256"
        }
      ],
      "name": "SettleRentData",
      "type": "event"
    },
    {
      "anonymous": false,
      "inputs": [
        {
          "indexed": false,
          "internalType": "address",
          "name": "account",
          "type": "address"
        }
      ],
      "name": "Unpaused",
      "type": "event"
    },
    {
      "anonymous": false,
      "inputs": [
        {
          "indexed": true,
          "internalType": "address",
          "name": "collectionAddress",
          "type": "address"
        },
        {
          "indexed": false,
          "internalType": "string",
          "name": "uri",
          "type": "string"
        }
      ],
      "name": "UnregisterCollection",
      "type": "event"
    },
    {
      "anonymous": false,
      "inputs": [
        {
          "indexed": true,
          "internalType": "address",
          "name": "nftAddress",
          "type": "address"
        },
        {
          "indexed": true,
          "internalType": "uint256",
          "name": "tokenId",
          "type": "uint256"
        },
        {
          "indexed": false,
          "internalType": "uint256",
          "name": "rentFee",
          "type": "uint256"
        },
        {
          "indexed": false,
          "internalType": "address",
          "name": "feeTokenAddress",
          "type": "address"
        },
        {
          "indexed": false,
          "internalType": "uint256",
          "name": "rentFeeByToken",
          "type": "uint256"
        },
        {
          "indexed": false,
          "internalType": "uint256",
          "name": "rentDuration",
          "type": "uint256"
        },
        {
          "indexed": false,
          "internalType": "address",
          "name": "NFTOwnerAddress",
          "type": "address"
        },
        {
          "indexed": true,
          "internalType": "address",
          "name": "UnregisterAddress",
          "type": "address"
        }
      ],
      "name": "UnregisterNFT",
      "type": "event"
    },
    {
      "anonymous": false,
      "inputs": [
        {
          "indexed": true,
          "internalType": "address",
          "name": "serviceAddress",
          "type": "address"
        },
        {
          "indexed": false,
          "internalType": "string",
          "name": "uri",
          "type": "string"
        }
      ],
      "name": "UnregisterService",
      "type": "event"
    },
    {
      "anonymous": false,
      "inputs": [
        {
          "indexed": true,
          "internalType": "address",
          "name": "tokenAddress",
          "type": "address"
        },
        {
          "indexed": false,
          "internalType": "string",
          "name": "name",
          "type": "string"
        }
      ],
      "name": "UnregisterToken",
      "type": "event"
    },
    {
      "anonymous": false,
      "inputs": [
        {
          "indexed": true,
          "internalType": "address",
          "name": "nftAddress",
          "type": "address"
        },
        {
          "indexed": true,
          "internalType": "uint256",
          "name": "tokenId",
          "type": "uint256"
        },
        {
          "indexed": false,
          "internalType": "uint256",
          "name": "rentFee",
          "type": "uint256"
        },
        {
          "indexed": false,
          "internalType": "address",
          "name": "feeTokenAddress",
          "type": "address"
        },
        {
          "indexed": false,
          "internalType": "uint256",
          "name": "rentFeeByToken",
          "type": "uint256"
        },
        {
          "indexed": false,
          "internalType": "bool",
          "name": "isRentByToken",
          "type": "bool"
        },
        {
          "indexed": false,
          "internalType": "uint256",
          "name": "rentDuration",
          "type": "uint256"
        },
        {
          "indexed": false,
          "internalType": "address",
          "name": "renterAddress",
          "type": "address"
        },
        {
          "indexed": true,
          "internalType": "address",
          "name": "renteeAddress",
          "type": "address"
        },
        {
          "indexed": false,
          "internalType": "address",
          "name": "serviceAddress",
          "type": "address"
        },
        {
          "indexed": false,
          "internalType": "uint256",
          "name": "rentStartTimestamp",
          "type": "uint256"
        }
      ],
      "name": "UnrentNFT",
      "type": "event"
    },
    {
      "anonymous": false,
      "inputs": [
        {
          "indexed": true,
          "internalType": "address",
          "name": "recipient",
          "type": "address"
        },
        {
          "indexed": true,
          "internalType": "address",
          "name": "tokenAddress",
          "type": "address"
        },
        {
          "indexed": true,
          "internalType": "uint256",
          "name": "amount",
          "type": "uint256"
        }
      ],
      "name": "WithdrawMyBalance",
      "type": "event"
    },
    {
      "stateMutability": "payable",
      "type": "fallback"
    },
    {
      "inputs": [
        {
          "internalType": "address",
          "name": "nftAddress",
          "type": "address"
        },
        {
          "internalType": "uint256",
          "name": "tokenId",
          "type": "uint256"
        },
        {
          "internalType": "uint256",
          "name": "rentFee",
          "type": "uint256"
        },
        {
          "internalType": "address",
          "name": "feeTokenAddress",
          "type": "address"
        },
        {
          "internalType": "uint256",
          "name": "rentFeeByToken",
          "type": "uint256"
        },
        {
          "internalType": "uint256",
          "name": "rentDuration",
          "type": "uint256"
        }
      ],
      "name": "changeNFT",
      "outputs": [
        {
          "internalType": "bool",
          "name": "success",
          "type": "bool"
        }
      ],
      "stateMutability": "nonpayable",
      "type": "function"
    },
    {
      "inputs": [
        {
          "internalType": "address",
          "name": "tokenAddress_",
          "type": "address"
        },
        {
          "internalType": "address",
          "name": "rewardTokenShareContractAddress_",
          "type": "address"
        }
      ],
      "name": "distributeVestingToken",
      "outputs": [],
      "stateMutability": "nonpayable",
      "type": "function"
    },
    {
      "inputs": [],
      "name": "getAllAccountBalance",
      "outputs": [
        {
          "components": [
            {
              "internalType": "address",
              "name": "accountAddress",
              "type": "address"
            },
            {
              "internalType": "address",
              "name": "tokenAddress",
              "type": "address"
            },
            {
              "internalType": "uint256",
              "name": "amount",
              "type": "uint256"
            }
          ],
          "internalType": "struct accountBalanceIterableMap.accountBalance[]",
          "name": "",
          "type": "tuple[]"
        }
      ],
      "stateMutability": "view",
      "type": "function"
    },
    {
      "inputs": [],
      "name": "getAllCollection",
      "outputs": [
        {
          "components": [
            {
              "internalType": "address",
              "name": "collectionAddress",
              "type": "address"
            },
            {
              "internalType": "string",
              "name": "uri",
              "type": "string"
            }
          ],
          "internalType": "struct collectionDataIterableMap.collectionData[]",
          "name": "",
          "type": "tuple[]"
        }
      ],
      "stateMutability": "view",
      "type": "function"
    },
    {
      "inputs": [],
      "name": "getAllPendingRentFee",
      "outputs": [
        {
          "components": [
            {
              "internalType": "address",
              "name": "renterAddress",
              "type": "address"
            },
            {
              "internalType": "address",
              "name": "serviceAddress",
              "type": "address"
            },
            {
              "internalType": "address",
              "name": "feeTokenAddress",
              "type": "address"
            },
            {
              "internalType": "uint256",
              "name": "amount",
              "type": "uint256"
            }
          ],
          "internalType": "struct pendingRentFeeIterableMap.pendingRentFee[]",
          "name": "",
          "type": "tuple[]"
        }
      ],
      "stateMutability": "view",
      "type": "function"
    },
    {
      "inputs": [],
      "name": "getAllRegisterData",
      "outputs": [
        {
          "components": [
            {
              "internalType": "address",
              "name": "nftAddress",
              "type": "address"
            },
            {
              "internalType": "uint256",
              "name": "tokenId",
              "type": "uint256"
            },
            {
              "internalType": "uint256",
              "name": "rentFee",
              "type": "uint256"
            },
            {
              "internalType": "address",
              "name": "feeTokenAddress",
              "type": "address"
            },
            {
              "internalType": "uint256",
              "name": "rentFeeByToken",
              "type": "uint256"
            },
            {
              "internalType": "uint256",
              "name": "rentDuration",
              "type": "uint256"
            }
          ],
          "internalType": "struct registerDataIterableMap.registerData[]",
          "name": "",
          "type": "tuple[]"
        }
      ],
      "stateMutability": "view",
      "type": "function"
    },
    {
      "inputs": [],
      "name": "getAllRentData",
      "outputs": [
        {
          "components": [
            {
              "internalType": "address",
              "name": "nftAddress",
              "type": "address"
            },
            {
              "internalType": "uint256",
              "name": "tokenId",
              "type": "uint256"
            },
            {
              "internalType": "uint256",
              "name": "rentFee",
              "type": "uint256"
            },
            {
              "internalType": "address",
              "name": "feeTokenAddress",
              "type": "address"
            },
            {
              "internalType": "uint256",
              "name": "rentFeeByToken",
              "type": "uint256"
            },
            {
              "internalType": "bool",
              "name": "isRentByToken",
              "type": "bool"
            },
            {
              "internalType": "uint256",
              "name": "rentDuration",
              "type": "uint256"
            },
            {
              "internalType": "address",
              "name": "renterAddress",
              "type": "address"
            },
            {
              "internalType": "address",
              "name": "renteeAddress",
              "type": "address"
            },
            {
              "internalType": "address",
              "name": "serviceAddress",
              "type": "address"
            },
            {
              "internalType": "uint256",
              "name": "rentStartTimestamp",
              "type": "uint256"
            }
          ],
          "internalType": "struct rentDataIterableMap.rentData[]",
          "name": "",
          "type": "tuple[]"
        }
      ],
      "stateMutability": "view",
      "type": "function"
    },
    {
      "inputs": [],
      "name": "getAllService",
      "outputs": [
        {
          "components": [
            {
              "internalType": "address",
              "name": "serviceAddress",
              "type": "address"
            },
            {
              "internalType": "string",
              "name": "uri",
              "type": "string"
            }
          ],
          "internalType": "struct serviceDataIterableMap.serviceData[]",
          "name": "",
          "type": "tuple[]"
        }
      ],
      "stateMutability": "view",
      "type": "function"
    },
    {
      "inputs": [],
      "name": "getAllToken",
      "outputs": [
        {
          "components": [
            {
              "internalType": "address",
              "name": "tokenAddress",
              "type": "address"
            },
            {
              "internalType": "string",
              "name": "name",
              "type": "string"
            }
          ],
          "internalType": "struct tokenDataIterableMap.tokenData[]",
          "name": "",
          "type": "tuple[]"
        }
      ],
      "stateMutability": "view",
      "type": "function"
    },
    {
      "inputs": [
        {
          "internalType": "address",
          "name": "collectionAddress",
          "type": "address"
        }
      ],
      "name": "getCollection",
      "outputs": [
        {
          "components": [
            {
              "internalType": "address",
              "name": "collectionAddress",
              "type": "address"
            },
            {
              "internalType": "string",
              "name": "uri",
              "type": "string"
            }
          ],
          "internalType": "struct collectionDataIterableMap.collectionData",
          "name": "",
          "type": "tuple"
        }
      ],
      "stateMutability": "view",
      "type": "function"
    },
    {
      "inputs": [],
      "name": "getFeeQuota",
      "outputs": [
        {
          "internalType": "uint256",
          "name": "renterFeeQuota",
          "type": "uint256"
        },
        {
          "internalType": "uint256",
          "name": "serviceFeeQuota",
          "type": "uint256"
        },
        {
          "internalType": "uint256",
          "name": "marketFeeQuota",
          "type": "uint256"
        }
      ],
      "stateMutability": "view",
      "type": "function"
    },
    {
      "inputs": [],
      "name": "getMarketShareAddress",
      "outputs": [
        {
          "internalType": "address",
          "name": "shareAddress",
          "type": "address"
        }
      ],
      "stateMutability": "view",
      "type": "function"
    },
    {
      "inputs": [
        {
          "internalType": "address",
          "name": "tokenAddress",
          "type": "address"
        }
      ],
      "name": "getMyBalance",
      "outputs": [
        {
          "internalType": "uint256",
          "name": "balance",
          "type": "uint256"
        }
      ],
      "stateMutability": "view",
      "type": "function"
    },
    {
      "inputs": [
        {
          "internalType": "address",
          "name": "nftAddress",
          "type": "address"
        },
        {
          "internalType": "uint256",
          "name": "tokenId",
          "type": "uint256"
        }
      ],
      "name": "getRegisterData",
      "outputs": [
        {
          "components": [
            {
              "internalType": "address",
              "name": "nftAddress",
              "type": "address"
            },
            {
              "internalType": "uint256",
              "name": "tokenId",
              "type": "uint256"
            },
            {
              "internalType": "uint256",
              "name": "rentFee",
              "type": "uint256"
            },
            {
              "internalType": "address",
              "name": "feeTokenAddress",
              "type": "address"
            },
            {
              "internalType": "uint256",
              "name": "rentFeeByToken",
              "type": "uint256"
            },
            {
              "internalType": "uint256",
              "name": "rentDuration",
              "type": "uint256"
            }
          ],
          "internalType": "struct registerDataIterableMap.registerData",
          "name": "",
          "type": "tuple"
        }
      ],
      "stateMutability": "view",
      "type": "function"
    },
    {
      "inputs": [
        {
          "internalType": "address",
          "name": "nftAddress",
          "type": "address"
        },
        {
          "internalType": "uint256",
          "name": "tokenId",
          "type": "uint256"
        }
      ],
      "name": "getRentData",
      "outputs": [
        {
          "components": [
            {
              "internalType": "address",
              "name": "nftAddress",
              "type": "address"
            },
            {
              "internalType": "uint256",
              "name": "tokenId",
              "type": "uint256"
            },
            {
              "internalType": "uint256",
              "name": "rentFee",
              "type": "uint256"
            },
            {
              "internalType": "address",
              "name": "feeTokenAddress",
              "type": "address"
            },
            {
              "internalType": "uint256",
              "name": "rentFeeByToken",
              "type": "uint256"
            },
            {
              "internalType": "bool",
              "name": "isRentByToken",
              "type": "bool"
            },
            {
              "internalType": "uint256",
              "name": "rentDuration",
              "type": "uint256"
            },
            {
              "internalType": "address",
              "name": "renterAddress",
              "type": "address"
            },
            {
              "internalType": "address",
              "name": "renteeAddress",
              "type": "address"
            },
            {
              "internalType": "address",
              "name": "serviceAddress",
              "type": "address"
            },
            {
              "internalType": "uint256",
              "name": "rentStartTimestamp",
              "type": "uint256"
            }
          ],
          "internalType": "struct rentDataIterableMap.rentData",
          "name": "",
          "type": "tuple"
        }
      ],
      "stateMutability": "view",
      "type": "function"
    },
    {
      "inputs": [
        {
          "internalType": "address",
          "name": "serviceAddress",
          "type": "address"
        }
      ],
      "name": "getService",
      "outputs": [
        {
          "components": [
            {
              "internalType": "address",
              "name": "serviceAddress",
              "type": "address"
            },
            {
              "internalType": "string",
              "name": "uri",
              "type": "string"
            }
          ],
          "internalType": "struct serviceDataIterableMap.serviceData",
          "name": "",
          "type": "tuple"
        }
      ],
      "stateMutability": "view",
      "type": "function"
    },
    {
      "inputs": [],
      "name": "getThreshold",
      "outputs": [
        {
          "internalType": "uint256",
          "name": "",
          "type": "uint256"
        }
      ],
      "stateMutability": "view",
      "type": "function"
    },
    {
      "inputs": [
        {
          "internalType": "address",
          "name": "tokenAddress_",
          "type": "address"
        }
      ],
      "name": "getTotalAccountBalance",
      "outputs": [
        {
          "internalType": "uint256",
          "name": "totalAccountBalance_",
          "type": "uint256"
        }
      ],
      "stateMutability": "view",
      "type": "function"
    },
    {
      "inputs": [],
      "name": "owner",
      "outputs": [
        {
          "internalType": "address",
          "name": "",
          "type": "address"
        }
      ],
      "stateMutability": "view",
      "type": "function"
    },
    {
      "inputs": [],
      "name": "pause",
      "outputs": [],
      "stateMutability": "nonpayable",
      "type": "function"
    },
    {
      "inputs": [],
      "name": "paused",
      "outputs": [
        {
          "internalType": "bool",
          "name": "",
          "type": "bool"
        }
      ],
      "stateMutability": "view",
      "type": "function"
    },
    {
      "inputs": [
        {
          "internalType": "address",
          "name": "collectionAddress",
          "type": "address"
        },
        {
          "internalType": "string",
          "name": "uri",
          "type": "string"
        }
      ],
      "name": "registerCollection",
      "outputs": [
        {
          "internalType": "bool",
          "name": "success",
          "type": "bool"
        }
      ],
      "stateMutability": "nonpayable",
      "type": "function"
    },
    {
      "inputs": [
        {
          "internalType": "address",
          "name": "nftAddress",
          "type": "address"
        },
        {
          "internalType": "uint256",
          "name": "tokenId",
          "type": "uint256"
        }
      ],
      "name": "registerNFT",
      "outputs": [
        {
          "internalType": "bool",
          "name": "success",
          "type": "bool"
        }
      ],
      "stateMutability": "nonpayable",
      "type": "function"
    },
    {
      "inputs": [
        {
          "internalType": "address",
          "name": "serviceAddress",
          "type": "address"
        },
        {
          "internalType": "string",
          "name": "uri",
          "type": "string"
        }
      ],
      "name": "registerService",
      "outputs": [
        {
          "internalType": "bool",
          "name": "success",
          "type": "bool"
        }
      ],
      "stateMutability": "nonpayable",
      "type": "function"
    },
    {
      "inputs": [
        {
          "internalType": "address",
          "name": "tokenAddress",
          "type": "address"
        },
        {
          "internalType": "string",
          "name": "name",
          "type": "string"
        }
      ],
      "name": "registerToken",
      "outputs": [
        {
          "internalType": "bool",
          "name": "success",
          "type": "bool"
        }
      ],
      "stateMutability": "nonpayable",
      "type": "function"
    },
    {
      "inputs": [],
      "name": "renounceOwnership",
      "outputs": [],
      "stateMutability": "nonpayable",
      "type": "function"
    },
    {
      "inputs": [
        {
          "internalType": "address",
          "name": "nftAddress",
          "type": "address"
        },
        {
          "internalType": "uint256",
          "name": "tokenId",
          "type": "uint256"
        },
        {
          "internalType": "address",
          "name": "serviceAddress",
          "type": "address"
        }
      ],
      "name": "rentNFT",
      "outputs": [
        {
          "internalType": "bool",
          "name": "success",
          "type": "bool"
        }
      ],
      "stateMutability": "payable",
      "type": "function"
    },
    {
      "inputs": [
        {
          "internalType": "address",
          "name": "nftAddress",
          "type": "address"
        },
        {
          "internalType": "uint256",
          "name": "tokenId",
          "type": "uint256"
        },
        {
          "internalType": "address",
          "name": "serviceAddress",
          "type": "address"
        },
        {
          "internalType": "uint256",
          "name": "deadline",
          "type": "uint256"
        },
        {
          "internalType": "uint8",
          "name": "v",
          "type": "uint8"
        },
        {
          "internalType": "bytes32",
          "name": "r",
          "type": "bytes32"
        },
        {
          "internalType": "bytes32",
          "name": "s",
          "type": "bytes32"
        }
      ],
      "name": "rentNFTByToken",
      "outputs": [],
      "stateMutability": "payable",
      "type": "function"
    },
    {
      "inputs": [
        {
          "internalType": "uint256",
          "name": "renterFeeQuota",
          "type": "uint256"
        },
        {
          "internalType": "uint256",
          "name": "serviceFeeQuota",
          "type": "uint256"
        },
        {
          "internalType": "uint256",
          "name": "marketFeeQuota",
          "type": "uint256"
        }
      ],
      "name": "setFeeQuota",
      "outputs": [],
      "stateMutability": "nonpayable",
      "type": "function"
    },
    {
      "inputs": [
        {
          "internalType": "address",
          "name": "shareAddress",
          "type": "address"
        }
      ],
      "name": "setMarketShareAddress",
      "outputs": [],
      "stateMutability": "nonpayable",
      "type": "function"
    },
    {
      "inputs": [
        {
          "internalType": "uint256",
          "name": "threshold_",
          "type": "uint256"
        }
      ],
      "name": "setThreshold",
      "outputs": [],
      "stateMutability": "nonpayable",
      "type": "function"
    },
    {
      "inputs": [
        {
          "internalType": "address",
          "name": "nftAddress",
          "type": "address"
        },
        {
          "internalType": "uint256",
          "name": "tokenId",
          "type": "uint256"
        }
      ],
      "name": "settleRentData",
      "outputs": [
        {
          "internalType": "bool",
          "name": "success",
          "type": "bool"
        }
      ],
      "stateMutability": "nonpayable",
      "type": "function"
    },
    {
      "inputs": [
        {
          "internalType": "address",
          "name": "newOwner",
          "type": "address"
        }
      ],
      "name": "transferOwnership",
      "outputs": [],
      "stateMutability": "nonpayable",
      "type": "function"
    },
    {
      "inputs": [],
      "name": "unpause",
      "outputs": [],
      "stateMutability": "nonpayable",
      "type": "function"
    },
    {
      "inputs": [
        {
          "internalType": "address",
          "name": "collectionAddress",
          "type": "address"
        }
      ],
      "name": "unregisterCollection",
      "outputs": [
        {
          "internalType": "bool",
          "name": "success",
          "type": "bool"
        }
      ],
      "stateMutability": "nonpayable",
      "type": "function"
    },
    {
      "inputs": [
        {
          "internalType": "address",
          "name": "nftAddress",
          "type": "address"
        },
        {
          "internalType": "uint256",
          "name": "tokenId",
          "type": "uint256"
        }
      ],
      "name": "unregisterNFT",
      "outputs": [
        {
          "internalType": "bool",
          "name": "success",
          "type": "bool"
        }
      ],
      "stateMutability": "nonpayable",
      "type": "function"
    },
    {
      "inputs": [
        {
          "internalType": "address",
          "name": "serviceAddress",
          "type": "address"
        }
      ],
      "name": "unregisterService",
      "outputs": [
        {
          "internalType": "bool",
          "name": "success",
          "type": "bool"
        }
      ],
      "stateMutability": "nonpayable",
      "type": "function"
    },
    {
      "inputs": [
        {
          "internalType": "address",
          "name": "tokenAddress",
          "type": "address"
        }
      ],
      "name": "unregisterToken",
      "outputs": [
        {
          "internalType": "bool",
          "name": "success",
          "type": "bool"
        }
      ],
      "stateMutability": "nonpayable",
      "type": "function"
    },
    {
      "inputs": [
        {
          "internalType": "address",
          "name": "nftAddress",
          "type": "address"
        },
        {
          "internalType": "uint256",
          "name": "tokenId",
          "type": "uint256"
        }
      ],
      "name": "unrentNFT",
      "outputs": [
        {
          "internalType": "bool",
          "name": "success",
          "type": "bool"
        }
      ],
      "stateMutability": "nonpayable",
      "type": "function"
    },
    {
      "inputs": [
        {
          "internalType": "address",
          "name": "recipient",
          "type": "address"
        },
        {
          "internalType": "address",
          "name": "tokenAddress",
          "type": "address"
        }
      ],
      "name": "withdrawMyBalance",
      "outputs": [
        {
          "internalType": "bool",
          "name": "success",
          "type": "bool"
        }
      ],
      "stateMutability": "payable",
      "type": "function"
    },
    {
      "stateMutability": "payable",
      "type": "receive"
    }
  ],
  "bytecode": "0x6080604052670de0b6b3a76400006002556201518060035560236004556023600555601e60065560646007553480156200003857600080fd5b50620000443362000069565b6000805460ff60a01b19169055600180546001600160a01b03191633179055620000b9565b600080546001600160a01b038381166001600160a01b0319831681178455604051919092169283917f8be0079c531659141344cd1fd0a4f28419497f9722a3daafe3b4186f6b6457e09190a35050565b615e6480620000c96000396000f3fe6080604052600436106101cf5760003560e01c806301cf2bae1461023057806306eb924f1461026357806315a523021461029357806317a6b609146102c05780631c2c2c24146102e05780632736a862146103025780632803aa13146103245780632d740226146103375780632e6379ed146103575780633f4ba83a1461036a5780634419ebb61461037f57806345d44eda146103ac5780634b6c05fa146103cc5780635c975abb146103f35780636558fce6146104085780636b4a08961461042857806370473d8614610448578063715018a61461046a57806377860cdd1461047f5780637e3ef7cd1461049f57806381ac825c146104bf57806383b2f911146104d25780638456cb59146104ff57806385e3c1d4146105145780638bb72e83146105365780638da5cb5b1461055857806395dbd4401461056d578063960bfe041461058f578063adee9abd146105af578063d4fbeb19146105cf578063e2fcbf73146105ef578063e40de88714610611578063e5d1420f14610631578063e75235b814610651578063e7823fac14610666578063e8592fc714610686578063ec51c0d1146106a6578063ee5afa52146106d7578063eec31042146106f7578063f2fde38b1461071957610203565b3661020357604051349033907fd6717f327e0cb88b4a97a7f67a453e9258252c34937ccbdd86de7cb840e7def390600090a3005b60405133907fdd0c5778ddb0b0501649417aeffed44057db3d5d530231758c8dc5ef6eeb789490600090a2005b34801561023c57600080fd5b5061025061024b366004614fff565b610739565b6040519081526020015b60405180910390f35b34801561026f57600080fd5b5061028361027e3660046150b2565b6107fa565b604051901515815260200161025a565b34801561029f57600080fd5b506102b36102ae366004614fff565b6109b5565b60405161025a91906151dc565b3480156102cc57600080fd5b506102836102db3660046151ef565b610a4b565b3480156102ec57600080fd5b506102f5610e2f565b60405161025a91906152be565b34801561030e57600080fd5b5061032261031d36600461530d565b610fa0565b005b610322610332366004615339565b611003565b34801561034357600080fd5b506102836103523660046150b2565b61166a565b6102836103653660046153b0565b6117f8565b34801561037657600080fd5b50610322611bea565b34801561038b57600080fd5b5061039f61039a3660046151ef565b611bfc565b60405161025a91906153e9565b3480156103b857600080fd5b506102836103c7366004614fff565b611c98565b3480156103d857600080fd5b506001546001600160a01b03165b60405161025a91906153f8565b3480156103ff57600080fd5b50610283611edd565b34801561041457600080fd5b5061028361042336600461540c565b611eed565b34801561043457600080fd5b506102836104433660046151ef565b6121cb565b34801561045457600080fd5b5061045d612879565b60405161025a91906154ad565b34801561047657600080fd5b506103226129a3565b34801561048b57600080fd5b5061028361049a366004614fff565b6129b5565b3480156104ab57600080fd5b506102506104ba366004614fff565b612bd9565b6102836104cd3660046154ef565b612c68565b3480156104de57600080fd5b506104f26104ed3660046151ef565b613337565b60405161025a9190615531565b34801561050b57600080fd5b506103226133cb565b34801561052057600080fd5b506105296133db565b60405161025a919061553f565b34801561054257600080fd5b5061054b61356f565b60405161025a91906155a1565b34801561056457600080fd5b506103e66136a2565b34801561057957600080fd5b506105826136b1565b60405161025a9190615613565b34801561059b57600080fd5b506103226105aa366004615668565b613838565b3480156105bb57600080fd5b506102836105ca366004614fff565b613845565b3480156105db57600080fd5b506102836105ea3660046150b2565b613a69565b3480156105fb57600080fd5b50610604613bf7565b60405161025a9190615681565b34801561061d57600080fd5b506102b361062c366004614fff565b613d00565b34801561063d57600080fd5b5061028361064c3660046151ef565b613d42565b34801561065d57600080fd5b50600754610250565b34801561067257600080fd5b506103226106813660046153b0565b614018565b34801561069257600080fd5b506102836106a13660046151ef565b6142f2565b3480156106b257600080fd5b506004546005546006546040805193845260208401929092529082015260600161025a565b3480156106e357600080fd5b506103226106f2366004614fff565b614878565b34801561070357600080fd5b5061070c6148a2565b60405161025a91906156d9565b34801561072557600080fd5b50610322610734366004614fff565b614a29565b600080610744614ee0565b60005b6015548110156107f1576015805460149190839081106107695761076961572e565b906000526020600020016040516107809190615779565b908152604080516020928190038301812060608201835260018101546001600160a01b03908116835260028201548116948301859052600390910154928201929092529350861614156107df5760408201516107dc908461582b565b92505b806107e981615843565b915050610747565b50909392505050565b6000610804614aa2565b61080c614b01565b6040516360f353e160e01b815273__$79a40a2052c9947e027843e42106f8b048$__906360f353e19061084690600a90879060040161585e565b60206040518083038186803b15801561085e57600080fd5b505af4158015610872573d6000803e3d6000fd5b505050506040513d601f19601f820116820180604052508101906108969190615885565b156108bc5760405162461bcd60e51b81526004016108b3906158a0565b60405180910390fd5b60405163287af74760e01b815260009073__$79a40a2052c9947e027843e42106f8b048$__9063287af747906108fb90600a90889088906004016158bd565b60206040518083038186803b15801561091357600080fd5b505af4158015610927573d6000803e3d6000fd5b505050506040513d601f19601f8201168201806040525081019061094b9190615885565b9050600181151514156109a357836001600160a01b03167fdcc2016b74f9e1be59c35f005623093f22ee185961aa79657be041dba04ed0a48460405161099191906158f0565b60405180910390a260019150506109af565b60009150506109af565b505b92915050565b6109bd614f00565b604051631eb966b960e01b815273__$a27ab5a2953dc10a9c552591268754b616$__90631eb966b9906109f790600c90869060040161585e565b60006040518083038186803b158015610a0f57600080fd5b505af4158015610a23573d6000803e3d6000fd5b505050506040513d6000823e601f3d908101601f191682016040526109af91908101906159c3565b6000610a55614b01565b6040516304ecf28360e41b815273__$aabfbf51bc7bf3b8af0580fb7224204a01$__90634ecf283090610a9190600e90879087906004016159f7565b60206040518083038186803b158015610aa957600080fd5b505af4158015610abd573d6000803e3d6000fd5b505050506040513d601f19601f82011682018060405250810190610ae19190615885565b15610b145760405162461bcd60e51b815260206004820152600360248201526229269960e91b60448201526064016108b3565b6000610b208433614b49565b90506000610b2e8585614bfc565b90506001600160a01b038116610b6f5760405162461bcd60e51b81526004016108b390602080825260049082015263524d323160e01b604082015260600190565b60018215151480610b8857506001600160a01b03811633145b80610c1e57506040516360f353e160e01b815273__$79a40a2052c9947e027843e42106f8b048$__906360f353e190610bc890600a90339060040161585e565b60206040518083038186803b158015610be057600080fd5b505af4158015610bf4573d6000803e3d6000fd5b505050506040513d601f19601f82011682018060405250810190610c189190615885565b15156001145b610c505760405162461bcd60e51b815260206004820152600360248201526214934d60ea1b60448201526064016108b3565b6040516360f353e160e01b815273__$79a40a2052c9947e027843e42106f8b048$__906360f353e190610c8a90600a90899060040161585e565b60206040518083038186803b158015610ca257600080fd5b505af4158015610cb6573d6000803e3d6000fd5b505050506040513d601f19601f82011682018060405250810190610cda9190615885565b1515600114610d145760405162461bcd60e51b81526004016108b3906020808252600490820152632926991960e11b604082015260600190565b60025460035460405163cddd4b6760e01b815260009273__$aabfbf51bc7bf3b8af0580fb7224204a01$__9263cddd4b6792610d5f92600e928c928c92918991829190600401615a16565b60206040518083038186803b158015610d7757600080fd5b505af4158015610d8b573d6000803e3d6000fd5b505050506040513d601f19601f82011682018060405250810190610daf9190615885565b905060018115151415610e2357816001600160a01b031685876001600160a01b03167f582e65d918b73308f2eb058e75e68168f22c49c2994530f72d46177c78435cbb600254600354604051610e0f929190918252602082015260400190565b60405180910390a4600193505050506109af565b600093505050506109af565b6011546060906000906001600160401b03811115610e4f57610e4f61501c565b604051908082528060200260200182016040528015610e8857816020015b610e75614f18565b815260200190600190039081610e6d5790505b50905060005b601154811015610f9a57601180546010919083908110610eb057610eb061572e565b90600052602060002001604051610ec79190615779565b9081526040805191829003602090810183206101608401835260018101546001600160a01b03908116855260028201549285019290925260038101549284019290925260048201548116606084015260058201546080840152600682015460ff16151560a0840152600782015460c08401526008820154811660e084015260098201548116610100840152600a82015416610120830152600b01546101408201528251839083908110610f7c57610f7c61572e565b60200260200101819052508080610f9290615843565b915050610e8e565b50919050565b610fa8614aa2565b80610fb3838561582b565b610fbd919061582b565b606414610ff55760405162461bcd60e51b81526004016108b3906020808252600490820152632926989960e11b604082015260600190565b600492909255600555600655565b61100b614b01565b6040516304ecf28360e41b815273__$aabfbf51bc7bf3b8af0580fb7224204a01$__90634ecf28309061104790600e908b908b906004016159f7565b60206040518083038186803b15801561105f57600080fd5b505af4158015611073573d6000803e3d6000fd5b505050506040513d601f19601f820116820180604052508101906110979190615885565b15156001146110b85760405162461bcd60e51b81526004016108b390615a54565b604051638c9a6cc360e01b815273__$a27ab5a2953dc10a9c552591268754b616$__90638c9a6cc3906110f290600c90899060040161585e565b60206040518083038186803b15801561110a57600080fd5b505af415801561111e573d6000803e3d6000fd5b505050506040513d601f19601f820116820180604052508101906111429190615885565b15156001146111635760405162461bcd60e51b81526004016108b390615a71565b341561119a5760405162461bcd60e51b81526004016108b390602080825260049082015263524d313360e01b604082015260600190565b6111a2614f74565b6001600160a01b03861660408201526111bb8888614bfc565b6001600160a01b03166060820152604051630163053760e51b815260009073__$aabfbf51bc7bf3b8af0580fb7224204a01$__90632c60a6e09061120890600e908d908d906004016159f7565b60c06040518083038186803b15801561122057600080fd5b505af4158015611234573d6000803e3d6000fd5b505050506040513d601f19601f820116820180604052508101906112589190615a8e565b60608101519091506001600160a01b03166112855760405162461bcd60e51b81526004016108b390615b18565b80606001516001600160a01b03166370a08231336040518263ffffffff1660e01b81526004016112b591906153f8565b60206040518083038186803b1580156112cd57600080fd5b505afa1580156112e1573d6000803e3d6000fd5b505050506040513d601f19601f820116820180604052508101906113059190615b36565b60208301819052608082015111156113485760405162461bcd60e51b81526004016108b390602080825260049082015263524d323360e01b604082015260600190565b6060810151608082015160405163d505accf60e01b815233600482015230602482015260448101919091526064810188905260ff8716608482015260a4810186905260c481018590526001600160a01b039091169063d505accf9060e401600060405180830381600087803b1580156113c057600080fd5b505af11580156113d4573d6000803e3d6000fd5b5050505080606001516001600160a01b03166323b872dd333084608001516040518463ffffffff1660e01b815260040161141093929190615b4f565b602060405180830381600087803b15801561142a57600080fd5b505af115801561143e573d6000803e3d6000fd5b505050506040513d601f19601f820116820180604052508101906114629190615885565b5061146b614f18565b6001600160a01b03808b168252602082018a90526040808401518184015260608085015183168185015260808086015190850152600160a08086019190915285015160c0850152850151821660e08401523361010084015290891661012083015242610140830152516332ada61b60e01b815273__$c9b49513854812b7b6c4b448b2aa4684e3$__906332ada61b9061150b906010908590600401615b73565b60206040518083038186803b15801561152357600080fd5b505af4158015611537573d6000803e3d6000fd5b505050506040513d601f19601f8201168201806040525081019061155b9190615885565b506060808401519083015160808401516040516343d434b560e11b815273__$cd3810e67fa8b653e5355050e47a521f6f$__936387a8696a936115a7936012938f929190600401615b88565b60206040518083038186803b1580156115bf57600080fd5b505af41580156115d3573d6000803e3d6000fd5b505050506040513d601f19601f820116820180604052508101906115f79190615885565b50336001600160a01b0316898b6001600160a01b0316600080516020615e0f83398151915285604001518660600151876080015160018960a001518b606001518c604001518b6101400151604051611656989796959493929190615bb6565b60405180910390a450505050505050505050565b6000611674614aa2565b61167c614b01565b604051638c9a6cc360e01b815273__$a27ab5a2953dc10a9c552591268754b616$__90638c9a6cc3906116b690600c90879060040161585e565b60206040518083038186803b1580156116ce57600080fd5b505af41580156116e2573d6000803e3d6000fd5b505050506040513d601f19601f820116820180604052508101906117069190615885565b156117235760405162461bcd60e51b81526004016108b3906158a0565b6040516327a7887760e21b815260009073__$a27ab5a2953dc10a9c552591268754b616$__90639e9e21dc9061176290600c90889088906004016158bd565b60206040518083038186803b15801561177a57600080fd5b505af415801561178e573d6000803e3d6000fd5b505050506040513d601f19601f820116820180604052508101906117b29190615885565b9050600181151514156109a357836001600160a01b03167f26e277514df07793f28eff0e6f05b34a8dc0be0012b50d1b6162ce3c958b0c4e8460405161099191906158f0565b6000336001600160a01b038416148061182957506118146136a2565b6001600160a01b0316336001600160a01b0316145b61185e5760405162461bcd60e51b81526004016108b3906020808252600490820152630a49a62760e31b604082015260600190565b60405163b52bf90f60e01b815260009073__$35fde6ac6f7fb08b81f20635e2dfbb2343$__9063b52bf90f9061189d9060149088908890600401615bfc565b60206040518083038186803b1580156118b557600080fd5b505af41580156118c9573d6000803e3d6000fd5b505050506040513d601f19601f820116820180604052508101906118ed9190615b36565b905080156109ad576001600160a01b038316611995576000846001600160a01b03168260405160006040518083038185875af1925050503d8060008114611950576040519150601f19603f3d011682016040523d82523d6000602084013e611955565b606091505b505090508061198f5760405162461bcd60e51b81526004016108b39060208082526004908201526314934c4d60e21b604082015260600190565b50611af7565b60405163095ea7b360e01b8152306004820152602481018290526000906001600160a01b0385169063095ea7b390604401602060405180830381600087803b1580156119e057600080fd5b505af11580156119f4573d6000803e3d6000fd5b505050506040513d601f19601f82011682018060405250810190611a189190615885565b905080611a505760405162461bcd60e51b81526004016108b390602080825260049082015263524d313960e01b604082015260600190565b6040516323b872dd60e01b81526000906001600160a01b038616906323b872dd90611a839030908a908890600401615b4f565b602060405180830381600087803b158015611a9d57600080fd5b505af1158015611ab1573d6000803e3d6000fd5b505050506040513d601f19601f82011682018060405250810190611ad59190615885565b905080611af45760405162461bcd60e51b81526004016108b390615b18565b50505b60405163bc824a9360e01b815260009073__$35fde6ac6f7fb08b81f20635e2dfbb2343$__9063bc824a9390611b369060149089908990600401615bfc565b60206040518083038186803b158015611b4e57600080fd5b505af4158015611b62573d6000803e3d6000fd5b505050506040513d601f19601f82011682018060405250810190611b869190615885565b905060018115151415611bdf5781846001600160a01b0316866001600160a01b03167ff19b643806aff6923e6a83303f2c43467bb6e47487c68586ec0bcfb7097e8f7660405160405180910390a46001925050506109af565b6000925050506109af565b611bf2614aa2565b611bfa614cc3565b565b611c04614f18565b60405163af8b7c8160e01b815273__$c9b49513854812b7b6c4b448b2aa4684e3$__9063af8b7c8190611c4090601090879087906004016159f7565b6101606040518083038186803b158015611c5957600080fd5b505af4158015611c6d573d6000803e3d6000fd5b505050506040513d601f19601f82011682018060405250810190611c919190615c1b565b9392505050565b6000611ca2614aa2565b604051638c9a6cc360e01b815273__$a27ab5a2953dc10a9c552591268754b616$__90638c9a6cc390611cdc90600c90869060040161585e565b60206040518083038186803b158015611cf457600080fd5b505af4158015611d08573d6000803e3d6000fd5b505050506040513d601f19601f82011682018060405250810190611d2c9190615885565b1515600114611d4d5760405162461bcd60e51b81526004016108b390615cd4565b604051631eb966b960e01b815260009073__$a27ab5a2953dc10a9c552591268754b616$__90631eb966b990611d8a90600c90879060040161585e565b60006040518083038186803b158015611da257600080fd5b505af4158015611db6573d6000803e3d6000fd5b505050506040513d6000823e601f3d908101601f19168201604052611dde91908101906159c3565b604051634c3bfbf560e11b815290915060009073__$a27ab5a2953dc10a9c552591268754b616$__90639877f7ea90611e1e90600c90889060040161585e565b60206040518083038186803b158015611e3657600080fd5b505af4158015611e4a573d6000803e3d6000fd5b505050506040513d601f19601f82011682018060405250810190611e6e9190615885565b905060018115151415611ece5781600001516001600160a01b03167fd3bb6cf267814a3d42a12164c9ac01a59db6d9121ae676500da60fd56b086d3b8360200151604051611ebc91906158f0565b60405180910390a25060019392505050565b5060009392505050565b919050565b600054600160a01b900460ff1690565b6000611ef7614b01565b6000611f038888614bfc565b9050336001600160a01b0382161480611f345750611f1f6136a2565b6001600160a01b0316336001600160a01b0316145b611f505760405162461bcd60e51b81526004016108b390615cf1565b6040516304ecf28360e41b815273__$aabfbf51bc7bf3b8af0580fb7224204a01$__90634ecf283090611f8c90600e908c908c906004016159f7565b60206040518083038186803b158015611fa457600080fd5b505af4158015611fb8573d6000803e3d6000fd5b505050506040513d601f19601f82011682018060405250810190611fdc9190615885565b1515600114611ffd5760405162461bcd60e51b81526004016108b390615cd4565b6001600160a01b038516156120b757604051631f04869b60e31b815273__$4fab912f99daae96c763763589e4636ca5$__9063f82434d89061204690600890899060040161585e565b60206040518083038186803b15801561205e57600080fd5b505af4158015612072573d6000803e3d6000fd5b505050506040513d601f19601f820116820180604052508101906120969190615885565b15156001146120b75760405162461bcd60e51b81526004016108b390615b18565b6040516313d3de6d60e11b815260009073__$aabfbf51bc7bf3b8af0580fb7224204a01$__906327a7bcda906120fe90600e908d908d908d908d908d908d90600401615a16565b60206040518083038186803b15801561211657600080fd5b505af415801561212a573d6000803e3d6000fd5b505050506040513d601f19601f8201168201806040525081019061214e9190615885565b9050600181151514156121ba57336001600160a01b0316888a6001600160a01b03167f4388754cf451950a50e2520e86758fc59ec9e88a7f6a09f2db5de37d545639298a8a8a8a896040516121a7959493929190615d0e565b60405180910390a46001925050506121c1565b6000925050505b9695505050505050565b60405163e99a8e3960e01b815260009081908190819073__$c9b49513854812b7b6c4b448b2aa4684e3$__9063e99a8e3990612210906010908a908a906004016159f7565b60206040518083038186803b15801561222857600080fd5b505af415801561223c573d6000803e3d6000fd5b505050506040513d601f19601f820116820180604052508101906122609190615885565b15156001146122815760405162461bcd60e51b81526004016108b390615d3a565b3361228a6136a2565b6001600160a01b0316146122c95760405162461bcd60e51b81526004016108b3906020808252600490820152632926989b60e11b604082015260600190565b60405163af8b7c8160e01b815260009073__$c9b49513854812b7b6c4b448b2aa4684e3$__9063af8b7c8190612308906010908b908b906004016159f7565b6101606040518083038186803b15801561232157600080fd5b505af4158015612335573d6000803e3d6000fd5b505050506040513d601f19601f820116820180604052508101906123599190615c1b565b90508060a0015115156001151514156123785780608001519150612380565b806040015191505b6101408101514290811180156123a957508160c001518261014001516123a6919061582b565b81105b15612481576000826101400151826123c19190615d58565b90506123da6123d08286615d6f565b8460c00151614d12565b95506123e68487614d1e565b610100840151606085015160405163071cd41560e31b815292975073__$35fde6ac6f7fb08b81f20635e2dfbb2343$__926338e6a0a89261242e926014928b90600401615d8e565b60206040518083038186803b15801561244657600080fd5b505af415801561245a573d6000803e3d6000fd5b505050506040513d601f19601f8201168201806040525081019061247e9190615885565b50505b84156126a15760006124a16004548761249a9190615d6f565b6064614d12565b905060006124b66005548861249a9190615d6f565b90506000816124c5848a615d58565b6124cf9190615d58565b60e0860151606087015160405163071cd41560e31b815292935073__$35fde6ac6f7fb08b81f20635e2dfbb2343$__926338e6a0a892612516926014928990600401615d8e565b60206040518083038186803b15801561252e57600080fd5b505af4158015612542573d6000803e3d6000fd5b505050506040513d601f19601f820116820180604052508101906125669190615885565b50610120850151606086015160405163071cd41560e31b815273__$35fde6ac6f7fb08b81f20635e2dfbb2343$__926338e6a0a8926125ae9260149291908890600401615d8e565b60206040518083038186803b1580156125c657600080fd5b505af41580156125da573d6000803e3d6000fd5b505050506040513d601f19601f820116820180604052508101906125fe9190615885565b50600154606086015160405163071cd41560e31b815273__$35fde6ac6f7fb08b81f20635e2dfbb2343$__926338e6a0a89261264c926014926001600160a01b031691908790600401615d8e565b60206040518083038186803b15801561266457600080fd5b505af4158015612678573d6000803e3d6000fd5b505050506040513d601f19601f8201168201806040525081019061269c9190615885565b505050505b60405163af8b7c8160e01b815260009073__$c9b49513854812b7b6c4b448b2aa4684e3$__9063af8b7c81906126e0906010908d908d906004016159f7565b6101606040518083038186803b1580156126f957600080fd5b505af415801561270d573d6000803e3d6000fd5b505050506040513d601f19601f820116820180604052508101906127319190615c1b565b604051631d865d9360e21b815290915060009073__$c9b49513854812b7b6c4b448b2aa4684e3$__90637619764c90612773906010908e908e906004016159f7565b60206040518083038186803b15801561278b57600080fd5b505af415801561279f573d6000803e3d6000fd5b505050506040513d601f19601f820116820180604052508101906127c39190615885565b905060018115151415612869578161010001516001600160a01b0316826020015183600001516001600160a01b03167f1e47184299ef1ae0147489de864e2860294ab4125cb78ff3488bce09ea0192f68560400151866060015187608001518860a001518960c001518a60e001518b61012001518c6101400151604051612851989796959493929190615bb6565b60405180910390a460019750505050505050506109af565b60009750505050505050506109af565b600f546060906000906001600160401b038111156128995761289961501c565b6040519080825280602002602001820160405280156128d257816020015b6128bf614fa2565b8152602001906001900390816128b75790505b50905060005b600f54811015610f9a57600f8054600e9190839081106128fa576128fa61572e565b906000526020600020016040516129119190615779565b90815260408051918290036020908101832060c08401835260018101546001600160a01b0390811685526002820154928501929092526003810154928401929092526004820154166060830152600581015460808301526006015460a082015282518390839081106129855761298561572e565b6020026020010181905250808061299b90615843565b9150506128d8565b6129ab614aa2565b611bfa6000614d2a565b60006129bf614aa2565b604051631f04869b60e31b815273__$4fab912f99daae96c763763589e4636ca5$__9063f82434d8906129f990600890869060040161585e565b60206040518083038186803b158015612a1157600080fd5b505af4158015612a25573d6000803e3d6000fd5b505050506040513d601f19601f82011682018060405250810190612a499190615885565b1515600114612a6a5760405162461bcd60e51b81526004016108b390615cd4565b604051630a93aab960e31b815260009073__$4fab912f99daae96c763763589e4636ca5$__9063549d55c890612aa790600890879060040161585e565b60006040518083038186803b158015612abf57600080fd5b505af4158015612ad3573d6000803e3d6000fd5b505050506040513d6000823e601f3d908101601f19168201604052612afb91908101906159c3565b6040516359c0255d60e01b815290915060009073__$4fab912f99daae96c763763589e4636ca5$__906359c0255d90612b3b90600890889060040161585e565b60206040518083038186803b158015612b5357600080fd5b505af4158015612b67573d6000803e3d6000fd5b505050506040513d601f19601f82011682018060405250810190612b8b9190615885565b905060018115151415611ece5781600001516001600160a01b03167f037af5869c73bd98d861d265ed2fe7856d434102678eab240cfac53917ef4e838360200151604051611ebc91906158f0565b60405163b52bf90f60e01b815260009073__$35fde6ac6f7fb08b81f20635e2dfbb2343$__9063b52bf90f90612c189060149033908790600401615bfc565b60206040518083038186803b158015612c3057600080fd5b505af4158015612c44573d6000803e3d6000fd5b505050506040513d601f19601f820116820180604052508101906109af9190615b36565b6000612c72614b01565b612c7a614f74565b6040516304ecf28360e41b815273__$aabfbf51bc7bf3b8af0580fb7224204a01$__90634ecf283090612cb690600e90899089906004016159f7565b60206040518083038186803b158015612cce57600080fd5b505af4158015612ce2573d6000803e3d6000fd5b505050506040513d601f19601f82011682018060405250810190612d069190615885565b1515600114612d275760405162461bcd60e51b81526004016108b390615a54565b604051638c9a6cc360e01b815273__$a27ab5a2953dc10a9c552591268754b616$__90638c9a6cc390612d6190600c90879060040161585e565b60206040518083038186803b158015612d7957600080fd5b505af4158015612d8d573d6000803e3d6000fd5b505050506040513d601f19601f82011682018060405250810190612db19190615885565b1515600114612dd25760405162461bcd60e51b81526004016108b390615a71565b604051630163053760e51b8152349073__$aabfbf51bc7bf3b8af0580fb7224204a01$__90632c60a6e090612e1090600e908a908a906004016159f7565b60c06040518083038186803b158015612e2857600080fd5b505af4158015612e3c573d6000803e3d6000fd5b505050506040513d601f19601f82011682018060405250810190612e609190615a8e565b6040015114612e975760405162461bcd60e51b81526020600482015260036024820152620a49a760eb1b60448201526064016108b3565b604051630163053760e51b815260009073__$aabfbf51bc7bf3b8af0580fb7224204a01$__90632c60a6e090612ed690600e908a908a906004016159f7565b60c06040518083038186803b158015612eee57600080fd5b505af4158015612f02573d6000803e3d6000fd5b505050506040513d601f19601f82011682018060405250810190612f269190615a8e565b6000835260405163e99a8e3960e01b815290915073__$c9b49513854812b7b6c4b448b2aa4684e3$__9063e99a8e3990612f69906010908a908a906004016159f7565b60206040518083038186803b158015612f8157600080fd5b505af4158015612f95573d6000803e3d6000fd5b505050506040513d601f19601f82011682018060405250810190612fb99190615885565b1515600114156130ec5760405163af8b7c8160e01b815260009073__$c9b49513854812b7b6c4b448b2aa4684e3$__9063af8b7c8190613002906010908b908b906004016159f7565b6101606040518083038186803b15801561301b57600080fd5b505af415801561302f573d6000803e3d6000fd5b505050506040513d601f19601f820116820180604052508101906130539190615c1b565b60c08101518452604051631d865d9360e21b815290915073__$c9b49513854812b7b6c4b448b2aa4684e3$__90637619764c90613099906010908b908b906004016159f7565b60206040518083038186803b1580156130b157600080fd5b505af41580156130c5573d6000803e3d6000fd5b505050506040513d601f19601f820116820180604052508101906130e99190615885565b50505b6130f68686614bfc565b6001600160a01b0316606083015261310c614f18565b6001600160a01b03808816825260208201879052604080840151908301526060808401519091169082015260808083015190820152600060a08083019190915283519083015161315c919061582b565b60c082015260608301516001600160a01b0390811660e0830152336101008301528516610120820152426101408201526040516332ada61b60e01b815273__$c9b49513854812b7b6c4b448b2aa4684e3$__906332ada61b906131c6906010908590600401615b73565b60206040518083038186803b1580156131de57600080fd5b505af41580156131f2573d6000803e3d6000fd5b505050506040513d601f19601f820116820180604052508101906132169190615885565b1515608084018190526001141561332a5760608301516040516343d434b560e11b815273__$cd3810e67fa8b653e5355050e47a521f6f$__916387a8696a9161326b916012918a906000903490600401615b88565b60206040518083038186803b15801561328357600080fd5b505af4158015613297573d6000803e3d6000fd5b505050506040513d601f19601f820116820180604052508101906132bb9190615885565b50336001600160a01b031686886001600160a01b0316600080516020615e0f83398151915285604001518660600151876080015160008960a001518b606001518e8b6101400151604051613316989796959493929190615bb6565b60405180910390a460019350505050611c91565b5060009695505050505050565b61333f614fa2565b604051630163053760e51b815273__$aabfbf51bc7bf3b8af0580fb7224204a01$__90632c60a6e09061337b90600e90879087906004016159f7565b60c06040518083038186803b15801561339357600080fd5b505af41580156133a7573d6000803e3d6000fd5b505050506040513d601f19601f82011682018060405250810190611c919190615a8e565b6133d3614aa2565b611bfa614d7a565b6009546060906000906001600160401b038111156133fb576133fb61501c565b60405190808252806020026020018201604052801561344157816020015b6040805180820190915260008152606060208201528152602001906001900390816134195790505b50905060005b600954811015610f9a576009805460089190839081106134695761346961572e565b906000526020600020016040516134809190615779565b9081526040805191829003602090810183208383019092526001820180546001600160a01b0316845260029092018054918401916134bd90615744565b80601f01602080910402602001604051908101604052809291908181526020018280546134e990615744565b80156135365780601f1061350b57610100808354040283529160200191613536565b820191906000526020600020905b81548152906001019060200180831161351957829003601f168201915b5050505050815250508282815181106135515761355161572e565b6020026020010181905250808061356790615843565b915050613447565b6013546060906000906001600160401b0381111561358f5761358f61501c565b6040519080825280602002602001820160405280156135e157816020015b6040805160808101825260008082526020808301829052928201819052606082015282526000199092019101816135ad5790505b50905060005b601354811015610f9a576013805460129190839081106136095761360961572e565b906000526020600020016040516136209190615779565b90815260408051918290036020908101832060808401835260018101546001600160a01b039081168552600282015481169285019290925260038101549091169183019190915260040154606082015282518390839081106136845761368461572e565b6020026020010181905250808061369a90615843565b9150506135e7565b6000546001600160a01b031690565b600d546060906000906001600160401b038111156136d1576136d161501c565b60405190808252806020026020018201604052801561370a57816020015b6136f7614f00565b8152602001906001900390816136ef5790505b50905060005b600d54811015610f9a57600d8054600c9190839081106137325761373261572e565b906000526020600020016040516137499190615779565b9081526040805191829003602090810183208383019092526001820180546001600160a01b03168452600290920180549184019161378690615744565b80601f01602080910402602001604051908101604052809291908181526020018280546137b290615744565b80156137ff5780601f106137d4576101008083540402835291602001916137ff565b820191906000526020600020905b8154815290600101906020018083116137e257829003601f168201915b50505050508152505082828151811061381a5761381a61572e565b6020026020010181905250808061383090615843565b915050613710565b613840614aa2565b600755565b600061384f614aa2565b6040516360f353e160e01b815273__$79a40a2052c9947e027843e42106f8b048$__906360f353e19061388990600a90869060040161585e565b60206040518083038186803b1580156138a157600080fd5b505af41580156138b5573d6000803e3d6000fd5b505050506040513d601f19601f820116820180604052508101906138d99190615885565b15156001146138fa5760405162461bcd60e51b81526004016108b390615cd4565b60405163044aed2360e01b815260009073__$79a40a2052c9947e027843e42106f8b048$__9063044aed239061393790600a90879060040161585e565b60006040518083038186803b15801561394f57600080fd5b505af4158015613963573d6000803e3d6000fd5b505050506040513d6000823e601f3d908101601f1916820160405261398b91908101906159c3565b60405163a3fb822560e01b815290915060009073__$79a40a2052c9947e027843e42106f8b048$__9063a3fb8225906139cb90600a90889060040161585e565b60206040518083038186803b1580156139e357600080fd5b505af41580156139f7573d6000803e3d6000fd5b505050506040513d601f19601f82011682018060405250810190613a1b9190615885565b905060018115151415611ece5781600001516001600160a01b03167fe32dbca0dcbe2dc4205cd30b4b23a82cff3e9b7e12a5682683185c6f33c978be8360200151604051611ebc91906158f0565b6000613a73614aa2565b613a7b614b01565b604051631f04869b60e31b815273__$4fab912f99daae96c763763589e4636ca5$__9063f82434d890613ab590600890879060040161585e565b60206040518083038186803b158015613acd57600080fd5b505af4158015613ae1573d6000803e3d6000fd5b505050506040513d601f19601f82011682018060405250810190613b059190615885565b15613b225760405162461bcd60e51b81526004016108b3906158a0565b6040516331d0579b60e11b815260009073__$4fab912f99daae96c763763589e4636ca5$__906363a0af3690613b6190600890889088906004016158bd565b60206040518083038186803b158015613b7957600080fd5b505af4158015613b8d573d6000803e3d6000fd5b505050506040513d601f19601f82011682018060405250810190613bb19190615885565b9050600181151514156109a357836001600160a01b03167ff76071867aae1eed00218b5aa8d4736b9b2161325ea3e48d283258a7e4ba75f58460405161099191906158f0565b6015546060906000906001600160401b03811115613c1757613c1761501c565b604051908082528060200260200182016040528015613c5057816020015b613c3d614ee0565b815260200190600190039081613c355790505b50905060005b601554811015610f9a57601580546014919083908110613c7857613c7861572e565b90600052602060002001604051613c8f9190615779565b90815260408051918290036020908101832060608401835260018101546001600160a01b0390811685526002820154169184019190915260030154908201528251839083908110613ce257613ce261572e565b60200260200101819052508080613cf890615843565b915050613c56565b613d08614f00565b60405163044aed2360e01b815273__$79a40a2052c9947e027843e42106f8b048$__9063044aed23906109f790600a90869060040161585e565b600080613d4f8433614b49565b90506000613d5d8585614bfc565b905060018215151480613d785750336001600160a01b038216145b80613d9b5750613d866136a2565b6001600160a01b0316336001600160a01b0316145b613db75760405162461bcd60e51b81526004016108b390615cf1565b6040516304ecf28360e41b815273__$aabfbf51bc7bf3b8af0580fb7224204a01$__90634ecf283090613df390600e90899089906004016159f7565b60206040518083038186803b158015613e0b57600080fd5b505af4158015613e1f573d6000803e3d6000fd5b505050506040513d601f19601f82011682018060405250810190613e439190615885565b1515600114613e645760405162461bcd60e51b81526004016108b390615cd4565b604051630163053760e51b815260009073__$aabfbf51bc7bf3b8af0580fb7224204a01$__90632c60a6e090613ea390600e908a908a906004016159f7565b60c06040518083038186803b158015613ebb57600080fd5b505af4158015613ecf573d6000803e3d6000fd5b505050506040513d601f19601f82011682018060405250810190613ef39190615a8e565b604051631f8195ef60e11b815290915060009073__$aabfbf51bc7bf3b8af0580fb7224204a01$__90633f032bde90613f3590600e908b908b906004016159f7565b60206040518083038186803b158015613f4d57600080fd5b505af4158015613f61573d6000803e3d6000fd5b505050506040513d601f19601f82011682018060405250810190613f859190615885565b90506001811515141561400b57336001600160a01b0316826020015183600001516001600160a01b03167f47ef5674b8623b6a0bece5fae33a1a29ad79a7846a5be46a0b2e256b94f9ee318560400151866060015187608001518860a001518a604051613ff6959493929190615d0e565b60405180910390a460019450505050506109af565b60009450505050506109af565b600754614023575050565b604051636eb1769f60e11b81526001600160a01b0382811660048301523060248301526000919084169063dd62ed3e9060440160206040518083038186803b15801561406e57600080fd5b505afa158015614082573d6000803e3d6000fd5b505050506040513d601f19601f820116820180604052508101906140a69190615b36565b9050806140b257505050565b60006140bd84610739565b905060006140c9614ee0565b60005b6015548110156142305760075481106140e457614230565b6015805460149190839081106140fc576140fc61572e565b906000526020600020016040516141139190615779565b908152604080516020928190038301812060608201835260018101546001600160a01b039081168352600282015481169483018590526003909101549282019290925293508816141561421e57600061417b8360400151876141759190615d6f565b86614d12565b9050614187818561582b565b8351602085015160405163071cd41560e31b815292965073__$35fde6ac6f7fb08b81f20635e2dfbb2343$__926338e6a0a8926141cb926014928790600401615d8e565b60206040518083038186803b1580156141e357600080fd5b505af41580156141f7573d6000803e3d6000fd5b505050506040513d601f19601f8201168201806040525081019061421b9190615885565b50505b8061422881615843565b9150506140cc565b50600061423d8386615d58565b11156142ea5760015473__$35fde6ac6f7fb08b81f20635e2dfbb2343$__906338e6a0a8906014906001600160a01b031689614279878a615d58565b6040518563ffffffff1660e01b81526004016142989493929190615d8e565b60206040518083038186803b1580156142b057600080fd5b505af41580156142c4573d6000803e3d6000fd5b505050506040513d601f19601f820116820180604052508101906142e89190615885565b505b505050505050565b60405163e99a8e3960e01b815260009073__$c9b49513854812b7b6c4b448b2aa4684e3$__9063e99a8e399061433190601090879087906004016159f7565b60206040518083038186803b15801561434957600080fd5b505af415801561435d573d6000803e3d6000fd5b505050506040513d601f19601f820116820180604052508101906143819190615885565b15156001146143a25760405162461bcd60e51b81526004016108b390615d3a565b60405163af8b7c8160e01b815260009073__$c9b49513854812b7b6c4b448b2aa4684e3$__9063af8b7c81906143e190601090889088906004016159f7565b6101606040518083038186803b1580156143fa57600080fd5b505af415801561440e573d6000803e3d6000fd5b505050506040513d601f19601f820116820180604052508101906144329190615c1b565b90508060c00151816101400151614449919061582b565b42116144805760405162461bcd60e51b81526004016108b390602080825260049082015263524d313760e01b604082015260600190565b60008160a00151151560011515141561449e575060808101516144a5565b5060408101515b60006144b86004548361249a9190615d6f565b905060006144cd6005548461249a9190615d6f565b90506000816144dc8486615d58565b6144e69190615d58565b60e0860151606087015160405163071cd41560e31b815292935073__$35fde6ac6f7fb08b81f20635e2dfbb2343$__926338e6a0a89261452d926014928990600401615d8e565b60206040518083038186803b15801561454557600080fd5b505af4158015614559573d6000803e3d6000fd5b505050506040513d601f19601f8201168201806040525081019061457d9190615885565b50610120850151606086015160405163071cd41560e31b815273__$35fde6ac6f7fb08b81f20635e2dfbb2343$__926338e6a0a8926145c59260149291908890600401615d8e565b60206040518083038186803b1580156145dd57600080fd5b505af41580156145f1573d6000803e3d6000fd5b505050506040513d601f19601f820116820180604052508101906146159190615885565b50600154606086015160405163071cd41560e31b815273__$35fde6ac6f7fb08b81f20635e2dfbb2343$__926338e6a0a892614663926014926001600160a01b031691908790600401615d8e565b60206040518083038186803b15801561467b57600080fd5b505af415801561468f573d6000803e3d6000fd5b505050506040513d601f19601f820116820180604052508101906146b39190615885565b5060e08501516101208601516060870151604051631a9a5d7160e21b815273__$cd3810e67fa8b653e5355050e47a521f6f$__93636a6975c4936146fe936012938b90600401615b88565b60206040518083038186803b15801561471657600080fd5b505af415801561472a573d6000803e3d6000fd5b505050506040513d601f19601f8201168201806040525081019061474e9190615885565b5084516020860151604051631d865d9360e21b815273__$c9b49513854812b7b6c4b448b2aa4684e3$__92637619764c926147909260109291906004016159f7565b60206040518083038186803b1580156147a857600080fd5b505af41580156147bc573d6000803e3d6000fd5b505050506040513d601f19601f820116820180604052508101906147e09190615885565b508461010001516001600160a01b0316856020015186600001516001600160a01b03167f2941e86df5e844db000359f0e9abe470952bac636d89a010e9d5d513aad469fa886040015189606001518a608001518b60a001518c60c001518d60e001518e61012001518f6101400151604051614862989796959493929190615bb6565b60405180910390a4506001979650505050505050565b614880614aa2565b600180546001600160a01b0319166001600160a01b0392909216919091179055565b600b546060906000906001600160401b038111156148c2576148c261501c565b6040519080825280602002602001820160405280156148fb57816020015b6148e8614f00565b8152602001906001900390816148e05790505b50905060005b600b54811015610f9a57600b8054600a9190839081106149235761492361572e565b9060005260206000200160405161493a9190615779565b9081526040805191829003602090810183208383019092526001820180546001600160a01b03168452600290920180549184019161497790615744565b80601f01602080910402602001604051908101604052809291908181526020018280546149a390615744565b80156149f05780601f106149c5576101008083540402835291602001916149f0565b820191906000526020600020905b8154815290600101906020018083116149d357829003601f168201915b505050505081525050828281518110614a0b57614a0b61572e565b60200260200101819052508080614a2190615843565b915050614901565b614a31614aa2565b6001600160a01b038116614a965760405162461bcd60e51b815260206004820152602660248201527f4f776e61626c653a206e6577206f776e657220697320746865207a65726f206160448201526564647265737360d01b60648201526084016108b3565b614a9f81614d2a565b50565b33614aab6136a2565b6001600160a01b031614611bfa5760405162461bcd60e51b815260206004820181905260248201527f4f776e61626c653a2063616c6c6572206973206e6f7420746865206f776e657260448201526064016108b3565b614b09611edd565b15611bfa5760405162461bcd60e51b815260206004820152601060248201526f14185d5cd8589b194e881c185d5cd95960821b60448201526064016108b3565b600080614b666001600160a01b038516632c63230160e11b614dbd565b9050600181151514156109a357604051632c63230160e11b81526000906001600160a01b038616906358c6460290614ba29087906004016153f8565b60206040518083038186803b158015614bba57600080fd5b505afa158015614bce573d6000803e3d6000fd5b505050506040513d601f19601f82011682018060405250810190614bf29190615885565b92506109af915050565b6000806060846001600160a01b031684604051602401614c1e91815260200190565b60408051601f198184030181529181526020820180516001600160e01b03166331a9108f60e11b17905251614c539190615db3565b6000604051808303816000865af19150503d8060008114614c90576040519150601f19603f3d011682016040523d82523d6000602084013e614c95565b606091505b50909250905060018215151415611bdf5780806020019051810190614cba9190615dcf565b925050506109af565b614ccb614dd9565b6000805460ff60a01b191690557f5db9ee0a495bf2e6ff9c91a7834c1ba4fdd244a5e8aa4e537bd38aeae4b073aa335b604051614d0891906153f8565b60405180910390a1565b6000611c918284615dec565b6000611c918284615d58565b600080546001600160a01b038381166001600160a01b0319831681178455604051919092169283917f8be0079c531659141344cd1fd0a4f28419497f9722a3daafe3b4186f6b6457e09190a35050565b614d82614b01565b6000805460ff60a01b1916600160a01b1790557f62e78cea01bee320cd4e420270b5ea74000d11b0c9f74754ebdbfc544b05a258614cfb3390565b6000614dc883614e24565b8015611c915750611c918383614e57565b614de1611edd565b611bfa5760405162461bcd60e51b815260206004820152601460248201527314185d5cd8589b194e881b9bdd081c185d5cd95960621b60448201526064016108b3565b6000614e37826301ffc9a760e01b614e57565b80156109af5750614e50826001600160e01b0319614e57565b1592915050565b604080516001600160e01b03198316602480830191909152825180830390910181526044909101909152602080820180516001600160e01b03166301ffc9a760e01b178152825160009392849283928392918391908a617530fa92503d91506000519050828015614ec9575060208210155b8015614ed55750600081115b979650505050505050565b604080516060810182526000808252602082018190529181019190915290565b60408051808201909152600081526060602082015290565b6040805161016081018252600080825260208201819052918101829052606081018290526080810182905260a0810182905260c0810182905260e081018290526101008101829052610120810182905261014081019190915290565b6040805160a08101825260008082526020820181905291810182905260608101829052608081019190915290565b6040518060c0016040528060006001600160a01b03168152602001600081526020016000815260200160006001600160a01b0316815260200160008152602001600081525090565b6001600160a01b0381168114614a9f57600080fd5b60006020828403121561501157600080fd5b8135611c9181614fea565b634e487b7160e01b600052604160045260246000fd5b60405161016081016001600160401b03811182821017156150555761505561501c565b60405290565b604051601f8201601f191681016001600160401b03811182821017156150835761508361501c565b604052919050565b60006001600160401b038211156150a4576150a461501c565b50601f01601f191660200190565b600080604083850312156150c557600080fd5b82356150d081614fea565b915060208301356001600160401b038111156150eb57600080fd5b8301601f810185136150fc57600080fd5b803561510f61510a8261508b565b61505b565b81815286602083850101111561512457600080fd5b816020840160208301376000602083830101528093505050509250929050565b6001600160a01b03169052565b60005b8381101561516c578181015183820152602001615154565b8381111561517b576000848401525b50505050565b60008151808452615199816020860160208601615151565b601f01601f19169290920160200192915050565b60018060a01b03815116825260006020820151604060208501526151d46040850182615181565b949350505050565b602081526000611c9160208301846151ad565b6000806040838503121561520257600080fd5b823561520d81614fea565b946020939093013593505050565b615226828251615144565b6020810151602083015260408101516040830152606081015161524c6060840182615144565b506080810151608083015260a081015161526a60a084018215159052565b5060c081015160c083015260e081015161528760e0840182615144565b506101008082015161529b82850182615144565b5050610120808201516152b082850182615144565b505061014090810151910152565b6020808252825182820181905260009190848201906040850190845b81811015615301576152ed83855161521b565b9284019261016092909201916001016152da565b50909695505050505050565b60008060006060848603121561532257600080fd5b505081359360208301359350604090920135919050565b600080600080600080600060e0888a03121561535457600080fd5b873561535f81614fea565b965060208801359550604088013561537681614fea565b945060608801359350608088013560ff8116811461539357600080fd5b9699959850939692959460a0840135945060c09093013592915050565b600080604083850312156153c357600080fd5b82356153ce81614fea565b915060208301356153de81614fea565b809150509250929050565b61016081016109af828461521b565b6001600160a01b0391909116815260200190565b60008060008060008060c0878903121561542557600080fd5b863561543081614fea565b95506020870135945060408701359350606087013561544e81614fea565b9598949750929560808101359460a0909101359350915050565b80516001600160a01b0390811683526020808301519084015260408083015190840152606080830151909116908301526080808201519083015260a090810151910152565b6020808252825182820181905260009190848201906040850190845b81811015615301576154dc838551615468565b9284019260c092909201916001016154c9565b60008060006060848603121561550457600080fd5b833561550f81614fea565b925060208401359150604084013561552681614fea565b809150509250925092565b60c081016109af8284615468565b6000602080830181845280855180835260408601915060408160051b870101925083870160005b8281101561559457603f198886030184526155828583516151ad565b94509285019290850190600101615566565b5092979650505050505050565b602080825282518282018190526000919060409081850190868401855b8281101561560657815180516001600160a01b0390811686528782015181168887015286820151168686015260609081015190850152608090930192908501906001016155be565b5091979650505050505050565b6000602080830181845280855180835260408601915060408160051b870101925083870160005b8281101561559457603f198886030184526156568583516151ad565b9450928501929085019060010161563a565b60006020828403121561567a57600080fd5b5035919050565b602080825282518282018190526000919060409081850190868401855b8281101561560657815180516001600160a01b039081168652878201511687860152850151858501526060909301929085019060010161569e565b6000602080830181845280855180835260408601915060408160051b870101925083870160005b8281101561559457603f1988860301845261571c8583516151ad565b94509285019290850190600101615700565b634e487b7160e01b600052603260045260246000fd5b600181811c9082168061575857607f821691505b60208210811415610f9a57634e487b7160e01b600052602260045260246000fd5b600080835481600182811c91508083168061579557607f831692505b60208084108214156157b557634e487b7160e01b86526022600452602486fd5b8180156157c957600181146157da57615807565b60ff19861689528489019650615807565b60008a81526020902060005b868110156157ff5781548b8201529085019083016157e6565b505084890196505b509498975050505050505050565b634e487b7160e01b600052601160045260246000fd5b6000821982111561583e5761583e615815565b500190565b600060001982141561585757615857615815565b5060010190565b9182526001600160a01b0316602082015260400190565b80518015158114611ed857600080fd5b60006020828403121561589757600080fd5b611c9182615875565b602080825260039082015262524d3160e81b604082015260600190565b8381526001600160a01b03831660208201526060604082018190526000906158e790830184615181565b95945050505050565b602081526000611c916020830184615181565b8051611ed881614fea565b60006040828403121561592057600080fd5b604080519081016001600160401b0380821183831017156159435761594361501c565b816040528293508451915061595782614fea565b9082526020840151908082111561596d57600080fd5b508301601f8101851361597f57600080fd5b805161598d61510a8261508b565b8181528660208385010111156159a257600080fd5b6159b3826020830160208601615151565b8060208501525050505092915050565b6000602082840312156159d557600080fd5b81516001600160401b038111156159eb57600080fd5b6151d48482850161590e565b9283526001600160a01b03919091166020830152604082015260600190565b9687526001600160a01b03958616602088015260408701949094526060860192909252909216608084015260a083019190915260c082015260e00190565b602080825260039082015262524d3760e81b604082015260600190565b60208082526003908201526229269b60e91b604082015260600190565b600060c08284031215615aa057600080fd5b60405160c081016001600160401b0381118282101715615ac257615ac261501c565b6040528251615ad081614fea565b8082525060208301516020820152604083015160408201526060830151615af681614fea565b60608201526080838101519082015260a0928301519281019290925250919050565b6020808252600490820152630524d32360e41b604082015260600190565b600060208284031215615b4857600080fd5b5051919050565b6001600160a01b039384168152919092166020820152604081019190915260600190565b8281526101808101611c91602083018461521b565b9485526001600160a01b03938416602086015291831660408501529091166060830152608082015260a00190565b9788526001600160a01b039687166020890152604088019590955292151560608701526080860191909152831660a085015290911660c083015260e08201526101000190565b9283526001600160a01b03918216602084015216604082015260600190565b60006101608284031215615c2e57600080fd5b615c36615032565b615c3f83615903565b81526020830151602082015260408301516040820152615c6160608401615903565b606082015260808301516080820152615c7c60a08401615875565b60a082015260c083015160c0820152615c9760e08401615903565b60e0820152610100615caa818501615903565b90820152610120615cbc848201615903565b90820152610140928301519281019290925250919050565b602080825260039082015262524d3360e81b604082015260600190565b602080825260039082015262524d3560e81b604082015260600190565b9485526001600160a01b0393841660208601526040850192909252606084015216608082015260a00190565b6020808252600490820152630524d31360e41b604082015260600190565b600082821015615d6a57615d6a615815565b500390565b6000816000190483118215151615615d8957615d89615815565b500290565b9384526001600160a01b03928316602085015291166040830152606082015260800190565b60008251615dc5818460208701615151565b9190910192915050565b600060208284031215615de157600080fd5b8151611c9181614fea565b600082615e0957634e487b7160e01b600052601260045260246000fd5b50049056fefe632cd15df82b5e105c28c0d0da9eb0228667912a4b1e430151d7c0d9227759a26469706673582212209c4bd521b9115f9d06286db96eae27dd1b66d786b722d56422c541ac068b368c64736f6c63430008090033",
  "linkReferences": {
    "contracts/iterableMapLib.sol": {
      "accountBalanceIterableMap": [
        {
          "length": 20,
          "start": 6457
        },
        {
          "length": 20,
          "start": 7122
        },
        {
          "length": 20,
          "start": 9420
        },
        {
          "length": 20,
          "start": 9652
        },
        {
          "length": 20,
          "start": 9802
        },
        {
          "length": 20,
          "start": 9951
        },
        {
          "length": 20,
          "start": 11444
        },
        {
          "length": 20,
          "start": 17001
        },
        {
          "length": 20,
          "start": 17169
        },
        {
          "length": 20,
          "start": 17867
        },
        {
          "length": 20,
          "start": 18017
        },
        {
          "length": 20,
          "start": 18166
        }
      ],
      "collectionDataIterableMap": [
        {
          "length": 20,
          "start": 2276
        },
        {
          "length": 20,
          "start": 2455
        },
        {
          "length": 20,
          "start": 3174
        },
        {
          "length": 20,
          "start": 3368
        },
        {
          "length": 20,
          "start": 14631
        },
        {
          "length": 20,
          "start": 14805
        },
        {
          "length": 20,
          "start": 14953
        },
        {
          "length": 20,
          "start": 15840
        }
      ],
      "pendingRentFeeIterableMap": [
        {
          "length": 20,
          "start": 5699
        },
        {
          "length": 20,
          "start": 13060
        },
        {
          "length": 20,
          "start": 18332
        }
      ],
      "registerDataIterableMap": [
        {
          "length": 20,
          "start": 2861
        },
        {
          "length": 20,
          "start": 3573
        },
        {
          "length": 20,
          "start": 4323
        },
        {
          "length": 20,
          "start": 4772
        },
        {
          "length": 20,
          "start": 8232
        },
        {
          "length": 20,
          "start": 8594
        },
        {
          "length": 20,
          "start": 11602
        },
        {
          "length": 20,
          "start": 11948
        },
        {
          "length": 20,
          "start": 12146
        },
        {
          "length": 20,
          "start": 13335
        },
        {
          "length": 20,
          "start": 16015
        },
        {
          "length": 20,
          "start": 16191
        },
        {
          "length": 20,
          "start": 16337
        }
      ],
      "rentDataIterableMap": [
        {
          "length": 20,
          "start": 5545
        },
        {
          "length": 20,
          "start": 7388
        },
        {
          "length": 20,
          "start": 8876
        },
        {
          "length": 20,
          "start": 9124
        },
        {
          "length": 20,
          "start": 10108
        },
        {
          "length": 20,
          "start": 10255
        },
        {
          "length": 20,
          "start": 12293
        },
        {
          "length": 20,
          "start": 12446
        },
        {
          "length": 20,
          "start": 12597
        },
        {
          "length": 20,
          "start": 12900
        },
        {
          "length": 20,
          "start": 17357
        },
        {
          "length": 20,
          "start": 17533
        },
        {
          "length": 20,
          "start": 18478
        }
      ],
      "serviceDataIterableMap": [
        {
          "length": 20,
          "start": 2709
        },
        {
          "length": 20,
          "start": 4496
        },
        {
          "length": 20,
          "start": 5972
        },
        {
          "length": 20,
          "start": 6142
        },
        {
          "length": 20,
          "start": 7546
        },
        {
          "length": 20,
          "start": 7720
        },
        {
          "length": 20,
          "start": 7868
        },
        {
          "length": 20,
          "start": 11775
        }
      ],
      "tokenDataIterableMap": [
        {
          "length": 20,
          "start": 8420
        },
        {
          "length": 20,
          "start": 10903
        },
        {
          "length": 20,
          "start": 11077
        },
        {
          "length": 20,
          "start": 11225
        },
        {
          "length": 20,
          "start": 15187
        },
        {
          "length": 20,
          "start": 15357
        }
      ]
    }
  },
  "deployedLinkReferences": {
    "contracts/iterableMapLib.sol": {
      "accountBalanceIterableMap": [
        {
          "length": 20,
          "start": 6256
        },
        {
          "length": 20,
          "start": 6921
        },
        {
          "length": 20,
          "start": 9219
        },
        {
          "length": 20,
          "start": 9451
        },
        {
          "length": 20,
          "start": 9601
        },
        {
          "length": 20,
          "start": 9750
        },
        {
          "length": 20,
          "start": 11243
        },
        {
          "length": 20,
          "start": 16800
        },
        {
          "length": 20,
          "start": 16968
        },
        {
          "length": 20,
          "start": 17666
        },
        {
          "length": 20,
          "start": 17816
        },
        {
          "length": 20,
          "start": 17965
        }
      ],
      "collectionDataIterableMap": [
        {
          "length": 20,
          "start": 2075
        },
        {
          "length": 20,
          "start": 2254
        },
        {
          "length": 20,
          "start": 2973
        },
        {
          "length": 20,
          "start": 3167
        },
        {
          "length": 20,
          "start": 14430
        },
        {
          "length": 20,
          "start": 14604
        },
        {
          "length": 20,
          "start": 14752
        },
        {
          "length": 20,
          "start": 15639
        }
      ],
      "pendingRentFeeIterableMap": [
        {
          "length": 20,
          "start": 5498
        },
        {
          "length": 20,
          "start": 12859
        },
        {
          "length": 20,
          "start": 18131
        }
      ],
      "registerDataIterableMap": [
        {
          "length": 20,
          "start": 2660
        },
        {
          "length": 20,
          "start": 3372
        },
        {
          "length": 20,
          "start": 4122
        },
        {
          "length": 20,
          "start": 4571
        },
        {
          "length": 20,
          "start": 8031
        },
        {
          "length": 20,
          "start": 8393
        },
        {
          "length": 20,
          "start": 11401
        },
        {
          "length": 20,
          "start": 11747
        },
        {
          "length": 20,
          "start": 11945
        },
        {
          "length": 20,
          "start": 13134
        },
        {
          "length": 20,
          "start": 15814
        },
        {
          "length": 20,
          "start": 15990
        },
        {
          "length": 20,
          "start": 16136
        }
      ],
      "rentDataIterableMap": [
        {
          "length": 20,
          "start": 5344
        },
        {
          "length": 20,
          "start": 7187
        },
        {
          "length": 20,
          "start": 8675
        },
        {
          "length": 20,
          "start": 8923
        },
        {
          "length": 20,
          "start": 9907
        },
        {
          "length": 20,
          "start": 10054
        },
        {
          "length": 20,
          "start": 12092
        },
        {
          "length": 20,
          "start": 12245
        },
        {
          "length": 20,
          "start": 12396
        },
        {
          "length": 20,
          "start": 12699
        },
        {
          "length": 20,
          "start": 17156
        },
        {
          "length": 20,
          "start": 17332
        },
        {
          "length": 20,
          "start": 18277
        }
      ],
      "serviceDataIterableMap": [
        {
          "length": 20,
          "start": 2508
        },
        {
          "length": 20,
          "start": 4295
        },
        {
          "length": 20,
          "start": 5771
        },
        {
          "length": 20,
          "start": 5941
        },
        {
          "length": 20,
          "start": 7345
        },
        {
          "length": 20,
          "start": 7519
        },
        {
          "length": 20,
          "start": 7667
        },
        {
          "length": 20,
          "start": 11574
        }
      ],
      "tokenDataIterableMap": [
        {
          "length": 20,
          "start": 8219
        },
        {
          "length": 20,
          "start": 10702
        },
        {
          "length": 20,
          "start": 10876
        },
        {
          "length": 20,
          "start": 11024
        },
        {
          "length": 20,
          "start": 14986
        },
        {
          "length": 20,
          "start": 15156
        }
      ]
    }
  }
}