{
  "_format": "hh-sol-artifact-1",
  "contractName": "rentNFT",
  "sourceName": "contracts/rentNFT.sol",
  "abi": [
    {
      "inputs": [
        {
          "internalType": "string",
          "name": "name_",
          "type": "string"
        },
        {
          "internalType": "string",
          "name": "symbol_",
          "type": "string"
        },
        {
          "internalType": "string",
          "name": "baseTokenURI_",
          "type": "string"
        }
      ],
      "stateMutability": "nonpayable",
      "type": "constructor"
    },
    {
      "anonymous": false,
      "inputs": [
        {
          "indexed": true,
          "internalType": "address",
          "name": "owner",
          "type": "address"
        },
        {
          "indexed": true,
          "internalType": "address",
          "name": "approved",
          "type": "address"
        },
        {
          "indexed": true,
          "internalType": "uint256",
          "name": "tokenId",
          "type": "uint256"
        }
      ],
      "name": "Approval",
      "type": "event"
    },
    {
      "anonymous": false,
      "inputs": [
        {
          "indexed": true,
          "internalType": "address",
          "name": "owner",
          "type": "address"
        },
        {
          "indexed": true,
          "internalType": "address",
          "name": "operator",
          "type": "address"
        },
        {
          "indexed": false,
          "internalType": "bool",
          "name": "approved",
          "type": "bool"
        }
      ],
      "name": "ApprovalForAll",
      "type": "event"
    },
    {
      "anonymous": false,
      "inputs": [
        {
          "indexed": false,
          "internalType": "address",
          "name": "account",
          "type": "address"
        }
      ],
      "name": "Paused",
      "type": "event"
    },
    {
      "anonymous": false,
      "inputs": [
        {
          "indexed": true,
          "internalType": "bytes32",
          "name": "role",
          "type": "bytes32"
        },
        {
          "indexed": true,
          "internalType": "bytes32",
          "name": "previousAdminRole",
          "type": "bytes32"
        },
        {
          "indexed": true,
          "internalType": "bytes32",
          "name": "newAdminRole",
          "type": "bytes32"
        }
      ],
      "name": "RoleAdminChanged",
      "type": "event"
    },
    {
      "anonymous": false,
      "inputs": [
        {
          "indexed": true,
          "internalType": "bytes32",
          "name": "role",
          "type": "bytes32"
        },
        {
          "indexed": true,
          "internalType": "address",
          "name": "account",
          "type": "address"
        },
        {
          "indexed": true,
          "internalType": "address",
          "name": "sender",
          "type": "address"
        }
      ],
      "name": "RoleGranted",
      "type": "event"
    },
    {
      "anonymous": false,
      "inputs": [
        {
          "indexed": true,
          "internalType": "bytes32",
          "name": "role",
          "type": "bytes32"
        },
        {
          "indexed": true,
          "internalType": "address",
          "name": "account",
          "type": "address"
        },
        {
          "indexed": true,
          "internalType": "address",
          "name": "sender",
          "type": "address"
        }
      ],
      "name": "RoleRevoked",
      "type": "event"
    },
    {
      "anonymous": false,
      "inputs": [
        {
          "indexed": true,
          "internalType": "address",
          "name": "from",
          "type": "address"
        },
        {
          "indexed": true,
          "internalType": "address",
          "name": "to",
          "type": "address"
        },
        {
          "indexed": true,
          "internalType": "uint256",
          "name": "tokenId",
          "type": "uint256"
        }
      ],
      "name": "Transfer",
      "type": "event"
    },
    {
      "anonymous": false,
      "inputs": [
        {
          "indexed": false,
          "internalType": "address",
          "name": "account",
          "type": "address"
        }
      ],
      "name": "Unpaused",
      "type": "event"
    },
    {
      "inputs": [],
      "name": "DEFAULT_ADMIN_ROLE",
      "outputs": [
        {
          "internalType": "bytes32",
          "name": "",
          "type": "bytes32"
        }
      ],
      "stateMutability": "view",
      "type": "function"
    },
    {
      "inputs": [],
      "name": "MINTER_ROLE",
      "outputs": [
        {
          "internalType": "bytes32",
          "name": "",
          "type": "bytes32"
        }
      ],
      "stateMutability": "view",
      "type": "function"
    },
    {
      "inputs": [],
      "name": "PAUSER_ROLE",
      "outputs": [
        {
          "internalType": "bytes32",
          "name": "",
          "type": "bytes32"
        }
      ],
      "stateMutability": "view",
      "type": "function"
    },
    {
      "inputs": [],
      "name": "REGISTER_ROLE",
      "outputs": [
        {
          "internalType": "bytes32",
          "name": "",
          "type": "bytes32"
        }
      ],
      "stateMutability": "view",
      "type": "function"
    },
    {
      "inputs": [],
      "name": "SETTER_ROLE",
      "outputs": [
        {
          "internalType": "bytes32",
          "name": "",
          "type": "bytes32"
        }
      ],
      "stateMutability": "view",
      "type": "function"
    },
    {
      "inputs": [
        {
          "internalType": "address",
          "name": "to",
          "type": "address"
        },
        {
          "internalType": "uint256",
          "name": "tokenId",
          "type": "uint256"
        }
      ],
      "name": "approve",
      "outputs": [],
      "stateMutability": "nonpayable",
      "type": "function"
    },
    {
      "inputs": [
        {
          "internalType": "address",
          "name": "owner",
          "type": "address"
        }
      ],
      "name": "balanceOf",
      "outputs": [
        {
          "internalType": "uint256",
          "name": "",
          "type": "uint256"
        }
      ],
      "stateMutability": "view",
      "type": "function"
    },
    {
      "inputs": [
        {
          "internalType": "uint256",
          "name": "tokenId",
          "type": "uint256"
        }
      ],
      "name": "burn",
      "outputs": [],
      "stateMutability": "nonpayable",
      "type": "function"
    },
    {
      "inputs": [
        {
          "internalType": "address",
          "name": "registerAddress",
          "type": "address"
        }
      ],
      "name": "checkRegisterRole",
      "outputs": [
        {
          "internalType": "bool",
          "name": "result",
          "type": "bool"
        }
      ],
      "stateMutability": "view",
      "type": "function"
    },
    {
      "inputs": [
        {
          "internalType": "uint256",
          "name": "tokenId",
          "type": "uint256"
        }
      ],
      "name": "getApproved",
      "outputs": [
        {
          "internalType": "address",
          "name": "",
          "type": "address"
        }
      ],
      "stateMutability": "view",
      "type": "function"
    },
    {
      "inputs": [],
      "name": "getBaseURI",
      "outputs": [
        {
          "internalType": "string",
          "name": "",
          "type": "string"
        }
      ],
      "stateMutability": "view",
      "type": "function"
    },
    {
      "inputs": [
        {
          "internalType": "bytes32",
          "name": "role",
          "type": "bytes32"
        }
      ],
      "name": "getRoleAdmin",
      "outputs": [
        {
          "internalType": "bytes32",
          "name": "",
          "type": "bytes32"
        }
      ],
      "stateMutability": "view",
      "type": "function"
    },
    {
      "inputs": [
        {
          "internalType": "bytes32",
          "name": "role",
          "type": "bytes32"
        },
        {
          "internalType": "address",
          "name": "account",
          "type": "address"
        }
      ],
      "name": "grantRole",
      "outputs": [],
      "stateMutability": "nonpayable",
      "type": "function"
    },
    {
      "inputs": [
        {
          "internalType": "bytes32",
          "name": "role",
          "type": "bytes32"
        },
        {
          "internalType": "address",
          "name": "account",
          "type": "address"
        }
      ],
      "name": "hasRole",
      "outputs": [
        {
          "internalType": "bool",
          "name": "",
          "type": "bool"
        }
      ],
      "stateMutability": "view",
      "type": "function"
    },
    {
      "inputs": [
        {
          "internalType": "address",
          "name": "owner",
          "type": "address"
        },
        {
          "internalType": "address",
          "name": "operator",
          "type": "address"
        }
      ],
      "name": "isApprovedForAll",
      "outputs": [
        {
          "internalType": "bool",
          "name": "",
          "type": "bool"
        }
      ],
      "stateMutability": "view",
      "type": "function"
    },
    {
      "inputs": [],
      "name": "name",
      "outputs": [
        {
          "internalType": "string",
          "name": "",
          "type": "string"
        }
      ],
      "stateMutability": "view",
      "type": "function"
    },
    {
      "inputs": [
        {
          "internalType": "uint256",
          "name": "tokenId",
          "type": "uint256"
        }
      ],
      "name": "ownerOf",
      "outputs": [
        {
          "internalType": "address",
          "name": "",
          "type": "address"
        }
      ],
      "stateMutability": "view",
      "type": "function"
    },
    {
      "inputs": [],
      "name": "pause",
      "outputs": [],
      "stateMutability": "nonpayable",
      "type": "function"
    },
    {
      "inputs": [],
      "name": "paused",
      "outputs": [
        {
          "internalType": "bool",
          "name": "",
          "type": "bool"
        }
      ],
      "stateMutability": "view",
      "type": "function"
    },
    {
      "inputs": [
        {
          "internalType": "bytes32",
          "name": "role",
          "type": "bytes32"
        },
        {
          "internalType": "address",
          "name": "account",
          "type": "address"
        }
      ],
      "name": "renounceRole",
      "outputs": [],
      "stateMutability": "nonpayable",
      "type": "function"
    },
    {
      "inputs": [
        {
          "internalType": "bytes32",
          "name": "role",
          "type": "bytes32"
        },
        {
          "internalType": "address",
          "name": "account",
          "type": "address"
        }
      ],
      "name": "revokeRole",
      "outputs": [],
      "stateMutability": "nonpayable",
      "type": "function"
    },
    {
      "inputs": [
        {
          "internalType": "address",
          "name": "to_",
          "type": "address"
        }
      ],
      "name": "safeMint",
      "outputs": [],
      "stateMutability": "nonpayable",
      "type": "function"
    },
    {
      "inputs": [
        {
          "internalType": "address",
          "name": "to_",
          "type": "address"
        },
        {
          "internalType": "uint256",
          "name": "amount_",
          "type": "uint256"
        }
      ],
      "name": "safeMintAmount",
      "outputs": [],
      "stateMutability": "nonpayable",
      "type": "function"
    },
    {
      "inputs": [
        {
          "internalType": "address",
          "name": "from",
          "type": "address"
        },
        {
          "internalType": "address",
          "name": "to",
          "type": "address"
        },
        {
          "internalType": "uint256",
          "name": "tokenId",
          "type": "uint256"
        }
      ],
      "name": "safeTransferFrom",
      "outputs": [],
      "stateMutability": "nonpayable",
      "type": "function"
    },
    {
      "inputs": [
        {
          "internalType": "address",
          "name": "from",
          "type": "address"
        },
        {
          "internalType": "address",
          "name": "to",
          "type": "address"
        },
        {
          "internalType": "uint256",
          "name": "tokenId",
          "type": "uint256"
        },
        {
          "internalType": "bytes",
          "name": "data",
          "type": "bytes"
        }
      ],
      "name": "safeTransferFrom",
      "outputs": [],
      "stateMutability": "nonpayable",
      "type": "function"
    },
    {
      "inputs": [
        {
          "internalType": "address",
          "name": "operator",
          "type": "address"
        },
        {
          "internalType": "bool",
          "name": "approved",
          "type": "bool"
        }
      ],
      "name": "setApprovalForAll",
      "outputs": [],
      "stateMutability": "nonpayable",
      "type": "function"
    },
    {
      "inputs": [
        {
          "internalType": "string",
          "name": "baseTokenURI_",
          "type": "string"
        }
      ],
      "name": "setBaseURI",
      "outputs": [],
      "stateMutability": "nonpayable",
      "type": "function"
    },
    {
      "inputs": [
        {
          "internalType": "bytes4",
          "name": "interfaceId",
          "type": "bytes4"
        }
      ],
      "name": "supportsInterface",
      "outputs": [
        {
          "internalType": "bool",
          "name": "",
          "type": "bool"
        }
      ],
      "stateMutability": "view",
      "type": "function"
    },
    {
      "inputs": [],
      "name": "symbol",
      "outputs": [
        {
          "internalType": "string",
          "name": "",
          "type": "string"
        }
      ],
      "stateMutability": "view",
      "type": "function"
    },
    {
      "inputs": [
        {
          "internalType": "uint256",
          "name": "index",
          "type": "uint256"
        }
      ],
      "name": "tokenByIndex",
      "outputs": [
        {
          "internalType": "uint256",
          "name": "",
          "type": "uint256"
        }
      ],
      "stateMutability": "view",
      "type": "function"
    },
    {
      "inputs": [
        {
          "internalType": "address",
          "name": "owner",
          "type": "address"
        },
        {
          "internalType": "uint256",
          "name": "index",
          "type": "uint256"
        }
      ],
      "name": "tokenOfOwnerByIndex",
      "outputs": [
        {
          "internalType": "uint256",
          "name": "",
          "type": "uint256"
        }
      ],
      "stateMutability": "view",
      "type": "function"
    },
    {
      "inputs": [
        {
          "internalType": "uint256",
          "name": "tokenId",
          "type": "uint256"
        }
      ],
      "name": "tokenURI",
      "outputs": [
        {
          "internalType": "string",
          "name": "",
          "type": "string"
        }
      ],
      "stateMutability": "view",
      "type": "function"
    },
    {
      "inputs": [],
      "name": "totalSupply",
      "outputs": [
        {
          "internalType": "uint256",
          "name": "",
          "type": "uint256"
        }
      ],
      "stateMutability": "view",
      "type": "function"
    },
    {
      "inputs": [
        {
          "internalType": "address",
          "name": "from",
          "type": "address"
        },
        {
          "internalType": "address",
          "name": "to",
          "type": "address"
        },
        {
          "internalType": "uint256",
          "name": "tokenId",
          "type": "uint256"
        }
      ],
      "name": "transferFrom",
      "outputs": [],
      "stateMutability": "nonpayable",
      "type": "function"
    },
    {
      "inputs": [],
      "name": "unpause",
      "outputs": [],
      "stateMutability": "nonpayable",
      "type": "function"
    }
  ],
  "bytecode": "0x60806040523480156200001157600080fd5b50604051620027da380380620027da833981016040819052620000349162000364565b8251839083906200004d906000906020850190620001f1565b50805162000063906001906020840190620001f1565b5050600a805460ff191690555080516200008590600d906020840190620001f1565b50620000936000336200014c565b620000bf7f65d7a28e3265b37a6474929f336521b332c1681b933f6cb9f3376673440d862a336200014c565b620000eb7f9f2df0fed2c77648de5860a4cc508cd0818c85b8b8a1ab4ceeef8d981c8956a6336200014c565b620001177f61c92169ef077349011ff0b1383c894d86c5f0b41d986366b58a6cf31e93beda336200014c565b620001437fd1f21ec03a6eb050fba156f5316dad461735df521fb446dd42c5a4728e9c70fe336200014c565b50505062000432565b6000828152600b602090815260408083206001600160a01b038516845290915290205460ff16620001ed576000828152600b602090815260408083206001600160a01b03851684529091529020805460ff19166001179055620001ac3390565b6001600160a01b0316816001600160a01b0316837f2f8788117e7eff1d82e926ec794901d17c78024a50270940304540a733656f0d60405160405180910390a45b5050565b828054620001ff90620003f5565b90600052602060002090601f0160209004810192826200022357600085556200026e565b82601f106200023e57805160ff19168380011785556200026e565b828001600101855582156200026e579182015b828111156200026e57825182559160200191906001019062000251565b506200027c92915062000280565b5090565b5b808211156200027c576000815560010162000281565b634e487b7160e01b600052604160045260246000fd5b600082601f830112620002bf57600080fd5b81516001600160401b0380821115620002dc57620002dc62000297565b604051601f8301601f19908116603f0116810190828211818310171562000307576200030762000297565b816040528381526020925086838588010111156200032457600080fd5b600091505b8382101562000348578582018301518183018401529082019062000329565b838211156200035a5760008385830101525b9695505050505050565b6000806000606084860312156200037a57600080fd5b83516001600160401b03808211156200039257600080fd5b620003a087838801620002ad565b94506020860151915080821115620003b757600080fd5b620003c587838801620002ad565b93506040860151915080821115620003dc57600080fd5b50620003eb86828701620002ad565b9150509250925092565b600181811c908216806200040a57607f821691505b602082108114156200042c57634e487b7160e01b600052602260045260246000fd5b50919050565b61239880620004426000396000f3fe608060405234801561001057600080fd5b50600436106101a15760003560e01c806301ffc9a7146101a657806306fdde03146101ce578063081812fc146101e3578063095ea7b31461020357806318160ddd1461021857806323b872dd1461022a578063248a9ca31461023d5780632f2ff15d146102505780632f745c591461026357806336568abe146102765780633f4ba83a1461028957806340d097c31461029157806342842e0e146102a457806342966c68146102b75780634f6ccce7146102ca57806355f804b3146102dd57806358c64602146102f05780635c975abb146103035780636352211e1461030e57806370a0823114610321578063714c53981461033457806374f533171461033c5780638456cb591461035157806391d148541461035957806395d89b411461036c578063a2011b3f14610374578063a217fddf14610389578063a22cb46514610391578063b88d4fde146103a4578063c6890de1146103b7578063c87b56dd146103ca578063d5391393146103dd578063d547741f146103f2578063e63ab1e914610405578063e985e9c51461041a575b600080fd5b6101b96101b4366004611c4f565b61042d565b60405190151581526020015b60405180910390f35b6101d6610458565b6040516101c59190611cc4565b6101f66101f1366004611cd7565b6104ea565b6040516101c59190611cf0565b610216610211366004611d20565b610511565b005b6008545b6040519081526020016101c5565b610216610238366004611d4a565b61062c565b61021c61024b366004611cd7565b61065e565b61021661025e366004611d86565b610673565b61021c610271366004611d20565b61068f565b610216610284366004611d86565b610725565b6102166107a3565b61021661029f366004611db2565b6107c6565b6102166102b2366004611d4a565b610803565b6102166102c5366004611cd7565b61081e565b61021c6102d8366004611cd7565b61084c565b6102166102eb366004611e58565b6108df565b6101b96102fe366004611db2565b61090a565b600a5460ff166101b9565b6101f661031c366004611cd7565b610924565b61021c61032f366004611db2565b610958565b6101d66109de565b61021c6000805160206122e383398151915281565b6102166109ed565b6101b9610367366004611d86565b610a0d565b6101d6610a38565b61021c6000805160206122c383398151915281565b61021c600081565b61021661039f366004611ea0565b610a47565b6102166103b2366004611edc565b610a52565b6102166103c5366004611d20565b610a8a565b6101d66103d8366004611cd7565b610ae5565b61021c60008051602061232383398151915281565b610216610400366004611d86565b610b4c565b61021c60008051602061230383398151915281565b6101b9610428366004611f57565b610b68565b60006001600160e01b03198216632c63230160e11b1480610452575061045282610b96565b92915050565b60606000805461046790611f81565b80601f016020809104026020016040519081016040528092919081815260200182805461049390611f81565b80156104e05780601f106104b5576101008083540402835291602001916104e0565b820191906000526020600020905b8154815290600101906020018083116104c357829003601f168201915b5050505050905090565b60006104f582610bbb565b506000908152600460205260409020546001600160a01b031690565b600061051c82610924565b9050806001600160a01b0316836001600160a01b0316141561058f5760405162461bcd60e51b815260206004820152602160248201527f4552433732313a20617070726f76616c20746f2063757272656e74206f776e656044820152603960f91b60648201526084015b60405180910390fd5b336001600160a01b03821614806105ab57506105ab8133610b68565b61061d5760405162461bcd60e51b815260206004820152603d60248201527f4552433732313a20617070726f76652063616c6c6572206973206e6f7420746f60448201527f6b656e206f776e6572206f7220617070726f76656420666f7220616c6c0000006064820152608401610586565b6106278383610be0565b505050565b610637335b82610c4e565b6106535760405162461bcd60e51b815260040161058690611fbc565b610627838383610cad565b6000908152600b602052604090206001015490565b61067c8261065e565b61068581610e0c565b6106278383610e16565b600061069a83610958565b82106106fc5760405162461bcd60e51b815260206004820152602b60248201527f455243373231456e756d657261626c653a206f776e657220696e646578206f7560448201526a74206f6620626f756e647360a81b6064820152608401610586565b506001600160a01b03919091166000908152600660209081526040808320938352929052205490565b6001600160a01b03811633146107955760405162461bcd60e51b815260206004820152602f60248201527f416363657373436f6e74726f6c3a2063616e206f6e6c792072656e6f756e636560448201526e103937b632b9903337b91039b2b63360891b6064820152608401610586565b61079f8282610e9c565b5050565b6000805160206123038339815191526107bb81610e0c565b6107c3610f03565b50565b6000805160206123238339815191526107de81610e0c565b6107ec600c80546001019055565b60006107f7600c5490565b90506106278382610f4f565b61062783838360405180602001604052806000815250610a52565b61082733610631565b6108435760405162461bcd60e51b815260040161058690611fbc565b6107c381610f69565b600061085760085490565b82106108ba5760405162461bcd60e51b815260206004820152602c60248201527f455243373231456e756d657261626c653a20676c6f62616c20696e646578206f60448201526b7574206f6620626f756e647360a01b6064820152608401610586565b600882815481106108cd576108cd612009565b90600052602060002001549050919050565b6000805160206122c38339815191526108f781610e0c565b815161062790600d906020850190611ba0565b60006104526000805160206122e383398151915283610a0d565b60008061093083610ffa565b90506001600160a01b0381166104525760405162461bcd60e51b81526004016105869061201f565b60006001600160a01b0382166109c25760405162461bcd60e51b815260206004820152602960248201527f4552433732313a2061646472657373207a65726f206973206e6f7420612076616044820152683634b21037bbb732b960b91b6064820152608401610586565b506001600160a01b031660009081526003602052604090205490565b6060600d805461046790611f81565b600080516020612303833981519152610a0581610e0c565b6107c3611015565b6000918252600b602090815260408084206001600160a01b0393909316845291905290205460ff1690565b60606001805461046790611f81565b61079f338383611052565b610a5c3383610c4e565b610a785760405162461bcd60e51b815260040161058690611fbc565b610a848484848461111d565b50505050565b600080516020612323833981519152610aa281610e0c565b60005b82811015610a8457610abb600c80546001019055565b6000610ac6600c5490565b9050610ad28582610f4f565b5080610add81612067565b915050610aa5565b6060610af082610bbb565b6000610afa6109de565b90506000815111610b1a5760405180602001604052806000815250610b45565b80610b2484611150565b604051602001610b35929190612082565b6040516020818303038152906040525b9392505050565b610b558261065e565b610b5e81610e0c565b6106278383610e9c565b6001600160a01b03918216600090815260056020908152604080832093909416825291909152205460ff1690565b60006001600160e01b03198216637965db0b60e01b14806104525750610452826111ec565b610bc481611211565b6107c35760405162461bcd60e51b81526004016105869061201f565b600081815260046020526040902080546001600160a01b0319166001600160a01b0384169081179091558190610c1582610924565b6001600160a01b03167f8c5be1e5ebec7d5bd14f71427d1e84f3dd0314c0f7b2291e5b200ac8c7c3b92560405160405180910390a45050565b600080610c5a83610924565b9050806001600160a01b0316846001600160a01b03161480610c815750610c818185610b68565b80610ca55750836001600160a01b0316610c9a846104ea565b6001600160a01b0316145b949350505050565b826001600160a01b0316610cc082610924565b6001600160a01b031614610ce65760405162461bcd60e51b8152600401610586906120b1565b6001600160a01b038216610d485760405162461bcd60e51b8152602060048201526024808201527f4552433732313a207472616e7366657220746f20746865207a65726f206164646044820152637265737360e01b6064820152608401610586565b610d55838383600161122e565b826001600160a01b0316610d6882610924565b6001600160a01b031614610d8e5760405162461bcd60e51b8152600401610586906120b1565b600081815260046020908152604080832080546001600160a01b03199081169091556001600160a01b03878116808652600385528386208054600019019055908716808652838620805460010190558686526002909452828520805490921684179091559051849360008051602061234383398151915291a4505050565b6107c38133611242565b610e208282610a0d565b61079f576000828152600b602090815260408083206001600160a01b03851684529091529020805460ff19166001179055610e583390565b6001600160a01b0316816001600160a01b0316837f2f8788117e7eff1d82e926ec794901d17c78024a50270940304540a733656f0d60405160405180910390a45050565b610ea68282610a0d565b1561079f576000828152600b602090815260408083206001600160a01b0385168085529252808320805460ff1916905551339285917ff6391f5c32d9c69d2a47ea670b442974b53935d1edc7fd64eb21e047a839171b9190a45050565b610f0b61129b565b600a805460ff191690557f5db9ee0a495bf2e6ff9c91a7834c1ba4fdd244a5e8aa4e537bd38aeae4b073aa335b604051610f459190611cf0565b60405180910390a1565b61079f8282604051806020016040528060008152506112e6565b6000610f7482610924565b9050610f8481600084600161122e565b610f8d82610924565b600083815260046020908152604080832080546001600160a01b03199081169091556001600160a01b038516808552600384528285208054600019019055878552600290935281842080549091169055519293508492600080516020612343833981519152908390a45050565b6000908152600260205260409020546001600160a01b031690565b61101d611319565b600a805460ff191660011790557f62e78cea01bee320cd4e420270b5ea74000d11b0c9f74754ebdbfc544b05a258610f383390565b816001600160a01b0316836001600160a01b031614156110b05760405162461bcd60e51b815260206004820152601960248201527822a9219b99189d1030b8383937bb32903a379031b0b63632b960391b6044820152606401610586565b6001600160a01b03838116600081815260056020908152604080832094871680845294825291829020805460ff191686151590811790915591519182527f17307eab39ab6107e8899845ad3d59bd9653f200f220920489ca2b5937696c31910160405180910390a3505050565b611128848484610cad565b6111348484848461135f565b610a845760405162461bcd60e51b8152600401610586906120f6565b6060600061115d8361146c565b60010190506000816001600160401b0381111561117c5761117c611dcd565b6040519080825280601f01601f1916602001820160405280156111a6576020820181803683370190505b5090508181016020015b600019016f181899199a1a9b1b9c1cb0b131b232b360811b600a86061a8153600a85049450846111df576111e4565b6111b0565b509392505050565b60006001600160e01b0319821663780e9d6360e01b1480610452575061045282611542565b60008061121d83610ffa565b6001600160a01b0316141592915050565b611236611319565b610a8484848484611592565b61124c8282610a0d565b61079f57611259816116d2565b6112648360206116e4565b604051602001611275929190612148565b60408051601f198184030181529082905262461bcd60e51b825261058691600401611cc4565b600a5460ff166112e45760405162461bcd60e51b815260206004820152601460248201527314185d5cd8589b194e881b9bdd081c185d5cd95960621b6044820152606401610586565b565b6112f0838361187f565b6112fd600084848461135f565b6106275760405162461bcd60e51b8152600401610586906120f6565b600a5460ff16156112e45760405162461bcd60e51b815260206004820152601060248201526f14185d5cd8589b194e881c185d5cd95960821b6044820152606401610586565b60006001600160a01b0384163b1561146157604051630a85bd0160e11b81526001600160a01b0385169063150b7a02906113a39033908990889088906004016121b7565b602060405180830381600087803b1580156113bd57600080fd5b505af19250505080156113ed575060408051601f3d908101601f191682019092526113ea918101906121f4565b60015b611447573d80801561141b576040519150601f19603f3d011682016040523d82523d6000602084013e611420565b606091505b50805161143f5760405162461bcd60e51b8152600401610586906120f6565b805181602001fd5b6001600160e01b031916630a85bd0160e11b149050610ca5565b506001949350505050565b60008072184f03e93ff9f4daa797ed6e38ed64bf6a1f0160401b83106114ab5772184f03e93ff9f4daa797ed6e38ed64bf6a1f0160401b830492506040015b6904ee2d6d415b85acef8160201b83106114d5576904ee2d6d415b85acef8160201b830492506020015b662386f26fc1000083106114f357662386f26fc10000830492506010015b6305f5e100831061150b576305f5e100830492506008015b612710831061151f57612710830492506004015b60648310611531576064830492506002015b600a83106104525760010192915050565b60006001600160e01b031982166380ac58cd60e01b148061157357506001600160e01b03198216635b5e139f60e01b145b8061045257506301ffc9a760e01b6001600160e01b0319831614610452565b61159e84848484611988565b600181111561160d5760405162461bcd60e51b815260206004820152603560248201527f455243373231456e756d657261626c653a20636f6e7365637574697665207472604482015274185b9cd9995c9cc81b9bdd081cdd5c1c1bdc9d1959605a1b6064820152608401610586565b816001600160a01b0385166116695761166481600880546000838152600960205260408120829055600182018355919091527ff3f7a9fe364faab93b216da50a3214154f22a0a2b415b23a84c8169e8b636ee30155565b61168c565b836001600160a01b0316856001600160a01b03161461168c5761168c8582611a10565b6001600160a01b0384166116a8576116a381611aad565b6116cb565b846001600160a01b0316846001600160a01b0316146116cb576116cb8482611b5c565b5050505050565b60606104526001600160a01b03831660145b606060006116f3836002612211565b6116fe906002612230565b6001600160401b0381111561171557611715611dcd565b6040519080825280601f01601f19166020018201604052801561173f576020820181803683370190505b509050600360fc1b8160008151811061175a5761175a612009565b60200101906001600160f81b031916908160001a905350600f60fb1b8160018151811061178957611789612009565b60200101906001600160f81b031916908160001a90535060006117ad846002612211565b6117b8906001612230565b90505b6001811115611830576f181899199a1a9b1b9c1cb0b131b232b360811b85600f16601081106117ec576117ec612009565b1a60f81b82828151811061180257611802612009565b60200101906001600160f81b031916908160001a90535060049490941c9361182981612248565b90506117bb565b508315610b455760405162461bcd60e51b815260206004820181905260248201527f537472696e67733a20686578206c656e67746820696e73756666696369656e746044820152606401610586565b6001600160a01b0382166118d55760405162461bcd60e51b815260206004820181905260248201527f4552433732313a206d696e7420746f20746865207a65726f20616464726573736044820152606401610586565b6118de81611211565b156118fb5760405162461bcd60e51b81526004016105869061225f565b61190960008383600161122e565b61191281611211565b1561192f5760405162461bcd60e51b81526004016105869061225f565b6001600160a01b038216600081815260036020908152604080832080546001019055848352600290915280822080546001600160a01b031916841790555183929190600080516020612343833981519152908290a45050565b6001811115610a84576001600160a01b038416156119ce576001600160a01b038416600090815260036020526040812080548392906119c8908490612295565b90915550505b6001600160a01b03831615610a84576001600160a01b03831660009081526003602052604081208054839290611a05908490612230565b909155505050505050565b60006001611a1d84610958565b611a279190612295565b600083815260076020526040902054909150808214611a7a576001600160a01b03841660009081526006602090815260408083208584528252808320548484528184208190558352600790915290208190555b5060009182526007602090815260408084208490556001600160a01b039094168352600681528383209183525290812055565b600854600090611abf90600190612295565b60008381526009602052604081205460088054939450909284908110611ae757611ae7612009565b906000526020600020015490508060088381548110611b0857611b08612009565b6000918252602080832090910192909255828152600990915260408082208490558582528120556008805480611b4057611b406122ac565b6001900381819060005260206000200160009055905550505050565b6000611b6783610958565b6001600160a01b039093166000908152600660209081526040808320868452825280832085905593825260079052919091209190915550565b828054611bac90611f81565b90600052602060002090601f016020900481019282611bce5760008555611c14565b82601f10611be757805160ff1916838001178555611c14565b82800160010185558215611c14579182015b82811115611c14578251825591602001919060010190611bf9565b50611c20929150611c24565b5090565b5b80821115611c205760008155600101611c25565b6001600160e01b0319811681146107c357600080fd5b600060208284031215611c6157600080fd5b8135610b4581611c39565b60005b83811015611c87578181015183820152602001611c6f565b83811115610a845750506000910152565b60008151808452611cb0816020860160208601611c6c565b601f01601f19169290920160200192915050565b602081526000610b456020830184611c98565b600060208284031215611ce957600080fd5b5035919050565b6001600160a01b0391909116815260200190565b80356001600160a01b0381168114611d1b57600080fd5b919050565b60008060408385031215611d3357600080fd5b611d3c83611d04565b946020939093013593505050565b600080600060608486031215611d5f57600080fd5b611d6884611d04565b9250611d7660208501611d04565b9150604084013590509250925092565b60008060408385031215611d9957600080fd5b82359150611da960208401611d04565b90509250929050565b600060208284031215611dc457600080fd5b610b4582611d04565b634e487b7160e01b600052604160045260246000fd5b60006001600160401b0380841115611dfd57611dfd611dcd565b604051601f8501601f19908116603f01168101908282118183101715611e2557611e25611dcd565b81604052809350858152868686011115611e3e57600080fd5b858560208301376000602087830101525050509392505050565b600060208284031215611e6a57600080fd5b81356001600160401b03811115611e8057600080fd5b8201601f81018413611e9157600080fd5b610ca584823560208401611de3565b60008060408385031215611eb357600080fd5b611ebc83611d04565b915060208301358015158114611ed157600080fd5b809150509250929050565b60008060008060808587031215611ef257600080fd5b611efb85611d04565b9350611f0960208601611d04565b92506040850135915060608501356001600160401b03811115611f2b57600080fd5b8501601f81018713611f3c57600080fd5b611f4b87823560208401611de3565b91505092959194509250565b60008060408385031215611f6a57600080fd5b611f7383611d04565b9150611da960208401611d04565b600181811c90821680611f9557607f821691505b60208210811415611fb657634e487b7160e01b600052602260045260246000fd5b50919050565b6020808252602d908201527f4552433732313a2063616c6c6572206973206e6f7420746f6b656e206f776e6560408201526c1c881bdc88185c1c1c9bdd9959609a1b606082015260800190565b634e487b7160e01b600052603260045260246000fd5b602080825260189082015277115490cdcc8c4e881a5b9d985b1a59081d1bdad95b88125160421b604082015260600190565b634e487b7160e01b600052601160045260246000fd5b600060001982141561207b5761207b612051565b5060010190565b60008351612094818460208801611c6c565b8351908301906120a8818360208801611c6c565b01949350505050565b60208082526025908201527f4552433732313a207472616e736665722066726f6d20696e636f72726563742060408201526437bbb732b960d91b606082015260800190565b60208082526032908201527f4552433732313a207472616e7366657220746f206e6f6e20455243373231526560408201527131b2b4bb32b91034b6b83632b6b2b73a32b960711b606082015260800190565b76020b1b1b2b9b9a1b7b73a3937b61d1030b1b1b7bab73a1604d1b81526000835161217a816017850160208801611c6c565b7001034b99036b4b9b9b4b733903937b6329607d1b60179184019182015283516121ab816028840160208801611c6c565b01602801949350505050565b6001600160a01b03858116825284166020820152604081018390526080606082018190526000906121ea90830184611c98565b9695505050505050565b60006020828403121561220657600080fd5b8151610b4581611c39565b600081600019048311821515161561222b5761222b612051565b500290565b6000821982111561224357612243612051565b500190565b60008161225757612257612051565b506000190190565b6020808252601c908201527b115490cdcc8c4e881d1bdad95b88185b1c9958591e481b5a5b9d195960221b604082015260600190565b6000828210156122a7576122a7612051565b500390565b634e487b7160e01b600052603160045260246000fdfe61c92169ef077349011ff0b1383c894d86c5f0b41d986366b58a6cf31e93bedad1f21ec03a6eb050fba156f5316dad461735df521fb446dd42c5a4728e9c70fe65d7a28e3265b37a6474929f336521b332c1681b933f6cb9f3376673440d862a9f2df0fed2c77648de5860a4cc508cd0818c85b8b8a1ab4ceeef8d981c8956a6ddf252ad1be2c89b69c2b068fc378daa952ba7f163c4a11628f55a4df523b3efa2646970667358221220b30c13a46bff63613a7ca683ee7c54f2323fabe4269fab1df8b92f2d5b75104c64736f6c63430008090033",
  "linkReferences": {},
  "deployedLinkReferences": {}
}