{
  "_format": "hh-sol-artifact-1",
  "contractName": "rentMarket",
  "sourceName": "contracts/rentMarket.sol",
  "abi": [
    {
      "inputs": [
        {
          "internalType": "bool",
          "name": "exclusive_",
          "type": "bool"
        }
      ],
      "stateMutability": "nonpayable",
      "type": "constructor"
    },
    {
      "anonymous": false,
      "inputs": [
        {
          "indexed": true,
          "internalType": "address",
          "name": "nftAddress",
          "type": "address"
        },
        {
          "indexed": true,
          "internalType": "uint256",
          "name": "tokenId",
          "type": "uint256"
        },
        {
          "indexed": false,
          "internalType": "uint256",
          "name": "rentFee",
          "type": "uint256"
        },
        {
          "indexed": false,
          "internalType": "address",
          "name": "feeTokenAddress",
          "type": "address"
        },
        {
          "indexed": false,
          "internalType": "uint256",
          "name": "rentFeeByToken",
          "type": "uint256"
        },
        {
          "indexed": false,
          "internalType": "uint256",
          "name": "rentDuration",
          "type": "uint256"
        },
        {
          "indexed": false,
          "internalType": "address",
          "name": "NFTOwnerAddress",
          "type": "address"
        },
        {
          "indexed": true,
          "internalType": "address",
          "name": "changerAddress",
          "type": "address"
        }
      ],
      "name": "ChangeNFT",
      "type": "event"
    },
    {
      "anonymous": false,
      "inputs": [
        {
          "indexed": true,
          "internalType": "address",
          "name": "sender",
          "type": "address"
        }
      ],
      "name": "Fallback",
      "type": "event"
    },
    {
      "anonymous": false,
      "inputs": [
        {
          "indexed": true,
          "internalType": "address",
          "name": "previousOwner",
          "type": "address"
        },
        {
          "indexed": true,
          "internalType": "address",
          "name": "newOwner",
          "type": "address"
        }
      ],
      "name": "OwnershipTransferred",
      "type": "event"
    },
    {
      "anonymous": false,
      "inputs": [
        {
          "indexed": false,
          "internalType": "address",
          "name": "account",
          "type": "address"
        }
      ],
      "name": "Paused",
      "type": "event"
    },
    {
      "anonymous": false,
      "inputs": [
        {
          "indexed": true,
          "internalType": "address",
          "name": "sender",
          "type": "address"
        },
        {
          "indexed": true,
          "internalType": "uint256",
          "name": "value",
          "type": "uint256"
        }
      ],
      "name": "Receive",
      "type": "event"
    },
    {
      "anonymous": false,
      "inputs": [
        {
          "indexed": true,
          "internalType": "address",
          "name": "collectionAddress",
          "type": "address"
        },
        {
          "indexed": false,
          "internalType": "string",
          "name": "uri",
          "type": "string"
        }
      ],
      "name": "RegisterCollection",
      "type": "event"
    },
    {
      "anonymous": false,
      "inputs": [
        {
          "indexed": true,
          "internalType": "address",
          "name": "nftAddress",
          "type": "address"
        },
        {
          "indexed": true,
          "internalType": "uint256",
          "name": "tokenId",
          "type": "uint256"
        },
        {
          "indexed": false,
          "internalType": "uint256",
          "name": "rentFee",
          "type": "uint256"
        },
        {
          "indexed": false,
          "internalType": "uint256",
          "name": "rentDuration",
          "type": "uint256"
        },
        {
          "indexed": true,
          "internalType": "address",
          "name": "NFTOwnerAddress",
          "type": "address"
        }
      ],
      "name": "RegisterNFT",
      "type": "event"
    },
    {
      "anonymous": false,
      "inputs": [
        {
          "indexed": true,
          "internalType": "address",
          "name": "serviceAddress",
          "type": "address"
        },
        {
          "indexed": false,
          "internalType": "string",
          "name": "uri",
          "type": "string"
        }
      ],
      "name": "RegisterService",
      "type": "event"
    },
    {
      "anonymous": false,
      "inputs": [
        {
          "indexed": true,
          "internalType": "address",
          "name": "tokenAddress",
          "type": "address"
        },
        {
          "indexed": false,
          "internalType": "string",
          "name": "name",
          "type": "string"
        }
      ],
      "name": "RegisterToken",
      "type": "event"
    },
    {
      "anonymous": false,
      "inputs": [
        {
          "indexed": true,
          "internalType": "address",
          "name": "nftAddress",
          "type": "address"
        },
        {
          "indexed": true,
          "internalType": "uint256",
          "name": "tokenId",
          "type": "uint256"
        },
        {
          "indexed": false,
          "internalType": "uint256",
          "name": "rentFee",
          "type": "uint256"
        },
        {
          "indexed": false,
          "internalType": "address",
          "name": "feeTokenAddress",
          "type": "address"
        },
        {
          "indexed": false,
          "internalType": "uint256",
          "name": "rentFeeByToken",
          "type": "uint256"
        },
        {
          "indexed": false,
          "internalType": "bool",
          "name": "isRentByToken",
          "type": "bool"
        },
        {
          "indexed": false,
          "internalType": "uint256",
          "name": "rentDuration",
          "type": "uint256"
        },
        {
          "indexed": false,
          "internalType": "address",
          "name": "renterAddress",
          "type": "address"
        },
        {
          "indexed": true,
          "internalType": "address",
          "name": "renteeAddress",
          "type": "address"
        },
        {
          "indexed": false,
          "internalType": "address",
          "name": "serviceAddress",
          "type": "address"
        },
        {
          "indexed": false,
          "internalType": "uint256",
          "name": "rentStartTimestamp",
          "type": "uint256"
        }
      ],
      "name": "RentNFT",
      "type": "event"
    },
    {
      "anonymous": false,
      "inputs": [
        {
          "indexed": true,
          "internalType": "address",
          "name": "nftAddress",
          "type": "address"
        },
        {
          "indexed": true,
          "internalType": "uint256",
          "name": "tokenId",
          "type": "uint256"
        },
        {
          "indexed": false,
          "internalType": "uint256",
          "name": "rentFee",
          "type": "uint256"
        },
        {
          "indexed": false,
          "internalType": "address",
          "name": "feeTokenAddress",
          "type": "address"
        },
        {
          "indexed": false,
          "internalType": "uint256",
          "name": "rentFeeByToken",
          "type": "uint256"
        },
        {
          "indexed": false,
          "internalType": "bool",
          "name": "isRentByToken",
          "type": "bool"
        },
        {
          "indexed": false,
          "internalType": "uint256",
          "name": "rentDuration",
          "type": "uint256"
        },
        {
          "indexed": false,
          "internalType": "address",
          "name": "renterAddress",
          "type": "address"
        },
        {
          "indexed": true,
          "internalType": "address",
          "name": "renteeAddress",
          "type": "address"
        },
        {
          "indexed": false,
          "internalType": "address",
          "name": "serviceAddress",
          "type": "address"
        },
        {
          "indexed": false,
          "internalType": "uint256",
          "name": "rentStartTimestamp",
          "type": "uint256"
        }
      ],
      "name": "SettleRentData",
      "type": "event"
    },
    {
      "anonymous": false,
      "inputs": [
        {
          "indexed": false,
          "internalType": "address",
          "name": "account",
          "type": "address"
        }
      ],
      "name": "Unpaused",
      "type": "event"
    },
    {
      "anonymous": false,
      "inputs": [
        {
          "indexed": true,
          "internalType": "address",
          "name": "collectionAddress",
          "type": "address"
        },
        {
          "indexed": false,
          "internalType": "string",
          "name": "uri",
          "type": "string"
        }
      ],
      "name": "UnregisterCollection",
      "type": "event"
    },
    {
      "anonymous": false,
      "inputs": [
        {
          "indexed": true,
          "internalType": "address",
          "name": "nftAddress",
          "type": "address"
        },
        {
          "indexed": true,
          "internalType": "uint256",
          "name": "tokenId",
          "type": "uint256"
        },
        {
          "indexed": false,
          "internalType": "uint256",
          "name": "rentFee",
          "type": "uint256"
        },
        {
          "indexed": false,
          "internalType": "address",
          "name": "feeTokenAddress",
          "type": "address"
        },
        {
          "indexed": false,
          "internalType": "uint256",
          "name": "rentFeeByToken",
          "type": "uint256"
        },
        {
          "indexed": false,
          "internalType": "uint256",
          "name": "rentDuration",
          "type": "uint256"
        },
        {
          "indexed": false,
          "internalType": "address",
          "name": "NFTOwnerAddress",
          "type": "address"
        },
        {
          "indexed": true,
          "internalType": "address",
          "name": "UnregisterAddress",
          "type": "address"
        }
      ],
      "name": "UnregisterNFT",
      "type": "event"
    },
    {
      "anonymous": false,
      "inputs": [
        {
          "indexed": true,
          "internalType": "address",
          "name": "serviceAddress",
          "type": "address"
        },
        {
          "indexed": false,
          "internalType": "string",
          "name": "uri",
          "type": "string"
        }
      ],
      "name": "UnregisterService",
      "type": "event"
    },
    {
      "anonymous": false,
      "inputs": [
        {
          "indexed": true,
          "internalType": "address",
          "name": "tokenAddress",
          "type": "address"
        },
        {
          "indexed": false,
          "internalType": "string",
          "name": "name",
          "type": "string"
        }
      ],
      "name": "UnregisterToken",
      "type": "event"
    },
    {
      "anonymous": false,
      "inputs": [
        {
          "indexed": true,
          "internalType": "address",
          "name": "nftAddress",
          "type": "address"
        },
        {
          "indexed": true,
          "internalType": "uint256",
          "name": "tokenId",
          "type": "uint256"
        },
        {
          "indexed": false,
          "internalType": "uint256",
          "name": "rentFee",
          "type": "uint256"
        },
        {
          "indexed": false,
          "internalType": "address",
          "name": "feeTokenAddress",
          "type": "address"
        },
        {
          "indexed": false,
          "internalType": "uint256",
          "name": "rentFeeByToken",
          "type": "uint256"
        },
        {
          "indexed": false,
          "internalType": "bool",
          "name": "isRentByToken",
          "type": "bool"
        },
        {
          "indexed": false,
          "internalType": "uint256",
          "name": "rentDuration",
          "type": "uint256"
        },
        {
          "indexed": false,
          "internalType": "address",
          "name": "renterAddress",
          "type": "address"
        },
        {
          "indexed": true,
          "internalType": "address",
          "name": "renteeAddress",
          "type": "address"
        },
        {
          "indexed": false,
          "internalType": "address",
          "name": "serviceAddress",
          "type": "address"
        },
        {
          "indexed": false,
          "internalType": "uint256",
          "name": "rentStartTimestamp",
          "type": "uint256"
        }
      ],
      "name": "UnrentNFT",
      "type": "event"
    },
    {
      "anonymous": false,
      "inputs": [
        {
          "indexed": true,
          "internalType": "address",
          "name": "recipient",
          "type": "address"
        },
        {
          "indexed": true,
          "internalType": "address",
          "name": "tokenAddress",
          "type": "address"
        },
        {
          "indexed": true,
          "internalType": "uint256",
          "name": "amount",
          "type": "uint256"
        }
      ],
      "name": "WithdrawMyBalance",
      "type": "event"
    },
    {
      "stateMutability": "payable",
      "type": "fallback"
    },
    {
      "inputs": [
        {
          "internalType": "address",
          "name": "nftAddress",
          "type": "address"
        },
        {
          "internalType": "uint256",
          "name": "tokenId",
          "type": "uint256"
        },
        {
          "internalType": "uint256",
          "name": "rentFee",
          "type": "uint256"
        },
        {
          "internalType": "address",
          "name": "feeTokenAddress",
          "type": "address"
        },
        {
          "internalType": "uint256",
          "name": "rentFeeByToken",
          "type": "uint256"
        },
        {
          "internalType": "uint256",
          "name": "rentDuration",
          "type": "uint256"
        }
      ],
      "name": "changeNFT",
      "outputs": [
        {
          "internalType": "bool",
          "name": "success",
          "type": "bool"
        }
      ],
      "stateMutability": "nonpayable",
      "type": "function"
    },
    {
      "inputs": [
        {
          "internalType": "address",
          "name": "tokenAddress_",
          "type": "address"
        },
        {
          "internalType": "address",
          "name": "rewardTokenShareContractAddress_",
          "type": "address"
        }
      ],
      "name": "distributeVestingToken",
      "outputs": [],
      "stateMutability": "nonpayable",
      "type": "function"
    },
    {
      "inputs": [],
      "name": "exclusive",
      "outputs": [
        {
          "internalType": "bool",
          "name": "",
          "type": "bool"
        }
      ],
      "stateMutability": "view",
      "type": "function"
    },
    {
      "inputs": [],
      "name": "getAllAccountBalance",
      "outputs": [
        {
          "components": [
            {
              "internalType": "address",
              "name": "accountAddress",
              "type": "address"
            },
            {
              "internalType": "address",
              "name": "tokenAddress",
              "type": "address"
            },
            {
              "internalType": "uint256",
              "name": "amount",
              "type": "uint256"
            }
          ],
          "internalType": "struct accountBalanceIterableMap.accountBalance[]",
          "name": "",
          "type": "tuple[]"
        }
      ],
      "stateMutability": "view",
      "type": "function"
    },
    {
      "inputs": [],
      "name": "getAllCollection",
      "outputs": [
        {
          "components": [
            {
              "internalType": "address",
              "name": "collectionAddress",
              "type": "address"
            },
            {
              "internalType": "string",
              "name": "uri",
              "type": "string"
            }
          ],
          "internalType": "struct collectionDataIterableMap.collectionData[]",
          "name": "",
          "type": "tuple[]"
        }
      ],
      "stateMutability": "view",
      "type": "function"
    },
    {
      "inputs": [],
      "name": "getAllPendingRentFee",
      "outputs": [
        {
          "components": [
            {
              "internalType": "address",
              "name": "renterAddress",
              "type": "address"
            },
            {
              "internalType": "address",
              "name": "serviceAddress",
              "type": "address"
            },
            {
              "internalType": "address",
              "name": "feeTokenAddress",
              "type": "address"
            },
            {
              "internalType": "uint256",
              "name": "amount",
              "type": "uint256"
            }
          ],
          "internalType": "struct pendingRentFeeIterableMap.pendingRentFee[]",
          "name": "",
          "type": "tuple[]"
        }
      ],
      "stateMutability": "view",
      "type": "function"
    },
    {
      "inputs": [],
      "name": "getAllRegisterData",
      "outputs": [
        {
          "components": [
            {
              "internalType": "address",
              "name": "nftAddress",
              "type": "address"
            },
            {
              "internalType": "uint256",
              "name": "tokenId",
              "type": "uint256"
            },
            {
              "internalType": "uint256",
              "name": "rentFee",
              "type": "uint256"
            },
            {
              "internalType": "address",
              "name": "feeTokenAddress",
              "type": "address"
            },
            {
              "internalType": "uint256",
              "name": "rentFeeByToken",
              "type": "uint256"
            },
            {
              "internalType": "uint256",
              "name": "rentDuration",
              "type": "uint256"
            }
          ],
          "internalType": "struct registerDataIterableMap.registerData[]",
          "name": "",
          "type": "tuple[]"
        }
      ],
      "stateMutability": "view",
      "type": "function"
    },
    {
      "inputs": [],
      "name": "getAllRentData",
      "outputs": [
        {
          "components": [
            {
              "internalType": "address",
              "name": "nftAddress",
              "type": "address"
            },
            {
              "internalType": "uint256",
              "name": "tokenId",
              "type": "uint256"
            },
            {
              "internalType": "uint256",
              "name": "rentFee",
              "type": "uint256"
            },
            {
              "internalType": "address",
              "name": "feeTokenAddress",
              "type": "address"
            },
            {
              "internalType": "uint256",
              "name": "rentFeeByToken",
              "type": "uint256"
            },
            {
              "internalType": "bool",
              "name": "isRentByToken",
              "type": "bool"
            },
            {
              "internalType": "uint256",
              "name": "rentDuration",
              "type": "uint256"
            },
            {
              "internalType": "address",
              "name": "renterAddress",
              "type": "address"
            },
            {
              "internalType": "address",
              "name": "renteeAddress",
              "type": "address"
            },
            {
              "internalType": "address",
              "name": "serviceAddress",
              "type": "address"
            },
            {
              "internalType": "uint256",
              "name": "rentStartTimestamp",
              "type": "uint256"
            }
          ],
          "internalType": "struct rentDataIterableMap.rentData[]",
          "name": "",
          "type": "tuple[]"
        }
      ],
      "stateMutability": "view",
      "type": "function"
    },
    {
      "inputs": [],
      "name": "getAllService",
      "outputs": [
        {
          "components": [
            {
              "internalType": "address",
              "name": "serviceAddress",
              "type": "address"
            },
            {
              "internalType": "string",
              "name": "uri",
              "type": "string"
            }
          ],
          "internalType": "struct serviceDataIterableMap.serviceData[]",
          "name": "",
          "type": "tuple[]"
        }
      ],
      "stateMutability": "view",
      "type": "function"
    },
    {
      "inputs": [],
      "name": "getAllToken",
      "outputs": [
        {
          "components": [
            {
              "internalType": "address",
              "name": "tokenAddress",
              "type": "address"
            },
            {
              "internalType": "string",
              "name": "name",
              "type": "string"
            }
          ],
          "internalType": "struct tokenDataIterableMap.tokenData[]",
          "name": "",
          "type": "tuple[]"
        }
      ],
      "stateMutability": "view",
      "type": "function"
    },
    {
      "inputs": [
        {
          "internalType": "address",
          "name": "collectionAddress",
          "type": "address"
        }
      ],
      "name": "getCollection",
      "outputs": [
        {
          "components": [
            {
              "internalType": "address",
              "name": "collectionAddress",
              "type": "address"
            },
            {
              "internalType": "string",
              "name": "uri",
              "type": "string"
            }
          ],
          "internalType": "struct collectionDataIterableMap.collectionData",
          "name": "",
          "type": "tuple"
        }
      ],
      "stateMutability": "view",
      "type": "function"
    },
    {
      "inputs": [],
      "name": "getFeeQuota",
      "outputs": [
        {
          "internalType": "uint256",
          "name": "renterFeeQuota",
          "type": "uint256"
        },
        {
          "internalType": "uint256",
          "name": "serviceFeeQuota",
          "type": "uint256"
        },
        {
          "internalType": "uint256",
          "name": "marketFeeQuota",
          "type": "uint256"
        }
      ],
      "stateMutability": "view",
      "type": "function"
    },
    {
      "inputs": [],
      "name": "getMarketShareAddress",
      "outputs": [
        {
          "internalType": "address",
          "name": "shareAddress",
          "type": "address"
        }
      ],
      "stateMutability": "view",
      "type": "function"
    },
    {
      "inputs": [
        {
          "internalType": "address",
          "name": "tokenAddress",
          "type": "address"
        }
      ],
      "name": "getMyBalance",
      "outputs": [
        {
          "internalType": "uint256",
          "name": "balance",
          "type": "uint256"
        }
      ],
      "stateMutability": "view",
      "type": "function"
    },
    {
      "inputs": [
        {
          "internalType": "address",
          "name": "nftAddress",
          "type": "address"
        },
        {
          "internalType": "uint256",
          "name": "tokenId",
          "type": "uint256"
        }
      ],
      "name": "getRegisterData",
      "outputs": [
        {
          "components": [
            {
              "internalType": "address",
              "name": "nftAddress",
              "type": "address"
            },
            {
              "internalType": "uint256",
              "name": "tokenId",
              "type": "uint256"
            },
            {
              "internalType": "uint256",
              "name": "rentFee",
              "type": "uint256"
            },
            {
              "internalType": "address",
              "name": "feeTokenAddress",
              "type": "address"
            },
            {
              "internalType": "uint256",
              "name": "rentFeeByToken",
              "type": "uint256"
            },
            {
              "internalType": "uint256",
              "name": "rentDuration",
              "type": "uint256"
            }
          ],
          "internalType": "struct registerDataIterableMap.registerData",
          "name": "",
          "type": "tuple"
        }
      ],
      "stateMutability": "view",
      "type": "function"
    },
    {
      "inputs": [
        {
          "internalType": "address",
          "name": "nftAddress",
          "type": "address"
        },
        {
          "internalType": "uint256",
          "name": "tokenId",
          "type": "uint256"
        }
      ],
      "name": "getRentData",
      "outputs": [
        {
          "components": [
            {
              "internalType": "address",
              "name": "nftAddress",
              "type": "address"
            },
            {
              "internalType": "uint256",
              "name": "tokenId",
              "type": "uint256"
            },
            {
              "internalType": "uint256",
              "name": "rentFee",
              "type": "uint256"
            },
            {
              "internalType": "address",
              "name": "feeTokenAddress",
              "type": "address"
            },
            {
              "internalType": "uint256",
              "name": "rentFeeByToken",
              "type": "uint256"
            },
            {
              "internalType": "bool",
              "name": "isRentByToken",
              "type": "bool"
            },
            {
              "internalType": "uint256",
              "name": "rentDuration",
              "type": "uint256"
            },
            {
              "internalType": "address",
              "name": "renterAddress",
              "type": "address"
            },
            {
              "internalType": "address",
              "name": "renteeAddress",
              "type": "address"
            },
            {
              "internalType": "address",
              "name": "serviceAddress",
              "type": "address"
            },
            {
              "internalType": "uint256",
              "name": "rentStartTimestamp",
              "type": "uint256"
            }
          ],
          "internalType": "struct rentDataIterableMap.rentData",
          "name": "",
          "type": "tuple"
        }
      ],
      "stateMutability": "view",
      "type": "function"
    },
    {
      "inputs": [
        {
          "internalType": "address",
          "name": "serviceAddress",
          "type": "address"
        }
      ],
      "name": "getService",
      "outputs": [
        {
          "components": [
            {
              "internalType": "address",
              "name": "serviceAddress",
              "type": "address"
            },
            {
              "internalType": "string",
              "name": "uri",
              "type": "string"
            }
          ],
          "internalType": "struct serviceDataIterableMap.serviceData",
          "name": "",
          "type": "tuple"
        }
      ],
      "stateMutability": "view",
      "type": "function"
    },
    {
      "inputs": [],
      "name": "getThreshold",
      "outputs": [
        {
          "internalType": "uint256",
          "name": "",
          "type": "uint256"
        }
      ],
      "stateMutability": "view",
      "type": "function"
    },
    {
      "inputs": [
        {
          "internalType": "address",
          "name": "tokenAddress_",
          "type": "address"
        }
      ],
      "name": "getTotalAccountBalance",
      "outputs": [
        {
          "internalType": "uint256",
          "name": "totalAccountBalance_",
          "type": "uint256"
        }
      ],
      "stateMutability": "view",
      "type": "function"
    },
    {
      "inputs": [
        {
          "internalType": "address",
          "name": "account",
          "type": "address"
        }
      ],
      "name": "isOwnerOrRenter",
      "outputs": [
        {
          "internalType": "bool",
          "name": "success",
          "type": "bool"
        }
      ],
      "stateMutability": "view",
      "type": "function"
    },
    {
      "inputs": [],
      "name": "owner",
      "outputs": [
        {
          "internalType": "address",
          "name": "",
          "type": "address"
        }
      ],
      "stateMutability": "view",
      "type": "function"
    },
    {
      "inputs": [],
      "name": "pause",
      "outputs": [],
      "stateMutability": "nonpayable",
      "type": "function"
    },
    {
      "inputs": [],
      "name": "paused",
      "outputs": [
        {
          "internalType": "bool",
          "name": "",
          "type": "bool"
        }
      ],
      "stateMutability": "view",
      "type": "function"
    },
    {
      "inputs": [
        {
          "internalType": "address",
          "name": "collectionAddress",
          "type": "address"
        },
        {
          "internalType": "string",
          "name": "uri",
          "type": "string"
        }
      ],
      "name": "registerCollection",
      "outputs": [
        {
          "internalType": "bool",
          "name": "success",
          "type": "bool"
        }
      ],
      "stateMutability": "nonpayable",
      "type": "function"
    },
    {
      "inputs": [
        {
          "internalType": "address",
          "name": "nftAddress",
          "type": "address"
        },
        {
          "internalType": "uint256",
          "name": "tokenId",
          "type": "uint256"
        }
      ],
      "name": "registerNFT",
      "outputs": [
        {
          "internalType": "bool",
          "name": "success",
          "type": "bool"
        }
      ],
      "stateMutability": "nonpayable",
      "type": "function"
    },
    {
      "inputs": [
        {
          "internalType": "address",
          "name": "serviceAddress",
          "type": "address"
        },
        {
          "internalType": "string",
          "name": "uri",
          "type": "string"
        }
      ],
      "name": "registerService",
      "outputs": [
        {
          "internalType": "bool",
          "name": "success",
          "type": "bool"
        }
      ],
      "stateMutability": "nonpayable",
      "type": "function"
    },
    {
      "inputs": [
        {
          "internalType": "address",
          "name": "tokenAddress",
          "type": "address"
        },
        {
          "internalType": "string",
          "name": "name",
          "type": "string"
        }
      ],
      "name": "registerToken",
      "outputs": [
        {
          "internalType": "bool",
          "name": "success",
          "type": "bool"
        }
      ],
      "stateMutability": "nonpayable",
      "type": "function"
    },
    {
      "inputs": [],
      "name": "renounceOwnership",
      "outputs": [],
      "stateMutability": "nonpayable",
      "type": "function"
    },
    {
      "inputs": [
        {
          "internalType": "address",
          "name": "nftAddress",
          "type": "address"
        },
        {
          "internalType": "uint256",
          "name": "tokenId",
          "type": "uint256"
        },
        {
          "internalType": "address",
          "name": "serviceAddress",
          "type": "address"
        }
      ],
      "name": "rentNFT",
      "outputs": [
        {
          "internalType": "bool",
          "name": "success",
          "type": "bool"
        }
      ],
      "stateMutability": "payable",
      "type": "function"
    },
    {
      "inputs": [
        {
          "internalType": "address",
          "name": "nftAddress",
          "type": "address"
        },
        {
          "internalType": "uint256",
          "name": "tokenId",
          "type": "uint256"
        },
        {
          "internalType": "address",
          "name": "serviceAddress",
          "type": "address"
        }
      ],
      "name": "rentNFTByToken",
      "outputs": [
        {
          "internalType": "bool",
          "name": "success",
          "type": "bool"
        }
      ],
      "stateMutability": "payable",
      "type": "function"
    },
    {
      "inputs": [
        {
          "internalType": "uint256",
          "name": "renterFeeQuota",
          "type": "uint256"
        },
        {
          "internalType": "uint256",
          "name": "serviceFeeQuota",
          "type": "uint256"
        },
        {
          "internalType": "uint256",
          "name": "marketFeeQuota",
          "type": "uint256"
        }
      ],
      "name": "setFeeQuota",
      "outputs": [],
      "stateMutability": "nonpayable",
      "type": "function"
    },
    {
      "inputs": [
        {
          "internalType": "address",
          "name": "shareAddress",
          "type": "address"
        }
      ],
      "name": "setMarketShareAddress",
      "outputs": [],
      "stateMutability": "nonpayable",
      "type": "function"
    },
    {
      "inputs": [
        {
          "internalType": "uint256",
          "name": "threshold_",
          "type": "uint256"
        }
      ],
      "name": "setThreshold",
      "outputs": [],
      "stateMutability": "nonpayable",
      "type": "function"
    },
    {
      "inputs": [
        {
          "internalType": "address",
          "name": "nftAddress",
          "type": "address"
        },
        {
          "internalType": "uint256",
          "name": "tokenId",
          "type": "uint256"
        }
      ],
      "name": "settleRentData",
      "outputs": [
        {
          "internalType": "bool",
          "name": "success",
          "type": "bool"
        }
      ],
      "stateMutability": "nonpayable",
      "type": "function"
    },
    {
      "inputs": [
        {
          "internalType": "address",
          "name": "newOwner",
          "type": "address"
        }
      ],
      "name": "transferOwnership",
      "outputs": [],
      "stateMutability": "nonpayable",
      "type": "function"
    },
    {
      "inputs": [],
      "name": "unpause",
      "outputs": [],
      "stateMutability": "nonpayable",
      "type": "function"
    },
    {
      "inputs": [
        {
          "internalType": "address",
          "name": "collectionAddress",
          "type": "address"
        }
      ],
      "name": "unregisterCollection",
      "outputs": [
        {
          "internalType": "bool",
          "name": "success",
          "type": "bool"
        }
      ],
      "stateMutability": "nonpayable",
      "type": "function"
    },
    {
      "inputs": [
        {
          "internalType": "address",
          "name": "nftAddress",
          "type": "address"
        },
        {
          "internalType": "uint256",
          "name": "tokenId",
          "type": "uint256"
        }
      ],
      "name": "unregisterNFT",
      "outputs": [
        {
          "internalType": "bool",
          "name": "success",
          "type": "bool"
        }
      ],
      "stateMutability": "nonpayable",
      "type": "function"
    },
    {
      "inputs": [
        {
          "internalType": "address",
          "name": "serviceAddress",
          "type": "address"
        }
      ],
      "name": "unregisterService",
      "outputs": [
        {
          "internalType": "bool",
          "name": "success",
          "type": "bool"
        }
      ],
      "stateMutability": "nonpayable",
      "type": "function"
    },
    {
      "inputs": [
        {
          "internalType": "address",
          "name": "tokenAddress",
          "type": "address"
        }
      ],
      "name": "unregisterToken",
      "outputs": [
        {
          "internalType": "bool",
          "name": "success",
          "type": "bool"
        }
      ],
      "stateMutability": "nonpayable",
      "type": "function"
    },
    {
      "inputs": [
        {
          "internalType": "address",
          "name": "nftAddress",
          "type": "address"
        },
        {
          "internalType": "uint256",
          "name": "tokenId",
          "type": "uint256"
        }
      ],
      "name": "unrentNFT",
      "outputs": [
        {
          "internalType": "bool",
          "name": "success",
          "type": "bool"
        }
      ],
      "stateMutability": "nonpayable",
      "type": "function"
    },
    {
      "inputs": [
        {
          "internalType": "address",
          "name": "recipient",
          "type": "address"
        },
        {
          "internalType": "address",
          "name": "tokenAddress",
          "type": "address"
        }
      ],
      "name": "withdrawMyBalance",
      "outputs": [
        {
          "internalType": "bool",
          "name": "success",
          "type": "bool"
        }
      ],
      "stateMutability": "payable",
      "type": "function"
    },
    {
      "stateMutability": "payable",
      "type": "receive"
    }
  ],
  "bytecode": "0x6080604052670de0b6b3a76400006002556201518060035560236004556023600555601e60065560646007553480156200003857600080fd5b5060405162005ed738038062005ed78339810160408190526200005b91620000ee565b62000066336200009e565b6000805460ff60a01b19169055600180546001600160a01b031916331790556018805491151560ff1990921691909117905562000119565b600080546001600160a01b038381166001600160a01b0319831681178455604051919092169283917f8be0079c531659141344cd1fd0a4f28419497f9722a3daafe3b4186f6b6457e09190a35050565b6000602082840312156200010157600080fd5b815180151581146200011257600080fd5b9392505050565b615dae80620001296000396000f3fe6080604052600436106101e55760003560e01c806301cf2bae1461024657806301ff74f71461027957806306eb924f146102a357806315a52302146102c3578063173cb999146102f057806317a6b609146103105780631c2c2c24146103305780632736a862146103525780632d740226146103745780632e6379ed146103945780633f4ba83a146103a75780634419ebb6146103bc57806345d44eda146103e95780634b6c05fa146104095780635c975abb146104305780636558fce6146104455780636b4a08961461046557806370473d8614610485578063715018a6146104a757806377860cdd146104bc5780637e3ef7cd146104dc57806381ac825c146104fc57806383b2f9111461050f5780638456cb591461053c57806385e3c1d4146105515780638bb72e83146105735780638da5cb5b1461059557806395dbd440146105aa578063960bfe04146105cc578063adee9abd146105ec578063d4002fed1461060c578063d4fbeb191461061f578063e2fcbf731461063f578063e40de88714610661578063e5d1420f14610681578063e75235b8146106a1578063e7823fac146106b6578063e8592fc7146106d6578063ec51c0d1146106f6578063ee5afa5214610727578063eec3104214610747578063f2fde38b1461076957610219565b3661021957604051349033907fd6717f327e0cb88b4a97a7f67a453e9258252c34937ccbdd86de7cb840e7def390600090a3005b60405133907fdd0c5778ddb0b0501649417aeffed44057db3d5d530231758c8dc5ef6eeb789490600090a2005b34801561025257600080fd5b50610266610261366004614fa3565b610789565b6040519081526020015b60405180910390f35b34801561028557600080fd5b506018546102939060ff1681565b6040519015158152602001610270565b3480156102af57600080fd5b506102936102be366004615056565b61084a565b3480156102cf57600080fd5b506102e36102de366004614fa3565b610a05565b6040516102709190615180565b3480156102fc57600080fd5b5061029361030b366004614fa3565b610a9b565b34801561031c57600080fd5b5061029361032b366004615193565b610c44565b34801561033c57600080fd5b50610345611028565b6040516102709190615262565b34801561035e57600080fd5b5061037261036d3660046152b1565b611199565b005b34801561038057600080fd5b5061029361038f366004615056565b6111fc565b6102936103a23660046152dd565b61138a565b3480156103b357600080fd5b5061037261177c565b3480156103c857600080fd5b506103dc6103d7366004615193565b61178e565b6040516102709190615316565b3480156103f557600080fd5b50610293610404366004614fa3565b61182a565b34801561041557600080fd5b506001546001600160a01b03165b6040516102709190615325565b34801561043c57600080fd5b50610293611a6f565b34801561045157600080fd5b50610293610460366004615339565b611a7f565b34801561047157600080fd5b50610293610480366004615193565b611d5d565b34801561049157600080fd5b5061049a61240b565b60405161027091906153da565b3480156104b357600080fd5b50610372612535565b3480156104c857600080fd5b506102936104d7366004614fa3565b612547565b3480156104e857600080fd5b506102666104f7366004614fa3565b61276b565b61029361050a36600461541c565b6127fa565b34801561051b57600080fd5b5061052f61052a366004615193565b612d78565b604051610270919061545e565b34801561054857600080fd5b50610372612e0c565b34801561055d57600080fd5b50610566612e1c565b604051610270919061546c565b34801561057f57600080fd5b50610588612fb0565b60405161027091906154ce565b3480156105a157600080fd5b506104236130e3565b3480156105b657600080fd5b506105bf6130f2565b6040516102709190615540565b3480156105d857600080fd5b506103726105e7366004615595565b613279565b3480156105f857600080fd5b50610293610607366004614fa3565b613286565b61029361061a36600461541c565b6134aa565b34801561062b57600080fd5b5061029361063a366004615056565b613a51565b34801561064b57600080fd5b50610654613bdf565b60405161027091906155ae565b34801561066d57600080fd5b506102e361067c366004614fa3565b613ce8565b34801561068d57600080fd5b5061029361069c366004615193565b613d2a565b3480156106ad57600080fd5b50600754610266565b3480156106c257600080fd5b506103726106d13660046152dd565b614000565b3480156106e257600080fd5b506102936106f1366004615193565b6142da565b34801561070257600080fd5b5060045460055460065460408051938452602084019290925290820152606001610270565b34801561073357600080fd5b50610372610742366004614fa3565b61484a565b34801561075357600080fd5b5061075c614874565b6040516102709190615606565b34801561077557600080fd5b50610372610784366004614fa3565b6149fb565b600080610794614eb2565b60005b601554811015610841576015805460149190839081106107b9576107b961565b565b906000526020600020016040516107d091906156a6565b908152604080516020928190038301812060608201835260018101546001600160a01b039081168352600282015481169483018590526003909101549282019290925293508616141561082f57604082015161082c9084615758565b92505b8061083981615770565b915050610797565b50909392505050565b6000610854614a74565b61085c614ad3565b6040516360f353e160e01b815273__$79a40a2052c9947e027843e42106f8b048$__906360f353e19061089690600a90879060040161578b565b60206040518083038186803b1580156108ae57600080fd5b505af41580156108c2573d6000803e3d6000fd5b505050506040513d601f19601f820116820180604052508101906108e691906157b2565b1561090c5760405162461bcd60e51b8152600401610903906157cd565b60405180910390fd5b60405163287af74760e01b815260009073__$79a40a2052c9947e027843e42106f8b048$__9063287af7479061094b90600a90889088906004016157ea565b60206040518083038186803b15801561096357600080fd5b505af4158015610977573d6000803e3d6000fd5b505050506040513d601f19601f8201168201806040525081019061099b91906157b2565b9050600181151514156109f357836001600160a01b03167fdcc2016b74f9e1be59c35f005623093f22ee185961aa79657be041dba04ed0a4846040516109e1919061581d565b60405180910390a260019150506109ff565b60009150506109ff565b505b92915050565b610a0d614ed2565b604051631eb966b960e01b815273__$a27ab5a2953dc10a9c552591268754b616$__90631eb966b990610a4790600c90869060040161578b565b60006040518083038186803b158015610a5f57600080fd5b505af4158015610a73573d6000803e3d6000fd5b505050506040513d6000823e601f3d908101601f191682016040526109ff91908101906158f0565b6000806060600080610aab614874565b905060005b8151811015610bac576000828281518110610acd57610acd61565b565b6020026020010151600001519050806001600160a01b031688604051602401610af69190615325565b60408051601f198184030181529181526020820180516001600160e01b03166370a0823160e01b17905251610b2b9190615924565b600060405180830381855afa9150503d8060008114610b66576040519150601f19603f3d011682016040523d82523d6000602084013e610b6b565b606091505b5080519197509550600090610b899087016020908101908801615940565b9050610b958186615758565b945050508080610ba490615770565b915050610ab0565b508115610bbf5750600195945050505050565b6000610bc9611028565b905060005b8151811015610c36576000828281518110610beb57610beb61565b565b602002602001015161010001519050886001600160a01b0316816001600160a01b03161415610c235750600198975050505050505050565b5080610c2e81615770565b915050610bce565b506000979650505050505050565b6000610c4e614ad3565b6040516304ecf28360e41b815273__$aabfbf51bc7bf3b8af0580fb7224204a01$__90634ecf283090610c8a90600e9087908790600401615959565b60206040518083038186803b158015610ca257600080fd5b505af4158015610cb6573d6000803e3d6000fd5b505050506040513d601f19601f82011682018060405250810190610cda91906157b2565b15610d0d5760405162461bcd60e51b815260206004820152600360248201526229269960e91b6044820152606401610903565b6000610d198433614b1b565b90506000610d278585614bce565b905060018215151480610d4257506001600160a01b03811633145b80610dd857506040516360f353e160e01b815273__$79a40a2052c9947e027843e42106f8b048$__906360f353e190610d8290600a90339060040161578b565b60206040518083038186803b158015610d9a57600080fd5b505af4158015610dae573d6000803e3d6000fd5b505050506040513d601f19601f82011682018060405250810190610dd291906157b2565b15156001145b610e0a5760405162461bcd60e51b815260206004820152600360248201526214934d60ea1b6044820152606401610903565b6040516360f353e160e01b815273__$79a40a2052c9947e027843e42106f8b048$__906360f353e190610e4490600a90899060040161578b565b60206040518083038186803b158015610e5c57600080fd5b505af4158015610e70573d6000803e3d6000fd5b505050506040513d601f19601f82011682018060405250810190610e9491906157b2565b1515600114610ece5760405162461bcd60e51b8152600401610903906020808252600490820152632926991960e11b604082015260600190565b6001600160a01b038116610f0d5760405162461bcd60e51b815260040161090390602080825260049082015263524d323160e01b604082015260600190565b60025460035460405163cddd4b6760e01b815260009273__$aabfbf51bc7bf3b8af0580fb7224204a01$__9263cddd4b6792610f5892600e928c928c92918991829190600401615978565b60206040518083038186803b158015610f7057600080fd5b505af4158015610f84573d6000803e3d6000fd5b505050506040513d601f19601f82011682018060405250810190610fa891906157b2565b90506001811515141561101c57816001600160a01b031685876001600160a01b03167f582e65d918b73308f2eb058e75e68168f22c49c2994530f72d46177c78435cbb600254600354604051611008929190918252602082015260400190565b60405180910390a4600193505050506109ff565b600093505050506109ff565b6011546060906000906001600160401b0381111561104857611048614fc0565b60405190808252806020026020018201604052801561108157816020015b61106e614eea565b8152602001906001900390816110665790505b50905060005b601154811015611193576011805460109190839081106110a9576110a961565b565b906000526020600020016040516110c091906156a6565b9081526040805191829003602090810183206101608401835260018101546001600160a01b03908116855260028201549285019290925260038101549284019290925260048201548116606084015260058201546080840152600682015460ff16151560a0840152600782015460c08401526008820154811660e084015260098201548116610100840152600a82015416610120830152600b015461014082015282518390839081106111755761117561565b565b6020026020010181905250808061118b90615770565b915050611087565b50919050565b6111a1614a74565b806111ac8385615758565b6111b69190615758565b6064146111ee5760405162461bcd60e51b8152600401610903906020808252600490820152632926989960e11b604082015260600190565b600492909255600555600655565b6000611206614a74565b61120e614ad3565b604051638c9a6cc360e01b815273__$a27ab5a2953dc10a9c552591268754b616$__90638c9a6cc39061124890600c90879060040161578b565b60206040518083038186803b15801561126057600080fd5b505af4158015611274573d6000803e3d6000fd5b505050506040513d601f19601f8201168201806040525081019061129891906157b2565b156112b55760405162461bcd60e51b8152600401610903906157cd565b6040516327a7887760e21b815260009073__$a27ab5a2953dc10a9c552591268754b616$__90639e9e21dc906112f490600c90889088906004016157ea565b60206040518083038186803b15801561130c57600080fd5b505af4158015611320573d6000803e3d6000fd5b505050506040513d601f19601f8201168201806040525081019061134491906157b2565b9050600181151514156109f357836001600160a01b03167f26e277514df07793f28eff0e6f05b34a8dc0be0012b50d1b6162ce3c958b0c4e846040516109e1919061581d565b6000336001600160a01b03841614806113bb57506113a66130e3565b6001600160a01b0316336001600160a01b0316145b6113f05760405162461bcd60e51b8152600401610903906020808252600490820152630a49a62760e31b604082015260600190565b60405163b52bf90f60e01b815260009073__$35fde6ac6f7fb08b81f20635e2dfbb2343$__9063b52bf90f9061142f90601490889088906004016159b6565b60206040518083038186803b15801561144757600080fd5b505af415801561145b573d6000803e3d6000fd5b505050506040513d601f19601f8201168201806040525081019061147f9190615940565b905080156109fd576001600160a01b038316611527576000846001600160a01b03168260405160006040518083038185875af1925050503d80600081146114e2576040519150601f19603f3d011682016040523d82523d6000602084013e6114e7565b606091505b50509050806115215760405162461bcd60e51b81526004016109039060208082526004908201526314934c4d60e21b604082015260600190565b50611689565b60405163095ea7b360e01b8152306004820152602481018290526000906001600160a01b0385169063095ea7b390604401602060405180830381600087803b15801561157257600080fd5b505af1158015611586573d6000803e3d6000fd5b505050506040513d601f19601f820116820180604052508101906115aa91906157b2565b9050806115e25760405162461bcd60e51b815260040161090390602080825260049082015263524d313960e01b604082015260600190565b6040516323b872dd60e01b81526000906001600160a01b038616906323b872dd906116159030908a9088906004016159d5565b602060405180830381600087803b15801561162f57600080fd5b505af1158015611643573d6000803e3d6000fd5b505050506040513d601f19601f8201168201806040525081019061166791906157b2565b9050806116865760405162461bcd60e51b8152600401610903906159f9565b50505b60405163bc824a9360e01b815260009073__$35fde6ac6f7fb08b81f20635e2dfbb2343$__9063bc824a93906116c890601490899089906004016159b6565b60206040518083038186803b1580156116e057600080fd5b505af41580156116f4573d6000803e3d6000fd5b505050506040513d601f19601f8201168201806040525081019061171891906157b2565b9050600181151514156117715781846001600160a01b0316866001600160a01b03167ff19b643806aff6923e6a83303f2c43467bb6e47487c68586ec0bcfb7097e8f7660405160405180910390a46001925050506109ff565b6000925050506109ff565b611784614a74565b61178c614c95565b565b611796614eea565b60405163af8b7c8160e01b815273__$c9b49513854812b7b6c4b448b2aa4684e3$__9063af8b7c81906117d29060109087908790600401615959565b6101606040518083038186803b1580156117eb57600080fd5b505af41580156117ff573d6000803e3d6000fd5b505050506040513d601f19601f820116820180604052508101906118239190615a17565b9392505050565b6000611834614a74565b604051638c9a6cc360e01b815273__$a27ab5a2953dc10a9c552591268754b616$__90638c9a6cc39061186e90600c90869060040161578b565b60206040518083038186803b15801561188657600080fd5b505af415801561189a573d6000803e3d6000fd5b505050506040513d601f19601f820116820180604052508101906118be91906157b2565b15156001146118df5760405162461bcd60e51b815260040161090390615ad0565b604051631eb966b960e01b815260009073__$a27ab5a2953dc10a9c552591268754b616$__90631eb966b99061191c90600c90879060040161578b565b60006040518083038186803b15801561193457600080fd5b505af4158015611948573d6000803e3d6000fd5b505050506040513d6000823e601f3d908101601f1916820160405261197091908101906158f0565b604051634c3bfbf560e11b815290915060009073__$a27ab5a2953dc10a9c552591268754b616$__90639877f7ea906119b090600c90889060040161578b565b60206040518083038186803b1580156119c857600080fd5b505af41580156119dc573d6000803e3d6000fd5b505050506040513d601f19601f82011682018060405250810190611a0091906157b2565b905060018115151415611a605781600001516001600160a01b03167fd3bb6cf267814a3d42a12164c9ac01a59db6d9121ae676500da60fd56b086d3b8360200151604051611a4e919061581d565b60405180910390a25060019392505050565b5060009392505050565b919050565b600054600160a01b900460ff1690565b6000611a89614ad3565b6000611a958888614bce565b9050336001600160a01b0382161480611ac65750611ab16130e3565b6001600160a01b0316336001600160a01b0316145b611ae25760405162461bcd60e51b815260040161090390615aed565b6040516304ecf28360e41b815273__$aabfbf51bc7bf3b8af0580fb7224204a01$__90634ecf283090611b1e90600e908c908c90600401615959565b60206040518083038186803b158015611b3657600080fd5b505af4158015611b4a573d6000803e3d6000fd5b505050506040513d601f19601f82011682018060405250810190611b6e91906157b2565b1515600114611b8f5760405162461bcd60e51b815260040161090390615ad0565b6001600160a01b03851615611c4957604051631f04869b60e31b815273__$4fab912f99daae96c763763589e4636ca5$__9063f82434d890611bd890600890899060040161578b565b60206040518083038186803b158015611bf057600080fd5b505af4158015611c04573d6000803e3d6000fd5b505050506040513d601f19601f82011682018060405250810190611c2891906157b2565b1515600114611c495760405162461bcd60e51b8152600401610903906159f9565b6040516313d3de6d60e11b815260009073__$aabfbf51bc7bf3b8af0580fb7224204a01$__906327a7bcda90611c9090600e908d908d908d908d908d908d90600401615978565b60206040518083038186803b158015611ca857600080fd5b505af4158015611cbc573d6000803e3d6000fd5b505050506040513d601f19601f82011682018060405250810190611ce091906157b2565b905060018115151415611d4c57336001600160a01b0316888a6001600160a01b03167f4388754cf451950a50e2520e86758fc59ec9e88a7f6a09f2db5de37d545639298a8a8a8a89604051611d39959493929190615b0a565b60405180910390a4600192505050611d53565b6000925050505b9695505050505050565b60405163e99a8e3960e01b815260009081908190819073__$c9b49513854812b7b6c4b448b2aa4684e3$__9063e99a8e3990611da2906010908a908a90600401615959565b60206040518083038186803b158015611dba57600080fd5b505af4158015611dce573d6000803e3d6000fd5b505050506040513d601f19601f82011682018060405250810190611df291906157b2565b1515600114611e135760405162461bcd60e51b815260040161090390615b36565b33611e1c6130e3565b6001600160a01b031614611e5b5760405162461bcd60e51b8152600401610903906020808252600490820152632926989b60e11b604082015260600190565b60405163af8b7c8160e01b815260009073__$c9b49513854812b7b6c4b448b2aa4684e3$__9063af8b7c8190611e9a906010908b908b90600401615959565b6101606040518083038186803b158015611eb357600080fd5b505af4158015611ec7573d6000803e3d6000fd5b505050506040513d601f19601f82011682018060405250810190611eeb9190615a17565b90508060a001511515600115151415611f0a5780608001519150611f12565b806040015191505b610140810151429081118015611f3b57508160c00151826101400151611f389190615758565b81105b1561201357600082610140015182611f539190615b54565b9050611f6c611f628286615b6b565b8460c00151614ce4565b9550611f788487614cf0565b610100840151606085015160405163071cd41560e31b815292975073__$35fde6ac6f7fb08b81f20635e2dfbb2343$__926338e6a0a892611fc0926014928b90600401615b8a565b60206040518083038186803b158015611fd857600080fd5b505af4158015611fec573d6000803e3d6000fd5b505050506040513d601f19601f8201168201806040525081019061201091906157b2565b50505b84156122335760006120336004548761202c9190615b6b565b6064614ce4565b905060006120486005548861202c9190615b6b565b9050600081612057848a615b54565b6120619190615b54565b60e0860151606087015160405163071cd41560e31b815292935073__$35fde6ac6f7fb08b81f20635e2dfbb2343$__926338e6a0a8926120a8926014928990600401615b8a565b60206040518083038186803b1580156120c057600080fd5b505af41580156120d4573d6000803e3d6000fd5b505050506040513d601f19601f820116820180604052508101906120f891906157b2565b50610120850151606086015160405163071cd41560e31b815273__$35fde6ac6f7fb08b81f20635e2dfbb2343$__926338e6a0a8926121409260149291908890600401615b8a565b60206040518083038186803b15801561215857600080fd5b505af415801561216c573d6000803e3d6000fd5b505050506040513d601f19601f8201168201806040525081019061219091906157b2565b50600154606086015160405163071cd41560e31b815273__$35fde6ac6f7fb08b81f20635e2dfbb2343$__926338e6a0a8926121de926014926001600160a01b031691908790600401615b8a565b60206040518083038186803b1580156121f657600080fd5b505af415801561220a573d6000803e3d6000fd5b505050506040513d601f19601f8201168201806040525081019061222e91906157b2565b505050505b60405163af8b7c8160e01b815260009073__$c9b49513854812b7b6c4b448b2aa4684e3$__9063af8b7c8190612272906010908d908d90600401615959565b6101606040518083038186803b15801561228b57600080fd5b505af415801561229f573d6000803e3d6000fd5b505050506040513d601f19601f820116820180604052508101906122c39190615a17565b604051631d865d9360e21b815290915060009073__$c9b49513854812b7b6c4b448b2aa4684e3$__90637619764c90612305906010908e908e90600401615959565b60206040518083038186803b15801561231d57600080fd5b505af4158015612331573d6000803e3d6000fd5b505050506040513d601f19601f8201168201806040525081019061235591906157b2565b9050600181151514156123fb578161010001516001600160a01b0316826020015183600001516001600160a01b03167f1e47184299ef1ae0147489de864e2860294ab4125cb78ff3488bce09ea0192f68560400151866060015187608001518860a001518960c001518a60e001518b61012001518c61014001516040516123e3989796959493929190615baf565b60405180910390a460019750505050505050506109ff565b60009750505050505050506109ff565b600f546060906000906001600160401b0381111561242b5761242b614fc0565b60405190808252806020026020018201604052801561246457816020015b612451614f46565b8152602001906001900390816124495790505b50905060005b600f5481101561119357600f8054600e91908390811061248c5761248c61565b565b906000526020600020016040516124a391906156a6565b90815260408051918290036020908101832060c08401835260018101546001600160a01b0390811685526002820154928501929092526003810154928401929092526004820154166060830152600581015460808301526006015460a082015282518390839081106125175761251761565b565b6020026020010181905250808061252d90615770565b91505061246a565b61253d614a74565b61178c6000614cfc565b6000612551614a74565b604051631f04869b60e31b815273__$4fab912f99daae96c763763589e4636ca5$__9063f82434d89061258b90600890869060040161578b565b60206040518083038186803b1580156125a357600080fd5b505af41580156125b7573d6000803e3d6000fd5b505050506040513d601f19601f820116820180604052508101906125db91906157b2565b15156001146125fc5760405162461bcd60e51b815260040161090390615ad0565b604051630a93aab960e31b815260009073__$4fab912f99daae96c763763589e4636ca5$__9063549d55c89061263990600890879060040161578b565b60006040518083038186803b15801561265157600080fd5b505af4158015612665573d6000803e3d6000fd5b505050506040513d6000823e601f3d908101601f1916820160405261268d91908101906158f0565b6040516359c0255d60e01b815290915060009073__$4fab912f99daae96c763763589e4636ca5$__906359c0255d906126cd90600890889060040161578b565b60206040518083038186803b1580156126e557600080fd5b505af41580156126f9573d6000803e3d6000fd5b505050506040513d601f19601f8201168201806040525081019061271d91906157b2565b905060018115151415611a605781600001516001600160a01b03167f037af5869c73bd98d861d265ed2fe7856d434102678eab240cfac53917ef4e838360200151604051611a4e919061581d565b60405163b52bf90f60e01b815260009073__$35fde6ac6f7fb08b81f20635e2dfbb2343$__9063b52bf90f906127aa90601490339087906004016159b6565b60206040518083038186803b1580156127c257600080fd5b505af41580156127d6573d6000803e3d6000fd5b505050506040513d601f19601f820116820180604052508101906109ff9190615940565b6000612804614ad3565b6040516304ecf28360e41b815273__$aabfbf51bc7bf3b8af0580fb7224204a01$__90634ecf28309061284090600e9088908890600401615959565b60206040518083038186803b15801561285857600080fd5b505af415801561286c573d6000803e3d6000fd5b505050506040513d601f19601f8201168201806040525081019061289091906157b2565b15156001146128b15760405162461bcd60e51b815260040161090390615bf5565b604051638c9a6cc360e01b815273__$a27ab5a2953dc10a9c552591268754b616$__90638c9a6cc3906128eb90600c90869060040161578b565b60206040518083038186803b15801561290357600080fd5b505af4158015612917573d6000803e3d6000fd5b505050506040513d601f19601f8201168201806040525081019061293b91906157b2565b151560011461295c5760405162461bcd60e51b815260040161090390615c12565b60185460ff16151560011415612a155760405163e99a8e3960e01b815273__$c9b49513854812b7b6c4b448b2aa4684e3$__9063e99a8e39906129a89060109088908890600401615959565b60206040518083038186803b1580156129c057600080fd5b505af41580156129d4573d6000803e3d6000fd5b505050506040513d601f19601f820116820180604052508101906129f891906157b2565b15612a155760405162461bcd60e51b815260040161090390615c2f565b604051630163053760e51b8152349073__$aabfbf51bc7bf3b8af0580fb7224204a01$__90632c60a6e090612a5390600e9089908990600401615959565b60c06040518083038186803b158015612a6b57600080fd5b505af4158015612a7f573d6000803e3d6000fd5b505050506040513d601f19601f82011682018060405250810190612aa39190615c4c565b6040015114612ada5760405162461bcd60e51b81526020600482015260036024820152620a49a760eb1b6044820152606401610903565b604051630163053760e51b815260009073__$aabfbf51bc7bf3b8af0580fb7224204a01$__90632c60a6e090612b1990600e9089908990600401615959565b60c06040518083038186803b158015612b3157600080fd5b505af4158015612b45573d6000803e3d6000fd5b505050506040513d601f19601f82011682018060405250810190612b699190615c4c565b90506000612b778686614bce565b9050612b81614eea565b6001600160a01b038088168252602082018790526040808501518184015260608086015183169084015260808086015190840152600060a080850182905286015160c085015284831660e08501523361010085015291871661012084015242610140840152516332ada61b60e01b815273__$c9b49513854812b7b6c4b448b2aa4684e3$__906332ada61b90612c1e906010908690600401615cd6565b60206040518083038186803b158015612c3657600080fd5b505af4158015612c4a573d6000803e3d6000fd5b505050506040513d601f19601f82011682018060405250810190612c6e91906157b2565b905060018115151415610c36576040516343d434b560e11b815273__$cd3810e67fa8b653e5355050e47a521f6f$__906387a8696a90612cbc9060129087908b906000903490600401615ceb565b60206040518083038186803b158015612cd457600080fd5b505af4158015612ce8573d6000803e3d6000fd5b505050506040513d601f19601f82011682018060405250810190612d0c91906157b2565b50336001600160a01b031687896001600160a01b0316600080516020615d5983398151915287604001518860600151896080015160008b60a001518b8f8c6101400151604051612d63989796959493929190615baf565b60405180910390a46001945050505050611823565b612d80614f46565b604051630163053760e51b815273__$aabfbf51bc7bf3b8af0580fb7224204a01$__90632c60a6e090612dbc90600e9087908790600401615959565b60c06040518083038186803b158015612dd457600080fd5b505af4158015612de8573d6000803e3d6000fd5b505050506040513d601f19601f820116820180604052508101906118239190615c4c565b612e14614a74565b61178c614d4c565b6009546060906000906001600160401b03811115612e3c57612e3c614fc0565b604051908082528060200260200182016040528015612e8257816020015b604080518082019091526000815260606020820152815260200190600190039081612e5a5790505b50905060005b60095481101561119357600980546008919083908110612eaa57612eaa61565b565b90600052602060002001604051612ec191906156a6565b9081526040805191829003602090810183208383019092526001820180546001600160a01b031684526002909201805491840191612efe90615671565b80601f0160208091040260200160405190810160405280929190818152602001828054612f2a90615671565b8015612f775780601f10612f4c57610100808354040283529160200191612f77565b820191906000526020600020905b815481529060010190602001808311612f5a57829003601f168201915b505050505081525050828281518110612f9257612f9261565b565b60200260200101819052508080612fa890615770565b915050612e88565b6013546060906000906001600160401b03811115612fd057612fd0614fc0565b60405190808252806020026020018201604052801561302257816020015b604080516080810182526000808252602080830182905292820181905260608201528252600019909201910181612fee5790505b50905060005b6013548110156111935760138054601291908390811061304a5761304a61565b565b9060005260206000200160405161306191906156a6565b90815260408051918290036020908101832060808401835260018101546001600160a01b039081168552600282015481169285019290925260038101549091169183019190915260040154606082015282518390839081106130c5576130c561565b565b602002602001018190525080806130db90615770565b915050613028565b6000546001600160a01b031690565b600d546060906000906001600160401b0381111561311257613112614fc0565b60405190808252806020026020018201604052801561314b57816020015b613138614ed2565b8152602001906001900390816131305790505b50905060005b600d5481101561119357600d8054600c9190839081106131735761317361565b565b9060005260206000200160405161318a91906156a6565b9081526040805191829003602090810183208383019092526001820180546001600160a01b0316845260029092018054918401916131c790615671565b80601f01602080910402602001604051908101604052809291908181526020018280546131f390615671565b80156132405780601f1061321557610100808354040283529160200191613240565b820191906000526020600020905b81548152906001019060200180831161322357829003601f168201915b50505050508152505082828151811061325b5761325b61565b565b6020026020010181905250808061327190615770565b915050613151565b613281614a74565b600755565b6000613290614a74565b6040516360f353e160e01b815273__$79a40a2052c9947e027843e42106f8b048$__906360f353e1906132ca90600a90869060040161578b565b60206040518083038186803b1580156132e257600080fd5b505af41580156132f6573d6000803e3d6000fd5b505050506040513d601f19601f8201168201806040525081019061331a91906157b2565b151560011461333b5760405162461bcd60e51b815260040161090390615ad0565b60405163044aed2360e01b815260009073__$79a40a2052c9947e027843e42106f8b048$__9063044aed239061337890600a90879060040161578b565b60006040518083038186803b15801561339057600080fd5b505af41580156133a4573d6000803e3d6000fd5b505050506040513d6000823e601f3d908101601f191682016040526133cc91908101906158f0565b60405163a3fb822560e01b815290915060009073__$79a40a2052c9947e027843e42106f8b048$__9063a3fb82259061340c90600a90889060040161578b565b60206040518083038186803b15801561342457600080fd5b505af4158015613438573d6000803e3d6000fd5b505050506040513d601f19601f8201168201806040525081019061345c91906157b2565b905060018115151415611a605781600001516001600160a01b03167fe32dbca0dcbe2dc4205cd30b4b23a82cff3e9b7e12a5682683185c6f33c978be8360200151604051611a4e919061581d565b60006134b4614ad3565b6040516304ecf28360e41b815273__$aabfbf51bc7bf3b8af0580fb7224204a01$__90634ecf2830906134f090600e9088908890600401615959565b60206040518083038186803b15801561350857600080fd5b505af415801561351c573d6000803e3d6000fd5b505050506040513d601f19601f8201168201806040525081019061354091906157b2565b15156001146135615760405162461bcd60e51b815260040161090390615bf5565b604051638c9a6cc360e01b815273__$a27ab5a2953dc10a9c552591268754b616$__90638c9a6cc39061359b90600c90869060040161578b565b60206040518083038186803b1580156135b357600080fd5b505af41580156135c7573d6000803e3d6000fd5b505050506040513d601f19601f820116820180604052508101906135eb91906157b2565b151560011461360c5760405162461bcd60e51b815260040161090390615c12565b60405163e99a8e3960e01b815273__$c9b49513854812b7b6c4b448b2aa4684e3$__9063e99a8e39906136489060109088908890600401615959565b60206040518083038186803b15801561366057600080fd5b505af4158015613674573d6000803e3d6000fd5b505050506040513d601f19601f8201168201806040525081019061369891906157b2565b156136b55760405162461bcd60e51b815260040161090390615c2f565b34156136ec5760405162461bcd60e51b815260040161090390602080825260049082015263524d313360e01b604082015260600190565b60006136f88585614bce565b604051630163053760e51b815290915060009073__$aabfbf51bc7bf3b8af0580fb7224204a01$__90632c60a6e09061373a90600e908a908a90600401615959565b60c06040518083038186803b15801561375257600080fd5b505af4158015613766573d6000803e3d6000fd5b505050506040513d601f19601f8201168201806040525081019061378a9190615c4c565b60608101519091506001600160a01b03166137b75760405162461bcd60e51b8152600401610903906159f9565b606081015160808201516040516323b872dd60e01b81526000926001600160a01b0316916323b872dd916137f29133913091906004016159d5565b602060405180830381600087803b15801561380c57600080fd5b505af1158015613820573d6000803e3d6000fd5b505050506040513d601f19601f8201168201806040525081019061384491906157b2565b9050806138575760009350505050611823565b61385f614eea565b6001600160a01b038089168252602082018890526040808501518184015260608086015183169084015260808086015190840152600160a08085019190915285015160c084015285821660e08401523361010084015290871661012083015242610140830152516332ada61b60e01b815273__$c9b49513854812b7b6c4b448b2aa4684e3$__906332ada61b906138fd906010908590600401615cd6565b60206040518083038186803b15801561391557600080fd5b505af4158015613929573d6000803e3d6000fd5b505050506040513d601f19601f8201168201806040525081019061394d91906157b2565b50606083015160808401516040516343d434b560e11b815273__$cd3810e67fa8b653e5355050e47a521f6f$__926387a8696a92613994926012928a928d92600401615ceb565b60206040518083038186803b1580156139ac57600080fd5b505af41580156139c0573d6000803e3d6000fd5b505050506040513d601f19601f820116820180604052508101906139e491906157b2565b50336001600160a01b031687896001600160a01b0316600080516020615d5983398151915286604001518760600151886080015160018a60a001518c8f8b6101400151604051613a3b989796959493929190615baf565b60405180910390a4506001979650505050505050565b6000613a5b614a74565b613a63614ad3565b604051631f04869b60e31b815273__$4fab912f99daae96c763763589e4636ca5$__9063f82434d890613a9d90600890879060040161578b565b60206040518083038186803b158015613ab557600080fd5b505af4158015613ac9573d6000803e3d6000fd5b505050506040513d601f19601f82011682018060405250810190613aed91906157b2565b15613b0a5760405162461bcd60e51b8152600401610903906157cd565b6040516331d0579b60e11b815260009073__$4fab912f99daae96c763763589e4636ca5$__906363a0af3690613b4990600890889088906004016157ea565b60206040518083038186803b158015613b6157600080fd5b505af4158015613b75573d6000803e3d6000fd5b505050506040513d601f19601f82011682018060405250810190613b9991906157b2565b9050600181151514156109f357836001600160a01b03167ff76071867aae1eed00218b5aa8d4736b9b2161325ea3e48d283258a7e4ba75f5846040516109e1919061581d565b6015546060906000906001600160401b03811115613bff57613bff614fc0565b604051908082528060200260200182016040528015613c3857816020015b613c25614eb2565b815260200190600190039081613c1d5790505b50905060005b60155481101561119357601580546014919083908110613c6057613c6061565b565b90600052602060002001604051613c7791906156a6565b90815260408051918290036020908101832060608401835260018101546001600160a01b0390811685526002820154169184019190915260030154908201528251839083908110613cca57613cca61565b565b60200260200101819052508080613ce090615770565b915050613c3e565b613cf0614ed2565b60405163044aed2360e01b815273__$79a40a2052c9947e027843e42106f8b048$__9063044aed2390610a4790600a90869060040161578b565b600080613d378433614b1b565b90506000613d458585614bce565b905060018215151480613d605750336001600160a01b038216145b80613d835750613d6e6130e3565b6001600160a01b0316336001600160a01b0316145b613d9f5760405162461bcd60e51b815260040161090390615aed565b6040516304ecf28360e41b815273__$aabfbf51bc7bf3b8af0580fb7224204a01$__90634ecf283090613ddb90600e9089908990600401615959565b60206040518083038186803b158015613df357600080fd5b505af4158015613e07573d6000803e3d6000fd5b505050506040513d601f19601f82011682018060405250810190613e2b91906157b2565b1515600114613e4c5760405162461bcd60e51b815260040161090390615ad0565b604051630163053760e51b815260009073__$aabfbf51bc7bf3b8af0580fb7224204a01$__90632c60a6e090613e8b90600e908a908a90600401615959565b60c06040518083038186803b158015613ea357600080fd5b505af4158015613eb7573d6000803e3d6000fd5b505050506040513d601f19601f82011682018060405250810190613edb9190615c4c565b604051631f8195ef60e11b815290915060009073__$aabfbf51bc7bf3b8af0580fb7224204a01$__90633f032bde90613f1d90600e908b908b90600401615959565b60206040518083038186803b158015613f3557600080fd5b505af4158015613f49573d6000803e3d6000fd5b505050506040513d601f19601f82011682018060405250810190613f6d91906157b2565b905060018115151415613ff357336001600160a01b0316826020015183600001516001600160a01b03167f47ef5674b8623b6a0bece5fae33a1a29ad79a7846a5be46a0b2e256b94f9ee318560400151866060015187608001518860a001518a604051613fde959493929190615b0a565b60405180910390a460019450505050506109ff565b60009450505050506109ff565b60075461400b575050565b604051636eb1769f60e11b81526001600160a01b0382811660048301523060248301526000919084169063dd62ed3e9060440160206040518083038186803b15801561405657600080fd5b505afa15801561406a573d6000803e3d6000fd5b505050506040513d601f19601f8201168201806040525081019061408e9190615940565b90508061409a57505050565b60006140a584610789565b905060006140b1614eb2565b60005b6015548110156142185760075481106140cc57614218565b6015805460149190839081106140e4576140e461565b565b906000526020600020016040516140fb91906156a6565b908152604080516020928190038301812060608201835260018101546001600160a01b039081168352600282015481169483018590526003909101549282019290925293508816141561420657600061416383604001518761415d9190615b6b565b86614ce4565b905061416f8185615758565b8351602085015160405163071cd41560e31b815292965073__$35fde6ac6f7fb08b81f20635e2dfbb2343$__926338e6a0a8926141b3926014928790600401615b8a565b60206040518083038186803b1580156141cb57600080fd5b505af41580156141df573d6000803e3d6000fd5b505050506040513d601f19601f8201168201806040525081019061420391906157b2565b50505b8061421081615770565b9150506140b4565b5060006142258386615b54565b11156142d25760015473__$35fde6ac6f7fb08b81f20635e2dfbb2343$__906338e6a0a8906014906001600160a01b031689614261878a615b54565b6040518563ffffffff1660e01b81526004016142809493929190615b8a565b60206040518083038186803b15801561429857600080fd5b505af41580156142ac573d6000803e3d6000fd5b505050506040513d601f19601f820116820180604052508101906142d091906157b2565b505b505050505050565b60405163e99a8e3960e01b815260009073__$c9b49513854812b7b6c4b448b2aa4684e3$__9063e99a8e39906143199060109087908790600401615959565b60206040518083038186803b15801561433157600080fd5b505af4158015614345573d6000803e3d6000fd5b505050506040513d601f19601f8201168201806040525081019061436991906157b2565b151560011461438a5760405162461bcd60e51b815260040161090390615b36565b60405163af8b7c8160e01b815260009073__$c9b49513854812b7b6c4b448b2aa4684e3$__9063af8b7c81906143c99060109088908890600401615959565b6101606040518083038186803b1580156143e257600080fd5b505af41580156143f6573d6000803e3d6000fd5b505050506040513d601f19601f8201168201806040525081019061441a9190615a17565b90508060c001518161014001516144319190615758565b42116144685760405162461bcd60e51b815260040161090390602080825260049082015263524d313760e01b604082015260600190565b60008160a0015115156001151514156144865750608081015161448d565b5060408101515b60006144a06004548361202c9190615b6b565b905060006144b56005548461202c9190615b6b565b90506000816144c48486615b54565b6144ce9190615b54565b60e0860151606087015160405163071cd41560e31b815292935073__$35fde6ac6f7fb08b81f20635e2dfbb2343$__926338e6a0a892614515926014928990600401615b8a565b60206040518083038186803b15801561452d57600080fd5b505af4158015614541573d6000803e3d6000fd5b505050506040513d601f19601f8201168201806040525081019061456591906157b2565b50610120850151606086015160405163071cd41560e31b815273__$35fde6ac6f7fb08b81f20635e2dfbb2343$__926338e6a0a8926145ad9260149291908890600401615b8a565b60206040518083038186803b1580156145c557600080fd5b505af41580156145d9573d6000803e3d6000fd5b505050506040513d601f19601f820116820180604052508101906145fd91906157b2565b50600154606086015160405163071cd41560e31b815273__$35fde6ac6f7fb08b81f20635e2dfbb2343$__926338e6a0a89261464b926014926001600160a01b031691908790600401615b8a565b60206040518083038186803b15801561466357600080fd5b505af4158015614677573d6000803e3d6000fd5b505050506040513d601f19601f8201168201806040525081019061469b91906157b2565b5060e08501516101208601516060870151604051631a9a5d7160e21b815273__$cd3810e67fa8b653e5355050e47a521f6f$__93636a6975c4936146e6936012938b90600401615ceb565b60206040518083038186803b1580156146fe57600080fd5b505af4158015614712573d6000803e3d6000fd5b505050506040513d601f19601f8201168201806040525081019061473691906157b2565b5084516020860151604051631d865d9360e21b815273__$c9b49513854812b7b6c4b448b2aa4684e3$__92637619764c92614778926010929190600401615959565b60206040518083038186803b15801561479057600080fd5b505af41580156147a4573d6000803e3d6000fd5b505050506040513d601f19601f820116820180604052508101906147c891906157b2565b508461010001516001600160a01b0316856020015186600001516001600160a01b03167f2941e86df5e844db000359f0e9abe470952bac636d89a010e9d5d513aad469fa886040015189606001518a608001518b60a001518c60c001518d60e001518e61012001518f6101400151604051613a3b989796959493929190615baf565b614852614a74565b600180546001600160a01b0319166001600160a01b0392909216919091179055565b600b546060906000906001600160401b0381111561489457614894614fc0565b6040519080825280602002602001820160405280156148cd57816020015b6148ba614ed2565b8152602001906001900390816148b25790505b50905060005b600b5481101561119357600b8054600a9190839081106148f5576148f561565b565b9060005260206000200160405161490c91906156a6565b9081526040805191829003602090810183208383019092526001820180546001600160a01b03168452600290920180549184019161494990615671565b80601f016020809104026020016040519081016040528092919081815260200182805461497590615671565b80156149c25780601f10614997576101008083540402835291602001916149c2565b820191906000526020600020905b8154815290600101906020018083116149a557829003601f168201915b5050505050815250508282815181106149dd576149dd61565b565b602002602001018190525080806149f390615770565b9150506148d3565b614a03614a74565b6001600160a01b038116614a685760405162461bcd60e51b815260206004820152602660248201527f4f776e61626c653a206e6577206f776e657220697320746865207a65726f206160448201526564647265737360d01b6064820152608401610903565b614a7181614cfc565b50565b33614a7d6130e3565b6001600160a01b03161461178c5760405162461bcd60e51b815260206004820181905260248201527f4f776e61626c653a2063616c6c6572206973206e6f7420746865206f776e65726044820152606401610903565b614adb611a6f565b1561178c5760405162461bcd60e51b815260206004820152601060248201526f14185d5cd8589b194e881c185d5cd95960821b6044820152606401610903565b600080614b386001600160a01b038516632c63230160e11b614d8f565b9050600181151514156109f357604051632c63230160e11b81526000906001600160a01b038616906358c6460290614b74908790600401615325565b60206040518083038186803b158015614b8c57600080fd5b505afa158015614ba0573d6000803e3d6000fd5b505050506040513d601f19601f82011682018060405250810190614bc491906157b2565b92506109ff915050565b6000806060846001600160a01b031684604051602401614bf091815260200190565b60408051601f198184030181529181526020820180516001600160e01b03166331a9108f60e11b17905251614c259190615924565b6000604051808303816000865af19150503d8060008114614c62576040519150601f19603f3d011682016040523d82523d6000602084013e614c67565b606091505b509092509050600182151514156117715780806020019051810190614c8c9190615d19565b925050506109ff565b614c9d614dab565b6000805460ff60a01b191690557f5db9ee0a495bf2e6ff9c91a7834c1ba4fdd244a5e8aa4e537bd38aeae4b073aa335b604051614cda9190615325565b60405180910390a1565b60006118238284615d36565b60006118238284615b54565b600080546001600160a01b038381166001600160a01b0319831681178455604051919092169283917f8be0079c531659141344cd1fd0a4f28419497f9722a3daafe3b4186f6b6457e09190a35050565b614d54614ad3565b6000805460ff60a01b1916600160a01b1790557f62e78cea01bee320cd4e420270b5ea74000d11b0c9f74754ebdbfc544b05a258614ccd3390565b6000614d9a83614df6565b801561182357506118238383614e29565b614db3611a6f565b61178c5760405162461bcd60e51b815260206004820152601460248201527314185d5cd8589b194e881b9bdd081c185d5cd95960621b6044820152606401610903565b6000614e09826301ffc9a760e01b614e29565b80156109ff5750614e22826001600160e01b0319614e29565b1592915050565b604080516001600160e01b03198316602480830191909152825180830390910181526044909101909152602080820180516001600160e01b03166301ffc9a760e01b178152825160009392849283928392918391908a617530fa92503d91506000519050828015614e9b575060208210155b8015614ea75750600081115b979650505050505050565b604080516060810182526000808252602082018190529181019190915290565b60408051808201909152600081526060602082015290565b6040805161016081018252600080825260208201819052918101829052606081018290526080810182905260a0810182905260c0810182905260e081018290526101008101829052610120810182905261014081019190915290565b6040518060c0016040528060006001600160a01b03168152602001600081526020016000815260200160006001600160a01b0316815260200160008152602001600081525090565b6001600160a01b0381168114614a7157600080fd5b600060208284031215614fb557600080fd5b813561182381614f8e565b634e487b7160e01b600052604160045260246000fd5b60405161016081016001600160401b0381118282101715614ff957614ff9614fc0565b60405290565b604051601f8201601f191681016001600160401b038111828210171561502757615027614fc0565b604052919050565b60006001600160401b0382111561504857615048614fc0565b50601f01601f191660200190565b6000806040838503121561506957600080fd5b823561507481614f8e565b915060208301356001600160401b0381111561508f57600080fd5b8301601f810185136150a057600080fd5b80356150b36150ae8261502f565b614fff565b8181528660208385010111156150c857600080fd5b816020840160208301376000602083830101528093505050509250929050565b6001600160a01b03169052565b60005b838110156151105781810151838201526020016150f8565b8381111561511f576000848401525b50505050565b6000815180845261513d8160208601602086016150f5565b601f01601f19169290920160200192915050565b60018060a01b03815116825260006020820151604060208501526151786040850182615125565b949350505050565b6020815260006118236020830184615151565b600080604083850312156151a657600080fd5b82356151b181614f8e565b946020939093013593505050565b6151ca8282516150e8565b602081015160208301526040810151604083015260608101516151f060608401826150e8565b506080810151608083015260a081015161520e60a084018215159052565b5060c081015160c083015260e081015161522b60e08401826150e8565b506101008082015161523f828501826150e8565b505061012080820151615254828501826150e8565b505061014090810151910152565b6020808252825182820181905260009190848201906040850190845b818110156152a5576152918385516151bf565b92840192610160929092019160010161527e565b50909695505050505050565b6000806000606084860312156152c657600080fd5b505081359360208301359350604090920135919050565b600080604083850312156152f057600080fd5b82356152fb81614f8e565b9150602083013561530b81614f8e565b809150509250929050565b61016081016109ff82846151bf565b6001600160a01b0391909116815260200190565b60008060008060008060c0878903121561535257600080fd5b863561535d81614f8e565b95506020870135945060408701359350606087013561537b81614f8e565b9598949750929560808101359460a0909101359350915050565b80516001600160a01b0390811683526020808301519084015260408083015190840152606080830151909116908301526080808201519083015260a090810151910152565b6020808252825182820181905260009190848201906040850190845b818110156152a557615409838551615395565b9284019260c092909201916001016153f6565b60008060006060848603121561543157600080fd5b833561543c81614f8e565b925060208401359150604084013561545381614f8e565b809150509250925092565b60c081016109ff8284615395565b6000602080830181845280855180835260408601915060408160051b870101925083870160005b828110156154c157603f198886030184526154af858351615151565b94509285019290850190600101615493565b5092979650505050505050565b602080825282518282018190526000919060409081850190868401855b8281101561553357815180516001600160a01b0390811686528782015181168887015286820151168686015260609081015190850152608090930192908501906001016154eb565b5091979650505050505050565b6000602080830181845280855180835260408601915060408160051b870101925083870160005b828110156154c157603f19888603018452615583858351615151565b94509285019290850190600101615567565b6000602082840312156155a757600080fd5b5035919050565b602080825282518282018190526000919060409081850190868401855b8281101561553357815180516001600160a01b03908116865287820151168786015285015185850152606090930192908501906001016155cb565b6000602080830181845280855180835260408601915060408160051b870101925083870160005b828110156154c157603f19888603018452615649858351615151565b9450928501929085019060010161562d565b634e487b7160e01b600052603260045260246000fd5b600181811c9082168061568557607f821691505b6020821081141561119357634e487b7160e01b600052602260045260246000fd5b600080835481600182811c9150808316806156c257607f831692505b60208084108214156156e257634e487b7160e01b86526022600452602486fd5b8180156156f6576001811461570757615734565b60ff19861689528489019650615734565b60008a81526020902060005b8681101561572c5781548b820152908501908301615713565b505084890196505b509498975050505050505050565b634e487b7160e01b600052601160045260246000fd5b6000821982111561576b5761576b615742565b500190565b600060001982141561578457615784615742565b5060010190565b9182526001600160a01b0316602082015260400190565b80518015158114611a6a57600080fd5b6000602082840312156157c457600080fd5b611823826157a2565b602080825260039082015262524d3160e81b604082015260600190565b8381526001600160a01b038316602082015260606040820181905260009061581490830184615125565b95945050505050565b6020815260006118236020830184615125565b8051611a6a81614f8e565b60006040828403121561584d57600080fd5b604080519081016001600160401b03808211838310171561587057615870614fc0565b816040528293508451915061588482614f8e565b9082526020840151908082111561589a57600080fd5b508301601f810185136158ac57600080fd5b80516158ba6150ae8261502f565b8181528660208385010111156158cf57600080fd5b6158e08260208301602086016150f5565b8060208501525050505092915050565b60006020828403121561590257600080fd5b81516001600160401b0381111561591857600080fd5b6151788482850161583b565b600082516159368184602087016150f5565b9190910192915050565b60006020828403121561595257600080fd5b5051919050565b9283526001600160a01b03919091166020830152604082015260600190565b9687526001600160a01b03958616602088015260408701949094526060860192909252909216608084015260a083019190915260c082015260e00190565b9283526001600160a01b03918216602084015216604082015260600190565b6001600160a01b039384168152919092166020820152604081019190915260600190565b6020808252600490820152630524d32360e41b604082015260600190565b60006101608284031215615a2a57600080fd5b615a32614fd6565b615a3b83615830565b81526020830151602082015260408301516040820152615a5d60608401615830565b606082015260808301516080820152615a7860a084016157a2565b60a082015260c083015160c0820152615a9360e08401615830565b60e0820152610100615aa6818501615830565b90820152610120615ab8848201615830565b90820152610140928301519281019290925250919050565b602080825260039082015262524d3360e81b604082015260600190565b602080825260039082015262524d3560e81b604082015260600190565b9485526001600160a01b0393841660208601526040850192909252606084015216608082015260a00190565b6020808252600490820152630524d31360e41b604082015260600190565b600082821015615b6657615b66615742565b500390565b6000816000190483118215151615615b8557615b85615742565b500290565b9384526001600160a01b03928316602085015291166040830152606082015260800190565b9788526001600160a01b039687166020890152604088019590955292151560608701526080860191909152831660a085015290911660c083015260e08201526101000190565b602080825260039082015262524d3760e81b604082015260600190565b60208082526003908201526229269b60e91b604082015260600190565b602080825260039082015262524d3960e81b604082015260600190565b600060c08284031215615c5e57600080fd5b60405160c081016001600160401b0381118282101715615c8057615c80614fc0565b6040528251615c8e81614f8e565b8082525060208301516020820152604083015160408201526060830151615cb481614f8e565b60608201526080838101519082015260a0928301519281019290925250919050565b828152610180810161182360208301846151bf565b9485526001600160a01b03938416602086015291831660408501529091166060830152608082015260a00190565b600060208284031215615d2b57600080fd5b815161182381614f8e565b600082615d5357634e487b7160e01b600052601260045260246000fd5b50049056fefe632cd15df82b5e105c28c0d0da9eb0228667912a4b1e430151d7c0d9227759a2646970667358221220f79e6a0fbf72c9d007e83dccbc2ab15d95229849d8a90f2a7661e27471bc4e7864736f6c63430008090033",
  "linkReferences": {
    "contracts/iterableMapLib.sol": {
      "accountBalanceIterableMap": [
        {
          "length": 20,
          "start": 5419
        },
        {
          "length": 20,
          "start": 6084
        },
        {
          "length": 20,
          "start": 8382
        },
        {
          "length": 20,
          "start": 8614
        },
        {
          "length": 20,
          "start": 8764
        },
        {
          "length": 20,
          "start": 8913
        },
        {
          "length": 20,
          "start": 10406
        },
        {
          "length": 20,
          "start": 17073
        },
        {
          "length": 20,
          "start": 17241
        },
        {
          "length": 20,
          "start": 17939
        },
        {
          "length": 20,
          "start": 18089
        },
        {
          "length": 20,
          "start": 18238
        }
      ],
      "collectionDataIterableMap": [
        {
          "length": 20,
          "start": 2452
        },
        {
          "length": 20,
          "start": 2631
        },
        {
          "length": 20,
          "start": 3712
        },
        {
          "length": 20,
          "start": 3906
        },
        {
          "length": 20,
          "start": 13256
        },
        {
          "length": 20,
          "start": 13430
        },
        {
          "length": 20,
          "start": 13578
        },
        {
          "length": 20,
          "start": 15912
        }
      ],
      "pendingRentFeeIterableMap": [
        {
          "length": 20,
          "start": 11699
        },
        {
          "length": 20,
          "start": 14992
        },
        {
          "length": 20,
          "start": 18404
        }
      ],
      "registerDataIterableMap": [
        {
          "length": 20,
          "start": 3462
        },
        {
          "length": 20,
          "start": 4174
        },
        {
          "length": 20,
          "start": 7194
        },
        {
          "length": 20,
          "start": 7556
        },
        {
          "length": 20,
          "start": 10556
        },
        {
          "length": 20,
          "start": 11087
        },
        {
          "length": 20,
          "start": 11285
        },
        {
          "length": 20,
          "start": 11960
        },
        {
          "length": 20,
          "start": 13804
        },
        {
          "length": 20,
          "start": 14390
        },
        {
          "length": 20,
          "start": 16087
        },
        {
          "length": 20,
          "start": 16263
        },
        {
          "length": 20,
          "start": 16409
        }
      ],
      "rentDataIterableMap": [
        {
          "length": 20,
          "start": 6350
        },
        {
          "length": 20,
          "start": 7838
        },
        {
          "length": 20,
          "start": 8086
        },
        {
          "length": 20,
          "start": 9070
        },
        {
          "length": 20,
          "start": 9217
        },
        {
          "length": 20,
          "start": 10916
        },
        {
          "length": 20,
          "start": 11548
        },
        {
          "length": 20,
          "start": 14148
        },
        {
          "length": 20,
          "start": 14843
        },
        {
          "length": 20,
          "start": 17429
        },
        {
          "length": 20,
          "start": 17605
        },
        {
          "length": 20,
          "start": 18550
        }
      ],
      "serviceDataIterableMap": [
        {
          "length": 20,
          "start": 2885
        },
        {
          "length": 20,
          "start": 4934
        },
        {
          "length": 20,
          "start": 5104
        },
        {
          "length": 20,
          "start": 6508
        },
        {
          "length": 20,
          "start": 6682
        },
        {
          "length": 20,
          "start": 6830
        },
        {
          "length": 20,
          "start": 10729
        },
        {
          "length": 20,
          "start": 13977
        }
      ],
      "tokenDataIterableMap": [
        {
          "length": 20,
          "start": 7382
        },
        {
          "length": 20,
          "start": 9865
        },
        {
          "length": 20,
          "start": 10039
        },
        {
          "length": 20,
          "start": 10187
        },
        {
          "length": 20,
          "start": 15259
        },
        {
          "length": 20,
          "start": 15429
        }
      ]
    }
  },
  "deployedLinkReferences": {
    "contracts/iterableMapLib.sol": {
      "accountBalanceIterableMap": [
        {
          "length": 20,
          "start": 5122
        },
        {
          "length": 20,
          "start": 5787
        },
        {
          "length": 20,
          "start": 8085
        },
        {
          "length": 20,
          "start": 8317
        },
        {
          "length": 20,
          "start": 8467
        },
        {
          "length": 20,
          "start": 8616
        },
        {
          "length": 20,
          "start": 10109
        },
        {
          "length": 20,
          "start": 16776
        },
        {
          "length": 20,
          "start": 16944
        },
        {
          "length": 20,
          "start": 17642
        },
        {
          "length": 20,
          "start": 17792
        },
        {
          "length": 20,
          "start": 17941
        }
      ],
      "collectionDataIterableMap": [
        {
          "length": 20,
          "start": 2155
        },
        {
          "length": 20,
          "start": 2334
        },
        {
          "length": 20,
          "start": 3415
        },
        {
          "length": 20,
          "start": 3609
        },
        {
          "length": 20,
          "start": 12959
        },
        {
          "length": 20,
          "start": 13133
        },
        {
          "length": 20,
          "start": 13281
        },
        {
          "length": 20,
          "start": 15615
        }
      ],
      "pendingRentFeeIterableMap": [
        {
          "length": 20,
          "start": 11402
        },
        {
          "length": 20,
          "start": 14695
        },
        {
          "length": 20,
          "start": 18107
        }
      ],
      "registerDataIterableMap": [
        {
          "length": 20,
          "start": 3165
        },
        {
          "length": 20,
          "start": 3877
        },
        {
          "length": 20,
          "start": 6897
        },
        {
          "length": 20,
          "start": 7259
        },
        {
          "length": 20,
          "start": 10259
        },
        {
          "length": 20,
          "start": 10790
        },
        {
          "length": 20,
          "start": 10988
        },
        {
          "length": 20,
          "start": 11663
        },
        {
          "length": 20,
          "start": 13507
        },
        {
          "length": 20,
          "start": 14093
        },
        {
          "length": 20,
          "start": 15790
        },
        {
          "length": 20,
          "start": 15966
        },
        {
          "length": 20,
          "start": 16112
        }
      ],
      "rentDataIterableMap": [
        {
          "length": 20,
          "start": 6053
        },
        {
          "length": 20,
          "start": 7541
        },
        {
          "length": 20,
          "start": 7789
        },
        {
          "length": 20,
          "start": 8773
        },
        {
          "length": 20,
          "start": 8920
        },
        {
          "length": 20,
          "start": 10619
        },
        {
          "length": 20,
          "start": 11251
        },
        {
          "length": 20,
          "start": 13851
        },
        {
          "length": 20,
          "start": 14546
        },
        {
          "length": 20,
          "start": 17132
        },
        {
          "length": 20,
          "start": 17308
        },
        {
          "length": 20,
          "start": 18253
        }
      ],
      "serviceDataIterableMap": [
        {
          "length": 20,
          "start": 2588
        },
        {
          "length": 20,
          "start": 4637
        },
        {
          "length": 20,
          "start": 4807
        },
        {
          "length": 20,
          "start": 6211
        },
        {
          "length": 20,
          "start": 6385
        },
        {
          "length": 20,
          "start": 6533
        },
        {
          "length": 20,
          "start": 10432
        },
        {
          "length": 20,
          "start": 13680
        }
      ],
      "tokenDataIterableMap": [
        {
          "length": 20,
          "start": 7085
        },
        {
          "length": 20,
          "start": 9568
        },
        {
          "length": 20,
          "start": 9742
        },
        {
          "length": 20,
          "start": 9890
        },
        {
          "length": 20,
          "start": 14962
        },
        {
          "length": 20,
          "start": 15132
        }
      ]
    }
  }
}