{
  "_format": "hh-sol-artifact-1",
  "contractName": "rentMarket",
  "sourceName": "contracts/rentMarket.sol",
  "abi": [
    {
      "inputs": [
        {
          "internalType": "bool",
          "name": "exclusive_",
          "type": "bool"
        }
      ],
      "stateMutability": "nonpayable",
      "type": "constructor"
    },
    {
      "anonymous": false,
      "inputs": [
        {
          "indexed": true,
          "internalType": "address",
          "name": "nftAddress",
          "type": "address"
        },
        {
          "indexed": true,
          "internalType": "uint256",
          "name": "tokenId",
          "type": "uint256"
        },
        {
          "indexed": false,
          "internalType": "uint256",
          "name": "rentFee",
          "type": "uint256"
        },
        {
          "indexed": false,
          "internalType": "address",
          "name": "feeTokenAddress",
          "type": "address"
        },
        {
          "indexed": false,
          "internalType": "uint256",
          "name": "rentFeeByToken",
          "type": "uint256"
        },
        {
          "indexed": false,
          "internalType": "uint256",
          "name": "rentDuration",
          "type": "uint256"
        },
        {
          "indexed": false,
          "internalType": "address",
          "name": "NFTOwnerAddress",
          "type": "address"
        },
        {
          "indexed": true,
          "internalType": "address",
          "name": "changerAddress",
          "type": "address"
        }
      ],
      "name": "ChangeNFT",
      "type": "event"
    },
    {
      "anonymous": false,
      "inputs": [
        {
          "indexed": true,
          "internalType": "address",
          "name": "sender",
          "type": "address"
        }
      ],
      "name": "Fallback",
      "type": "event"
    },
    {
      "anonymous": false,
      "inputs": [
        {
          "indexed": true,
          "internalType": "address",
          "name": "previousOwner",
          "type": "address"
        },
        {
          "indexed": true,
          "internalType": "address",
          "name": "newOwner",
          "type": "address"
        }
      ],
      "name": "OwnershipTransferred",
      "type": "event"
    },
    {
      "anonymous": false,
      "inputs": [
        {
          "indexed": false,
          "internalType": "address",
          "name": "account",
          "type": "address"
        }
      ],
      "name": "Paused",
      "type": "event"
    },
    {
      "anonymous": false,
      "inputs": [
        {
          "indexed": true,
          "internalType": "address",
          "name": "sender",
          "type": "address"
        },
        {
          "indexed": true,
          "internalType": "uint256",
          "name": "value",
          "type": "uint256"
        }
      ],
      "name": "Receive",
      "type": "event"
    },
    {
      "anonymous": false,
      "inputs": [
        {
          "indexed": true,
          "internalType": "address",
          "name": "collectionAddress",
          "type": "address"
        },
        {
          "indexed": false,
          "internalType": "string",
          "name": "uri",
          "type": "string"
        }
      ],
      "name": "RegisterCollection",
      "type": "event"
    },
    {
      "anonymous": false,
      "inputs": [
        {
          "indexed": true,
          "internalType": "address",
          "name": "nftAddress",
          "type": "address"
        },
        {
          "indexed": true,
          "internalType": "uint256",
          "name": "tokenId",
          "type": "uint256"
        },
        {
          "indexed": false,
          "internalType": "uint256",
          "name": "rentFee",
          "type": "uint256"
        },
        {
          "indexed": false,
          "internalType": "uint256",
          "name": "rentDuration",
          "type": "uint256"
        },
        {
          "indexed": true,
          "internalType": "address",
          "name": "NFTOwnerAddress",
          "type": "address"
        }
      ],
      "name": "RegisterNFT",
      "type": "event"
    },
    {
      "anonymous": false,
      "inputs": [
        {
          "indexed": true,
          "internalType": "address",
          "name": "serviceAddress",
          "type": "address"
        },
        {
          "indexed": false,
          "internalType": "string",
          "name": "uri",
          "type": "string"
        }
      ],
      "name": "RegisterService",
      "type": "event"
    },
    {
      "anonymous": false,
      "inputs": [
        {
          "indexed": true,
          "internalType": "address",
          "name": "tokenAddress",
          "type": "address"
        },
        {
          "indexed": false,
          "internalType": "string",
          "name": "name",
          "type": "string"
        }
      ],
      "name": "RegisterToken",
      "type": "event"
    },
    {
      "anonymous": false,
      "inputs": [
        {
          "indexed": true,
          "internalType": "address",
          "name": "nftAddress",
          "type": "address"
        },
        {
          "indexed": true,
          "internalType": "uint256",
          "name": "tokenId",
          "type": "uint256"
        },
        {
          "indexed": false,
          "internalType": "uint256",
          "name": "rentFee",
          "type": "uint256"
        },
        {
          "indexed": false,
          "internalType": "address",
          "name": "feeTokenAddress",
          "type": "address"
        },
        {
          "indexed": false,
          "internalType": "uint256",
          "name": "rentFeeByToken",
          "type": "uint256"
        },
        {
          "indexed": false,
          "internalType": "bool",
          "name": "isRentByToken",
          "type": "bool"
        },
        {
          "indexed": false,
          "internalType": "uint256",
          "name": "rentDuration",
          "type": "uint256"
        },
        {
          "indexed": false,
          "internalType": "address",
          "name": "renterAddress",
          "type": "address"
        },
        {
          "indexed": true,
          "internalType": "address",
          "name": "renteeAddress",
          "type": "address"
        },
        {
          "indexed": false,
          "internalType": "address",
          "name": "serviceAddress",
          "type": "address"
        },
        {
          "indexed": false,
          "internalType": "uint256",
          "name": "rentStartTimestamp",
          "type": "uint256"
        }
      ],
      "name": "RentNFT",
      "type": "event"
    },
    {
      "anonymous": false,
      "inputs": [
        {
          "indexed": true,
          "internalType": "address",
          "name": "nftAddress",
          "type": "address"
        },
        {
          "indexed": true,
          "internalType": "uint256",
          "name": "tokenId",
          "type": "uint256"
        },
        {
          "indexed": false,
          "internalType": "uint256",
          "name": "rentFee",
          "type": "uint256"
        },
        {
          "indexed": false,
          "internalType": "address",
          "name": "feeTokenAddress",
          "type": "address"
        },
        {
          "indexed": false,
          "internalType": "uint256",
          "name": "rentFeeByToken",
          "type": "uint256"
        },
        {
          "indexed": false,
          "internalType": "bool",
          "name": "isRentByToken",
          "type": "bool"
        },
        {
          "indexed": false,
          "internalType": "uint256",
          "name": "rentDuration",
          "type": "uint256"
        },
        {
          "indexed": false,
          "internalType": "address",
          "name": "renterAddress",
          "type": "address"
        },
        {
          "indexed": true,
          "internalType": "address",
          "name": "renteeAddress",
          "type": "address"
        },
        {
          "indexed": false,
          "internalType": "address",
          "name": "serviceAddress",
          "type": "address"
        },
        {
          "indexed": false,
          "internalType": "uint256",
          "name": "rentStartTimestamp",
          "type": "uint256"
        }
      ],
      "name": "SettleRentData",
      "type": "event"
    },
    {
      "anonymous": false,
      "inputs": [
        {
          "indexed": false,
          "internalType": "address",
          "name": "account",
          "type": "address"
        }
      ],
      "name": "Unpaused",
      "type": "event"
    },
    {
      "anonymous": false,
      "inputs": [
        {
          "indexed": true,
          "internalType": "address",
          "name": "collectionAddress",
          "type": "address"
        },
        {
          "indexed": false,
          "internalType": "string",
          "name": "uri",
          "type": "string"
        }
      ],
      "name": "UnregisterCollection",
      "type": "event"
    },
    {
      "anonymous": false,
      "inputs": [
        {
          "indexed": true,
          "internalType": "address",
          "name": "nftAddress",
          "type": "address"
        },
        {
          "indexed": true,
          "internalType": "uint256",
          "name": "tokenId",
          "type": "uint256"
        },
        {
          "indexed": false,
          "internalType": "uint256",
          "name": "rentFee",
          "type": "uint256"
        },
        {
          "indexed": false,
          "internalType": "address",
          "name": "feeTokenAddress",
          "type": "address"
        },
        {
          "indexed": false,
          "internalType": "uint256",
          "name": "rentFeeByToken",
          "type": "uint256"
        },
        {
          "indexed": false,
          "internalType": "uint256",
          "name": "rentDuration",
          "type": "uint256"
        },
        {
          "indexed": false,
          "internalType": "address",
          "name": "NFTOwnerAddress",
          "type": "address"
        },
        {
          "indexed": true,
          "internalType": "address",
          "name": "UnregisterAddress",
          "type": "address"
        }
      ],
      "name": "UnregisterNFT",
      "type": "event"
    },
    {
      "anonymous": false,
      "inputs": [
        {
          "indexed": true,
          "internalType": "address",
          "name": "serviceAddress",
          "type": "address"
        },
        {
          "indexed": false,
          "internalType": "string",
          "name": "uri",
          "type": "string"
        }
      ],
      "name": "UnregisterService",
      "type": "event"
    },
    {
      "anonymous": false,
      "inputs": [
        {
          "indexed": true,
          "internalType": "address",
          "name": "tokenAddress",
          "type": "address"
        },
        {
          "indexed": false,
          "internalType": "string",
          "name": "name",
          "type": "string"
        }
      ],
      "name": "UnregisterToken",
      "type": "event"
    },
    {
      "anonymous": false,
      "inputs": [
        {
          "indexed": true,
          "internalType": "address",
          "name": "nftAddress",
          "type": "address"
        },
        {
          "indexed": true,
          "internalType": "uint256",
          "name": "tokenId",
          "type": "uint256"
        },
        {
          "indexed": false,
          "internalType": "uint256",
          "name": "rentFee",
          "type": "uint256"
        },
        {
          "indexed": false,
          "internalType": "address",
          "name": "feeTokenAddress",
          "type": "address"
        },
        {
          "indexed": false,
          "internalType": "uint256",
          "name": "rentFeeByToken",
          "type": "uint256"
        },
        {
          "indexed": false,
          "internalType": "bool",
          "name": "isRentByToken",
          "type": "bool"
        },
        {
          "indexed": false,
          "internalType": "uint256",
          "name": "rentDuration",
          "type": "uint256"
        },
        {
          "indexed": false,
          "internalType": "address",
          "name": "renterAddress",
          "type": "address"
        },
        {
          "indexed": true,
          "internalType": "address",
          "name": "renteeAddress",
          "type": "address"
        },
        {
          "indexed": false,
          "internalType": "address",
          "name": "serviceAddress",
          "type": "address"
        },
        {
          "indexed": false,
          "internalType": "uint256",
          "name": "rentStartTimestamp",
          "type": "uint256"
        }
      ],
      "name": "UnrentNFT",
      "type": "event"
    },
    {
      "anonymous": false,
      "inputs": [
        {
          "indexed": true,
          "internalType": "address",
          "name": "recipient",
          "type": "address"
        },
        {
          "indexed": true,
          "internalType": "address",
          "name": "tokenAddress",
          "type": "address"
        },
        {
          "indexed": true,
          "internalType": "uint256",
          "name": "amount",
          "type": "uint256"
        }
      ],
      "name": "WithdrawMyBalance",
      "type": "event"
    },
    {
      "stateMutability": "payable",
      "type": "fallback"
    },
    {
      "inputs": [
        {
          "internalType": "address",
          "name": "accountAddress",
          "type": "address"
        },
        {
          "internalType": "uint256",
          "name": "snapshotId",
          "type": "uint256"
        }
      ],
      "name": "balanceOfAt",
      "outputs": [
        {
          "internalType": "bool",
          "name": "found",
          "type": "bool"
        },
        {
          "internalType": "uint256",
          "name": "balance",
          "type": "uint256"
        },
        {
          "internalType": "uint256",
          "name": "balanceByToken",
          "type": "uint256"
        }
      ],
      "stateMutability": "view",
      "type": "function"
    },
    {
      "inputs": [
        {
          "internalType": "address",
          "name": "nftAddress",
          "type": "address"
        },
        {
          "internalType": "uint256",
          "name": "tokenId",
          "type": "uint256"
        },
        {
          "internalType": "uint256",
          "name": "rentFee",
          "type": "uint256"
        },
        {
          "internalType": "address",
          "name": "feeTokenAddress",
          "type": "address"
        },
        {
          "internalType": "uint256",
          "name": "rentFeeByToken",
          "type": "uint256"
        },
        {
          "internalType": "uint256",
          "name": "rentDuration",
          "type": "uint256"
        }
      ],
      "name": "changeNFT",
      "outputs": [
        {
          "internalType": "bool",
          "name": "success",
          "type": "bool"
        }
      ],
      "stateMutability": "nonpayable",
      "type": "function"
    },
    {
      "inputs": [],
      "name": "exclusive",
      "outputs": [
        {
          "internalType": "bool",
          "name": "",
          "type": "bool"
        }
      ],
      "stateMutability": "view",
      "type": "function"
    },
    {
      "inputs": [],
      "name": "getAllAccountBalance",
      "outputs": [
        {
          "components": [
            {
              "internalType": "address",
              "name": "accountAddress",
              "type": "address"
            },
            {
              "internalType": "address",
              "name": "tokenAddress",
              "type": "address"
            },
            {
              "internalType": "uint256",
              "name": "amount",
              "type": "uint256"
            }
          ],
          "internalType": "struct accountBalanceIterableMap.accountBalance[]",
          "name": "",
          "type": "tuple[]"
        }
      ],
      "stateMutability": "view",
      "type": "function"
    },
    {
      "inputs": [],
      "name": "getAllCollection",
      "outputs": [
        {
          "components": [
            {
              "internalType": "address",
              "name": "collectionAddress",
              "type": "address"
            },
            {
              "internalType": "string",
              "name": "uri",
              "type": "string"
            }
          ],
          "internalType": "struct collectionDataIterableMap.collectionData[]",
          "name": "",
          "type": "tuple[]"
        }
      ],
      "stateMutability": "view",
      "type": "function"
    },
    {
      "inputs": [],
      "name": "getAllPendingRentFee",
      "outputs": [
        {
          "components": [
            {
              "internalType": "address",
              "name": "renterAddress",
              "type": "address"
            },
            {
              "internalType": "address",
              "name": "serviceAddress",
              "type": "address"
            },
            {
              "internalType": "address",
              "name": "feeTokenAddress",
              "type": "address"
            },
            {
              "internalType": "uint256",
              "name": "amount",
              "type": "uint256"
            }
          ],
          "internalType": "struct pendingRentFeeIterableMap.pendingRentFee[]",
          "name": "",
          "type": "tuple[]"
        }
      ],
      "stateMutability": "view",
      "type": "function"
    },
    {
      "inputs": [],
      "name": "getAllRegisterData",
      "outputs": [
        {
          "components": [
            {
              "internalType": "address",
              "name": "nftAddress",
              "type": "address"
            },
            {
              "internalType": "uint256",
              "name": "tokenId",
              "type": "uint256"
            },
            {
              "internalType": "uint256",
              "name": "rentFee",
              "type": "uint256"
            },
            {
              "internalType": "address",
              "name": "feeTokenAddress",
              "type": "address"
            },
            {
              "internalType": "uint256",
              "name": "rentFeeByToken",
              "type": "uint256"
            },
            {
              "internalType": "uint256",
              "name": "rentDuration",
              "type": "uint256"
            }
          ],
          "internalType": "struct registerDataIterableMap.registerData[]",
          "name": "",
          "type": "tuple[]"
        }
      ],
      "stateMutability": "view",
      "type": "function"
    },
    {
      "inputs": [],
      "name": "getAllRentData",
      "outputs": [
        {
          "components": [
            {
              "internalType": "address",
              "name": "nftAddress",
              "type": "address"
            },
            {
              "internalType": "uint256",
              "name": "tokenId",
              "type": "uint256"
            },
            {
              "internalType": "uint256",
              "name": "rentFee",
              "type": "uint256"
            },
            {
              "internalType": "address",
              "name": "feeTokenAddress",
              "type": "address"
            },
            {
              "internalType": "uint256",
              "name": "rentFeeByToken",
              "type": "uint256"
            },
            {
              "internalType": "bool",
              "name": "isRentByToken",
              "type": "bool"
            },
            {
              "internalType": "uint256",
              "name": "rentDuration",
              "type": "uint256"
            },
            {
              "internalType": "address",
              "name": "renterAddress",
              "type": "address"
            },
            {
              "internalType": "address",
              "name": "renteeAddress",
              "type": "address"
            },
            {
              "internalType": "address",
              "name": "serviceAddress",
              "type": "address"
            },
            {
              "internalType": "uint256",
              "name": "rentStartTimestamp",
              "type": "uint256"
            }
          ],
          "internalType": "struct rentDataIterableMap.rentData[]",
          "name": "",
          "type": "tuple[]"
        }
      ],
      "stateMutability": "view",
      "type": "function"
    },
    {
      "inputs": [],
      "name": "getAllService",
      "outputs": [
        {
          "components": [
            {
              "internalType": "address",
              "name": "serviceAddress",
              "type": "address"
            },
            {
              "internalType": "string",
              "name": "uri",
              "type": "string"
            }
          ],
          "internalType": "struct serviceDataIterableMap.serviceData[]",
          "name": "",
          "type": "tuple[]"
        }
      ],
      "stateMutability": "view",
      "type": "function"
    },
    {
      "inputs": [],
      "name": "getAllToken",
      "outputs": [
        {
          "components": [
            {
              "internalType": "address",
              "name": "tokenAddress",
              "type": "address"
            },
            {
              "internalType": "string",
              "name": "name",
              "type": "string"
            }
          ],
          "internalType": "struct tokenDataIterableMap.tokenData[]",
          "name": "",
          "type": "tuple[]"
        }
      ],
      "stateMutability": "view",
      "type": "function"
    },
    {
      "inputs": [
        {
          "internalType": "address",
          "name": "collectionAddress",
          "type": "address"
        }
      ],
      "name": "getCollection",
      "outputs": [
        {
          "components": [
            {
              "internalType": "address",
              "name": "collectionAddress",
              "type": "address"
            },
            {
              "internalType": "string",
              "name": "uri",
              "type": "string"
            }
          ],
          "internalType": "struct collectionDataIterableMap.collectionData",
          "name": "",
          "type": "tuple"
        }
      ],
      "stateMutability": "view",
      "type": "function"
    },
    {
      "inputs": [],
      "name": "getCurrentSnapshotId",
      "outputs": [
        {
          "internalType": "uint256",
          "name": "",
          "type": "uint256"
        }
      ],
      "stateMutability": "view",
      "type": "function"
    },
    {
      "inputs": [],
      "name": "getFeeQuota",
      "outputs": [
        {
          "internalType": "uint256",
          "name": "renterFeeQuota",
          "type": "uint256"
        },
        {
          "internalType": "uint256",
          "name": "serviceFeeQuota",
          "type": "uint256"
        },
        {
          "internalType": "uint256",
          "name": "marketFeeQuota",
          "type": "uint256"
        }
      ],
      "stateMutability": "view",
      "type": "function"
    },
    {
      "inputs": [],
      "name": "getMarketShareAddress",
      "outputs": [
        {
          "internalType": "address",
          "name": "shareAddress",
          "type": "address"
        }
      ],
      "stateMutability": "view",
      "type": "function"
    },
    {
      "inputs": [
        {
          "internalType": "address",
          "name": "tokenAddress",
          "type": "address"
        }
      ],
      "name": "getMyBalance",
      "outputs": [
        {
          "internalType": "uint256",
          "name": "balance",
          "type": "uint256"
        }
      ],
      "stateMutability": "view",
      "type": "function"
    },
    {
      "inputs": [
        {
          "internalType": "address",
          "name": "nftAddress",
          "type": "address"
        },
        {
          "internalType": "uint256",
          "name": "tokenId",
          "type": "uint256"
        }
      ],
      "name": "getRegisterData",
      "outputs": [
        {
          "components": [
            {
              "internalType": "address",
              "name": "nftAddress",
              "type": "address"
            },
            {
              "internalType": "uint256",
              "name": "tokenId",
              "type": "uint256"
            },
            {
              "internalType": "uint256",
              "name": "rentFee",
              "type": "uint256"
            },
            {
              "internalType": "address",
              "name": "feeTokenAddress",
              "type": "address"
            },
            {
              "internalType": "uint256",
              "name": "rentFeeByToken",
              "type": "uint256"
            },
            {
              "internalType": "uint256",
              "name": "rentDuration",
              "type": "uint256"
            }
          ],
          "internalType": "struct registerDataIterableMap.registerData",
          "name": "",
          "type": "tuple"
        }
      ],
      "stateMutability": "view",
      "type": "function"
    },
    {
      "inputs": [
        {
          "internalType": "address",
          "name": "nftAddress",
          "type": "address"
        },
        {
          "internalType": "uint256",
          "name": "tokenId",
          "type": "uint256"
        }
      ],
      "name": "getRentData",
      "outputs": [
        {
          "components": [
            {
              "internalType": "address",
              "name": "nftAddress",
              "type": "address"
            },
            {
              "internalType": "uint256",
              "name": "tokenId",
              "type": "uint256"
            },
            {
              "internalType": "uint256",
              "name": "rentFee",
              "type": "uint256"
            },
            {
              "internalType": "address",
              "name": "feeTokenAddress",
              "type": "address"
            },
            {
              "internalType": "uint256",
              "name": "rentFeeByToken",
              "type": "uint256"
            },
            {
              "internalType": "bool",
              "name": "isRentByToken",
              "type": "bool"
            },
            {
              "internalType": "uint256",
              "name": "rentDuration",
              "type": "uint256"
            },
            {
              "internalType": "address",
              "name": "renterAddress",
              "type": "address"
            },
            {
              "internalType": "address",
              "name": "renteeAddress",
              "type": "address"
            },
            {
              "internalType": "address",
              "name": "serviceAddress",
              "type": "address"
            },
            {
              "internalType": "uint256",
              "name": "rentStartTimestamp",
              "type": "uint256"
            }
          ],
          "internalType": "struct rentDataIterableMap.rentData",
          "name": "",
          "type": "tuple"
        }
      ],
      "stateMutability": "view",
      "type": "function"
    },
    {
      "inputs": [
        {
          "internalType": "address",
          "name": "serviceAddress",
          "type": "address"
        }
      ],
      "name": "getService",
      "outputs": [
        {
          "components": [
            {
              "internalType": "address",
              "name": "serviceAddress",
              "type": "address"
            },
            {
              "internalType": "string",
              "name": "uri",
              "type": "string"
            }
          ],
          "internalType": "struct serviceDataIterableMap.serviceData",
          "name": "",
          "type": "tuple"
        }
      ],
      "stateMutability": "view",
      "type": "function"
    },
    {
      "inputs": [
        {
          "internalType": "address",
          "name": "account",
          "type": "address"
        }
      ],
      "name": "isOwnerOrRenter",
      "outputs": [
        {
          "internalType": "bool",
          "name": "success",
          "type": "bool"
        }
      ],
      "stateMutability": "view",
      "type": "function"
    },
    {
      "inputs": [],
      "name": "makeSnapshot",
      "outputs": [
        {
          "internalType": "uint256",
          "name": "",
          "type": "uint256"
        }
      ],
      "stateMutability": "nonpayable",
      "type": "function"
    },
    {
      "inputs": [],
      "name": "owner",
      "outputs": [
        {
          "internalType": "address",
          "name": "",
          "type": "address"
        }
      ],
      "stateMutability": "view",
      "type": "function"
    },
    {
      "inputs": [],
      "name": "pause",
      "outputs": [],
      "stateMutability": "nonpayable",
      "type": "function"
    },
    {
      "inputs": [],
      "name": "paused",
      "outputs": [
        {
          "internalType": "bool",
          "name": "",
          "type": "bool"
        }
      ],
      "stateMutability": "view",
      "type": "function"
    },
    {
      "inputs": [
        {
          "internalType": "address",
          "name": "collectionAddress",
          "type": "address"
        },
        {
          "internalType": "string",
          "name": "uri",
          "type": "string"
        }
      ],
      "name": "registerCollection",
      "outputs": [
        {
          "internalType": "bool",
          "name": "success",
          "type": "bool"
        }
      ],
      "stateMutability": "nonpayable",
      "type": "function"
    },
    {
      "inputs": [
        {
          "internalType": "address",
          "name": "nftAddress",
          "type": "address"
        },
        {
          "internalType": "uint256",
          "name": "tokenId",
          "type": "uint256"
        }
      ],
      "name": "registerNFT",
      "outputs": [
        {
          "internalType": "bool",
          "name": "success",
          "type": "bool"
        }
      ],
      "stateMutability": "nonpayable",
      "type": "function"
    },
    {
      "inputs": [
        {
          "internalType": "address",
          "name": "serviceAddress",
          "type": "address"
        },
        {
          "internalType": "string",
          "name": "uri",
          "type": "string"
        }
      ],
      "name": "registerService",
      "outputs": [
        {
          "internalType": "bool",
          "name": "success",
          "type": "bool"
        }
      ],
      "stateMutability": "nonpayable",
      "type": "function"
    },
    {
      "inputs": [
        {
          "internalType": "address",
          "name": "tokenAddress",
          "type": "address"
        },
        {
          "internalType": "string",
          "name": "name",
          "type": "string"
        }
      ],
      "name": "registerToken",
      "outputs": [
        {
          "internalType": "bool",
          "name": "success",
          "type": "bool"
        }
      ],
      "stateMutability": "nonpayable",
      "type": "function"
    },
    {
      "inputs": [],
      "name": "renounceOwnership",
      "outputs": [],
      "stateMutability": "nonpayable",
      "type": "function"
    },
    {
      "inputs": [
        {
          "internalType": "address",
          "name": "nftAddress",
          "type": "address"
        },
        {
          "internalType": "uint256",
          "name": "tokenId",
          "type": "uint256"
        },
        {
          "internalType": "address",
          "name": "serviceAddress",
          "type": "address"
        }
      ],
      "name": "rentNFT",
      "outputs": [
        {
          "internalType": "bool",
          "name": "success",
          "type": "bool"
        }
      ],
      "stateMutability": "payable",
      "type": "function"
    },
    {
      "inputs": [
        {
          "internalType": "address",
          "name": "nftAddress",
          "type": "address"
        },
        {
          "internalType": "uint256",
          "name": "tokenId",
          "type": "uint256"
        },
        {
          "internalType": "address",
          "name": "serviceAddress",
          "type": "address"
        }
      ],
      "name": "rentNFTByToken",
      "outputs": [
        {
          "internalType": "bool",
          "name": "success",
          "type": "bool"
        }
      ],
      "stateMutability": "payable",
      "type": "function"
    },
    {
      "inputs": [
        {
          "internalType": "uint256",
          "name": "renterFeeQuota",
          "type": "uint256"
        },
        {
          "internalType": "uint256",
          "name": "serviceFeeQuota",
          "type": "uint256"
        },
        {
          "internalType": "uint256",
          "name": "marketFeeQuota",
          "type": "uint256"
        }
      ],
      "name": "setFeeQuota",
      "outputs": [],
      "stateMutability": "nonpayable",
      "type": "function"
    },
    {
      "inputs": [
        {
          "internalType": "address",
          "name": "shareAddress",
          "type": "address"
        }
      ],
      "name": "setMarketShareAddress",
      "outputs": [],
      "stateMutability": "nonpayable",
      "type": "function"
    },
    {
      "inputs": [
        {
          "internalType": "address",
          "name": "nftAddress",
          "type": "address"
        },
        {
          "internalType": "uint256",
          "name": "tokenId",
          "type": "uint256"
        }
      ],
      "name": "settleRentData",
      "outputs": [
        {
          "internalType": "bool",
          "name": "success",
          "type": "bool"
        }
      ],
      "stateMutability": "nonpayable",
      "type": "function"
    },
    {
      "inputs": [
        {
          "internalType": "address",
          "name": "newOwner",
          "type": "address"
        }
      ],
      "name": "transferOwnership",
      "outputs": [],
      "stateMutability": "nonpayable",
      "type": "function"
    },
    {
      "inputs": [],
      "name": "unpause",
      "outputs": [],
      "stateMutability": "nonpayable",
      "type": "function"
    },
    {
      "inputs": [
        {
          "internalType": "address",
          "name": "collectionAddress",
          "type": "address"
        }
      ],
      "name": "unregisterCollection",
      "outputs": [
        {
          "internalType": "bool",
          "name": "success",
          "type": "bool"
        }
      ],
      "stateMutability": "nonpayable",
      "type": "function"
    },
    {
      "inputs": [
        {
          "internalType": "address",
          "name": "nftAddress",
          "type": "address"
        },
        {
          "internalType": "uint256",
          "name": "tokenId",
          "type": "uint256"
        }
      ],
      "name": "unregisterNFT",
      "outputs": [
        {
          "internalType": "bool",
          "name": "success",
          "type": "bool"
        }
      ],
      "stateMutability": "nonpayable",
      "type": "function"
    },
    {
      "inputs": [
        {
          "internalType": "address",
          "name": "serviceAddress",
          "type": "address"
        }
      ],
      "name": "unregisterService",
      "outputs": [
        {
          "internalType": "bool",
          "name": "success",
          "type": "bool"
        }
      ],
      "stateMutability": "nonpayable",
      "type": "function"
    },
    {
      "inputs": [
        {
          "internalType": "address",
          "name": "tokenAddress",
          "type": "address"
        }
      ],
      "name": "unregisterToken",
      "outputs": [
        {
          "internalType": "bool",
          "name": "success",
          "type": "bool"
        }
      ],
      "stateMutability": "nonpayable",
      "type": "function"
    },
    {
      "inputs": [
        {
          "internalType": "address",
          "name": "nftAddress",
          "type": "address"
        },
        {
          "internalType": "uint256",
          "name": "tokenId",
          "type": "uint256"
        }
      ],
      "name": "unrentNFT",
      "outputs": [
        {
          "internalType": "bool",
          "name": "success",
          "type": "bool"
        }
      ],
      "stateMutability": "nonpayable",
      "type": "function"
    },
    {
      "inputs": [
        {
          "internalType": "address",
          "name": "recipient",
          "type": "address"
        },
        {
          "internalType": "address",
          "name": "tokenAddress",
          "type": "address"
        }
      ],
      "name": "withdrawMyBalance",
      "outputs": [
        {
          "internalType": "bool",
          "name": "success",
          "type": "bool"
        }
      ],
      "stateMutability": "payable",
      "type": "function"
    },
    {
      "stateMutability": "payable",
      "type": "receive"
    }
  ],
  "bytecode": "0x6080604052670de0b6b3a76400006002556201518060035560236004556023600555601e6006553480156200003357600080fd5b5060405162005ebb38038062005ebb8339810160408190526200005691620000e9565b620000613362000099565b6000805460ff60a01b19169055600180546001600160a01b031916331790556017805491151560ff1990921691909117905562000114565b600080546001600160a01b038381166001600160a01b0319831681178455604051919092169283917f8be0079c531659141344cd1fd0a4f28419497f9722a3daafe3b4186f6b6457e09190a35050565b600060208284031215620000fc57600080fd5b815180151581146200010d57600080fd5b9392505050565b615d9780620001246000396000f3fe6080604052600436106101da5760003560e01c806301ff74f71461023b57806306eb924f1461026a57806315a523021461028a578063173cb999146102b757806317a6b609146102d75780631c2c2c24146102f75780632736a862146103195780632d7402261461033b5780632e6379ed1461035b5780633f4ba83a1461036e5780634419ebb61461038357806345d44eda146103b05780634b6c05fa146103d05780634ee2cd7e146103f75780635439ad86146104345780635c975abb146104575780636558fce61461046c5780636b4a08961461048c57806370473d86146104ac578063715018a6146104ce57806377860cdd146104e35780637e3ef7cd1461050357806381ac825c1461052357806383b2f911146105365780638456cb591461056357806385e3c1d4146105785780638bb72e831461059a5780638da5cb5b146105bc57806395dbd440146105d1578063adee9abd146105f3578063b3b2216314610613578063d4002fed14610628578063d4fbeb191461063b578063e2fcbf731461065b578063e40de8871461067d578063e5d1420f1461069d578063e8592fc7146106bd578063ec51c0d1146106dd578063ee5afa521461070e578063eec310421461072e578063f2fde38b146107505761020e565b3661020e57604051349033907fd6717f327e0cb88b4a97a7f67a453e9258252c34937ccbdd86de7cb840e7def390600090a3005b60405133907fdd0c5778ddb0b0501649417aeffed44057db3d5d530231758c8dc5ef6eeb789490600090a2005b34801561024757600080fd5b506017546102559060ff1681565b60405190151581526020015b60405180910390f35b34801561027657600080fd5b50610255610285366004614fe2565b610770565b34801561029657600080fd5b506102aa6102a5366004615074565b61092b565b6040516102619190615129565b3480156102c357600080fd5b506102556102d2366004615074565b6109c1565b3480156102e357600080fd5b506102556102f236600461513c565b610b6a565b34801561030357600080fd5b5061030c610f4e565b604051610261919061520b565b34801561032557600080fd5b5061033961033436600461525a565b6110bf565b005b34801561034757600080fd5b50610255610356366004614fe2565b611122565b610255610369366004615286565b6112b0565b34801561037a57600080fd5b506103396116a2565b34801561038f57600080fd5b506103a361039e36600461513c565b6116b4565b60405161026191906152bf565b3480156103bc57600080fd5b506102556103cb366004615074565b611750565b3480156103dc57600080fd5b506001546001600160a01b03165b60405161026191906152ce565b34801561040357600080fd5b5061041761041236600461513c565b611995565b604080519315158452602084019290925290820152606001610261565b34801561044057600080fd5b50610449611a35565b604051908152602001610261565b34801561046357600080fd5b50610255611ac1565b34801561047857600080fd5b506102556104873660046152e2565b611ad1565b34801561049857600080fd5b506102556104a736600461513c565b611daf565b3480156104b857600080fd5b506104c161245d565b6040516102619190615383565b3480156104da57600080fd5b50610339612587565b3480156104ef57600080fd5b506102556104fe366004615074565b612599565b34801561050f57600080fd5b5061044961051e366004615074565b6127bd565b6102556105313660046153c5565b61284c565b34801561054257600080fd5b5061055661055136600461513c565b612dca565b6040516102619190615407565b34801561056f57600080fd5b50610339612e5e565b34801561058457600080fd5b5061058d612e6e565b6040516102619190615415565b3480156105a657600080fd5b506105af613002565b6040516102619190615477565b3480156105c857600080fd5b506103ea613135565b3480156105dd57600080fd5b506105e6613144565b60405161026191906154e9565b3480156105ff57600080fd5b5061025561060e366004615074565b6132cb565b34801561061f57600080fd5b506104496134ef565b6102556106363660046153c5565b613539565b34801561064757600080fd5b50610255610656366004614fe2565b613ab4565b34801561066757600080fd5b50610670613c42565b604051610261919061553e565b34801561068957600080fd5b506102aa610698366004615074565b613d5d565b3480156106a957600080fd5b506102556106b836600461513c565b613d9f565b3480156106c957600080fd5b506102556106d836600461513c565b614075565b3480156106e957600080fd5b5060045460055460065460408051938452602084019290925290820152606001610261565b34801561071a57600080fd5b50610339610729366004615074565b614635565b34801561073a57600080fd5b5061074361465f565b6040516102619190615596565b34801561075c57600080fd5b5061033961076b366004615074565b6147e6565b600061077a61485f565b6107826148be565b6040516360f353e160e01b815273__$79a40a2052c9947e027843e42106f8b048$__906360f353e1906107bc9060099087906004016155eb565b60206040518083038186803b1580156107d457600080fd5b505af41580156107e8573d6000803e3d6000fd5b505050506040513d601f19601f8201168201806040525081019061080c9190615612565b156108325760405162461bcd60e51b81526004016108299061562d565b60405180910390fd5b60405163287af74760e01b815260009073__$79a40a2052c9947e027843e42106f8b048$__9063287af74790610871906009908890889060040161564a565b60206040518083038186803b15801561088957600080fd5b505af415801561089d573d6000803e3d6000fd5b505050506040513d601f19601f820116820180604052508101906108c19190615612565b90506001811515141561091957836001600160a01b03167fdcc2016b74f9e1be59c35f005623093f22ee185961aa79657be041dba04ed0a484604051610907919061567d565b60405180910390a26001915050610925565b6000915050610925565b505b92915050565b610933614e7b565b604051631eb966b960e01b815273__$a27ab5a2953dc10a9c552591268754b616$__90631eb966b99061096d90600b9086906004016155eb565b60006040518083038186803b15801561098557600080fd5b505af4158015610999573d6000803e3d6000fd5b505050506040513d6000823e601f3d908101601f191682016040526109259190810190615750565b60008060606000806109d161465f565b905060005b8151811015610ad25760008282815181106109f3576109f3615784565b6020026020010151600001519050806001600160a01b031688604051602401610a1c91906152ce565b60408051601f198184030181529181526020820180516001600160e01b03166370a0823160e01b17905251610a51919061579a565b600060405180830381855afa9150503d8060008114610a8c576040519150601f19603f3d011682016040523d82523d6000602084013e610a91565b606091505b5080519197509550600090610aaf90870160209081019088016157b6565b9050610abb81866157e5565b945050508080610aca906157fd565b9150506109d6565b508115610ae55750600195945050505050565b6000610aef610f4e565b905060005b8151811015610b5c576000828281518110610b1157610b11615784565b602002602001015161010001519050886001600160a01b0316816001600160a01b03161415610b495750600198975050505050505050565b5080610b54816157fd565b915050610af4565b506000979650505050505050565b6000610b746148be565b6040516304ecf28360e41b815273__$aabfbf51bc7bf3b8af0580fb7224204a01$__90634ecf283090610bb090600d9087908790600401615818565b60206040518083038186803b158015610bc857600080fd5b505af4158015610bdc573d6000803e3d6000fd5b505050506040513d601f19601f82011682018060405250810190610c009190615612565b15610c335760405162461bcd60e51b815260206004820152600360248201526229269960e91b6044820152606401610829565b6000610c3f8433614906565b90506000610c4d85856149b9565b905060018215151480610c6857506001600160a01b03811633145b80610cfe57506040516360f353e160e01b815273__$79a40a2052c9947e027843e42106f8b048$__906360f353e190610ca89060099033906004016155eb565b60206040518083038186803b158015610cc057600080fd5b505af4158015610cd4573d6000803e3d6000fd5b505050506040513d601f19601f82011682018060405250810190610cf89190615612565b15156001145b610d305760405162461bcd60e51b815260206004820152600360248201526214934d60ea1b6044820152606401610829565b6040516360f353e160e01b815273__$79a40a2052c9947e027843e42106f8b048$__906360f353e190610d6a9060099089906004016155eb565b60206040518083038186803b158015610d8257600080fd5b505af4158015610d96573d6000803e3d6000fd5b505050506040513d601f19601f82011682018060405250810190610dba9190615612565b1515600114610df45760405162461bcd60e51b8152600401610829906020808252600490820152632926991960e11b604082015260600190565b6001600160a01b038116610e335760405162461bcd60e51b815260040161082990602080825260049082015263524d323160e01b604082015260600190565b60025460035460405163cddd4b6760e01b815260009273__$aabfbf51bc7bf3b8af0580fb7224204a01$__9263cddd4b6792610e7e92600d928c928c92918991829190600401615837565b60206040518083038186803b158015610e9657600080fd5b505af4158015610eaa573d6000803e3d6000fd5b505050506040513d601f19601f82011682018060405250810190610ece9190615612565b905060018115151415610f4257816001600160a01b031685876001600160a01b03167f582e65d918b73308f2eb058e75e68168f22c49c2994530f72d46177c78435cbb600254600354604051610f2e929190918252602082015260400190565b60405180910390a460019350505050610925565b60009350505050610925565b6010546060906000906001600160401b03811115610f6e57610f6e614f4c565b604051908082528060200260200182016040528015610fa757816020015b610f94614e93565b815260200190600190039081610f8c5790505b50905060005b6010548110156110b95760108054600f919083908110610fcf57610fcf615784565b90600052602060002001604051610fe691906158aa565b9081526040805191829003602090810183206101608401835260018101546001600160a01b03908116855260028201549285019290925260038101549284019290925260048201548116606084015260058201546080840152600682015460ff16151560a0840152600782015460c08401526008820154811660e084015260098201548116610100840152600a82015416610120830152600b0154610140820152825183908390811061109b5761109b615784565b602002602001018190525080806110b1906157fd565b915050610fad565b50919050565b6110c761485f565b806110d283856157e5565b6110dc91906157e5565b6064146111145760405162461bcd60e51b8152600401610829906020808252600490820152632926989960e11b604082015260600190565b600492909255600555600655565b600061112c61485f565b6111346148be565b604051638c9a6cc360e01b815273__$a27ab5a2953dc10a9c552591268754b616$__90638c9a6cc39061116e90600b9087906004016155eb565b60206040518083038186803b15801561118657600080fd5b505af415801561119a573d6000803e3d6000fd5b505050506040513d601f19601f820116820180604052508101906111be9190615612565b156111db5760405162461bcd60e51b81526004016108299061562d565b6040516327a7887760e21b815260009073__$a27ab5a2953dc10a9c552591268754b616$__90639e9e21dc9061121a90600b908890889060040161564a565b60206040518083038186803b15801561123257600080fd5b505af4158015611246573d6000803e3d6000fd5b505050506040513d601f19601f8201168201806040525081019061126a9190615612565b90506001811515141561091957836001600160a01b03167f26e277514df07793f28eff0e6f05b34a8dc0be0012b50d1b6162ce3c958b0c4e84604051610907919061567d565b6000336001600160a01b03841614806112e157506112cc613135565b6001600160a01b0316336001600160a01b0316145b6113165760405162461bcd60e51b8152600401610829906020808252600490820152630a49a62760e31b604082015260600190565b60405163b52bf90f60e01b815260009073__$35fde6ac6f7fb08b81f20635e2dfbb2343$__9063b52bf90f906113559060139088908890600401615946565b60206040518083038186803b15801561136d57600080fd5b505af4158015611381573d6000803e3d6000fd5b505050506040513d601f19601f820116820180604052508101906113a591906157b6565b90508015610923576001600160a01b03831661144d576000846001600160a01b03168260405160006040518083038185875af1925050503d8060008114611408576040519150601f19603f3d011682016040523d82523d6000602084013e61140d565b606091505b50509050806114475760405162461bcd60e51b81526004016108299060208082526004908201526314934c4d60e21b604082015260600190565b506115af565b60405163095ea7b360e01b8152306004820152602481018290526000906001600160a01b0385169063095ea7b390604401602060405180830381600087803b15801561149857600080fd5b505af11580156114ac573d6000803e3d6000fd5b505050506040513d601f19601f820116820180604052508101906114d09190615612565b9050806115085760405162461bcd60e51b815260040161082990602080825260049082015263524d313960e01b604082015260600190565b6040516323b872dd60e01b81526000906001600160a01b038616906323b872dd9061153b9030908a908890600401615965565b602060405180830381600087803b15801561155557600080fd5b505af1158015611569573d6000803e3d6000fd5b505050506040513d601f19601f8201168201806040525081019061158d9190615612565b9050806115ac5760405162461bcd60e51b815260040161082990615989565b50505b60405163bc824a9360e01b815260009073__$35fde6ac6f7fb08b81f20635e2dfbb2343$__9063bc824a93906115ee9060139089908990600401615946565b60206040518083038186803b15801561160657600080fd5b505af415801561161a573d6000803e3d6000fd5b505050506040513d601f19601f8201168201806040525081019061163e9190615612565b9050600181151514156116975781846001600160a01b0316866001600160a01b03167ff19b643806aff6923e6a83303f2c43467bb6e47487c68586ec0bcfb7097e8f7660405160405180910390a4600192505050610925565b600092505050610925565b6116aa61485f565b6116b2614a80565b565b6116bc614e93565b60405163af8b7c8160e01b815273__$c9b49513854812b7b6c4b448b2aa4684e3$__9063af8b7c81906116f890600f9087908790600401615818565b6101606040518083038186803b15801561171157600080fd5b505af4158015611725573d6000803e3d6000fd5b505050506040513d601f19601f8201168201806040525081019061174991906159a7565b9392505050565b600061175a61485f565b604051638c9a6cc360e01b815273__$a27ab5a2953dc10a9c552591268754b616$__90638c9a6cc39061179490600b9086906004016155eb565b60206040518083038186803b1580156117ac57600080fd5b505af41580156117c0573d6000803e3d6000fd5b505050506040513d601f19601f820116820180604052508101906117e49190615612565b15156001146118055760405162461bcd60e51b815260040161082990615a60565b604051631eb966b960e01b815260009073__$a27ab5a2953dc10a9c552591268754b616$__90631eb966b99061184290600b9087906004016155eb565b60006040518083038186803b15801561185a57600080fd5b505af415801561186e573d6000803e3d6000fd5b505050506040513d6000823e601f3d908101601f191682016040526118969190810190615750565b604051634c3bfbf560e11b815290915060009073__$a27ab5a2953dc10a9c552591268754b616$__90639877f7ea906118d690600b9088906004016155eb565b60206040518083038186803b1580156118ee57600080fd5b505af4158015611902573d6000803e3d6000fd5b505050506040513d601f19601f820116820180604052508101906119269190615612565b9050600181151514156119865781600001516001600160a01b03167fd3bb6cf267814a3d42a12164c9ac01a59db6d9121ae676500da60fd56b086d3b8360200151604051611974919061567d565b60405180910390a25060019392505050565b5060009392505050565b919050565b604051635e5295c360e01b81526000908190819073__$357b636e44b746b23fdc14d0fa96b1673d$__90635e5295c3906119d89060159089908990600401615818565b60606040518083038186803b1580156119f057600080fd5b505af4158015611a04573d6000803e3d6000fd5b505050506040513d601f19601f82011682018060405250810190611a289190615a7d565b9250925092509250925092565b604051637519677360e01b81526015600482015260009073__$357b636e44b746b23fdc14d0fa96b1673d$__906375196773906024015b60206040518083038186803b158015611a8457600080fd5b505af4158015611a98573d6000803e3d6000fd5b505050506040513d601f19601f82011682018060405250810190611abc91906157b6565b905090565b600054600160a01b900460ff1690565b6000611adb6148be565b6000611ae788886149b9565b9050336001600160a01b0382161480611b185750611b03613135565b6001600160a01b0316336001600160a01b0316145b611b345760405162461bcd60e51b815260040161082990615ab2565b6040516304ecf28360e41b815273__$aabfbf51bc7bf3b8af0580fb7224204a01$__90634ecf283090611b7090600d908c908c90600401615818565b60206040518083038186803b158015611b8857600080fd5b505af4158015611b9c573d6000803e3d6000fd5b505050506040513d601f19601f82011682018060405250810190611bc09190615612565b1515600114611be15760405162461bcd60e51b815260040161082990615a60565b6001600160a01b03851615611c9b57604051631f04869b60e31b815273__$4fab912f99daae96c763763589e4636ca5$__9063f82434d890611c2a9060079089906004016155eb565b60206040518083038186803b158015611c4257600080fd5b505af4158015611c56573d6000803e3d6000fd5b505050506040513d601f19601f82011682018060405250810190611c7a9190615612565b1515600114611c9b5760405162461bcd60e51b815260040161082990615989565b6040516313d3de6d60e11b815260009073__$aabfbf51bc7bf3b8af0580fb7224204a01$__906327a7bcda90611ce290600d908d908d908d908d908d908d90600401615837565b60206040518083038186803b158015611cfa57600080fd5b505af4158015611d0e573d6000803e3d6000fd5b505050506040513d601f19601f82011682018060405250810190611d329190615612565b905060018115151415611d9e57336001600160a01b0316888a6001600160a01b03167f4388754cf451950a50e2520e86758fc59ec9e88a7f6a09f2db5de37d545639298a8a8a8a89604051611d8b959493929190615acf565b60405180910390a4600192505050611da5565b6000925050505b9695505050505050565b60405163e99a8e3960e01b815260009081908190819073__$c9b49513854812b7b6c4b448b2aa4684e3$__9063e99a8e3990611df490600f908a908a90600401615818565b60206040518083038186803b158015611e0c57600080fd5b505af4158015611e20573d6000803e3d6000fd5b505050506040513d601f19601f82011682018060405250810190611e449190615612565b1515600114611e655760405162461bcd60e51b815260040161082990615afb565b33611e6e613135565b6001600160a01b031614611ead5760405162461bcd60e51b8152600401610829906020808252600490820152632926989b60e11b604082015260600190565b60405163af8b7c8160e01b815260009073__$c9b49513854812b7b6c4b448b2aa4684e3$__9063af8b7c8190611eec90600f908b908b90600401615818565b6101606040518083038186803b158015611f0557600080fd5b505af4158015611f19573d6000803e3d6000fd5b505050506040513d601f19601f82011682018060405250810190611f3d91906159a7565b90508060a001511515600115151415611f5c5780608001519150611f64565b806040015191505b610140810151429081118015611f8d57508160c00151826101400151611f8a91906157e5565b81105b1561206557600082610140015182611fa59190615b19565b9050611fbe611fb48286615b30565b8460c00151614acf565b9550611fca8487614adb565b610100840151606085015160405163071cd41560e31b815292975073__$35fde6ac6f7fb08b81f20635e2dfbb2343$__926338e6a0a892612012926013928b90600401615b4f565b60206040518083038186803b15801561202a57600080fd5b505af415801561203e573d6000803e3d6000fd5b505050506040513d601f19601f820116820180604052508101906120629190615612565b50505b84156122855760006120856004548761207e9190615b30565b6064614acf565b9050600061209a6005548861207e9190615b30565b90506000816120a9848a615b19565b6120b39190615b19565b60e0860151606087015160405163071cd41560e31b815292935073__$35fde6ac6f7fb08b81f20635e2dfbb2343$__926338e6a0a8926120fa926013928990600401615b4f565b60206040518083038186803b15801561211257600080fd5b505af4158015612126573d6000803e3d6000fd5b505050506040513d601f19601f8201168201806040525081019061214a9190615612565b50610120850151606086015160405163071cd41560e31b815273__$35fde6ac6f7fb08b81f20635e2dfbb2343$__926338e6a0a8926121929260139291908890600401615b4f565b60206040518083038186803b1580156121aa57600080fd5b505af41580156121be573d6000803e3d6000fd5b505050506040513d601f19601f820116820180604052508101906121e29190615612565b50600154606086015160405163071cd41560e31b815273__$35fde6ac6f7fb08b81f20635e2dfbb2343$__926338e6a0a892612230926013926001600160a01b031691908790600401615b4f565b60206040518083038186803b15801561224857600080fd5b505af415801561225c573d6000803e3d6000fd5b505050506040513d601f19601f820116820180604052508101906122809190615612565b505050505b60405163af8b7c8160e01b815260009073__$c9b49513854812b7b6c4b448b2aa4684e3$__9063af8b7c81906122c490600f908d908d90600401615818565b6101606040518083038186803b1580156122dd57600080fd5b505af41580156122f1573d6000803e3d6000fd5b505050506040513d601f19601f8201168201806040525081019061231591906159a7565b604051631d865d9360e21b815290915060009073__$c9b49513854812b7b6c4b448b2aa4684e3$__90637619764c9061235790600f908e908e90600401615818565b60206040518083038186803b15801561236f57600080fd5b505af4158015612383573d6000803e3d6000fd5b505050506040513d601f19601f820116820180604052508101906123a79190615612565b90506001811515141561244d578161010001516001600160a01b0316826020015183600001516001600160a01b03167f1e47184299ef1ae0147489de864e2860294ab4125cb78ff3488bce09ea0192f68560400151866060015187608001518860a001518960c001518a60e001518b61012001518c6101400151604051612435989796959493929190615b74565b60405180910390a46001975050505050505050610925565b6000975050505050505050610925565b600e546060906000906001600160401b0381111561247d5761247d614f4c565b6040519080825280602002602001820160405280156124b657816020015b6124a3614eef565b81526020019060019003908161249b5790505b50905060005b600e548110156110b957600e8054600d9190839081106124de576124de615784565b906000526020600020016040516124f591906158aa565b90815260408051918290036020908101832060c08401835260018101546001600160a01b0390811685526002820154928501929092526003810154928401929092526004820154166060830152600581015460808301526006015460a0820152825183908390811061256957612569615784565b6020026020010181905250808061257f906157fd565b9150506124bc565b61258f61485f565b6116b26000614ae7565b60006125a361485f565b604051631f04869b60e31b815273__$4fab912f99daae96c763763589e4636ca5$__9063f82434d8906125dd9060079086906004016155eb565b60206040518083038186803b1580156125f557600080fd5b505af4158015612609573d6000803e3d6000fd5b505050506040513d601f19601f8201168201806040525081019061262d9190615612565b151560011461264e5760405162461bcd60e51b815260040161082990615a60565b604051630a93aab960e31b815260009073__$4fab912f99daae96c763763589e4636ca5$__9063549d55c89061268b9060079087906004016155eb565b60006040518083038186803b1580156126a357600080fd5b505af41580156126b7573d6000803e3d6000fd5b505050506040513d6000823e601f3d908101601f191682016040526126df9190810190615750565b6040516359c0255d60e01b815290915060009073__$4fab912f99daae96c763763589e4636ca5$__906359c0255d9061271f9060079088906004016155eb565b60206040518083038186803b15801561273757600080fd5b505af415801561274b573d6000803e3d6000fd5b505050506040513d601f19601f8201168201806040525081019061276f9190615612565b9050600181151514156119865781600001516001600160a01b03167f037af5869c73bd98d861d265ed2fe7856d434102678eab240cfac53917ef4e838360200151604051611974919061567d565b60405163b52bf90f60e01b815260009073__$35fde6ac6f7fb08b81f20635e2dfbb2343$__9063b52bf90f906127fc9060139033908790600401615946565b60206040518083038186803b15801561281457600080fd5b505af4158015612828573d6000803e3d6000fd5b505050506040513d601f19601f8201168201806040525081019061092591906157b6565b60006128566148be565b6040516304ecf28360e41b815273__$aabfbf51bc7bf3b8af0580fb7224204a01$__90634ecf28309061289290600d9088908890600401615818565b60206040518083038186803b1580156128aa57600080fd5b505af41580156128be573d6000803e3d6000fd5b505050506040513d601f19601f820116820180604052508101906128e29190615612565b15156001146129035760405162461bcd60e51b815260040161082990615bba565b604051638c9a6cc360e01b815273__$a27ab5a2953dc10a9c552591268754b616$__90638c9a6cc39061293d90600b9086906004016155eb565b60206040518083038186803b15801561295557600080fd5b505af4158015612969573d6000803e3d6000fd5b505050506040513d601f19601f8201168201806040525081019061298d9190615612565b15156001146129ae5760405162461bcd60e51b815260040161082990615bd7565b60175460ff16151560011415612a675760405163e99a8e3960e01b815273__$c9b49513854812b7b6c4b448b2aa4684e3$__9063e99a8e39906129fa90600f9088908890600401615818565b60206040518083038186803b158015612a1257600080fd5b505af4158015612a26573d6000803e3d6000fd5b505050506040513d601f19601f82011682018060405250810190612a4a9190615612565b15612a675760405162461bcd60e51b815260040161082990615bf4565b604051630163053760e51b8152349073__$aabfbf51bc7bf3b8af0580fb7224204a01$__90632c60a6e090612aa590600d9089908990600401615818565b60c06040518083038186803b158015612abd57600080fd5b505af4158015612ad1573d6000803e3d6000fd5b505050506040513d601f19601f82011682018060405250810190612af59190615c11565b6040015114612b2c5760405162461bcd60e51b81526020600482015260036024820152620a49a760eb1b6044820152606401610829565b604051630163053760e51b815260009073__$aabfbf51bc7bf3b8af0580fb7224204a01$__90632c60a6e090612b6b90600d9089908990600401615818565b60c06040518083038186803b158015612b8357600080fd5b505af4158015612b97573d6000803e3d6000fd5b505050506040513d601f19601f82011682018060405250810190612bbb9190615c11565b90506000612bc986866149b9565b9050612bd3614e93565b6001600160a01b038088168252602082018790526040808501518184015260608086015183169084015260808086015190840152600060a080850182905286015160c085015284831660e08501523361010085015291871661012084015242610140840152516332ada61b60e01b815273__$c9b49513854812b7b6c4b448b2aa4684e3$__906332ada61b90612c7090600f908690600401615c9b565b60206040518083038186803b158015612c8857600080fd5b505af4158015612c9c573d6000803e3d6000fd5b505050506040513d601f19601f82011682018060405250810190612cc09190615612565b905060018115151415610b5c576040516343d434b560e11b815273__$cd3810e67fa8b653e5355050e47a521f6f$__906387a8696a90612d0e9060119087908b906000903490600401615cb0565b60206040518083038186803b158015612d2657600080fd5b505af4158015612d3a573d6000803e3d6000fd5b505050506040513d601f19601f82011682018060405250810190612d5e9190615612565b50336001600160a01b031687896001600160a01b0316600080516020615d4283398151915287604001518860600151896080015160008b60a001518b8f8c6101400151604051612db5989796959493929190615b74565b60405180910390a46001945050505050611749565b612dd2614eef565b604051630163053760e51b815273__$aabfbf51bc7bf3b8af0580fb7224204a01$__90632c60a6e090612e0e90600d9087908790600401615818565b60c06040518083038186803b158015612e2657600080fd5b505af4158015612e3a573d6000803e3d6000fd5b505050506040513d601f19601f820116820180604052508101906117499190615c11565b612e6661485f565b6116b2614b37565b6008546060906000906001600160401b03811115612e8e57612e8e614f4c565b604051908082528060200260200182016040528015612ed457816020015b604080518082019091526000815260606020820152815260200190600190039081612eac5790505b50905060005b6008548110156110b957600880546007919083908110612efc57612efc615784565b90600052602060002001604051612f1391906158aa565b9081526040805191829003602090810183208383019092526001820180546001600160a01b031684526002909201805491840191612f5090615875565b80601f0160208091040260200160405190810160405280929190818152602001828054612f7c90615875565b8015612fc95780601f10612f9e57610100808354040283529160200191612fc9565b820191906000526020600020905b815481529060010190602001808311612fac57829003601f168201915b505050505081525050828281518110612fe457612fe4615784565b60200260200101819052508080612ffa906157fd565b915050612eda565b6012546060906000906001600160401b0381111561302257613022614f4c565b60405190808252806020026020018201604052801561307457816020015b6040805160808101825260008082526020808301829052928201819052606082015282526000199092019101816130405790505b50905060005b6012548110156110b95760128054601191908390811061309c5761309c615784565b906000526020600020016040516130b391906158aa565b90815260408051918290036020908101832060808401835260018101546001600160a01b0390811685526002820154811692850192909252600381015490911691830191909152600401546060820152825183908390811061311757613117615784565b6020026020010181905250808061312d906157fd565b91505061307a565b6000546001600160a01b031690565b600c546060906000906001600160401b0381111561316457613164614f4c565b60405190808252806020026020018201604052801561319d57816020015b61318a614e7b565b8152602001906001900390816131825790505b50905060005b600c548110156110b957600c8054600b9190839081106131c5576131c5615784565b906000526020600020016040516131dc91906158aa565b9081526040805191829003602090810183208383019092526001820180546001600160a01b03168452600290920180549184019161321990615875565b80601f016020809104026020016040519081016040528092919081815260200182805461324590615875565b80156132925780601f1061326757610100808354040283529160200191613292565b820191906000526020600020905b81548152906001019060200180831161327557829003601f168201915b5050505050815250508282815181106132ad576132ad615784565b602002602001018190525080806132c3906157fd565b9150506131a3565b60006132d561485f565b6040516360f353e160e01b815273__$79a40a2052c9947e027843e42106f8b048$__906360f353e19061330f9060099086906004016155eb565b60206040518083038186803b15801561332757600080fd5b505af415801561333b573d6000803e3d6000fd5b505050506040513d601f19601f8201168201806040525081019061335f9190615612565b15156001146133805760405162461bcd60e51b815260040161082990615a60565b60405163044aed2360e01b815260009073__$79a40a2052c9947e027843e42106f8b048$__9063044aed23906133bd9060099087906004016155eb565b60006040518083038186803b1580156133d557600080fd5b505af41580156133e9573d6000803e3d6000fd5b505050506040513d6000823e601f3d908101601f191682016040526134119190810190615750565b60405163a3fb822560e01b815290915060009073__$79a40a2052c9947e027843e42106f8b048$__9063a3fb8225906134519060099088906004016155eb565b60206040518083038186803b15801561346957600080fd5b505af415801561347d573d6000803e3d6000fd5b505050506040513d601f19601f820116820180604052508101906134a19190615612565b9050600181151514156119865781600001516001600160a01b03167fe32dbca0dcbe2dc4205cd30b4b23a82cff3e9b7e12a5682683185c6f33c978be8360200151604051611974919061567d565b60006134f961485f565b6135016148be565b6040516329b6d14360e21b81526015600482015273__$357b636e44b746b23fdc14d0fa96b1673d$__9063a6db450c90602401611a6c565b60006135436148be565b6040516304ecf28360e41b815273__$aabfbf51bc7bf3b8af0580fb7224204a01$__90634ecf28309061357f90600d9088908890600401615818565b60206040518083038186803b15801561359757600080fd5b505af41580156135ab573d6000803e3d6000fd5b505050506040513d601f19601f820116820180604052508101906135cf9190615612565b15156001146135f05760405162461bcd60e51b815260040161082990615bba565b604051638c9a6cc360e01b815273__$a27ab5a2953dc10a9c552591268754b616$__90638c9a6cc39061362a90600b9086906004016155eb565b60206040518083038186803b15801561364257600080fd5b505af4158015613656573d6000803e3d6000fd5b505050506040513d601f19601f8201168201806040525081019061367a9190615612565b151560011461369b5760405162461bcd60e51b815260040161082990615bd7565b60405163e99a8e3960e01b815273__$c9b49513854812b7b6c4b448b2aa4684e3$__9063e99a8e39906136d790600f9088908890600401615818565b60206040518083038186803b1580156136ef57600080fd5b505af4158015613703573d6000803e3d6000fd5b505050506040513d601f19601f820116820180604052508101906137279190615612565b156137445760405162461bcd60e51b815260040161082990615bf4565b341561377b5760405162461bcd60e51b815260040161082990602080825260049082015263524d313360e01b604082015260600190565b600061378785856149b9565b604051630163053760e51b815290915060009073__$aabfbf51bc7bf3b8af0580fb7224204a01$__90632c60a6e0906137c990600d908a908a90600401615818565b60c06040518083038186803b1580156137e157600080fd5b505af41580156137f5573d6000803e3d6000fd5b505050506040513d601f19601f820116820180604052508101906138199190615c11565b9050600081606001516001600160a01b03166323b872dd333085608001516040518463ffffffff1660e01b815260040161385593929190615965565b602060405180830381600087803b15801561386f57600080fd5b505af1158015613883573d6000803e3d6000fd5b505050506040513d601f19601f820116820180604052508101906138a79190615612565b9050806138ba5760009350505050611749565b6138c2614e93565b6001600160a01b038089168252602082018890526040808501518184015260608086015183169084015260808086015190840152600160a08085019190915285015160c084015285821660e08401523361010084015290871661012083015242610140830152516332ada61b60e01b815273__$c9b49513854812b7b6c4b448b2aa4684e3$__906332ada61b9061396090600f908590600401615c9b565b60206040518083038186803b15801561397857600080fd5b505af415801561398c573d6000803e3d6000fd5b505050506040513d601f19601f820116820180604052508101906139b09190615612565b50606083015160808401516040516343d434b560e11b815273__$cd3810e67fa8b653e5355050e47a521f6f$__926387a8696a926139f7926011928a928d92600401615cb0565b60206040518083038186803b158015613a0f57600080fd5b505af4158015613a23573d6000803e3d6000fd5b505050506040513d601f19601f82011682018060405250810190613a479190615612565b50336001600160a01b031687896001600160a01b0316600080516020615d4283398151915286604001518760600151886080015160018a60a001518c8f8b6101400151604051613a9e989796959493929190615b74565b60405180910390a4506001979650505050505050565b6000613abe61485f565b613ac66148be565b604051631f04869b60e31b815273__$4fab912f99daae96c763763589e4636ca5$__9063f82434d890613b009060079087906004016155eb565b60206040518083038186803b158015613b1857600080fd5b505af4158015613b2c573d6000803e3d6000fd5b505050506040513d601f19601f82011682018060405250810190613b509190615612565b15613b6d5760405162461bcd60e51b81526004016108299061562d565b6040516331d0579b60e11b815260009073__$4fab912f99daae96c763763589e4636ca5$__906363a0af3690613bac906007908890889060040161564a565b60206040518083038186803b158015613bc457600080fd5b505af4158015613bd8573d6000803e3d6000fd5b505050506040513d601f19601f82011682018060405250810190613bfc9190615612565b90506001811515141561091957836001600160a01b03167ff76071867aae1eed00218b5aa8d4736b9b2161325ea3e48d283258a7e4ba75f584604051610907919061567d565b6014546060906000906001600160401b03811115613c6257613c62614f4c565b604051908082528060200260200182016040528015613cad57816020015b6040805160608101825260008082526020808301829052928201528252600019909201910181613c805790505b50905060005b6014548110156110b957601480546013919083908110613cd557613cd5615784565b90600052602060002001604051613cec91906158aa565b90815260408051918290036020908101832060608401835260018101546001600160a01b0390811685526002820154169184019190915260030154908201528251839083908110613d3f57613d3f615784565b60200260200101819052508080613d55906157fd565b915050613cb3565b613d65614e7b565b60405163044aed2360e01b815273__$79a40a2052c9947e027843e42106f8b048$__9063044aed239061096d9060099086906004016155eb565b600080613dac8433614906565b90506000613dba85856149b9565b905060018215151480613dd55750336001600160a01b038216145b80613df85750613de3613135565b6001600160a01b0316336001600160a01b0316145b613e145760405162461bcd60e51b815260040161082990615ab2565b6040516304ecf28360e41b815273__$aabfbf51bc7bf3b8af0580fb7224204a01$__90634ecf283090613e5090600d9089908990600401615818565b60206040518083038186803b158015613e6857600080fd5b505af4158015613e7c573d6000803e3d6000fd5b505050506040513d601f19601f82011682018060405250810190613ea09190615612565b1515600114613ec15760405162461bcd60e51b815260040161082990615a60565b604051630163053760e51b815260009073__$aabfbf51bc7bf3b8af0580fb7224204a01$__90632c60a6e090613f0090600d908a908a90600401615818565b60c06040518083038186803b158015613f1857600080fd5b505af4158015613f2c573d6000803e3d6000fd5b505050506040513d601f19601f82011682018060405250810190613f509190615c11565b604051631f8195ef60e11b815290915060009073__$aabfbf51bc7bf3b8af0580fb7224204a01$__90633f032bde90613f9290600d908b908b90600401615818565b60206040518083038186803b158015613faa57600080fd5b505af4158015613fbe573d6000803e3d6000fd5b505050506040513d601f19601f82011682018060405250810190613fe29190615612565b90506001811515141561406857336001600160a01b0316826020015183600001516001600160a01b03167f47ef5674b8623b6a0bece5fae33a1a29ad79a7846a5be46a0b2e256b94f9ee318560400151866060015187608001518860a001518a604051614053959493929190615acf565b60405180910390a46001945050505050610925565b6000945050505050610925565b60405163e99a8e3960e01b815260009073__$c9b49513854812b7b6c4b448b2aa4684e3$__9063e99a8e39906140b490600f9087908790600401615818565b60206040518083038186803b1580156140cc57600080fd5b505af41580156140e0573d6000803e3d6000fd5b505050506040513d601f19601f820116820180604052508101906141049190615612565b15156001146141255760405162461bcd60e51b815260040161082990615afb565b60405163af8b7c8160e01b815260009073__$c9b49513854812b7b6c4b448b2aa4684e3$__9063af8b7c819061416490600f9088908890600401615818565b6101606040518083038186803b15801561417d57600080fd5b505af4158015614191573d6000803e3d6000fd5b505050506040513d601f19601f820116820180604052508101906141b591906159a7565b90508060c001518161014001516141cc91906157e5565b42116142035760405162461bcd60e51b815260040161082990602080825260049082015263524d313760e01b604082015260600190565b60008160a00151151560011515141561422157506080810151614228565b5060408101515b600061423b6004548361207e9190615b30565b905060006142506005548461207e9190615b30565b905060008161425f8486615b19565b6142699190615b19565b60e0860151606087015160405163071cd41560e31b815292935073__$35fde6ac6f7fb08b81f20635e2dfbb2343$__926338e6a0a8926142b0926013928990600401615b4f565b60206040518083038186803b1580156142c857600080fd5b505af41580156142dc573d6000803e3d6000fd5b505050506040513d601f19601f820116820180604052508101906143009190615612565b50610120850151606086015160405163071cd41560e31b815273__$35fde6ac6f7fb08b81f20635e2dfbb2343$__926338e6a0a8926143489260139291908890600401615b4f565b60206040518083038186803b15801561436057600080fd5b505af4158015614374573d6000803e3d6000fd5b505050506040513d601f19601f820116820180604052508101906143989190615612565b50600154606086015160405163071cd41560e31b815273__$35fde6ac6f7fb08b81f20635e2dfbb2343$__926338e6a0a8926143e6926013926001600160a01b031691908790600401615b4f565b60206040518083038186803b1580156143fe57600080fd5b505af4158015614412573d6000803e3d6000fd5b505050506040513d601f19601f820116820180604052508101906144369190615612565b5060e08501516101208601516060870151604051631a9a5d7160e21b815273__$cd3810e67fa8b653e5355050e47a521f6f$__93636a6975c493614481936011938b90600401615cb0565b60206040518083038186803b15801561449957600080fd5b505af41580156144ad573d6000803e3d6000fd5b505050506040513d601f19601f820116820180604052508101906144d19190615612565b5084516020860151604051631d865d9360e21b815273__$c9b49513854812b7b6c4b448b2aa4684e3$__92637619764c9261451392600f929190600401615818565b60206040518083038186803b15801561452b57600080fd5b505af415801561453f573d6000803e3d6000fd5b505050506040513d601f19601f820116820180604052508101906145639190615612565b5061457b8560a001518660e001518760600151614b7a565b6145938560a001518661012001518760600151614b7a565b60a085015160015460608701516145b492916001600160a01b031690614b7a565b8461010001516001600160a01b0316856020015186600001516001600160a01b03167f2941e86df5e844db000359f0e9abe470952bac636d89a010e9d5d513aad469fa886040015189606001518a608001518b60a001518c60c001518d60e001518e61012001518f6101400151604051613a9e989796959493929190615b74565b61463d61485f565b600180546001600160a01b0319166001600160a01b0392909216919091179055565b600a546060906000906001600160401b0381111561467f5761467f614f4c565b6040519080825280602002602001820160405280156146b857816020015b6146a5614e7b565b81526020019060019003908161469d5790505b50905060005b600a548110156110b957600a805460099190839081106146e0576146e0615784565b906000526020600020016040516146f791906158aa565b9081526040805191829003602090810183208383019092526001820180546001600160a01b03168452600290920180549184019161473490615875565b80601f016020809104026020016040519081016040528092919081815260200182805461476090615875565b80156147ad5780601f10614782576101008083540402835291602001916147ad565b820191906000526020600020905b81548152906001019060200180831161479057829003601f168201915b5050505050815250508282815181106147c8576147c8615784565b602002602001018190525080806147de906157fd565b9150506146be565b6147ee61485f565b6001600160a01b0381166148535760405162461bcd60e51b815260206004820152602660248201527f4f776e61626c653a206e6577206f776e657220697320746865207a65726f206160448201526564647265737360d01b6064820152608401610829565b61485c81614ae7565b50565b33614868613135565b6001600160a01b0316146116b25760405162461bcd60e51b815260206004820181905260248201527f4f776e61626c653a2063616c6c6572206973206e6f7420746865206f776e65726044820152606401610829565b6148c6611ac1565b156116b25760405162461bcd60e51b815260206004820152601060248201526f14185d5cd8589b194e881c185d5cd95960821b6044820152606401610829565b6000806149236001600160a01b038516632c63230160e11b614d58565b90506001811515141561091957604051632c63230160e11b81526000906001600160a01b038616906358c646029061495f9087906004016152ce565b60206040518083038186803b15801561497757600080fd5b505afa15801561498b573d6000803e3d6000fd5b505050506040513d601f19601f820116820180604052508101906149af9190615612565b9250610925915050565b6000806060846001600160a01b0316846040516024016149db91815260200190565b60408051601f198184030181529181526020820180516001600160e01b03166331a9108f60e11b17905251614a10919061579a565b6000604051808303816000865af19150503d8060008114614a4d576040519150601f19603f3d011682016040523d82523d6000602084013e614a52565b606091505b509092509050600182151514156116975780806020019051810190614a779190615cde565b92505050610925565b614a88614d74565b6000805460ff60a01b191690557f5db9ee0a495bf2e6ff9c91a7834c1ba4fdd244a5e8aa4e537bd38aeae4b073aa335b604051614ac591906152ce565b60405180910390a1565b60006117498284615cfb565b60006117498284615b19565b600080546001600160a01b038381166001600160a01b0319831681178455604051919092169283917f8be0079c531659141344cd1fd0a4f28419497f9722a3daafe3b4186f6b6457e09190a35050565b614b3f6148be565b6000805460ff60a01b1916600160a01b1790557f62e78cea01bee320cd4e420270b5ea74000d11b0c9f74754ebdbfc544b05a258614ab83390565b60018315151415614c895760405163b52bf90f60e01b815273__$357b636e44b746b23fdc14d0fa96b1673d$__9063dde21b3290601590859060009073__$35fde6ac6f7fb08b81f20635e2dfbb2343$__9063b52bf90f90614be59060139086908b90600401615946565b60206040518083038186803b158015614bfd57600080fd5b505af4158015614c11573d6000803e3d6000fd5b505050506040513d601f19601f82011682018060405250810190614c3591906157b6565b6040518563ffffffff1660e01b8152600401614c549493929190615d1d565b60006040518083038186803b158015614c6c57600080fd5b505af4158015614c80573d6000803e3d6000fd5b50505050505050565b60405163b52bf90f60e01b815273__$357b636e44b746b23fdc14d0fa96b1673d$__9063dde21b3290601590859073__$35fde6ac6f7fb08b81f20635e2dfbb2343$__9063b52bf90f90614ce7906013908590600090600401615946565b60206040518083038186803b158015614cff57600080fd5b505af4158015614d13573d6000803e3d6000fd5b505050506040513d601f19601f82011682018060405250810190614d3791906157b6565b60006040518563ffffffff1660e01b8152600401614c549493929190615d1d565b6000614d6383614dbf565b801561174957506117498383614df2565b614d7c611ac1565b6116b25760405162461bcd60e51b815260206004820152601460248201527314185d5cd8589b194e881b9bdd081c185d5cd95960621b6044820152606401610829565b6000614dd2826301ffc9a760e01b614df2565b80156109255750614deb826001600160e01b0319614df2565b1592915050565b604080516001600160e01b03198316602480830191909152825180830390910181526044909101909152602080820180516001600160e01b03166301ffc9a760e01b178152825160009392849283928392918391908a617530fa92503d91506000519050828015614e64575060208210155b8015614e705750600081115b979650505050505050565b60408051808201909152600081526060602082015290565b6040805161016081018252600080825260208201819052918101829052606081018290526080810182905260a0810182905260c0810182905260e081018290526101008101829052610120810182905261014081019190915290565b6040518060c0016040528060006001600160a01b03168152602001600081526020016000815260200160006001600160a01b0316815260200160008152602001600081525090565b6001600160a01b038116811461485c57600080fd5b634e487b7160e01b600052604160045260246000fd5b60405161016081016001600160401b0381118282101715614f8557614f85614f4c565b60405290565b604051601f8201601f191681016001600160401b0381118282101715614fb357614fb3614f4c565b604052919050565b60006001600160401b03821115614fd457614fd4614f4c565b50601f01601f191660200190565b60008060408385031215614ff557600080fd5b823561500081614f37565b915060208301356001600160401b0381111561501b57600080fd5b8301601f8101851361502c57600080fd5b803561503f61503a82614fbb565b614f8b565b81815286602083850101111561505457600080fd5b816020840160208301376000602083830101528093505050509250929050565b60006020828403121561508657600080fd5b813561174981614f37565b6001600160a01b03169052565b60005b838110156150b95781810151838201526020016150a1565b838111156150c8576000848401525b50505050565b600081518084526150e681602086016020860161509e565b601f01601f19169290920160200192915050565b60018060a01b038151168252600060208201516040602085015261512160408501826150ce565b949350505050565b60208152600061174960208301846150fa565b6000806040838503121561514f57600080fd5b823561515a81614f37565b946020939093013593505050565b615173828251615091565b602081015160208301526040810151604083015260608101516151996060840182615091565b506080810151608083015260a08101516151b760a084018215159052565b5060c081015160c083015260e08101516151d460e0840182615091565b50610100808201516151e882850182615091565b5050610120808201516151fd82850182615091565b505061014090810151910152565b6020808252825182820181905260009190848201906040850190845b8181101561524e5761523a838551615168565b928401926101609290920191600101615227565b50909695505050505050565b60008060006060848603121561526f57600080fd5b505081359360208301359350604090920135919050565b6000806040838503121561529957600080fd5b82356152a481614f37565b915060208301356152b481614f37565b809150509250929050565b61016081016109258284615168565b6001600160a01b0391909116815260200190565b60008060008060008060c087890312156152fb57600080fd5b863561530681614f37565b95506020870135945060408701359350606087013561532481614f37565b9598949750929560808101359460a0909101359350915050565b80516001600160a01b0390811683526020808301519084015260408083015190840152606080830151909116908301526080808201519083015260a090810151910152565b6020808252825182820181905260009190848201906040850190845b8181101561524e576153b283855161533e565b9284019260c0929092019160010161539f565b6000806000606084860312156153da57600080fd5b83356153e581614f37565b92506020840135915060408401356153fc81614f37565b809150509250925092565b60c08101610925828461533e565b6000602080830181845280855180835260408601915060408160051b870101925083870160005b8281101561546a57603f198886030184526154588583516150fa565b9450928501929085019060010161543c565b5092979650505050505050565b602080825282518282018190526000919060409081850190868401855b828110156154dc57815180516001600160a01b039081168652878201518116888701528682015116868601526060908101519085015260809093019290850190600101615494565b5091979650505050505050565b6000602080830181845280855180835260408601915060408160051b870101925083870160005b8281101561546a57603f1988860301845261552c8583516150fa565b94509285019290850190600101615510565b602080825282518282018190526000919060409081850190868401855b828110156154dc57815180516001600160a01b039081168652878201511687860152850151858501526060909301929085019060010161555b565b6000602080830181845280855180835260408601915060408160051b870101925083870160005b8281101561546a57603f198886030184526155d98583516150fa565b945092850192908501906001016155bd565b9182526001600160a01b0316602082015260400190565b8051801515811461199057600080fd5b60006020828403121561562457600080fd5b61174982615602565b602080825260039082015262524d3160e81b604082015260600190565b8381526001600160a01b0383166020820152606060408201819052600090615674908301846150ce565b95945050505050565b60208152600061174960208301846150ce565b805161199081614f37565b6000604082840312156156ad57600080fd5b604080519081016001600160401b0380821183831017156156d0576156d0614f4c565b81604052829350845191506156e482614f37565b908252602084015190808211156156fa57600080fd5b508301601f8101851361570c57600080fd5b805161571a61503a82614fbb565b81815286602083850101111561572f57600080fd5b61574082602083016020860161509e565b8060208501525050505092915050565b60006020828403121561576257600080fd5b81516001600160401b0381111561577857600080fd5b6151218482850161569b565b634e487b7160e01b600052603260045260246000fd5b600082516157ac81846020870161509e565b9190910192915050565b6000602082840312156157c857600080fd5b5051919050565b634e487b7160e01b600052601160045260246000fd5b600082198211156157f8576157f86157cf565b500190565b6000600019821415615811576158116157cf565b5060010190565b9283526001600160a01b03919091166020830152604082015260600190565b9687526001600160a01b03958616602088015260408701949094526060860192909252909216608084015260a083019190915260c082015260e00190565b600181811c9082168061588957607f821691505b602082108114156110b957634e487b7160e01b600052602260045260246000fd5b600080835481600182811c9150808316806158c657607f831692505b60208084108214156158e657634e487b7160e01b86526022600452602486fd5b8180156158fa576001811461590b57615938565b60ff19861689528489019650615938565b60008a81526020902060005b868110156159305781548b820152908501908301615917565b505084890196505b509498975050505050505050565b9283526001600160a01b03918216602084015216604082015260600190565b6001600160a01b039384168152919092166020820152604081019190915260600190565b6020808252600490820152630524d32360e41b604082015260600190565b600061016082840312156159ba57600080fd5b6159c2614f62565b6159cb83615690565b815260208301516020820152604083015160408201526159ed60608401615690565b606082015260808301516080820152615a0860a08401615602565b60a082015260c083015160c0820152615a2360e08401615690565b60e0820152610100615a36818501615690565b90820152610120615a48848201615690565b90820152610140928301519281019290925250919050565b602080825260039082015262524d3360e81b604082015260600190565b600080600060608486031215615a9257600080fd5b615a9b84615602565b925060208401519150604084015190509250925092565b602080825260039082015262524d3560e81b604082015260600190565b9485526001600160a01b0393841660208601526040850192909252606084015216608082015260a00190565b6020808252600490820152630524d31360e41b604082015260600190565b600082821015615b2b57615b2b6157cf565b500390565b6000816000190483118215151615615b4a57615b4a6157cf565b500290565b9384526001600160a01b03928316602085015291166040830152606082015260800190565b9788526001600160a01b039687166020890152604088019590955292151560608701526080860191909152831660a085015290911660c083015260e08201526101000190565b602080825260039082015262524d3760e81b604082015260600190565b60208082526003908201526229269b60e91b604082015260600190565b602080825260039082015262524d3960e81b604082015260600190565b600060c08284031215615c2357600080fd5b60405160c081016001600160401b0381118282101715615c4557615c45614f4c565b6040528251615c5381614f37565b8082525060208301516020820152604083015160408201526060830151615c7981614f37565b60608201526080838101519082015260a0928301519281019290925250919050565b82815261018081016117496020830184615168565b9485526001600160a01b03938416602086015291831660408501529091166060830152608082015260a00190565b600060208284031215615cf057600080fd5b815161174981614f37565b600082615d1857634e487b7160e01b600052601260045260246000fd5b500490565b9384526001600160a01b03929092166020840152604083015260608201526080019056fefe632cd15df82b5e105c28c0d0da9eb0228667912a4b1e430151d7c0d9227759a2646970667358221220b4b8ef6a94e91a79cef8074f1ee6b1652b2a937926246e3105681cd6ce637c7164736f6c63430008090033",
  "linkReferences": {
    "contracts/balanceSnapshotLib.sol": {
      "balanceSnapshotLib": [
        {
          "length": 20,
          "start": 6863
        },
        {
          "length": 20,
          "start": 7026
        },
        {
          "length": 20,
          "start": 13883
        },
        {
          "length": 20,
          "start": 19640
        },
        {
          "length": 20,
          "start": 19900
        }
      ]
    },
    "contracts/iterableMapLib.sol": {
      "accountBalanceIterableMap": [
        {
          "length": 20,
          "start": 5196
        },
        {
          "length": 20,
          "start": 5861
        },
        {
          "length": 20,
          "start": 8459
        },
        {
          "length": 20,
          "start": 8691
        },
        {
          "length": 20,
          "start": 8841
        },
        {
          "length": 20,
          "start": 8990
        },
        {
          "length": 20,
          "start": 10483
        },
        {
          "length": 20,
          "start": 17321
        },
        {
          "length": 20,
          "start": 17471
        },
        {
          "length": 20,
          "start": 17620
        },
        {
          "length": 20,
          "start": 19676
        },
        {
          "length": 20,
          "start": 19933
        }
      ],
      "collectionDataIterableMap": [
        {
          "length": 20,
          "start": 2229
        },
        {
          "length": 20,
          "start": 2408
        },
        {
          "length": 20,
          "start": 3489
        },
        {
          "length": 20,
          "start": 3683
        },
        {
          "length": 20,
          "start": 13320
        },
        {
          "length": 20,
          "start": 13494
        },
        {
          "length": 20,
          "start": 13642
        },
        {
          "length": 20,
          "start": 16024
        }
      ],
      "pendingRentFeeIterableMap": [
        {
          "length": 20,
          "start": 11776
        },
        {
          "length": 20,
          "start": 15086
        },
        {
          "length": 20,
          "start": 17786
        }
      ],
      "registerDataIterableMap": [
        {
          "length": 20,
          "start": 3239
        },
        {
          "length": 20,
          "start": 3951
        },
        {
          "length": 20,
          "start": 7271
        },
        {
          "length": 20,
          "start": 7633
        },
        {
          "length": 20,
          "start": 10633
        },
        {
          "length": 20,
          "start": 11164
        },
        {
          "length": 20,
          "start": 11362
        },
        {
          "length": 20,
          "start": 12037
        },
        {
          "length": 20,
          "start": 13942
        },
        {
          "length": 20,
          "start": 14528
        },
        {
          "length": 20,
          "start": 16199
        },
        {
          "length": 20,
          "start": 16375
        },
        {
          "length": 20,
          "start": 16521
        }
      ],
      "rentDataIterableMap": [
        {
          "length": 20,
          "start": 6127
        },
        {
          "length": 20,
          "start": 7915
        },
        {
          "length": 20,
          "start": 8163
        },
        {
          "length": 20,
          "start": 9147
        },
        {
          "length": 20,
          "start": 9294
        },
        {
          "length": 20,
          "start": 10993
        },
        {
          "length": 20,
          "start": 11625
        },
        {
          "length": 20,
          "start": 14286
        },
        {
          "length": 20,
          "start": 14937
        },
        {
          "length": 20,
          "start": 16811
        },
        {
          "length": 20,
          "start": 16987
        },
        {
          "length": 20,
          "start": 17932
        }
      ],
      "serviceDataIterableMap": [
        {
          "length": 20,
          "start": 2662
        },
        {
          "length": 20,
          "start": 4711
        },
        {
          "length": 20,
          "start": 4881
        },
        {
          "length": 20,
          "start": 6285
        },
        {
          "length": 20,
          "start": 6459
        },
        {
          "length": 20,
          "start": 6607
        },
        {
          "length": 20,
          "start": 10806
        },
        {
          "length": 20,
          "start": 14115
        }
      ],
      "tokenDataIterableMap": [
        {
          "length": 20,
          "start": 7459
        },
        {
          "length": 20,
          "start": 9942
        },
        {
          "length": 20,
          "start": 10116
        },
        {
          "length": 20,
          "start": 10264
        },
        {
          "length": 20,
          "start": 15353
        },
        {
          "length": 20,
          "start": 15523
        }
      ]
    }
  },
  "deployedLinkReferences": {
    "contracts/balanceSnapshotLib.sol": {
      "balanceSnapshotLib": [
        {
          "length": 20,
          "start": 6571
        },
        {
          "length": 20,
          "start": 6734
        },
        {
          "length": 20,
          "start": 13591
        },
        {
          "length": 20,
          "start": 19348
        },
        {
          "length": 20,
          "start": 19608
        }
      ]
    },
    "contracts/iterableMapLib.sol": {
      "accountBalanceIterableMap": [
        {
          "length": 20,
          "start": 4904
        },
        {
          "length": 20,
          "start": 5569
        },
        {
          "length": 20,
          "start": 8167
        },
        {
          "length": 20,
          "start": 8399
        },
        {
          "length": 20,
          "start": 8549
        },
        {
          "length": 20,
          "start": 8698
        },
        {
          "length": 20,
          "start": 10191
        },
        {
          "length": 20,
          "start": 17029
        },
        {
          "length": 20,
          "start": 17179
        },
        {
          "length": 20,
          "start": 17328
        },
        {
          "length": 20,
          "start": 19384
        },
        {
          "length": 20,
          "start": 19641
        }
      ],
      "collectionDataIterableMap": [
        {
          "length": 20,
          "start": 1937
        },
        {
          "length": 20,
          "start": 2116
        },
        {
          "length": 20,
          "start": 3197
        },
        {
          "length": 20,
          "start": 3391
        },
        {
          "length": 20,
          "start": 13028
        },
        {
          "length": 20,
          "start": 13202
        },
        {
          "length": 20,
          "start": 13350
        },
        {
          "length": 20,
          "start": 15732
        }
      ],
      "pendingRentFeeIterableMap": [
        {
          "length": 20,
          "start": 11484
        },
        {
          "length": 20,
          "start": 14794
        },
        {
          "length": 20,
          "start": 17494
        }
      ],
      "registerDataIterableMap": [
        {
          "length": 20,
          "start": 2947
        },
        {
          "length": 20,
          "start": 3659
        },
        {
          "length": 20,
          "start": 6979
        },
        {
          "length": 20,
          "start": 7341
        },
        {
          "length": 20,
          "start": 10341
        },
        {
          "length": 20,
          "start": 10872
        },
        {
          "length": 20,
          "start": 11070
        },
        {
          "length": 20,
          "start": 11745
        },
        {
          "length": 20,
          "start": 13650
        },
        {
          "length": 20,
          "start": 14236
        },
        {
          "length": 20,
          "start": 15907
        },
        {
          "length": 20,
          "start": 16083
        },
        {
          "length": 20,
          "start": 16229
        }
      ],
      "rentDataIterableMap": [
        {
          "length": 20,
          "start": 5835
        },
        {
          "length": 20,
          "start": 7623
        },
        {
          "length": 20,
          "start": 7871
        },
        {
          "length": 20,
          "start": 8855
        },
        {
          "length": 20,
          "start": 9002
        },
        {
          "length": 20,
          "start": 10701
        },
        {
          "length": 20,
          "start": 11333
        },
        {
          "length": 20,
          "start": 13994
        },
        {
          "length": 20,
          "start": 14645
        },
        {
          "length": 20,
          "start": 16519
        },
        {
          "length": 20,
          "start": 16695
        },
        {
          "length": 20,
          "start": 17640
        }
      ],
      "serviceDataIterableMap": [
        {
          "length": 20,
          "start": 2370
        },
        {
          "length": 20,
          "start": 4419
        },
        {
          "length": 20,
          "start": 4589
        },
        {
          "length": 20,
          "start": 5993
        },
        {
          "length": 20,
          "start": 6167
        },
        {
          "length": 20,
          "start": 6315
        },
        {
          "length": 20,
          "start": 10514
        },
        {
          "length": 20,
          "start": 13823
        }
      ],
      "tokenDataIterableMap": [
        {
          "length": 20,
          "start": 7167
        },
        {
          "length": 20,
          "start": 9650
        },
        {
          "length": 20,
          "start": 9824
        },
        {
          "length": 20,
          "start": 9972
        },
        {
          "length": 20,
          "start": 15061
        },
        {
          "length": 20,
          "start": 15231
        }
      ]
    }
  }
}