{
  "_format": "hh-sol-artifact-1",
  "contractName": "rentMarket",
  "sourceName": "contracts/rentMarket.sol",
  "abi": [
    {
      "inputs": [
        {
          "internalType": "bool",
          "name": "exclusive_",
          "type": "bool"
        }
      ],
      "stateMutability": "nonpayable",
      "type": "constructor"
    },
    {
      "anonymous": false,
      "inputs": [
        {
          "indexed": true,
          "internalType": "address",
          "name": "nftAddress",
          "type": "address"
        },
        {
          "indexed": true,
          "internalType": "uint256",
          "name": "tokenId",
          "type": "uint256"
        },
        {
          "indexed": false,
          "internalType": "uint256",
          "name": "rentFee",
          "type": "uint256"
        },
        {
          "indexed": false,
          "internalType": "address",
          "name": "feeTokenAddress",
          "type": "address"
        },
        {
          "indexed": false,
          "internalType": "uint256",
          "name": "rentFeeByToken",
          "type": "uint256"
        },
        {
          "indexed": false,
          "internalType": "uint256",
          "name": "rentDuration",
          "type": "uint256"
        },
        {
          "indexed": false,
          "internalType": "address",
          "name": "NFTOwnerAddress",
          "type": "address"
        },
        {
          "indexed": true,
          "internalType": "address",
          "name": "changerAddress",
          "type": "address"
        }
      ],
      "name": "ChangeNFT",
      "type": "event"
    },
    {
      "anonymous": false,
      "inputs": [
        {
          "indexed": true,
          "internalType": "address",
          "name": "sender",
          "type": "address"
        }
      ],
      "name": "Fallback",
      "type": "event"
    },
    {
      "anonymous": false,
      "inputs": [
        {
          "indexed": true,
          "internalType": "address",
          "name": "previousOwner",
          "type": "address"
        },
        {
          "indexed": true,
          "internalType": "address",
          "name": "newOwner",
          "type": "address"
        }
      ],
      "name": "OwnershipTransferred",
      "type": "event"
    },
    {
      "anonymous": false,
      "inputs": [
        {
          "indexed": false,
          "internalType": "address",
          "name": "account",
          "type": "address"
        }
      ],
      "name": "Paused",
      "type": "event"
    },
    {
      "anonymous": false,
      "inputs": [
        {
          "indexed": true,
          "internalType": "address",
          "name": "sender",
          "type": "address"
        },
        {
          "indexed": true,
          "internalType": "uint256",
          "name": "value",
          "type": "uint256"
        }
      ],
      "name": "Receive",
      "type": "event"
    },
    {
      "anonymous": false,
      "inputs": [
        {
          "indexed": true,
          "internalType": "address",
          "name": "collectionAddress",
          "type": "address"
        },
        {
          "indexed": false,
          "internalType": "string",
          "name": "uri",
          "type": "string"
        }
      ],
      "name": "RegisterCollection",
      "type": "event"
    },
    {
      "anonymous": false,
      "inputs": [
        {
          "indexed": true,
          "internalType": "address",
          "name": "nftAddress",
          "type": "address"
        },
        {
          "indexed": true,
          "internalType": "uint256",
          "name": "tokenId",
          "type": "uint256"
        },
        {
          "indexed": false,
          "internalType": "uint256",
          "name": "rentFee",
          "type": "uint256"
        },
        {
          "indexed": false,
          "internalType": "uint256",
          "name": "rentDuration",
          "type": "uint256"
        },
        {
          "indexed": true,
          "internalType": "address",
          "name": "NFTOwnerAddress",
          "type": "address"
        }
      ],
      "name": "RegisterNFT",
      "type": "event"
    },
    {
      "anonymous": false,
      "inputs": [
        {
          "indexed": true,
          "internalType": "address",
          "name": "serviceAddress",
          "type": "address"
        },
        {
          "indexed": false,
          "internalType": "string",
          "name": "uri",
          "type": "string"
        }
      ],
      "name": "RegisterService",
      "type": "event"
    },
    {
      "anonymous": false,
      "inputs": [
        {
          "indexed": true,
          "internalType": "address",
          "name": "tokenAddress",
          "type": "address"
        },
        {
          "indexed": false,
          "internalType": "string",
          "name": "name",
          "type": "string"
        }
      ],
      "name": "RegisterToken",
      "type": "event"
    },
    {
      "anonymous": false,
      "inputs": [
        {
          "indexed": true,
          "internalType": "address",
          "name": "nftAddress",
          "type": "address"
        },
        {
          "indexed": true,
          "internalType": "uint256",
          "name": "tokenId",
          "type": "uint256"
        },
        {
          "indexed": false,
          "internalType": "uint256",
          "name": "rentFee",
          "type": "uint256"
        },
        {
          "indexed": false,
          "internalType": "address",
          "name": "feeTokenAddress",
          "type": "address"
        },
        {
          "indexed": false,
          "internalType": "uint256",
          "name": "rentFeeByToken",
          "type": "uint256"
        },
        {
          "indexed": false,
          "internalType": "bool",
          "name": "isRentByToken",
          "type": "bool"
        },
        {
          "indexed": false,
          "internalType": "uint256",
          "name": "rentDuration",
          "type": "uint256"
        },
        {
          "indexed": false,
          "internalType": "address",
          "name": "renterAddress",
          "type": "address"
        },
        {
          "indexed": true,
          "internalType": "address",
          "name": "renteeAddress",
          "type": "address"
        },
        {
          "indexed": false,
          "internalType": "address",
          "name": "serviceAddress",
          "type": "address"
        },
        {
          "indexed": false,
          "internalType": "uint256",
          "name": "rentStartTimestamp",
          "type": "uint256"
        }
      ],
      "name": "RentNFT",
      "type": "event"
    },
    {
      "anonymous": false,
      "inputs": [
        {
          "indexed": true,
          "internalType": "address",
          "name": "nftAddress",
          "type": "address"
        },
        {
          "indexed": true,
          "internalType": "uint256",
          "name": "tokenId",
          "type": "uint256"
        },
        {
          "indexed": false,
          "internalType": "uint256",
          "name": "rentFee",
          "type": "uint256"
        },
        {
          "indexed": false,
          "internalType": "address",
          "name": "feeTokenAddress",
          "type": "address"
        },
        {
          "indexed": false,
          "internalType": "uint256",
          "name": "rentFeeByToken",
          "type": "uint256"
        },
        {
          "indexed": false,
          "internalType": "bool",
          "name": "isRentByToken",
          "type": "bool"
        },
        {
          "indexed": false,
          "internalType": "uint256",
          "name": "rentDuration",
          "type": "uint256"
        },
        {
          "indexed": false,
          "internalType": "address",
          "name": "renterAddress",
          "type": "address"
        },
        {
          "indexed": true,
          "internalType": "address",
          "name": "renteeAddress",
          "type": "address"
        },
        {
          "indexed": false,
          "internalType": "address",
          "name": "serviceAddress",
          "type": "address"
        },
        {
          "indexed": false,
          "internalType": "uint256",
          "name": "rentStartTimestamp",
          "type": "uint256"
        }
      ],
      "name": "SettleRentData",
      "type": "event"
    },
    {
      "anonymous": false,
      "inputs": [
        {
          "indexed": false,
          "internalType": "address",
          "name": "account",
          "type": "address"
        }
      ],
      "name": "Unpaused",
      "type": "event"
    },
    {
      "anonymous": false,
      "inputs": [
        {
          "indexed": true,
          "internalType": "address",
          "name": "collectionAddress",
          "type": "address"
        },
        {
          "indexed": false,
          "internalType": "string",
          "name": "uri",
          "type": "string"
        }
      ],
      "name": "UnregisterCollection",
      "type": "event"
    },
    {
      "anonymous": false,
      "inputs": [
        {
          "indexed": true,
          "internalType": "address",
          "name": "nftAddress",
          "type": "address"
        },
        {
          "indexed": true,
          "internalType": "uint256",
          "name": "tokenId",
          "type": "uint256"
        },
        {
          "indexed": false,
          "internalType": "uint256",
          "name": "rentFee",
          "type": "uint256"
        },
        {
          "indexed": false,
          "internalType": "address",
          "name": "feeTokenAddress",
          "type": "address"
        },
        {
          "indexed": false,
          "internalType": "uint256",
          "name": "rentFeeByToken",
          "type": "uint256"
        },
        {
          "indexed": false,
          "internalType": "uint256",
          "name": "rentDuration",
          "type": "uint256"
        },
        {
          "indexed": false,
          "internalType": "address",
          "name": "NFTOwnerAddress",
          "type": "address"
        },
        {
          "indexed": true,
          "internalType": "address",
          "name": "UnregisterAddress",
          "type": "address"
        }
      ],
      "name": "UnregisterNFT",
      "type": "event"
    },
    {
      "anonymous": false,
      "inputs": [
        {
          "indexed": true,
          "internalType": "address",
          "name": "serviceAddress",
          "type": "address"
        },
        {
          "indexed": false,
          "internalType": "string",
          "name": "uri",
          "type": "string"
        }
      ],
      "name": "UnregisterService",
      "type": "event"
    },
    {
      "anonymous": false,
      "inputs": [
        {
          "indexed": true,
          "internalType": "address",
          "name": "tokenAddress",
          "type": "address"
        },
        {
          "indexed": false,
          "internalType": "string",
          "name": "name",
          "type": "string"
        }
      ],
      "name": "UnregisterToken",
      "type": "event"
    },
    {
      "anonymous": false,
      "inputs": [
        {
          "indexed": true,
          "internalType": "address",
          "name": "nftAddress",
          "type": "address"
        },
        {
          "indexed": true,
          "internalType": "uint256",
          "name": "tokenId",
          "type": "uint256"
        },
        {
          "indexed": false,
          "internalType": "uint256",
          "name": "rentFee",
          "type": "uint256"
        },
        {
          "indexed": false,
          "internalType": "address",
          "name": "feeTokenAddress",
          "type": "address"
        },
        {
          "indexed": false,
          "internalType": "uint256",
          "name": "rentFeeByToken",
          "type": "uint256"
        },
        {
          "indexed": false,
          "internalType": "bool",
          "name": "isRentByToken",
          "type": "bool"
        },
        {
          "indexed": false,
          "internalType": "uint256",
          "name": "rentDuration",
          "type": "uint256"
        },
        {
          "indexed": false,
          "internalType": "address",
          "name": "renterAddress",
          "type": "address"
        },
        {
          "indexed": true,
          "internalType": "address",
          "name": "renteeAddress",
          "type": "address"
        },
        {
          "indexed": false,
          "internalType": "address",
          "name": "serviceAddress",
          "type": "address"
        },
        {
          "indexed": false,
          "internalType": "uint256",
          "name": "rentStartTimestamp",
          "type": "uint256"
        }
      ],
      "name": "UnrentNFT",
      "type": "event"
    },
    {
      "anonymous": false,
      "inputs": [
        {
          "indexed": true,
          "internalType": "address",
          "name": "recipient",
          "type": "address"
        },
        {
          "indexed": true,
          "internalType": "address",
          "name": "tokenAddress",
          "type": "address"
        },
        {
          "indexed": true,
          "internalType": "uint256",
          "name": "amount",
          "type": "uint256"
        }
      ],
      "name": "WithdrawMyBalance",
      "type": "event"
    },
    {
      "stateMutability": "payable",
      "type": "fallback"
    },
    {
      "inputs": [
        {
          "internalType": "address",
          "name": "nftAddress",
          "type": "address"
        },
        {
          "internalType": "uint256",
          "name": "tokenId",
          "type": "uint256"
        },
        {
          "internalType": "uint256",
          "name": "rentFee",
          "type": "uint256"
        },
        {
          "internalType": "address",
          "name": "feeTokenAddress",
          "type": "address"
        },
        {
          "internalType": "uint256",
          "name": "rentFeeByToken",
          "type": "uint256"
        },
        {
          "internalType": "uint256",
          "name": "rentDuration",
          "type": "uint256"
        }
      ],
      "name": "changeNFT",
      "outputs": [
        {
          "internalType": "bool",
          "name": "success",
          "type": "bool"
        }
      ],
      "stateMutability": "nonpayable",
      "type": "function"
    },
    {
      "inputs": [],
      "name": "exclusive",
      "outputs": [
        {
          "internalType": "bool",
          "name": "",
          "type": "bool"
        }
      ],
      "stateMutability": "view",
      "type": "function"
    },
    {
      "inputs": [],
      "name": "getAllAccountBalance",
      "outputs": [
        {
          "components": [
            {
              "internalType": "address",
              "name": "accountAddress",
              "type": "address"
            },
            {
              "internalType": "address",
              "name": "tokenAddress",
              "type": "address"
            },
            {
              "internalType": "uint256",
              "name": "amount",
              "type": "uint256"
            }
          ],
          "internalType": "struct accountBalanceIterableMap.accountBalance[]",
          "name": "",
          "type": "tuple[]"
        }
      ],
      "stateMutability": "view",
      "type": "function"
    },
    {
      "inputs": [],
      "name": "getAllCollection",
      "outputs": [
        {
          "components": [
            {
              "internalType": "address",
              "name": "collectionAddress",
              "type": "address"
            },
            {
              "internalType": "string",
              "name": "uri",
              "type": "string"
            }
          ],
          "internalType": "struct collectionDataIterableMap.collectionData[]",
          "name": "",
          "type": "tuple[]"
        }
      ],
      "stateMutability": "view",
      "type": "function"
    },
    {
      "inputs": [],
      "name": "getAllPendingRentFee",
      "outputs": [
        {
          "components": [
            {
              "internalType": "address",
              "name": "renterAddress",
              "type": "address"
            },
            {
              "internalType": "address",
              "name": "serviceAddress",
              "type": "address"
            },
            {
              "internalType": "address",
              "name": "feeTokenAddress",
              "type": "address"
            },
            {
              "internalType": "uint256",
              "name": "amount",
              "type": "uint256"
            }
          ],
          "internalType": "struct pendingRentFeeIterableMap.pendingRentFee[]",
          "name": "",
          "type": "tuple[]"
        }
      ],
      "stateMutability": "view",
      "type": "function"
    },
    {
      "inputs": [],
      "name": "getAllRegisterData",
      "outputs": [
        {
          "components": [
            {
              "internalType": "address",
              "name": "nftAddress",
              "type": "address"
            },
            {
              "internalType": "uint256",
              "name": "tokenId",
              "type": "uint256"
            },
            {
              "internalType": "uint256",
              "name": "rentFee",
              "type": "uint256"
            },
            {
              "internalType": "address",
              "name": "feeTokenAddress",
              "type": "address"
            },
            {
              "internalType": "uint256",
              "name": "rentFeeByToken",
              "type": "uint256"
            },
            {
              "internalType": "uint256",
              "name": "rentDuration",
              "type": "uint256"
            }
          ],
          "internalType": "struct registerDataIterableMap.registerData[]",
          "name": "",
          "type": "tuple[]"
        }
      ],
      "stateMutability": "view",
      "type": "function"
    },
    {
      "inputs": [],
      "name": "getAllRentData",
      "outputs": [
        {
          "components": [
            {
              "internalType": "address",
              "name": "nftAddress",
              "type": "address"
            },
            {
              "internalType": "uint256",
              "name": "tokenId",
              "type": "uint256"
            },
            {
              "internalType": "uint256",
              "name": "rentFee",
              "type": "uint256"
            },
            {
              "internalType": "address",
              "name": "feeTokenAddress",
              "type": "address"
            },
            {
              "internalType": "uint256",
              "name": "rentFeeByToken",
              "type": "uint256"
            },
            {
              "internalType": "bool",
              "name": "isRentByToken",
              "type": "bool"
            },
            {
              "internalType": "uint256",
              "name": "rentDuration",
              "type": "uint256"
            },
            {
              "internalType": "address",
              "name": "renterAddress",
              "type": "address"
            },
            {
              "internalType": "address",
              "name": "renteeAddress",
              "type": "address"
            },
            {
              "internalType": "address",
              "name": "serviceAddress",
              "type": "address"
            },
            {
              "internalType": "uint256",
              "name": "rentStartTimestamp",
              "type": "uint256"
            }
          ],
          "internalType": "struct rentDataIterableMap.rentData[]",
          "name": "",
          "type": "tuple[]"
        }
      ],
      "stateMutability": "view",
      "type": "function"
    },
    {
      "inputs": [],
      "name": "getAllService",
      "outputs": [
        {
          "components": [
            {
              "internalType": "address",
              "name": "serviceAddress",
              "type": "address"
            },
            {
              "internalType": "string",
              "name": "uri",
              "type": "string"
            }
          ],
          "internalType": "struct serviceDataIterableMap.serviceData[]",
          "name": "",
          "type": "tuple[]"
        }
      ],
      "stateMutability": "view",
      "type": "function"
    },
    {
      "inputs": [],
      "name": "getAllToken",
      "outputs": [
        {
          "components": [
            {
              "internalType": "address",
              "name": "tokenAddress",
              "type": "address"
            },
            {
              "internalType": "string",
              "name": "name",
              "type": "string"
            }
          ],
          "internalType": "struct tokenDataIterableMap.tokenData[]",
          "name": "",
          "type": "tuple[]"
        }
      ],
      "stateMutability": "view",
      "type": "function"
    },
    {
      "inputs": [
        {
          "internalType": "address",
          "name": "collectionAddress",
          "type": "address"
        }
      ],
      "name": "getCollection",
      "outputs": [
        {
          "components": [
            {
              "internalType": "address",
              "name": "collectionAddress",
              "type": "address"
            },
            {
              "internalType": "string",
              "name": "uri",
              "type": "string"
            }
          ],
          "internalType": "struct collectionDataIterableMap.collectionData",
          "name": "",
          "type": "tuple"
        }
      ],
      "stateMutability": "view",
      "type": "function"
    },
    {
      "inputs": [],
      "name": "getFeeQuota",
      "outputs": [
        {
          "internalType": "uint256",
          "name": "renterFeeQuota",
          "type": "uint256"
        },
        {
          "internalType": "uint256",
          "name": "serviceFeeQuota",
          "type": "uint256"
        },
        {
          "internalType": "uint256",
          "name": "marketFeeQuota",
          "type": "uint256"
        }
      ],
      "stateMutability": "view",
      "type": "function"
    },
    {
      "inputs": [],
      "name": "getMarketShareAddress",
      "outputs": [
        {
          "internalType": "address",
          "name": "shareAddress",
          "type": "address"
        }
      ],
      "stateMutability": "view",
      "type": "function"
    },
    {
      "inputs": [
        {
          "internalType": "address",
          "name": "tokenAddress",
          "type": "address"
        }
      ],
      "name": "getMyBalance",
      "outputs": [
        {
          "internalType": "uint256",
          "name": "balance",
          "type": "uint256"
        }
      ],
      "stateMutability": "view",
      "type": "function"
    },
    {
      "inputs": [
        {
          "internalType": "address",
          "name": "nftAddress",
          "type": "address"
        },
        {
          "internalType": "uint256",
          "name": "tokenId",
          "type": "uint256"
        }
      ],
      "name": "getRegisterData",
      "outputs": [
        {
          "components": [
            {
              "internalType": "address",
              "name": "nftAddress",
              "type": "address"
            },
            {
              "internalType": "uint256",
              "name": "tokenId",
              "type": "uint256"
            },
            {
              "internalType": "uint256",
              "name": "rentFee",
              "type": "uint256"
            },
            {
              "internalType": "address",
              "name": "feeTokenAddress",
              "type": "address"
            },
            {
              "internalType": "uint256",
              "name": "rentFeeByToken",
              "type": "uint256"
            },
            {
              "internalType": "uint256",
              "name": "rentDuration",
              "type": "uint256"
            }
          ],
          "internalType": "struct registerDataIterableMap.registerData",
          "name": "",
          "type": "tuple"
        }
      ],
      "stateMutability": "view",
      "type": "function"
    },
    {
      "inputs": [
        {
          "internalType": "address",
          "name": "nftAddress",
          "type": "address"
        },
        {
          "internalType": "uint256",
          "name": "tokenId",
          "type": "uint256"
        }
      ],
      "name": "getRentData",
      "outputs": [
        {
          "components": [
            {
              "internalType": "address",
              "name": "nftAddress",
              "type": "address"
            },
            {
              "internalType": "uint256",
              "name": "tokenId",
              "type": "uint256"
            },
            {
              "internalType": "uint256",
              "name": "rentFee",
              "type": "uint256"
            },
            {
              "internalType": "address",
              "name": "feeTokenAddress",
              "type": "address"
            },
            {
              "internalType": "uint256",
              "name": "rentFeeByToken",
              "type": "uint256"
            },
            {
              "internalType": "bool",
              "name": "isRentByToken",
              "type": "bool"
            },
            {
              "internalType": "uint256",
              "name": "rentDuration",
              "type": "uint256"
            },
            {
              "internalType": "address",
              "name": "renterAddress",
              "type": "address"
            },
            {
              "internalType": "address",
              "name": "renteeAddress",
              "type": "address"
            },
            {
              "internalType": "address",
              "name": "serviceAddress",
              "type": "address"
            },
            {
              "internalType": "uint256",
              "name": "rentStartTimestamp",
              "type": "uint256"
            }
          ],
          "internalType": "struct rentDataIterableMap.rentData",
          "name": "",
          "type": "tuple"
        }
      ],
      "stateMutability": "view",
      "type": "function"
    },
    {
      "inputs": [
        {
          "internalType": "address",
          "name": "serviceAddress",
          "type": "address"
        }
      ],
      "name": "getService",
      "outputs": [
        {
          "components": [
            {
              "internalType": "address",
              "name": "serviceAddress",
              "type": "address"
            },
            {
              "internalType": "string",
              "name": "uri",
              "type": "string"
            }
          ],
          "internalType": "struct serviceDataIterableMap.serviceData",
          "name": "",
          "type": "tuple"
        }
      ],
      "stateMutability": "view",
      "type": "function"
    },
    {
      "inputs": [
        {
          "internalType": "address",
          "name": "account",
          "type": "address"
        }
      ],
      "name": "isOwnerOrRenter",
      "outputs": [
        {
          "internalType": "bool",
          "name": "success",
          "type": "bool"
        }
      ],
      "stateMutability": "view",
      "type": "function"
    },
    {
      "inputs": [],
      "name": "owner",
      "outputs": [
        {
          "internalType": "address",
          "name": "",
          "type": "address"
        }
      ],
      "stateMutability": "view",
      "type": "function"
    },
    {
      "inputs": [],
      "name": "pause",
      "outputs": [],
      "stateMutability": "nonpayable",
      "type": "function"
    },
    {
      "inputs": [],
      "name": "paused",
      "outputs": [
        {
          "internalType": "bool",
          "name": "",
          "type": "bool"
        }
      ],
      "stateMutability": "view",
      "type": "function"
    },
    {
      "inputs": [
        {
          "internalType": "address",
          "name": "collectionAddress",
          "type": "address"
        },
        {
          "internalType": "string",
          "name": "uri",
          "type": "string"
        }
      ],
      "name": "registerCollection",
      "outputs": [
        {
          "internalType": "bool",
          "name": "success",
          "type": "bool"
        }
      ],
      "stateMutability": "nonpayable",
      "type": "function"
    },
    {
      "inputs": [
        {
          "internalType": "address",
          "name": "nftAddress",
          "type": "address"
        },
        {
          "internalType": "uint256",
          "name": "tokenId",
          "type": "uint256"
        }
      ],
      "name": "registerNFT",
      "outputs": [
        {
          "internalType": "bool",
          "name": "success",
          "type": "bool"
        }
      ],
      "stateMutability": "nonpayable",
      "type": "function"
    },
    {
      "inputs": [
        {
          "internalType": "address",
          "name": "serviceAddress",
          "type": "address"
        },
        {
          "internalType": "string",
          "name": "uri",
          "type": "string"
        }
      ],
      "name": "registerService",
      "outputs": [
        {
          "internalType": "bool",
          "name": "success",
          "type": "bool"
        }
      ],
      "stateMutability": "nonpayable",
      "type": "function"
    },
    {
      "inputs": [
        {
          "internalType": "address",
          "name": "tokenAddress",
          "type": "address"
        },
        {
          "internalType": "string",
          "name": "name",
          "type": "string"
        }
      ],
      "name": "registerToken",
      "outputs": [
        {
          "internalType": "bool",
          "name": "success",
          "type": "bool"
        }
      ],
      "stateMutability": "nonpayable",
      "type": "function"
    },
    {
      "inputs": [],
      "name": "renounceOwnership",
      "outputs": [],
      "stateMutability": "nonpayable",
      "type": "function"
    },
    {
      "inputs": [
        {
          "internalType": "address",
          "name": "nftAddress",
          "type": "address"
        },
        {
          "internalType": "uint256",
          "name": "tokenId",
          "type": "uint256"
        },
        {
          "internalType": "address",
          "name": "serviceAddress",
          "type": "address"
        }
      ],
      "name": "rentNFT",
      "outputs": [
        {
          "internalType": "bool",
          "name": "success",
          "type": "bool"
        }
      ],
      "stateMutability": "payable",
      "type": "function"
    },
    {
      "inputs": [
        {
          "internalType": "address",
          "name": "nftAddress",
          "type": "address"
        },
        {
          "internalType": "uint256",
          "name": "tokenId",
          "type": "uint256"
        },
        {
          "internalType": "address",
          "name": "serviceAddress",
          "type": "address"
        }
      ],
      "name": "rentNFTByToken",
      "outputs": [
        {
          "internalType": "bool",
          "name": "success",
          "type": "bool"
        }
      ],
      "stateMutability": "payable",
      "type": "function"
    },
    {
      "inputs": [
        {
          "internalType": "uint256",
          "name": "renterFeeQuota",
          "type": "uint256"
        },
        {
          "internalType": "uint256",
          "name": "serviceFeeQuota",
          "type": "uint256"
        },
        {
          "internalType": "uint256",
          "name": "marketFeeQuota",
          "type": "uint256"
        }
      ],
      "name": "setFeeQuota",
      "outputs": [],
      "stateMutability": "nonpayable",
      "type": "function"
    },
    {
      "inputs": [
        {
          "internalType": "address",
          "name": "shareAddress",
          "type": "address"
        }
      ],
      "name": "setMarketShareAddress",
      "outputs": [],
      "stateMutability": "nonpayable",
      "type": "function"
    },
    {
      "inputs": [
        {
          "internalType": "address",
          "name": "nftAddress",
          "type": "address"
        },
        {
          "internalType": "uint256",
          "name": "tokenId",
          "type": "uint256"
        }
      ],
      "name": "settleRentData",
      "outputs": [
        {
          "internalType": "bool",
          "name": "success",
          "type": "bool"
        }
      ],
      "stateMutability": "nonpayable",
      "type": "function"
    },
    {
      "inputs": [
        {
          "internalType": "address",
          "name": "newOwner",
          "type": "address"
        }
      ],
      "name": "transferOwnership",
      "outputs": [],
      "stateMutability": "nonpayable",
      "type": "function"
    },
    {
      "inputs": [],
      "name": "unpause",
      "outputs": [],
      "stateMutability": "nonpayable",
      "type": "function"
    },
    {
      "inputs": [
        {
          "internalType": "address",
          "name": "collectionAddress",
          "type": "address"
        }
      ],
      "name": "unregisterCollection",
      "outputs": [
        {
          "internalType": "bool",
          "name": "success",
          "type": "bool"
        }
      ],
      "stateMutability": "nonpayable",
      "type": "function"
    },
    {
      "inputs": [
        {
          "internalType": "address",
          "name": "nftAddress",
          "type": "address"
        },
        {
          "internalType": "uint256",
          "name": "tokenId",
          "type": "uint256"
        }
      ],
      "name": "unregisterNFT",
      "outputs": [
        {
          "internalType": "bool",
          "name": "success",
          "type": "bool"
        }
      ],
      "stateMutability": "nonpayable",
      "type": "function"
    },
    {
      "inputs": [
        {
          "internalType": "address",
          "name": "serviceAddress",
          "type": "address"
        }
      ],
      "name": "unregisterService",
      "outputs": [
        {
          "internalType": "bool",
          "name": "success",
          "type": "bool"
        }
      ],
      "stateMutability": "nonpayable",
      "type": "function"
    },
    {
      "inputs": [
        {
          "internalType": "address",
          "name": "tokenAddress",
          "type": "address"
        }
      ],
      "name": "unregisterToken",
      "outputs": [
        {
          "internalType": "bool",
          "name": "success",
          "type": "bool"
        }
      ],
      "stateMutability": "nonpayable",
      "type": "function"
    },
    {
      "inputs": [
        {
          "internalType": "address",
          "name": "nftAddress",
          "type": "address"
        },
        {
          "internalType": "uint256",
          "name": "tokenId",
          "type": "uint256"
        }
      ],
      "name": "unrentNFT",
      "outputs": [
        {
          "internalType": "bool",
          "name": "success",
          "type": "bool"
        }
      ],
      "stateMutability": "nonpayable",
      "type": "function"
    },
    {
      "inputs": [
        {
          "internalType": "address",
          "name": "recipient",
          "type": "address"
        },
        {
          "internalType": "address",
          "name": "tokenAddress",
          "type": "address"
        }
      ],
      "name": "withdrawMyBalance",
      "outputs": [
        {
          "internalType": "bool",
          "name": "success",
          "type": "bool"
        }
      ],
      "stateMutability": "payable",
      "type": "function"
    },
    {
      "stateMutability": "payable",
      "type": "receive"
    }
  ],
  "bytecode": "0x6080604052670de0b6b3a76400006002556201518060035560236004556023600555601e6006553480156200003357600080fd5b5060405162005d9f38038062005d9f833981016040819052620000569162000197565b6200006133620000d5565b6000805460ff60a01b19169055600180546001600160a01b0319163317905560408051808201909152600c81526b032bc31b63ab9b4bb32af9d160a51b602080830191909152620000be919083906200474262000125821b17901c565b6015805460ff191691151591909117905562000222565b600080546001600160a01b038381166001600160a01b0319831681178455604051919092169283917f8be0079c531659141344cd1fd0a4f28419497f9722a3daafe3b4186f6b6457e09190a35050565b6200017282826040516024016200013e929190620001c2565b60408051601f198184030181529190526020810180516001600160e01b0390811663c3b5563560e01b179091526200017616565b5050565b80516a636f6e736f6c652e6c6f67602083016000808483855afa5050505050565b600060208284031215620001aa57600080fd5b81518015158114620001bb57600080fd5b9392505050565b604081526000835180604084015260005b81811015620001f25760208187018101516060868401015201620001d3565b8181111562000205576000606083860101525b50921515602083015250601f91909101601f191601606001919050565b615b6d80620002326000396000f3fe6080604052600436106101b95760003560e01c806301ff74f71461021a57806306eb924f1461024957806315a5230214610269578063173cb9991461029657806317a6b609146102b65780631c2c2c24146102d65780632736a862146102f85780632d7402261461031a5780632e6379ed1461033a5780633f4ba83a1461034d5780634419ebb61461036257806345d44eda1461038f5780634b6c05fa146103af5780635c975abb146103d65780636558fce6146103eb5780636b4a08961461040b57806370473d861461042b578063715018a61461044d57806377860cdd146104625780637e3ef7cd1461048257806381ac825c146104b057806383b2f911146104c35780638456cb59146104f057806385e3c1d4146105055780638bb72e83146105275780638da5cb5b1461054957806395dbd4401461055e578063adee9abd14610580578063d4002fed146105a0578063d4fbeb19146105b3578063e2fcbf73146105d3578063e40de887146105f5578063e5d1420f14610615578063e8592fc714610635578063ec51c0d114610655578063ee5afa5214610686578063eec31042146106a6578063f2fde38b146106c8576101ed565b366101ed57604051349033907fd6717f327e0cb88b4a97a7f67a453e9258252c34937ccbdd86de7cb840e7def390600090a3005b60405133907fdd0c5778ddb0b0501649417aeffed44057db3d5d530231758c8dc5ef6eeb789490600090a2005b34801561022657600080fd5b506015546102349060ff1681565b60405190151581526020015b60405180910390f35b34801561025557600080fd5b50610234610264366004614dc3565b6106e8565b34801561027557600080fd5b50610289610284366004614e55565b6108a3565b6040516102409190614f0a565b3480156102a257600080fd5b506102346102b1366004614e55565b610939565b3480156102c257600080fd5b506102346102d1366004614f1d565b610ae2565b3480156102e257600080fd5b506102eb610f52565b6040516102409190614fec565b34801561030457600080fd5b5061031861031336600461503b565b6110c3565b005b34801561032657600080fd5b50610234610335366004614dc3565b611126565b610234610348366004615067565b6112b4565b34801561035957600080fd5b506103186116a6565b34801561036e57600080fd5b5061038261037d366004614f1d565b6116b8565b60405161024091906150a0565b34801561039b57600080fd5b506102346103aa366004614e55565b611754565b3480156103bb57600080fd5b506001546001600160a01b03165b60405161024091906150af565b3480156103e257600080fd5b50610234611999565b3480156103f757600080fd5b506102346104063660046150c3565b6119a9565b34801561041757600080fd5b50610234610426366004614f1d565b611c87565b34801561043757600080fd5b506104406123da565b6040516102409190615164565b34801561045957600080fd5b50610318612504565b34801561046e57600080fd5b5061023461047d366004614e55565b612516565b34801561048e57600080fd5b506104a261049d366004614e55565b61273a565b604051908152602001610240565b6102346104be3660046151a6565b6127c9565b3480156104cf57600080fd5b506104e36104de366004614f1d565b612d47565b60405161024091906151e8565b3480156104fc57600080fd5b50610318612ddb565b34801561051157600080fd5b5061051a612deb565b60405161024091906151f6565b34801561053357600080fd5b5061053c612f7f565b6040516102409190615258565b34801561055557600080fd5b506103c96130b2565b34801561056a57600080fd5b506105736130c1565b60405161024091906152ca565b34801561058c57600080fd5b5061023461059b366004614e55565b613248565b6102346105ae3660046151a6565b61346c565b3480156105bf57600080fd5b506102346105ce366004614dc3565b6139e7565b3480156105df57600080fd5b506105e8613b75565b604051610240919061531f565b34801561060157600080fd5b50610289610610366004614e55565b613c90565b34801561062157600080fd5b50610234610630366004614f1d565b613cd2565b34801561064157600080fd5b50610234610650366004614f1d565b613fa8565b34801561066157600080fd5b5060045460055460065460408051938452602084019290925290820152606001610240565b34801561069257600080fd5b506103186106a1366004614e55565b614518565b3480156106b257600080fd5b506106bb614542565b6040516102409190615377565b3480156106d457600080fd5b506103186106e3366004614e55565b6146c9565b60006106f261478b565b6106fa6147ea565b6040516360f353e160e01b815273__$79a40a2052c9947e027843e42106f8b048$__906360f353e1906107349060099087906004016153cc565b60206040518083038186803b15801561074c57600080fd5b505af4158015610760573d6000803e3d6000fd5b505050506040513d601f19601f8201168201806040525081019061078491906153f3565b156107aa5760405162461bcd60e51b81526004016107a19061540e565b60405180910390fd5b60405163287af74760e01b815260009073__$79a40a2052c9947e027843e42106f8b048$__9063287af747906107e9906009908890889060040161542b565b60206040518083038186803b15801561080157600080fd5b505af4158015610815573d6000803e3d6000fd5b505050506040513d601f19601f8201168201806040525081019061083991906153f3565b90506001811515141561089157836001600160a01b03167fdcc2016b74f9e1be59c35f005623093f22ee185961aa79657be041dba04ed0a48460405161087f919061545e565b60405180910390a2600191505061089d565b600091505061089d565b505b92915050565b6108ab614c5c565b604051631eb966b960e01b815273__$a27ab5a2953dc10a9c552591268754b616$__90631eb966b9906108e590600b9086906004016153cc565b60006040518083038186803b1580156108fd57600080fd5b505af4158015610911573d6000803e3d6000fd5b505050506040513d6000823e601f3d908101601f1916820160405261089d9190810190615531565b6000806060600080610949614542565b905060005b8151811015610a4a57600082828151811061096b5761096b615565565b6020026020010151600001519050806001600160a01b03168860405160240161099491906150af565b60408051601f198184030181529181526020820180516001600160e01b03166370a0823160e01b179052516109c9919061557b565b600060405180830381855afa9150503d8060008114610a04576040519150601f19603f3d011682016040523d82523d6000602084013e610a09565b606091505b5080519197509550600090610a279087016020908101908801615597565b9050610a3381866155c6565b945050508080610a42906155de565b91505061094e565b508115610a5d5750600195945050505050565b6000610a67610f52565b905060005b8151811015610ad4576000828281518110610a8957610a89615565565b602002602001015161010001519050886001600160a01b0316816001600160a01b03161415610ac15750600198975050505050505050565b5080610acc816155de565b915050610a6c565b506000979650505050505050565b6000610aec6147ea565b6040516304ecf28360e41b815273__$aabfbf51bc7bf3b8af0580fb7224204a01$__90634ecf283090610b2890600d90879087906004016155f9565b60206040518083038186803b158015610b4057600080fd5b505af4158015610b54573d6000803e3d6000fd5b505050506040513d601f19601f82011682018060405250810190610b7891906153f3565b15610bab5760405162461bcd60e51b815260206004820152600360248201526229269960e91b60448201526064016107a1565b6000610bb78433614832565b90506000610bc58585614912565b9050610bf56040518060400160405280600c81526020016b034b9a932b3b4b9ba32b91d160a51b81525083614742565b610c256040518060400160405280600e81526020016d037bbb732b920b2323932b9b99d160951b815250826149d9565b610c536040518060400160405280600c81526020016b036b9b39739b2b73232b91d160a51b815250336149d9565b60018215151480610c6c57506001600160a01b03811633145b80610d0257506040516360f353e160e01b815273__$79a40a2052c9947e027843e42106f8b048$__906360f353e190610cac9060099033906004016153cc565b60206040518083038186803b158015610cc457600080fd5b505af4158015610cd8573d6000803e3d6000fd5b505050506040513d601f19601f82011682018060405250810190610cfc91906153f3565b15156001145b610d345760405162461bcd60e51b815260206004820152600360248201526214934d60ea1b60448201526064016107a1565b6040516360f353e160e01b815273__$79a40a2052c9947e027843e42106f8b048$__906360f353e190610d6e9060099089906004016153cc565b60206040518083038186803b158015610d8657600080fd5b505af4158015610d9a573d6000803e3d6000fd5b505050506040513d601f19601f82011682018060405250810190610dbe91906153f3565b1515600114610df85760405162461bcd60e51b81526004016107a1906020808252600490820152632926991960e11b604082015260600190565b6001600160a01b038116610e375760405162461bcd60e51b81526004016107a190602080825260049082015263524d323160e01b604082015260600190565b60025460035460405163cddd4b6760e01b815260009273__$aabfbf51bc7bf3b8af0580fb7224204a01$__9263cddd4b6792610e8292600d928c928c92918991829190600401615618565b60206040518083038186803b158015610e9a57600080fd5b505af4158015610eae573d6000803e3d6000fd5b505050506040513d601f19601f82011682018060405250810190610ed291906153f3565b905060018115151415610f4657816001600160a01b031685876001600160a01b03167f582e65d918b73308f2eb058e75e68168f22c49c2994530f72d46177c78435cbb600254600354604051610f32929190918252602082015260400190565b60405180910390a46001935050505061089d565b6000935050505061089d565b6010546060906000906001600160401b03811115610f7257610f72614d2d565b604051908082528060200260200182016040528015610fab57816020015b610f98614c74565b815260200190600190039081610f905790505b50905060005b6010548110156110bd5760108054600f919083908110610fd357610fd3615565565b90600052602060002001604051610fea919061568b565b9081526040805191829003602090810183206101608401835260018101546001600160a01b03908116855260028201549285019290925260038101549284019290925260048201548116606084015260058201546080840152600682015460ff16151560a0840152600782015460c08401526008820154811660e084015260098201548116610100840152600a82015416610120830152600b0154610140820152825183908390811061109f5761109f615565565b602002602001018190525080806110b5906155de565b915050610fb1565b50919050565b6110cb61478b565b806110d683856155c6565b6110e091906155c6565b6064146111185760405162461bcd60e51b81526004016107a1906020808252600490820152632926989960e11b604082015260600190565b600492909255600555600655565b600061113061478b565b6111386147ea565b604051638c9a6cc360e01b815273__$a27ab5a2953dc10a9c552591268754b616$__90638c9a6cc39061117290600b9087906004016153cc565b60206040518083038186803b15801561118a57600080fd5b505af415801561119e573d6000803e3d6000fd5b505050506040513d601f19601f820116820180604052508101906111c291906153f3565b156111df5760405162461bcd60e51b81526004016107a19061540e565b6040516327a7887760e21b815260009073__$a27ab5a2953dc10a9c552591268754b616$__90639e9e21dc9061121e90600b908890889060040161542b565b60206040518083038186803b15801561123657600080fd5b505af415801561124a573d6000803e3d6000fd5b505050506040513d601f19601f8201168201806040525081019061126e91906153f3565b90506001811515141561089157836001600160a01b03167f26e277514df07793f28eff0e6f05b34a8dc0be0012b50d1b6162ce3c958b0c4e8460405161087f919061545e565b6000336001600160a01b03841614806112e557506112d06130b2565b6001600160a01b0316336001600160a01b0316145b61131a5760405162461bcd60e51b81526004016107a1906020808252600490820152630a49a62760e31b604082015260600190565b60405163b52bf90f60e01b815260009073__$35fde6ac6f7fb08b81f20635e2dfbb2343$__9063b52bf90f906113599060139088908890600401615727565b60206040518083038186803b15801561137157600080fd5b505af4158015611385573d6000803e3d6000fd5b505050506040513d601f19601f820116820180604052508101906113a99190615597565b9050801561089b576001600160a01b038316611451576000846001600160a01b03168260405160006040518083038185875af1925050503d806000811461140c576040519150601f19603f3d011682016040523d82523d6000602084013e611411565b606091505b505090508061144b5760405162461bcd60e51b81526004016107a19060208082526004908201526314934c4d60e21b604082015260600190565b506115b3565b60405163095ea7b360e01b8152306004820152602481018290526000906001600160a01b0385169063095ea7b390604401602060405180830381600087803b15801561149c57600080fd5b505af11580156114b0573d6000803e3d6000fd5b505050506040513d601f19601f820116820180604052508101906114d491906153f3565b90508061150c5760405162461bcd60e51b81526004016107a190602080825260049082015263524d313960e01b604082015260600190565b6040516323b872dd60e01b81526000906001600160a01b038616906323b872dd9061153f9030908a908890600401615746565b602060405180830381600087803b15801561155957600080fd5b505af115801561156d573d6000803e3d6000fd5b505050506040513d601f19601f8201168201806040525081019061159191906153f3565b9050806115b05760405162461bcd60e51b81526004016107a19061576a565b50505b60405163bc824a9360e01b815260009073__$35fde6ac6f7fb08b81f20635e2dfbb2343$__9063bc824a93906115f29060139089908990600401615727565b60206040518083038186803b15801561160a57600080fd5b505af415801561161e573d6000803e3d6000fd5b505050506040513d601f19601f8201168201806040525081019061164291906153f3565b90506001811515141561169b5781846001600160a01b0316866001600160a01b03167ff19b643806aff6923e6a83303f2c43467bb6e47487c68586ec0bcfb7097e8f7660405160405180910390a460019250505061089d565b60009250505061089d565b6116ae61478b565b6116b6614a1e565b565b6116c0614c74565b60405163af8b7c8160e01b815273__$c9b49513854812b7b6c4b448b2aa4684e3$__9063af8b7c81906116fc90600f90879087906004016155f9565b6101606040518083038186803b15801561171557600080fd5b505af4158015611729573d6000803e3d6000fd5b505050506040513d601f19601f8201168201806040525081019061174d9190615788565b9392505050565b600061175e61478b565b604051638c9a6cc360e01b815273__$a27ab5a2953dc10a9c552591268754b616$__90638c9a6cc39061179890600b9086906004016153cc565b60206040518083038186803b1580156117b057600080fd5b505af41580156117c4573d6000803e3d6000fd5b505050506040513d601f19601f820116820180604052508101906117e891906153f3565b15156001146118095760405162461bcd60e51b81526004016107a190615841565b604051631eb966b960e01b815260009073__$a27ab5a2953dc10a9c552591268754b616$__90631eb966b99061184690600b9087906004016153cc565b60006040518083038186803b15801561185e57600080fd5b505af4158015611872573d6000803e3d6000fd5b505050506040513d6000823e601f3d908101601f1916820160405261189a9190810190615531565b604051634c3bfbf560e11b815290915060009073__$a27ab5a2953dc10a9c552591268754b616$__90639877f7ea906118da90600b9088906004016153cc565b60206040518083038186803b1580156118f257600080fd5b505af4158015611906573d6000803e3d6000fd5b505050506040513d601f19601f8201168201806040525081019061192a91906153f3565b90506001811515141561198a5781600001516001600160a01b03167fd3bb6cf267814a3d42a12164c9ac01a59db6d9121ae676500da60fd56b086d3b8360200151604051611978919061545e565b60405180910390a25060019392505050565b5060009392505050565b919050565b600054600160a01b900460ff1690565b60006119b36147ea565b60006119bf8888614912565b9050336001600160a01b03821614806119f057506119db6130b2565b6001600160a01b0316336001600160a01b0316145b611a0c5760405162461bcd60e51b81526004016107a19061585e565b6040516304ecf28360e41b815273__$aabfbf51bc7bf3b8af0580fb7224204a01$__90634ecf283090611a4890600d908c908c906004016155f9565b60206040518083038186803b158015611a6057600080fd5b505af4158015611a74573d6000803e3d6000fd5b505050506040513d601f19601f82011682018060405250810190611a9891906153f3565b1515600114611ab95760405162461bcd60e51b81526004016107a190615841565b6001600160a01b03851615611b7357604051631f04869b60e31b815273__$4fab912f99daae96c763763589e4636ca5$__9063f82434d890611b029060079089906004016153cc565b60206040518083038186803b158015611b1a57600080fd5b505af4158015611b2e573d6000803e3d6000fd5b505050506040513d601f19601f82011682018060405250810190611b5291906153f3565b1515600114611b735760405162461bcd60e51b81526004016107a19061576a565b6040516313d3de6d60e11b815260009073__$aabfbf51bc7bf3b8af0580fb7224204a01$__906327a7bcda90611bba90600d908d908d908d908d908d908d90600401615618565b60206040518083038186803b158015611bd257600080fd5b505af4158015611be6573d6000803e3d6000fd5b505050506040513d601f19601f82011682018060405250810190611c0a91906153f3565b905060018115151415611c7657336001600160a01b0316888a6001600160a01b03167f4388754cf451950a50e2520e86758fc59ec9e88a7f6a09f2db5de37d545639298a8a8a8a89604051611c6395949392919061587b565b60405180910390a4600192505050611c7d565b6000925050505b9695505050505050565b60405163e99a8e3960e01b815260009081908190819073__$c9b49513854812b7b6c4b448b2aa4684e3$__9063e99a8e3990611ccc90600f908a908a906004016155f9565b60206040518083038186803b158015611ce457600080fd5b505af4158015611cf8573d6000803e3d6000fd5b505050506040513d601f19601f82011682018060405250810190611d1c91906153f3565b1515600114611d3d5760405162461bcd60e51b81526004016107a1906158a7565b60405163af8b7c8160e01b8152339073__$c9b49513854812b7b6c4b448b2aa4684e3$__9063af8b7c8190611d7b90600f908b908b906004016155f9565b6101606040518083038186803b158015611d9457600080fd5b505af4158015611da8573d6000803e3d6000fd5b505050506040513d601f19601f82011682018060405250810190611dcc9190615788565b61010001516001600160a01b03161480611df5575033611dea6130b2565b6001600160a01b0316145b611e2a5760405162461bcd60e51b81526004016107a1906020808252600490820152632926989b60e11b604082015260600190565b60405163af8b7c8160e01b815260009073__$c9b49513854812b7b6c4b448b2aa4684e3$__9063af8b7c8190611e6990600f908b908b906004016155f9565b6101606040518083038186803b158015611e8257600080fd5b505af4158015611e96573d6000803e3d6000fd5b505050506040513d601f19601f82011682018060405250810190611eba9190615788565b90508060a001511515600115151415611ed95780608001519150611ee1565b806040015191505b610140810151429081118015611f0a57508160c00151826101400151611f0791906155c6565b81105b15611fe257600082610140015182611f2291906158c5565b9050611f3b611f3182866158dc565b8460c00151614a6d565b9550611f478487614a79565b610100840151606085015160405163071cd41560e31b815292975073__$35fde6ac6f7fb08b81f20635e2dfbb2343$__926338e6a0a892611f8f926013928b906004016158fb565b60206040518083038186803b158015611fa757600080fd5b505af4158015611fbb573d6000803e3d6000fd5b505050506040513d601f19601f82011682018060405250810190611fdf91906153f3565b50505b841561220257600061200260045487611ffb91906158dc565b6064614a6d565b9050600061201760055488611ffb91906158dc565b9050600081612026848a6158c5565b61203091906158c5565b60e0860151606087015160405163071cd41560e31b815292935073__$35fde6ac6f7fb08b81f20635e2dfbb2343$__926338e6a0a8926120779260139289906004016158fb565b60206040518083038186803b15801561208f57600080fd5b505af41580156120a3573d6000803e3d6000fd5b505050506040513d601f19601f820116820180604052508101906120c791906153f3565b50610120850151606086015160405163071cd41560e31b815273__$35fde6ac6f7fb08b81f20635e2dfbb2343$__926338e6a0a89261210f92601392919088906004016158fb565b60206040518083038186803b15801561212757600080fd5b505af415801561213b573d6000803e3d6000fd5b505050506040513d601f19601f8201168201806040525081019061215f91906153f3565b50600154606086015160405163071cd41560e31b815273__$35fde6ac6f7fb08b81f20635e2dfbb2343$__926338e6a0a8926121ad926013926001600160a01b0316919087906004016158fb565b60206040518083038186803b1580156121c557600080fd5b505af41580156121d9573d6000803e3d6000fd5b505050506040513d601f19601f820116820180604052508101906121fd91906153f3565b505050505b60405163af8b7c8160e01b815260009073__$c9b49513854812b7b6c4b448b2aa4684e3$__9063af8b7c819061224190600f908d908d906004016155f9565b6101606040518083038186803b15801561225a57600080fd5b505af415801561226e573d6000803e3d6000fd5b505050506040513d601f19601f820116820180604052508101906122929190615788565b604051631d865d9360e21b815290915060009073__$c9b49513854812b7b6c4b448b2aa4684e3$__90637619764c906122d490600f908e908e906004016155f9565b60206040518083038186803b1580156122ec57600080fd5b505af4158015612300573d6000803e3d6000fd5b505050506040513d601f19601f8201168201806040525081019061232491906153f3565b9050600181151514156123ca578161010001516001600160a01b0316826020015183600001516001600160a01b03167f1e47184299ef1ae0147489de864e2860294ab4125cb78ff3488bce09ea0192f68560400151866060015187608001518860a001518960c001518a60e001518b61012001518c61014001516040516123b2989796959493929190615920565b60405180910390a4600197505050505050505061089d565b600097505050505050505061089d565b600e546060906000906001600160401b038111156123fa576123fa614d2d565b60405190808252806020026020018201604052801561243357816020015b612420614cd0565b8152602001906001900390816124185790505b50905060005b600e548110156110bd57600e8054600d91908390811061245b5761245b615565565b90600052602060002001604051612472919061568b565b90815260408051918290036020908101832060c08401835260018101546001600160a01b0390811685526002820154928501929092526003810154928401929092526004820154166060830152600581015460808301526006015460a082015282518390839081106124e6576124e6615565565b602002602001018190525080806124fc906155de565b915050612439565b61250c61478b565b6116b66000614a85565b600061252061478b565b604051631f04869b60e31b815273__$4fab912f99daae96c763763589e4636ca5$__9063f82434d89061255a9060079086906004016153cc565b60206040518083038186803b15801561257257600080fd5b505af4158015612586573d6000803e3d6000fd5b505050506040513d601f19601f820116820180604052508101906125aa91906153f3565b15156001146125cb5760405162461bcd60e51b81526004016107a190615841565b604051630a93aab960e31b815260009073__$4fab912f99daae96c763763589e4636ca5$__9063549d55c8906126089060079087906004016153cc565b60006040518083038186803b15801561262057600080fd5b505af4158015612634573d6000803e3d6000fd5b505050506040513d6000823e601f3d908101601f1916820160405261265c9190810190615531565b6040516359c0255d60e01b815290915060009073__$4fab912f99daae96c763763589e4636ca5$__906359c0255d9061269c9060079088906004016153cc565b60206040518083038186803b1580156126b457600080fd5b505af41580156126c8573d6000803e3d6000fd5b505050506040513d601f19601f820116820180604052508101906126ec91906153f3565b90506001811515141561198a5781600001516001600160a01b03167f037af5869c73bd98d861d265ed2fe7856d434102678eab240cfac53917ef4e838360200151604051611978919061545e565b60405163b52bf90f60e01b815260009073__$35fde6ac6f7fb08b81f20635e2dfbb2343$__9063b52bf90f906127799060139033908790600401615727565b60206040518083038186803b15801561279157600080fd5b505af41580156127a5573d6000803e3d6000fd5b505050506040513d601f19601f8201168201806040525081019061089d9190615597565b60006127d36147ea565b6040516304ecf28360e41b815273__$aabfbf51bc7bf3b8af0580fb7224204a01$__90634ecf28309061280f90600d90889088906004016155f9565b60206040518083038186803b15801561282757600080fd5b505af415801561283b573d6000803e3d6000fd5b505050506040513d601f19601f8201168201806040525081019061285f91906153f3565b15156001146128805760405162461bcd60e51b81526004016107a190615966565b604051638c9a6cc360e01b815273__$a27ab5a2953dc10a9c552591268754b616$__90638c9a6cc3906128ba90600b9086906004016153cc565b60206040518083038186803b1580156128d257600080fd5b505af41580156128e6573d6000803e3d6000fd5b505050506040513d601f19601f8201168201806040525081019061290a91906153f3565b151560011461292b5760405162461bcd60e51b81526004016107a190615983565b60155460ff161515600114156129e45760405163e99a8e3960e01b815273__$c9b49513854812b7b6c4b448b2aa4684e3$__9063e99a8e399061297790600f90889088906004016155f9565b60206040518083038186803b15801561298f57600080fd5b505af41580156129a3573d6000803e3d6000fd5b505050506040513d601f19601f820116820180604052508101906129c791906153f3565b156129e45760405162461bcd60e51b81526004016107a1906159a0565b604051630163053760e51b8152349073__$aabfbf51bc7bf3b8af0580fb7224204a01$__90632c60a6e090612a2290600d90899089906004016155f9565b60c06040518083038186803b158015612a3a57600080fd5b505af4158015612a4e573d6000803e3d6000fd5b505050506040513d601f19601f82011682018060405250810190612a7291906159bd565b6040015114612aa95760405162461bcd60e51b81526020600482015260036024820152620a49a760eb1b60448201526064016107a1565b604051630163053760e51b815260009073__$aabfbf51bc7bf3b8af0580fb7224204a01$__90632c60a6e090612ae890600d90899089906004016155f9565b60c06040518083038186803b158015612b0057600080fd5b505af4158015612b14573d6000803e3d6000fd5b505050506040513d601f19601f82011682018060405250810190612b3891906159bd565b90506000612b468686614912565b9050612b50614c74565b6001600160a01b038088168252602082018790526040808501518184015260608086015183169084015260808086015190840152600060a080850182905286015160c085015284831660e08501523361010085015291871661012084015242610140840152516332ada61b60e01b815273__$c9b49513854812b7b6c4b448b2aa4684e3$__906332ada61b90612bed90600f908690600401615a47565b60206040518083038186803b158015612c0557600080fd5b505af4158015612c19573d6000803e3d6000fd5b505050506040513d601f19601f82011682018060405250810190612c3d91906153f3565b905060018115151415610ad4576040516343d434b560e11b815273__$cd3810e67fa8b653e5355050e47a521f6f$__906387a8696a90612c8b9060119087908b906000903490600401615a5c565b60206040518083038186803b158015612ca357600080fd5b505af4158015612cb7573d6000803e3d6000fd5b505050506040513d601f19601f82011682018060405250810190612cdb91906153f3565b50336001600160a01b031687896001600160a01b0316600080516020615b1883398151915287604001518860600151896080015160008b60a001518b8f8c6101400151604051612d32989796959493929190615920565b60405180910390a4600194505050505061174d565b612d4f614cd0565b604051630163053760e51b815273__$aabfbf51bc7bf3b8af0580fb7224204a01$__90632c60a6e090612d8b90600d90879087906004016155f9565b60c06040518083038186803b158015612da357600080fd5b505af4158015612db7573d6000803e3d6000fd5b505050506040513d601f19601f8201168201806040525081019061174d91906159bd565b612de361478b565b6116b6614ad5565b6008546060906000906001600160401b03811115612e0b57612e0b614d2d565b604051908082528060200260200182016040528015612e5157816020015b604080518082019091526000815260606020820152815260200190600190039081612e295790505b50905060005b6008548110156110bd57600880546007919083908110612e7957612e79615565565b90600052602060002001604051612e90919061568b565b9081526040805191829003602090810183208383019092526001820180546001600160a01b031684526002909201805491840191612ecd90615656565b80601f0160208091040260200160405190810160405280929190818152602001828054612ef990615656565b8015612f465780601f10612f1b57610100808354040283529160200191612f46565b820191906000526020600020905b815481529060010190602001808311612f2957829003601f168201915b505050505081525050828281518110612f6157612f61615565565b60200260200101819052508080612f77906155de565b915050612e57565b6012546060906000906001600160401b03811115612f9f57612f9f614d2d565b604051908082528060200260200182016040528015612ff157816020015b604080516080810182526000808252602080830182905292820181905260608201528252600019909201910181612fbd5790505b50905060005b6012548110156110bd5760128054601191908390811061301957613019615565565b90600052602060002001604051613030919061568b565b90815260408051918290036020908101832060808401835260018101546001600160a01b0390811685526002820154811692850192909252600381015490911691830191909152600401546060820152825183908390811061309457613094615565565b602002602001018190525080806130aa906155de565b915050612ff7565b6000546001600160a01b031690565b600c546060906000906001600160401b038111156130e1576130e1614d2d565b60405190808252806020026020018201604052801561311a57816020015b613107614c5c565b8152602001906001900390816130ff5790505b50905060005b600c548110156110bd57600c8054600b91908390811061314257613142615565565b90600052602060002001604051613159919061568b565b9081526040805191829003602090810183208383019092526001820180546001600160a01b03168452600290920180549184019161319690615656565b80601f01602080910402602001604051908101604052809291908181526020018280546131c290615656565b801561320f5780601f106131e45761010080835404028352916020019161320f565b820191906000526020600020905b8154815290600101906020018083116131f257829003601f168201915b50505050508152505082828151811061322a5761322a615565565b60200260200101819052508080613240906155de565b915050613120565b600061325261478b565b6040516360f353e160e01b815273__$79a40a2052c9947e027843e42106f8b048$__906360f353e19061328c9060099086906004016153cc565b60206040518083038186803b1580156132a457600080fd5b505af41580156132b8573d6000803e3d6000fd5b505050506040513d601f19601f820116820180604052508101906132dc91906153f3565b15156001146132fd5760405162461bcd60e51b81526004016107a190615841565b60405163044aed2360e01b815260009073__$79a40a2052c9947e027843e42106f8b048$__9063044aed239061333a9060099087906004016153cc565b60006040518083038186803b15801561335257600080fd5b505af4158015613366573d6000803e3d6000fd5b505050506040513d6000823e601f3d908101601f1916820160405261338e9190810190615531565b60405163a3fb822560e01b815290915060009073__$79a40a2052c9947e027843e42106f8b048$__9063a3fb8225906133ce9060099088906004016153cc565b60206040518083038186803b1580156133e657600080fd5b505af41580156133fa573d6000803e3d6000fd5b505050506040513d601f19601f8201168201806040525081019061341e91906153f3565b90506001811515141561198a5781600001516001600160a01b03167fe32dbca0dcbe2dc4205cd30b4b23a82cff3e9b7e12a5682683185c6f33c978be8360200151604051611978919061545e565b60006134766147ea565b6040516304ecf28360e41b815273__$aabfbf51bc7bf3b8af0580fb7224204a01$__90634ecf2830906134b290600d90889088906004016155f9565b60206040518083038186803b1580156134ca57600080fd5b505af41580156134de573d6000803e3d6000fd5b505050506040513d601f19601f8201168201806040525081019061350291906153f3565b15156001146135235760405162461bcd60e51b81526004016107a190615966565b604051638c9a6cc360e01b815273__$a27ab5a2953dc10a9c552591268754b616$__90638c9a6cc39061355d90600b9086906004016153cc565b60206040518083038186803b15801561357557600080fd5b505af4158015613589573d6000803e3d6000fd5b505050506040513d601f19601f820116820180604052508101906135ad91906153f3565b15156001146135ce5760405162461bcd60e51b81526004016107a190615983565b60405163e99a8e3960e01b815273__$c9b49513854812b7b6c4b448b2aa4684e3$__9063e99a8e399061360a90600f90889088906004016155f9565b60206040518083038186803b15801561362257600080fd5b505af4158015613636573d6000803e3d6000fd5b505050506040513d601f19601f8201168201806040525081019061365a91906153f3565b156136775760405162461bcd60e51b81526004016107a1906159a0565b34156136ae5760405162461bcd60e51b81526004016107a190602080825260049082015263524d313360e01b604082015260600190565b60006136ba8585614912565b604051630163053760e51b815290915060009073__$aabfbf51bc7bf3b8af0580fb7224204a01$__90632c60a6e0906136fc90600d908a908a906004016155f9565b60c06040518083038186803b15801561371457600080fd5b505af4158015613728573d6000803e3d6000fd5b505050506040513d601f19601f8201168201806040525081019061374c91906159bd565b9050600081606001516001600160a01b03166323b872dd333085608001516040518463ffffffff1660e01b815260040161378893929190615746565b602060405180830381600087803b1580156137a257600080fd5b505af11580156137b6573d6000803e3d6000fd5b505050506040513d601f19601f820116820180604052508101906137da91906153f3565b9050806137ed576000935050505061174d565b6137f5614c74565b6001600160a01b038089168252602082018890526040808501518184015260608086015183169084015260808086015190840152600160a08085019190915285015160c084015285821660e08401523361010084015290871661012083015242610140830152516332ada61b60e01b815273__$c9b49513854812b7b6c4b448b2aa4684e3$__906332ada61b9061389390600f908590600401615a47565b60206040518083038186803b1580156138ab57600080fd5b505af41580156138bf573d6000803e3d6000fd5b505050506040513d601f19601f820116820180604052508101906138e391906153f3565b50606083015160808401516040516343d434b560e11b815273__$cd3810e67fa8b653e5355050e47a521f6f$__926387a8696a9261392a926011928a928d92600401615a5c565b60206040518083038186803b15801561394257600080fd5b505af4158015613956573d6000803e3d6000fd5b505050506040513d601f19601f8201168201806040525081019061397a91906153f3565b50336001600160a01b031687896001600160a01b0316600080516020615b1883398151915286604001518760600151886080015160018a60a001518c8f8b61014001516040516139d1989796959493929190615920565b60405180910390a4506001979650505050505050565b60006139f161478b565b6139f96147ea565b604051631f04869b60e31b815273__$4fab912f99daae96c763763589e4636ca5$__9063f82434d890613a339060079087906004016153cc565b60206040518083038186803b158015613a4b57600080fd5b505af4158015613a5f573d6000803e3d6000fd5b505050506040513d601f19601f82011682018060405250810190613a8391906153f3565b15613aa05760405162461bcd60e51b81526004016107a19061540e565b6040516331d0579b60e11b815260009073__$4fab912f99daae96c763763589e4636ca5$__906363a0af3690613adf906007908890889060040161542b565b60206040518083038186803b158015613af757600080fd5b505af4158015613b0b573d6000803e3d6000fd5b505050506040513d601f19601f82011682018060405250810190613b2f91906153f3565b90506001811515141561089157836001600160a01b03167ff76071867aae1eed00218b5aa8d4736b9b2161325ea3e48d283258a7e4ba75f58460405161087f919061545e565b6014546060906000906001600160401b03811115613b9557613b95614d2d565b604051908082528060200260200182016040528015613be057816020015b6040805160608101825260008082526020808301829052928201528252600019909201910181613bb35790505b50905060005b6014548110156110bd57601480546013919083908110613c0857613c08615565565b90600052602060002001604051613c1f919061568b565b90815260408051918290036020908101832060608401835260018101546001600160a01b0390811685526002820154169184019190915260030154908201528251839083908110613c7257613c72615565565b60200260200101819052508080613c88906155de565b915050613be6565b613c98614c5c565b60405163044aed2360e01b815273__$79a40a2052c9947e027843e42106f8b048$__9063044aed23906108e59060099086906004016153cc565b600080613cdf8433614832565b90506000613ced8585614912565b905060018215151480613d085750336001600160a01b038216145b80613d2b5750613d166130b2565b6001600160a01b0316336001600160a01b0316145b613d475760405162461bcd60e51b81526004016107a19061585e565b6040516304ecf28360e41b815273__$aabfbf51bc7bf3b8af0580fb7224204a01$__90634ecf283090613d8390600d90899089906004016155f9565b60206040518083038186803b158015613d9b57600080fd5b505af4158015613daf573d6000803e3d6000fd5b505050506040513d601f19601f82011682018060405250810190613dd391906153f3565b1515600114613df45760405162461bcd60e51b81526004016107a190615841565b604051630163053760e51b815260009073__$aabfbf51bc7bf3b8af0580fb7224204a01$__90632c60a6e090613e3390600d908a908a906004016155f9565b60c06040518083038186803b158015613e4b57600080fd5b505af4158015613e5f573d6000803e3d6000fd5b505050506040513d601f19601f82011682018060405250810190613e8391906159bd565b604051631f8195ef60e11b815290915060009073__$aabfbf51bc7bf3b8af0580fb7224204a01$__90633f032bde90613ec590600d908b908b906004016155f9565b60206040518083038186803b158015613edd57600080fd5b505af4158015613ef1573d6000803e3d6000fd5b505050506040513d601f19601f82011682018060405250810190613f1591906153f3565b905060018115151415613f9b57336001600160a01b0316826020015183600001516001600160a01b03167f47ef5674b8623b6a0bece5fae33a1a29ad79a7846a5be46a0b2e256b94f9ee318560400151866060015187608001518860a001518a604051613f8695949392919061587b565b60405180910390a4600194505050505061089d565b600094505050505061089d565b60405163e99a8e3960e01b815260009073__$c9b49513854812b7b6c4b448b2aa4684e3$__9063e99a8e3990613fe790600f90879087906004016155f9565b60206040518083038186803b158015613fff57600080fd5b505af4158015614013573d6000803e3d6000fd5b505050506040513d601f19601f8201168201806040525081019061403791906153f3565b15156001146140585760405162461bcd60e51b81526004016107a1906158a7565b60405163af8b7c8160e01b815260009073__$c9b49513854812b7b6c4b448b2aa4684e3$__9063af8b7c819061409790600f90889088906004016155f9565b6101606040518083038186803b1580156140b057600080fd5b505af41580156140c4573d6000803e3d6000fd5b505050506040513d601f19601f820116820180604052508101906140e89190615788565b90508060c001518161014001516140ff91906155c6565b42116141365760405162461bcd60e51b81526004016107a190602080825260049082015263524d313760e01b604082015260600190565b60008160a0015115156001151514156141545750608081015161415b565b5060408101515b600061416e60045483611ffb91906158dc565b9050600061418360055484611ffb91906158dc565b905060008161419284866158c5565b61419c91906158c5565b60e0860151606087015160405163071cd41560e31b815292935073__$35fde6ac6f7fb08b81f20635e2dfbb2343$__926338e6a0a8926141e39260139289906004016158fb565b60206040518083038186803b1580156141fb57600080fd5b505af415801561420f573d6000803e3d6000fd5b505050506040513d601f19601f8201168201806040525081019061423391906153f3565b50610120850151606086015160405163071cd41560e31b815273__$35fde6ac6f7fb08b81f20635e2dfbb2343$__926338e6a0a89261427b92601392919088906004016158fb565b60206040518083038186803b15801561429357600080fd5b505af41580156142a7573d6000803e3d6000fd5b505050506040513d601f19601f820116820180604052508101906142cb91906153f3565b50600154606086015160405163071cd41560e31b815273__$35fde6ac6f7fb08b81f20635e2dfbb2343$__926338e6a0a892614319926013926001600160a01b0316919087906004016158fb565b60206040518083038186803b15801561433157600080fd5b505af4158015614345573d6000803e3d6000fd5b505050506040513d601f19601f8201168201806040525081019061436991906153f3565b5060e08501516101208601516060870151604051631a9a5d7160e21b815273__$cd3810e67fa8b653e5355050e47a521f6f$__93636a6975c4936143b4936011938b90600401615a5c565b60206040518083038186803b1580156143cc57600080fd5b505af41580156143e0573d6000803e3d6000fd5b505050506040513d601f19601f8201168201806040525081019061440491906153f3565b5084516020860151604051631d865d9360e21b815273__$c9b49513854812b7b6c4b448b2aa4684e3$__92637619764c9261444692600f9291906004016155f9565b60206040518083038186803b15801561445e57600080fd5b505af4158015614472573d6000803e3d6000fd5b505050506040513d601f19601f8201168201806040525081019061449691906153f3565b508461010001516001600160a01b0316856020015186600001516001600160a01b03167f2941e86df5e844db000359f0e9abe470952bac636d89a010e9d5d513aad469fa886040015189606001518a608001518b60a001518c60c001518d60e001518e61012001518f61014001516040516139d1989796959493929190615920565b61452061478b565b600180546001600160a01b0319166001600160a01b0392909216919091179055565b600a546060906000906001600160401b0381111561456257614562614d2d565b60405190808252806020026020018201604052801561459b57816020015b614588614c5c565b8152602001906001900390816145805790505b50905060005b600a548110156110bd57600a805460099190839081106145c3576145c3615565565b906000526020600020016040516145da919061568b565b9081526040805191829003602090810183208383019092526001820180546001600160a01b03168452600290920180549184019161461790615656565b80601f016020809104026020016040519081016040528092919081815260200182805461464390615656565b80156146905780601f1061466557610100808354040283529160200191614690565b820191906000526020600020905b81548152906001019060200180831161467357829003601f168201915b5050505050815250508282815181106146ab576146ab615565565b602002602001018190525080806146c1906155de565b9150506145a1565b6146d161478b565b6001600160a01b0381166147365760405162461bcd60e51b815260206004820152602660248201527f4f776e61626c653a206e6577206f776e657220697320746865207a65726f206160448201526564647265737360d01b60648201526084016107a1565b61473f81614a85565b50565b6147878282604051602401614758929190615a8a565b60408051601f198184030181529190526020810180516001600160e01b031663c3b5563560e01b179052614b18565b5050565b336147946130b2565b6001600160a01b0316146116b65760405162461bcd60e51b815260206004820181905260248201527f4f776e61626c653a2063616c6c6572206973206e6f7420746865206f776e657260448201526064016107a1565b6147f2611999565b156116b65760405162461bcd60e51b815260206004820152601060248201526f14185d5cd8589b194e881c185d5cd95960821b60448201526064016107a1565b60008061484f6001600160a01b038516632c63230160e11b614b39565b90506001811515141561089157604051632c63230160e11b81526000906001600160a01b038616906358c646029061488b9087906004016150af565b60206040518083038186803b1580156148a357600080fd5b505afa1580156148b7573d6000803e3d6000fd5b505050506040513d601f19601f820116820180604052508101906148db91906153f3565b90506149096040518060400160405280600a81526020016903932b9b837b739b29d160b51b81525082614742565b915061089d9050565b6000806060846001600160a01b03168460405160240161493491815260200190565b60408051601f198184030181529181526020820180516001600160e01b03166331a9108f60e11b17905251614969919061557b565b6000604051808303816000865af19150503d80600081146149a6576040519150601f19603f3d011682016040523d82523d6000602084013e6149ab565b606091505b5090925090506001821515141561169b57808060200190518101906149d09190615aae565b9250505061089d565b61478782826040516024016149ef929190615acb565b60408051601f198184030181529190526020810180516001600160e01b031663319af33360e01b179052614b18565b614a26614b55565b6000805460ff60a01b191690557f5db9ee0a495bf2e6ff9c91a7834c1ba4fdd244a5e8aa4e537bd38aeae4b073aa335b604051614a6391906150af565b60405180910390a1565b600061174d8284615af5565b600061174d82846158c5565b600080546001600160a01b038381166001600160a01b0319831681178455604051919092169283917f8be0079c531659141344cd1fd0a4f28419497f9722a3daafe3b4186f6b6457e09190a35050565b614add6147ea565b6000805460ff60a01b1916600160a01b1790557f62e78cea01bee320cd4e420270b5ea74000d11b0c9f74754ebdbfc544b05a258614a563390565b80516a636f6e736f6c652e6c6f67602083016000808483855afa5050505050565b6000614b4483614ba0565b801561174d575061174d8383614bd3565b614b5d611999565b6116b65760405162461bcd60e51b815260206004820152601460248201527314185d5cd8589b194e881b9bdd081c185d5cd95960621b60448201526064016107a1565b6000614bb3826301ffc9a760e01b614bd3565b801561089d5750614bcc826001600160e01b0319614bd3565b1592915050565b604080516001600160e01b03198316602480830191909152825180830390910181526044909101909152602080820180516001600160e01b03166301ffc9a760e01b178152825160009392849283928392918391908a617530fa92503d91506000519050828015614c45575060208210155b8015614c515750600081115b979650505050505050565b60408051808201909152600081526060602082015290565b6040805161016081018252600080825260208201819052918101829052606081018290526080810182905260a0810182905260c0810182905260e081018290526101008101829052610120810182905261014081019190915290565b6040518060c0016040528060006001600160a01b03168152602001600081526020016000815260200160006001600160a01b0316815260200160008152602001600081525090565b6001600160a01b038116811461473f57600080fd5b634e487b7160e01b600052604160045260246000fd5b60405161016081016001600160401b0381118282101715614d6657614d66614d2d565b60405290565b604051601f8201601f191681016001600160401b0381118282101715614d9457614d94614d2d565b604052919050565b60006001600160401b03821115614db557614db5614d2d565b50601f01601f191660200190565b60008060408385031215614dd657600080fd5b8235614de181614d18565b915060208301356001600160401b03811115614dfc57600080fd5b8301601f81018513614e0d57600080fd5b8035614e20614e1b82614d9c565b614d6c565b818152866020838501011115614e3557600080fd5b816020840160208301376000602083830101528093505050509250929050565b600060208284031215614e6757600080fd5b813561174d81614d18565b6001600160a01b03169052565b60005b83811015614e9a578181015183820152602001614e82565b83811115614ea9576000848401525b50505050565b60008151808452614ec7816020860160208601614e7f565b601f01601f19169290920160200192915050565b60018060a01b0381511682526000602082015160406020850152614f026040850182614eaf565b949350505050565b60208152600061174d6020830184614edb565b60008060408385031215614f3057600080fd5b8235614f3b81614d18565b946020939093013593505050565b614f54828251614e72565b60208101516020830152604081015160408301526060810151614f7a6060840182614e72565b506080810151608083015260a0810151614f9860a084018215159052565b5060c081015160c083015260e0810151614fb560e0840182614e72565b5061010080820151614fc982850182614e72565b505061012080820151614fde82850182614e72565b505061014090810151910152565b6020808252825182820181905260009190848201906040850190845b8181101561502f5761501b838551614f49565b928401926101609290920191600101615008565b50909695505050505050565b60008060006060848603121561505057600080fd5b505081359360208301359350604090920135919050565b6000806040838503121561507a57600080fd5b823561508581614d18565b9150602083013561509581614d18565b809150509250929050565b610160810161089d8284614f49565b6001600160a01b0391909116815260200190565b60008060008060008060c087890312156150dc57600080fd5b86356150e781614d18565b95506020870135945060408701359350606087013561510581614d18565b9598949750929560808101359460a0909101359350915050565b80516001600160a01b0390811683526020808301519084015260408083015190840152606080830151909116908301526080808201519083015260a090810151910152565b6020808252825182820181905260009190848201906040850190845b8181101561502f5761519383855161511f565b9284019260c09290920191600101615180565b6000806000606084860312156151bb57600080fd5b83356151c681614d18565b92506020840135915060408401356151dd81614d18565b809150509250925092565b60c0810161089d828461511f565b6000602080830181845280855180835260408601915060408160051b870101925083870160005b8281101561524b57603f19888603018452615239858351614edb565b9450928501929085019060010161521d565b5092979650505050505050565b602080825282518282018190526000919060409081850190868401855b828110156152bd57815180516001600160a01b039081168652878201518116888701528682015116868601526060908101519085015260809093019290850190600101615275565b5091979650505050505050565b6000602080830181845280855180835260408601915060408160051b870101925083870160005b8281101561524b57603f1988860301845261530d858351614edb565b945092850192908501906001016152f1565b602080825282518282018190526000919060409081850190868401855b828110156152bd57815180516001600160a01b039081168652878201511687860152850151858501526060909301929085019060010161533c565b6000602080830181845280855180835260408601915060408160051b870101925083870160005b8281101561524b57603f198886030184526153ba858351614edb565b9450928501929085019060010161539e565b9182526001600160a01b0316602082015260400190565b8051801515811461199457600080fd5b60006020828403121561540557600080fd5b61174d826153e3565b602080825260039082015262524d3160e81b604082015260600190565b8381526001600160a01b038316602082015260606040820181905260009061545590830184614eaf565b95945050505050565b60208152600061174d6020830184614eaf565b805161199481614d18565b60006040828403121561548e57600080fd5b604080519081016001600160401b0380821183831017156154b1576154b1614d2d565b81604052829350845191506154c582614d18565b908252602084015190808211156154db57600080fd5b508301601f810185136154ed57600080fd5b80516154fb614e1b82614d9c565b81815286602083850101111561551057600080fd5b615521826020830160208601614e7f565b8060208501525050505092915050565b60006020828403121561554357600080fd5b81516001600160401b0381111561555957600080fd5b614f028482850161547c565b634e487b7160e01b600052603260045260246000fd5b6000825161558d818460208701614e7f565b9190910192915050565b6000602082840312156155a957600080fd5b5051919050565b634e487b7160e01b600052601160045260246000fd5b600082198211156155d9576155d96155b0565b500190565b60006000198214156155f2576155f26155b0565b5060010190565b9283526001600160a01b03919091166020830152604082015260600190565b9687526001600160a01b03958616602088015260408701949094526060860192909252909216608084015260a083019190915260c082015260e00190565b600181811c9082168061566a57607f821691505b602082108114156110bd57634e487b7160e01b600052602260045260246000fd5b600080835481600182811c9150808316806156a757607f831692505b60208084108214156156c757634e487b7160e01b86526022600452602486fd5b8180156156db57600181146156ec57615719565b60ff19861689528489019650615719565b60008a81526020902060005b868110156157115781548b8201529085019083016156f8565b505084890196505b509498975050505050505050565b9283526001600160a01b03918216602084015216604082015260600190565b6001600160a01b039384168152919092166020820152604081019190915260600190565b6020808252600490820152630524d32360e41b604082015260600190565b6000610160828403121561579b57600080fd5b6157a3614d43565b6157ac83615471565b815260208301516020820152604083015160408201526157ce60608401615471565b6060820152608083015160808201526157e960a084016153e3565b60a082015260c083015160c082015261580460e08401615471565b60e0820152610100615817818501615471565b90820152610120615829848201615471565b90820152610140928301519281019290925250919050565b602080825260039082015262524d3360e81b604082015260600190565b602080825260039082015262524d3560e81b604082015260600190565b9485526001600160a01b0393841660208601526040850192909252606084015216608082015260a00190565b6020808252600490820152630524d31360e41b604082015260600190565b6000828210156158d7576158d76155b0565b500390565b60008160001904831182151516156158f6576158f66155b0565b500290565b9384526001600160a01b03928316602085015291166040830152606082015260800190565b9788526001600160a01b039687166020890152604088019590955292151560608701526080860191909152831660a085015290911660c083015260e08201526101000190565b602080825260039082015262524d3760e81b604082015260600190565b60208082526003908201526229269b60e91b604082015260600190565b602080825260039082015262524d3960e81b604082015260600190565b600060c082840312156159cf57600080fd5b60405160c081016001600160401b03811182821017156159f1576159f1614d2d565b60405282516159ff81614d18565b8082525060208301516020820152604083015160408201526060830151615a2581614d18565b60608201526080838101519082015260a0928301519281019290925250919050565b828152610180810161174d6020830184614f49565b9485526001600160a01b03938416602086015291831660408501529091166060830152608082015260a00190565b604081526000615a9d6040830185614eaf565b905082151560208301529392505050565b600060208284031215615ac057600080fd5b815161174d81614d18565b604081526000615ade6040830185614eaf565b905060018060a01b03831660208301529392505050565b600082615b1257634e487b7160e01b600052601260045260246000fd5b50049056fefe632cd15df82b5e105c28c0d0da9eb0228667912a4b1e430151d7c0d9227759a26469706673582212201924d2e564530bf47b04e52f3c41eb4115146a6ab0fc9b5e15fe316ac6df290864736f6c63430008090033",
  "linkReferences": {
    "contracts/iterableMapLib.sol": {
      "accountBalanceIterableMap": [
        {
          "length": 20,
          "start": 5470
        },
        {
          "length": 20,
          "start": 6135
        },
        {
          "length": 20,
          "start": 8598
        },
        {
          "length": 20,
          "start": 8830
        },
        {
          "length": 20,
          "start": 8980
        },
        {
          "length": 20,
          "start": 9129
        },
        {
          "length": 20,
          "start": 10622
        },
        {
          "length": 20,
          "start": 17386
        },
        {
          "length": 20,
          "start": 17536
        },
        {
          "length": 20,
          "start": 17685
        }
      ],
      "collectionDataIterableMap": [
        {
          "length": 20,
          "start": 2363
        },
        {
          "length": 20,
          "start": 2542
        },
        {
          "length": 20,
          "start": 3763
        },
        {
          "length": 20,
          "start": 3957
        },
        {
          "length": 20,
          "start": 13459
        },
        {
          "length": 20,
          "start": 13633
        },
        {
          "length": 20,
          "start": 13781
        },
        {
          "length": 20,
          "start": 16089
        }
      ],
      "pendingRentFeeIterableMap": [
        {
          "length": 20,
          "start": 11915
        },
        {
          "length": 20,
          "start": 15151
        },
        {
          "length": 20,
          "start": 17851
        }
      ],
      "registerDataIterableMap": [
        {
          "length": 20,
          "start": 3373
        },
        {
          "length": 20,
          "start": 4225
        },
        {
          "length": 20,
          "start": 7245
        },
        {
          "length": 20,
          "start": 7607
        },
        {
          "length": 20,
          "start": 10772
        },
        {
          "length": 20,
          "start": 11303
        },
        {
          "length": 20,
          "start": 11501
        },
        {
          "length": 20,
          "start": 12176
        },
        {
          "length": 20,
          "start": 14007
        },
        {
          "length": 20,
          "start": 14593
        },
        {
          "length": 20,
          "start": 16264
        },
        {
          "length": 20,
          "start": 16440
        },
        {
          "length": 20,
          "start": 16586
        }
      ],
      "rentDataIterableMap": [
        {
          "length": 20,
          "start": 6401
        },
        {
          "length": 20,
          "start": 7889
        },
        {
          "length": 20,
          "start": 8064
        },
        {
          "length": 20,
          "start": 8302
        },
        {
          "length": 20,
          "start": 9286
        },
        {
          "length": 20,
          "start": 9433
        },
        {
          "length": 20,
          "start": 11132
        },
        {
          "length": 20,
          "start": 11764
        },
        {
          "length": 20,
          "start": 14351
        },
        {
          "length": 20,
          "start": 15002
        },
        {
          "length": 20,
          "start": 16876
        },
        {
          "length": 20,
          "start": 17052
        },
        {
          "length": 20,
          "start": 17997
        }
      ],
      "serviceDataIterableMap": [
        {
          "length": 20,
          "start": 2796
        },
        {
          "length": 20,
          "start": 4985
        },
        {
          "length": 20,
          "start": 5155
        },
        {
          "length": 20,
          "start": 6559
        },
        {
          "length": 20,
          "start": 6733
        },
        {
          "length": 20,
          "start": 6881
        },
        {
          "length": 20,
          "start": 10945
        },
        {
          "length": 20,
          "start": 14180
        }
      ],
      "tokenDataIterableMap": [
        {
          "length": 20,
          "start": 7433
        },
        {
          "length": 20,
          "start": 10081
        },
        {
          "length": 20,
          "start": 10255
        },
        {
          "length": 20,
          "start": 10403
        },
        {
          "length": 20,
          "start": 15418
        },
        {
          "length": 20,
          "start": 15588
        }
      ]
    }
  },
  "deployedLinkReferences": {
    "contracts/iterableMapLib.sol": {
      "accountBalanceIterableMap": [
        {
          "length": 20,
          "start": 4908
        },
        {
          "length": 20,
          "start": 5573
        },
        {
          "length": 20,
          "start": 8036
        },
        {
          "length": 20,
          "start": 8268
        },
        {
          "length": 20,
          "start": 8418
        },
        {
          "length": 20,
          "start": 8567
        },
        {
          "length": 20,
          "start": 10060
        },
        {
          "length": 20,
          "start": 16824
        },
        {
          "length": 20,
          "start": 16974
        },
        {
          "length": 20,
          "start": 17123
        }
      ],
      "collectionDataIterableMap": [
        {
          "length": 20,
          "start": 1801
        },
        {
          "length": 20,
          "start": 1980
        },
        {
          "length": 20,
          "start": 3201
        },
        {
          "length": 20,
          "start": 3395
        },
        {
          "length": 20,
          "start": 12897
        },
        {
          "length": 20,
          "start": 13071
        },
        {
          "length": 20,
          "start": 13219
        },
        {
          "length": 20,
          "start": 15527
        }
      ],
      "pendingRentFeeIterableMap": [
        {
          "length": 20,
          "start": 11353
        },
        {
          "length": 20,
          "start": 14589
        },
        {
          "length": 20,
          "start": 17289
        }
      ],
      "registerDataIterableMap": [
        {
          "length": 20,
          "start": 2811
        },
        {
          "length": 20,
          "start": 3663
        },
        {
          "length": 20,
          "start": 6683
        },
        {
          "length": 20,
          "start": 7045
        },
        {
          "length": 20,
          "start": 10210
        },
        {
          "length": 20,
          "start": 10741
        },
        {
          "length": 20,
          "start": 10939
        },
        {
          "length": 20,
          "start": 11614
        },
        {
          "length": 20,
          "start": 13445
        },
        {
          "length": 20,
          "start": 14031
        },
        {
          "length": 20,
          "start": 15702
        },
        {
          "length": 20,
          "start": 15878
        },
        {
          "length": 20,
          "start": 16024
        }
      ],
      "rentDataIterableMap": [
        {
          "length": 20,
          "start": 5839
        },
        {
          "length": 20,
          "start": 7327
        },
        {
          "length": 20,
          "start": 7502
        },
        {
          "length": 20,
          "start": 7740
        },
        {
          "length": 20,
          "start": 8724
        },
        {
          "length": 20,
          "start": 8871
        },
        {
          "length": 20,
          "start": 10570
        },
        {
          "length": 20,
          "start": 11202
        },
        {
          "length": 20,
          "start": 13789
        },
        {
          "length": 20,
          "start": 14440
        },
        {
          "length": 20,
          "start": 16314
        },
        {
          "length": 20,
          "start": 16490
        },
        {
          "length": 20,
          "start": 17435
        }
      ],
      "serviceDataIterableMap": [
        {
          "length": 20,
          "start": 2234
        },
        {
          "length": 20,
          "start": 4423
        },
        {
          "length": 20,
          "start": 4593
        },
        {
          "length": 20,
          "start": 5997
        },
        {
          "length": 20,
          "start": 6171
        },
        {
          "length": 20,
          "start": 6319
        },
        {
          "length": 20,
          "start": 10383
        },
        {
          "length": 20,
          "start": 13618
        }
      ],
      "tokenDataIterableMap": [
        {
          "length": 20,
          "start": 6871
        },
        {
          "length": 20,
          "start": 9519
        },
        {
          "length": 20,
          "start": 9693
        },
        {
          "length": 20,
          "start": 9841
        },
        {
          "length": 20,
          "start": 14856
        },
        {
          "length": 20,
          "start": 15026
        }
      ]
    }
  }
}