{
  "_format": "hh-sol-artifact-1",
  "contractName": "rentNFT",
  "sourceName": "contracts/rentNFT.sol",
  "abi": [
    {
      "inputs": [
        {
          "internalType": "string",
          "name": "name_",
          "type": "string"
        },
        {
          "internalType": "string",
          "name": "symbol_",
          "type": "string"
        },
        {
          "internalType": "string",
          "name": "baseTokenURI_",
          "type": "string"
        }
      ],
      "stateMutability": "nonpayable",
      "type": "constructor"
    },
    {
      "anonymous": false,
      "inputs": [
        {
          "indexed": true,
          "internalType": "address",
          "name": "owner",
          "type": "address"
        },
        {
          "indexed": true,
          "internalType": "address",
          "name": "approved",
          "type": "address"
        },
        {
          "indexed": true,
          "internalType": "uint256",
          "name": "tokenId",
          "type": "uint256"
        }
      ],
      "name": "Approval",
      "type": "event"
    },
    {
      "anonymous": false,
      "inputs": [
        {
          "indexed": true,
          "internalType": "address",
          "name": "owner",
          "type": "address"
        },
        {
          "indexed": true,
          "internalType": "address",
          "name": "operator",
          "type": "address"
        },
        {
          "indexed": false,
          "internalType": "bool",
          "name": "approved",
          "type": "bool"
        }
      ],
      "name": "ApprovalForAll",
      "type": "event"
    },
    {
      "anonymous": false,
      "inputs": [
        {
          "indexed": false,
          "internalType": "address",
          "name": "account",
          "type": "address"
        }
      ],
      "name": "Paused",
      "type": "event"
    },
    {
      "anonymous": false,
      "inputs": [
        {
          "indexed": true,
          "internalType": "bytes32",
          "name": "role",
          "type": "bytes32"
        },
        {
          "indexed": true,
          "internalType": "bytes32",
          "name": "previousAdminRole",
          "type": "bytes32"
        },
        {
          "indexed": true,
          "internalType": "bytes32",
          "name": "newAdminRole",
          "type": "bytes32"
        }
      ],
      "name": "RoleAdminChanged",
      "type": "event"
    },
    {
      "anonymous": false,
      "inputs": [
        {
          "indexed": true,
          "internalType": "bytes32",
          "name": "role",
          "type": "bytes32"
        },
        {
          "indexed": true,
          "internalType": "address",
          "name": "account",
          "type": "address"
        },
        {
          "indexed": true,
          "internalType": "address",
          "name": "sender",
          "type": "address"
        }
      ],
      "name": "RoleGranted",
      "type": "event"
    },
    {
      "anonymous": false,
      "inputs": [
        {
          "indexed": true,
          "internalType": "bytes32",
          "name": "role",
          "type": "bytes32"
        },
        {
          "indexed": true,
          "internalType": "address",
          "name": "account",
          "type": "address"
        },
        {
          "indexed": true,
          "internalType": "address",
          "name": "sender",
          "type": "address"
        }
      ],
      "name": "RoleRevoked",
      "type": "event"
    },
    {
      "anonymous": false,
      "inputs": [
        {
          "indexed": true,
          "internalType": "address",
          "name": "from",
          "type": "address"
        },
        {
          "indexed": true,
          "internalType": "address",
          "name": "to",
          "type": "address"
        },
        {
          "indexed": true,
          "internalType": "uint256",
          "name": "tokenId",
          "type": "uint256"
        }
      ],
      "name": "Transfer",
      "type": "event"
    },
    {
      "anonymous": false,
      "inputs": [
        {
          "indexed": false,
          "internalType": "address",
          "name": "account",
          "type": "address"
        }
      ],
      "name": "Unpaused",
      "type": "event"
    },
    {
      "inputs": [],
      "name": "DEFAULT_ADMIN_ROLE",
      "outputs": [
        {
          "internalType": "bytes32",
          "name": "",
          "type": "bytes32"
        }
      ],
      "stateMutability": "view",
      "type": "function"
    },
    {
      "inputs": [],
      "name": "MINTER_ROLE",
      "outputs": [
        {
          "internalType": "bytes32",
          "name": "",
          "type": "bytes32"
        }
      ],
      "stateMutability": "view",
      "type": "function"
    },
    {
      "inputs": [],
      "name": "PAUSER_ROLE",
      "outputs": [
        {
          "internalType": "bytes32",
          "name": "",
          "type": "bytes32"
        }
      ],
      "stateMutability": "view",
      "type": "function"
    },
    {
      "inputs": [],
      "name": "REGISTER_ROLE",
      "outputs": [
        {
          "internalType": "bytes32",
          "name": "",
          "type": "bytes32"
        }
      ],
      "stateMutability": "view",
      "type": "function"
    },
    {
      "inputs": [],
      "name": "SETTER_ROLE",
      "outputs": [
        {
          "internalType": "bytes32",
          "name": "",
          "type": "bytes32"
        }
      ],
      "stateMutability": "view",
      "type": "function"
    },
    {
      "inputs": [],
      "name": "VERSION",
      "outputs": [
        {
          "internalType": "string",
          "name": "",
          "type": "string"
        }
      ],
      "stateMutability": "view",
      "type": "function"
    },
    {
      "inputs": [
        {
          "internalType": "address",
          "name": "to",
          "type": "address"
        },
        {
          "internalType": "uint256",
          "name": "tokenId",
          "type": "uint256"
        }
      ],
      "name": "approve",
      "outputs": [],
      "stateMutability": "nonpayable",
      "type": "function"
    },
    {
      "inputs": [
        {
          "internalType": "address",
          "name": "owner",
          "type": "address"
        }
      ],
      "name": "balanceOf",
      "outputs": [
        {
          "internalType": "uint256",
          "name": "",
          "type": "uint256"
        }
      ],
      "stateMutability": "view",
      "type": "function"
    },
    {
      "inputs": [
        {
          "internalType": "uint256",
          "name": "tokenId",
          "type": "uint256"
        }
      ],
      "name": "burn",
      "outputs": [],
      "stateMutability": "nonpayable",
      "type": "function"
    },
    {
      "inputs": [
        {
          "internalType": "address",
          "name": "registerAddress",
          "type": "address"
        }
      ],
      "name": "checkRegisterRole",
      "outputs": [
        {
          "internalType": "bool",
          "name": "result",
          "type": "bool"
        }
      ],
      "stateMutability": "view",
      "type": "function"
    },
    {
      "inputs": [
        {
          "internalType": "uint256",
          "name": "tokenId",
          "type": "uint256"
        }
      ],
      "name": "getApproved",
      "outputs": [
        {
          "internalType": "address",
          "name": "",
          "type": "address"
        }
      ],
      "stateMutability": "view",
      "type": "function"
    },
    {
      "inputs": [],
      "name": "getBaseURI",
      "outputs": [
        {
          "internalType": "string",
          "name": "",
          "type": "string"
        }
      ],
      "stateMutability": "view",
      "type": "function"
    },
    {
      "inputs": [
        {
          "internalType": "bytes32",
          "name": "role",
          "type": "bytes32"
        }
      ],
      "name": "getRoleAdmin",
      "outputs": [
        {
          "internalType": "bytes32",
          "name": "",
          "type": "bytes32"
        }
      ],
      "stateMutability": "view",
      "type": "function"
    },
    {
      "inputs": [
        {
          "internalType": "bytes32",
          "name": "role",
          "type": "bytes32"
        },
        {
          "internalType": "address",
          "name": "account",
          "type": "address"
        }
      ],
      "name": "grantRole",
      "outputs": [],
      "stateMutability": "nonpayable",
      "type": "function"
    },
    {
      "inputs": [
        {
          "internalType": "bytes32",
          "name": "role",
          "type": "bytes32"
        },
        {
          "internalType": "address",
          "name": "account",
          "type": "address"
        }
      ],
      "name": "hasRole",
      "outputs": [
        {
          "internalType": "bool",
          "name": "",
          "type": "bool"
        }
      ],
      "stateMutability": "view",
      "type": "function"
    },
    {
      "inputs": [
        {
          "internalType": "address",
          "name": "owner",
          "type": "address"
        },
        {
          "internalType": "address",
          "name": "operator",
          "type": "address"
        }
      ],
      "name": "isApprovedForAll",
      "outputs": [
        {
          "internalType": "bool",
          "name": "",
          "type": "bool"
        }
      ],
      "stateMutability": "view",
      "type": "function"
    },
    {
      "inputs": [],
      "name": "name",
      "outputs": [
        {
          "internalType": "string",
          "name": "",
          "type": "string"
        }
      ],
      "stateMutability": "view",
      "type": "function"
    },
    {
      "inputs": [
        {
          "internalType": "uint256",
          "name": "tokenId",
          "type": "uint256"
        }
      ],
      "name": "ownerOf",
      "outputs": [
        {
          "internalType": "address",
          "name": "",
          "type": "address"
        }
      ],
      "stateMutability": "view",
      "type": "function"
    },
    {
      "inputs": [],
      "name": "pause",
      "outputs": [],
      "stateMutability": "nonpayable",
      "type": "function"
    },
    {
      "inputs": [],
      "name": "paused",
      "outputs": [
        {
          "internalType": "bool",
          "name": "",
          "type": "bool"
        }
      ],
      "stateMutability": "view",
      "type": "function"
    },
    {
      "inputs": [
        {
          "internalType": "bytes32",
          "name": "role",
          "type": "bytes32"
        },
        {
          "internalType": "address",
          "name": "account",
          "type": "address"
        }
      ],
      "name": "renounceRole",
      "outputs": [],
      "stateMutability": "nonpayable",
      "type": "function"
    },
    {
      "inputs": [
        {
          "internalType": "bytes32",
          "name": "role",
          "type": "bytes32"
        },
        {
          "internalType": "address",
          "name": "account",
          "type": "address"
        }
      ],
      "name": "revokeRole",
      "outputs": [],
      "stateMutability": "nonpayable",
      "type": "function"
    },
    {
      "inputs": [
        {
          "internalType": "address",
          "name": "to_",
          "type": "address"
        }
      ],
      "name": "safeMint",
      "outputs": [],
      "stateMutability": "nonpayable",
      "type": "function"
    },
    {
      "inputs": [
        {
          "internalType": "address",
          "name": "to_",
          "type": "address"
        },
        {
          "internalType": "uint256",
          "name": "amount_",
          "type": "uint256"
        }
      ],
      "name": "safeMintAmount",
      "outputs": [],
      "stateMutability": "nonpayable",
      "type": "function"
    },
    {
      "inputs": [
        {
          "internalType": "address",
          "name": "from",
          "type": "address"
        },
        {
          "internalType": "address",
          "name": "to",
          "type": "address"
        },
        {
          "internalType": "uint256",
          "name": "tokenId",
          "type": "uint256"
        }
      ],
      "name": "safeTransferFrom",
      "outputs": [],
      "stateMutability": "nonpayable",
      "type": "function"
    },
    {
      "inputs": [
        {
          "internalType": "address",
          "name": "from",
          "type": "address"
        },
        {
          "internalType": "address",
          "name": "to",
          "type": "address"
        },
        {
          "internalType": "uint256",
          "name": "tokenId",
          "type": "uint256"
        },
        {
          "internalType": "bytes",
          "name": "data",
          "type": "bytes"
        }
      ],
      "name": "safeTransferFrom",
      "outputs": [],
      "stateMutability": "nonpayable",
      "type": "function"
    },
    {
      "inputs": [
        {
          "internalType": "address",
          "name": "operator",
          "type": "address"
        },
        {
          "internalType": "bool",
          "name": "approved",
          "type": "bool"
        }
      ],
      "name": "setApprovalForAll",
      "outputs": [],
      "stateMutability": "nonpayable",
      "type": "function"
    },
    {
      "inputs": [
        {
          "internalType": "string",
          "name": "baseTokenURI_",
          "type": "string"
        }
      ],
      "name": "setBaseURI",
      "outputs": [],
      "stateMutability": "nonpayable",
      "type": "function"
    },
    {
      "inputs": [
        {
          "internalType": "bytes4",
          "name": "interfaceId",
          "type": "bytes4"
        }
      ],
      "name": "supportsInterface",
      "outputs": [
        {
          "internalType": "bool",
          "name": "",
          "type": "bool"
        }
      ],
      "stateMutability": "view",
      "type": "function"
    },
    {
      "inputs": [],
      "name": "symbol",
      "outputs": [
        {
          "internalType": "string",
          "name": "",
          "type": "string"
        }
      ],
      "stateMutability": "view",
      "type": "function"
    },
    {
      "inputs": [
        {
          "internalType": "uint256",
          "name": "index",
          "type": "uint256"
        }
      ],
      "name": "tokenByIndex",
      "outputs": [
        {
          "internalType": "uint256",
          "name": "",
          "type": "uint256"
        }
      ],
      "stateMutability": "view",
      "type": "function"
    },
    {
      "inputs": [
        {
          "internalType": "address",
          "name": "owner",
          "type": "address"
        },
        {
          "internalType": "uint256",
          "name": "index",
          "type": "uint256"
        }
      ],
      "name": "tokenOfOwnerByIndex",
      "outputs": [
        {
          "internalType": "uint256",
          "name": "",
          "type": "uint256"
        }
      ],
      "stateMutability": "view",
      "type": "function"
    },
    {
      "inputs": [
        {
          "internalType": "uint256",
          "name": "tokenId",
          "type": "uint256"
        }
      ],
      "name": "tokenURI",
      "outputs": [
        {
          "internalType": "string",
          "name": "",
          "type": "string"
        }
      ],
      "stateMutability": "view",
      "type": "function"
    },
    {
      "inputs": [],
      "name": "totalSupply",
      "outputs": [
        {
          "internalType": "uint256",
          "name": "",
          "type": "uint256"
        }
      ],
      "stateMutability": "view",
      "type": "function"
    },
    {
      "inputs": [
        {
          "internalType": "address",
          "name": "from",
          "type": "address"
        },
        {
          "internalType": "address",
          "name": "to",
          "type": "address"
        },
        {
          "internalType": "uint256",
          "name": "tokenId",
          "type": "uint256"
        }
      ],
      "name": "transferFrom",
      "outputs": [],
      "stateMutability": "nonpayable",
      "type": "function"
    },
    {
      "inputs": [],
      "name": "unpause",
      "outputs": [],
      "stateMutability": "nonpayable",
      "type": "function"
    }
  ],
  "bytecode": "0x60c06040526005608081905264302e302e3560d81b60a09081526200002891600c919062000216565b503480156200003657600080fd5b50604051620028a0380380620028a0833981016040819052620000599162000389565b8251839083906200007290600090602085019062000216565b5080516200008890600190602084019062000216565b5050600a805460ff19169055508051620000aa90600e90602084019062000216565b50620000b860003362000171565b620000e47f65d7a28e3265b37a6474929f336521b332c1681b933f6cb9f3376673440d862a3362000171565b620001107f9f2df0fed2c77648de5860a4cc508cd0818c85b8b8a1ab4ceeef8d981c8956a63362000171565b6200013c7f61c92169ef077349011ff0b1383c894d86c5f0b41d986366b58a6cf31e93beda3362000171565b620001687fd1f21ec03a6eb050fba156f5316dad461735df521fb446dd42c5a4728e9c70fe3362000171565b50505062000457565b6000828152600b602090815260408083206001600160a01b038516845290915290205460ff1662000212576000828152600b602090815260408083206001600160a01b03851684529091529020805460ff19166001179055620001d13390565b6001600160a01b0316816001600160a01b0316837f2f8788117e7eff1d82e926ec794901d17c78024a50270940304540a733656f0d60405160405180910390a45b5050565b82805462000224906200041a565b90600052602060002090601f01602090048101928262000248576000855562000293565b82601f106200026357805160ff191683800117855562000293565b8280016001018555821562000293579182015b828111156200029357825182559160200191906001019062000276565b50620002a1929150620002a5565b5090565b5b80821115620002a15760008155600101620002a6565b634e487b7160e01b600052604160045260246000fd5b600082601f830112620002e457600080fd5b81516001600160401b0380821115620003015762000301620002bc565b604051601f8301601f19908116603f011681019082821181831017156200032c576200032c620002bc565b816040528381526020925086838588010111156200034957600080fd5b600091505b838210156200036d57858201830151818301840152908201906200034e565b838211156200037f5760008385830101525b9695505050505050565b6000806000606084860312156200039f57600080fd5b83516001600160401b0380821115620003b757600080fd5b620003c587838801620002d2565b94506020860151915080821115620003dc57600080fd5b620003ea87838801620002d2565b935060408601519150808211156200040157600080fd5b506200041086828701620002d2565b9150509250925092565b600181811c908216806200042f57607f821691505b602082108114156200045157634e487b7160e01b600052602260045260246000fd5b50919050565b61243980620004676000396000f3fe608060405234801561001057600080fd5b50600436106101ac5760003560e01c806301ffc9a7146101b157806306fdde03146101d9578063081812fc146101ee578063095ea7b31461020e57806318160ddd1461022357806323b872dd14610235578063248a9ca3146102485780632f2ff15d1461025b5780632f745c591461026e57806336568abe146102815780633f4ba83a1461029457806340d097c31461029c57806342842e0e146102af57806342966c68146102c25780634f6ccce7146102d557806355f804b3146102e857806358c64602146102fb5780635c975abb1461030e5780636352211e1461031957806370a082311461032c578063714c53981461033f57806374f53317146103475780638456cb591461035c57806391d148541461036457806395d89b4114610377578063a2011b3f1461037f578063a217fddf14610394578063a22cb4651461039c578063b88d4fde146103af578063c6890de1146103c2578063c87b56dd146103d5578063d5391393146103e8578063d547741f146103fd578063e63ab1e914610410578063e985e9c514610425578063ffa1ad7414610438575b600080fd5b6101c46101bf366004611cf0565b610440565b60405190151581526020015b60405180910390f35b6101e161046b565b6040516101d09190611d65565b6102016101fc366004611d78565b6104fd565b6040516101d09190611d91565b61022161021c366004611dc1565b610524565b005b6008545b6040519081526020016101d0565b610221610243366004611deb565b61063f565b610227610256366004611d78565b610671565b610221610269366004611e27565b610686565b61022761027c366004611dc1565b6106a2565b61022161028f366004611e27565b610738565b6102216107b6565b6102216102aa366004611e53565b6107d9565b6102216102bd366004611deb565b610816565b6102216102d0366004611d78565b610831565b6102276102e3366004611d78565b61085f565b6102216102f6366004611ef9565b6108f2565b6101c4610309366004611e53565b61091d565b600a5460ff166101c4565b610201610327366004611d78565b610937565b61022761033a366004611e53565b61096b565b6101e16109f1565b61022760008051602061238483398151915281565b610221610a00565b6101c4610372366004611e27565b610a20565b6101e1610a4b565b61022760008051602061236483398151915281565b610227600081565b6102216103aa366004611f41565b610a5a565b6102216103bd366004611f7d565b610a65565b6102216103d0366004611dc1565b610a9d565b6101e16103e3366004611d78565b610af8565b6102276000805160206123c483398151915281565b61022161040b366004611e27565b610b5f565b6102276000805160206123a483398151915281565b6101c4610433366004611ff8565b610b7b565b6101e1610ba9565b60006001600160e01b03198216632c63230160e11b1480610465575061046582610c37565b92915050565b60606000805461047a90612022565b80601f01602080910402602001604051908101604052809291908181526020018280546104a690612022565b80156104f35780601f106104c8576101008083540402835291602001916104f3565b820191906000526020600020905b8154815290600101906020018083116104d657829003601f168201915b5050505050905090565b600061050882610c5c565b506000908152600460205260409020546001600160a01b031690565b600061052f82610937565b9050806001600160a01b0316836001600160a01b031614156105a25760405162461bcd60e51b815260206004820152602160248201527f4552433732313a20617070726f76616c20746f2063757272656e74206f776e656044820152603960f91b60648201526084015b60405180910390fd5b336001600160a01b03821614806105be57506105be8133610b7b565b6106305760405162461bcd60e51b815260206004820152603d60248201527f4552433732313a20617070726f76652063616c6c6572206973206e6f7420746f60448201527f6b656e206f776e6572206f7220617070726f76656420666f7220616c6c0000006064820152608401610599565b61063a8383610c81565b505050565b61064a335b82610cef565b6106665760405162461bcd60e51b81526004016105999061205d565b61063a838383610d4e565b6000908152600b602052604090206001015490565b61068f82610671565b61069881610ead565b61063a8383610eb7565b60006106ad8361096b565b821061070f5760405162461bcd60e51b815260206004820152602b60248201527f455243373231456e756d657261626c653a206f776e657220696e646578206f7560448201526a74206f6620626f756e647360a81b6064820152608401610599565b506001600160a01b03919091166000908152600660209081526040808320938352929052205490565b6001600160a01b03811633146107a85760405162461bcd60e51b815260206004820152602f60248201527f416363657373436f6e74726f6c3a2063616e206f6e6c792072656e6f756e636560448201526e103937b632b9903337b91039b2b63360891b6064820152608401610599565b6107b28282610f3d565b5050565b6000805160206123a48339815191526107ce81610ead565b6107d6610fa4565b50565b6000805160206123c48339815191526107f181610ead565b6107ff600d80546001019055565b600061080a600d5490565b905061063a8382610ff0565b61063a83838360405180602001604052806000815250610a65565b61083a33610644565b6108565760405162461bcd60e51b81526004016105999061205d565b6107d68161100a565b600061086a60085490565b82106108cd5760405162461bcd60e51b815260206004820152602c60248201527f455243373231456e756d657261626c653a20676c6f62616c20696e646578206f60448201526b7574206f6620626f756e647360a01b6064820152608401610599565b600882815481106108e0576108e06120aa565b90600052602060002001549050919050565b60008051602061236483398151915261090a81610ead565b815161063a90600e906020850190611c41565b600061046560008051602061238483398151915283610a20565b6000806109438361109b565b90506001600160a01b0381166104655760405162461bcd60e51b8152600401610599906120c0565b60006001600160a01b0382166109d55760405162461bcd60e51b815260206004820152602960248201527f4552433732313a2061646472657373207a65726f206973206e6f7420612076616044820152683634b21037bbb732b960b91b6064820152608401610599565b506001600160a01b031660009081526003602052604090205490565b6060600e805461047a90612022565b6000805160206123a4833981519152610a1881610ead565b6107d66110b6565b6000918252600b602090815260408084206001600160a01b0393909316845291905290205460ff1690565b60606001805461047a90612022565b6107b23383836110f3565b610a6f3383610cef565b610a8b5760405162461bcd60e51b81526004016105999061205d565b610a97848484846111be565b50505050565b6000805160206123c4833981519152610ab581610ead565b60005b82811015610a9757610ace600d80546001019055565b6000610ad9600d5490565b9050610ae58582610ff0565b5080610af081612108565b915050610ab8565b6060610b0382610c5c565b6000610b0d6109f1565b90506000815111610b2d5760405180602001604052806000815250610b58565b80610b37846111f1565b604051602001610b48929190612123565b6040516020818303038152906040525b9392505050565b610b6882610671565b610b7181610ead565b61063a8383610f3d565b6001600160a01b03918216600090815260056020908152604080832093909416825291909152205460ff1690565b600c8054610bb690612022565b80601f0160208091040260200160405190810160405280929190818152602001828054610be290612022565b8015610c2f5780601f10610c0457610100808354040283529160200191610c2f565b820191906000526020600020905b815481529060010190602001808311610c1257829003601f168201915b505050505081565b60006001600160e01b03198216637965db0b60e01b148061046557506104658261128d565b610c65816112b2565b6107d65760405162461bcd60e51b8152600401610599906120c0565b600081815260046020526040902080546001600160a01b0319166001600160a01b0384169081179091558190610cb682610937565b6001600160a01b03167f8c5be1e5ebec7d5bd14f71427d1e84f3dd0314c0f7b2291e5b200ac8c7c3b92560405160405180910390a45050565b600080610cfb83610937565b9050806001600160a01b0316846001600160a01b03161480610d225750610d228185610b7b565b80610d465750836001600160a01b0316610d3b846104fd565b6001600160a01b0316145b949350505050565b826001600160a01b0316610d6182610937565b6001600160a01b031614610d875760405162461bcd60e51b815260040161059990612152565b6001600160a01b038216610de95760405162461bcd60e51b8152602060048201526024808201527f4552433732313a207472616e7366657220746f20746865207a65726f206164646044820152637265737360e01b6064820152608401610599565b610df683838360016112cf565b826001600160a01b0316610e0982610937565b6001600160a01b031614610e2f5760405162461bcd60e51b815260040161059990612152565b600081815260046020908152604080832080546001600160a01b03199081169091556001600160a01b0387811680865260038552838620805460001901905590871680865283862080546001019055868652600290945282852080549092168417909155905184936000805160206123e483398151915291a4505050565b6107d681336112e3565b610ec18282610a20565b6107b2576000828152600b602090815260408083206001600160a01b03851684529091529020805460ff19166001179055610ef93390565b6001600160a01b0316816001600160a01b0316837f2f8788117e7eff1d82e926ec794901d17c78024a50270940304540a733656f0d60405160405180910390a45050565b610f478282610a20565b156107b2576000828152600b602090815260408083206001600160a01b0385168085529252808320805460ff1916905551339285917ff6391f5c32d9c69d2a47ea670b442974b53935d1edc7fd64eb21e047a839171b9190a45050565b610fac61133c565b600a805460ff191690557f5db9ee0a495bf2e6ff9c91a7834c1ba4fdd244a5e8aa4e537bd38aeae4b073aa335b604051610fe69190611d91565b60405180910390a1565b6107b2828260405180602001604052806000815250611387565b600061101582610937565b90506110258160008460016112cf565b61102e82610937565b600083815260046020908152604080832080546001600160a01b03199081169091556001600160a01b0385168085526003845282852080546000190190558785526002909352818420805490911690555192935084926000805160206123e4833981519152908390a45050565b6000908152600260205260409020546001600160a01b031690565b6110be6113ba565b600a805460ff191660011790557f62e78cea01bee320cd4e420270b5ea74000d11b0c9f74754ebdbfc544b05a258610fd93390565b816001600160a01b0316836001600160a01b031614156111515760405162461bcd60e51b815260206004820152601960248201527822a9219b99189d1030b8383937bb32903a379031b0b63632b960391b6044820152606401610599565b6001600160a01b03838116600081815260056020908152604080832094871680845294825291829020805460ff191686151590811790915591519182527f17307eab39ab6107e8899845ad3d59bd9653f200f220920489ca2b5937696c31910160405180910390a3505050565b6111c9848484610d4e565b6111d584848484611400565b610a975760405162461bcd60e51b815260040161059990612197565b606060006111fe8361150d565b60010190506000816001600160401b0381111561121d5761121d611e6e565b6040519080825280601f01601f191660200182016040528015611247576020820181803683370190505b5090508181016020015b600019016f181899199a1a9b1b9c1cb0b131b232b360811b600a86061a8153600a850494508461128057611285565b611251565b509392505050565b60006001600160e01b0319821663780e9d6360e01b14806104655750610465826115e3565b6000806112be8361109b565b6001600160a01b0316141592915050565b6112d76113ba565b610a9784848484611633565b6112ed8282610a20565b6107b2576112fa81611773565b611305836020611785565b6040516020016113169291906121e9565b60408051601f198184030181529082905262461bcd60e51b825261059991600401611d65565b600a5460ff166113855760405162461bcd60e51b815260206004820152601460248201527314185d5cd8589b194e881b9bdd081c185d5cd95960621b6044820152606401610599565b565b6113918383611920565b61139e6000848484611400565b61063a5760405162461bcd60e51b815260040161059990612197565b600a5460ff16156113855760405162461bcd60e51b815260206004820152601060248201526f14185d5cd8589b194e881c185d5cd95960821b6044820152606401610599565b60006001600160a01b0384163b1561150257604051630a85bd0160e11b81526001600160a01b0385169063150b7a0290611444903390899088908890600401612258565b602060405180830381600087803b15801561145e57600080fd5b505af192505050801561148e575060408051601f3d908101601f1916820190925261148b91810190612295565b60015b6114e8573d8080156114bc576040519150601f19603f3d011682016040523d82523d6000602084013e6114c1565b606091505b5080516114e05760405162461bcd60e51b815260040161059990612197565b805181602001fd5b6001600160e01b031916630a85bd0160e11b149050610d46565b506001949350505050565b60008072184f03e93ff9f4daa797ed6e38ed64bf6a1f0160401b831061154c5772184f03e93ff9f4daa797ed6e38ed64bf6a1f0160401b830492506040015b6904ee2d6d415b85acef8160201b8310611576576904ee2d6d415b85acef8160201b830492506020015b662386f26fc10000831061159457662386f26fc10000830492506010015b6305f5e10083106115ac576305f5e100830492506008015b61271083106115c057612710830492506004015b606483106115d2576064830492506002015b600a83106104655760010192915050565b60006001600160e01b031982166380ac58cd60e01b148061161457506001600160e01b03198216635b5e139f60e01b145b8061046557506301ffc9a760e01b6001600160e01b0319831614610465565b61163f84848484611a29565b60018111156116ae5760405162461bcd60e51b815260206004820152603560248201527f455243373231456e756d657261626c653a20636f6e7365637574697665207472604482015274185b9cd9995c9cc81b9bdd081cdd5c1c1bdc9d1959605a1b6064820152608401610599565b816001600160a01b03851661170a5761170581600880546000838152600960205260408120829055600182018355919091527ff3f7a9fe364faab93b216da50a3214154f22a0a2b415b23a84c8169e8b636ee30155565b61172d565b836001600160a01b0316856001600160a01b03161461172d5761172d8582611ab1565b6001600160a01b0384166117495761174481611b4e565b61176c565b846001600160a01b0316846001600160a01b03161461176c5761176c8482611bfd565b5050505050565b60606104656001600160a01b03831660145b606060006117948360026122b2565b61179f9060026122d1565b6001600160401b038111156117b6576117b6611e6e565b6040519080825280601f01601f1916602001820160405280156117e0576020820181803683370190505b509050600360fc1b816000815181106117fb576117fb6120aa565b60200101906001600160f81b031916908160001a905350600f60fb1b8160018151811061182a5761182a6120aa565b60200101906001600160f81b031916908160001a905350600061184e8460026122b2565b6118599060016122d1565b90505b60018111156118d1576f181899199a1a9b1b9c1cb0b131b232b360811b85600f166010811061188d5761188d6120aa565b1a60f81b8282815181106118a3576118a36120aa565b60200101906001600160f81b031916908160001a90535060049490941c936118ca816122e9565b905061185c565b508315610b585760405162461bcd60e51b815260206004820181905260248201527f537472696e67733a20686578206c656e67746820696e73756666696369656e746044820152606401610599565b6001600160a01b0382166119765760405162461bcd60e51b815260206004820181905260248201527f4552433732313a206d696e7420746f20746865207a65726f20616464726573736044820152606401610599565b61197f816112b2565b1561199c5760405162461bcd60e51b815260040161059990612300565b6119aa6000838360016112cf565b6119b3816112b2565b156119d05760405162461bcd60e51b815260040161059990612300565b6001600160a01b038216600081815260036020908152604080832080546001019055848352600290915280822080546001600160a01b0319168417905551839291906000805160206123e4833981519152908290a45050565b6001811115610a97576001600160a01b03841615611a6f576001600160a01b03841660009081526003602052604081208054839290611a69908490612336565b90915550505b6001600160a01b03831615610a97576001600160a01b03831660009081526003602052604081208054839290611aa69084906122d1565b909155505050505050565b60006001611abe8461096b565b611ac89190612336565b600083815260076020526040902054909150808214611b1b576001600160a01b03841660009081526006602090815260408083208584528252808320548484528184208190558352600790915290208190555b5060009182526007602090815260408084208490556001600160a01b039094168352600681528383209183525290812055565b600854600090611b6090600190612336565b60008381526009602052604081205460088054939450909284908110611b8857611b886120aa565b906000526020600020015490508060088381548110611ba957611ba96120aa565b6000918252602080832090910192909255828152600990915260408082208490558582528120556008805480611be157611be161234d565b6001900381819060005260206000200160009055905550505050565b6000611c088361096b565b6001600160a01b039093166000908152600660209081526040808320868452825280832085905593825260079052919091209190915550565b828054611c4d90612022565b90600052602060002090601f016020900481019282611c6f5760008555611cb5565b82601f10611c8857805160ff1916838001178555611cb5565b82800160010185558215611cb5579182015b82811115611cb5578251825591602001919060010190611c9a565b50611cc1929150611cc5565b5090565b5b80821115611cc15760008155600101611cc6565b6001600160e01b0319811681146107d657600080fd5b600060208284031215611d0257600080fd5b8135610b5881611cda565b60005b83811015611d28578181015183820152602001611d10565b83811115610a975750506000910152565b60008151808452611d51816020860160208601611d0d565b601f01601f19169290920160200192915050565b602081526000610b586020830184611d39565b600060208284031215611d8a57600080fd5b5035919050565b6001600160a01b0391909116815260200190565b80356001600160a01b0381168114611dbc57600080fd5b919050565b60008060408385031215611dd457600080fd5b611ddd83611da5565b946020939093013593505050565b600080600060608486031215611e0057600080fd5b611e0984611da5565b9250611e1760208501611da5565b9150604084013590509250925092565b60008060408385031215611e3a57600080fd5b82359150611e4a60208401611da5565b90509250929050565b600060208284031215611e6557600080fd5b610b5882611da5565b634e487b7160e01b600052604160045260246000fd5b60006001600160401b0380841115611e9e57611e9e611e6e565b604051601f8501601f19908116603f01168101908282118183101715611ec657611ec6611e6e565b81604052809350858152868686011115611edf57600080fd5b858560208301376000602087830101525050509392505050565b600060208284031215611f0b57600080fd5b81356001600160401b03811115611f2157600080fd5b8201601f81018413611f3257600080fd5b610d4684823560208401611e84565b60008060408385031215611f5457600080fd5b611f5d83611da5565b915060208301358015158114611f7257600080fd5b809150509250929050565b60008060008060808587031215611f9357600080fd5b611f9c85611da5565b9350611faa60208601611da5565b92506040850135915060608501356001600160401b03811115611fcc57600080fd5b8501601f81018713611fdd57600080fd5b611fec87823560208401611e84565b91505092959194509250565b6000806040838503121561200b57600080fd5b61201483611da5565b9150611e4a60208401611da5565b600181811c9082168061203657607f821691505b6020821081141561205757634e487b7160e01b600052602260045260246000fd5b50919050565b6020808252602d908201527f4552433732313a2063616c6c6572206973206e6f7420746f6b656e206f776e6560408201526c1c881bdc88185c1c1c9bdd9959609a1b606082015260800190565b634e487b7160e01b600052603260045260246000fd5b602080825260189082015277115490cdcc8c4e881a5b9d985b1a59081d1bdad95b88125160421b604082015260600190565b634e487b7160e01b600052601160045260246000fd5b600060001982141561211c5761211c6120f2565b5060010190565b60008351612135818460208801611d0d565b835190830190612149818360208801611d0d565b01949350505050565b60208082526025908201527f4552433732313a207472616e736665722066726f6d20696e636f72726563742060408201526437bbb732b960d91b606082015260800190565b60208082526032908201527f4552433732313a207472616e7366657220746f206e6f6e20455243373231526560408201527131b2b4bb32b91034b6b83632b6b2b73a32b960711b606082015260800190565b76020b1b1b2b9b9a1b7b73a3937b61d1030b1b1b7bab73a1604d1b81526000835161221b816017850160208801611d0d565b7001034b99036b4b9b9b4b733903937b6329607d1b601791840191820152835161224c816028840160208801611d0d565b01602801949350505050565b6001600160a01b038581168252841660208201526040810183905260806060820181905260009061228b90830184611d39565b9695505050505050565b6000602082840312156122a757600080fd5b8151610b5881611cda565b60008160001904831182151516156122cc576122cc6120f2565b500290565b600082198211156122e4576122e46120f2565b500190565b6000816122f8576122f86120f2565b506000190190565b6020808252601c908201527b115490cdcc8c4e881d1bdad95b88185b1c9958591e481b5a5b9d195960221b604082015260600190565b600082821015612348576123486120f2565b500390565b634e487b7160e01b600052603160045260246000fdfe61c92169ef077349011ff0b1383c894d86c5f0b41d986366b58a6cf31e93bedad1f21ec03a6eb050fba156f5316dad461735df521fb446dd42c5a4728e9c70fe65d7a28e3265b37a6474929f336521b332c1681b933f6cb9f3376673440d862a9f2df0fed2c77648de5860a4cc508cd0818c85b8b8a1ab4ceeef8d981c8956a6ddf252ad1be2c89b69c2b068fc378daa952ba7f163c4a11628f55a4df523b3efa264697066735822122053c5d0c0e501f64d4796e88723b381a8199b9b276f468607146920c23e31c9c064736f6c63430008090033",
  "linkReferences": {},
  "deployedLinkReferences": {}
}