{
  "_format": "hh-sol-artifact-1",
  "contractName": "rentMarket",
  "sourceName": "contracts/rentMarket.sol",
  "abi": [
    {
      "inputs": [
        {
          "internalType": "bool",
          "name": "exclusive_",
          "type": "bool"
        }
      ],
      "stateMutability": "nonpayable",
      "type": "constructor"
    },
    {
      "anonymous": false,
      "inputs": [
        {
          "indexed": true,
          "internalType": "address",
          "name": "nftAddress",
          "type": "address"
        },
        {
          "indexed": true,
          "internalType": "uint256",
          "name": "tokenId",
          "type": "uint256"
        },
        {
          "indexed": false,
          "internalType": "uint256",
          "name": "rentFee",
          "type": "uint256"
        },
        {
          "indexed": false,
          "internalType": "address",
          "name": "feeTokenAddress",
          "type": "address"
        },
        {
          "indexed": false,
          "internalType": "uint256",
          "name": "rentFeeByToken",
          "type": "uint256"
        },
        {
          "indexed": false,
          "internalType": "uint256",
          "name": "rentDuration",
          "type": "uint256"
        },
        {
          "indexed": false,
          "internalType": "address",
          "name": "NFTOwnerAddress",
          "type": "address"
        },
        {
          "indexed": true,
          "internalType": "address",
          "name": "changerAddress",
          "type": "address"
        }
      ],
      "name": "ChangeNFT",
      "type": "event"
    },
    {
      "anonymous": false,
      "inputs": [
        {
          "indexed": true,
          "internalType": "address",
          "name": "sender",
          "type": "address"
        }
      ],
      "name": "Fallback",
      "type": "event"
    },
    {
      "anonymous": false,
      "inputs": [
        {
          "indexed": true,
          "internalType": "address",
          "name": "previousOwner",
          "type": "address"
        },
        {
          "indexed": true,
          "internalType": "address",
          "name": "newOwner",
          "type": "address"
        }
      ],
      "name": "OwnershipTransferred",
      "type": "event"
    },
    {
      "anonymous": false,
      "inputs": [
        {
          "indexed": false,
          "internalType": "address",
          "name": "account",
          "type": "address"
        }
      ],
      "name": "Paused",
      "type": "event"
    },
    {
      "anonymous": false,
      "inputs": [
        {
          "indexed": true,
          "internalType": "address",
          "name": "sender",
          "type": "address"
        },
        {
          "indexed": true,
          "internalType": "uint256",
          "name": "value",
          "type": "uint256"
        }
      ],
      "name": "Receive",
      "type": "event"
    },
    {
      "anonymous": false,
      "inputs": [
        {
          "indexed": true,
          "internalType": "address",
          "name": "collectionAddress",
          "type": "address"
        },
        {
          "indexed": false,
          "internalType": "string",
          "name": "uri",
          "type": "string"
        }
      ],
      "name": "RegisterCollection",
      "type": "event"
    },
    {
      "anonymous": false,
      "inputs": [
        {
          "indexed": true,
          "internalType": "address",
          "name": "nftAddress",
          "type": "address"
        },
        {
          "indexed": true,
          "internalType": "uint256",
          "name": "tokenId",
          "type": "uint256"
        },
        {
          "indexed": false,
          "internalType": "uint256",
          "name": "rentFee",
          "type": "uint256"
        },
        {
          "indexed": false,
          "internalType": "uint256",
          "name": "rentDuration",
          "type": "uint256"
        },
        {
          "indexed": true,
          "internalType": "address",
          "name": "NFTOwnerAddress",
          "type": "address"
        }
      ],
      "name": "RegisterNFT",
      "type": "event"
    },
    {
      "anonymous": false,
      "inputs": [
        {
          "indexed": true,
          "internalType": "address",
          "name": "serviceAddress",
          "type": "address"
        },
        {
          "indexed": false,
          "internalType": "string",
          "name": "uri",
          "type": "string"
        }
      ],
      "name": "RegisterService",
      "type": "event"
    },
    {
      "anonymous": false,
      "inputs": [
        {
          "indexed": true,
          "internalType": "address",
          "name": "tokenAddress",
          "type": "address"
        },
        {
          "indexed": false,
          "internalType": "string",
          "name": "name",
          "type": "string"
        }
      ],
      "name": "RegisterToken",
      "type": "event"
    },
    {
      "anonymous": false,
      "inputs": [
        {
          "indexed": true,
          "internalType": "address",
          "name": "nftAddress",
          "type": "address"
        },
        {
          "indexed": true,
          "internalType": "uint256",
          "name": "tokenId",
          "type": "uint256"
        },
        {
          "indexed": false,
          "internalType": "uint256",
          "name": "rentFee",
          "type": "uint256"
        },
        {
          "indexed": false,
          "internalType": "address",
          "name": "feeTokenAddress",
          "type": "address"
        },
        {
          "indexed": false,
          "internalType": "uint256",
          "name": "rentFeeByToken",
          "type": "uint256"
        },
        {
          "indexed": false,
          "internalType": "bool",
          "name": "isRentByToken",
          "type": "bool"
        },
        {
          "indexed": false,
          "internalType": "uint256",
          "name": "rentDuration",
          "type": "uint256"
        },
        {
          "indexed": false,
          "internalType": "address",
          "name": "renterAddress",
          "type": "address"
        },
        {
          "indexed": true,
          "internalType": "address",
          "name": "renteeAddress",
          "type": "address"
        },
        {
          "indexed": false,
          "internalType": "address",
          "name": "serviceAddress",
          "type": "address"
        },
        {
          "indexed": false,
          "internalType": "uint256",
          "name": "rentStartTimestamp",
          "type": "uint256"
        }
      ],
      "name": "RentNFT",
      "type": "event"
    },
    {
      "anonymous": false,
      "inputs": [
        {
          "indexed": true,
          "internalType": "address",
          "name": "nftAddress",
          "type": "address"
        },
        {
          "indexed": true,
          "internalType": "uint256",
          "name": "tokenId",
          "type": "uint256"
        },
        {
          "indexed": false,
          "internalType": "uint256",
          "name": "rentFee",
          "type": "uint256"
        },
        {
          "indexed": false,
          "internalType": "address",
          "name": "feeTokenAddress",
          "type": "address"
        },
        {
          "indexed": false,
          "internalType": "uint256",
          "name": "rentFeeByToken",
          "type": "uint256"
        },
        {
          "indexed": false,
          "internalType": "bool",
          "name": "isRentByToken",
          "type": "bool"
        },
        {
          "indexed": false,
          "internalType": "uint256",
          "name": "rentDuration",
          "type": "uint256"
        },
        {
          "indexed": false,
          "internalType": "address",
          "name": "renterAddress",
          "type": "address"
        },
        {
          "indexed": true,
          "internalType": "address",
          "name": "renteeAddress",
          "type": "address"
        },
        {
          "indexed": false,
          "internalType": "address",
          "name": "serviceAddress",
          "type": "address"
        },
        {
          "indexed": false,
          "internalType": "uint256",
          "name": "rentStartTimestamp",
          "type": "uint256"
        }
      ],
      "name": "SettleRentData",
      "type": "event"
    },
    {
      "anonymous": false,
      "inputs": [
        {
          "indexed": false,
          "internalType": "address",
          "name": "account",
          "type": "address"
        }
      ],
      "name": "Unpaused",
      "type": "event"
    },
    {
      "anonymous": false,
      "inputs": [
        {
          "indexed": true,
          "internalType": "address",
          "name": "collectionAddress",
          "type": "address"
        },
        {
          "indexed": false,
          "internalType": "string",
          "name": "uri",
          "type": "string"
        }
      ],
      "name": "UnregisterCollection",
      "type": "event"
    },
    {
      "anonymous": false,
      "inputs": [
        {
          "indexed": true,
          "internalType": "address",
          "name": "nftAddress",
          "type": "address"
        },
        {
          "indexed": true,
          "internalType": "uint256",
          "name": "tokenId",
          "type": "uint256"
        },
        {
          "indexed": false,
          "internalType": "uint256",
          "name": "rentFee",
          "type": "uint256"
        },
        {
          "indexed": false,
          "internalType": "address",
          "name": "feeTokenAddress",
          "type": "address"
        },
        {
          "indexed": false,
          "internalType": "uint256",
          "name": "rentFeeByToken",
          "type": "uint256"
        },
        {
          "indexed": false,
          "internalType": "uint256",
          "name": "rentDuration",
          "type": "uint256"
        },
        {
          "indexed": false,
          "internalType": "address",
          "name": "NFTOwnerAddress",
          "type": "address"
        },
        {
          "indexed": true,
          "internalType": "address",
          "name": "UnregisterAddress",
          "type": "address"
        }
      ],
      "name": "UnregisterNFT",
      "type": "event"
    },
    {
      "anonymous": false,
      "inputs": [
        {
          "indexed": true,
          "internalType": "address",
          "name": "serviceAddress",
          "type": "address"
        },
        {
          "indexed": false,
          "internalType": "string",
          "name": "uri",
          "type": "string"
        }
      ],
      "name": "UnregisterService",
      "type": "event"
    },
    {
      "anonymous": false,
      "inputs": [
        {
          "indexed": true,
          "internalType": "address",
          "name": "tokenAddress",
          "type": "address"
        },
        {
          "indexed": false,
          "internalType": "string",
          "name": "name",
          "type": "string"
        }
      ],
      "name": "UnregisterToken",
      "type": "event"
    },
    {
      "anonymous": false,
      "inputs": [
        {
          "indexed": true,
          "internalType": "address",
          "name": "nftAddress",
          "type": "address"
        },
        {
          "indexed": true,
          "internalType": "uint256",
          "name": "tokenId",
          "type": "uint256"
        },
        {
          "indexed": false,
          "internalType": "uint256",
          "name": "rentFee",
          "type": "uint256"
        },
        {
          "indexed": false,
          "internalType": "address",
          "name": "feeTokenAddress",
          "type": "address"
        },
        {
          "indexed": false,
          "internalType": "uint256",
          "name": "rentFeeByToken",
          "type": "uint256"
        },
        {
          "indexed": false,
          "internalType": "bool",
          "name": "isRentByToken",
          "type": "bool"
        },
        {
          "indexed": false,
          "internalType": "uint256",
          "name": "rentDuration",
          "type": "uint256"
        },
        {
          "indexed": false,
          "internalType": "address",
          "name": "renterAddress",
          "type": "address"
        },
        {
          "indexed": true,
          "internalType": "address",
          "name": "renteeAddress",
          "type": "address"
        },
        {
          "indexed": false,
          "internalType": "address",
          "name": "serviceAddress",
          "type": "address"
        },
        {
          "indexed": false,
          "internalType": "uint256",
          "name": "rentStartTimestamp",
          "type": "uint256"
        }
      ],
      "name": "UnrentNFT",
      "type": "event"
    },
    {
      "anonymous": false,
      "inputs": [
        {
          "indexed": true,
          "internalType": "address",
          "name": "recipient",
          "type": "address"
        },
        {
          "indexed": true,
          "internalType": "address",
          "name": "tokenAddress",
          "type": "address"
        },
        {
          "indexed": true,
          "internalType": "uint256",
          "name": "amount",
          "type": "uint256"
        }
      ],
      "name": "WithdrawMyBalance",
      "type": "event"
    },
    {
      "stateMutability": "payable",
      "type": "fallback"
    },
    {
      "inputs": [
        {
          "internalType": "address",
          "name": "nftAddress",
          "type": "address"
        },
        {
          "internalType": "uint256",
          "name": "tokenId",
          "type": "uint256"
        },
        {
          "internalType": "uint256",
          "name": "rentFee",
          "type": "uint256"
        },
        {
          "internalType": "address",
          "name": "feeTokenAddress",
          "type": "address"
        },
        {
          "internalType": "uint256",
          "name": "rentFeeByToken",
          "type": "uint256"
        },
        {
          "internalType": "uint256",
          "name": "rentDuration",
          "type": "uint256"
        }
      ],
      "name": "changeNFT",
      "outputs": [
        {
          "internalType": "bool",
          "name": "success",
          "type": "bool"
        }
      ],
      "stateMutability": "nonpayable",
      "type": "function"
    },
    {
      "inputs": [
        {
          "internalType": "address",
          "name": "tokenAddress_",
          "type": "address"
        },
        {
          "internalType": "address",
          "name": "rewardTokenShareContractAddress_",
          "type": "address"
        }
      ],
      "name": "distributeVestingToken",
      "outputs": [],
      "stateMutability": "nonpayable",
      "type": "function"
    },
    {
      "inputs": [],
      "name": "exclusive",
      "outputs": [
        {
          "internalType": "bool",
          "name": "",
          "type": "bool"
        }
      ],
      "stateMutability": "view",
      "type": "function"
    },
    {
      "inputs": [],
      "name": "getAllAccountBalance",
      "outputs": [
        {
          "components": [
            {
              "internalType": "address",
              "name": "accountAddress",
              "type": "address"
            },
            {
              "internalType": "address",
              "name": "tokenAddress",
              "type": "address"
            },
            {
              "internalType": "uint256",
              "name": "amount",
              "type": "uint256"
            }
          ],
          "internalType": "struct accountBalanceIterableMap.accountBalance[]",
          "name": "",
          "type": "tuple[]"
        }
      ],
      "stateMutability": "view",
      "type": "function"
    },
    {
      "inputs": [],
      "name": "getAllCollection",
      "outputs": [
        {
          "components": [
            {
              "internalType": "address",
              "name": "collectionAddress",
              "type": "address"
            },
            {
              "internalType": "string",
              "name": "uri",
              "type": "string"
            }
          ],
          "internalType": "struct collectionDataIterableMap.collectionData[]",
          "name": "",
          "type": "tuple[]"
        }
      ],
      "stateMutability": "view",
      "type": "function"
    },
    {
      "inputs": [],
      "name": "getAllPendingRentFee",
      "outputs": [
        {
          "components": [
            {
              "internalType": "address",
              "name": "renterAddress",
              "type": "address"
            },
            {
              "internalType": "address",
              "name": "serviceAddress",
              "type": "address"
            },
            {
              "internalType": "address",
              "name": "feeTokenAddress",
              "type": "address"
            },
            {
              "internalType": "uint256",
              "name": "amount",
              "type": "uint256"
            }
          ],
          "internalType": "struct pendingRentFeeIterableMap.pendingRentFee[]",
          "name": "",
          "type": "tuple[]"
        }
      ],
      "stateMutability": "view",
      "type": "function"
    },
    {
      "inputs": [],
      "name": "getAllRegisterData",
      "outputs": [
        {
          "components": [
            {
              "internalType": "address",
              "name": "nftAddress",
              "type": "address"
            },
            {
              "internalType": "uint256",
              "name": "tokenId",
              "type": "uint256"
            },
            {
              "internalType": "uint256",
              "name": "rentFee",
              "type": "uint256"
            },
            {
              "internalType": "address",
              "name": "feeTokenAddress",
              "type": "address"
            },
            {
              "internalType": "uint256",
              "name": "rentFeeByToken",
              "type": "uint256"
            },
            {
              "internalType": "uint256",
              "name": "rentDuration",
              "type": "uint256"
            }
          ],
          "internalType": "struct registerDataIterableMap.registerData[]",
          "name": "",
          "type": "tuple[]"
        }
      ],
      "stateMutability": "view",
      "type": "function"
    },
    {
      "inputs": [],
      "name": "getAllRentData",
      "outputs": [
        {
          "components": [
            {
              "internalType": "address",
              "name": "nftAddress",
              "type": "address"
            },
            {
              "internalType": "uint256",
              "name": "tokenId",
              "type": "uint256"
            },
            {
              "internalType": "uint256",
              "name": "rentFee",
              "type": "uint256"
            },
            {
              "internalType": "address",
              "name": "feeTokenAddress",
              "type": "address"
            },
            {
              "internalType": "uint256",
              "name": "rentFeeByToken",
              "type": "uint256"
            },
            {
              "internalType": "bool",
              "name": "isRentByToken",
              "type": "bool"
            },
            {
              "internalType": "uint256",
              "name": "rentDuration",
              "type": "uint256"
            },
            {
              "internalType": "address",
              "name": "renterAddress",
              "type": "address"
            },
            {
              "internalType": "address",
              "name": "renteeAddress",
              "type": "address"
            },
            {
              "internalType": "address",
              "name": "serviceAddress",
              "type": "address"
            },
            {
              "internalType": "uint256",
              "name": "rentStartTimestamp",
              "type": "uint256"
            }
          ],
          "internalType": "struct rentDataIterableMap.rentData[]",
          "name": "",
          "type": "tuple[]"
        }
      ],
      "stateMutability": "view",
      "type": "function"
    },
    {
      "inputs": [],
      "name": "getAllService",
      "outputs": [
        {
          "components": [
            {
              "internalType": "address",
              "name": "serviceAddress",
              "type": "address"
            },
            {
              "internalType": "string",
              "name": "uri",
              "type": "string"
            }
          ],
          "internalType": "struct serviceDataIterableMap.serviceData[]",
          "name": "",
          "type": "tuple[]"
        }
      ],
      "stateMutability": "view",
      "type": "function"
    },
    {
      "inputs": [],
      "name": "getAllToken",
      "outputs": [
        {
          "components": [
            {
              "internalType": "address",
              "name": "tokenAddress",
              "type": "address"
            },
            {
              "internalType": "string",
              "name": "name",
              "type": "string"
            }
          ],
          "internalType": "struct tokenDataIterableMap.tokenData[]",
          "name": "",
          "type": "tuple[]"
        }
      ],
      "stateMutability": "view",
      "type": "function"
    },
    {
      "inputs": [
        {
          "internalType": "address",
          "name": "collectionAddress",
          "type": "address"
        }
      ],
      "name": "getCollection",
      "outputs": [
        {
          "components": [
            {
              "internalType": "address",
              "name": "collectionAddress",
              "type": "address"
            },
            {
              "internalType": "string",
              "name": "uri",
              "type": "string"
            }
          ],
          "internalType": "struct collectionDataIterableMap.collectionData",
          "name": "",
          "type": "tuple"
        }
      ],
      "stateMutability": "view",
      "type": "function"
    },
    {
      "inputs": [],
      "name": "getFeeQuota",
      "outputs": [
        {
          "internalType": "uint256",
          "name": "renterFeeQuota",
          "type": "uint256"
        },
        {
          "internalType": "uint256",
          "name": "serviceFeeQuota",
          "type": "uint256"
        },
        {
          "internalType": "uint256",
          "name": "marketFeeQuota",
          "type": "uint256"
        }
      ],
      "stateMutability": "view",
      "type": "function"
    },
    {
      "inputs": [],
      "name": "getMarketShareAddress",
      "outputs": [
        {
          "internalType": "address",
          "name": "shareAddress",
          "type": "address"
        }
      ],
      "stateMutability": "view",
      "type": "function"
    },
    {
      "inputs": [
        {
          "internalType": "address",
          "name": "tokenAddress",
          "type": "address"
        }
      ],
      "name": "getMyBalance",
      "outputs": [
        {
          "internalType": "uint256",
          "name": "balance",
          "type": "uint256"
        }
      ],
      "stateMutability": "view",
      "type": "function"
    },
    {
      "inputs": [
        {
          "internalType": "address",
          "name": "nftAddress",
          "type": "address"
        },
        {
          "internalType": "uint256",
          "name": "tokenId",
          "type": "uint256"
        }
      ],
      "name": "getRegisterData",
      "outputs": [
        {
          "components": [
            {
              "internalType": "address",
              "name": "nftAddress",
              "type": "address"
            },
            {
              "internalType": "uint256",
              "name": "tokenId",
              "type": "uint256"
            },
            {
              "internalType": "uint256",
              "name": "rentFee",
              "type": "uint256"
            },
            {
              "internalType": "address",
              "name": "feeTokenAddress",
              "type": "address"
            },
            {
              "internalType": "uint256",
              "name": "rentFeeByToken",
              "type": "uint256"
            },
            {
              "internalType": "uint256",
              "name": "rentDuration",
              "type": "uint256"
            }
          ],
          "internalType": "struct registerDataIterableMap.registerData",
          "name": "",
          "type": "tuple"
        }
      ],
      "stateMutability": "view",
      "type": "function"
    },
    {
      "inputs": [
        {
          "internalType": "address",
          "name": "nftAddress",
          "type": "address"
        },
        {
          "internalType": "uint256",
          "name": "tokenId",
          "type": "uint256"
        }
      ],
      "name": "getRentData",
      "outputs": [
        {
          "components": [
            {
              "internalType": "address",
              "name": "nftAddress",
              "type": "address"
            },
            {
              "internalType": "uint256",
              "name": "tokenId",
              "type": "uint256"
            },
            {
              "internalType": "uint256",
              "name": "rentFee",
              "type": "uint256"
            },
            {
              "internalType": "address",
              "name": "feeTokenAddress",
              "type": "address"
            },
            {
              "internalType": "uint256",
              "name": "rentFeeByToken",
              "type": "uint256"
            },
            {
              "internalType": "bool",
              "name": "isRentByToken",
              "type": "bool"
            },
            {
              "internalType": "uint256",
              "name": "rentDuration",
              "type": "uint256"
            },
            {
              "internalType": "address",
              "name": "renterAddress",
              "type": "address"
            },
            {
              "internalType": "address",
              "name": "renteeAddress",
              "type": "address"
            },
            {
              "internalType": "address",
              "name": "serviceAddress",
              "type": "address"
            },
            {
              "internalType": "uint256",
              "name": "rentStartTimestamp",
              "type": "uint256"
            }
          ],
          "internalType": "struct rentDataIterableMap.rentData",
          "name": "",
          "type": "tuple"
        }
      ],
      "stateMutability": "view",
      "type": "function"
    },
    {
      "inputs": [
        {
          "internalType": "address",
          "name": "serviceAddress",
          "type": "address"
        }
      ],
      "name": "getService",
      "outputs": [
        {
          "components": [
            {
              "internalType": "address",
              "name": "serviceAddress",
              "type": "address"
            },
            {
              "internalType": "string",
              "name": "uri",
              "type": "string"
            }
          ],
          "internalType": "struct serviceDataIterableMap.serviceData",
          "name": "",
          "type": "tuple"
        }
      ],
      "stateMutability": "view",
      "type": "function"
    },
    {
      "inputs": [],
      "name": "getThreshold",
      "outputs": [
        {
          "internalType": "uint256",
          "name": "",
          "type": "uint256"
        }
      ],
      "stateMutability": "view",
      "type": "function"
    },
    {
      "inputs": [
        {
          "internalType": "address",
          "name": "tokenAddress_",
          "type": "address"
        }
      ],
      "name": "getTotalAccountBalance",
      "outputs": [
        {
          "internalType": "uint256",
          "name": "totalAccountBalance_",
          "type": "uint256"
        }
      ],
      "stateMutability": "view",
      "type": "function"
    },
    {
      "inputs": [
        {
          "internalType": "address",
          "name": "account",
          "type": "address"
        }
      ],
      "name": "isOwnerOrRenter",
      "outputs": [
        {
          "internalType": "bool",
          "name": "success",
          "type": "bool"
        }
      ],
      "stateMutability": "view",
      "type": "function"
    },
    {
      "inputs": [],
      "name": "owner",
      "outputs": [
        {
          "internalType": "address",
          "name": "",
          "type": "address"
        }
      ],
      "stateMutability": "view",
      "type": "function"
    },
    {
      "inputs": [],
      "name": "pause",
      "outputs": [],
      "stateMutability": "nonpayable",
      "type": "function"
    },
    {
      "inputs": [],
      "name": "paused",
      "outputs": [
        {
          "internalType": "bool",
          "name": "",
          "type": "bool"
        }
      ],
      "stateMutability": "view",
      "type": "function"
    },
    {
      "inputs": [
        {
          "internalType": "address",
          "name": "collectionAddress",
          "type": "address"
        },
        {
          "internalType": "string",
          "name": "uri",
          "type": "string"
        }
      ],
      "name": "registerCollection",
      "outputs": [
        {
          "internalType": "bool",
          "name": "success",
          "type": "bool"
        }
      ],
      "stateMutability": "nonpayable",
      "type": "function"
    },
    {
      "inputs": [
        {
          "internalType": "address",
          "name": "nftAddress",
          "type": "address"
        },
        {
          "internalType": "uint256",
          "name": "tokenId",
          "type": "uint256"
        }
      ],
      "name": "registerNFT",
      "outputs": [
        {
          "internalType": "bool",
          "name": "success",
          "type": "bool"
        }
      ],
      "stateMutability": "nonpayable",
      "type": "function"
    },
    {
      "inputs": [
        {
          "internalType": "address",
          "name": "serviceAddress",
          "type": "address"
        },
        {
          "internalType": "string",
          "name": "uri",
          "type": "string"
        }
      ],
      "name": "registerService",
      "outputs": [
        {
          "internalType": "bool",
          "name": "success",
          "type": "bool"
        }
      ],
      "stateMutability": "nonpayable",
      "type": "function"
    },
    {
      "inputs": [
        {
          "internalType": "address",
          "name": "tokenAddress",
          "type": "address"
        },
        {
          "internalType": "string",
          "name": "name",
          "type": "string"
        }
      ],
      "name": "registerToken",
      "outputs": [
        {
          "internalType": "bool",
          "name": "success",
          "type": "bool"
        }
      ],
      "stateMutability": "nonpayable",
      "type": "function"
    },
    {
      "inputs": [],
      "name": "renounceOwnership",
      "outputs": [],
      "stateMutability": "nonpayable",
      "type": "function"
    },
    {
      "inputs": [
        {
          "internalType": "address",
          "name": "nftAddress",
          "type": "address"
        },
        {
          "internalType": "uint256",
          "name": "tokenId",
          "type": "uint256"
        },
        {
          "internalType": "address",
          "name": "serviceAddress",
          "type": "address"
        }
      ],
      "name": "rentNFT",
      "outputs": [
        {
          "internalType": "bool",
          "name": "success",
          "type": "bool"
        }
      ],
      "stateMutability": "payable",
      "type": "function"
    },
    {
      "inputs": [
        {
          "internalType": "address",
          "name": "nftAddress",
          "type": "address"
        },
        {
          "internalType": "uint256",
          "name": "tokenId",
          "type": "uint256"
        },
        {
          "internalType": "address",
          "name": "serviceAddress",
          "type": "address"
        }
      ],
      "name": "rentNFTByToken",
      "outputs": [
        {
          "internalType": "bool",
          "name": "success",
          "type": "bool"
        }
      ],
      "stateMutability": "payable",
      "type": "function"
    },
    {
      "inputs": [
        {
          "internalType": "uint256",
          "name": "renterFeeQuota",
          "type": "uint256"
        },
        {
          "internalType": "uint256",
          "name": "serviceFeeQuota",
          "type": "uint256"
        },
        {
          "internalType": "uint256",
          "name": "marketFeeQuota",
          "type": "uint256"
        }
      ],
      "name": "setFeeQuota",
      "outputs": [],
      "stateMutability": "nonpayable",
      "type": "function"
    },
    {
      "inputs": [
        {
          "internalType": "address",
          "name": "shareAddress",
          "type": "address"
        }
      ],
      "name": "setMarketShareAddress",
      "outputs": [],
      "stateMutability": "nonpayable",
      "type": "function"
    },
    {
      "inputs": [
        {
          "internalType": "uint256",
          "name": "threshold_",
          "type": "uint256"
        }
      ],
      "name": "setThreshold",
      "outputs": [],
      "stateMutability": "nonpayable",
      "type": "function"
    },
    {
      "inputs": [
        {
          "internalType": "address",
          "name": "nftAddress",
          "type": "address"
        },
        {
          "internalType": "uint256",
          "name": "tokenId",
          "type": "uint256"
        }
      ],
      "name": "settleRentData",
      "outputs": [
        {
          "internalType": "bool",
          "name": "success",
          "type": "bool"
        }
      ],
      "stateMutability": "nonpayable",
      "type": "function"
    },
    {
      "inputs": [
        {
          "internalType": "address",
          "name": "newOwner",
          "type": "address"
        }
      ],
      "name": "transferOwnership",
      "outputs": [],
      "stateMutability": "nonpayable",
      "type": "function"
    },
    {
      "inputs": [],
      "name": "unpause",
      "outputs": [],
      "stateMutability": "nonpayable",
      "type": "function"
    },
    {
      "inputs": [
        {
          "internalType": "address",
          "name": "collectionAddress",
          "type": "address"
        }
      ],
      "name": "unregisterCollection",
      "outputs": [
        {
          "internalType": "bool",
          "name": "success",
          "type": "bool"
        }
      ],
      "stateMutability": "nonpayable",
      "type": "function"
    },
    {
      "inputs": [
        {
          "internalType": "address",
          "name": "nftAddress",
          "type": "address"
        },
        {
          "internalType": "uint256",
          "name": "tokenId",
          "type": "uint256"
        }
      ],
      "name": "unregisterNFT",
      "outputs": [
        {
          "internalType": "bool",
          "name": "success",
          "type": "bool"
        }
      ],
      "stateMutability": "nonpayable",
      "type": "function"
    },
    {
      "inputs": [
        {
          "internalType": "address",
          "name": "serviceAddress",
          "type": "address"
        }
      ],
      "name": "unregisterService",
      "outputs": [
        {
          "internalType": "bool",
          "name": "success",
          "type": "bool"
        }
      ],
      "stateMutability": "nonpayable",
      "type": "function"
    },
    {
      "inputs": [
        {
          "internalType": "address",
          "name": "tokenAddress",
          "type": "address"
        }
      ],
      "name": "unregisterToken",
      "outputs": [
        {
          "internalType": "bool",
          "name": "success",
          "type": "bool"
        }
      ],
      "stateMutability": "nonpayable",
      "type": "function"
    },
    {
      "inputs": [
        {
          "internalType": "address",
          "name": "nftAddress",
          "type": "address"
        },
        {
          "internalType": "uint256",
          "name": "tokenId",
          "type": "uint256"
        }
      ],
      "name": "unrentNFT",
      "outputs": [
        {
          "internalType": "bool",
          "name": "success",
          "type": "bool"
        }
      ],
      "stateMutability": "nonpayable",
      "type": "function"
    },
    {
      "inputs": [
        {
          "internalType": "address",
          "name": "recipient",
          "type": "address"
        },
        {
          "internalType": "address",
          "name": "tokenAddress",
          "type": "address"
        }
      ],
      "name": "withdrawMyBalance",
      "outputs": [
        {
          "internalType": "bool",
          "name": "success",
          "type": "bool"
        }
      ],
      "stateMutability": "payable",
      "type": "function"
    },
    {
      "stateMutability": "payable",
      "type": "receive"
    }
  ],
  "bytecode": "0x6080604052670de0b6b3a76400006002556201518060035560236004556023600555601e60065560646007553480156200003857600080fd5b50604051620060f2380380620060f28339810160408190526200005b91620000ee565b62000066336200009e565b6000805460ff60a01b19169055600180546001600160a01b031916331790556018805491151560ff1990921691909117905562000119565b600080546001600160a01b038381166001600160a01b0319831681178455604051919092169283917f8be0079c531659141344cd1fd0a4f28419497f9722a3daafe3b4186f6b6457e09190a35050565b6000602082840312156200010157600080fd5b815180151581146200011257600080fd5b9392505050565b615fc980620001296000396000f3fe6080604052600436106101e55760003560e01c806301cf2bae1461024657806301ff74f71461027957806306eb924f146102a357806315a52302146102c3578063173cb999146102f057806317a6b609146103105780631c2c2c24146103305780632736a862146103525780632d740226146103745780632e6379ed146103945780633f4ba83a146103a75780634419ebb6146103bc57806345d44eda146103e95780634b6c05fa146104095780635c975abb146104305780636558fce6146104455780636b4a08961461046557806370473d8614610485578063715018a6146104a757806377860cdd146104bc5780637e3ef7cd146104dc57806381ac825c146104fc57806383b2f9111461050f5780638456cb591461053c57806385e3c1d4146105515780638bb72e83146105735780638da5cb5b1461059557806395dbd440146105aa578063960bfe04146105cc578063adee9abd146105ec578063d4002fed1461060c578063d4fbeb191461061f578063e2fcbf731461063f578063e40de88714610661578063e5d1420f14610681578063e75235b8146106a1578063e7823fac146106b6578063e8592fc7146106d6578063ec51c0d1146106f6578063ee5afa5214610727578063eec3104214610747578063f2fde38b1461076957610219565b3661021957604051349033907fd6717f327e0cb88b4a97a7f67a453e9258252c34937ccbdd86de7cb840e7def390600090a3005b60405133907fdd0c5778ddb0b0501649417aeffed44057db3d5d530231758c8dc5ef6eeb789490600090a2005b34801561025257600080fd5b506102666102613660046151be565b610789565b6040519081526020015b60405180910390f35b34801561028557600080fd5b506018546102939060ff1681565b6040519015158152602001610270565b3480156102af57600080fd5b506102936102be366004615271565b61084a565b3480156102cf57600080fd5b506102e36102de3660046151be565b610a05565b604051610270919061539b565b3480156102fc57600080fd5b5061029361030b3660046151be565b610a9b565b34801561031c57600080fd5b5061029361032b3660046153ae565b610c44565b34801561033c57600080fd5b50610345611028565b604051610270919061547d565b34801561035e57600080fd5b5061037261036d3660046154cc565b611199565b005b34801561038057600080fd5b5061029361038f366004615271565b6111fc565b6102936103a23660046154f8565b61138a565b3480156103b357600080fd5b5061037261177c565b3480156103c857600080fd5b506103dc6103d73660046153ae565b61178e565b6040516102709190615531565b3480156103f557600080fd5b506102936104043660046151be565b61182a565b34801561041557600080fd5b506001546001600160a01b03165b6040516102709190615540565b34801561043c57600080fd5b50610293611a6f565b34801561045157600080fd5b50610293610460366004615554565b611a7f565b34801561047157600080fd5b506102936104803660046153ae565b611d5d565b34801561049157600080fd5b5061049a61240b565b60405161027091906155f5565b3480156104b357600080fd5b50610372612535565b3480156104c857600080fd5b506102936104d73660046151be565b612547565b3480156104e857600080fd5b506102666104f73660046151be565b61276b565b61029361050a366004615637565b6127fa565b34801561051b57600080fd5b5061052f61052a3660046153ae565b612f93565b6040516102709190615679565b34801561054857600080fd5b50610372613027565b34801561055d57600080fd5b50610566613037565b6040516102709190615687565b34801561057f57600080fd5b506105886131cb565b60405161027091906156e9565b3480156105a157600080fd5b506104236132fe565b3480156105b657600080fd5b506105bf61330d565b604051610270919061575b565b3480156105d857600080fd5b506103726105e73660046157b0565b613494565b3480156105f857600080fd5b506102936106073660046151be565b6134a1565b61029361061a366004615637565b6136c5565b34801561062b57600080fd5b5061029361063a366004615271565b613c6c565b34801561064b57600080fd5b50610654613dfa565b60405161027091906157c9565b34801561066d57600080fd5b506102e361067c3660046151be565b613f03565b34801561068d57600080fd5b5061029361069c3660046153ae565b613f45565b3480156106ad57600080fd5b50600754610266565b3480156106c257600080fd5b506103726106d13660046154f8565b61421b565b3480156106e257600080fd5b506102936106f13660046153ae565b6144f5565b34801561070257600080fd5b5060045460055460065460408051938452602084019290925290820152606001610270565b34801561073357600080fd5b506103726107423660046151be565b614a65565b34801561075357600080fd5b5061075c614a8f565b6040516102709190615821565b34801561077557600080fd5b506103726107843660046151be565b614c16565b6000806107946150cd565b60005b601554811015610841576015805460149190839081106107b9576107b9615876565b906000526020600020016040516107d091906158c1565b908152604080516020928190038301812060608201835260018101546001600160a01b039081168352600282015481169483018590526003909101549282019290925293508616141561082f57604082015161082c9084615973565b92505b806108398161598b565b915050610797565b50909392505050565b6000610854614c8f565b61085c614cee565b6040516360f353e160e01b815273__$79a40a2052c9947e027843e42106f8b048$__906360f353e19061089690600a9087906004016159a6565b60206040518083038186803b1580156108ae57600080fd5b505af41580156108c2573d6000803e3d6000fd5b505050506040513d601f19601f820116820180604052508101906108e691906159cd565b1561090c5760405162461bcd60e51b8152600401610903906159e8565b60405180910390fd5b60405163287af74760e01b815260009073__$79a40a2052c9947e027843e42106f8b048$__9063287af7479061094b90600a9088908890600401615a05565b60206040518083038186803b15801561096357600080fd5b505af4158015610977573d6000803e3d6000fd5b505050506040513d601f19601f8201168201806040525081019061099b91906159cd565b9050600181151514156109f357836001600160a01b03167fdcc2016b74f9e1be59c35f005623093f22ee185961aa79657be041dba04ed0a4846040516109e19190615a38565b60405180910390a260019150506109ff565b60009150506109ff565b505b92915050565b610a0d6150ed565b604051631eb966b960e01b815273__$a27ab5a2953dc10a9c552591268754b616$__90631eb966b990610a4790600c9086906004016159a6565b60006040518083038186803b158015610a5f57600080fd5b505af4158015610a73573d6000803e3d6000fd5b505050506040513d6000823e601f3d908101601f191682016040526109ff9190810190615b0b565b6000806060600080610aab614a8f565b905060005b8151811015610bac576000828281518110610acd57610acd615876565b6020026020010151600001519050806001600160a01b031688604051602401610af69190615540565b60408051601f198184030181529181526020820180516001600160e01b03166370a0823160e01b17905251610b2b9190615b3f565b600060405180830381855afa9150503d8060008114610b66576040519150601f19603f3d011682016040523d82523d6000602084013e610b6b565b606091505b5080519197509550600090610b899087016020908101908801615b5b565b9050610b958186615973565b945050508080610ba49061598b565b915050610ab0565b508115610bbf5750600195945050505050565b6000610bc9611028565b905060005b8151811015610c36576000828281518110610beb57610beb615876565b602002602001015161010001519050886001600160a01b0316816001600160a01b03161415610c235750600198975050505050505050565b5080610c2e8161598b565b915050610bce565b506000979650505050505050565b6000610c4e614cee565b6040516304ecf28360e41b815273__$aabfbf51bc7bf3b8af0580fb7224204a01$__90634ecf283090610c8a90600e9087908790600401615b74565b60206040518083038186803b158015610ca257600080fd5b505af4158015610cb6573d6000803e3d6000fd5b505050506040513d601f19601f82011682018060405250810190610cda91906159cd565b15610d0d5760405162461bcd60e51b815260206004820152600360248201526229269960e91b6044820152606401610903565b6000610d198433614d36565b90506000610d278585614de9565b90506001600160a01b038116610d685760405162461bcd60e51b815260040161090390602080825260049082015263524d323160e01b604082015260600190565b60018215151480610d8157506001600160a01b03811633145b80610e1757506040516360f353e160e01b815273__$79a40a2052c9947e027843e42106f8b048$__906360f353e190610dc190600a9033906004016159a6565b60206040518083038186803b158015610dd957600080fd5b505af4158015610ded573d6000803e3d6000fd5b505050506040513d601f19601f82011682018060405250810190610e1191906159cd565b15156001145b610e495760405162461bcd60e51b815260206004820152600360248201526214934d60ea1b6044820152606401610903565b6040516360f353e160e01b815273__$79a40a2052c9947e027843e42106f8b048$__906360f353e190610e8390600a9089906004016159a6565b60206040518083038186803b158015610e9b57600080fd5b505af4158015610eaf573d6000803e3d6000fd5b505050506040513d601f19601f82011682018060405250810190610ed391906159cd565b1515600114610f0d5760405162461bcd60e51b8152600401610903906020808252600490820152632926991960e11b604082015260600190565b60025460035460405163cddd4b6760e01b815260009273__$aabfbf51bc7bf3b8af0580fb7224204a01$__9263cddd4b6792610f5892600e928c928c92918991829190600401615b93565b60206040518083038186803b158015610f7057600080fd5b505af4158015610f84573d6000803e3d6000fd5b505050506040513d601f19601f82011682018060405250810190610fa891906159cd565b90506001811515141561101c57816001600160a01b031685876001600160a01b03167f582e65d918b73308f2eb058e75e68168f22c49c2994530f72d46177c78435cbb600254600354604051611008929190918252602082015260400190565b60405180910390a4600193505050506109ff565b600093505050506109ff565b6011546060906000906001600160401b03811115611048576110486151db565b60405190808252806020026020018201604052801561108157816020015b61106e615105565b8152602001906001900390816110665790505b50905060005b601154811015611193576011805460109190839081106110a9576110a9615876565b906000526020600020016040516110c091906158c1565b9081526040805191829003602090810183206101608401835260018101546001600160a01b03908116855260028201549285019290925260038101549284019290925260048201548116606084015260058201546080840152600682015460ff16151560a0840152600782015460c08401526008820154811660e084015260098201548116610100840152600a82015416610120830152600b0154610140820152825183908390811061117557611175615876565b6020026020010181905250808061118b9061598b565b915050611087565b50919050565b6111a1614c8f565b806111ac8385615973565b6111b69190615973565b6064146111ee5760405162461bcd60e51b8152600401610903906020808252600490820152632926989960e11b604082015260600190565b600492909255600555600655565b6000611206614c8f565b61120e614cee565b604051638c9a6cc360e01b815273__$a27ab5a2953dc10a9c552591268754b616$__90638c9a6cc39061124890600c9087906004016159a6565b60206040518083038186803b15801561126057600080fd5b505af4158015611274573d6000803e3d6000fd5b505050506040513d601f19601f8201168201806040525081019061129891906159cd565b156112b55760405162461bcd60e51b8152600401610903906159e8565b6040516327a7887760e21b815260009073__$a27ab5a2953dc10a9c552591268754b616$__90639e9e21dc906112f490600c9088908890600401615a05565b60206040518083038186803b15801561130c57600080fd5b505af4158015611320573d6000803e3d6000fd5b505050506040513d601f19601f8201168201806040525081019061134491906159cd565b9050600181151514156109f357836001600160a01b03167f26e277514df07793f28eff0e6f05b34a8dc0be0012b50d1b6162ce3c958b0c4e846040516109e19190615a38565b6000336001600160a01b03841614806113bb57506113a66132fe565b6001600160a01b0316336001600160a01b0316145b6113f05760405162461bcd60e51b8152600401610903906020808252600490820152630a49a62760e31b604082015260600190565b60405163b52bf90f60e01b815260009073__$35fde6ac6f7fb08b81f20635e2dfbb2343$__9063b52bf90f9061142f9060149088908890600401615bd1565b60206040518083038186803b15801561144757600080fd5b505af415801561145b573d6000803e3d6000fd5b505050506040513d601f19601f8201168201806040525081019061147f9190615b5b565b905080156109fd576001600160a01b038316611527576000846001600160a01b03168260405160006040518083038185875af1925050503d80600081146114e2576040519150601f19603f3d011682016040523d82523d6000602084013e6114e7565b606091505b50509050806115215760405162461bcd60e51b81526004016109039060208082526004908201526314934c4d60e21b604082015260600190565b50611689565b60405163095ea7b360e01b8152306004820152602481018290526000906001600160a01b0385169063095ea7b390604401602060405180830381600087803b15801561157257600080fd5b505af1158015611586573d6000803e3d6000fd5b505050506040513d601f19601f820116820180604052508101906115aa91906159cd565b9050806115e25760405162461bcd60e51b815260040161090390602080825260049082015263524d313960e01b604082015260600190565b6040516323b872dd60e01b81526000906001600160a01b038616906323b872dd906116159030908a908890600401615bf0565b602060405180830381600087803b15801561162f57600080fd5b505af1158015611643573d6000803e3d6000fd5b505050506040513d601f19601f8201168201806040525081019061166791906159cd565b9050806116865760405162461bcd60e51b815260040161090390615c14565b50505b60405163bc824a9360e01b815260009073__$35fde6ac6f7fb08b81f20635e2dfbb2343$__9063bc824a93906116c89060149089908990600401615bd1565b60206040518083038186803b1580156116e057600080fd5b505af41580156116f4573d6000803e3d6000fd5b505050506040513d601f19601f8201168201806040525081019061171891906159cd565b9050600181151514156117715781846001600160a01b0316866001600160a01b03167ff19b643806aff6923e6a83303f2c43467bb6e47487c68586ec0bcfb7097e8f7660405160405180910390a46001925050506109ff565b6000925050506109ff565b611784614c8f565b61178c614eb0565b565b611796615105565b60405163af8b7c8160e01b815273__$c9b49513854812b7b6c4b448b2aa4684e3$__9063af8b7c81906117d29060109087908790600401615b74565b6101606040518083038186803b1580156117eb57600080fd5b505af41580156117ff573d6000803e3d6000fd5b505050506040513d601f19601f820116820180604052508101906118239190615c32565b9392505050565b6000611834614c8f565b604051638c9a6cc360e01b815273__$a27ab5a2953dc10a9c552591268754b616$__90638c9a6cc39061186e90600c9086906004016159a6565b60206040518083038186803b15801561188657600080fd5b505af415801561189a573d6000803e3d6000fd5b505050506040513d601f19601f820116820180604052508101906118be91906159cd565b15156001146118df5760405162461bcd60e51b815260040161090390615ceb565b604051631eb966b960e01b815260009073__$a27ab5a2953dc10a9c552591268754b616$__90631eb966b99061191c90600c9087906004016159a6565b60006040518083038186803b15801561193457600080fd5b505af4158015611948573d6000803e3d6000fd5b505050506040513d6000823e601f3d908101601f191682016040526119709190810190615b0b565b604051634c3bfbf560e11b815290915060009073__$a27ab5a2953dc10a9c552591268754b616$__90639877f7ea906119b090600c9088906004016159a6565b60206040518083038186803b1580156119c857600080fd5b505af41580156119dc573d6000803e3d6000fd5b505050506040513d601f19601f82011682018060405250810190611a0091906159cd565b905060018115151415611a605781600001516001600160a01b03167fd3bb6cf267814a3d42a12164c9ac01a59db6d9121ae676500da60fd56b086d3b8360200151604051611a4e9190615a38565b60405180910390a25060019392505050565b5060009392505050565b919050565b600054600160a01b900460ff1690565b6000611a89614cee565b6000611a958888614de9565b9050336001600160a01b0382161480611ac65750611ab16132fe565b6001600160a01b0316336001600160a01b0316145b611ae25760405162461bcd60e51b815260040161090390615d08565b6040516304ecf28360e41b815273__$aabfbf51bc7bf3b8af0580fb7224204a01$__90634ecf283090611b1e90600e908c908c90600401615b74565b60206040518083038186803b158015611b3657600080fd5b505af4158015611b4a573d6000803e3d6000fd5b505050506040513d601f19601f82011682018060405250810190611b6e91906159cd565b1515600114611b8f5760405162461bcd60e51b815260040161090390615ceb565b6001600160a01b03851615611c4957604051631f04869b60e31b815273__$4fab912f99daae96c763763589e4636ca5$__9063f82434d890611bd89060089089906004016159a6565b60206040518083038186803b158015611bf057600080fd5b505af4158015611c04573d6000803e3d6000fd5b505050506040513d601f19601f82011682018060405250810190611c2891906159cd565b1515600114611c495760405162461bcd60e51b815260040161090390615c14565b6040516313d3de6d60e11b815260009073__$aabfbf51bc7bf3b8af0580fb7224204a01$__906327a7bcda90611c9090600e908d908d908d908d908d908d90600401615b93565b60206040518083038186803b158015611ca857600080fd5b505af4158015611cbc573d6000803e3d6000fd5b505050506040513d601f19601f82011682018060405250810190611ce091906159cd565b905060018115151415611d4c57336001600160a01b0316888a6001600160a01b03167f4388754cf451950a50e2520e86758fc59ec9e88a7f6a09f2db5de37d545639298a8a8a8a89604051611d39959493929190615d25565b60405180910390a4600192505050611d53565b6000925050505b9695505050505050565b60405163e99a8e3960e01b815260009081908190819073__$c9b49513854812b7b6c4b448b2aa4684e3$__9063e99a8e3990611da2906010908a908a90600401615b74565b60206040518083038186803b158015611dba57600080fd5b505af4158015611dce573d6000803e3d6000fd5b505050506040513d601f19601f82011682018060405250810190611df291906159cd565b1515600114611e135760405162461bcd60e51b815260040161090390615d51565b33611e1c6132fe565b6001600160a01b031614611e5b5760405162461bcd60e51b8152600401610903906020808252600490820152632926989b60e11b604082015260600190565b60405163af8b7c8160e01b815260009073__$c9b49513854812b7b6c4b448b2aa4684e3$__9063af8b7c8190611e9a906010908b908b90600401615b74565b6101606040518083038186803b158015611eb357600080fd5b505af4158015611ec7573d6000803e3d6000fd5b505050506040513d601f19601f82011682018060405250810190611eeb9190615c32565b90508060a001511515600115151415611f0a5780608001519150611f12565b806040015191505b610140810151429081118015611f3b57508160c00151826101400151611f389190615973565b81105b1561201357600082610140015182611f539190615d6f565b9050611f6c611f628286615d86565b8460c00151614eff565b9550611f788487614f0b565b610100840151606085015160405163071cd41560e31b815292975073__$35fde6ac6f7fb08b81f20635e2dfbb2343$__926338e6a0a892611fc0926014928b90600401615da5565b60206040518083038186803b158015611fd857600080fd5b505af4158015611fec573d6000803e3d6000fd5b505050506040513d601f19601f8201168201806040525081019061201091906159cd565b50505b84156122335760006120336004548761202c9190615d86565b6064614eff565b905060006120486005548861202c9190615d86565b9050600081612057848a615d6f565b6120619190615d6f565b60e0860151606087015160405163071cd41560e31b815292935073__$35fde6ac6f7fb08b81f20635e2dfbb2343$__926338e6a0a8926120a8926014928990600401615da5565b60206040518083038186803b1580156120c057600080fd5b505af41580156120d4573d6000803e3d6000fd5b505050506040513d601f19601f820116820180604052508101906120f891906159cd565b50610120850151606086015160405163071cd41560e31b815273__$35fde6ac6f7fb08b81f20635e2dfbb2343$__926338e6a0a8926121409260149291908890600401615da5565b60206040518083038186803b15801561215857600080fd5b505af415801561216c573d6000803e3d6000fd5b505050506040513d601f19601f8201168201806040525081019061219091906159cd565b50600154606086015160405163071cd41560e31b815273__$35fde6ac6f7fb08b81f20635e2dfbb2343$__926338e6a0a8926121de926014926001600160a01b031691908790600401615da5565b60206040518083038186803b1580156121f657600080fd5b505af415801561220a573d6000803e3d6000fd5b505050506040513d601f19601f8201168201806040525081019061222e91906159cd565b505050505b60405163af8b7c8160e01b815260009073__$c9b49513854812b7b6c4b448b2aa4684e3$__9063af8b7c8190612272906010908d908d90600401615b74565b6101606040518083038186803b15801561228b57600080fd5b505af415801561229f573d6000803e3d6000fd5b505050506040513d601f19601f820116820180604052508101906122c39190615c32565b604051631d865d9360e21b815290915060009073__$c9b49513854812b7b6c4b448b2aa4684e3$__90637619764c90612305906010908e908e90600401615b74565b60206040518083038186803b15801561231d57600080fd5b505af4158015612331573d6000803e3d6000fd5b505050506040513d601f19601f8201168201806040525081019061235591906159cd565b9050600181151514156123fb578161010001516001600160a01b0316826020015183600001516001600160a01b03167f1e47184299ef1ae0147489de864e2860294ab4125cb78ff3488bce09ea0192f68560400151866060015187608001518860a001518960c001518a60e001518b61012001518c61014001516040516123e3989796959493929190615dca565b60405180910390a460019750505050505050506109ff565b60009750505050505050506109ff565b600f546060906000906001600160401b0381111561242b5761242b6151db565b60405190808252806020026020018201604052801561246457816020015b612451615161565b8152602001906001900390816124495790505b50905060005b600f5481101561119357600f8054600e91908390811061248c5761248c615876565b906000526020600020016040516124a391906158c1565b90815260408051918290036020908101832060c08401835260018101546001600160a01b0390811685526002820154928501929092526003810154928401929092526004820154166060830152600581015460808301526006015460a0820152825183908390811061251757612517615876565b6020026020010181905250808061252d9061598b565b91505061246a565b61253d614c8f565b61178c6000614f17565b6000612551614c8f565b604051631f04869b60e31b815273__$4fab912f99daae96c763763589e4636ca5$__9063f82434d89061258b9060089086906004016159a6565b60206040518083038186803b1580156125a357600080fd5b505af41580156125b7573d6000803e3d6000fd5b505050506040513d601f19601f820116820180604052508101906125db91906159cd565b15156001146125fc5760405162461bcd60e51b815260040161090390615ceb565b604051630a93aab960e31b815260009073__$4fab912f99daae96c763763589e4636ca5$__9063549d55c8906126399060089087906004016159a6565b60006040518083038186803b15801561265157600080fd5b505af4158015612665573d6000803e3d6000fd5b505050506040513d6000823e601f3d908101601f1916820160405261268d9190810190615b0b565b6040516359c0255d60e01b815290915060009073__$4fab912f99daae96c763763589e4636ca5$__906359c0255d906126cd9060089088906004016159a6565b60206040518083038186803b1580156126e557600080fd5b505af41580156126f9573d6000803e3d6000fd5b505050506040513d601f19601f8201168201806040525081019061271d91906159cd565b905060018115151415611a605781600001516001600160a01b03167f037af5869c73bd98d861d265ed2fe7856d434102678eab240cfac53917ef4e838360200151604051611a4e9190615a38565b60405163b52bf90f60e01b815260009073__$35fde6ac6f7fb08b81f20635e2dfbb2343$__9063b52bf90f906127aa9060149033908790600401615bd1565b60206040518083038186803b1580156127c257600080fd5b505af41580156127d6573d6000803e3d6000fd5b505050506040513d601f19601f820116820180604052508101906109ff9190615b5b565b6000612804614cee565b604080516060810182526000808252602082018190528183015290516304ecf28360e41b815273__$aabfbf51bc7bf3b8af0580fb7224204a01$__90634ecf28309061285990600e9089908990600401615b74565b60206040518083038186803b15801561287157600080fd5b505af4158015612885573d6000803e3d6000fd5b505050506040513d601f19601f820116820180604052508101906128a991906159cd565b15156001146128ca5760405162461bcd60e51b815260040161090390615e10565b604051638c9a6cc360e01b815273__$a27ab5a2953dc10a9c552591268754b616$__90638c9a6cc39061290490600c9087906004016159a6565b60206040518083038186803b15801561291c57600080fd5b505af4158015612930573d6000803e3d6000fd5b505050506040513d601f19601f8201168201806040525081019061295491906159cd565b15156001146129755760405162461bcd60e51b815260040161090390615e2d565b60185460ff16151560011415612a2e5760405163e99a8e3960e01b815273__$c9b49513854812b7b6c4b448b2aa4684e3$__9063e99a8e39906129c19060109089908990600401615b74565b60206040518083038186803b1580156129d957600080fd5b505af41580156129ed573d6000803e3d6000fd5b505050506040513d601f19601f82011682018060405250810190612a1191906159cd565b15612a2e5760405162461bcd60e51b815260040161090390615e4a565b604051630163053760e51b8152349073__$aabfbf51bc7bf3b8af0580fb7224204a01$__90632c60a6e090612a6c90600e908a908a90600401615b74565b60c06040518083038186803b158015612a8457600080fd5b505af4158015612a98573d6000803e3d6000fd5b505050506040513d601f19601f82011682018060405250810190612abc9190615e67565b6040015114612af35760405162461bcd60e51b81526020600482015260036024820152620a49a760eb1b6044820152606401610903565b604051630163053760e51b815260009073__$aabfbf51bc7bf3b8af0580fb7224204a01$__90632c60a6e090612b3290600e908a908a90600401615b74565b60c06040518083038186803b158015612b4a57600080fd5b505af4158015612b5e573d6000803e3d6000fd5b505050506040513d601f19601f82011682018060405250810190612b829190615e67565b6000835260405163e99a8e3960e01b815290915073__$c9b49513854812b7b6c4b448b2aa4684e3$__9063e99a8e3990612bc5906010908a908a90600401615b74565b60206040518083038186803b158015612bdd57600080fd5b505af4158015612bf1573d6000803e3d6000fd5b505050506040513d601f19601f82011682018060405250810190612c1591906159cd565b151560011415612d485760405163af8b7c8160e01b815260009073__$c9b49513854812b7b6c4b448b2aa4684e3$__9063af8b7c8190612c5e906010908b908b90600401615b74565b6101606040518083038186803b158015612c7757600080fd5b505af4158015612c8b573d6000803e3d6000fd5b505050506040513d601f19601f82011682018060405250810190612caf9190615c32565b60c08101518452604051631d865d9360e21b815290915073__$c9b49513854812b7b6c4b448b2aa4684e3$__90637619764c90612cf5906010908b908b90600401615b74565b60206040518083038186803b158015612d0d57600080fd5b505af4158015612d21573d6000803e3d6000fd5b505050506040513d601f19601f82011682018060405250810190612d4591906159cd565b50505b612d528686614de9565b6001600160a01b03166020830152612d68615105565b6001600160a01b03808816825260208201879052604080840151908301526060808401519091169082015260808083015190820152600060a080830191909152835190830151612db89190615973565b60c082015260208301516001600160a01b0390811660e0830152336101008301528516610120820152426101408201526040516332ada61b60e01b815273__$c9b49513854812b7b6c4b448b2aa4684e3$__906332ada61b90612e22906010908590600401615ef1565b60206040518083038186803b158015612e3a57600080fd5b505af4158015612e4e573d6000803e3d6000fd5b505050506040513d601f19601f82011682018060405250810190612e7291906159cd565b15156040840181905260011415612f865760208301516040516343d434b560e11b815273__$cd3810e67fa8b653e5355050e47a521f6f$__916387a8696a91612ec7916012918a906000903490600401615f06565b60206040518083038186803b158015612edf57600080fd5b505af4158015612ef3573d6000803e3d6000fd5b505050506040513d601f19601f82011682018060405250810190612f1791906159cd565b50336001600160a01b031686886001600160a01b0316600080516020615f7483398151915285604001518660600151876080015160008960a001518b602001518e8b6101400151604051612f72989796959493929190615dca565b60405180910390a460019350505050611823565b5060009695505050505050565b612f9b615161565b604051630163053760e51b815273__$aabfbf51bc7bf3b8af0580fb7224204a01$__90632c60a6e090612fd790600e9087908790600401615b74565b60c06040518083038186803b158015612fef57600080fd5b505af4158015613003573d6000803e3d6000fd5b505050506040513d601f19601f820116820180604052508101906118239190615e67565b61302f614c8f565b61178c614f67565b6009546060906000906001600160401b03811115613057576130576151db565b60405190808252806020026020018201604052801561309d57816020015b6040805180820190915260008152606060208201528152602001906001900390816130755790505b50905060005b600954811015611193576009805460089190839081106130c5576130c5615876565b906000526020600020016040516130dc91906158c1565b9081526040805191829003602090810183208383019092526001820180546001600160a01b0316845260029092018054918401916131199061588c565b80601f01602080910402602001604051908101604052809291908181526020018280546131459061588c565b80156131925780601f1061316757610100808354040283529160200191613192565b820191906000526020600020905b81548152906001019060200180831161317557829003601f168201915b5050505050815250508282815181106131ad576131ad615876565b602002602001018190525080806131c39061598b565b9150506130a3565b6013546060906000906001600160401b038111156131eb576131eb6151db565b60405190808252806020026020018201604052801561323d57816020015b6040805160808101825260008082526020808301829052928201819052606082015282526000199092019101816132095790505b50905060005b6013548110156111935760138054601291908390811061326557613265615876565b9060005260206000200160405161327c91906158c1565b90815260408051918290036020908101832060808401835260018101546001600160a01b039081168552600282015481169285019290925260038101549091169183019190915260040154606082015282518390839081106132e0576132e0615876565b602002602001018190525080806132f69061598b565b915050613243565b6000546001600160a01b031690565b600d546060906000906001600160401b0381111561332d5761332d6151db565b60405190808252806020026020018201604052801561336657816020015b6133536150ed565b81526020019060019003908161334b5790505b50905060005b600d5481101561119357600d8054600c91908390811061338e5761338e615876565b906000526020600020016040516133a591906158c1565b9081526040805191829003602090810183208383019092526001820180546001600160a01b0316845260029092018054918401916133e29061588c565b80601f016020809104026020016040519081016040528092919081815260200182805461340e9061588c565b801561345b5780601f106134305761010080835404028352916020019161345b565b820191906000526020600020905b81548152906001019060200180831161343e57829003601f168201915b50505050508152505082828151811061347657613476615876565b6020026020010181905250808061348c9061598b565b91505061336c565b61349c614c8f565b600755565b60006134ab614c8f565b6040516360f353e160e01b815273__$79a40a2052c9947e027843e42106f8b048$__906360f353e1906134e590600a9086906004016159a6565b60206040518083038186803b1580156134fd57600080fd5b505af4158015613511573d6000803e3d6000fd5b505050506040513d601f19601f8201168201806040525081019061353591906159cd565b15156001146135565760405162461bcd60e51b815260040161090390615ceb565b60405163044aed2360e01b815260009073__$79a40a2052c9947e027843e42106f8b048$__9063044aed239061359390600a9087906004016159a6565b60006040518083038186803b1580156135ab57600080fd5b505af41580156135bf573d6000803e3d6000fd5b505050506040513d6000823e601f3d908101601f191682016040526135e79190810190615b0b565b60405163a3fb822560e01b815290915060009073__$79a40a2052c9947e027843e42106f8b048$__9063a3fb82259061362790600a9088906004016159a6565b60206040518083038186803b15801561363f57600080fd5b505af4158015613653573d6000803e3d6000fd5b505050506040513d601f19601f8201168201806040525081019061367791906159cd565b905060018115151415611a605781600001516001600160a01b03167fe32dbca0dcbe2dc4205cd30b4b23a82cff3e9b7e12a5682683185c6f33c978be8360200151604051611a4e9190615a38565b60006136cf614cee565b6040516304ecf28360e41b815273__$aabfbf51bc7bf3b8af0580fb7224204a01$__90634ecf28309061370b90600e9088908890600401615b74565b60206040518083038186803b15801561372357600080fd5b505af4158015613737573d6000803e3d6000fd5b505050506040513d601f19601f8201168201806040525081019061375b91906159cd565b151560011461377c5760405162461bcd60e51b815260040161090390615e10565b604051638c9a6cc360e01b815273__$a27ab5a2953dc10a9c552591268754b616$__90638c9a6cc3906137b690600c9086906004016159a6565b60206040518083038186803b1580156137ce57600080fd5b505af41580156137e2573d6000803e3d6000fd5b505050506040513d601f19601f8201168201806040525081019061380691906159cd565b15156001146138275760405162461bcd60e51b815260040161090390615e2d565b60405163e99a8e3960e01b815273__$c9b49513854812b7b6c4b448b2aa4684e3$__9063e99a8e39906138639060109088908890600401615b74565b60206040518083038186803b15801561387b57600080fd5b505af415801561388f573d6000803e3d6000fd5b505050506040513d601f19601f820116820180604052508101906138b391906159cd565b156138d05760405162461bcd60e51b815260040161090390615e4a565b34156139075760405162461bcd60e51b815260040161090390602080825260049082015263524d313360e01b604082015260600190565b60006139138585614de9565b604051630163053760e51b815290915060009073__$aabfbf51bc7bf3b8af0580fb7224204a01$__90632c60a6e09061395590600e908a908a90600401615b74565b60c06040518083038186803b15801561396d57600080fd5b505af4158015613981573d6000803e3d6000fd5b505050506040513d601f19601f820116820180604052508101906139a59190615e67565b60608101519091506001600160a01b03166139d25760405162461bcd60e51b815260040161090390615c14565b606081015160808201516040516323b872dd60e01b81526000926001600160a01b0316916323b872dd91613a0d913391309190600401615bf0565b602060405180830381600087803b158015613a2757600080fd5b505af1158015613a3b573d6000803e3d6000fd5b505050506040513d601f19601f82011682018060405250810190613a5f91906159cd565b905080613a725760009350505050611823565b613a7a615105565b6001600160a01b038089168252602082018890526040808501518184015260608086015183169084015260808086015190840152600160a08085019190915285015160c084015285821660e08401523361010084015290871661012083015242610140830152516332ada61b60e01b815273__$c9b49513854812b7b6c4b448b2aa4684e3$__906332ada61b90613b18906010908590600401615ef1565b60206040518083038186803b158015613b3057600080fd5b505af4158015613b44573d6000803e3d6000fd5b505050506040513d601f19601f82011682018060405250810190613b6891906159cd565b50606083015160808401516040516343d434b560e11b815273__$cd3810e67fa8b653e5355050e47a521f6f$__926387a8696a92613baf926012928a928d92600401615f06565b60206040518083038186803b158015613bc757600080fd5b505af4158015613bdb573d6000803e3d6000fd5b505050506040513d601f19601f82011682018060405250810190613bff91906159cd565b50336001600160a01b031687896001600160a01b0316600080516020615f7483398151915286604001518760600151886080015160018a60a001518c8f8b6101400151604051613c56989796959493929190615dca565b60405180910390a4506001979650505050505050565b6000613c76614c8f565b613c7e614cee565b604051631f04869b60e31b815273__$4fab912f99daae96c763763589e4636ca5$__9063f82434d890613cb89060089087906004016159a6565b60206040518083038186803b158015613cd057600080fd5b505af4158015613ce4573d6000803e3d6000fd5b505050506040513d601f19601f82011682018060405250810190613d0891906159cd565b15613d255760405162461bcd60e51b8152600401610903906159e8565b6040516331d0579b60e11b815260009073__$4fab912f99daae96c763763589e4636ca5$__906363a0af3690613d649060089088908890600401615a05565b60206040518083038186803b158015613d7c57600080fd5b505af4158015613d90573d6000803e3d6000fd5b505050506040513d601f19601f82011682018060405250810190613db491906159cd565b9050600181151514156109f357836001600160a01b03167ff76071867aae1eed00218b5aa8d4736b9b2161325ea3e48d283258a7e4ba75f5846040516109e19190615a38565b6015546060906000906001600160401b03811115613e1a57613e1a6151db565b604051908082528060200260200182016040528015613e5357816020015b613e406150cd565b815260200190600190039081613e385790505b50905060005b60155481101561119357601580546014919083908110613e7b57613e7b615876565b90600052602060002001604051613e9291906158c1565b90815260408051918290036020908101832060608401835260018101546001600160a01b0390811685526002820154169184019190915260030154908201528251839083908110613ee557613ee5615876565b60200260200101819052508080613efb9061598b565b915050613e59565b613f0b6150ed565b60405163044aed2360e01b815273__$79a40a2052c9947e027843e42106f8b048$__9063044aed2390610a4790600a9086906004016159a6565b600080613f528433614d36565b90506000613f608585614de9565b905060018215151480613f7b5750336001600160a01b038216145b80613f9e5750613f896132fe565b6001600160a01b0316336001600160a01b0316145b613fba5760405162461bcd60e51b815260040161090390615d08565b6040516304ecf28360e41b815273__$aabfbf51bc7bf3b8af0580fb7224204a01$__90634ecf283090613ff690600e9089908990600401615b74565b60206040518083038186803b15801561400e57600080fd5b505af4158015614022573d6000803e3d6000fd5b505050506040513d601f19601f8201168201806040525081019061404691906159cd565b15156001146140675760405162461bcd60e51b815260040161090390615ceb565b604051630163053760e51b815260009073__$aabfbf51bc7bf3b8af0580fb7224204a01$__90632c60a6e0906140a690600e908a908a90600401615b74565b60c06040518083038186803b1580156140be57600080fd5b505af41580156140d2573d6000803e3d6000fd5b505050506040513d601f19601f820116820180604052508101906140f69190615e67565b604051631f8195ef60e11b815290915060009073__$aabfbf51bc7bf3b8af0580fb7224204a01$__90633f032bde9061413890600e908b908b90600401615b74565b60206040518083038186803b15801561415057600080fd5b505af4158015614164573d6000803e3d6000fd5b505050506040513d601f19601f8201168201806040525081019061418891906159cd565b90506001811515141561420e57336001600160a01b0316826020015183600001516001600160a01b03167f47ef5674b8623b6a0bece5fae33a1a29ad79a7846a5be46a0b2e256b94f9ee318560400151866060015187608001518860a001518a6040516141f9959493929190615d25565b60405180910390a460019450505050506109ff565b60009450505050506109ff565b600754614226575050565b604051636eb1769f60e11b81526001600160a01b0382811660048301523060248301526000919084169063dd62ed3e9060440160206040518083038186803b15801561427157600080fd5b505afa158015614285573d6000803e3d6000fd5b505050506040513d601f19601f820116820180604052508101906142a99190615b5b565b9050806142b557505050565b60006142c084610789565b905060006142cc6150cd565b60005b6015548110156144335760075481106142e757614433565b6015805460149190839081106142ff576142ff615876565b9060005260206000200160405161431691906158c1565b908152604080516020928190038301812060608201835260018101546001600160a01b039081168352600282015481169483018590526003909101549282019290925293508816141561442157600061437e8360400151876143789190615d86565b86614eff565b905061438a8185615973565b8351602085015160405163071cd41560e31b815292965073__$35fde6ac6f7fb08b81f20635e2dfbb2343$__926338e6a0a8926143ce926014928790600401615da5565b60206040518083038186803b1580156143e657600080fd5b505af41580156143fa573d6000803e3d6000fd5b505050506040513d601f19601f8201168201806040525081019061441e91906159cd565b50505b8061442b8161598b565b9150506142cf565b5060006144408386615d6f565b11156144ed5760015473__$35fde6ac6f7fb08b81f20635e2dfbb2343$__906338e6a0a8906014906001600160a01b03168961447c878a615d6f565b6040518563ffffffff1660e01b815260040161449b9493929190615da5565b60206040518083038186803b1580156144b357600080fd5b505af41580156144c7573d6000803e3d6000fd5b505050506040513d601f19601f820116820180604052508101906144eb91906159cd565b505b505050505050565b60405163e99a8e3960e01b815260009073__$c9b49513854812b7b6c4b448b2aa4684e3$__9063e99a8e39906145349060109087908790600401615b74565b60206040518083038186803b15801561454c57600080fd5b505af4158015614560573d6000803e3d6000fd5b505050506040513d601f19601f8201168201806040525081019061458491906159cd565b15156001146145a55760405162461bcd60e51b815260040161090390615d51565b60405163af8b7c8160e01b815260009073__$c9b49513854812b7b6c4b448b2aa4684e3$__9063af8b7c81906145e49060109088908890600401615b74565b6101606040518083038186803b1580156145fd57600080fd5b505af4158015614611573d6000803e3d6000fd5b505050506040513d601f19601f820116820180604052508101906146359190615c32565b90508060c0015181610140015161464c9190615973565b42116146835760405162461bcd60e51b815260040161090390602080825260049082015263524d313760e01b604082015260600190565b60008160a0015115156001151514156146a1575060808101516146a8565b5060408101515b60006146bb6004548361202c9190615d86565b905060006146d06005548461202c9190615d86565b90506000816146df8486615d6f565b6146e99190615d6f565b60e0860151606087015160405163071cd41560e31b815292935073__$35fde6ac6f7fb08b81f20635e2dfbb2343$__926338e6a0a892614730926014928990600401615da5565b60206040518083038186803b15801561474857600080fd5b505af415801561475c573d6000803e3d6000fd5b505050506040513d601f19601f8201168201806040525081019061478091906159cd565b50610120850151606086015160405163071cd41560e31b815273__$35fde6ac6f7fb08b81f20635e2dfbb2343$__926338e6a0a8926147c89260149291908890600401615da5565b60206040518083038186803b1580156147e057600080fd5b505af41580156147f4573d6000803e3d6000fd5b505050506040513d601f19601f8201168201806040525081019061481891906159cd565b50600154606086015160405163071cd41560e31b815273__$35fde6ac6f7fb08b81f20635e2dfbb2343$__926338e6a0a892614866926014926001600160a01b031691908790600401615da5565b60206040518083038186803b15801561487e57600080fd5b505af4158015614892573d6000803e3d6000fd5b505050506040513d601f19601f820116820180604052508101906148b691906159cd565b5060e08501516101208601516060870151604051631a9a5d7160e21b815273__$cd3810e67fa8b653e5355050e47a521f6f$__93636a6975c493614901936012938b90600401615f06565b60206040518083038186803b15801561491957600080fd5b505af415801561492d573d6000803e3d6000fd5b505050506040513d601f19601f8201168201806040525081019061495191906159cd565b5084516020860151604051631d865d9360e21b815273__$c9b49513854812b7b6c4b448b2aa4684e3$__92637619764c92614993926010929190600401615b74565b60206040518083038186803b1580156149ab57600080fd5b505af41580156149bf573d6000803e3d6000fd5b505050506040513d601f19601f820116820180604052508101906149e391906159cd565b508461010001516001600160a01b0316856020015186600001516001600160a01b03167f2941e86df5e844db000359f0e9abe470952bac636d89a010e9d5d513aad469fa886040015189606001518a608001518b60a001518c60c001518d60e001518e61012001518f6101400151604051613c56989796959493929190615dca565b614a6d614c8f565b600180546001600160a01b0319166001600160a01b0392909216919091179055565b600b546060906000906001600160401b03811115614aaf57614aaf6151db565b604051908082528060200260200182016040528015614ae857816020015b614ad56150ed565b815260200190600190039081614acd5790505b50905060005b600b5481101561119357600b8054600a919083908110614b1057614b10615876565b90600052602060002001604051614b2791906158c1565b9081526040805191829003602090810183208383019092526001820180546001600160a01b031684526002909201805491840191614b649061588c565b80601f0160208091040260200160405190810160405280929190818152602001828054614b909061588c565b8015614bdd5780601f10614bb257610100808354040283529160200191614bdd565b820191906000526020600020905b815481529060010190602001808311614bc057829003601f168201915b505050505081525050828281518110614bf857614bf8615876565b60200260200101819052508080614c0e9061598b565b915050614aee565b614c1e614c8f565b6001600160a01b038116614c835760405162461bcd60e51b815260206004820152602660248201527f4f776e61626c653a206e6577206f776e657220697320746865207a65726f206160448201526564647265737360d01b6064820152608401610903565b614c8c81614f17565b50565b33614c986132fe565b6001600160a01b03161461178c5760405162461bcd60e51b815260206004820181905260248201527f4f776e61626c653a2063616c6c6572206973206e6f7420746865206f776e65726044820152606401610903565b614cf6611a6f565b1561178c5760405162461bcd60e51b815260206004820152601060248201526f14185d5cd8589b194e881c185d5cd95960821b6044820152606401610903565b600080614d536001600160a01b038516632c63230160e11b614faa565b9050600181151514156109f357604051632c63230160e11b81526000906001600160a01b038616906358c6460290614d8f908790600401615540565b60206040518083038186803b158015614da757600080fd5b505afa158015614dbb573d6000803e3d6000fd5b505050506040513d601f19601f82011682018060405250810190614ddf91906159cd565b92506109ff915050565b6000806060846001600160a01b031684604051602401614e0b91815260200190565b60408051601f198184030181529181526020820180516001600160e01b03166331a9108f60e11b17905251614e409190615b3f565b6000604051808303816000865af19150503d8060008114614e7d576040519150601f19603f3d011682016040523d82523d6000602084013e614e82565b606091505b509092509050600182151514156117715780806020019051810190614ea79190615f34565b925050506109ff565b614eb8614fc6565b6000805460ff60a01b191690557f5db9ee0a495bf2e6ff9c91a7834c1ba4fdd244a5e8aa4e537bd38aeae4b073aa335b604051614ef59190615540565b60405180910390a1565b60006118238284615f51565b60006118238284615d6f565b600080546001600160a01b038381166001600160a01b0319831681178455604051919092169283917f8be0079c531659141344cd1fd0a4f28419497f9722a3daafe3b4186f6b6457e09190a35050565b614f6f614cee565b6000805460ff60a01b1916600160a01b1790557f62e78cea01bee320cd4e420270b5ea74000d11b0c9f74754ebdbfc544b05a258614ee83390565b6000614fb583615011565b801561182357506118238383615044565b614fce611a6f565b61178c5760405162461bcd60e51b815260206004820152601460248201527314185d5cd8589b194e881b9bdd081c185d5cd95960621b6044820152606401610903565b6000615024826301ffc9a760e01b615044565b80156109ff575061503d826001600160e01b0319615044565b1592915050565b604080516001600160e01b03198316602480830191909152825180830390910181526044909101909152602080820180516001600160e01b03166301ffc9a760e01b178152825160009392849283928392918391908a617530fa92503d915060005190508280156150b6575060208210155b80156150c25750600081115b979650505050505050565b604080516060810182526000808252602082018190529181019190915290565b60408051808201909152600081526060602082015290565b6040805161016081018252600080825260208201819052918101829052606081018290526080810182905260a0810182905260c0810182905260e081018290526101008101829052610120810182905261014081019190915290565b6040518060c0016040528060006001600160a01b03168152602001600081526020016000815260200160006001600160a01b0316815260200160008152602001600081525090565b6001600160a01b0381168114614c8c57600080fd5b6000602082840312156151d057600080fd5b8135611823816151a9565b634e487b7160e01b600052604160045260246000fd5b60405161016081016001600160401b0381118282101715615214576152146151db565b60405290565b604051601f8201601f191681016001600160401b0381118282101715615242576152426151db565b604052919050565b60006001600160401b03821115615263576152636151db565b50601f01601f191660200190565b6000806040838503121561528457600080fd5b823561528f816151a9565b915060208301356001600160401b038111156152aa57600080fd5b8301601f810185136152bb57600080fd5b80356152ce6152c98261524a565b61521a565b8181528660208385010111156152e357600080fd5b816020840160208301376000602083830101528093505050509250929050565b6001600160a01b03169052565b60005b8381101561532b578181015183820152602001615313565b8381111561533a576000848401525b50505050565b60008151808452615358816020860160208601615310565b601f01601f19169290920160200192915050565b60018060a01b03815116825260006020820151604060208501526153936040850182615340565b949350505050565b602081526000611823602083018461536c565b600080604083850312156153c157600080fd5b82356153cc816151a9565b946020939093013593505050565b6153e5828251615303565b6020810151602083015260408101516040830152606081015161540b6060840182615303565b506080810151608083015260a081015161542960a084018215159052565b5060c081015160c083015260e081015161544660e0840182615303565b506101008082015161545a82850182615303565b50506101208082015161546f82850182615303565b505061014090810151910152565b6020808252825182820181905260009190848201906040850190845b818110156154c0576154ac8385516153da565b928401926101609290920191600101615499565b50909695505050505050565b6000806000606084860312156154e157600080fd5b505081359360208301359350604090920135919050565b6000806040838503121561550b57600080fd5b8235615516816151a9565b91506020830135615526816151a9565b809150509250929050565b61016081016109ff82846153da565b6001600160a01b0391909116815260200190565b60008060008060008060c0878903121561556d57600080fd5b8635615578816151a9565b955060208701359450604087013593506060870135615596816151a9565b9598949750929560808101359460a0909101359350915050565b80516001600160a01b0390811683526020808301519084015260408083015190840152606080830151909116908301526080808201519083015260a090810151910152565b6020808252825182820181905260009190848201906040850190845b818110156154c0576156248385516155b0565b9284019260c09290920191600101615611565b60008060006060848603121561564c57600080fd5b8335615657816151a9565b925060208401359150604084013561566e816151a9565b809150509250925092565b60c081016109ff82846155b0565b6000602080830181845280855180835260408601915060408160051b870101925083870160005b828110156156dc57603f198886030184526156ca85835161536c565b945092850192908501906001016156ae565b5092979650505050505050565b602080825282518282018190526000919060409081850190868401855b8281101561574e57815180516001600160a01b039081168652878201518116888701528682015116868601526060908101519085015260809093019290850190600101615706565b5091979650505050505050565b6000602080830181845280855180835260408601915060408160051b870101925083870160005b828110156156dc57603f1988860301845261579e85835161536c565b94509285019290850190600101615782565b6000602082840312156157c257600080fd5b5035919050565b602080825282518282018190526000919060409081850190868401855b8281101561574e57815180516001600160a01b03908116865287820151168786015285015185850152606090930192908501906001016157e6565b6000602080830181845280855180835260408601915060408160051b870101925083870160005b828110156156dc57603f1988860301845261586485835161536c565b94509285019290850190600101615848565b634e487b7160e01b600052603260045260246000fd5b600181811c908216806158a057607f821691505b6020821081141561119357634e487b7160e01b600052602260045260246000fd5b600080835481600182811c9150808316806158dd57607f831692505b60208084108214156158fd57634e487b7160e01b86526022600452602486fd5b81801561591157600181146159225761594f565b60ff1986168952848901965061594f565b60008a81526020902060005b868110156159475781548b82015290850190830161592e565b505084890196505b509498975050505050505050565b634e487b7160e01b600052601160045260246000fd5b600082198211156159865761598661595d565b500190565b600060001982141561599f5761599f61595d565b5060010190565b9182526001600160a01b0316602082015260400190565b80518015158114611a6a57600080fd5b6000602082840312156159df57600080fd5b611823826159bd565b602080825260039082015262524d3160e81b604082015260600190565b8381526001600160a01b0383166020820152606060408201819052600090615a2f90830184615340565b95945050505050565b6020815260006118236020830184615340565b8051611a6a816151a9565b600060408284031215615a6857600080fd5b604080519081016001600160401b038082118383101715615a8b57615a8b6151db565b8160405282935084519150615a9f826151a9565b90825260208401519080821115615ab557600080fd5b508301601f81018513615ac757600080fd5b8051615ad56152c98261524a565b818152866020838501011115615aea57600080fd5b615afb826020830160208601615310565b8060208501525050505092915050565b600060208284031215615b1d57600080fd5b81516001600160401b03811115615b3357600080fd5b61539384828501615a56565b60008251615b51818460208701615310565b9190910192915050565b600060208284031215615b6d57600080fd5b5051919050565b9283526001600160a01b03919091166020830152604082015260600190565b9687526001600160a01b03958616602088015260408701949094526060860192909252909216608084015260a083019190915260c082015260e00190565b9283526001600160a01b03918216602084015216604082015260600190565b6001600160a01b039384168152919092166020820152604081019190915260600190565b6020808252600490820152630524d32360e41b604082015260600190565b60006101608284031215615c4557600080fd5b615c4d6151f1565b615c5683615a4b565b81526020830151602082015260408301516040820152615c7860608401615a4b565b606082015260808301516080820152615c9360a084016159bd565b60a082015260c083015160c0820152615cae60e08401615a4b565b60e0820152610100615cc1818501615a4b565b90820152610120615cd3848201615a4b565b90820152610140928301519281019290925250919050565b602080825260039082015262524d3360e81b604082015260600190565b602080825260039082015262524d3560e81b604082015260600190565b9485526001600160a01b0393841660208601526040850192909252606084015216608082015260a00190565b6020808252600490820152630524d31360e41b604082015260600190565b600082821015615d8157615d8161595d565b500390565b6000816000190483118215151615615da057615da061595d565b500290565b9384526001600160a01b03928316602085015291166040830152606082015260800190565b9788526001600160a01b039687166020890152604088019590955292151560608701526080860191909152831660a085015290911660c083015260e08201526101000190565b602080825260039082015262524d3760e81b604082015260600190565b60208082526003908201526229269b60e91b604082015260600190565b602080825260039082015262524d3960e81b604082015260600190565b600060c08284031215615e7957600080fd5b60405160c081016001600160401b0381118282101715615e9b57615e9b6151db565b6040528251615ea9816151a9565b8082525060208301516020820152604083015160408201526060830151615ecf816151a9565b60608201526080838101519082015260a0928301519281019290925250919050565b828152610180810161182360208301846153da565b9485526001600160a01b03938416602086015291831660408501529091166060830152608082015260a00190565b600060208284031215615f4657600080fd5b8151611823816151a9565b600082615f6e57634e487b7160e01b600052601260045260246000fd5b50049056fefe632cd15df82b5e105c28c0d0da9eb0228667912a4b1e430151d7c0d9227759a26469706673582212202ea0fbca73ed5da17b3448337ded7413cace3ee3680127e797190f46a36646f064736f6c63430008090033",
  "linkReferences": {
    "contracts/iterableMapLib.sol": {
      "accountBalanceIterableMap": [
        {
          "length": 20,
          "start": 5419
        },
        {
          "length": 20,
          "start": 6084
        },
        {
          "length": 20,
          "start": 8382
        },
        {
          "length": 20,
          "start": 8614
        },
        {
          "length": 20,
          "start": 8764
        },
        {
          "length": 20,
          "start": 8913
        },
        {
          "length": 20,
          "start": 10406
        },
        {
          "length": 20,
          "start": 17612
        },
        {
          "length": 20,
          "start": 17780
        },
        {
          "length": 20,
          "start": 18478
        },
        {
          "length": 20,
          "start": 18628
        },
        {
          "length": 20,
          "start": 18777
        }
      ],
      "collectionDataIterableMap": [
        {
          "length": 20,
          "start": 2452
        },
        {
          "length": 20,
          "start": 2631
        },
        {
          "length": 20,
          "start": 3775
        },
        {
          "length": 20,
          "start": 3969
        },
        {
          "length": 20,
          "start": 13795
        },
        {
          "length": 20,
          "start": 13969
        },
        {
          "length": 20,
          "start": 14117
        },
        {
          "length": 20,
          "start": 16451
        }
      ],
      "pendingRentFeeIterableMap": [
        {
          "length": 20,
          "start": 12224
        },
        {
          "length": 20,
          "start": 15531
        },
        {
          "length": 20,
          "start": 18943
        }
      ],
      "registerDataIterableMap": [
        {
          "length": 20,
          "start": 3462
        },
        {
          "length": 20,
          "start": 4174
        },
        {
          "length": 20,
          "start": 7194
        },
        {
          "length": 20,
          "start": 7556
        },
        {
          "length": 20,
          "start": 10581
        },
        {
          "length": 20,
          "start": 11112
        },
        {
          "length": 20,
          "start": 11310
        },
        {
          "length": 20,
          "start": 12499
        },
        {
          "length": 20,
          "start": 14343
        },
        {
          "length": 20,
          "start": 14929
        },
        {
          "length": 20,
          "start": 16626
        },
        {
          "length": 20,
          "start": 16802
        },
        {
          "length": 20,
          "start": 16948
        }
      ],
      "rentDataIterableMap": [
        {
          "length": 20,
          "start": 6350
        },
        {
          "length": 20,
          "start": 7838
        },
        {
          "length": 20,
          "start": 8086
        },
        {
          "length": 20,
          "start": 9070
        },
        {
          "length": 20,
          "start": 9217
        },
        {
          "length": 20,
          "start": 10941
        },
        {
          "length": 20,
          "start": 11457
        },
        {
          "length": 20,
          "start": 11610
        },
        {
          "length": 20,
          "start": 11761
        },
        {
          "length": 20,
          "start": 12064
        },
        {
          "length": 20,
          "start": 14687
        },
        {
          "length": 20,
          "start": 15382
        },
        {
          "length": 20,
          "start": 17968
        },
        {
          "length": 20,
          "start": 18144
        },
        {
          "length": 20,
          "start": 19089
        }
      ],
      "serviceDataIterableMap": [
        {
          "length": 20,
          "start": 2885
        },
        {
          "length": 20,
          "start": 4934
        },
        {
          "length": 20,
          "start": 5104
        },
        {
          "length": 20,
          "start": 6508
        },
        {
          "length": 20,
          "start": 6682
        },
        {
          "length": 20,
          "start": 6830
        },
        {
          "length": 20,
          "start": 10754
        },
        {
          "length": 20,
          "start": 14516
        }
      ],
      "tokenDataIterableMap": [
        {
          "length": 20,
          "start": 7382
        },
        {
          "length": 20,
          "start": 9865
        },
        {
          "length": 20,
          "start": 10039
        },
        {
          "length": 20,
          "start": 10187
        },
        {
          "length": 20,
          "start": 15798
        },
        {
          "length": 20,
          "start": 15968
        }
      ]
    }
  },
  "deployedLinkReferences": {
    "contracts/iterableMapLib.sol": {
      "accountBalanceIterableMap": [
        {
          "length": 20,
          "start": 5122
        },
        {
          "length": 20,
          "start": 5787
        },
        {
          "length": 20,
          "start": 8085
        },
        {
          "length": 20,
          "start": 8317
        },
        {
          "length": 20,
          "start": 8467
        },
        {
          "length": 20,
          "start": 8616
        },
        {
          "length": 20,
          "start": 10109
        },
        {
          "length": 20,
          "start": 17315
        },
        {
          "length": 20,
          "start": 17483
        },
        {
          "length": 20,
          "start": 18181
        },
        {
          "length": 20,
          "start": 18331
        },
        {
          "length": 20,
          "start": 18480
        }
      ],
      "collectionDataIterableMap": [
        {
          "length": 20,
          "start": 2155
        },
        {
          "length": 20,
          "start": 2334
        },
        {
          "length": 20,
          "start": 3478
        },
        {
          "length": 20,
          "start": 3672
        },
        {
          "length": 20,
          "start": 13498
        },
        {
          "length": 20,
          "start": 13672
        },
        {
          "length": 20,
          "start": 13820
        },
        {
          "length": 20,
          "start": 16154
        }
      ],
      "pendingRentFeeIterableMap": [
        {
          "length": 20,
          "start": 11927
        },
        {
          "length": 20,
          "start": 15234
        },
        {
          "length": 20,
          "start": 18646
        }
      ],
      "registerDataIterableMap": [
        {
          "length": 20,
          "start": 3165
        },
        {
          "length": 20,
          "start": 3877
        },
        {
          "length": 20,
          "start": 6897
        },
        {
          "length": 20,
          "start": 7259
        },
        {
          "length": 20,
          "start": 10284
        },
        {
          "length": 20,
          "start": 10815
        },
        {
          "length": 20,
          "start": 11013
        },
        {
          "length": 20,
          "start": 12202
        },
        {
          "length": 20,
          "start": 14046
        },
        {
          "length": 20,
          "start": 14632
        },
        {
          "length": 20,
          "start": 16329
        },
        {
          "length": 20,
          "start": 16505
        },
        {
          "length": 20,
          "start": 16651
        }
      ],
      "rentDataIterableMap": [
        {
          "length": 20,
          "start": 6053
        },
        {
          "length": 20,
          "start": 7541
        },
        {
          "length": 20,
          "start": 7789
        },
        {
          "length": 20,
          "start": 8773
        },
        {
          "length": 20,
          "start": 8920
        },
        {
          "length": 20,
          "start": 10644
        },
        {
          "length": 20,
          "start": 11160
        },
        {
          "length": 20,
          "start": 11313
        },
        {
          "length": 20,
          "start": 11464
        },
        {
          "length": 20,
          "start": 11767
        },
        {
          "length": 20,
          "start": 14390
        },
        {
          "length": 20,
          "start": 15085
        },
        {
          "length": 20,
          "start": 17671
        },
        {
          "length": 20,
          "start": 17847
        },
        {
          "length": 20,
          "start": 18792
        }
      ],
      "serviceDataIterableMap": [
        {
          "length": 20,
          "start": 2588
        },
        {
          "length": 20,
          "start": 4637
        },
        {
          "length": 20,
          "start": 4807
        },
        {
          "length": 20,
          "start": 6211
        },
        {
          "length": 20,
          "start": 6385
        },
        {
          "length": 20,
          "start": 6533
        },
        {
          "length": 20,
          "start": 10457
        },
        {
          "length": 20,
          "start": 14219
        }
      ],
      "tokenDataIterableMap": [
        {
          "length": 20,
          "start": 7085
        },
        {
          "length": 20,
          "start": 9568
        },
        {
          "length": 20,
          "start": 9742
        },
        {
          "length": 20,
          "start": 9890
        },
        {
          "length": 20,
          "start": 15501
        },
        {
          "length": 20,
          "start": 15671
        }
      ]
    }
  }
}