{
  "_format": "hh-sol-artifact-1",
  "contractName": "rentMarket",
  "sourceName": "contracts/rentMarket.sol",
  "abi": [
    {
      "inputs": [],
      "stateMutability": "nonpayable",
      "type": "constructor"
    },
    {
      "anonymous": false,
      "inputs": [
        {
          "indexed": true,
          "internalType": "address",
          "name": "nftAddress",
          "type": "address"
        },
        {
          "indexed": true,
          "internalType": "uint256",
          "name": "tokenId",
          "type": "uint256"
        },
        {
          "indexed": false,
          "internalType": "uint256",
          "name": "rentFee",
          "type": "uint256"
        },
        {
          "indexed": false,
          "internalType": "address",
          "name": "feeTokenAddress",
          "type": "address"
        },
        {
          "indexed": false,
          "internalType": "uint256",
          "name": "rentFeeByToken",
          "type": "uint256"
        },
        {
          "indexed": false,
          "internalType": "uint256",
          "name": "rentDuration",
          "type": "uint256"
        },
        {
          "indexed": false,
          "internalType": "address",
          "name": "NFTOwnerAddress",
          "type": "address"
        },
        {
          "indexed": true,
          "internalType": "address",
          "name": "changerAddress",
          "type": "address"
        }
      ],
      "name": "ChangeNFT",
      "type": "event"
    },
    {
      "anonymous": false,
      "inputs": [
        {
          "indexed": true,
          "internalType": "address",
          "name": "sender",
          "type": "address"
        }
      ],
      "name": "Fallback",
      "type": "event"
    },
    {
      "anonymous": false,
      "inputs": [
        {
          "indexed": true,
          "internalType": "address",
          "name": "previousOwner",
          "type": "address"
        },
        {
          "indexed": true,
          "internalType": "address",
          "name": "newOwner",
          "type": "address"
        }
      ],
      "name": "OwnershipTransferred",
      "type": "event"
    },
    {
      "anonymous": false,
      "inputs": [
        {
          "indexed": false,
          "internalType": "address",
          "name": "account",
          "type": "address"
        }
      ],
      "name": "Paused",
      "type": "event"
    },
    {
      "anonymous": false,
      "inputs": [
        {
          "indexed": true,
          "internalType": "address",
          "name": "sender",
          "type": "address"
        },
        {
          "indexed": true,
          "internalType": "uint256",
          "name": "value",
          "type": "uint256"
        }
      ],
      "name": "Receive",
      "type": "event"
    },
    {
      "anonymous": false,
      "inputs": [
        {
          "indexed": true,
          "internalType": "address",
          "name": "collectionAddress",
          "type": "address"
        },
        {
          "indexed": false,
          "internalType": "string",
          "name": "uri",
          "type": "string"
        }
      ],
      "name": "RegisterCollection",
      "type": "event"
    },
    {
      "anonymous": false,
      "inputs": [
        {
          "indexed": true,
          "internalType": "address",
          "name": "nftAddress",
          "type": "address"
        },
        {
          "indexed": true,
          "internalType": "uint256",
          "name": "tokenId",
          "type": "uint256"
        },
        {
          "indexed": false,
          "internalType": "uint256",
          "name": "rentFee",
          "type": "uint256"
        },
        {
          "indexed": false,
          "internalType": "uint256",
          "name": "rentDuration",
          "type": "uint256"
        },
        {
          "indexed": true,
          "internalType": "address",
          "name": "NFTOwnerAddress",
          "type": "address"
        }
      ],
      "name": "RegisterNFT",
      "type": "event"
    },
    {
      "anonymous": false,
      "inputs": [
        {
          "indexed": true,
          "internalType": "address",
          "name": "serviceAddress",
          "type": "address"
        },
        {
          "indexed": false,
          "internalType": "string",
          "name": "uri",
          "type": "string"
        }
      ],
      "name": "RegisterService",
      "type": "event"
    },
    {
      "anonymous": false,
      "inputs": [
        {
          "indexed": true,
          "internalType": "address",
          "name": "tokenAddress",
          "type": "address"
        },
        {
          "indexed": false,
          "internalType": "string",
          "name": "name",
          "type": "string"
        }
      ],
      "name": "RegisterToken",
      "type": "event"
    },
    {
      "anonymous": false,
      "inputs": [
        {
          "indexed": true,
          "internalType": "address",
          "name": "nftAddress",
          "type": "address"
        },
        {
          "indexed": true,
          "internalType": "uint256",
          "name": "tokenId",
          "type": "uint256"
        },
        {
          "indexed": false,
          "internalType": "uint256",
          "name": "rentFee",
          "type": "uint256"
        },
        {
          "indexed": false,
          "internalType": "address",
          "name": "feeTokenAddress",
          "type": "address"
        },
        {
          "indexed": false,
          "internalType": "uint256",
          "name": "rentFeeByToken",
          "type": "uint256"
        },
        {
          "indexed": false,
          "internalType": "bool",
          "name": "isRentByToken",
          "type": "bool"
        },
        {
          "indexed": false,
          "internalType": "uint256",
          "name": "rentDuration",
          "type": "uint256"
        },
        {
          "indexed": false,
          "internalType": "address",
          "name": "renterAddress",
          "type": "address"
        },
        {
          "indexed": true,
          "internalType": "address",
          "name": "renteeAddress",
          "type": "address"
        },
        {
          "indexed": false,
          "internalType": "address",
          "name": "serviceAddress",
          "type": "address"
        },
        {
          "indexed": false,
          "internalType": "uint256",
          "name": "rentStartTimestamp",
          "type": "uint256"
        }
      ],
      "name": "RentNFT",
      "type": "event"
    },
    {
      "anonymous": false,
      "inputs": [
        {
          "indexed": true,
          "internalType": "address",
          "name": "nftAddress",
          "type": "address"
        },
        {
          "indexed": true,
          "internalType": "uint256",
          "name": "tokenId",
          "type": "uint256"
        },
        {
          "indexed": false,
          "internalType": "uint256",
          "name": "rentFee",
          "type": "uint256"
        },
        {
          "indexed": false,
          "internalType": "address",
          "name": "feeTokenAddress",
          "type": "address"
        },
        {
          "indexed": false,
          "internalType": "uint256",
          "name": "rentFeeByToken",
          "type": "uint256"
        },
        {
          "indexed": false,
          "internalType": "bool",
          "name": "isRentByToken",
          "type": "bool"
        },
        {
          "indexed": false,
          "internalType": "uint256",
          "name": "rentDuration",
          "type": "uint256"
        },
        {
          "indexed": false,
          "internalType": "address",
          "name": "renterAddress",
          "type": "address"
        },
        {
          "indexed": true,
          "internalType": "address",
          "name": "renteeAddress",
          "type": "address"
        },
        {
          "indexed": false,
          "internalType": "address",
          "name": "serviceAddress",
          "type": "address"
        },
        {
          "indexed": false,
          "internalType": "uint256",
          "name": "rentStartTimestamp",
          "type": "uint256"
        }
      ],
      "name": "SettleRentData",
      "type": "event"
    },
    {
      "anonymous": false,
      "inputs": [
        {
          "indexed": false,
          "internalType": "address",
          "name": "account",
          "type": "address"
        }
      ],
      "name": "Unpaused",
      "type": "event"
    },
    {
      "anonymous": false,
      "inputs": [
        {
          "indexed": true,
          "internalType": "address",
          "name": "collectionAddress",
          "type": "address"
        },
        {
          "indexed": false,
          "internalType": "string",
          "name": "uri",
          "type": "string"
        }
      ],
      "name": "UnregisterCollection",
      "type": "event"
    },
    {
      "anonymous": false,
      "inputs": [
        {
          "indexed": true,
          "internalType": "address",
          "name": "nftAddress",
          "type": "address"
        },
        {
          "indexed": true,
          "internalType": "uint256",
          "name": "tokenId",
          "type": "uint256"
        },
        {
          "indexed": false,
          "internalType": "uint256",
          "name": "rentFee",
          "type": "uint256"
        },
        {
          "indexed": false,
          "internalType": "address",
          "name": "feeTokenAddress",
          "type": "address"
        },
        {
          "indexed": false,
          "internalType": "uint256",
          "name": "rentFeeByToken",
          "type": "uint256"
        },
        {
          "indexed": false,
          "internalType": "uint256",
          "name": "rentDuration",
          "type": "uint256"
        },
        {
          "indexed": false,
          "internalType": "address",
          "name": "NFTOwnerAddress",
          "type": "address"
        },
        {
          "indexed": true,
          "internalType": "address",
          "name": "UnregisterAddress",
          "type": "address"
        }
      ],
      "name": "UnregisterNFT",
      "type": "event"
    },
    {
      "anonymous": false,
      "inputs": [
        {
          "indexed": true,
          "internalType": "address",
          "name": "serviceAddress",
          "type": "address"
        },
        {
          "indexed": false,
          "internalType": "string",
          "name": "uri",
          "type": "string"
        }
      ],
      "name": "UnregisterService",
      "type": "event"
    },
    {
      "anonymous": false,
      "inputs": [
        {
          "indexed": true,
          "internalType": "address",
          "name": "tokenAddress",
          "type": "address"
        },
        {
          "indexed": false,
          "internalType": "string",
          "name": "name",
          "type": "string"
        }
      ],
      "name": "UnregisterToken",
      "type": "event"
    },
    {
      "anonymous": false,
      "inputs": [
        {
          "indexed": true,
          "internalType": "address",
          "name": "nftAddress",
          "type": "address"
        },
        {
          "indexed": true,
          "internalType": "uint256",
          "name": "tokenId",
          "type": "uint256"
        },
        {
          "indexed": false,
          "internalType": "uint256",
          "name": "rentFee",
          "type": "uint256"
        },
        {
          "indexed": false,
          "internalType": "address",
          "name": "feeTokenAddress",
          "type": "address"
        },
        {
          "indexed": false,
          "internalType": "uint256",
          "name": "rentFeeByToken",
          "type": "uint256"
        },
        {
          "indexed": false,
          "internalType": "bool",
          "name": "isRentByToken",
          "type": "bool"
        },
        {
          "indexed": false,
          "internalType": "uint256",
          "name": "rentDuration",
          "type": "uint256"
        },
        {
          "indexed": false,
          "internalType": "address",
          "name": "renterAddress",
          "type": "address"
        },
        {
          "indexed": true,
          "internalType": "address",
          "name": "renteeAddress",
          "type": "address"
        },
        {
          "indexed": false,
          "internalType": "address",
          "name": "serviceAddress",
          "type": "address"
        },
        {
          "indexed": false,
          "internalType": "uint256",
          "name": "rentStartTimestamp",
          "type": "uint256"
        }
      ],
      "name": "UnrentNFT",
      "type": "event"
    },
    {
      "anonymous": false,
      "inputs": [
        {
          "indexed": true,
          "internalType": "address",
          "name": "recipient",
          "type": "address"
        },
        {
          "indexed": true,
          "internalType": "address",
          "name": "tokenAddress",
          "type": "address"
        },
        {
          "indexed": true,
          "internalType": "uint256",
          "name": "amount",
          "type": "uint256"
        }
      ],
      "name": "WithdrawMyBalance",
      "type": "event"
    },
    {
      "stateMutability": "payable",
      "type": "fallback"
    },
    {
      "inputs": [
        {
          "internalType": "address",
          "name": "nftAddress",
          "type": "address"
        },
        {
          "internalType": "uint256",
          "name": "tokenId",
          "type": "uint256"
        },
        {
          "internalType": "uint256",
          "name": "rentFee",
          "type": "uint256"
        },
        {
          "internalType": "address",
          "name": "feeTokenAddress",
          "type": "address"
        },
        {
          "internalType": "uint256",
          "name": "rentFeeByToken",
          "type": "uint256"
        },
        {
          "internalType": "uint256",
          "name": "rentDuration",
          "type": "uint256"
        }
      ],
      "name": "changeNFT",
      "outputs": [
        {
          "internalType": "bool",
          "name": "success",
          "type": "bool"
        }
      ],
      "stateMutability": "nonpayable",
      "type": "function"
    },
    {
      "inputs": [
        {
          "internalType": "address",
          "name": "tokenAddress_",
          "type": "address"
        },
        {
          "internalType": "address",
          "name": "rewardTokenShareContractAddress_",
          "type": "address"
        }
      ],
      "name": "distributeVestingToken",
      "outputs": [],
      "stateMutability": "nonpayable",
      "type": "function"
    },
    {
      "inputs": [],
      "name": "getAllAccountBalance",
      "outputs": [
        {
          "components": [
            {
              "internalType": "address",
              "name": "accountAddress",
              "type": "address"
            },
            {
              "internalType": "address",
              "name": "tokenAddress",
              "type": "address"
            },
            {
              "internalType": "uint256",
              "name": "amount",
              "type": "uint256"
            }
          ],
          "internalType": "struct accountBalanceIterableMap.accountBalance[]",
          "name": "",
          "type": "tuple[]"
        }
      ],
      "stateMutability": "view",
      "type": "function"
    },
    {
      "inputs": [],
      "name": "getAllCollection",
      "outputs": [
        {
          "components": [
            {
              "internalType": "address",
              "name": "collectionAddress",
              "type": "address"
            },
            {
              "internalType": "string",
              "name": "uri",
              "type": "string"
            }
          ],
          "internalType": "struct collectionDataIterableMap.collectionData[]",
          "name": "",
          "type": "tuple[]"
        }
      ],
      "stateMutability": "view",
      "type": "function"
    },
    {
      "inputs": [],
      "name": "getAllPendingRentFee",
      "outputs": [
        {
          "components": [
            {
              "internalType": "address",
              "name": "renterAddress",
              "type": "address"
            },
            {
              "internalType": "address",
              "name": "serviceAddress",
              "type": "address"
            },
            {
              "internalType": "address",
              "name": "feeTokenAddress",
              "type": "address"
            },
            {
              "internalType": "uint256",
              "name": "amount",
              "type": "uint256"
            }
          ],
          "internalType": "struct pendingRentFeeIterableMap.pendingRentFee[]",
          "name": "",
          "type": "tuple[]"
        }
      ],
      "stateMutability": "view",
      "type": "function"
    },
    {
      "inputs": [],
      "name": "getAllRegisterData",
      "outputs": [
        {
          "components": [
            {
              "internalType": "address",
              "name": "nftAddress",
              "type": "address"
            },
            {
              "internalType": "uint256",
              "name": "tokenId",
              "type": "uint256"
            },
            {
              "internalType": "uint256",
              "name": "rentFee",
              "type": "uint256"
            },
            {
              "internalType": "address",
              "name": "feeTokenAddress",
              "type": "address"
            },
            {
              "internalType": "uint256",
              "name": "rentFeeByToken",
              "type": "uint256"
            },
            {
              "internalType": "uint256",
              "name": "rentDuration",
              "type": "uint256"
            }
          ],
          "internalType": "struct registerDataIterableMap.registerData[]",
          "name": "",
          "type": "tuple[]"
        }
      ],
      "stateMutability": "view",
      "type": "function"
    },
    {
      "inputs": [],
      "name": "getAllRentData",
      "outputs": [
        {
          "components": [
            {
              "internalType": "address",
              "name": "nftAddress",
              "type": "address"
            },
            {
              "internalType": "uint256",
              "name": "tokenId",
              "type": "uint256"
            },
            {
              "internalType": "uint256",
              "name": "rentFee",
              "type": "uint256"
            },
            {
              "internalType": "address",
              "name": "feeTokenAddress",
              "type": "address"
            },
            {
              "internalType": "uint256",
              "name": "rentFeeByToken",
              "type": "uint256"
            },
            {
              "internalType": "bool",
              "name": "isRentByToken",
              "type": "bool"
            },
            {
              "internalType": "uint256",
              "name": "rentDuration",
              "type": "uint256"
            },
            {
              "internalType": "address",
              "name": "renterAddress",
              "type": "address"
            },
            {
              "internalType": "address",
              "name": "renteeAddress",
              "type": "address"
            },
            {
              "internalType": "address",
              "name": "serviceAddress",
              "type": "address"
            },
            {
              "internalType": "uint256",
              "name": "rentStartTimestamp",
              "type": "uint256"
            }
          ],
          "internalType": "struct rentDataIterableMap.rentData[]",
          "name": "",
          "type": "tuple[]"
        }
      ],
      "stateMutability": "view",
      "type": "function"
    },
    {
      "inputs": [],
      "name": "getAllService",
      "outputs": [
        {
          "components": [
            {
              "internalType": "address",
              "name": "serviceAddress",
              "type": "address"
            },
            {
              "internalType": "string",
              "name": "uri",
              "type": "string"
            }
          ],
          "internalType": "struct serviceDataIterableMap.serviceData[]",
          "name": "",
          "type": "tuple[]"
        }
      ],
      "stateMutability": "view",
      "type": "function"
    },
    {
      "inputs": [],
      "name": "getAllToken",
      "outputs": [
        {
          "components": [
            {
              "internalType": "address",
              "name": "tokenAddress",
              "type": "address"
            },
            {
              "internalType": "string",
              "name": "name",
              "type": "string"
            }
          ],
          "internalType": "struct tokenDataIterableMap.tokenData[]",
          "name": "",
          "type": "tuple[]"
        }
      ],
      "stateMutability": "view",
      "type": "function"
    },
    {
      "inputs": [
        {
          "internalType": "address",
          "name": "collectionAddress",
          "type": "address"
        }
      ],
      "name": "getCollection",
      "outputs": [
        {
          "components": [
            {
              "internalType": "address",
              "name": "collectionAddress",
              "type": "address"
            },
            {
              "internalType": "string",
              "name": "uri",
              "type": "string"
            }
          ],
          "internalType": "struct collectionDataIterableMap.collectionData",
          "name": "",
          "type": "tuple"
        }
      ],
      "stateMutability": "view",
      "type": "function"
    },
    {
      "inputs": [],
      "name": "getFeeQuota",
      "outputs": [
        {
          "internalType": "uint256",
          "name": "renterFeeQuota",
          "type": "uint256"
        },
        {
          "internalType": "uint256",
          "name": "serviceFeeQuota",
          "type": "uint256"
        },
        {
          "internalType": "uint256",
          "name": "marketFeeQuota",
          "type": "uint256"
        }
      ],
      "stateMutability": "view",
      "type": "function"
    },
    {
      "inputs": [],
      "name": "getMarketShareAddress",
      "outputs": [
        {
          "internalType": "address",
          "name": "shareAddress",
          "type": "address"
        }
      ],
      "stateMutability": "view",
      "type": "function"
    },
    {
      "inputs": [
        {
          "internalType": "address",
          "name": "tokenAddress",
          "type": "address"
        }
      ],
      "name": "getMyBalance",
      "outputs": [
        {
          "internalType": "uint256",
          "name": "balance",
          "type": "uint256"
        }
      ],
      "stateMutability": "view",
      "type": "function"
    },
    {
      "inputs": [
        {
          "internalType": "address",
          "name": "nftAddress",
          "type": "address"
        },
        {
          "internalType": "uint256",
          "name": "tokenId",
          "type": "uint256"
        }
      ],
      "name": "getRegisterData",
      "outputs": [
        {
          "components": [
            {
              "internalType": "address",
              "name": "nftAddress",
              "type": "address"
            },
            {
              "internalType": "uint256",
              "name": "tokenId",
              "type": "uint256"
            },
            {
              "internalType": "uint256",
              "name": "rentFee",
              "type": "uint256"
            },
            {
              "internalType": "address",
              "name": "feeTokenAddress",
              "type": "address"
            },
            {
              "internalType": "uint256",
              "name": "rentFeeByToken",
              "type": "uint256"
            },
            {
              "internalType": "uint256",
              "name": "rentDuration",
              "type": "uint256"
            }
          ],
          "internalType": "struct registerDataIterableMap.registerData",
          "name": "",
          "type": "tuple"
        }
      ],
      "stateMutability": "view",
      "type": "function"
    },
    {
      "inputs": [
        {
          "internalType": "address",
          "name": "nftAddress",
          "type": "address"
        },
        {
          "internalType": "uint256",
          "name": "tokenId",
          "type": "uint256"
        }
      ],
      "name": "getRentData",
      "outputs": [
        {
          "components": [
            {
              "internalType": "address",
              "name": "nftAddress",
              "type": "address"
            },
            {
              "internalType": "uint256",
              "name": "tokenId",
              "type": "uint256"
            },
            {
              "internalType": "uint256",
              "name": "rentFee",
              "type": "uint256"
            },
            {
              "internalType": "address",
              "name": "feeTokenAddress",
              "type": "address"
            },
            {
              "internalType": "uint256",
              "name": "rentFeeByToken",
              "type": "uint256"
            },
            {
              "internalType": "bool",
              "name": "isRentByToken",
              "type": "bool"
            },
            {
              "internalType": "uint256",
              "name": "rentDuration",
              "type": "uint256"
            },
            {
              "internalType": "address",
              "name": "renterAddress",
              "type": "address"
            },
            {
              "internalType": "address",
              "name": "renteeAddress",
              "type": "address"
            },
            {
              "internalType": "address",
              "name": "serviceAddress",
              "type": "address"
            },
            {
              "internalType": "uint256",
              "name": "rentStartTimestamp",
              "type": "uint256"
            }
          ],
          "internalType": "struct rentDataIterableMap.rentData",
          "name": "",
          "type": "tuple"
        }
      ],
      "stateMutability": "view",
      "type": "function"
    },
    {
      "inputs": [
        {
          "internalType": "address",
          "name": "serviceAddress",
          "type": "address"
        }
      ],
      "name": "getService",
      "outputs": [
        {
          "components": [
            {
              "internalType": "address",
              "name": "serviceAddress",
              "type": "address"
            },
            {
              "internalType": "string",
              "name": "uri",
              "type": "string"
            }
          ],
          "internalType": "struct serviceDataIterableMap.serviceData",
          "name": "",
          "type": "tuple"
        }
      ],
      "stateMutability": "view",
      "type": "function"
    },
    {
      "inputs": [],
      "name": "getThreshold",
      "outputs": [
        {
          "internalType": "uint256",
          "name": "",
          "type": "uint256"
        }
      ],
      "stateMutability": "view",
      "type": "function"
    },
    {
      "inputs": [
        {
          "internalType": "address",
          "name": "tokenAddress_",
          "type": "address"
        }
      ],
      "name": "getTotalAccountBalance",
      "outputs": [
        {
          "internalType": "uint256",
          "name": "totalAccountBalance_",
          "type": "uint256"
        }
      ],
      "stateMutability": "view",
      "type": "function"
    },
    {
      "inputs": [],
      "name": "owner",
      "outputs": [
        {
          "internalType": "address",
          "name": "",
          "type": "address"
        }
      ],
      "stateMutability": "view",
      "type": "function"
    },
    {
      "inputs": [],
      "name": "pause",
      "outputs": [],
      "stateMutability": "nonpayable",
      "type": "function"
    },
    {
      "inputs": [],
      "name": "paused",
      "outputs": [
        {
          "internalType": "bool",
          "name": "",
          "type": "bool"
        }
      ],
      "stateMutability": "view",
      "type": "function"
    },
    {
      "inputs": [
        {
          "internalType": "address",
          "name": "collectionAddress",
          "type": "address"
        },
        {
          "internalType": "string",
          "name": "uri",
          "type": "string"
        }
      ],
      "name": "registerCollection",
      "outputs": [
        {
          "internalType": "bool",
          "name": "success",
          "type": "bool"
        }
      ],
      "stateMutability": "nonpayable",
      "type": "function"
    },
    {
      "inputs": [
        {
          "internalType": "address",
          "name": "nftAddress",
          "type": "address"
        },
        {
          "internalType": "uint256",
          "name": "tokenId",
          "type": "uint256"
        }
      ],
      "name": "registerNFT",
      "outputs": [
        {
          "internalType": "bool",
          "name": "success",
          "type": "bool"
        }
      ],
      "stateMutability": "nonpayable",
      "type": "function"
    },
    {
      "inputs": [
        {
          "internalType": "address",
          "name": "serviceAddress",
          "type": "address"
        },
        {
          "internalType": "string",
          "name": "uri",
          "type": "string"
        }
      ],
      "name": "registerService",
      "outputs": [
        {
          "internalType": "bool",
          "name": "success",
          "type": "bool"
        }
      ],
      "stateMutability": "nonpayable",
      "type": "function"
    },
    {
      "inputs": [
        {
          "internalType": "address",
          "name": "tokenAddress",
          "type": "address"
        },
        {
          "internalType": "string",
          "name": "name",
          "type": "string"
        }
      ],
      "name": "registerToken",
      "outputs": [
        {
          "internalType": "bool",
          "name": "success",
          "type": "bool"
        }
      ],
      "stateMutability": "nonpayable",
      "type": "function"
    },
    {
      "inputs": [],
      "name": "renounceOwnership",
      "outputs": [],
      "stateMutability": "nonpayable",
      "type": "function"
    },
    {
      "inputs": [
        {
          "internalType": "address",
          "name": "nftAddress",
          "type": "address"
        },
        {
          "internalType": "uint256",
          "name": "tokenId",
          "type": "uint256"
        },
        {
          "internalType": "address",
          "name": "serviceAddress",
          "type": "address"
        }
      ],
      "name": "rentNFT",
      "outputs": [
        {
          "internalType": "bool",
          "name": "success",
          "type": "bool"
        }
      ],
      "stateMutability": "payable",
      "type": "function"
    },
    {
      "inputs": [
        {
          "internalType": "address",
          "name": "nftAddress",
          "type": "address"
        },
        {
          "internalType": "uint256",
          "name": "tokenId",
          "type": "uint256"
        },
        {
          "internalType": "address",
          "name": "serviceAddress",
          "type": "address"
        },
        {
          "internalType": "uint256",
          "name": "deadline",
          "type": "uint256"
        },
        {
          "components": [
            {
              "internalType": "uint8",
              "name": "v",
              "type": "uint8"
            },
            {
              "internalType": "bytes32",
              "name": "r",
              "type": "bytes32"
            },
            {
              "internalType": "bytes32",
              "name": "s",
              "type": "bytes32"
            }
          ],
          "internalType": "struct rentMarket.Signature",
          "name": "signature",
          "type": "tuple"
        }
      ],
      "name": "rentNFTByToken",
      "outputs": [],
      "stateMutability": "payable",
      "type": "function"
    },
    {
      "inputs": [
        {
          "internalType": "uint256",
          "name": "renterFeeQuota",
          "type": "uint256"
        },
        {
          "internalType": "uint256",
          "name": "serviceFeeQuota",
          "type": "uint256"
        },
        {
          "internalType": "uint256",
          "name": "marketFeeQuota",
          "type": "uint256"
        }
      ],
      "name": "setFeeQuota",
      "outputs": [],
      "stateMutability": "nonpayable",
      "type": "function"
    },
    {
      "inputs": [
        {
          "internalType": "address",
          "name": "shareAddress",
          "type": "address"
        }
      ],
      "name": "setMarketShareAddress",
      "outputs": [],
      "stateMutability": "nonpayable",
      "type": "function"
    },
    {
      "inputs": [
        {
          "internalType": "uint256",
          "name": "threshold_",
          "type": "uint256"
        }
      ],
      "name": "setThreshold",
      "outputs": [],
      "stateMutability": "nonpayable",
      "type": "function"
    },
    {
      "inputs": [
        {
          "internalType": "address",
          "name": "nftAddress",
          "type": "address"
        },
        {
          "internalType": "uint256",
          "name": "tokenId",
          "type": "uint256"
        }
      ],
      "name": "settleRentData",
      "outputs": [
        {
          "internalType": "bool",
          "name": "success",
          "type": "bool"
        }
      ],
      "stateMutability": "nonpayable",
      "type": "function"
    },
    {
      "inputs": [
        {
          "internalType": "address",
          "name": "newOwner",
          "type": "address"
        }
      ],
      "name": "transferOwnership",
      "outputs": [],
      "stateMutability": "nonpayable",
      "type": "function"
    },
    {
      "inputs": [],
      "name": "unpause",
      "outputs": [],
      "stateMutability": "nonpayable",
      "type": "function"
    },
    {
      "inputs": [
        {
          "internalType": "address",
          "name": "collectionAddress",
          "type": "address"
        }
      ],
      "name": "unregisterCollection",
      "outputs": [
        {
          "internalType": "bool",
          "name": "success",
          "type": "bool"
        }
      ],
      "stateMutability": "nonpayable",
      "type": "function"
    },
    {
      "inputs": [
        {
          "internalType": "address",
          "name": "nftAddress",
          "type": "address"
        },
        {
          "internalType": "uint256",
          "name": "tokenId",
          "type": "uint256"
        }
      ],
      "name": "unregisterNFT",
      "outputs": [
        {
          "internalType": "bool",
          "name": "success",
          "type": "bool"
        }
      ],
      "stateMutability": "nonpayable",
      "type": "function"
    },
    {
      "inputs": [
        {
          "internalType": "address",
          "name": "serviceAddress",
          "type": "address"
        }
      ],
      "name": "unregisterService",
      "outputs": [
        {
          "internalType": "bool",
          "name": "success",
          "type": "bool"
        }
      ],
      "stateMutability": "nonpayable",
      "type": "function"
    },
    {
      "inputs": [
        {
          "internalType": "address",
          "name": "tokenAddress",
          "type": "address"
        }
      ],
      "name": "unregisterToken",
      "outputs": [
        {
          "internalType": "bool",
          "name": "success",
          "type": "bool"
        }
      ],
      "stateMutability": "nonpayable",
      "type": "function"
    },
    {
      "inputs": [
        {
          "internalType": "address",
          "name": "nftAddress",
          "type": "address"
        },
        {
          "internalType": "uint256",
          "name": "tokenId",
          "type": "uint256"
        }
      ],
      "name": "unrentNFT",
      "outputs": [
        {
          "internalType": "bool",
          "name": "success",
          "type": "bool"
        }
      ],
      "stateMutability": "nonpayable",
      "type": "function"
    },
    {
      "inputs": [
        {
          "internalType": "address",
          "name": "recipient",
          "type": "address"
        },
        {
          "internalType": "address",
          "name": "tokenAddress",
          "type": "address"
        }
      ],
      "name": "withdrawMyBalance",
      "outputs": [
        {
          "internalType": "bool",
          "name": "success",
          "type": "bool"
        }
      ],
      "stateMutability": "payable",
      "type": "function"
    },
    {
      "stateMutability": "payable",
      "type": "receive"
    }
  ],
  "bytecode": "0x6080604052670de0b6b3a76400006002556201518060035560236004556023600555601e60065560646007553480156200003857600080fd5b50620000443362000069565b6000805460ff60a01b19169055600180546001600160a01b03191633179055620000b9565b600080546001600160a01b038381166001600160a01b0319831681178455604051919092169283917f8be0079c531659141344cd1fd0a4f28419497f9722a3daafe3b4186f6b6457e09190a35050565b615e9d80620000c96000396000f3fe6080604052600436106101cf5760003560e01c806301cf2bae1461023057806306eb924f1461026357806315a523021461029357806317a6b609146102c05780631c2c2c24146102e05780632736a862146103025780632d740226146103245780632e6379ed146103445780633f4ba83a146103575780634419ebb61461036c57806345d44eda146103995780634b6c05fa146103b95780635c975abb146103e05780636558fce6146103f55780636b4a08961461041557806370473d8614610435578063715018a61461045757806377860cdd1461046c5780637e3ef7cd1461048c57806381ac825c146104ac57806383b2f911146104bf5780638456cb59146104ec57806385e3c1d4146105015780638bb72e83146105235780638da5cb5b1461054557806395dbd4401461055a578063960bfe041461057c5780639f2a0be41461059c578063adee9abd146105af578063d4fbeb19146105cf578063e2fcbf73146105ef578063e40de88714610611578063e5d1420f14610631578063e75235b814610651578063e7823fac14610666578063e8592fc714610686578063ec51c0d1146106a6578063ee5afa52146106d7578063eec31042146106f7578063f2fde38b1461071957610203565b3661020357604051349033907fd6717f327e0cb88b4a97a7f67a453e9258252c34937ccbdd86de7cb840e7def390600090a3005b60405133907fdd0c5778ddb0b0501649417aeffed44057db3d5d530231758c8dc5ef6eeb789490600090a2005b34801561023c57600080fd5b5061025061024b366004614ffa565b610739565b6040519081526020015b60405180910390f35b34801561026f57600080fd5b5061028361027e3660046150cf565b6107fa565b604051901515815260200161025a565b34801561029f57600080fd5b506102b36102ae366004614ffa565b6109b5565b60405161025a91906151f9565b3480156102cc57600080fd5b506102836102db36600461520c565b610a4b565b3480156102ec57600080fd5b506102f5610e2f565b60405161025a91906152db565b34801561030e57600080fd5b5061032261031d36600461532a565b610fa0565b005b34801561033057600080fd5b5061028361033f3660046150cf565b611003565b610283610352366004615356565b611191565b34801561036357600080fd5b50610322611583565b34801561037857600080fd5b5061038c61038736600461520c565b611595565b60405161025a919061538f565b3480156103a557600080fd5b506102836103b4366004614ffa565b611631565b3480156103c557600080fd5b506001546001600160a01b03165b60405161025a919061539e565b3480156103ec57600080fd5b50610283611876565b34801561040157600080fd5b506102836104103660046153b2565b611886565b34801561042157600080fd5b5061028361043036600461520c565b611b64565b34801561044157600080fd5b5061044a612212565b60405161025a9190615453565b34801561046357600080fd5b5061032261233c565b34801561047857600080fd5b50610283610487366004614ffa565b61234e565b34801561049857600080fd5b506102506104a7366004614ffa565b612572565b6102836104ba366004615495565b612601565b3480156104cb57600080fd5b506104df6104da36600461520c565b612ccf565b60405161025a91906154d7565b3480156104f857600080fd5b50610322612d63565b34801561050d57600080fd5b50610516612d73565b60405161025a91906154e5565b34801561052f57600080fd5b50610538612f07565b60405161025a9190615547565b34801561055157600080fd5b506103d361303a565b34801561056657600080fd5b5061056f613049565b60405161025a91906155b9565b34801561058857600080fd5b5061032261059736600461560e565b6131d0565b6103226105aa366004615627565b6131dd565b3480156105bb57600080fd5b506102836105ca366004614ffa565b61383b565b3480156105db57600080fd5b506102836105ea3660046150cf565b613a5f565b3480156105fb57600080fd5b50610604613bed565b60405161025a91906156ba565b34801561061d57600080fd5b506102b361062c366004614ffa565b613cf6565b34801561063d57600080fd5b5061028361064c36600461520c565b613d38565b34801561065d57600080fd5b50600754610250565b34801561067257600080fd5b50610322610681366004615356565b61400e565b34801561069257600080fd5b506102836106a136600461520c565b6142e8565b3480156106b257600080fd5b506004546005546006546040805193845260208401929092529082015260600161025a565b3480156106e357600080fd5b506103226106f2366004614ffa565b61486e565b34801561070357600080fd5b5061070c614898565b60405161025a9190615712565b34801561072557600080fd5b50610322610734366004614ffa565b614a1f565b600080610744614ed6565b60005b6015548110156107f15760158054601491908390811061076957610769615767565b9060005260206000200160405161078091906157b2565b908152604080516020928190038301812060608201835260018101546001600160a01b03908116835260028201548116948301859052600390910154928201929092529350861614156107df5760408201516107dc9084615864565b92505b806107e98161587c565b915050610747565b50909392505050565b6000610804614a98565b61080c614af7565b6040516360f353e160e01b815273__$79a40a2052c9947e027843e42106f8b048$__906360f353e19061084690600a908790600401615897565b60206040518083038186803b15801561085e57600080fd5b505af4158015610872573d6000803e3d6000fd5b505050506040513d601f19601f8201168201806040525081019061089691906158be565b156108bc5760405162461bcd60e51b81526004016108b3906158d9565b60405180910390fd5b60405163287af74760e01b815260009073__$79a40a2052c9947e027843e42106f8b048$__9063287af747906108fb90600a90889088906004016158f6565b60206040518083038186803b15801561091357600080fd5b505af4158015610927573d6000803e3d6000fd5b505050506040513d601f19601f8201168201806040525081019061094b91906158be565b9050600181151514156109a357836001600160a01b03167fdcc2016b74f9e1be59c35f005623093f22ee185961aa79657be041dba04ed0a4846040516109919190615929565b60405180910390a260019150506109af565b60009150506109af565b505b92915050565b6109bd614ef6565b604051631eb966b960e01b815273__$a27ab5a2953dc10a9c552591268754b616$__90631eb966b9906109f790600c908690600401615897565b60006040518083038186803b158015610a0f57600080fd5b505af4158015610a23573d6000803e3d6000fd5b505050506040513d6000823e601f3d908101601f191682016040526109af91908101906159fc565b6000610a55614af7565b6040516304ecf28360e41b815273__$aabfbf51bc7bf3b8af0580fb7224204a01$__90634ecf283090610a9190600e9087908790600401615a30565b60206040518083038186803b158015610aa957600080fd5b505af4158015610abd573d6000803e3d6000fd5b505050506040513d601f19601f82011682018060405250810190610ae191906158be565b15610b145760405162461bcd60e51b815260206004820152600360248201526229269960e91b60448201526064016108b3565b6000610b208433614b3f565b90506000610b2e8585614bf2565b90506001600160a01b038116610b6f5760405162461bcd60e51b81526004016108b390602080825260049082015263524d323160e01b604082015260600190565b60018215151480610b8857506001600160a01b03811633145b80610c1e57506040516360f353e160e01b815273__$79a40a2052c9947e027843e42106f8b048$__906360f353e190610bc890600a903390600401615897565b60206040518083038186803b158015610be057600080fd5b505af4158015610bf4573d6000803e3d6000fd5b505050506040513d601f19601f82011682018060405250810190610c1891906158be565b15156001145b610c505760405162461bcd60e51b815260206004820152600360248201526214934d60ea1b60448201526064016108b3565b6040516360f353e160e01b815273__$79a40a2052c9947e027843e42106f8b048$__906360f353e190610c8a90600a908990600401615897565b60206040518083038186803b158015610ca257600080fd5b505af4158015610cb6573d6000803e3d6000fd5b505050506040513d601f19601f82011682018060405250810190610cda91906158be565b1515600114610d145760405162461bcd60e51b81526004016108b3906020808252600490820152632926991960e11b604082015260600190565b60025460035460405163cddd4b6760e01b815260009273__$aabfbf51bc7bf3b8af0580fb7224204a01$__9263cddd4b6792610d5f92600e928c928c92918991829190600401615a4f565b60206040518083038186803b158015610d7757600080fd5b505af4158015610d8b573d6000803e3d6000fd5b505050506040513d601f19601f82011682018060405250810190610daf91906158be565b905060018115151415610e2357816001600160a01b031685876001600160a01b03167f582e65d918b73308f2eb058e75e68168f22c49c2994530f72d46177c78435cbb600254600354604051610e0f929190918252602082015260400190565b60405180910390a4600193505050506109af565b600093505050506109af565b6011546060906000906001600160401b03811115610e4f57610e4f615017565b604051908082528060200260200182016040528015610e8857816020015b610e75614f0e565b815260200190600190039081610e6d5790505b50905060005b601154811015610f9a57601180546010919083908110610eb057610eb0615767565b90600052602060002001604051610ec791906157b2565b9081526040805191829003602090810183206101608401835260018101546001600160a01b03908116855260028201549285019290925260038101549284019290925260048201548116606084015260058201546080840152600682015460ff16151560a0840152600782015460c08401526008820154811660e084015260098201548116610100840152600a82015416610120830152600b01546101408201528251839083908110610f7c57610f7c615767565b60200260200101819052508080610f929061587c565b915050610e8e565b50919050565b610fa8614a98565b80610fb38385615864565b610fbd9190615864565b606414610ff55760405162461bcd60e51b81526004016108b3906020808252600490820152632926989960e11b604082015260600190565b600492909255600555600655565b600061100d614a98565b611015614af7565b604051638c9a6cc360e01b815273__$a27ab5a2953dc10a9c552591268754b616$__90638c9a6cc39061104f90600c908790600401615897565b60206040518083038186803b15801561106757600080fd5b505af415801561107b573d6000803e3d6000fd5b505050506040513d601f19601f8201168201806040525081019061109f91906158be565b156110bc5760405162461bcd60e51b81526004016108b3906158d9565b6040516327a7887760e21b815260009073__$a27ab5a2953dc10a9c552591268754b616$__90639e9e21dc906110fb90600c90889088906004016158f6565b60206040518083038186803b15801561111357600080fd5b505af4158015611127573d6000803e3d6000fd5b505050506040513d601f19601f8201168201806040525081019061114b91906158be565b9050600181151514156109a357836001600160a01b03167f26e277514df07793f28eff0e6f05b34a8dc0be0012b50d1b6162ce3c958b0c4e846040516109919190615929565b6000336001600160a01b03841614806111c257506111ad61303a565b6001600160a01b0316336001600160a01b0316145b6111f75760405162461bcd60e51b81526004016108b3906020808252600490820152630a49a62760e31b604082015260600190565b60405163b52bf90f60e01b815260009073__$35fde6ac6f7fb08b81f20635e2dfbb2343$__9063b52bf90f906112369060149088908890600401615a8d565b60206040518083038186803b15801561124e57600080fd5b505af4158015611262573d6000803e3d6000fd5b505050506040513d601f19601f820116820180604052508101906112869190615aac565b905080156109ad576001600160a01b03831661132e576000846001600160a01b03168260405160006040518083038185875af1925050503d80600081146112e9576040519150601f19603f3d011682016040523d82523d6000602084013e6112ee565b606091505b50509050806113285760405162461bcd60e51b81526004016108b39060208082526004908201526314934c4d60e21b604082015260600190565b50611490565b60405163095ea7b360e01b8152306004820152602481018290526000906001600160a01b0385169063095ea7b390604401602060405180830381600087803b15801561137957600080fd5b505af115801561138d573d6000803e3d6000fd5b505050506040513d601f19601f820116820180604052508101906113b191906158be565b9050806113e95760405162461bcd60e51b81526004016108b390602080825260049082015263524d313960e01b604082015260600190565b6040516323b872dd60e01b81526000906001600160a01b038616906323b872dd9061141c9030908a908890600401615ac5565b602060405180830381600087803b15801561143657600080fd5b505af115801561144a573d6000803e3d6000fd5b505050506040513d601f19601f8201168201806040525081019061146e91906158be565b90508061148d5760405162461bcd60e51b81526004016108b390615ae9565b50505b60405163bc824a9360e01b815260009073__$35fde6ac6f7fb08b81f20635e2dfbb2343$__9063bc824a93906114cf9060149089908990600401615a8d565b60206040518083038186803b1580156114e757600080fd5b505af41580156114fb573d6000803e3d6000fd5b505050506040513d601f19601f8201168201806040525081019061151f91906158be565b9050600181151514156115785781846001600160a01b0316866001600160a01b03167ff19b643806aff6923e6a83303f2c43467bb6e47487c68586ec0bcfb7097e8f7660405160405180910390a46001925050506109af565b6000925050506109af565b61158b614a98565b611593614cb9565b565b61159d614f0e565b60405163af8b7c8160e01b815273__$c9b49513854812b7b6c4b448b2aa4684e3$__9063af8b7c81906115d99060109087908790600401615a30565b6101606040518083038186803b1580156115f257600080fd5b505af4158015611606573d6000803e3d6000fd5b505050506040513d601f19601f8201168201806040525081019061162a9190615b07565b9392505050565b600061163b614a98565b604051638c9a6cc360e01b815273__$a27ab5a2953dc10a9c552591268754b616$__90638c9a6cc39061167590600c908690600401615897565b60206040518083038186803b15801561168d57600080fd5b505af41580156116a1573d6000803e3d6000fd5b505050506040513d601f19601f820116820180604052508101906116c591906158be565b15156001146116e65760405162461bcd60e51b81526004016108b390615bc0565b604051631eb966b960e01b815260009073__$a27ab5a2953dc10a9c552591268754b616$__90631eb966b99061172390600c908790600401615897565b60006040518083038186803b15801561173b57600080fd5b505af415801561174f573d6000803e3d6000fd5b505050506040513d6000823e601f3d908101601f1916820160405261177791908101906159fc565b604051634c3bfbf560e11b815290915060009073__$a27ab5a2953dc10a9c552591268754b616$__90639877f7ea906117b790600c908890600401615897565b60206040518083038186803b1580156117cf57600080fd5b505af41580156117e3573d6000803e3d6000fd5b505050506040513d601f19601f8201168201806040525081019061180791906158be565b9050600181151514156118675781600001516001600160a01b03167fd3bb6cf267814a3d42a12164c9ac01a59db6d9121ae676500da60fd56b086d3b83602001516040516118559190615929565b60405180910390a25060019392505050565b5060009392505050565b919050565b600054600160a01b900460ff1690565b6000611890614af7565b600061189c8888614bf2565b9050336001600160a01b03821614806118cd57506118b861303a565b6001600160a01b0316336001600160a01b0316145b6118e95760405162461bcd60e51b81526004016108b390615bdd565b6040516304ecf28360e41b815273__$aabfbf51bc7bf3b8af0580fb7224204a01$__90634ecf28309061192590600e908c908c90600401615a30565b60206040518083038186803b15801561193d57600080fd5b505af4158015611951573d6000803e3d6000fd5b505050506040513d601f19601f8201168201806040525081019061197591906158be565b15156001146119965760405162461bcd60e51b81526004016108b390615bc0565b6001600160a01b03851615611a5057604051631f04869b60e31b815273__$4fab912f99daae96c763763589e4636ca5$__9063f82434d8906119df906008908990600401615897565b60206040518083038186803b1580156119f757600080fd5b505af4158015611a0b573d6000803e3d6000fd5b505050506040513d601f19601f82011682018060405250810190611a2f91906158be565b1515600114611a505760405162461bcd60e51b81526004016108b390615ae9565b6040516313d3de6d60e11b815260009073__$aabfbf51bc7bf3b8af0580fb7224204a01$__906327a7bcda90611a9790600e908d908d908d908d908d908d90600401615a4f565b60206040518083038186803b158015611aaf57600080fd5b505af4158015611ac3573d6000803e3d6000fd5b505050506040513d601f19601f82011682018060405250810190611ae791906158be565b905060018115151415611b5357336001600160a01b0316888a6001600160a01b03167f4388754cf451950a50e2520e86758fc59ec9e88a7f6a09f2db5de37d545639298a8a8a8a89604051611b40959493929190615bfa565b60405180910390a4600192505050611b5a565b6000925050505b9695505050505050565b60405163e99a8e3960e01b815260009081908190819073__$c9b49513854812b7b6c4b448b2aa4684e3$__9063e99a8e3990611ba9906010908a908a90600401615a30565b60206040518083038186803b158015611bc157600080fd5b505af4158015611bd5573d6000803e3d6000fd5b505050506040513d601f19601f82011682018060405250810190611bf991906158be565b1515600114611c1a5760405162461bcd60e51b81526004016108b390615c26565b33611c2361303a565b6001600160a01b031614611c625760405162461bcd60e51b81526004016108b3906020808252600490820152632926989b60e11b604082015260600190565b60405163af8b7c8160e01b815260009073__$c9b49513854812b7b6c4b448b2aa4684e3$__9063af8b7c8190611ca1906010908b908b90600401615a30565b6101606040518083038186803b158015611cba57600080fd5b505af4158015611cce573d6000803e3d6000fd5b505050506040513d601f19601f82011682018060405250810190611cf29190615b07565b90508060a001511515600115151415611d115780608001519150611d19565b806040015191505b610140810151429081118015611d4257508160c00151826101400151611d3f9190615864565b81105b15611e1a57600082610140015182611d5a9190615c44565b9050611d73611d698286615c5b565b8460c00151614d08565b9550611d7f8487614d14565b610100840151606085015160405163071cd41560e31b815292975073__$35fde6ac6f7fb08b81f20635e2dfbb2343$__926338e6a0a892611dc7926014928b90600401615c7a565b60206040518083038186803b158015611ddf57600080fd5b505af4158015611df3573d6000803e3d6000fd5b505050506040513d601f19601f82011682018060405250810190611e1791906158be565b50505b841561203a576000611e3a60045487611e339190615c5b565b6064614d08565b90506000611e4f60055488611e339190615c5b565b9050600081611e5e848a615c44565b611e689190615c44565b60e0860151606087015160405163071cd41560e31b815292935073__$35fde6ac6f7fb08b81f20635e2dfbb2343$__926338e6a0a892611eaf926014928990600401615c7a565b60206040518083038186803b158015611ec757600080fd5b505af4158015611edb573d6000803e3d6000fd5b505050506040513d601f19601f82011682018060405250810190611eff91906158be565b50610120850151606086015160405163071cd41560e31b815273__$35fde6ac6f7fb08b81f20635e2dfbb2343$__926338e6a0a892611f479260149291908890600401615c7a565b60206040518083038186803b158015611f5f57600080fd5b505af4158015611f73573d6000803e3d6000fd5b505050506040513d601f19601f82011682018060405250810190611f9791906158be565b50600154606086015160405163071cd41560e31b815273__$35fde6ac6f7fb08b81f20635e2dfbb2343$__926338e6a0a892611fe5926014926001600160a01b031691908790600401615c7a565b60206040518083038186803b158015611ffd57600080fd5b505af4158015612011573d6000803e3d6000fd5b505050506040513d601f19601f8201168201806040525081019061203591906158be565b505050505b60405163af8b7c8160e01b815260009073__$c9b49513854812b7b6c4b448b2aa4684e3$__9063af8b7c8190612079906010908d908d90600401615a30565b6101606040518083038186803b15801561209257600080fd5b505af41580156120a6573d6000803e3d6000fd5b505050506040513d601f19601f820116820180604052508101906120ca9190615b07565b604051631d865d9360e21b815290915060009073__$c9b49513854812b7b6c4b448b2aa4684e3$__90637619764c9061210c906010908e908e90600401615a30565b60206040518083038186803b15801561212457600080fd5b505af4158015612138573d6000803e3d6000fd5b505050506040513d601f19601f8201168201806040525081019061215c91906158be565b905060018115151415612202578161010001516001600160a01b0316826020015183600001516001600160a01b03167f1e47184299ef1ae0147489de864e2860294ab4125cb78ff3488bce09ea0192f68560400151866060015187608001518860a001518960c001518a60e001518b61012001518c61014001516040516121ea989796959493929190615c9f565b60405180910390a460019750505050505050506109af565b60009750505050505050506109af565b600f546060906000906001600160401b0381111561223257612232615017565b60405190808252806020026020018201604052801561226b57816020015b612258614f6a565b8152602001906001900390816122505790505b50905060005b600f54811015610f9a57600f8054600e91908390811061229357612293615767565b906000526020600020016040516122aa91906157b2565b90815260408051918290036020908101832060c08401835260018101546001600160a01b0390811685526002820154928501929092526003810154928401929092526004820154166060830152600581015460808301526006015460a0820152825183908390811061231e5761231e615767565b602002602001018190525080806123349061587c565b915050612271565b612344614a98565b6115936000614d20565b6000612358614a98565b604051631f04869b60e31b815273__$4fab912f99daae96c763763589e4636ca5$__9063f82434d890612392906008908690600401615897565b60206040518083038186803b1580156123aa57600080fd5b505af41580156123be573d6000803e3d6000fd5b505050506040513d601f19601f820116820180604052508101906123e291906158be565b15156001146124035760405162461bcd60e51b81526004016108b390615bc0565b604051630a93aab960e31b815260009073__$4fab912f99daae96c763763589e4636ca5$__9063549d55c890612440906008908790600401615897565b60006040518083038186803b15801561245857600080fd5b505af415801561246c573d6000803e3d6000fd5b505050506040513d6000823e601f3d908101601f1916820160405261249491908101906159fc565b6040516359c0255d60e01b815290915060009073__$4fab912f99daae96c763763589e4636ca5$__906359c0255d906124d4906008908890600401615897565b60206040518083038186803b1580156124ec57600080fd5b505af4158015612500573d6000803e3d6000fd5b505050506040513d601f19601f8201168201806040525081019061252491906158be565b9050600181151514156118675781600001516001600160a01b03167f037af5869c73bd98d861d265ed2fe7856d434102678eab240cfac53917ef4e8383602001516040516118559190615929565b60405163b52bf90f60e01b815260009073__$35fde6ac6f7fb08b81f20635e2dfbb2343$__9063b52bf90f906125b19060149033908790600401615a8d565b60206040518083038186803b1580156125c957600080fd5b505af41580156125dd573d6000803e3d6000fd5b505050506040513d601f19601f820116820180604052508101906109af9190615aac565b600061260b614af7565b612613614fb2565b6040516304ecf28360e41b815273__$aabfbf51bc7bf3b8af0580fb7224204a01$__90634ecf28309061264f90600e9089908990600401615a30565b60206040518083038186803b15801561266757600080fd5b505af415801561267b573d6000803e3d6000fd5b505050506040513d601f19601f8201168201806040525081019061269f91906158be565b15156001146126c05760405162461bcd60e51b81526004016108b390615ce5565b604051638c9a6cc360e01b815273__$a27ab5a2953dc10a9c552591268754b616$__90638c9a6cc3906126fa90600c908790600401615897565b60206040518083038186803b15801561271257600080fd5b505af4158015612726573d6000803e3d6000fd5b505050506040513d601f19601f8201168201806040525081019061274a91906158be565b151560011461276b5760405162461bcd60e51b81526004016108b390615d02565b604051630163053760e51b8152349073__$aabfbf51bc7bf3b8af0580fb7224204a01$__90632c60a6e0906127a990600e908a908a90600401615a30565b60c06040518083038186803b1580156127c157600080fd5b505af41580156127d5573d6000803e3d6000fd5b505050506040513d601f19601f820116820180604052508101906127f99190615d1f565b60400151146128305760405162461bcd60e51b81526020600482015260036024820152620a49a760eb1b60448201526064016108b3565b604051630163053760e51b815260009073__$aabfbf51bc7bf3b8af0580fb7224204a01$__90632c60a6e09061286f90600e908a908a90600401615a30565b60c06040518083038186803b15801561288757600080fd5b505af415801561289b573d6000803e3d6000fd5b505050506040513d601f19601f820116820180604052508101906128bf9190615d1f565b6000835260405163e99a8e3960e01b815290915073__$c9b49513854812b7b6c4b448b2aa4684e3$__9063e99a8e3990612902906010908a908a90600401615a30565b60206040518083038186803b15801561291a57600080fd5b505af415801561292e573d6000803e3d6000fd5b505050506040513d601f19601f8201168201806040525081019061295291906158be565b151560011415612a855760405163af8b7c8160e01b815260009073__$c9b49513854812b7b6c4b448b2aa4684e3$__9063af8b7c819061299b906010908b908b90600401615a30565b6101606040518083038186803b1580156129b457600080fd5b505af41580156129c8573d6000803e3d6000fd5b505050506040513d601f19601f820116820180604052508101906129ec9190615b07565b60c08101518452604051631d865d9360e21b815290915073__$c9b49513854812b7b6c4b448b2aa4684e3$__90637619764c90612a32906010908b908b90600401615a30565b60206040518083038186803b158015612a4a57600080fd5b505af4158015612a5e573d6000803e3d6000fd5b505050506040513d601f19601f82011682018060405250810190612a8291906158be565b50505b612a8f8686614bf2565b6001600160a01b03166040830152612aa5614f0e565b6001600160a01b03808816825260208201879052604080840151908301526060808401519091169082015260808083015190820152600060a080830191909152835190830151612af59190615864565b60c08201526040808401516001600160a01b0390811660e084015233610100840152861661012083015242610140830152516332ada61b60e01b815273__$c9b49513854812b7b6c4b448b2aa4684e3$__906332ada61b90612b5e906010908590600401615da9565b60206040518083038186803b158015612b7657600080fd5b505af4158015612b8a573d6000803e3d6000fd5b505050506040513d601f19601f82011682018060405250810190612bae91906158be565b15156060840181905260011415612cc25760408084015190516343d434b560e11b815273__$cd3810e67fa8b653e5355050e47a521f6f$__916387a8696a91612c03916012918a906000903490600401615dbe565b60206040518083038186803b158015612c1b57600080fd5b505af4158015612c2f573d6000803e3d6000fd5b505050506040513d601f19601f82011682018060405250810190612c5391906158be565b50336001600160a01b031686886001600160a01b0316600080516020615e4883398151915285604001518660600151876080015160008960a001518b604001518e8b6101400151604051612cae989796959493929190615c9f565b60405180910390a46001935050505061162a565b5060009695505050505050565b612cd7614f6a565b604051630163053760e51b815273__$aabfbf51bc7bf3b8af0580fb7224204a01$__90632c60a6e090612d1390600e9087908790600401615a30565b60c06040518083038186803b158015612d2b57600080fd5b505af4158015612d3f573d6000803e3d6000fd5b505050506040513d601f19601f8201168201806040525081019061162a9190615d1f565b612d6b614a98565b611593614d70565b6009546060906000906001600160401b03811115612d9357612d93615017565b604051908082528060200260200182016040528015612dd957816020015b604080518082019091526000815260606020820152815260200190600190039081612db15790505b50905060005b600954811015610f9a57600980546008919083908110612e0157612e01615767565b90600052602060002001604051612e1891906157b2565b9081526040805191829003602090810183208383019092526001820180546001600160a01b031684526002909201805491840191612e559061577d565b80601f0160208091040260200160405190810160405280929190818152602001828054612e819061577d565b8015612ece5780601f10612ea357610100808354040283529160200191612ece565b820191906000526020600020905b815481529060010190602001808311612eb157829003601f168201915b505050505081525050828281518110612ee957612ee9615767565b60200260200101819052508080612eff9061587c565b915050612ddf565b6013546060906000906001600160401b03811115612f2757612f27615017565b604051908082528060200260200182016040528015612f7957816020015b604080516080810182526000808252602080830182905292820181905260608201528252600019909201910181612f455790505b50905060005b601354811015610f9a57601380546012919083908110612fa157612fa1615767565b90600052602060002001604051612fb891906157b2565b90815260408051918290036020908101832060808401835260018101546001600160a01b0390811685526002820154811692850192909252600381015490911691830191909152600401546060820152825183908390811061301c5761301c615767565b602002602001018190525080806130329061587c565b915050612f7f565b6000546001600160a01b031690565b600d546060906000906001600160401b0381111561306957613069615017565b6040519080825280602002602001820160405280156130a257816020015b61308f614ef6565b8152602001906001900390816130875790505b50905060005b600d54811015610f9a57600d8054600c9190839081106130ca576130ca615767565b906000526020600020016040516130e191906157b2565b9081526040805191829003602090810183208383019092526001820180546001600160a01b03168452600290920180549184019161311e9061577d565b80601f016020809104026020016040519081016040528092919081815260200182805461314a9061577d565b80156131975780601f1061316c57610100808354040283529160200191613197565b820191906000526020600020905b81548152906001019060200180831161317a57829003601f168201915b5050505050815250508282815181106131b2576131b2615767565b602002602001018190525080806131c89061587c565b9150506130a8565b6131d8614a98565b600755565b6131e5614af7565b6040516304ecf28360e41b815273__$aabfbf51bc7bf3b8af0580fb7224204a01$__90634ecf28309061322190600e9089908990600401615a30565b60206040518083038186803b15801561323957600080fd5b505af415801561324d573d6000803e3d6000fd5b505050506040513d601f19601f8201168201806040525081019061327191906158be565b15156001146132925760405162461bcd60e51b81526004016108b390615ce5565b604051638c9a6cc360e01b815273__$a27ab5a2953dc10a9c552591268754b616$__90638c9a6cc3906132cc90600c908790600401615897565b60206040518083038186803b1580156132e457600080fd5b505af41580156132f8573d6000803e3d6000fd5b505050506040513d601f19601f8201168201806040525081019061331c91906158be565b151560011461333d5760405162461bcd60e51b81526004016108b390615d02565b34156133745760405162461bcd60e51b81526004016108b390602080825260049082015263524d313360e01b604082015260600190565b61337c614fb2565b6133868686614bf2565b6001600160a01b031660408083019190915251630163053760e51b815260009073__$aabfbf51bc7bf3b8af0580fb7224204a01$__90632c60a6e0906133d590600e908b908b90600401615a30565b60c06040518083038186803b1580156133ed57600080fd5b505af4158015613401573d6000803e3d6000fd5b505050506040513d601f19601f820116820180604052508101906134259190615d1f565b60608101519091506001600160a01b03166134525760405162461bcd60e51b81526004016108b390615ae9565b80606001516001600160a01b03166370a08231336040518263ffffffff1660e01b8152600401613482919061539e565b60206040518083038186803b15801561349a57600080fd5b505afa1580156134ae573d6000803e3d6000fd5b505050506040513d601f19601f820116820180604052508101906134d29190615aac565b60208301819052608082015111156135155760405162461bcd60e51b81526004016108b390602080825260049082015263524d323360e01b604082015260600190565b6060810151608082015184516020860151604080880151905163d505accf60e01b815233600482015230602482015260448101949094526064840189905260ff909216608484015260a483015260c48201526001600160a01b039091169063d505accf9060e401600060405180830381600087803b15801561359657600080fd5b505af11580156135aa573d6000803e3d6000fd5b5050505080606001516001600160a01b03166323b872dd333084608001516040518463ffffffff1660e01b81526004016135e693929190615ac5565b602060405180830381600087803b15801561360057600080fd5b505af1158015613614573d6000803e3d6000fd5b505050506040513d601f19601f8201168201806040525081019061363891906158be565b50613641614f0e565b6001600160a01b038089168252602082018890526040808401518184015260608085015183169084015260808085015190840152600160a08085019190915284015160c084015284810151821660e08401523361010084015290871661012083015242610140830152516332ada61b60e01b815273__$c9b49513854812b7b6c4b448b2aa4684e3$__906332ada61b906136e2906010908590600401615da9565b60206040518083038186803b1580156136fa57600080fd5b505af415801561370e573d6000803e3d6000fd5b505050506040513d601f19601f8201168201806040525081019061373291906158be565b506040808401516060840151608085015192516343d434b560e11b815273__$cd3810e67fa8b653e5355050e47a521f6f$__936387a8696a9361377e9360129391928d92600401615dbe565b60206040518083038186803b15801561379657600080fd5b505af41580156137aa573d6000803e3d6000fd5b505050506040513d601f19601f820116820180604052508101906137ce91906158be565b50336001600160a01b031687896001600160a01b0316600080516020615e4883398151915285604001518660600151876080015160018960a001518b604001518f8b6101400151604051613829989796959493929190615c9f565b60405180910390a45050505050505050565b6000613845614a98565b6040516360f353e160e01b815273__$79a40a2052c9947e027843e42106f8b048$__906360f353e19061387f90600a908690600401615897565b60206040518083038186803b15801561389757600080fd5b505af41580156138ab573d6000803e3d6000fd5b505050506040513d601f19601f820116820180604052508101906138cf91906158be565b15156001146138f05760405162461bcd60e51b81526004016108b390615bc0565b60405163044aed2360e01b815260009073__$79a40a2052c9947e027843e42106f8b048$__9063044aed239061392d90600a908790600401615897565b60006040518083038186803b15801561394557600080fd5b505af4158015613959573d6000803e3d6000fd5b505050506040513d6000823e601f3d908101601f1916820160405261398191908101906159fc565b60405163a3fb822560e01b815290915060009073__$79a40a2052c9947e027843e42106f8b048$__9063a3fb8225906139c190600a908890600401615897565b60206040518083038186803b1580156139d957600080fd5b505af41580156139ed573d6000803e3d6000fd5b505050506040513d601f19601f82011682018060405250810190613a1191906158be565b9050600181151514156118675781600001516001600160a01b03167fe32dbca0dcbe2dc4205cd30b4b23a82cff3e9b7e12a5682683185c6f33c978be83602001516040516118559190615929565b6000613a69614a98565b613a71614af7565b604051631f04869b60e31b815273__$4fab912f99daae96c763763589e4636ca5$__9063f82434d890613aab906008908790600401615897565b60206040518083038186803b158015613ac357600080fd5b505af4158015613ad7573d6000803e3d6000fd5b505050506040513d601f19601f82011682018060405250810190613afb91906158be565b15613b185760405162461bcd60e51b81526004016108b3906158d9565b6040516331d0579b60e11b815260009073__$4fab912f99daae96c763763589e4636ca5$__906363a0af3690613b5790600890889088906004016158f6565b60206040518083038186803b158015613b6f57600080fd5b505af4158015613b83573d6000803e3d6000fd5b505050506040513d601f19601f82011682018060405250810190613ba791906158be565b9050600181151514156109a357836001600160a01b03167ff76071867aae1eed00218b5aa8d4736b9b2161325ea3e48d283258a7e4ba75f5846040516109919190615929565b6015546060906000906001600160401b03811115613c0d57613c0d615017565b604051908082528060200260200182016040528015613c4657816020015b613c33614ed6565b815260200190600190039081613c2b5790505b50905060005b601554811015610f9a57601580546014919083908110613c6e57613c6e615767565b90600052602060002001604051613c8591906157b2565b90815260408051918290036020908101832060608401835260018101546001600160a01b0390811685526002820154169184019190915260030154908201528251839083908110613cd857613cd8615767565b60200260200101819052508080613cee9061587c565b915050613c4c565b613cfe614ef6565b60405163044aed2360e01b815273__$79a40a2052c9947e027843e42106f8b048$__9063044aed23906109f790600a908690600401615897565b600080613d458433614b3f565b90506000613d538585614bf2565b905060018215151480613d6e5750336001600160a01b038216145b80613d915750613d7c61303a565b6001600160a01b0316336001600160a01b0316145b613dad5760405162461bcd60e51b81526004016108b390615bdd565b6040516304ecf28360e41b815273__$aabfbf51bc7bf3b8af0580fb7224204a01$__90634ecf283090613de990600e9089908990600401615a30565b60206040518083038186803b158015613e0157600080fd5b505af4158015613e15573d6000803e3d6000fd5b505050506040513d601f19601f82011682018060405250810190613e3991906158be565b1515600114613e5a5760405162461bcd60e51b81526004016108b390615bc0565b604051630163053760e51b815260009073__$aabfbf51bc7bf3b8af0580fb7224204a01$__90632c60a6e090613e9990600e908a908a90600401615a30565b60c06040518083038186803b158015613eb157600080fd5b505af4158015613ec5573d6000803e3d6000fd5b505050506040513d601f19601f82011682018060405250810190613ee99190615d1f565b604051631f8195ef60e11b815290915060009073__$aabfbf51bc7bf3b8af0580fb7224204a01$__90633f032bde90613f2b90600e908b908b90600401615a30565b60206040518083038186803b158015613f4357600080fd5b505af4158015613f57573d6000803e3d6000fd5b505050506040513d601f19601f82011682018060405250810190613f7b91906158be565b90506001811515141561400157336001600160a01b0316826020015183600001516001600160a01b03167f47ef5674b8623b6a0bece5fae33a1a29ad79a7846a5be46a0b2e256b94f9ee318560400151866060015187608001518860a001518a604051613fec959493929190615bfa565b60405180910390a460019450505050506109af565b60009450505050506109af565b600754614019575050565b604051636eb1769f60e11b81526001600160a01b0382811660048301523060248301526000919084169063dd62ed3e9060440160206040518083038186803b15801561406457600080fd5b505afa158015614078573d6000803e3d6000fd5b505050506040513d601f19601f8201168201806040525081019061409c9190615aac565b9050806140a857505050565b60006140b384610739565b905060006140bf614ed6565b60005b6015548110156142265760075481106140da57614226565b6015805460149190839081106140f2576140f2615767565b9060005260206000200160405161410991906157b2565b908152604080516020928190038301812060608201835260018101546001600160a01b039081168352600282015481169483018590526003909101549282019290925293508816141561421457600061417183604001518761416b9190615c5b565b86614d08565b905061417d8185615864565b8351602085015160405163071cd41560e31b815292965073__$35fde6ac6f7fb08b81f20635e2dfbb2343$__926338e6a0a8926141c1926014928790600401615c7a565b60206040518083038186803b1580156141d957600080fd5b505af41580156141ed573d6000803e3d6000fd5b505050506040513d601f19601f8201168201806040525081019061421191906158be565b50505b8061421e8161587c565b9150506140c2565b5060006142338386615c44565b11156142e05760015473__$35fde6ac6f7fb08b81f20635e2dfbb2343$__906338e6a0a8906014906001600160a01b03168961426f878a615c44565b6040518563ffffffff1660e01b815260040161428e9493929190615c7a565b60206040518083038186803b1580156142a657600080fd5b505af41580156142ba573d6000803e3d6000fd5b505050506040513d601f19601f820116820180604052508101906142de91906158be565b505b505050505050565b60405163e99a8e3960e01b815260009073__$c9b49513854812b7b6c4b448b2aa4684e3$__9063e99a8e39906143279060109087908790600401615a30565b60206040518083038186803b15801561433f57600080fd5b505af4158015614353573d6000803e3d6000fd5b505050506040513d601f19601f8201168201806040525081019061437791906158be565b15156001146143985760405162461bcd60e51b81526004016108b390615c26565b60405163af8b7c8160e01b815260009073__$c9b49513854812b7b6c4b448b2aa4684e3$__9063af8b7c81906143d79060109088908890600401615a30565b6101606040518083038186803b1580156143f057600080fd5b505af4158015614404573d6000803e3d6000fd5b505050506040513d601f19601f820116820180604052508101906144289190615b07565b90508060c0015181610140015161443f9190615864565b42116144765760405162461bcd60e51b81526004016108b390602080825260049082015263524d313760e01b604082015260600190565b60008160a0015115156001151514156144945750608081015161449b565b5060408101515b60006144ae60045483611e339190615c5b565b905060006144c360055484611e339190615c5b565b90506000816144d28486615c44565b6144dc9190615c44565b60e0860151606087015160405163071cd41560e31b815292935073__$35fde6ac6f7fb08b81f20635e2dfbb2343$__926338e6a0a892614523926014928990600401615c7a565b60206040518083038186803b15801561453b57600080fd5b505af415801561454f573d6000803e3d6000fd5b505050506040513d601f19601f8201168201806040525081019061457391906158be565b50610120850151606086015160405163071cd41560e31b815273__$35fde6ac6f7fb08b81f20635e2dfbb2343$__926338e6a0a8926145bb9260149291908890600401615c7a565b60206040518083038186803b1580156145d357600080fd5b505af41580156145e7573d6000803e3d6000fd5b505050506040513d601f19601f8201168201806040525081019061460b91906158be565b50600154606086015160405163071cd41560e31b815273__$35fde6ac6f7fb08b81f20635e2dfbb2343$__926338e6a0a892614659926014926001600160a01b031691908790600401615c7a565b60206040518083038186803b15801561467157600080fd5b505af4158015614685573d6000803e3d6000fd5b505050506040513d601f19601f820116820180604052508101906146a991906158be565b5060e08501516101208601516060870151604051631a9a5d7160e21b815273__$cd3810e67fa8b653e5355050e47a521f6f$__93636a6975c4936146f4936012938b90600401615dbe565b60206040518083038186803b15801561470c57600080fd5b505af4158015614720573d6000803e3d6000fd5b505050506040513d601f19601f8201168201806040525081019061474491906158be565b5084516020860151604051631d865d9360e21b815273__$c9b49513854812b7b6c4b448b2aa4684e3$__92637619764c92614786926010929190600401615a30565b60206040518083038186803b15801561479e57600080fd5b505af41580156147b2573d6000803e3d6000fd5b505050506040513d601f19601f820116820180604052508101906147d691906158be565b508461010001516001600160a01b0316856020015186600001516001600160a01b03167f2941e86df5e844db000359f0e9abe470952bac636d89a010e9d5d513aad469fa886040015189606001518a608001518b60a001518c60c001518d60e001518e61012001518f6101400151604051614858989796959493929190615c9f565b60405180910390a4506001979650505050505050565b614876614a98565b600180546001600160a01b0319166001600160a01b0392909216919091179055565b600b546060906000906001600160401b038111156148b8576148b8615017565b6040519080825280602002602001820160405280156148f157816020015b6148de614ef6565b8152602001906001900390816148d65790505b50905060005b600b54811015610f9a57600b8054600a91908390811061491957614919615767565b9060005260206000200160405161493091906157b2565b9081526040805191829003602090810183208383019092526001820180546001600160a01b03168452600290920180549184019161496d9061577d565b80601f01602080910402602001604051908101604052809291908181526020018280546149999061577d565b80156149e65780601f106149bb576101008083540402835291602001916149e6565b820191906000526020600020905b8154815290600101906020018083116149c957829003601f168201915b505050505081525050828281518110614a0157614a01615767565b60200260200101819052508080614a179061587c565b9150506148f7565b614a27614a98565b6001600160a01b038116614a8c5760405162461bcd60e51b815260206004820152602660248201527f4f776e61626c653a206e6577206f776e657220697320746865207a65726f206160448201526564647265737360d01b60648201526084016108b3565b614a9581614d20565b50565b33614aa161303a565b6001600160a01b0316146115935760405162461bcd60e51b815260206004820181905260248201527f4f776e61626c653a2063616c6c6572206973206e6f7420746865206f776e657260448201526064016108b3565b614aff611876565b156115935760405162461bcd60e51b815260206004820152601060248201526f14185d5cd8589b194e881c185d5cd95960821b60448201526064016108b3565b600080614b5c6001600160a01b038516632c63230160e11b614db3565b9050600181151514156109a357604051632c63230160e11b81526000906001600160a01b038616906358c6460290614b9890879060040161539e565b60206040518083038186803b158015614bb057600080fd5b505afa158015614bc4573d6000803e3d6000fd5b505050506040513d601f19601f82011682018060405250810190614be891906158be565b92506109af915050565b6000806060846001600160a01b031684604051602401614c1491815260200190565b60408051601f198184030181529181526020820180516001600160e01b03166331a9108f60e11b17905251614c499190615dec565b6000604051808303816000865af19150503d8060008114614c86576040519150601f19603f3d011682016040523d82523d6000602084013e614c8b565b606091505b509092509050600182151514156115785780806020019051810190614cb09190615e08565b925050506109af565b614cc1614dcf565b6000805460ff60a01b191690557f5db9ee0a495bf2e6ff9c91a7834c1ba4fdd244a5e8aa4e537bd38aeae4b073aa335b604051614cfe919061539e565b60405180910390a1565b600061162a8284615e25565b600061162a8284615c44565b600080546001600160a01b038381166001600160a01b0319831681178455604051919092169283917f8be0079c531659141344cd1fd0a4f28419497f9722a3daafe3b4186f6b6457e09190a35050565b614d78614af7565b6000805460ff60a01b1916600160a01b1790557f62e78cea01bee320cd4e420270b5ea74000d11b0c9f74754ebdbfc544b05a258614cf13390565b6000614dbe83614e1a565b801561162a575061162a8383614e4d565b614dd7611876565b6115935760405162461bcd60e51b815260206004820152601460248201527314185d5cd8589b194e881b9bdd081c185d5cd95960621b60448201526064016108b3565b6000614e2d826301ffc9a760e01b614e4d565b80156109af5750614e46826001600160e01b0319614e4d565b1592915050565b604080516001600160e01b03198316602480830191909152825180830390910181526044909101909152602080820180516001600160e01b03166301ffc9a760e01b178152825160009392849283928392918391908a617530fa92503d91506000519050828015614ebf575060208210155b8015614ecb5750600081115b979650505050505050565b604080516060810182526000808252602082018190529181019190915290565b60408051808201909152600081526060602082015290565b6040805161016081018252600080825260208201819052918101829052606081018290526080810182905260a0810182905260c0810182905260e081018290526101008101829052610120810182905261014081019190915290565b6040518060c0016040528060006001600160a01b03168152602001600081526020016000815260200160006001600160a01b0316815260200160008152602001600081525090565b6040518060800160405280600081526020016000815260200160006001600160a01b031681526020016000151581525090565b6001600160a01b0381168114614a9557600080fd5b60006020828403121561500c57600080fd5b813561162a81614fe5565b634e487b7160e01b600052604160045260246000fd5b604051606081016001600160401b038111828210171561504f5761504f615017565b60405290565b60405161016081016001600160401b038111828210171561504f5761504f615017565b604051601f8201601f191681016001600160401b03811182821017156150a0576150a0615017565b604052919050565b60006001600160401b038211156150c1576150c1615017565b50601f01601f191660200190565b600080604083850312156150e257600080fd5b82356150ed81614fe5565b915060208301356001600160401b0381111561510857600080fd5b8301601f8101851361511957600080fd5b803561512c615127826150a8565b615078565b81815286602083850101111561514157600080fd5b816020840160208301376000602083830101528093505050509250929050565b6001600160a01b03169052565b60005b83811015615189578181015183820152602001615171565b83811115615198576000848401525b50505050565b600081518084526151b681602086016020860161516e565b601f01601f19169290920160200192915050565b60018060a01b03815116825260006020820151604060208501526151f1604085018261519e565b949350505050565b60208152600061162a60208301846151ca565b6000806040838503121561521f57600080fd5b823561522a81614fe5565b946020939093013593505050565b615243828251615161565b602081015160208301526040810151604083015260608101516152696060840182615161565b506080810151608083015260a081015161528760a084018215159052565b5060c081015160c083015260e08101516152a460e0840182615161565b50610100808201516152b882850182615161565b5050610120808201516152cd82850182615161565b505061014090810151910152565b6020808252825182820181905260009190848201906040850190845b8181101561531e5761530a838551615238565b9284019261016092909201916001016152f7565b50909695505050505050565b60008060006060848603121561533f57600080fd5b505081359360208301359350604090920135919050565b6000806040838503121561536957600080fd5b823561537481614fe5565b9150602083013561538481614fe5565b809150509250929050565b61016081016109af8284615238565b6001600160a01b0391909116815260200190565b60008060008060008060c087890312156153cb57600080fd5b86356153d681614fe5565b9550602087013594506040870135935060608701356153f481614fe5565b9598949750929560808101359460a0909101359350915050565b80516001600160a01b0390811683526020808301519084015260408083015190840152606080830151909116908301526080808201519083015260a090810151910152565b6020808252825182820181905260009190848201906040850190845b8181101561531e5761548283855161540e565b9284019260c0929092019160010161546f565b6000806000606084860312156154aa57600080fd5b83356154b581614fe5565b92506020840135915060408401356154cc81614fe5565b809150509250925092565b60c081016109af828461540e565b6000602080830181845280855180835260408601915060408160051b870101925083870160005b8281101561553a57603f198886030184526155288583516151ca565b9450928501929085019060010161550c565b5092979650505050505050565b602080825282518282018190526000919060409081850190868401855b828110156155ac57815180516001600160a01b039081168652878201518116888701528682015116868601526060908101519085015260809093019290850190600101615564565b5091979650505050505050565b6000602080830181845280855180835260408601915060408160051b870101925083870160005b8281101561553a57603f198886030184526155fc8583516151ca565b945092850192908501906001016155e0565b60006020828403121561562057600080fd5b5035919050565b600080600080600085870360e081121561564057600080fd5b863561564b81614fe5565b955060208701359450604087013561566281614fe5565b93506060878101359350607f198201121561567c57600080fd5b5061568561502d565b608087013560ff8116811461569957600080fd5b815260a0870135602082015260c09096013560408701525092959194509290565b602080825282518282018190526000919060409081850190868401855b828110156155ac57815180516001600160a01b03908116865287820151168786015285015185850152606090930192908501906001016156d7565b6000602080830181845280855180835260408601915060408160051b870101925083870160005b8281101561553a57603f198886030184526157558583516151ca565b94509285019290850190600101615739565b634e487b7160e01b600052603260045260246000fd5b600181811c9082168061579157607f821691505b60208210811415610f9a57634e487b7160e01b600052602260045260246000fd5b600080835481600182811c9150808316806157ce57607f831692505b60208084108214156157ee57634e487b7160e01b86526022600452602486fd5b818015615802576001811461581357615840565b60ff19861689528489019650615840565b60008a81526020902060005b868110156158385781548b82015290850190830161581f565b505084890196505b509498975050505050505050565b634e487b7160e01b600052601160045260246000fd5b600082198211156158775761587761584e565b500190565b60006000198214156158905761589061584e565b5060010190565b9182526001600160a01b0316602082015260400190565b8051801515811461187157600080fd5b6000602082840312156158d057600080fd5b61162a826158ae565b602080825260039082015262524d3160e81b604082015260600190565b8381526001600160a01b03831660208201526060604082018190526000906159209083018461519e565b95945050505050565b60208152600061162a602083018461519e565b805161187181614fe5565b60006040828403121561595957600080fd5b604080519081016001600160401b03808211838310171561597c5761597c615017565b816040528293508451915061599082614fe5565b908252602084015190808211156159a657600080fd5b508301601f810185136159b857600080fd5b80516159c6615127826150a8565b8181528660208385010111156159db57600080fd5b6159ec82602083016020860161516e565b8060208501525050505092915050565b600060208284031215615a0e57600080fd5b81516001600160401b03811115615a2457600080fd5b6151f184828501615947565b9283526001600160a01b03919091166020830152604082015260600190565b9687526001600160a01b03958616602088015260408701949094526060860192909252909216608084015260a083019190915260c082015260e00190565b9283526001600160a01b03918216602084015216604082015260600190565b600060208284031215615abe57600080fd5b5051919050565b6001600160a01b039384168152919092166020820152604081019190915260600190565b6020808252600490820152630524d32360e41b604082015260600190565b60006101608284031215615b1a57600080fd5b615b22615055565b615b2b8361593c565b81526020830151602082015260408301516040820152615b4d6060840161593c565b606082015260808301516080820152615b6860a084016158ae565b60a082015260c083015160c0820152615b8360e0840161593c565b60e0820152610100615b9681850161593c565b90820152610120615ba884820161593c565b90820152610140928301519281019290925250919050565b602080825260039082015262524d3360e81b604082015260600190565b602080825260039082015262524d3560e81b604082015260600190565b9485526001600160a01b0393841660208601526040850192909252606084015216608082015260a00190565b6020808252600490820152630524d31360e41b604082015260600190565b600082821015615c5657615c5661584e565b500390565b6000816000190483118215151615615c7557615c7561584e565b500290565b9384526001600160a01b03928316602085015291166040830152606082015260800190565b9788526001600160a01b039687166020890152604088019590955292151560608701526080860191909152831660a085015290911660c083015260e08201526101000190565b602080825260039082015262524d3760e81b604082015260600190565b60208082526003908201526229269b60e91b604082015260600190565b600060c08284031215615d3157600080fd5b60405160c081016001600160401b0381118282101715615d5357615d53615017565b6040528251615d6181614fe5565b8082525060208301516020820152604083015160408201526060830151615d8781614fe5565b60608201526080838101519082015260a0928301519281019290925250919050565b828152610180810161162a6020830184615238565b9485526001600160a01b03938416602086015291831660408501529091166060830152608082015260a00190565b60008251615dfe81846020870161516e565b9190910192915050565b600060208284031215615e1a57600080fd5b815161162a81614fe5565b600082615e4257634e487b7160e01b600052601260045260246000fd5b50049056fefe632cd15df82b5e105c28c0d0da9eb0228667912a4b1e430151d7c0d9227759a2646970667358221220b104b5f74326178592642cec9c26f3d3f616edf7a5e72fad0a121b6fdaf2e9b964736f6c63430008090033",
  "linkReferences": {
    "contracts/iterableMapLib.sol": {
      "accountBalanceIterableMap": [
        {
          "length": 20,
          "start": 4818
        },
        {
          "length": 20,
          "start": 5483
        },
        {
          "length": 20,
          "start": 7781
        },
        {
          "length": 20,
          "start": 8013
        },
        {
          "length": 20,
          "start": 8163
        },
        {
          "length": 20,
          "start": 8312
        },
        {
          "length": 20,
          "start": 9805
        },
        {
          "length": 20,
          "start": 16991
        },
        {
          "length": 20,
          "start": 17159
        },
        {
          "length": 20,
          "start": 17857
        },
        {
          "length": 20,
          "start": 18007
        },
        {
          "length": 20,
          "start": 18156
        }
      ],
      "collectionDataIterableMap": [
        {
          "length": 20,
          "start": 2276
        },
        {
          "length": 20,
          "start": 2455
        },
        {
          "length": 20,
          "start": 3174
        },
        {
          "length": 20,
          "start": 3368
        },
        {
          "length": 20,
          "start": 14621
        },
        {
          "length": 20,
          "start": 14795
        },
        {
          "length": 20,
          "start": 14943
        },
        {
          "length": 20,
          "start": 15830
        }
      ],
      "pendingRentFeeIterableMap": [
        {
          "length": 20,
          "start": 11420
        },
        {
          "length": 20,
          "start": 14362
        },
        {
          "length": 20,
          "start": 18322
        }
      ],
      "registerDataIterableMap": [
        {
          "length": 20,
          "start": 2861
        },
        {
          "length": 20,
          "start": 3573
        },
        {
          "length": 20,
          "start": 6593
        },
        {
          "length": 20,
          "start": 6955
        },
        {
          "length": 20,
          "start": 9963
        },
        {
          "length": 20,
          "start": 10309
        },
        {
          "length": 20,
          "start": 10507
        },
        {
          "length": 20,
          "start": 11695
        },
        {
          "length": 20,
          "start": 12989
        },
        {
          "length": 20,
          "start": 13425
        },
        {
          "length": 20,
          "start": 16005
        },
        {
          "length": 20,
          "start": 16181
        },
        {
          "length": 20,
          "start": 16327
        }
      ],
      "rentDataIterableMap": [
        {
          "length": 20,
          "start": 5749
        },
        {
          "length": 20,
          "start": 7237
        },
        {
          "length": 20,
          "start": 7485
        },
        {
          "length": 20,
          "start": 8469
        },
        {
          "length": 20,
          "start": 8616
        },
        {
          "length": 20,
          "start": 10654
        },
        {
          "length": 20,
          "start": 10807
        },
        {
          "length": 20,
          "start": 10958
        },
        {
          "length": 20,
          "start": 11260
        },
        {
          "length": 20,
          "start": 14208
        },
        {
          "length": 20,
          "start": 17347
        },
        {
          "length": 20,
          "start": 17523
        },
        {
          "length": 20,
          "start": 18468
        }
      ],
      "serviceDataIterableMap": [
        {
          "length": 20,
          "start": 2709
        },
        {
          "length": 20,
          "start": 4333
        },
        {
          "length": 20,
          "start": 4503
        },
        {
          "length": 20,
          "start": 5907
        },
        {
          "length": 20,
          "start": 6081
        },
        {
          "length": 20,
          "start": 6229
        },
        {
          "length": 20,
          "start": 10136
        },
        {
          "length": 20,
          "start": 13162
        }
      ],
      "tokenDataIterableMap": [
        {
          "length": 20,
          "start": 6781
        },
        {
          "length": 20,
          "start": 9264
        },
        {
          "length": 20,
          "start": 9438
        },
        {
          "length": 20,
          "start": 9586
        },
        {
          "length": 20,
          "start": 15177
        },
        {
          "length": 20,
          "start": 15347
        }
      ]
    }
  },
  "deployedLinkReferences": {
    "contracts/iterableMapLib.sol": {
      "accountBalanceIterableMap": [
        {
          "length": 20,
          "start": 4617
        },
        {
          "length": 20,
          "start": 5282
        },
        {
          "length": 20,
          "start": 7580
        },
        {
          "length": 20,
          "start": 7812
        },
        {
          "length": 20,
          "start": 7962
        },
        {
          "length": 20,
          "start": 8111
        },
        {
          "length": 20,
          "start": 9604
        },
        {
          "length": 20,
          "start": 16790
        },
        {
          "length": 20,
          "start": 16958
        },
        {
          "length": 20,
          "start": 17656
        },
        {
          "length": 20,
          "start": 17806
        },
        {
          "length": 20,
          "start": 17955
        }
      ],
      "collectionDataIterableMap": [
        {
          "length": 20,
          "start": 2075
        },
        {
          "length": 20,
          "start": 2254
        },
        {
          "length": 20,
          "start": 2973
        },
        {
          "length": 20,
          "start": 3167
        },
        {
          "length": 20,
          "start": 14420
        },
        {
          "length": 20,
          "start": 14594
        },
        {
          "length": 20,
          "start": 14742
        },
        {
          "length": 20,
          "start": 15629
        }
      ],
      "pendingRentFeeIterableMap": [
        {
          "length": 20,
          "start": 11219
        },
        {
          "length": 20,
          "start": 14161
        },
        {
          "length": 20,
          "start": 18121
        }
      ],
      "registerDataIterableMap": [
        {
          "length": 20,
          "start": 2660
        },
        {
          "length": 20,
          "start": 3372
        },
        {
          "length": 20,
          "start": 6392
        },
        {
          "length": 20,
          "start": 6754
        },
        {
          "length": 20,
          "start": 9762
        },
        {
          "length": 20,
          "start": 10108
        },
        {
          "length": 20,
          "start": 10306
        },
        {
          "length": 20,
          "start": 11494
        },
        {
          "length": 20,
          "start": 12788
        },
        {
          "length": 20,
          "start": 13224
        },
        {
          "length": 20,
          "start": 15804
        },
        {
          "length": 20,
          "start": 15980
        },
        {
          "length": 20,
          "start": 16126
        }
      ],
      "rentDataIterableMap": [
        {
          "length": 20,
          "start": 5548
        },
        {
          "length": 20,
          "start": 7036
        },
        {
          "length": 20,
          "start": 7284
        },
        {
          "length": 20,
          "start": 8268
        },
        {
          "length": 20,
          "start": 8415
        },
        {
          "length": 20,
          "start": 10453
        },
        {
          "length": 20,
          "start": 10606
        },
        {
          "length": 20,
          "start": 10757
        },
        {
          "length": 20,
          "start": 11059
        },
        {
          "length": 20,
          "start": 14007
        },
        {
          "length": 20,
          "start": 17146
        },
        {
          "length": 20,
          "start": 17322
        },
        {
          "length": 20,
          "start": 18267
        }
      ],
      "serviceDataIterableMap": [
        {
          "length": 20,
          "start": 2508
        },
        {
          "length": 20,
          "start": 4132
        },
        {
          "length": 20,
          "start": 4302
        },
        {
          "length": 20,
          "start": 5706
        },
        {
          "length": 20,
          "start": 5880
        },
        {
          "length": 20,
          "start": 6028
        },
        {
          "length": 20,
          "start": 9935
        },
        {
          "length": 20,
          "start": 12961
        }
      ],
      "tokenDataIterableMap": [
        {
          "length": 20,
          "start": 6580
        },
        {
          "length": 20,
          "start": 9063
        },
        {
          "length": 20,
          "start": 9237
        },
        {
          "length": 20,
          "start": 9385
        },
        {
          "length": 20,
          "start": 14976
        },
        {
          "length": 20,
          "start": 15146
        }
      ]
    }
  }
}