{
  "_format": "hh-sol-artifact-1",
  "contractName": "rewardToken",
  "sourceName": "contracts/rewardToken.sol",
  "abi": [
    {
      "inputs": [
        {
          "internalType": "string",
          "name": "rewardTokenName_",
          "type": "string"
        },
        {
          "internalType": "string",
          "name": "rewardTokenSymbol_",
          "type": "string"
        },
        {
          "internalType": "address",
          "name": "rewardTokenShareContractAddress_",
          "type": "address"
        },
        {
          "internalType": "address",
          "name": "projectTeamAccountAddress_",
          "type": "address"
        }
      ],
      "stateMutability": "nonpayable",
      "type": "constructor"
    },
    {
      "anonymous": false,
      "inputs": [
        {
          "indexed": true,
          "internalType": "address",
          "name": "owner",
          "type": "address"
        },
        {
          "indexed": true,
          "internalType": "address",
          "name": "spender",
          "type": "address"
        },
        {
          "indexed": false,
          "internalType": "uint256",
          "name": "value",
          "type": "uint256"
        }
      ],
      "name": "Approval",
      "type": "event"
    },
    {
      "anonymous": false,
      "inputs": [
        {
          "indexed": false,
          "internalType": "uint256",
          "name": "amount",
          "type": "uint256"
        }
      ],
      "name": "RewardTokenReleased",
      "type": "event"
    },
    {
      "anonymous": false,
      "inputs": [
        {
          "indexed": true,
          "internalType": "address",
          "name": "from",
          "type": "address"
        },
        {
          "indexed": true,
          "internalType": "address",
          "name": "to",
          "type": "address"
        },
        {
          "indexed": false,
          "internalType": "uint256",
          "name": "value",
          "type": "uint256"
        }
      ],
      "name": "Transfer",
      "type": "event"
    },
    {
      "inputs": [],
      "name": "DOMAIN_SEPARATOR",
      "outputs": [
        {
          "internalType": "bytes32",
          "name": "",
          "type": "bytes32"
        }
      ],
      "stateMutability": "view",
      "type": "function"
    },
    {
      "inputs": [
        {
          "internalType": "address",
          "name": "owner",
          "type": "address"
        },
        {
          "internalType": "address",
          "name": "spender",
          "type": "address"
        }
      ],
      "name": "allowance",
      "outputs": [
        {
          "internalType": "uint256",
          "name": "",
          "type": "uint256"
        }
      ],
      "stateMutability": "view",
      "type": "function"
    },
    {
      "inputs": [
        {
          "internalType": "address",
          "name": "spender",
          "type": "address"
        },
        {
          "internalType": "uint256",
          "name": "amount",
          "type": "uint256"
        }
      ],
      "name": "approve",
      "outputs": [
        {
          "internalType": "bool",
          "name": "",
          "type": "bool"
        }
      ],
      "stateMutability": "nonpayable",
      "type": "function"
    },
    {
      "inputs": [
        {
          "internalType": "address",
          "name": "account",
          "type": "address"
        }
      ],
      "name": "balanceOf",
      "outputs": [
        {
          "internalType": "uint256",
          "name": "",
          "type": "uint256"
        }
      ],
      "stateMutability": "view",
      "type": "function"
    },
    {
      "inputs": [],
      "name": "currentReleasable",
      "outputs": [
        {
          "internalType": "uint256",
          "name": "",
          "type": "uint256"
        }
      ],
      "stateMutability": "view",
      "type": "function"
    },
    {
      "inputs": [],
      "name": "decimals",
      "outputs": [
        {
          "internalType": "uint8",
          "name": "",
          "type": "uint8"
        }
      ],
      "stateMutability": "view",
      "type": "function"
    },
    {
      "inputs": [
        {
          "internalType": "address",
          "name": "spender",
          "type": "address"
        },
        {
          "internalType": "uint256",
          "name": "subtractedValue",
          "type": "uint256"
        }
      ],
      "name": "decreaseAllowance",
      "outputs": [
        {
          "internalType": "bool",
          "name": "",
          "type": "bool"
        }
      ],
      "stateMutability": "nonpayable",
      "type": "function"
    },
    {
      "inputs": [],
      "name": "duration",
      "outputs": [
        {
          "internalType": "uint256",
          "name": "",
          "type": "uint256"
        }
      ],
      "stateMutability": "view",
      "type": "function"
    },
    {
      "inputs": [],
      "name": "frequency",
      "outputs": [
        {
          "internalType": "uint256",
          "name": "",
          "type": "uint256"
        }
      ],
      "stateMutability": "view",
      "type": "function"
    },
    {
      "inputs": [
        {
          "internalType": "address",
          "name": "spender",
          "type": "address"
        },
        {
          "internalType": "uint256",
          "name": "addedValue",
          "type": "uint256"
        }
      ],
      "name": "increaseAllowance",
      "outputs": [
        {
          "internalType": "bool",
          "name": "",
          "type": "bool"
        }
      ],
      "stateMutability": "nonpayable",
      "type": "function"
    },
    {
      "inputs": [],
      "name": "minimumReleasable",
      "outputs": [
        {
          "internalType": "uint256",
          "name": "",
          "type": "uint256"
        }
      ],
      "stateMutability": "view",
      "type": "function"
    },
    {
      "inputs": [],
      "name": "name",
      "outputs": [
        {
          "internalType": "string",
          "name": "",
          "type": "string"
        }
      ],
      "stateMutability": "view",
      "type": "function"
    },
    {
      "inputs": [
        {
          "internalType": "address",
          "name": "owner",
          "type": "address"
        }
      ],
      "name": "nonces",
      "outputs": [
        {
          "internalType": "uint256",
          "name": "",
          "type": "uint256"
        }
      ],
      "stateMutability": "view",
      "type": "function"
    },
    {
      "inputs": [
        {
          "internalType": "address",
          "name": "owner",
          "type": "address"
        },
        {
          "internalType": "address",
          "name": "spender",
          "type": "address"
        },
        {
          "internalType": "uint256",
          "name": "value",
          "type": "uint256"
        },
        {
          "internalType": "uint256",
          "name": "deadline",
          "type": "uint256"
        },
        {
          "internalType": "uint8",
          "name": "v",
          "type": "uint8"
        },
        {
          "internalType": "bytes32",
          "name": "r",
          "type": "bytes32"
        },
        {
          "internalType": "bytes32",
          "name": "s",
          "type": "bytes32"
        }
      ],
      "name": "permit",
      "outputs": [],
      "stateMutability": "nonpayable",
      "type": "function"
    },
    {
      "inputs": [],
      "name": "release",
      "outputs": [],
      "stateMutability": "nonpayable",
      "type": "function"
    },
    {
      "inputs": [],
      "name": "remainingTimestampToNextVesting",
      "outputs": [
        {
          "internalType": "uint256",
          "name": "",
          "type": "uint256"
        }
      ],
      "stateMutability": "view",
      "type": "function"
    },
    {
      "inputs": [],
      "name": "rewardTokenShareContractAddress",
      "outputs": [
        {
          "internalType": "address",
          "name": "",
          "type": "address"
        }
      ],
      "stateMutability": "view",
      "type": "function"
    },
    {
      "inputs": [],
      "name": "start",
      "outputs": [
        {
          "internalType": "uint256",
          "name": "",
          "type": "uint256"
        }
      ],
      "stateMutability": "view",
      "type": "function"
    },
    {
      "inputs": [],
      "name": "symbol",
      "outputs": [
        {
          "internalType": "string",
          "name": "",
          "type": "string"
        }
      ],
      "stateMutability": "view",
      "type": "function"
    },
    {
      "inputs": [],
      "name": "totalAllocation",
      "outputs": [
        {
          "internalType": "uint256",
          "name": "",
          "type": "uint256"
        }
      ],
      "stateMutability": "view",
      "type": "function"
    },
    {
      "inputs": [],
      "name": "totalReleased",
      "outputs": [
        {
          "internalType": "uint256",
          "name": "",
          "type": "uint256"
        }
      ],
      "stateMutability": "view",
      "type": "function"
    },
    {
      "inputs": [],
      "name": "totalSupply",
      "outputs": [
        {
          "internalType": "uint256",
          "name": "",
          "type": "uint256"
        }
      ],
      "stateMutability": "view",
      "type": "function"
    },
    {
      "inputs": [
        {
          "internalType": "uint256",
          "name": "timestamp_",
          "type": "uint256"
        }
      ],
      "name": "totalVestedAmount",
      "outputs": [
        {
          "internalType": "uint256",
          "name": "",
          "type": "uint256"
        }
      ],
      "stateMutability": "view",
      "type": "function"
    },
    {
      "inputs": [
        {
          "internalType": "address",
          "name": "to",
          "type": "address"
        },
        {
          "internalType": "uint256",
          "name": "amount",
          "type": "uint256"
        }
      ],
      "name": "transfer",
      "outputs": [
        {
          "internalType": "bool",
          "name": "",
          "type": "bool"
        }
      ],
      "stateMutability": "nonpayable",
      "type": "function"
    },
    {
      "inputs": [
        {
          "internalType": "address",
          "name": "from",
          "type": "address"
        },
        {
          "internalType": "address",
          "name": "to",
          "type": "address"
        },
        {
          "internalType": "uint256",
          "name": "amount",
          "type": "uint256"
        }
      ],
      "name": "transferFrom",
      "outputs": [
        {
          "internalType": "bool",
          "name": "",
          "type": "bool"
        }
      ],
      "stateMutability": "nonpayable",
      "type": "function"
    }
  ],
  "bytecode": "0x6101c06040523480156200001257600080fd5b5060405162001b9d38038062001b9d833981016040819052620000359162000446565b8380604051806040016040528060018152602001603160f81b815250868681600390805190602001906200006b929190620002b6565b50805162000081906004906020840190620002b6565b5050825160208085019190912083518483012060e08290526101008190524660a0818152604080517f8b73c3c69bb8fe3d512ecc4cf759cc79239f7b179b0ffacaa9a75d522b39400f81880181905281830187905260608201869052608082019490945230818401528151808203909301835260c0019052805194019390932091935091906080523060c0526101205250505050506001600160a01b038216620001985760405162461bcd60e51b815260206004820152603c60248201527f726577617264546f6b656e3a20726577617264546f6b656e5368617265436f6e60448201527f747261637441646472657373206973207a65726f20616464726573730000000060648201526084015b60405180910390fd5b6001600160a01b03821661014052426101605263090321006101805260326101a052620001d1816aa56fa5b99019a5c8000000620001f3565b620001e9306b0295be96e640669720000000620001f3565b5050505062000539565b6001600160a01b0382166200024b5760405162461bcd60e51b815260206004820152601f60248201527f45524332303a206d696e7420746f20746865207a65726f20616464726573730060448201526064016200018f565b80600260008282546200025f9190620004d5565b90915550506001600160a01b038216600081815260208181526040808320805486019055518481527fddf252ad1be2c89b69c2b068fc378daa952ba7f163c4a11628f55a4df523b3ef910160405180910390a35050565b828054620002c490620004fc565b90600052602060002090601f016020900481019282620002e8576000855562000333565b82601f106200030357805160ff191683800117855562000333565b8280016001018555821562000333579182015b828111156200033357825182559160200191906001019062000316565b506200034192915062000345565b5090565b5b8082111562000341576000815560010162000346565b634e487b7160e01b600052604160045260246000fd5b600082601f8301126200038457600080fd5b81516001600160401b0380821115620003a157620003a16200035c565b604051601f8301601f19908116603f01168101908282118183101715620003cc57620003cc6200035c565b81604052838152602092508683858801011115620003e957600080fd5b600091505b838210156200040d5785820183015181830184015290820190620003ee565b838211156200041f5760008385830101525b9695505050505050565b80516001600160a01b03811681146200044157600080fd5b919050565b600080600080608085870312156200045d57600080fd5b84516001600160401b03808211156200047557600080fd5b620004838883890162000372565b955060208701519150808211156200049a57600080fd5b50620004a98782880162000372565b935050620004ba6040860162000429565b9150620004ca6060860162000429565b905092959194509250565b60008219821115620004f757634e487b7160e01b600052601160045260246000fd5b500190565b600181811c908216806200051157607f821691505b602082108114156200053357634e487b7160e01b600052602260045260246000fd5b50919050565b60805160a05160c05160e05161010051610120516101405161016051610180516101a0516115e8620005b560003960006108a40152600061037c015260006106cd015260006106f101526000610c9201526000610ce101526000610cbc01526000610c1501526000610c3f01526000610c6901526115e86000f3fe608060405234801561001057600080fd5b50600436106101335760003560e01c806306fdde0314610138578063095ea7b3146101565780630fb5a6b41461017957806318160ddd1461018f57806323b872dd14610197578063313ce567146101aa5780633644e515146101b957806339509351146101c15780633f6406f5146101d45780636916a207146101e757806370a08231146101ef57806379203dc4146102185780637ecebe00146102205780637fbc5e711461023357806386d1a69f1461023b57806395d89b41146102455780639e4ed2161461024d578063a457c2d714610255578063a9059cbb14610268578063be9a65551461027b578063ca44496e14610283578063d505accf14610298578063dd62ed3e146102ab578063e33b7de3146102be578063ead50da3146102c6575b600080fd5b6101406102ce565b60405161014d91906112c4565b60405180910390f35b610169610164366004611313565b610360565b604051901515815260200161014d565b61018161037a565b60405190815260200161014d565b600254610181565b6101696101a536600461133d565b61039e565b6040516012815260200161014d565b6101816103c2565b6101696101cf366004611313565b6103d1565b6101816101e2366004611379565b6103f3565b610181610406565b6101816101fd366004611392565b6001600160a01b031660009081526020819052604090205490565b610181610424565b61018161022e366004611392565b6104ac565b6101816104ca565b6102436104e6565b005b6101406105e0565b6101816105ef565b610169610263366004611313565b610642565b610169610276366004611313565b6106bd565b6101816106cb565b61028b6106ef565b60405161014d91906113b4565b6102436102a63660046113c8565b610713565b6101816102b936600461143b565b610877565b600754610181565b6101816108a2565b6060600380546102dd9061146e565b80601f01602080910402602001604051908101604052809291908181526020018280546103099061146e565b80156103565780601f1061032b57610100808354040283529160200191610356565b820191906000526020600020905b81548152906001019060200180831161033957829003601f168201915b5050505050905090565b60003361036e8185856108c6565b60019150505b92915050565b7f000000000000000000000000000000000000000000000000000000000000000090565b6000336103ac8582856109ea565b6103b7858585610a64565b506001949350505050565b60006103cc610c08565b905090565b60003361036e8185856103e48383610877565b6103ee91906114b9565b6108c6565b6000610374610400610424565b83610d2f565b600061041160075490565b61041a426103f3565b6103cc91906114d1565b600061042f60075490565b6040516370a0823160e01b815230906370a08231906104529083906004016113b4565b60206040518083038186803b15801561046a57600080fd5b505afa15801561047e573d6000803e3d6000fd5b505050506040513d601f19601f820116820180604052508101906104a291906114e8565b6103cc91906114b9565b6001600160a01b038116600090815260056020526040812054610374565b60006104d46108a2565b6104dc610424565b6103cc9190611517565b60006104f0610406565b90506104fa6104ca565b81116105815760405162461bcd60e51b815260206004820152604560248201527f726577617264546f6b656e3a2052656c65617361626c6520616d6f756e74206960448201527f7320736d616c6c6572207468616e20746865206d696e696d756d52656c65617360648201526430b136329760d91b608482015260a4015b60405180910390fd5b6105933061058d6106ef565b83610da9565b80600760008282546105a591906114b9565b90915550506040518181527fd3f992c7c1e4410888fed88c0f4274d4d31419df66d8fbb0ac18d687612850bc9060200160405180910390a150565b6060600480546102dd9061146e565b600042816105fb6108a2565b61060361037a565b61060d9190611517565b905060008161061a6106cb565b61062490856114d1565b61062e919061152b565b905061063a81836114d1565b935050505090565b600033816106508286610877565b9050838110156106b05760405162461bcd60e51b815260206004820152602560248201527f45524332303a2064656372656173656420616c6c6f77616e63652062656c6f77604482015264207a65726f60d81b6064820152608401610578565b6103b782868684036108c6565b60003361036e818585610a64565b7f000000000000000000000000000000000000000000000000000000000000000090565b7f000000000000000000000000000000000000000000000000000000000000000090565b834211156107635760405162461bcd60e51b815260206004820152601d60248201527f45524332305065726d69743a206578706972656420646561646c696e650000006044820152606401610578565b60007f6e71edae12b1b97f4d1f60370fef10105fa2faae0126114a169c64845d6126c98888886107928c610e00565b6040805160208101969096526001600160a01b0394851690860152929091166060840152608083015260a082015260c0810186905260e00160405160208183030381529060405280519060200120905060006107ed82610e28565b905060006107fd82878787610e76565b9050896001600160a01b0316816001600160a01b0316146108605760405162461bcd60e51b815260206004820152601e60248201527f45524332305065726d69743a20696e76616c6964207369676e617475726500006044820152606401610578565b61086b8a8a8a6108c6565b50505050505050505050565b6001600160a01b03918216600090815260016020908152604080832093909416825291909152205490565b7f000000000000000000000000000000000000000000000000000000000000000090565b6001600160a01b0383166109285760405162461bcd60e51b8152602060048201526024808201527f45524332303a20617070726f76652066726f6d20746865207a65726f206164646044820152637265737360e01b6064820152608401610578565b6001600160a01b0382166109895760405162461bcd60e51b815260206004820152602260248201527f45524332303a20617070726f766520746f20746865207a65726f206164647265604482015261737360f01b6064820152608401610578565b6001600160a01b0383811660008181526001602090815260408083209487168084529482529182902085905590518481527f8c5be1e5ebec7d5bd14f71427d1e84f3dd0314c0f7b2291e5b200ac8c7c3b925910160405180910390a3505050565b60006109f68484610877565b90506000198114610a5e5781811015610a515760405162461bcd60e51b815260206004820152601d60248201527f45524332303a20696e73756666696369656e7420616c6c6f77616e63650000006044820152606401610578565b610a5e84848484036108c6565b50505050565b6001600160a01b038316610ac85760405162461bcd60e51b815260206004820152602560248201527f45524332303a207472616e736665722066726f6d20746865207a65726f206164604482015264647265737360d81b6064820152608401610578565b6001600160a01b038216610b2a5760405162461bcd60e51b815260206004820152602360248201527f45524332303a207472616e7366657220746f20746865207a65726f206164647260448201526265737360e81b6064820152608401610578565b6001600160a01b03831660009081526020819052604090205481811015610ba25760405162461bcd60e51b815260206004820152602660248201527f45524332303a207472616e7366657220616d6f756e7420657863656564732062604482015265616c616e636560d01b6064820152608401610578565b6001600160a01b03848116600081815260208181526040808320878703905593871680835291849020805487019055925185815290927fddf252ad1be2c89b69c2b068fc378daa952ba7f163c4a11628f55a4df523b3ef910160405180910390a3610a5e565b6000306001600160a01b037f000000000000000000000000000000000000000000000000000000000000000016148015610c6157507f000000000000000000000000000000000000000000000000000000000000000046145b15610c8b57507f000000000000000000000000000000000000000000000000000000000000000090565b50604080517f00000000000000000000000000000000000000000000000000000000000000006020808301919091527f0000000000000000000000000000000000000000000000000000000000000000828401527f000000000000000000000000000000000000000000000000000000000000000060608301524660808301523060a0808401919091528351808403909101815260c0909201909252805191012090565b6000610d396106cb565b821015610d4857506000610374565b610d5061037a565b610d586106cb565b610d6291906114b9565b821115610d70575081610374565b6000610d7a61037a565b610d826106cb565b610d8c90856114d1565b610d96908661153f565b610da09190611517565b91506103749050565b604080516001600160a01b038416602482015260448082018490528251808303909101815260649091019091526020810180516001600160e01b031663a9059cbb60e01b179052610dfb908490610ea0565b505050565b6001600160a01b03811660009081526005602052604090208054600181018255905b50919050565b6000610374610e35610c08565b8360405161190160f01b6020820152602281018390526042810182905260009060620160405160208183030381529060405280519060200120905092915050565b6000806000610e8787878787610f72565b91509150610e948161102c565b5090505b949350505050565b6000610ef5826040518060400160405280602081526020017f5361666545524332303a206c6f772d6c6576656c2063616c6c206661696c6564815250856001600160a01b03166111789092919063ffffffff16565b805190915015610dfb5780806020019051810190610f13919061155e565b610dfb5760405162461bcd60e51b815260206004820152602a60248201527f5361666545524332303a204552433230206f7065726174696f6e20646964206e6044820152691bdd081cdd58d8d9595960b21b6064820152608401610578565b6000806fa2a8918ca85bafe22016d0b997e4df60600160ff1b03831115610f9f5750600090506003611023565b6040805160008082526020820180845289905260ff881692820192909252606081018690526080810185905260019060a0016020604051602081039080840390855afa158015610ff3573d6000803e3d6000fd5b5050604051601f1901519150506001600160a01b03811661101c57600060019250925050611023565b9150600090505b94509492505050565b600081600481111561104057611040611580565b14156110495750565b600181600481111561105d5761105d611580565b14156110a65760405162461bcd60e51b815260206004820152601860248201527745434453413a20696e76616c6964207369676e617475726560401b6044820152606401610578565b60028160048111156110ba576110ba611580565b14156111085760405162461bcd60e51b815260206004820152601f60248201527f45434453413a20696e76616c6964207369676e6174757265206c656e677468006044820152606401610578565b600381600481111561111c5761111c611580565b14156111755760405162461bcd60e51b815260206004820152602260248201527f45434453413a20696e76616c6964207369676e6174757265202773272076616c604482015261756560f01b6064820152608401610578565b50565b6060610e98848460008585600080866001600160a01b0316858760405161119f9190611596565b60006040518083038185875af1925050503d80600081146111dc576040519150601f19603f3d011682016040523d82523d6000602084013e6111e1565b606091505b50915091506111f2878383876111fd565b979650505050505050565b60608315611269578251611262576001600160a01b0385163b6112625760405162461bcd60e51b815260206004820152601d60248201527f416464726573733a2063616c6c20746f206e6f6e2d636f6e74726163740000006044820152606401610578565b5081610e98565b610e98838381511561127e5781518083602001fd5b8060405162461bcd60e51b815260040161057891906112c4565b60005b838110156112b357818101518382015260200161129b565b83811115610a5e5750506000910152565b60208152600082518060208401526112e3816040850160208701611298565b601f01601f19169190910160400192915050565b80356001600160a01b038116811461130e57600080fd5b919050565b6000806040838503121561132657600080fd5b61132f836112f7565b946020939093013593505050565b60008060006060848603121561135257600080fd5b61135b846112f7565b9250611369602085016112f7565b9150604084013590509250925092565b60006020828403121561138b57600080fd5b5035919050565b6000602082840312156113a457600080fd5b6113ad826112f7565b9392505050565b6001600160a01b0391909116815260200190565b600080600080600080600060e0888a0312156113e357600080fd5b6113ec886112f7565b96506113fa602089016112f7565b95506040880135945060608801359350608088013560ff8116811461141e57600080fd5b9699959850939692959460a0840135945060c09093013592915050565b6000806040838503121561144e57600080fd5b611457836112f7565b9150611465602084016112f7565b90509250929050565b600181811c9082168061148257607f821691505b60208210811415610e2257634e487b7160e01b600052602260045260246000fd5b634e487b7160e01b600052601160045260246000fd5b600082198211156114cc576114cc6114a3565b500190565b6000828210156114e3576114e36114a3565b500390565b6000602082840312156114fa57600080fd5b5051919050565b634e487b7160e01b600052601260045260246000fd5b60008261152657611526611501565b500490565b60008261153a5761153a611501565b500690565b6000816000190483118215151615611559576115596114a3565b500290565b60006020828403121561157057600080fd5b815180151581146113ad57600080fd5b634e487b7160e01b600052602160045260246000fd5b600082516115a8818460208701611298565b919091019291505056fea26469706673582212200215e68f04fa2ca980accdb645ca294c11b1e476c879b2d0aee0548e0ee99c0e64736f6c63430008090033",
  "linkReferences": {},
  "deployedLinkReferences": {}
}