{
  "_format": "hh-sol-artifact-1",
  "contractName": "rewardTokenShare",
  "sourceName": "contracts/rewardTokenShare.sol",
  "abi": [
    {
      "inputs": [
        {
          "internalType": "address",
          "name": "projectTeamAccountAddress_",
          "type": "address"
        }
      ],
      "stateMutability": "nonpayable",
      "type": "constructor"
    },
    {
      "anonymous": false,
      "inputs": [
        {
          "indexed": true,
          "internalType": "address",
          "name": "previousOwner",
          "type": "address"
        },
        {
          "indexed": true,
          "internalType": "address",
          "name": "newOwner",
          "type": "address"
        }
      ],
      "name": "OwnershipTransferred",
      "type": "event"
    },
    {
      "inputs": [
        {
          "internalType": "address",
          "name": "rentMarketContractAddress_",
          "type": "address"
        }
      ],
      "name": "addRentMarketContractAddress",
      "outputs": [],
      "stateMutability": "nonpayable",
      "type": "function"
    },
    {
      "inputs": [],
      "name": "getProjectTeamAccountAddress",
      "outputs": [
        {
          "internalType": "address",
          "name": "projectTeamAccountAddress_",
          "type": "address"
        }
      ],
      "stateMutability": "view",
      "type": "function"
    },
    {
      "inputs": [],
      "name": "getRentMarketContractAddressArray",
      "outputs": [
        {
          "internalType": "address[]",
          "name": "rentMarketContractAddressArray_",
          "type": "address[]"
        }
      ],
      "stateMutability": "view",
      "type": "function"
    },
    {
      "inputs": [],
      "name": "getRewardTokenBalance",
      "outputs": [
        {
          "internalType": "uint256",
          "name": "rewardTokenBalance_",
          "type": "uint256"
        }
      ],
      "stateMutability": "view",
      "type": "function"
    },
    {
      "inputs": [],
      "name": "getRewardTokenContractAddress",
      "outputs": [
        {
          "internalType": "address",
          "name": "rewardTokenContractAddress_",
          "type": "address"
        }
      ],
      "stateMutability": "view",
      "type": "function"
    },
    {
      "inputs": [],
      "name": "owner",
      "outputs": [
        {
          "internalType": "address",
          "name": "",
          "type": "address"
        }
      ],
      "stateMutability": "view",
      "type": "function"
    },
    {
      "inputs": [],
      "name": "release",
      "outputs": [],
      "stateMutability": "nonpayable",
      "type": "function"
    },
    {
      "inputs": [
        {
          "internalType": "address",
          "name": "rentMarketContractAddress_",
          "type": "address"
        }
      ],
      "name": "removeRentMarketContractAddress",
      "outputs": [],
      "stateMutability": "nonpayable",
      "type": "function"
    },
    {
      "inputs": [],
      "name": "renounceOwnership",
      "outputs": [],
      "stateMutability": "nonpayable",
      "type": "function"
    },
    {
      "inputs": [
        {
          "internalType": "address",
          "name": "rewardTokenContractAddress_",
          "type": "address"
        }
      ],
      "name": "setRewardTokenContractAddress",
      "outputs": [],
      "stateMutability": "nonpayable",
      "type": "function"
    },
    {
      "inputs": [
        {
          "internalType": "address",
          "name": "newOwner",
          "type": "address"
        }
      ],
      "name": "transferOwnership",
      "outputs": [],
      "stateMutability": "nonpayable",
      "type": "function"
    }
  ],
  "bytecode": "0x60e0604052603260a081905260c05234801561001a57600080fd5b50604051610c96380380610c96833981016040819052610039916100a3565b61004233610053565b6001600160a01b03166080526100d3565b600080546001600160a01b038381166001600160a01b0319831681178455604051919092169283917f8be0079c531659141344cd1fd0a4f28419497f9722a3daafe3b4186f6b6457e09190a35050565b6000602082840312156100b557600080fd5b81516001600160a01b03811681146100cc57600080fd5b9392505050565b60805160a05160c051610b916101056000396000505060006103c801526000818160a0015261041d0152610b916000f3fe608060405234801561001057600080fd5b50600436106100995760003560e01c80633c3837741461009e5780633ed9fe07146100d6578063423e0e5f146100eb578063533adb75146100fe5780636c5205b31461010f578063715018a61461012457806386d1a69f1461012c57806387333da9146101345780638da5cb5b1461014757806393ce53431461014f578063f2fde38b14610165575b600080fd5b7f00000000000000000000000000000000000000000000000000000000000000005b6040516100cd919061099a565b60405180910390f35b6100e96100e43660046109ae565b610178565b005b6100e96100f93660046109ae565b6101e7565b6001546001600160a01b03166100c0565b6101176102bd565b6040516100cd91906109d7565b6100e961031f565b6100e9610333565b6100e96101423660046109ae565b61072a565b6100c0610754565b610157610763565b6040519081526020016100cd565b6100e96101733660046109ae565b6107e9565b610180610867565b60008061018c836108c6565b9092509050816101e257600280546001810182556000919091527f405787fa12a823e0f2b7631cc41b3ba8828b3321ca811111fa75cd3aa3bb5ace0180546001600160a01b0319166001600160a01b0385161790555b505050565b6101ef610867565b6000806101fb836108c6565b9092509050600182151514156101e2576002805461021b90600190610a3a565b8154811061022b5761022b610a51565b600091825260209091200154600280546001600160a01b03909216918390811061025757610257610a51565b9060005260206000200160006101000a8154816001600160a01b0302191690836001600160a01b03160217905550600280548061029657610296610a67565b600082815260209020810160001990810180546001600160a01b0319169055019055505050565b6060600280548060200260200160405190810160405280929190818152602001828054801561031557602002820191906000526020600020905b81546001600160a01b031681526001909101906020018083116102f7575b5050505050905090565b610327610867565b6103316000610937565b565b6001546040516370a0823160e01b81526000916001600160a01b0316906370a082319061036490309060040161099a565b60206040518083038186803b15801561037c57600080fd5b505afa158015610390573d6000803e3d6000fd5b505050506040513d601f19601f820116820180604052508101906103b49190610a7d565b9050806103be5750565b60006103f46103ed7f000000000000000000000000000000000000000000000000000000000000000084610a96565b6064610987565b60015460405163a9059cbb60e01b81529192506001600160a01b03169063a9059cbb90610447907f0000000000000000000000000000000000000000000000000000000000000000908590600401610ab5565b602060405180830381600087803b15801561046157600080fd5b505af1158015610475573d6000803e3d6000fd5b505050506040513d601f19601f820116820180604052508101906104999190610ace565b5060006104a68284610a3a565b6002549091506000906001600160401b038111156104c6576104c6610af0565b6040519080825280602002602001820160405280156104ef578160200160208202803683370190505b5090506000805b6002548110156105e15760006002828154811061051557610515610a51565b60009182526020909120015460015460405162e795d760e11b81526001600160a01b03928316926301cf2bae926105519291169060040161099a565b60206040518083038186803b15801561056957600080fd5b505afa15801561057d573d6000803e3d6000fd5b505050506040513d601f19601f820116820180604052508101906105a19190610a7d565b9050808483815181106105b6576105b6610a51565b60209081029190910101526105cb8184610b06565b92505080806105d990610b1e565b9150506104f6565b5060005b60025481101561072257600254600090819061060390600190610a3a565b83141561061b576106148187610a3a565b9150610658565b61064985848151811061063057610630610a51565b6020026020010151876106439190610a96565b85610987565b91506106558282610b06565b90505b600154600280546001600160a01b039092169163095ea7b391908690811061068257610682610a51565b6000918252602090912001546040516001600160e01b031960e084901b1681526106ba916001600160a01b0316908690600401610ab5565b602060405180830381600087803b1580156106d457600080fd5b505af11580156106e8573d6000803e3d6000fd5b505050506040513d601f19601f8201168201806040525081019061070c9190610ace565b505050808061071a90610b1e565b9150506105e5565b505050505050565b610732610867565b600180546001600160a01b0319166001600160a01b0392909216919091179055565b6000546001600160a01b031690565b6001546040516370a0823160e01b81526000916001600160a01b0316906370a082319061079490309060040161099a565b60206040518083038186803b1580156107ac57600080fd5b505afa1580156107c0573d6000803e3d6000fd5b505050506040513d601f19601f820116820180604052508101906107e49190610a7d565b905090565b6107f1610867565b6001600160a01b03811661085b5760405162461bcd60e51b815260206004820152602660248201527f4f776e61626c653a206e6577206f776e657220697320746865207a65726f206160448201526564647265737360d01b60648201526084015b60405180910390fd5b61086481610937565b50565b33610870610754565b6001600160a01b0316146103315760405162461bcd60e51b815260206004820181905260248201527f4f776e61626c653a2063616c6c6572206973206e6f7420746865206f776e65726044820152606401610852565b60008060005b60025481101561092b57836001600160a01b0316600282815481106108f3576108f3610a51565b6000918252602090912001546001600160a01b0316141561091957600194909350915050565b8061092381610b1e565b9150506108cc565b50600093849350915050565b600080546001600160a01b038381166001600160a01b0319831681178455604051919092169283917f8be0079c531659141344cd1fd0a4f28419497f9722a3daafe3b4186f6b6457e09190a35050565b60006109938284610b39565b9392505050565b6001600160a01b0391909116815260200190565b6000602082840312156109c057600080fd5b81356001600160a01b038116811461099357600080fd5b6020808252825182820181905260009190848201906040850190845b81811015610a185783516001600160a01b0316835292840192918401916001016109f3565b50909695505050505050565b634e487b7160e01b600052601160045260246000fd5b600082821015610a4c57610a4c610a24565b500390565b634e487b7160e01b600052603260045260246000fd5b634e487b7160e01b600052603160045260246000fd5b600060208284031215610a8f57600080fd5b5051919050565b6000816000190483118215151615610ab057610ab0610a24565b500290565b6001600160a01b03929092168252602082015260400190565b600060208284031215610ae057600080fd5b8151801515811461099357600080fd5b634e487b7160e01b600052604160045260246000fd5b60008219821115610b1957610b19610a24565b500190565b6000600019821415610b3257610b32610a24565b5060010190565b600082610b5657634e487b7160e01b600052601260045260246000fd5b50049056fea26469706673582212204475df78d8b0b29972f334703a6f821038f2498897a814a39e762c1f3749fab164736f6c63430008090033",
  "linkReferences": {},
  "deployedLinkReferences": {}
}