{
  "_format": "hh-sol-artifact-1",
  "contractName": "rewardTokenShare",
  "sourceName": "contracts/rewardTokenShare.sol",
  "abi": [
    {
      "inputs": [
        {
          "internalType": "address",
          "name": "projectTeamAccountAddress_",
          "type": "address"
        }
      ],
      "stateMutability": "nonpayable",
      "type": "constructor"
    },
    {
      "anonymous": false,
      "inputs": [
        {
          "indexed": true,
          "internalType": "address",
          "name": "previousOwner",
          "type": "address"
        },
        {
          "indexed": true,
          "internalType": "address",
          "name": "newOwner",
          "type": "address"
        }
      ],
      "name": "OwnershipTransferred",
      "type": "event"
    },
    {
      "inputs": [
        {
          "internalType": "address",
          "name": "rentMarketContractAddress_",
          "type": "address"
        }
      ],
      "name": "addRentMarketContractAddress",
      "outputs": [],
      "stateMutability": "nonpayable",
      "type": "function"
    },
    {
      "inputs": [],
      "name": "getProjectTeamAccountAddress",
      "outputs": [
        {
          "internalType": "address",
          "name": "projectTeamAccountAddress_",
          "type": "address"
        }
      ],
      "stateMutability": "view",
      "type": "function"
    },
    {
      "inputs": [],
      "name": "getRentMarketContractAddressArray",
      "outputs": [
        {
          "internalType": "address[]",
          "name": "rentMarketContractAddressArray_",
          "type": "address[]"
        }
      ],
      "stateMutability": "view",
      "type": "function"
    },
    {
      "inputs": [],
      "name": "getRewardTokenBalance",
      "outputs": [
        {
          "internalType": "uint256",
          "name": "rewardTokenBalance_",
          "type": "uint256"
        }
      ],
      "stateMutability": "view",
      "type": "function"
    },
    {
      "inputs": [],
      "name": "getRewardTokenContractAddress",
      "outputs": [
        {
          "internalType": "address",
          "name": "rewardTokenContractAddress_",
          "type": "address"
        }
      ],
      "stateMutability": "view",
      "type": "function"
    },
    {
      "inputs": [],
      "name": "owner",
      "outputs": [
        {
          "internalType": "address",
          "name": "",
          "type": "address"
        }
      ],
      "stateMutability": "view",
      "type": "function"
    },
    {
      "inputs": [],
      "name": "release",
      "outputs": [],
      "stateMutability": "nonpayable",
      "type": "function"
    },
    {
      "inputs": [
        {
          "internalType": "address",
          "name": "rentMarketContractAddress_",
          "type": "address"
        }
      ],
      "name": "removeRentMarketContractAddress",
      "outputs": [],
      "stateMutability": "nonpayable",
      "type": "function"
    },
    {
      "inputs": [],
      "name": "renounceOwnership",
      "outputs": [],
      "stateMutability": "nonpayable",
      "type": "function"
    },
    {
      "inputs": [
        {
          "internalType": "address",
          "name": "rewardTokenContractAddress_",
          "type": "address"
        }
      ],
      "name": "setRewardTokenContractAddress",
      "outputs": [],
      "stateMutability": "nonpayable",
      "type": "function"
    },
    {
      "inputs": [
        {
          "internalType": "address",
          "name": "newOwner",
          "type": "address"
        }
      ],
      "name": "transferOwnership",
      "outputs": [],
      "stateMutability": "nonpayable",
      "type": "function"
    }
  ],
  "bytecode": "0x60e0604052603260a081905260c05234801561001a57600080fd5b50604051610d32380380610d32833981016040819052610039916100a3565b61004233610053565b6001600160a01b03166080526100d3565b600080546001600160a01b038381166001600160a01b0319831681178455604051919092169283917f8be0079c531659141344cd1fd0a4f28419497f9722a3daafe3b4186f6b6457e09190a35050565b6000602082840312156100b557600080fd5b81516001600160a01b03811681146100cc57600080fd5b9392505050565b60805160a05160c051610c2d6101056000396000505060006103f901526000818160a0015261044e0152610c2d6000f3fe608060405234801561001057600080fd5b50600436106100995760003560e01c80633c3837741461009e5780633ed9fe07146100d6578063423e0e5f146100eb578063533adb75146100fe5780636c5205b31461010f578063715018a61461012457806386d1a69f1461012c57806387333da9146101345780638da5cb5b1461014757806393ce53431461014f578063f2fde38b14610165575b600080fd5b7f00000000000000000000000000000000000000000000000000000000000000005b6040516100cd91906109f0565b60405180910390f35b6100e96100e4366004610a04565b610178565b005b6100e96100f9366004610a04565b6101e7565b6001546001600160a01b03166100c0565b6101176102bd565b6040516100cd9190610a2d565b6100e961031f565b6100e9610333565b6100e9610142366004610a04565b61075b565b6100c0610785565b610157610794565b6040519081526020016100cd565b6100e9610173366004610a04565b610844565b6101806108bd565b60008061018c8361091c565b9092509050816101e257600280546001810182556000919091527f405787fa12a823e0f2b7631cc41b3ba8828b3321ca811111fa75cd3aa3bb5ace0180546001600160a01b0319166001600160a01b0385161790555b505050565b6101ef6108bd565b6000806101fb8361091c565b9092509050600182151514156101e2576002805461021b90600190610a90565b8154811061022b5761022b610aa7565b600091825260209091200154600280546001600160a01b03909216918390811061025757610257610aa7565b9060005260206000200160006101000a8154816001600160a01b0302191690836001600160a01b03160217905550600280548061029657610296610abd565b600082815260209020810160001990810180546001600160a01b0319169055019055505050565b6060600280548060200260200160405190810160405280929190818152602001828054801561031557602002820191906000526020600020905b81546001600160a01b031681526001909101906020018083116102f7575b5050505050905090565b6103276108bd565b610331600061098d565b565b6001546001600160a01b03166103645760405162461bcd60e51b815260040161035b90610ad3565b60405180910390fd5b6001546040516370a0823160e01b81526000916001600160a01b0316906370a08231906103959030906004016109f0565b60206040518083038186803b1580156103ad57600080fd5b505afa1580156103c1573d6000803e3d6000fd5b505050506040513d601f19601f820116820180604052508101906103e59190610b19565b9050806103ef5750565b600061042561041e7f000000000000000000000000000000000000000000000000000000000000000084610b32565b60646109dd565b60015460405163a9059cbb60e01b81529192506001600160a01b03169063a9059cbb90610478907f0000000000000000000000000000000000000000000000000000000000000000908590600401610b51565b602060405180830381600087803b15801561049257600080fd5b505af11580156104a6573d6000803e3d6000fd5b505050506040513d601f19601f820116820180604052508101906104ca9190610b6a565b5060006104d78284610a90565b6002549091506000906001600160401b038111156104f7576104f7610b8c565b604051908082528060200260200182016040528015610520578160200160208202803683370190505b5090506000805b6002548110156106125760006002828154811061054657610546610aa7565b60009182526020909120015460015460405162e795d760e11b81526001600160a01b03928316926301cf2bae92610582929116906004016109f0565b60206040518083038186803b15801561059a57600080fd5b505afa1580156105ae573d6000803e3d6000fd5b505050506040513d601f19601f820116820180604052508101906105d29190610b19565b9050808483815181106105e7576105e7610aa7565b60209081029190910101526105fc8184610ba2565b925050808061060a90610bba565b915050610527565b5060005b60025481101561075357600254600090819061063490600190610a90565b83141561064c576106458187610a90565b9150610689565b61067a85848151811061066157610661610aa7565b6020026020010151876106749190610b32565b856109dd565b91506106868282610ba2565b90505b600154600280546001600160a01b039092169163095ea7b39190869081106106b3576106b3610aa7565b6000918252602090912001546040516001600160e01b031960e084901b1681526106eb916001600160a01b0316908690600401610b51565b602060405180830381600087803b15801561070557600080fd5b505af1158015610719573d6000803e3d6000fd5b505050506040513d601f19601f8201168201806040525081019061073d9190610b6a565b505050808061074b90610bba565b915050610616565b505050505050565b6107636108bd565b600180546001600160a01b0319166001600160a01b0392909216919091179055565b6000546001600160a01b031690565b6001546000906001600160a01b03166107bf5760405162461bcd60e51b815260040161035b90610ad3565b6001546040516370a0823160e01b81526001600160a01b03909116906370a08231906107ef9030906004016109f0565b60206040518083038186803b15801561080757600080fd5b505afa15801561081b573d6000803e3d6000fd5b505050506040513d601f19601f8201168201806040525081019061083f9190610b19565b905090565b61084c6108bd565b6001600160a01b0381166108b15760405162461bcd60e51b815260206004820152602660248201527f4f776e61626c653a206e6577206f776e657220697320746865207a65726f206160448201526564647265737360d01b606482015260840161035b565b6108ba8161098d565b50565b336108c6610785565b6001600160a01b0316146103315760405162461bcd60e51b815260206004820181905260248201527f4f776e61626c653a2063616c6c6572206973206e6f7420746865206f776e6572604482015260640161035b565b60008060005b60025481101561098157836001600160a01b03166002828154811061094957610949610aa7565b6000918252602090912001546001600160a01b0316141561096f57600194909350915050565b8061097981610bba565b915050610922565b50600093849350915050565b600080546001600160a01b038381166001600160a01b0319831681178455604051919092169283917f8be0079c531659141344cd1fd0a4f28419497f9722a3daafe3b4186f6b6457e09190a35050565b60006109e98284610bd5565b9392505050565b6001600160a01b0391909116815260200190565b600060208284031215610a1657600080fd5b81356001600160a01b03811681146109e957600080fd5b6020808252825182820181905260009190848201906040850190845b81811015610a6e5783516001600160a01b031683529284019291840191600101610a49565b50909695505050505050565b634e487b7160e01b600052601160045260246000fd5b600082821015610aa257610aa2610a7a565b500390565b634e487b7160e01b600052603260045260246000fd5b634e487b7160e01b600052603160045260246000fd5b60208082526026908201527f52657761726420746f6b656e20636f6e74726163742061646472657373206973604082015265103d32b9379760d11b606082015260800190565b600060208284031215610b2b57600080fd5b5051919050565b6000816000190483118215151615610b4c57610b4c610a7a565b500290565b6001600160a01b03929092168252602082015260400190565b600060208284031215610b7c57600080fd5b815180151581146109e957600080fd5b634e487b7160e01b600052604160045260246000fd5b60008219821115610bb557610bb5610a7a565b500190565b6000600019821415610bce57610bce610a7a565b5060010190565b600082610bf257634e487b7160e01b600052601260045260246000fd5b50049056fea26469706673582212201549e38cf1e1513e502532bd8365ee29a7e154a82b3cce0e864bed9000ae270064736f6c63430008090033",
  "linkReferences": {},
  "deployedLinkReferences": {}
}