{
  "_format": "hh-sol-artifact-1",
  "contractName": "rewardToken",
  "sourceName": "contracts/rewardToken.sol",
  "abi": [
    {
      "inputs": [
        {
          "internalType": "string",
          "name": "rewardTokenName_",
          "type": "string"
        },
        {
          "internalType": "string",
          "name": "rewardTokenSymbol_",
          "type": "string"
        },
        {
          "internalType": "address",
          "name": "rewardTokenShareContractAddress_",
          "type": "address"
        },
        {
          "internalType": "address",
          "name": "projectTeamAccountAddress_",
          "type": "address"
        }
      ],
      "stateMutability": "nonpayable",
      "type": "constructor"
    },
    {
      "anonymous": false,
      "inputs": [
        {
          "indexed": true,
          "internalType": "address",
          "name": "owner",
          "type": "address"
        },
        {
          "indexed": true,
          "internalType": "address",
          "name": "spender",
          "type": "address"
        },
        {
          "indexed": false,
          "internalType": "uint256",
          "name": "value",
          "type": "uint256"
        }
      ],
      "name": "Approval",
      "type": "event"
    },
    {
      "anonymous": false,
      "inputs": [
        {
          "indexed": false,
          "internalType": "uint256",
          "name": "amount",
          "type": "uint256"
        }
      ],
      "name": "RewardTokenReleased",
      "type": "event"
    },
    {
      "anonymous": false,
      "inputs": [
        {
          "indexed": true,
          "internalType": "address",
          "name": "from",
          "type": "address"
        },
        {
          "indexed": true,
          "internalType": "address",
          "name": "to",
          "type": "address"
        },
        {
          "indexed": false,
          "internalType": "uint256",
          "name": "value",
          "type": "uint256"
        }
      ],
      "name": "Transfer",
      "type": "event"
    },
    {
      "inputs": [],
      "name": "DOMAIN_SEPARATOR",
      "outputs": [
        {
          "internalType": "bytes32",
          "name": "",
          "type": "bytes32"
        }
      ],
      "stateMutability": "view",
      "type": "function"
    },
    {
      "inputs": [
        {
          "internalType": "address",
          "name": "owner",
          "type": "address"
        },
        {
          "internalType": "address",
          "name": "spender",
          "type": "address"
        }
      ],
      "name": "allowance",
      "outputs": [
        {
          "internalType": "uint256",
          "name": "",
          "type": "uint256"
        }
      ],
      "stateMutability": "view",
      "type": "function"
    },
    {
      "inputs": [
        {
          "internalType": "address",
          "name": "spender",
          "type": "address"
        },
        {
          "internalType": "uint256",
          "name": "amount",
          "type": "uint256"
        }
      ],
      "name": "approve",
      "outputs": [
        {
          "internalType": "bool",
          "name": "",
          "type": "bool"
        }
      ],
      "stateMutability": "nonpayable",
      "type": "function"
    },
    {
      "inputs": [
        {
          "internalType": "address",
          "name": "account",
          "type": "address"
        }
      ],
      "name": "balanceOf",
      "outputs": [
        {
          "internalType": "uint256",
          "name": "",
          "type": "uint256"
        }
      ],
      "stateMutability": "view",
      "type": "function"
    },
    {
      "inputs": [],
      "name": "decimals",
      "outputs": [
        {
          "internalType": "uint8",
          "name": "",
          "type": "uint8"
        }
      ],
      "stateMutability": "view",
      "type": "function"
    },
    {
      "inputs": [
        {
          "internalType": "address",
          "name": "spender",
          "type": "address"
        },
        {
          "internalType": "uint256",
          "name": "subtractedValue",
          "type": "uint256"
        }
      ],
      "name": "decreaseAllowance",
      "outputs": [
        {
          "internalType": "bool",
          "name": "",
          "type": "bool"
        }
      ],
      "stateMutability": "nonpayable",
      "type": "function"
    },
    {
      "inputs": [],
      "name": "duration",
      "outputs": [
        {
          "internalType": "uint256",
          "name": "",
          "type": "uint256"
        }
      ],
      "stateMutability": "view",
      "type": "function"
    },
    {
      "inputs": [],
      "name": "frequency",
      "outputs": [
        {
          "internalType": "uint256",
          "name": "",
          "type": "uint256"
        }
      ],
      "stateMutability": "view",
      "type": "function"
    },
    {
      "inputs": [
        {
          "internalType": "address",
          "name": "spender",
          "type": "address"
        },
        {
          "internalType": "uint256",
          "name": "addedValue",
          "type": "uint256"
        }
      ],
      "name": "increaseAllowance",
      "outputs": [
        {
          "internalType": "bool",
          "name": "",
          "type": "bool"
        }
      ],
      "stateMutability": "nonpayable",
      "type": "function"
    },
    {
      "inputs": [],
      "name": "minimumReleasable",
      "outputs": [
        {
          "internalType": "uint256",
          "name": "",
          "type": "uint256"
        }
      ],
      "stateMutability": "view",
      "type": "function"
    },
    {
      "inputs": [],
      "name": "name",
      "outputs": [
        {
          "internalType": "string",
          "name": "",
          "type": "string"
        }
      ],
      "stateMutability": "view",
      "type": "function"
    },
    {
      "inputs": [
        {
          "internalType": "address",
          "name": "owner",
          "type": "address"
        }
      ],
      "name": "nonces",
      "outputs": [
        {
          "internalType": "uint256",
          "name": "",
          "type": "uint256"
        }
      ],
      "stateMutability": "view",
      "type": "function"
    },
    {
      "inputs": [
        {
          "internalType": "address",
          "name": "owner",
          "type": "address"
        },
        {
          "internalType": "address",
          "name": "spender",
          "type": "address"
        },
        {
          "internalType": "uint256",
          "name": "value",
          "type": "uint256"
        },
        {
          "internalType": "uint256",
          "name": "deadline",
          "type": "uint256"
        },
        {
          "internalType": "uint8",
          "name": "v",
          "type": "uint8"
        },
        {
          "internalType": "bytes32",
          "name": "r",
          "type": "bytes32"
        },
        {
          "internalType": "bytes32",
          "name": "s",
          "type": "bytes32"
        }
      ],
      "name": "permit",
      "outputs": [],
      "stateMutability": "nonpayable",
      "type": "function"
    },
    {
      "inputs": [],
      "name": "releasable",
      "outputs": [
        {
          "internalType": "uint256",
          "name": "",
          "type": "uint256"
        }
      ],
      "stateMutability": "view",
      "type": "function"
    },
    {
      "inputs": [],
      "name": "release",
      "outputs": [],
      "stateMutability": "nonpayable",
      "type": "function"
    },
    {
      "inputs": [],
      "name": "released",
      "outputs": [
        {
          "internalType": "uint256",
          "name": "",
          "type": "uint256"
        }
      ],
      "stateMutability": "view",
      "type": "function"
    },
    {
      "inputs": [],
      "name": "remainingTimestampToNextVesting",
      "outputs": [
        {
          "internalType": "uint256",
          "name": "",
          "type": "uint256"
        }
      ],
      "stateMutability": "view",
      "type": "function"
    },
    {
      "inputs": [],
      "name": "rewardTokenShareContractAddress",
      "outputs": [
        {
          "internalType": "address",
          "name": "",
          "type": "address"
        }
      ],
      "stateMutability": "view",
      "type": "function"
    },
    {
      "inputs": [],
      "name": "start",
      "outputs": [
        {
          "internalType": "uint256",
          "name": "",
          "type": "uint256"
        }
      ],
      "stateMutability": "view",
      "type": "function"
    },
    {
      "inputs": [],
      "name": "symbol",
      "outputs": [
        {
          "internalType": "string",
          "name": "",
          "type": "string"
        }
      ],
      "stateMutability": "view",
      "type": "function"
    },
    {
      "inputs": [],
      "name": "totalAllocation",
      "outputs": [
        {
          "internalType": "uint256",
          "name": "",
          "type": "uint256"
        }
      ],
      "stateMutability": "view",
      "type": "function"
    },
    {
      "inputs": [],
      "name": "totalSupply",
      "outputs": [
        {
          "internalType": "uint256",
          "name": "",
          "type": "uint256"
        }
      ],
      "stateMutability": "view",
      "type": "function"
    },
    {
      "inputs": [
        {
          "internalType": "address",
          "name": "to",
          "type": "address"
        },
        {
          "internalType": "uint256",
          "name": "amount",
          "type": "uint256"
        }
      ],
      "name": "transfer",
      "outputs": [
        {
          "internalType": "bool",
          "name": "",
          "type": "bool"
        }
      ],
      "stateMutability": "nonpayable",
      "type": "function"
    },
    {
      "inputs": [
        {
          "internalType": "address",
          "name": "from",
          "type": "address"
        },
        {
          "internalType": "address",
          "name": "to",
          "type": "address"
        },
        {
          "internalType": "uint256",
          "name": "amount",
          "type": "uint256"
        }
      ],
      "name": "transferFrom",
      "outputs": [
        {
          "internalType": "bool",
          "name": "",
          "type": "bool"
        }
      ],
      "stateMutability": "nonpayable",
      "type": "function"
    },
    {
      "inputs": [
        {
          "internalType": "uint256",
          "name": "timestamp_",
          "type": "uint256"
        }
      ],
      "name": "vestedAmount",
      "outputs": [
        {
          "internalType": "uint256",
          "name": "",
          "type": "uint256"
        }
      ],
      "stateMutability": "view",
      "type": "function"
    }
  ],
  "bytecode": "0x6101c06040523480156200001257600080fd5b5060405162001bd138038062001bd1833981016040819052620000359162000446565b8380604051806040016040528060018152602001603160f81b815250868681600390805190602001906200006b929190620002b6565b50805162000081906004906020840190620002b6565b5050825160208085019190912083518483012060e08290526101008190524660a0818152604080517f8b73c3c69bb8fe3d512ecc4cf759cc79239f7b179b0ffacaa9a75d522b39400f81880181905281830187905260608201869052608082019490945230818401528151808203909301835260c0019052805194019390932091935091906080523060c0526101205250505050506001600160a01b038216620001985760405162461bcd60e51b815260206004820152603c60248201527f726577617264546f6b656e3a20726577617264546f6b656e5368617265436f6e60448201527f747261637441646472657373206973207a65726f20616464726573730000000060648201526084015b60405180910390fd5b6001600160a01b03821661014052426101605263090321006101805260326101a052620001d1816aa56fa5b99019a5c8000000620001f3565b620001e9306b0295be96e640669720000000620001f3565b5050505062000539565b6001600160a01b0382166200024b5760405162461bcd60e51b815260206004820152601f60248201527f45524332303a206d696e7420746f20746865207a65726f20616464726573730060448201526064016200018f565b80600260008282546200025f9190620004d5565b90915550506001600160a01b038216600081815260208181526040808320805486019055518481527fddf252ad1be2c89b69c2b068fc378daa952ba7f163c4a11628f55a4df523b3ef910160405180910390a35050565b828054620002c490620004fc565b90600052602060002090601f016020900481019282620002e8576000855562000333565b82601f106200030357805160ff191683800117855562000333565b8280016001018555821562000333579182015b828111156200033357825182559160200191906001019062000316565b506200034192915062000345565b5090565b5b8082111562000341576000815560010162000346565b634e487b7160e01b600052604160045260246000fd5b600082601f8301126200038457600080fd5b81516001600160401b0380821115620003a157620003a16200035c565b604051601f8301601f19908116603f01168101908282118183101715620003cc57620003cc6200035c565b81604052838152602092508683858801011115620003e957600080fd5b600091505b838210156200040d5785820183015181830184015290820190620003ee565b838211156200041f5760008385830101525b9695505050505050565b80516001600160a01b03811681146200044157600080fd5b919050565b600080600080608085870312156200045d57600080fd5b84516001600160401b03808211156200047557600080fd5b620004838883890162000372565b955060208701519150808211156200049a57600080fd5b50620004a98782880162000372565b935050620004ba6040860162000429565b9150620004ca6060860162000429565b905092959194509250565b60008219821115620004f757634e487b7160e01b600052601160045260246000fd5b500190565b600181811c908216806200051157607f821691505b602082108114156200053357634e487b7160e01b600052602260045260246000fd5b50919050565b60805160a05160c05160e05161010051610120516101405161016051610180516101a05161161c620005b560003960006108be0152600061037c015260006106e70152600061070b01526000610d4401526000610d9301526000610d6e01526000610cc701526000610cf101526000610d1b015261161c6000f3fe608060405234801561001057600080fd5b50600436106101335760003560e01c806306fdde0314610138578063095ea7b3146101565780630fb5a6b41461017957806318160ddd1461018f5780631bfce8531461019757806323b872dd146101aa578063313ce567146101bd5780633644e515146101cc57806339509351146101d457806370a08231146101e757806379203dc4146102105780637ecebe00146102185780637fbc5e711461022b57806386d1a69f1461023357806395d89b411461023d57806396132521146102455780639e4ed2161461024d578063a457c2d714610255578063a9059cbb14610268578063be9a65551461027b578063ca44496e14610283578063d505accf14610298578063dd62ed3e146102ab578063ead50da3146102be578063fbccedae146102c6575b600080fd5b6101406102ce565b60405161014d91906112f9565b60405180910390f35b610169610164366004611348565b610360565b604051901515815260200161014d565b61018161037a565b60405190815260200161014d565b600254610181565b6101816101a5366004611372565b61039e565b6101696101b836600461138b565b6103b1565b6040516012815260200161014d565b6101816103d5565b6101696101e2366004611348565b6103e4565b6101816101f53660046113c7565b6001600160a01b031660009081526020819052604090205490565b610181610406565b6101816102263660046113c7565b61048e565b6101816104ac565b61023b6104c8565b005b6101406105d9565b600754610181565b6101816105e8565b610169610263366004611348565b61065c565b610169610276366004611348565b6106d7565b6101816106e5565b61028b610709565b60405161014d91906113e9565b61023b6102a63660046113fd565b61072d565b6101816102b9366004611470565b610891565b6101816108bc565b6101816108e0565b6060600380546102dd906114a3565b80601f0160208091040260200160405190810160405280929190818152602001828054610309906114a3565b80156103565780601f1061032b57610100808354040283529160200191610356565b820191906000526020600020905b81548152906001019060200180831161033957829003601f168201915b5050505050905090565b60003361036e8185856108fe565b60019150505b92915050565b7f000000000000000000000000000000000000000000000000000000000000000090565b60006103746103ab610406565b83610a22565b6000336103bf858285610a9c565b6103ca858585610b16565b506001949350505050565b60006103df610cba565b905090565b60003361036e8185856103f78383610891565b61040191906114ee565b6108fe565b600061041160075490565b6040516370a0823160e01b815230906370a08231906104349083906004016113e9565b60206040518083038186803b15801561044c57600080fd5b505afa158015610460573d6000803e3d6000fd5b505050506040513d601f19601f820116820180604052508101906104849190611506565b6103df91906114ee565b6001600160a01b038116600090815260056020526040812054610374565b60006104b66108bc565b6104be610406565b6103df919061151f565b60006104d26108e0565b90506104dc6108bc565b6104e4610406565b6104ee919061151f565b811161057a5760405162461bcd60e51b815260206004820152604a60248201527f726577617264546f6b656e3a2052656c65617361626c6520616d6f756e74206960448201527f7320736d616c6c6572207468616e207468652076657374696e67206d696e696d6064820152693ab69030b6b7bab73a1760b11b608482015260a4015b60405180910390fd5b806007600082825461058c91906114ee565b90915550506040518181527fd3f992c7c1e4410888fed88c0f4274d4d31419df66d8fbb0ac18d687612850bc9060200160405180910390a16105d6306105d0610709565b83610de1565b50565b6060600480546102dd906114a3565b600042816105f46108bc565b6105fc61037a565b610606919061151f565b90506000805b6106146108bc565b811015610653576106258184611541565b61062f9085611560565b91508282101561064157509392505050565b8061064b81611577565b91505061060c565b50909392505050565b6000338161066a8286610891565b9050838110156106ca5760405162461bcd60e51b815260206004820152602560248201527f45524332303a2064656372656173656420616c6c6f77616e63652062656c6f77604482015264207a65726f60d81b6064820152608401610571565b6103ca82868684036108fe565b60003361036e818585610b16565b7f000000000000000000000000000000000000000000000000000000000000000090565b7f000000000000000000000000000000000000000000000000000000000000000090565b8342111561077d5760405162461bcd60e51b815260206004820152601d60248201527f45524332305065726d69743a206578706972656420646561646c696e650000006044820152606401610571565b60007f6e71edae12b1b97f4d1f60370fef10105fa2faae0126114a169c64845d6126c98888886107ac8c610e38565b6040805160208101969096526001600160a01b0394851690860152929091166060840152608083015260a082015260c0810186905260e001604051602081830303815290604052805190602001209050600061080782610e60565b9050600061081782878787610eae565b9050896001600160a01b0316816001600160a01b03161461087a5760405162461bcd60e51b815260206004820152601e60248201527f45524332305065726d69743a20696e76616c6964207369676e617475726500006044820152606401610571565b6108858a8a8a6108fe565b50505050505050505050565b6001600160a01b03918216600090815260016020908152604080832093909416825291909152205490565b7f000000000000000000000000000000000000000000000000000000000000000090565b60006108eb60075490565b6108f44261039e565b6103df9190611560565b6001600160a01b0383166109605760405162461bcd60e51b8152602060048201526024808201527f45524332303a20617070726f76652066726f6d20746865207a65726f206164646044820152637265737360e01b6064820152608401610571565b6001600160a01b0382166109c15760405162461bcd60e51b815260206004820152602260248201527f45524332303a20617070726f766520746f20746865207a65726f206164647265604482015261737360f01b6064820152608401610571565b6001600160a01b0383811660008181526001602090815260408083209487168084529482529182902085905590518481527f8c5be1e5ebec7d5bd14f71427d1e84f3dd0314c0f7b2291e5b200ac8c7c3b925910160405180910390a3505050565b6000610a2c6106e5565b821015610a3b57506000610374565b610a4361037a565b610a4b6106e5565b610a5591906114ee565b821115610a63575081610374565b6000610a6d61037a565b610a756106e5565b610a7f9085611560565b610a899086611541565b610a93919061151f565b91506103749050565b6000610aa88484610891565b90506000198114610b105781811015610b035760405162461bcd60e51b815260206004820152601d60248201527f45524332303a20696e73756666696369656e7420616c6c6f77616e63650000006044820152606401610571565b610b1084848484036108fe565b50505050565b6001600160a01b038316610b7a5760405162461bcd60e51b815260206004820152602560248201527f45524332303a207472616e736665722066726f6d20746865207a65726f206164604482015264647265737360d81b6064820152608401610571565b6001600160a01b038216610bdc5760405162461bcd60e51b815260206004820152602360248201527f45524332303a207472616e7366657220746f20746865207a65726f206164647260448201526265737360e81b6064820152608401610571565b6001600160a01b03831660009081526020819052604090205481811015610c545760405162461bcd60e51b815260206004820152602660248201527f45524332303a207472616e7366657220616d6f756e7420657863656564732062604482015265616c616e636560d01b6064820152608401610571565b6001600160a01b03848116600081815260208181526040808320878703905593871680835291849020805487019055925185815290927fddf252ad1be2c89b69c2b068fc378daa952ba7f163c4a11628f55a4df523b3ef910160405180910390a3610b10565b6000306001600160a01b037f000000000000000000000000000000000000000000000000000000000000000016148015610d1357507f000000000000000000000000000000000000000000000000000000000000000046145b15610d3d57507f000000000000000000000000000000000000000000000000000000000000000090565b50604080517f00000000000000000000000000000000000000000000000000000000000000006020808301919091527f0000000000000000000000000000000000000000000000000000000000000000828401527f000000000000000000000000000000000000000000000000000000000000000060608301524660808301523060a0808401919091528351808403909101815260c0909201909252805191012090565b604080516001600160a01b038416602482015260448082018490528251808303909101815260649091019091526020810180516001600160e01b031663a9059cbb60e01b179052610e33908490610ed8565b505050565b6001600160a01b03811660009081526005602052604090208054600181018255905b50919050565b6000610374610e6d610cba565b8360405161190160f01b6020820152602281018390526042810182905260009060620160405160208183030381529060405280519060200120905092915050565b6000806000610ebf87878787610faa565b91509150610ecc81611064565b5090505b949350505050565b6000610f2d826040518060400160405280602081526020017f5361666545524332303a206c6f772d6c6576656c2063616c6c206661696c6564815250856001600160a01b03166111ad9092919063ffffffff16565b805190915015610e335780806020019051810190610f4b9190611592565b610e335760405162461bcd60e51b815260206004820152602a60248201527f5361666545524332303a204552433230206f7065726174696f6e20646964206e6044820152691bdd081cdd58d8d9595960b21b6064820152608401610571565b6000806fa2a8918ca85bafe22016d0b997e4df60600160ff1b03831115610fd7575060009050600361105b565b6040805160008082526020820180845289905260ff881692820192909252606081018690526080810185905260019060a0016020604051602081039080840390855afa15801561102b573d6000803e3d6000fd5b5050604051601f1901519150506001600160a01b0381166110545760006001925092505061105b565b9150600090505b94509492505050565b6000816004811115611078576110786115b4565b14156110815750565b6001816004811115611095576110956115b4565b14156110de5760405162461bcd60e51b815260206004820152601860248201527745434453413a20696e76616c6964207369676e617475726560401b6044820152606401610571565b60028160048111156110f2576110f26115b4565b14156111405760405162461bcd60e51b815260206004820152601f60248201527f45434453413a20696e76616c6964207369676e6174757265206c656e677468006044820152606401610571565b6003816004811115611154576111546115b4565b14156105d65760405162461bcd60e51b815260206004820152602260248201527f45434453413a20696e76616c6964207369676e6174757265202773272076616c604482015261756560f01b6064820152608401610571565b6060610ed0848460008585600080866001600160a01b031685876040516111d491906115ca565b60006040518083038185875af1925050503d8060008114611211576040519150601f19603f3d011682016040523d82523d6000602084013e611216565b606091505b509150915061122787838387611232565b979650505050505050565b6060831561129e578251611297576001600160a01b0385163b6112975760405162461bcd60e51b815260206004820152601d60248201527f416464726573733a2063616c6c20746f206e6f6e2d636f6e74726163740000006044820152606401610571565b5081610ed0565b610ed083838151156112b35781518083602001fd5b8060405162461bcd60e51b815260040161057191906112f9565b60005b838110156112e85781810151838201526020016112d0565b83811115610b105750506000910152565b60208152600082518060208401526113188160408501602087016112cd565b601f01601f19169190910160400192915050565b80356001600160a01b038116811461134357600080fd5b919050565b6000806040838503121561135b57600080fd5b6113648361132c565b946020939093013593505050565b60006020828403121561138457600080fd5b5035919050565b6000806000606084860312156113a057600080fd5b6113a98461132c565b92506113b76020850161132c565b9150604084013590509250925092565b6000602082840312156113d957600080fd5b6113e28261132c565b9392505050565b6001600160a01b0391909116815260200190565b600080600080600080600060e0888a03121561141857600080fd5b6114218861132c565b965061142f6020890161132c565b95506040880135945060608801359350608088013560ff8116811461145357600080fd5b9699959850939692959460a0840135945060c09093013592915050565b6000806040838503121561148357600080fd5b61148c8361132c565b915061149a6020840161132c565b90509250929050565b600181811c908216806114b757607f821691505b60208210811415610e5a57634e487b7160e01b600052602260045260246000fd5b634e487b7160e01b600052601160045260246000fd5b60008219821115611501576115016114d8565b500190565b60006020828403121561151857600080fd5b5051919050565b60008261153c57634e487b7160e01b600052601260045260246000fd5b500490565b600081600019048311821515161561155b5761155b6114d8565b500290565b600082821015611572576115726114d8565b500390565b600060001982141561158b5761158b6114d8565b5060010190565b6000602082840312156115a457600080fd5b815180151581146113e257600080fd5b634e487b7160e01b600052602160045260246000fd5b600082516115dc8184602087016112cd565b919091019291505056fea2646970667358221220f1c0133e5cf0448b4647d345c5e0f3c7ffb4c7257dda7c15ce95899353f896d964736f6c63430008090033",
  "linkReferences": {},
  "deployedLinkReferences": {}
}