{
  "_format": "hh-sol-artifact-1",
  "contractName": "rewardTokenShare",
  "sourceName": "contracts/rewardTokenShare.sol",
  "abi": [
    {
      "inputs": [
        {
          "internalType": "address",
          "name": "projectTeamAccountAddress_",
          "type": "address"
        }
      ],
      "stateMutability": "nonpayable",
      "type": "constructor"
    },
    {
      "anonymous": false,
      "inputs": [
        {
          "indexed": true,
          "internalType": "address",
          "name": "previousOwner",
          "type": "address"
        },
        {
          "indexed": true,
          "internalType": "address",
          "name": "newOwner",
          "type": "address"
        }
      ],
      "name": "OwnershipTransferred",
      "type": "event"
    },
    {
      "inputs": [],
      "name": "VERSION",
      "outputs": [
        {
          "internalType": "string",
          "name": "",
          "type": "string"
        }
      ],
      "stateMutability": "view",
      "type": "function"
    },
    {
      "inputs": [
        {
          "internalType": "address",
          "name": "rentMarketContractAddress_",
          "type": "address"
        }
      ],
      "name": "addRentMarketContractAddress",
      "outputs": [],
      "stateMutability": "nonpayable",
      "type": "function"
    },
    {
      "inputs": [],
      "name": "getProjectTeamAccountAddress",
      "outputs": [
        {
          "internalType": "address",
          "name": "projectTeamAccountAddress_",
          "type": "address"
        }
      ],
      "stateMutability": "view",
      "type": "function"
    },
    {
      "inputs": [],
      "name": "getRentMarketContractAddressArray",
      "outputs": [
        {
          "internalType": "address[]",
          "name": "rentMarketContractAddressArray_",
          "type": "address[]"
        }
      ],
      "stateMutability": "view",
      "type": "function"
    },
    {
      "inputs": [],
      "name": "getRewardTokenBalance",
      "outputs": [
        {
          "internalType": "uint256",
          "name": "rewardTokenBalance_",
          "type": "uint256"
        }
      ],
      "stateMutability": "view",
      "type": "function"
    },
    {
      "inputs": [],
      "name": "getRewardTokenContractAddress",
      "outputs": [
        {
          "internalType": "address",
          "name": "rewardTokenContractAddress_",
          "type": "address"
        }
      ],
      "stateMutability": "view",
      "type": "function"
    },
    {
      "inputs": [],
      "name": "owner",
      "outputs": [
        {
          "internalType": "address",
          "name": "",
          "type": "address"
        }
      ],
      "stateMutability": "view",
      "type": "function"
    },
    {
      "inputs": [],
      "name": "release",
      "outputs": [],
      "stateMutability": "nonpayable",
      "type": "function"
    },
    {
      "inputs": [
        {
          "internalType": "address",
          "name": "rentMarketContractAddress_",
          "type": "address"
        }
      ],
      "name": "removeRentMarketContractAddress",
      "outputs": [],
      "stateMutability": "nonpayable",
      "type": "function"
    },
    {
      "inputs": [],
      "name": "renounceOwnership",
      "outputs": [],
      "stateMutability": "nonpayable",
      "type": "function"
    },
    {
      "inputs": [
        {
          "internalType": "address",
          "name": "rewardTokenContractAddress_",
          "type": "address"
        }
      ],
      "name": "setRewardTokenContractAddress",
      "outputs": [],
      "stateMutability": "nonpayable",
      "type": "function"
    },
    {
      "inputs": [
        {
          "internalType": "address",
          "name": "newOwner",
          "type": "address"
        }
      ],
      "name": "transferOwnership",
      "outputs": [],
      "stateMutability": "nonpayable",
      "type": "function"
    }
  ],
  "bytecode": "0x610120604052600560e081905264302e302e3560d81b6101009081526200002a9160019190620000d2565b50603260a081905260c0523480156200004257600080fd5b5060405162000f8538038062000f85833981016040819052620000659162000178565b620000703362000082565b6001600160a01b0316608052620001e7565b600080546001600160a01b038381166001600160a01b0319831681178455604051919092169283917f8be0079c531659141344cd1fd0a4f28419497f9722a3daafe3b4186f6b6457e09190a35050565b828054620000e090620001aa565b90600052602060002090601f0160209004810192826200010457600085556200014f565b82601f106200011f57805160ff19168380011785556200014f565b828001600101855582156200014f579182015b828111156200014f57825182559160200191906001019062000132565b506200015d92915062000161565b5090565b5b808211156200015d576000815560010162000162565b6000602082840312156200018b57600080fd5b81516001600160a01b0381168114620001a357600080fd5b9392505050565b600181811c90821680620001bf57607f821691505b60208210811415620001e157634e487b7160e01b600052602260045260246000fd5b50919050565b60805160a05160c051610d6b6200021a60003960005050600061041901526000818160ab015261046e0152610d6b6000f3fe608060405234801561001057600080fd5b50600436106100a45760003560e01c80633c383774146100a95780633ed9fe07146100e1578063423e0e5f146100f6578063533adb75146101095780636c5205b31461011a578063715018a61461012f57806386d1a69f1461013757806387333da91461013f5780638da5cb5b1461015257806393ce53431461015a578063f2fde38b14610170578063ffa1ad7414610183575b600080fd5b7f00000000000000000000000000000000000000000000000000000000000000005b6040516100d89190610a9e565b60405180910390f35b6100f46100ef366004610ab2565b610198565b005b6100f4610104366004610ab2565b610207565b6002546001600160a01b03166100cb565b6101226102dd565b6040516100d89190610adb565b6100f461033f565b6100f4610353565b6100f461014d366004610ab2565b61077b565b6100cb6107a5565b6101626107b4565b6040519081526020016100d8565b6100f461017e366004610ab2565b610864565b61018b6108dd565b6040516100d89190610b28565b6101a061096b565b6000806101ac836109ca565b90925090508161020257600380546001810182556000919091527fc2575a0e9e593c00f959f8c92f12db2869c3395a3b0502d05e2516446f71f85b0180546001600160a01b0319166001600160a01b0385161790555b505050565b61020f61096b565b60008061021b836109ca565b909250905060018215151415610202576003805461023b90600190610b93565b8154811061024b5761024b610baa565b600091825260209091200154600380546001600160a01b03909216918390811061027757610277610baa565b9060005260206000200160006101000a8154816001600160a01b0302191690836001600160a01b0316021790555060038054806102b6576102b6610bc0565b600082815260209020810160001990810180546001600160a01b0319169055019055505050565b6060600380548060200260200160405190810160405280929190818152602001828054801561033557602002820191906000526020600020905b81546001600160a01b03168152600190910190602001808311610317575b5050505050905090565b61034761096b565b6103516000610a3b565b565b6002546001600160a01b03166103845760405162461bcd60e51b815260040161037b90610bd6565b60405180910390fd5b6002546040516370a0823160e01b81526000916001600160a01b0316906370a08231906103b5903090600401610a9e565b60206040518083038186803b1580156103cd57600080fd5b505afa1580156103e1573d6000803e3d6000fd5b505050506040513d601f19601f820116820180604052508101906104059190610c1c565b90508061040f5750565b600061044561043e7f000000000000000000000000000000000000000000000000000000000000000084610c35565b6064610a8b565b60025460405163a9059cbb60e01b81529192506001600160a01b03169063a9059cbb90610498907f0000000000000000000000000000000000000000000000000000000000000000908590600401610c54565b602060405180830381600087803b1580156104b257600080fd5b505af11580156104c6573d6000803e3d6000fd5b505050506040513d601f19601f820116820180604052508101906104ea9190610c6d565b5060006104f78284610b93565b6003549091506000906001600160401b0381111561051757610517610c8f565b604051908082528060200260200182016040528015610540578160200160208202803683370190505b5090506000805b6003548110156106325760006003828154811061056657610566610baa565b60009182526020909120015460025460405162e795d760e11b81526001600160a01b03928316926301cf2bae926105a292911690600401610a9e565b60206040518083038186803b1580156105ba57600080fd5b505afa1580156105ce573d6000803e3d6000fd5b505050506040513d601f19601f820116820180604052508101906105f29190610c1c565b90508084838151811061060757610607610baa565b602090810291909101015261061c8184610ca5565b925050808061062a90610cbd565b915050610547565b5060005b60035481101561077357600354600090819061065490600190610b93565b83141561066c576106658187610b93565b91506106a9565b61069a85848151811061068157610681610baa565b6020026020010151876106949190610c35565b85610a8b565b91506106a68282610ca5565b90505b600254600380546001600160a01b039092169163095ea7b39190869081106106d3576106d3610baa565b6000918252602090912001546040516001600160e01b031960e084901b16815261070b916001600160a01b0316908690600401610c54565b602060405180830381600087803b15801561072557600080fd5b505af1158015610739573d6000803e3d6000fd5b505050506040513d601f19601f8201168201806040525081019061075d9190610c6d565b505050808061076b90610cbd565b915050610636565b505050505050565b61078361096b565b600280546001600160a01b0319166001600160a01b0392909216919091179055565b6000546001600160a01b031690565b6002546000906001600160a01b03166107df5760405162461bcd60e51b815260040161037b90610bd6565b6002546040516370a0823160e01b81526001600160a01b03909116906370a082319061080f903090600401610a9e565b60206040518083038186803b15801561082757600080fd5b505afa15801561083b573d6000803e3d6000fd5b505050506040513d601f19601f8201168201806040525081019061085f9190610c1c565b905090565b61086c61096b565b6001600160a01b0381166108d15760405162461bcd60e51b815260206004820152602660248201527f4f776e61626c653a206e6577206f776e657220697320746865207a65726f206160448201526564647265737360d01b606482015260840161037b565b6108da81610a3b565b50565b600180546108ea90610cd8565b80601f016020809104026020016040519081016040528092919081815260200182805461091690610cd8565b80156109635780601f1061093857610100808354040283529160200191610963565b820191906000526020600020905b81548152906001019060200180831161094657829003601f168201915b505050505081565b336109746107a5565b6001600160a01b0316146103515760405162461bcd60e51b815260206004820181905260248201527f4f776e61626c653a2063616c6c6572206973206e6f7420746865206f776e6572604482015260640161037b565b60008060005b600354811015610a2f57836001600160a01b0316600382815481106109f7576109f7610baa565b6000918252602090912001546001600160a01b03161415610a1d57600194909350915050565b80610a2781610cbd565b9150506109d0565b50600093849350915050565b600080546001600160a01b038381166001600160a01b0319831681178455604051919092169283917f8be0079c531659141344cd1fd0a4f28419497f9722a3daafe3b4186f6b6457e09190a35050565b6000610a978284610d13565b9392505050565b6001600160a01b0391909116815260200190565b600060208284031215610ac457600080fd5b81356001600160a01b0381168114610a9757600080fd5b6020808252825182820181905260009190848201906040850190845b81811015610b1c5783516001600160a01b031683529284019291840191600101610af7565b50909695505050505050565b600060208083528351808285015260005b81811015610b5557858101830151858201604001528201610b39565b81811115610b67576000604083870101525b50601f01601f1916929092016040019392505050565b634e487b7160e01b600052601160045260246000fd5b600082821015610ba557610ba5610b7d565b500390565b634e487b7160e01b600052603260045260246000fd5b634e487b7160e01b600052603160045260246000fd5b60208082526026908201527f52657761726420746f6b656e20636f6e74726163742061646472657373206973604082015265103d32b9379760d11b606082015260800190565b600060208284031215610c2e57600080fd5b5051919050565b6000816000190483118215151615610c4f57610c4f610b7d565b500290565b6001600160a01b03929092168252602082015260400190565b600060208284031215610c7f57600080fd5b81518015158114610a9757600080fd5b634e487b7160e01b600052604160045260246000fd5b60008219821115610cb857610cb8610b7d565b500190565b6000600019821415610cd157610cd1610b7d565b5060010190565b600181811c90821680610cec57607f821691505b60208210811415610d0d57634e487b7160e01b600052602260045260246000fd5b50919050565b600082610d3057634e487b7160e01b600052601260045260246000fd5b50049056fea2646970667358221220e4b2d5b254c6aba822f6d59b6bcbc9508bddfa0829f19ace580c2bc1d68e669564736f6c63430008090033",
  "linkReferences": {},
  "deployedLinkReferences": {}
}