{
  "_format": "hh-sol-artifact-1",
  "contractName": "rewardToken",
  "sourceName": "contracts/rewardToken.sol",
  "abi": [
    {
      "inputs": [
        {
          "internalType": "string",
          "name": "rewardTokenName_",
          "type": "string"
        },
        {
          "internalType": "string",
          "name": "rewardTokenSymbol_",
          "type": "string"
        },
        {
          "internalType": "address",
          "name": "rewardTokenShareContractAddress_",
          "type": "address"
        },
        {
          "internalType": "address",
          "name": "projectTeamAccountAddress_",
          "type": "address"
        }
      ],
      "stateMutability": "nonpayable",
      "type": "constructor"
    },
    {
      "anonymous": false,
      "inputs": [
        {
          "indexed": true,
          "internalType": "address",
          "name": "owner",
          "type": "address"
        },
        {
          "indexed": true,
          "internalType": "address",
          "name": "spender",
          "type": "address"
        },
        {
          "indexed": false,
          "internalType": "uint256",
          "name": "value",
          "type": "uint256"
        }
      ],
      "name": "Approval",
      "type": "event"
    },
    {
      "anonymous": false,
      "inputs": [
        {
          "indexed": false,
          "internalType": "uint256",
          "name": "amount",
          "type": "uint256"
        }
      ],
      "name": "RewardTokenReleased",
      "type": "event"
    },
    {
      "anonymous": false,
      "inputs": [
        {
          "indexed": true,
          "internalType": "address",
          "name": "from",
          "type": "address"
        },
        {
          "indexed": true,
          "internalType": "address",
          "name": "to",
          "type": "address"
        },
        {
          "indexed": false,
          "internalType": "uint256",
          "name": "value",
          "type": "uint256"
        }
      ],
      "name": "Transfer",
      "type": "event"
    },
    {
      "inputs": [],
      "name": "DOMAIN_SEPARATOR",
      "outputs": [
        {
          "internalType": "bytes32",
          "name": "",
          "type": "bytes32"
        }
      ],
      "stateMutability": "view",
      "type": "function"
    },
    {
      "inputs": [],
      "name": "VERSION",
      "outputs": [
        {
          "internalType": "string",
          "name": "",
          "type": "string"
        }
      ],
      "stateMutability": "view",
      "type": "function"
    },
    {
      "inputs": [
        {
          "internalType": "address",
          "name": "owner",
          "type": "address"
        },
        {
          "internalType": "address",
          "name": "spender",
          "type": "address"
        }
      ],
      "name": "allowance",
      "outputs": [
        {
          "internalType": "uint256",
          "name": "",
          "type": "uint256"
        }
      ],
      "stateMutability": "view",
      "type": "function"
    },
    {
      "inputs": [
        {
          "internalType": "address",
          "name": "spender",
          "type": "address"
        },
        {
          "internalType": "uint256",
          "name": "amount",
          "type": "uint256"
        }
      ],
      "name": "approve",
      "outputs": [
        {
          "internalType": "bool",
          "name": "",
          "type": "bool"
        }
      ],
      "stateMutability": "nonpayable",
      "type": "function"
    },
    {
      "inputs": [
        {
          "internalType": "address",
          "name": "account",
          "type": "address"
        }
      ],
      "name": "balanceOf",
      "outputs": [
        {
          "internalType": "uint256",
          "name": "",
          "type": "uint256"
        }
      ],
      "stateMutability": "view",
      "type": "function"
    },
    {
      "inputs": [],
      "name": "currentReleasable",
      "outputs": [
        {
          "internalType": "uint256",
          "name": "",
          "type": "uint256"
        }
      ],
      "stateMutability": "view",
      "type": "function"
    },
    {
      "inputs": [],
      "name": "decimals",
      "outputs": [
        {
          "internalType": "uint8",
          "name": "",
          "type": "uint8"
        }
      ],
      "stateMutability": "view",
      "type": "function"
    },
    {
      "inputs": [
        {
          "internalType": "address",
          "name": "spender",
          "type": "address"
        },
        {
          "internalType": "uint256",
          "name": "subtractedValue",
          "type": "uint256"
        }
      ],
      "name": "decreaseAllowance",
      "outputs": [
        {
          "internalType": "bool",
          "name": "",
          "type": "bool"
        }
      ],
      "stateMutability": "nonpayable",
      "type": "function"
    },
    {
      "inputs": [],
      "name": "duration",
      "outputs": [
        {
          "internalType": "uint256",
          "name": "",
          "type": "uint256"
        }
      ],
      "stateMutability": "view",
      "type": "function"
    },
    {
      "inputs": [],
      "name": "frequency",
      "outputs": [
        {
          "internalType": "uint256",
          "name": "",
          "type": "uint256"
        }
      ],
      "stateMutability": "view",
      "type": "function"
    },
    {
      "inputs": [
        {
          "internalType": "address",
          "name": "spender",
          "type": "address"
        },
        {
          "internalType": "uint256",
          "name": "addedValue",
          "type": "uint256"
        }
      ],
      "name": "increaseAllowance",
      "outputs": [
        {
          "internalType": "bool",
          "name": "",
          "type": "bool"
        }
      ],
      "stateMutability": "nonpayable",
      "type": "function"
    },
    {
      "inputs": [],
      "name": "minimumReleasable",
      "outputs": [
        {
          "internalType": "uint256",
          "name": "",
          "type": "uint256"
        }
      ],
      "stateMutability": "view",
      "type": "function"
    },
    {
      "inputs": [],
      "name": "name",
      "outputs": [
        {
          "internalType": "string",
          "name": "",
          "type": "string"
        }
      ],
      "stateMutability": "view",
      "type": "function"
    },
    {
      "inputs": [
        {
          "internalType": "address",
          "name": "owner",
          "type": "address"
        }
      ],
      "name": "nonces",
      "outputs": [
        {
          "internalType": "uint256",
          "name": "",
          "type": "uint256"
        }
      ],
      "stateMutability": "view",
      "type": "function"
    },
    {
      "inputs": [
        {
          "internalType": "address",
          "name": "owner",
          "type": "address"
        },
        {
          "internalType": "address",
          "name": "spender",
          "type": "address"
        },
        {
          "internalType": "uint256",
          "name": "value",
          "type": "uint256"
        },
        {
          "internalType": "uint256",
          "name": "deadline",
          "type": "uint256"
        },
        {
          "internalType": "uint8",
          "name": "v",
          "type": "uint8"
        },
        {
          "internalType": "bytes32",
          "name": "r",
          "type": "bytes32"
        },
        {
          "internalType": "bytes32",
          "name": "s",
          "type": "bytes32"
        }
      ],
      "name": "permit",
      "outputs": [],
      "stateMutability": "nonpayable",
      "type": "function"
    },
    {
      "inputs": [],
      "name": "release",
      "outputs": [],
      "stateMutability": "nonpayable",
      "type": "function"
    },
    {
      "inputs": [],
      "name": "remainingTimestampToNextVesting",
      "outputs": [
        {
          "internalType": "uint256",
          "name": "",
          "type": "uint256"
        }
      ],
      "stateMutability": "view",
      "type": "function"
    },
    {
      "inputs": [],
      "name": "rewardTokenShareContractAddress",
      "outputs": [
        {
          "internalType": "address",
          "name": "",
          "type": "address"
        }
      ],
      "stateMutability": "view",
      "type": "function"
    },
    {
      "inputs": [],
      "name": "start",
      "outputs": [
        {
          "internalType": "uint256",
          "name": "",
          "type": "uint256"
        }
      ],
      "stateMutability": "view",
      "type": "function"
    },
    {
      "inputs": [],
      "name": "symbol",
      "outputs": [
        {
          "internalType": "string",
          "name": "",
          "type": "string"
        }
      ],
      "stateMutability": "view",
      "type": "function"
    },
    {
      "inputs": [],
      "name": "totalAllocation",
      "outputs": [
        {
          "internalType": "uint256",
          "name": "",
          "type": "uint256"
        }
      ],
      "stateMutability": "view",
      "type": "function"
    },
    {
      "inputs": [],
      "name": "totalReleased",
      "outputs": [
        {
          "internalType": "uint256",
          "name": "",
          "type": "uint256"
        }
      ],
      "stateMutability": "view",
      "type": "function"
    },
    {
      "inputs": [],
      "name": "totalSupply",
      "outputs": [
        {
          "internalType": "uint256",
          "name": "",
          "type": "uint256"
        }
      ],
      "stateMutability": "view",
      "type": "function"
    },
    {
      "inputs": [
        {
          "internalType": "uint256",
          "name": "timestamp_",
          "type": "uint256"
        }
      ],
      "name": "totalVestedAmount",
      "outputs": [
        {
          "internalType": "uint256",
          "name": "",
          "type": "uint256"
        }
      ],
      "stateMutability": "view",
      "type": "function"
    },
    {
      "inputs": [
        {
          "internalType": "address",
          "name": "to",
          "type": "address"
        },
        {
          "internalType": "uint256",
          "name": "amount",
          "type": "uint256"
        }
      ],
      "name": "transfer",
      "outputs": [
        {
          "internalType": "bool",
          "name": "",
          "type": "bool"
        }
      ],
      "stateMutability": "nonpayable",
      "type": "function"
    },
    {
      "inputs": [
        {
          "internalType": "address",
          "name": "from",
          "type": "address"
        },
        {
          "internalType": "address",
          "name": "to",
          "type": "address"
        },
        {
          "internalType": "uint256",
          "name": "amount",
          "type": "uint256"
        }
      ],
      "name": "transferFrom",
      "outputs": [
        {
          "internalType": "bool",
          "name": "",
          "type": "bool"
        }
      ],
      "stateMutability": "nonpayable",
      "type": "function"
    }
  ],
  "bytecode": "0x61020060405260056101c081905264302e302e3560d81b6101e09081526200002b9160079190620002dd565b503480156200003957600080fd5b5060405162001c6538038062001c658339810160408190526200005c916200046d565b8380604051806040016040528060018152602001603160f81b8152508686816003908051906020019062000092929190620002dd565b508051620000a8906004906020840190620002dd565b5050825160208085019190912083518483012060e08290526101008190524660a0818152604080517f8b73c3c69bb8fe3d512ecc4cf759cc79239f7b179b0ffacaa9a75d522b39400f81880181905281830187905260608201869052608082019490945230818401528151808203909301835260c0019052805194019390932091935091906080523060c0526101205250505050506001600160a01b038216620001bf5760405162461bcd60e51b815260206004820152603c60248201527f726577617264546f6b656e3a20726577617264546f6b656e5368617265436f6e60448201527f747261637441646472657373206973207a65726f20616464726573730000000060648201526084015b60405180910390fd5b6001600160a01b03821661014052426101605263090321006101805260326101a052620001f8816aa56fa5b99019a5c80000006200021a565b62000210306b0295be96e6406697200000006200021a565b5050505062000560565b6001600160a01b038216620002725760405162461bcd60e51b815260206004820152601f60248201527f45524332303a206d696e7420746f20746865207a65726f2061646472657373006044820152606401620001b6565b8060026000828254620002869190620004fc565b90915550506001600160a01b038216600081815260208181526040808320805486019055518481527fddf252ad1be2c89b69c2b068fc378daa952ba7f163c4a11628f55a4df523b3ef910160405180910390a35050565b828054620002eb9062000523565b90600052602060002090601f0160209004810192826200030f57600085556200035a565b82601f106200032a57805160ff19168380011785556200035a565b828001600101855582156200035a579182015b828111156200035a5782518255916020019190600101906200033d565b50620003689291506200036c565b5090565b5b808211156200036857600081556001016200036d565b634e487b7160e01b600052604160045260246000fd5b600082601f830112620003ab57600080fd5b81516001600160401b0380821115620003c857620003c862000383565b604051601f8301601f19908116603f01168101908282118183101715620003f357620003f362000383565b816040528381526020925086838588010111156200041057600080fd5b600091505b8382101562000434578582018301518183018401529082019062000415565b83821115620004465760008385830101525b9695505050505050565b80516001600160a01b03811681146200046857600080fd5b919050565b600080600080608085870312156200048457600080fd5b84516001600160401b03808211156200049c57600080fd5b620004aa8883890162000399565b95506020870151915080821115620004c157600080fd5b50620004d08782880162000399565b935050620004e16040860162000450565b9150620004f16060860162000450565b905092959194509250565b600082198211156200051e57634e487b7160e01b600052601160045260246000fd5b500190565b600181811c908216806200053857607f821691505b602082108114156200055a57634e487b7160e01b600052602260045260246000fd5b50919050565b60805160a05160c05160e05161010051610120516101405161016051610180516101a051611689620005dc60003960006108b70152600061038f015260006106e00152600061070401526000610d3301526000610d8201526000610d5d01526000610cb601526000610ce001526000610d0a01526116896000f3fe608060405234801561001057600080fd5b506004361061013e5760003560e01c806306fdde0314610143578063095ea7b3146101615780630fb5a6b41461018457806318160ddd1461019a57806323b872dd146101a2578063313ce567146101b55780633644e515146101c457806339509351146101cc5780633f6406f5146101df5780636916a207146101f257806370a08231146101fa57806379203dc4146102235780637ecebe001461022b5780637fbc5e711461023e57806386d1a69f1461024657806395d89b41146102505780639e4ed21614610258578063a457c2d714610260578063a9059cbb14610273578063be9a655514610286578063ca44496e1461028e578063d505accf146102a3578063dd62ed3e146102b6578063e33b7de3146102c9578063ead50da3146102d1578063ffa1ad74146102d9575b600080fd5b61014b6102e1565b6040516101589190611365565b60405180910390f35b61017461016f3660046113b4565b610373565b6040519015158152602001610158565b61018c61038d565b604051908152602001610158565b60025461018c565b6101746101b03660046113de565b6103b1565b60405160128152602001610158565b61018c6103d5565b6101746101da3660046113b4565b6103e4565b61018c6101ed36600461141a565b610406565b61018c610419565b61018c610208366004611433565b6001600160a01b031660009081526020819052604090205490565b61018c610437565b61018c610239366004611433565b6104bf565b61018c6104dd565b61024e6104f9565b005b61014b6105f3565b61018c610602565b61017461026e3660046113b4565b610655565b6101746102813660046113b4565b6106d0565b61018c6106de565b610296610702565b6040516101589190611455565b61024e6102b1366004611469565b610726565b61018c6102c43660046114dc565b61088a565b60085461018c565b61018c6108b5565b61014b6108d9565b6060600380546102f09061150f565b80601f016020809104026020016040519081016040528092919081815260200182805461031c9061150f565b80156103695780601f1061033e57610100808354040283529160200191610369565b820191906000526020600020905b81548152906001019060200180831161034c57829003601f168201915b5050505050905090565b600033610381818585610967565b60019150505b92915050565b7f000000000000000000000000000000000000000000000000000000000000000090565b6000336103bf858285610a8b565b6103ca858585610b05565b506001949350505050565b60006103df610ca9565b905090565b6000336103818185856103f7838361088a565b610401919061155a565b610967565b6000610387610413610437565b83610dd0565b600061042460085490565b61042d42610406565b6103df9190611572565b600061044260085490565b6040516370a0823160e01b815230906370a0823190610465908390600401611455565b60206040518083038186803b15801561047d57600080fd5b505afa158015610491573d6000803e3d6000fd5b505050506040513d601f19601f820116820180604052508101906104b59190611589565b6103df919061155a565b6001600160a01b038116600090815260056020526040812054610387565b60006104e76108b5565b6104ef610437565b6103df91906115b8565b6000610503610419565b905061050d6104dd565b81116105945760405162461bcd60e51b815260206004820152604560248201527f726577617264546f6b656e3a2052656c65617361626c6520616d6f756e74206960448201527f7320736d616c6c6572207468616e20746865206d696e696d756d52656c65617360648201526430b136329760d91b608482015260a4015b60405180910390fd5b6105a6306105a0610702565b83610e4a565b80600860008282546105b8919061155a565b90915550506040518181527fd3f992c7c1e4410888fed88c0f4274d4d31419df66d8fbb0ac18d687612850bc9060200160405180910390a150565b6060600480546102f09061150f565b6000428161060e6108b5565b61061661038d565b61062091906115b8565b905060008161062d6106de565b6106379085611572565b61064191906115cc565b905061064d8183611572565b935050505090565b60003381610663828661088a565b9050838110156106c35760405162461bcd60e51b815260206004820152602560248201527f45524332303a2064656372656173656420616c6c6f77616e63652062656c6f77604482015264207a65726f60d81b606482015260840161058b565b6103ca8286868403610967565b600033610381818585610b05565b7f000000000000000000000000000000000000000000000000000000000000000090565b7f000000000000000000000000000000000000000000000000000000000000000090565b834211156107765760405162461bcd60e51b815260206004820152601d60248201527f45524332305065726d69743a206578706972656420646561646c696e65000000604482015260640161058b565b60007f6e71edae12b1b97f4d1f60370fef10105fa2faae0126114a169c64845d6126c98888886107a58c610ea1565b6040805160208101969096526001600160a01b0394851690860152929091166060840152608083015260a082015260c0810186905260e001604051602081830303815290604052805190602001209050600061080082610ec9565b9050600061081082878787610f17565b9050896001600160a01b0316816001600160a01b0316146108735760405162461bcd60e51b815260206004820152601e60248201527f45524332305065726d69743a20696e76616c6964207369676e61747572650000604482015260640161058b565b61087e8a8a8a610967565b50505050505050505050565b6001600160a01b03918216600090815260016020908152604080832093909416825291909152205490565b7f000000000000000000000000000000000000000000000000000000000000000090565b600780546108e69061150f565b80601f01602080910402602001604051908101604052809291908181526020018280546109129061150f565b801561095f5780601f106109345761010080835404028352916020019161095f565b820191906000526020600020905b81548152906001019060200180831161094257829003601f168201915b505050505081565b6001600160a01b0383166109c95760405162461bcd60e51b8152602060048201526024808201527f45524332303a20617070726f76652066726f6d20746865207a65726f206164646044820152637265737360e01b606482015260840161058b565b6001600160a01b038216610a2a5760405162461bcd60e51b815260206004820152602260248201527f45524332303a20617070726f766520746f20746865207a65726f206164647265604482015261737360f01b606482015260840161058b565b6001600160a01b0383811660008181526001602090815260408083209487168084529482529182902085905590518481527f8c5be1e5ebec7d5bd14f71427d1e84f3dd0314c0f7b2291e5b200ac8c7c3b925910160405180910390a3505050565b6000610a97848461088a565b90506000198114610aff5781811015610af25760405162461bcd60e51b815260206004820152601d60248201527f45524332303a20696e73756666696369656e7420616c6c6f77616e6365000000604482015260640161058b565b610aff8484848403610967565b50505050565b6001600160a01b038316610b695760405162461bcd60e51b815260206004820152602560248201527f45524332303a207472616e736665722066726f6d20746865207a65726f206164604482015264647265737360d81b606482015260840161058b565b6001600160a01b038216610bcb5760405162461bcd60e51b815260206004820152602360248201527f45524332303a207472616e7366657220746f20746865207a65726f206164647260448201526265737360e81b606482015260840161058b565b6001600160a01b03831660009081526020819052604090205481811015610c435760405162461bcd60e51b815260206004820152602660248201527f45524332303a207472616e7366657220616d6f756e7420657863656564732062604482015265616c616e636560d01b606482015260840161058b565b6001600160a01b03848116600081815260208181526040808320878703905593871680835291849020805487019055925185815290927fddf252ad1be2c89b69c2b068fc378daa952ba7f163c4a11628f55a4df523b3ef910160405180910390a3610aff565b6000306001600160a01b037f000000000000000000000000000000000000000000000000000000000000000016148015610d0257507f000000000000000000000000000000000000000000000000000000000000000046145b15610d2c57507f000000000000000000000000000000000000000000000000000000000000000090565b50604080517f00000000000000000000000000000000000000000000000000000000000000006020808301919091527f0000000000000000000000000000000000000000000000000000000000000000828401527f000000000000000000000000000000000000000000000000000000000000000060608301524660808301523060a0808401919091528351808403909101815260c0909201909252805191012090565b6000610dda6106de565b821015610de957506000610387565b610df161038d565b610df96106de565b610e03919061155a565b821115610e11575081610387565b6000610e1b61038d565b610e236106de565b610e2d9085611572565b610e3790866115e0565b610e4191906115b8565b91506103879050565b604080516001600160a01b038416602482015260448082018490528251808303909101815260649091019091526020810180516001600160e01b031663a9059cbb60e01b179052610e9c908490610f41565b505050565b6001600160a01b03811660009081526005602052604090208054600181018255905b50919050565b6000610387610ed6610ca9565b8360405161190160f01b6020820152602281018390526042810182905260009060620160405160208183030381529060405280519060200120905092915050565b6000806000610f2887878787611013565b91509150610f35816110cd565b5090505b949350505050565b6000610f96826040518060400160405280602081526020017f5361666545524332303a206c6f772d6c6576656c2063616c6c206661696c6564815250856001600160a01b03166112199092919063ffffffff16565b805190915015610e9c5780806020019051810190610fb491906115ff565b610e9c5760405162461bcd60e51b815260206004820152602a60248201527f5361666545524332303a204552433230206f7065726174696f6e20646964206e6044820152691bdd081cdd58d8d9595960b21b606482015260840161058b565b6000806fa2a8918ca85bafe22016d0b997e4df60600160ff1b0383111561104057506000905060036110c4565b6040805160008082526020820180845289905260ff881692820192909252606081018690526080810185905260019060a0016020604051602081039080840390855afa158015611094573d6000803e3d6000fd5b5050604051601f1901519150506001600160a01b0381166110bd576000600192509250506110c4565b9150600090505b94509492505050565b60008160048111156110e1576110e1611621565b14156110ea5750565b60018160048111156110fe576110fe611621565b14156111475760405162461bcd60e51b815260206004820152601860248201527745434453413a20696e76616c6964207369676e617475726560401b604482015260640161058b565b600281600481111561115b5761115b611621565b14156111a95760405162461bcd60e51b815260206004820152601f60248201527f45434453413a20696e76616c6964207369676e6174757265206c656e67746800604482015260640161058b565b60038160048111156111bd576111bd611621565b14156112165760405162461bcd60e51b815260206004820152602260248201527f45434453413a20696e76616c6964207369676e6174757265202773272076616c604482015261756560f01b606482015260840161058b565b50565b6060610f39848460008585600080866001600160a01b031685876040516112409190611637565b60006040518083038185875af1925050503d806000811461127d576040519150601f19603f3d011682016040523d82523d6000602084013e611282565b606091505b50915091506112938783838761129e565b979650505050505050565b6060831561130a578251611303576001600160a01b0385163b6113035760405162461bcd60e51b815260206004820152601d60248201527f416464726573733a2063616c6c20746f206e6f6e2d636f6e7472616374000000604482015260640161058b565b5081610f39565b610f39838381511561131f5781518083602001fd5b8060405162461bcd60e51b815260040161058b9190611365565b60005b8381101561135457818101518382015260200161133c565b83811115610aff5750506000910152565b6020815260008251806020840152611384816040850160208701611339565b601f01601f19169190910160400192915050565b80356001600160a01b03811681146113af57600080fd5b919050565b600080604083850312156113c757600080fd5b6113d083611398565b946020939093013593505050565b6000806000606084860312156113f357600080fd5b6113fc84611398565b925061140a60208501611398565b9150604084013590509250925092565b60006020828403121561142c57600080fd5b5035919050565b60006020828403121561144557600080fd5b61144e82611398565b9392505050565b6001600160a01b0391909116815260200190565b600080600080600080600060e0888a03121561148457600080fd5b61148d88611398565b965061149b60208901611398565b95506040880135945060608801359350608088013560ff811681146114bf57600080fd5b9699959850939692959460a0840135945060c09093013592915050565b600080604083850312156114ef57600080fd5b6114f883611398565b915061150660208401611398565b90509250929050565b600181811c9082168061152357607f821691505b60208210811415610ec357634e487b7160e01b600052602260045260246000fd5b634e487b7160e01b600052601160045260246000fd5b6000821982111561156d5761156d611544565b500190565b60008282101561158457611584611544565b500390565b60006020828403121561159b57600080fd5b5051919050565b634e487b7160e01b600052601260045260246000fd5b6000826115c7576115c76115a2565b500490565b6000826115db576115db6115a2565b500690565b60008160001904831182151516156115fa576115fa611544565b500290565b60006020828403121561161157600080fd5b8151801515811461144e57600080fd5b634e487b7160e01b600052602160045260246000fd5b60008251611649818460208701611339565b919091019291505056fea264697066735822122071f0bcf05af50f8755e2cca919789355d90e95f4ff1487d3ac74d5ba4fc16eee64736f6c63430008090033",
  "linkReferences": {},
  "deployedLinkReferences": {}
}