{
  "_format": "hh-sol-artifact-1",
  "contractName": "rewardToken",
  "sourceName": "contracts/rewardToken.sol",
  "abi": [
    {
      "inputs": [
        {
          "internalType": "string",
          "name": "rewardTokenName_",
          "type": "string"
        },
        {
          "internalType": "string",
          "name": "rewardTokenSymbol_",
          "type": "string"
        },
        {
          "internalType": "address",
          "name": "rewardTokenShareContractAddress_",
          "type": "address"
        },
        {
          "internalType": "address",
          "name": "projectTeamAccountAddress_",
          "type": "address"
        }
      ],
      "stateMutability": "nonpayable",
      "type": "constructor"
    },
    {
      "inputs": [],
      "name": "InvalidShortString",
      "type": "error"
    },
    {
      "inputs": [
        {
          "internalType": "string",
          "name": "str",
          "type": "string"
        }
      ],
      "name": "StringTooLong",
      "type": "error"
    },
    {
      "anonymous": false,
      "inputs": [
        {
          "indexed": true,
          "internalType": "address",
          "name": "owner",
          "type": "address"
        },
        {
          "indexed": true,
          "internalType": "address",
          "name": "spender",
          "type": "address"
        },
        {
          "indexed": false,
          "internalType": "uint256",
          "name": "value",
          "type": "uint256"
        }
      ],
      "name": "Approval",
      "type": "event"
    },
    {
      "anonymous": false,
      "inputs": [],
      "name": "EIP712DomainChanged",
      "type": "event"
    },
    {
      "anonymous": false,
      "inputs": [
        {
          "indexed": false,
          "internalType": "uint256",
          "name": "amount",
          "type": "uint256"
        }
      ],
      "name": "RewardTokenReleased",
      "type": "event"
    },
    {
      "anonymous": false,
      "inputs": [
        {
          "indexed": true,
          "internalType": "address",
          "name": "from",
          "type": "address"
        },
        {
          "indexed": true,
          "internalType": "address",
          "name": "to",
          "type": "address"
        },
        {
          "indexed": false,
          "internalType": "uint256",
          "name": "value",
          "type": "uint256"
        }
      ],
      "name": "Transfer",
      "type": "event"
    },
    {
      "inputs": [],
      "name": "DOMAIN_SEPARATOR",
      "outputs": [
        {
          "internalType": "bytes32",
          "name": "",
          "type": "bytes32"
        }
      ],
      "stateMutability": "view",
      "type": "function"
    },
    {
      "inputs": [],
      "name": "VERSION",
      "outputs": [
        {
          "internalType": "string",
          "name": "",
          "type": "string"
        }
      ],
      "stateMutability": "view",
      "type": "function"
    },
    {
      "inputs": [
        {
          "internalType": "address",
          "name": "owner",
          "type": "address"
        },
        {
          "internalType": "address",
          "name": "spender",
          "type": "address"
        }
      ],
      "name": "allowance",
      "outputs": [
        {
          "internalType": "uint256",
          "name": "",
          "type": "uint256"
        }
      ],
      "stateMutability": "view",
      "type": "function"
    },
    {
      "inputs": [
        {
          "internalType": "address",
          "name": "spender",
          "type": "address"
        },
        {
          "internalType": "uint256",
          "name": "amount",
          "type": "uint256"
        }
      ],
      "name": "approve",
      "outputs": [
        {
          "internalType": "bool",
          "name": "",
          "type": "bool"
        }
      ],
      "stateMutability": "nonpayable",
      "type": "function"
    },
    {
      "inputs": [
        {
          "internalType": "address",
          "name": "account",
          "type": "address"
        }
      ],
      "name": "balanceOf",
      "outputs": [
        {
          "internalType": "uint256",
          "name": "",
          "type": "uint256"
        }
      ],
      "stateMutability": "view",
      "type": "function"
    },
    {
      "inputs": [],
      "name": "currentReleasable",
      "outputs": [
        {
          "internalType": "uint256",
          "name": "",
          "type": "uint256"
        }
      ],
      "stateMutability": "view",
      "type": "function"
    },
    {
      "inputs": [],
      "name": "decimals",
      "outputs": [
        {
          "internalType": "uint8",
          "name": "",
          "type": "uint8"
        }
      ],
      "stateMutability": "view",
      "type": "function"
    },
    {
      "inputs": [
        {
          "internalType": "address",
          "name": "spender",
          "type": "address"
        },
        {
          "internalType": "uint256",
          "name": "subtractedValue",
          "type": "uint256"
        }
      ],
      "name": "decreaseAllowance",
      "outputs": [
        {
          "internalType": "bool",
          "name": "",
          "type": "bool"
        }
      ],
      "stateMutability": "nonpayable",
      "type": "function"
    },
    {
      "inputs": [],
      "name": "duration",
      "outputs": [
        {
          "internalType": "uint256",
          "name": "",
          "type": "uint256"
        }
      ],
      "stateMutability": "view",
      "type": "function"
    },
    {
      "inputs": [],
      "name": "eip712Domain",
      "outputs": [
        {
          "internalType": "bytes1",
          "name": "fields",
          "type": "bytes1"
        },
        {
          "internalType": "string",
          "name": "name",
          "type": "string"
        },
        {
          "internalType": "string",
          "name": "version",
          "type": "string"
        },
        {
          "internalType": "uint256",
          "name": "chainId",
          "type": "uint256"
        },
        {
          "internalType": "address",
          "name": "verifyingContract",
          "type": "address"
        },
        {
          "internalType": "bytes32",
          "name": "salt",
          "type": "bytes32"
        },
        {
          "internalType": "uint256[]",
          "name": "extensions",
          "type": "uint256[]"
        }
      ],
      "stateMutability": "view",
      "type": "function"
    },
    {
      "inputs": [],
      "name": "frequency",
      "outputs": [
        {
          "internalType": "uint256",
          "name": "",
          "type": "uint256"
        }
      ],
      "stateMutability": "view",
      "type": "function"
    },
    {
      "inputs": [
        {
          "internalType": "address",
          "name": "spender",
          "type": "address"
        },
        {
          "internalType": "uint256",
          "name": "addedValue",
          "type": "uint256"
        }
      ],
      "name": "increaseAllowance",
      "outputs": [
        {
          "internalType": "bool",
          "name": "",
          "type": "bool"
        }
      ],
      "stateMutability": "nonpayable",
      "type": "function"
    },
    {
      "inputs": [],
      "name": "minimumReleasable",
      "outputs": [
        {
          "internalType": "uint256",
          "name": "",
          "type": "uint256"
        }
      ],
      "stateMutability": "view",
      "type": "function"
    },
    {
      "inputs": [],
      "name": "name",
      "outputs": [
        {
          "internalType": "string",
          "name": "",
          "type": "string"
        }
      ],
      "stateMutability": "view",
      "type": "function"
    },
    {
      "inputs": [
        {
          "internalType": "address",
          "name": "owner",
          "type": "address"
        }
      ],
      "name": "nonces",
      "outputs": [
        {
          "internalType": "uint256",
          "name": "",
          "type": "uint256"
        }
      ],
      "stateMutability": "view",
      "type": "function"
    },
    {
      "inputs": [
        {
          "internalType": "address",
          "name": "owner",
          "type": "address"
        },
        {
          "internalType": "address",
          "name": "spender",
          "type": "address"
        },
        {
          "internalType": "uint256",
          "name": "value",
          "type": "uint256"
        },
        {
          "internalType": "uint256",
          "name": "deadline",
          "type": "uint256"
        },
        {
          "internalType": "uint8",
          "name": "v",
          "type": "uint8"
        },
        {
          "internalType": "bytes32",
          "name": "r",
          "type": "bytes32"
        },
        {
          "internalType": "bytes32",
          "name": "s",
          "type": "bytes32"
        }
      ],
      "name": "permit",
      "outputs": [],
      "stateMutability": "nonpayable",
      "type": "function"
    },
    {
      "inputs": [],
      "name": "release",
      "outputs": [],
      "stateMutability": "nonpayable",
      "type": "function"
    },
    {
      "inputs": [],
      "name": "remainingTimestampToNextVesting",
      "outputs": [
        {
          "internalType": "uint256",
          "name": "",
          "type": "uint256"
        }
      ],
      "stateMutability": "view",
      "type": "function"
    },
    {
      "inputs": [],
      "name": "rewardTokenShareContractAddress",
      "outputs": [
        {
          "internalType": "address",
          "name": "",
          "type": "address"
        }
      ],
      "stateMutability": "view",
      "type": "function"
    },
    {
      "inputs": [],
      "name": "start",
      "outputs": [
        {
          "internalType": "uint256",
          "name": "",
          "type": "uint256"
        }
      ],
      "stateMutability": "view",
      "type": "function"
    },
    {
      "inputs": [],
      "name": "symbol",
      "outputs": [
        {
          "internalType": "string",
          "name": "",
          "type": "string"
        }
      ],
      "stateMutability": "view",
      "type": "function"
    },
    {
      "inputs": [],
      "name": "totalAllocation",
      "outputs": [
        {
          "internalType": "uint256",
          "name": "",
          "type": "uint256"
        }
      ],
      "stateMutability": "view",
      "type": "function"
    },
    {
      "inputs": [],
      "name": "totalReleased",
      "outputs": [
        {
          "internalType": "uint256",
          "name": "",
          "type": "uint256"
        }
      ],
      "stateMutability": "view",
      "type": "function"
    },
    {
      "inputs": [],
      "name": "totalSupply",
      "outputs": [
        {
          "internalType": "uint256",
          "name": "",
          "type": "uint256"
        }
      ],
      "stateMutability": "view",
      "type": "function"
    },
    {
      "inputs": [
        {
          "internalType": "uint256",
          "name": "timestamp_",
          "type": "uint256"
        }
      ],
      "name": "totalVestedAmount",
      "outputs": [
        {
          "internalType": "uint256",
          "name": "",
          "type": "uint256"
        }
      ],
      "stateMutability": "view",
      "type": "function"
    },
    {
      "inputs": [
        {
          "internalType": "address",
          "name": "to",
          "type": "address"
        },
        {
          "internalType": "uint256",
          "name": "amount",
          "type": "uint256"
        }
      ],
      "name": "transfer",
      "outputs": [
        {
          "internalType": "bool",
          "name": "",
          "type": "bool"
        }
      ],
      "stateMutability": "nonpayable",
      "type": "function"
    },
    {
      "inputs": [
        {
          "internalType": "address",
          "name": "from",
          "type": "address"
        },
        {
          "internalType": "address",
          "name": "to",
          "type": "address"
        },
        {
          "internalType": "uint256",
          "name": "amount",
          "type": "uint256"
        }
      ],
      "name": "transferFrom",
      "outputs": [
        {
          "internalType": "bool",
          "name": "",
          "type": "bool"
        }
      ],
      "stateMutability": "nonpayable",
      "type": "function"
    }
  ],
  "bytecode": "0x61022060405260056101e081905264302e302e3560d81b6102009081526200002b9160099190620003b5565b503480156200003957600080fd5b5060405162002123380380620021238339810160408190526200005c9162000552565b8380604051806040016040528060018152602001603160f81b8152508686816003908051906020019062000092929190620003b5565b508051620000a8906004906020840190620003b5565b505050620000c66005836200025860201b62000a161790919060201c565b61012052620000e381600662000258602090811b62000a1617901c565b61014052815160208084019190912060e052815190820120610100524660a0526200017160e05161010051604080517f8b73c3c69bb8fe3d512ecc4cf759cc79239f7b179b0ffacaa9a75d522b39400f60208201529081019290925260608201524660808201523060a082015260009060c00160405160208183030381529060405280519060200120905090565b60805250503060c052506001600160a01b038216620001fd5760405162461bcd60e51b815260206004820152603c60248201527f726577617264546f6b656e3a20726577617264546f6b656e5368617265436f6e60448201527f747261637441646472657373206973207a65726f20616464726573730000000060648201526084015b60405180910390fd5b6001600160a01b03821661016052426101805263090321006101a05260326101c05262000236816aa56fa5b99019a5c8000000620002ac565b6200024e306b0295be96e640669720000000620002ac565b505050506200069c565b6000602083511015620002785762000270836200036f565b9050620002a6565b826200028f83620003b260201b62000a4d1760201c565b8151620002a09260200190620003b5565b5060ff90505b92915050565b6001600160a01b038216620003045760405162461bcd60e51b815260206004820152601f60248201527f45524332303a206d696e7420746f20746865207a65726f2061646472657373006044820152606401620001f4565b8060026000828254620003189190620005e1565b90915550506001600160a01b038216600081815260208181526040808320805486019055518481527fddf252ad1be2c89b69c2b068fc378daa952ba7f163c4a11628f55a4df523b3ef910160405180910390a35050565b600080829050601f815111156200039d578260405163305a27a960e01b8152600401620001f4919062000608565b8051620003aa826200063d565b179392505050565b90565b828054620003c39062000665565b90600052602060002090601f016020900481019282620003e7576000855562000432565b82601f106200040257805160ff191683800117855562000432565b8280016001018555821562000432579182015b828111156200043257825182559160200191906001019062000415565b506200044092915062000444565b5090565b5b8082111562000440576000815560010162000445565b634e487b7160e01b600052604160045260246000fd5b60005b838110156200048e57818101518382015260200162000474565b838111156200049e576000848401525b50505050565b600082601f830112620004b657600080fd5b81516001600160401b0380821115620004d357620004d36200045b565b604051601f8301601f19908116603f01168101908282118183101715620004fe57620004fe6200045b565b816040528381528660208588010111156200051857600080fd5b6200052b84602083016020890162000471565b9695505050505050565b80516001600160a01b03811681146200054d57600080fd5b919050565b600080600080608085870312156200056957600080fd5b84516001600160401b03808211156200058157600080fd5b6200058f88838901620004a4565b95506020870151915080821115620005a657600080fd5b50620005b587828801620004a4565b935050620005c66040860162000535565b9150620005d66060860162000535565b905092959194509250565b600082198211156200060357634e487b7160e01b600052601160045260246000fd5b500190565b60208152600082518060208401526200062981604085016020870162000471565b601f01601f19169190910160400192915050565b805160208083015191908110156200065f576000198160200360031b1b821691505b50919050565b600181811c908216806200067a57607f821691505b602082108114156200065f57634e487b7160e01b600052602260045260246000fd5b60805160a05160c05160e05161010051610120516101405161016051610180516101a0516101c051611a00620007236000396000610966015260006103b50152600061078f015260006107b3015260006105580152600061052d01526000610e6c01526000610e4401526000610d9f01526000610dc901526000610df30152611a006000f3fe608060405234801561001057600080fd5b50600436106101495760003560e01c806306fdde031461014e578063095ea7b31461016c5780630fb5a6b41461018f57806318160ddd146101a557806323b872dd146101ad578063313ce567146101c05780633644e515146101cf57806339509351146101d75780633f6406f5146101ea5780636916a207146101fd57806370a082311461020557806379203dc41461022e5780637ecebe00146102365780637fbc5e711461024957806384b0196e1461025157806386d1a69f1461026c57806395d89b41146102765780639e4ed2161461027e578063a457c2d714610286578063a9059cbb14610299578063be9a6555146102ac578063ca44496e146102b4578063d505accf146102c9578063dd62ed3e146102dc578063e33b7de3146102ef578063ead50da3146102f7578063ffa1ad74146102ff575b600080fd5b610156610307565b6040516101639190611642565b60405180910390f35b61017f61017a366004611678565b610399565b6040519015158152602001610163565b6101976103b3565b604051908152602001610163565b600254610197565b61017f6101bb3660046116a2565b6103d7565b60405160128152602001610163565b6101976103fb565b61017f6101e5366004611678565b61040a565b6101976101f83660046116de565b61042c565b61019761043f565b6101976102133660046116f7565b6001600160a01b031660009081526020819052604090205490565b61019761045d565b6101976102443660046116f7565b6104e5565b610197610503565b61025961051f565b6040516101639796959493929190611712565b6102746105a8565b005b6101566106a2565b6101976106b1565b61017f610294366004611678565b610704565b61017f6102a7366004611678565b61077f565b61019761078d565b6102bc6107b1565b60405161016391906117a8565b6102746102d73660046117bc565b6107d5565b6101976102ea36600461182f565b610939565b600a54610197565b610197610964565b610156610988565b60606003805461031690611862565b80601f016020809104026020016040519081016040528092919081815260200182805461034290611862565b801561038f5780601f106103645761010080835404028352916020019161038f565b820191906000526020600020905b81548152906001019060200180831161037257829003601f168201915b5050505050905090565b6000336103a7818585610a50565b60019150505b92915050565b7f000000000000000000000000000000000000000000000000000000000000000090565b6000336103e5858285610b74565b6103f0858585610bee565b506001949350505050565b6000610405610d92565b905090565b6000336103a781858561041d8383610939565b61042791906118ad565b610a50565b60006103ad61043961045d565b83610ebd565b600061044a600a5490565b6104534261042c565b61040591906118c5565b6000610468600a5490565b6040516370a0823160e01b815230906370a082319061048b9083906004016117a8565b60206040518083038186803b1580156104a357600080fd5b505afa1580156104b7573d6000803e3d6000fd5b505050506040513d601f19601f820116820180604052508101906104db91906118dc565b61040591906118ad565b6001600160a01b0381166000908152600760205260408120546103ad565b600061050d610964565b61051561045d565b610405919061190b565b6000606080828080836105537f00000000000000000000000000000000000000000000000000000000000000006005610f37565b61057e7f00000000000000000000000000000000000000000000000000000000000000006006610f37565b60408051600080825260208201909252600f60f81b9b939a50919850469750309650945092509050565b60006105b261043f565b90506105bc610503565b81116106435760405162461bcd60e51b815260206004820152604560248201527f726577617264546f6b656e3a2052656c65617361626c6520616d6f756e74206960448201527f7320736d616c6c6572207468616e20746865206d696e696d756d52656c65617360648201526430b136329760d91b608482015260a4015b60405180910390fd5b6106553061064f6107b1565b83610fdb565b80600a600082825461066791906118ad565b90915550506040518181527fd3f992c7c1e4410888fed88c0f4274d4d31419df66d8fbb0ac18d687612850bc9060200160405180910390a150565b60606004805461031690611862565b600042816106bd610964565b6106c56103b3565b6106cf919061190b565b90506000816106dc61078d565b6106e690856118c5565b6106f0919061191f565b90506106fc81836118c5565b935050505090565b600033816107128286610939565b9050838110156107725760405162461bcd60e51b815260206004820152602560248201527f45524332303a2064656372656173656420616c6c6f77616e63652062656c6f77604482015264207a65726f60d81b606482015260840161063a565b6103f08286868403610a50565b6000336103a7818585610bee565b7f000000000000000000000000000000000000000000000000000000000000000090565b7f000000000000000000000000000000000000000000000000000000000000000090565b834211156108255760405162461bcd60e51b815260206004820152601d60248201527f45524332305065726d69743a206578706972656420646561646c696e65000000604482015260640161063a565b60007f6e71edae12b1b97f4d1f60370fef10105fa2faae0126114a169c64845d6126c98888886108548c611032565b6040805160208101969096526001600160a01b0394851690860152929091166060840152608083015260a082015260c0810186905260e00160405160208183030381529060405280519060200120905060006108af8261105a565b905060006108bf82878787611087565b9050896001600160a01b0316816001600160a01b0316146109225760405162461bcd60e51b815260206004820152601e60248201527f45524332305065726d69743a20696e76616c6964207369676e61747572650000604482015260640161063a565b61092d8a8a8a610a50565b50505050505050505050565b6001600160a01b03918216600090815260016020908152604080832093909416825291909152205490565b7f000000000000000000000000000000000000000000000000000000000000000090565b6009805461099590611862565b80601f01602080910402602001604051908101604052809291908181526020018280546109c190611862565b8015610a0e5780601f106109e357610100808354040283529160200191610a0e565b820191906000526020600020905b8154815290600101906020018083116109f157829003601f168201915b505050505081565b6000602083511015610a3257610a2b836110b1565b90506103ad565b82828151610a439260200190611551565b5060ff90506103ad565b90565b6001600160a01b038316610ab25760405162461bcd60e51b8152602060048201526024808201527f45524332303a20617070726f76652066726f6d20746865207a65726f206164646044820152637265737360e01b606482015260840161063a565b6001600160a01b038216610b135760405162461bcd60e51b815260206004820152602260248201527f45524332303a20617070726f766520746f20746865207a65726f206164647265604482015261737360f01b606482015260840161063a565b6001600160a01b0383811660008181526001602090815260408083209487168084529482529182902085905590518481527f8c5be1e5ebec7d5bd14f71427d1e84f3dd0314c0f7b2291e5b200ac8c7c3b925910160405180910390a3505050565b6000610b808484610939565b90506000198114610be85781811015610bdb5760405162461bcd60e51b815260206004820152601d60248201527f45524332303a20696e73756666696369656e7420616c6c6f77616e6365000000604482015260640161063a565b610be88484848403610a50565b50505050565b6001600160a01b038316610c525760405162461bcd60e51b815260206004820152602560248201527f45524332303a207472616e736665722066726f6d20746865207a65726f206164604482015264647265737360d81b606482015260840161063a565b6001600160a01b038216610cb45760405162461bcd60e51b815260206004820152602360248201527f45524332303a207472616e7366657220746f20746865207a65726f206164647260448201526265737360e81b606482015260840161063a565b6001600160a01b03831660009081526020819052604090205481811015610d2c5760405162461bcd60e51b815260206004820152602660248201527f45524332303a207472616e7366657220616d6f756e7420657863656564732062604482015265616c616e636560d01b606482015260840161063a565b6001600160a01b03848116600081815260208181526040808320878703905593871680835291849020805487019055925185815290927fddf252ad1be2c89b69c2b068fc378daa952ba7f163c4a11628f55a4df523b3ef910160405180910390a3610be8565b6000306001600160a01b037f000000000000000000000000000000000000000000000000000000000000000016148015610deb57507f000000000000000000000000000000000000000000000000000000000000000046145b15610e1557507f000000000000000000000000000000000000000000000000000000000000000090565b610405604080517f8b73c3c69bb8fe3d512ecc4cf759cc79239f7b179b0ffacaa9a75d522b39400f60208201527f0000000000000000000000000000000000000000000000000000000000000000918101919091527f000000000000000000000000000000000000000000000000000000000000000060608201524660808201523060a082015260009060c00160405160208183030381529060405280519060200120905090565b6000610ec761078d565b821015610ed6575060006103ad565b610ede6103b3565b610ee661078d565b610ef091906118ad565b821115610efe5750816103ad565b6000610f086103b3565b610f1061078d565b610f1a90856118c5565b610f249086611933565b610f2e919061190b565b91506103ad9050565b606060ff8314610f4a57610a2b836110ef565b818054610f5690611862565b80601f0160208091040260200160405190810160405280929190818152602001828054610f8290611862565b8015610fcf5780601f10610fa457610100808354040283529160200191610fcf565b820191906000526020600020905b815481529060010190602001808311610fb257829003601f168201915b505050505090506103ad565b604080516001600160a01b038416602482015260448082018490528251808303909101815260649091019091526020810180516001600160e01b031663a9059cbb60e01b17905261102d90849061112e565b505050565b6001600160a01b03811660009081526007602052604090208054600181018255905b50919050565b60006103ad611067610d92565b8360405161190160f01b8152600281019290925260228201526042902090565b600080600061109887878787611203565b915091506110a5816112bd565b5090505b949350505050565b600080829050601f815111156110dc578260405163305a27a960e01b815260040161063a9190611642565b80516110e782611952565b179392505050565b606060006110fc83611409565b604080516020808252818301909252919250600091906020820181803683375050509182525060208101929092525090565b6000611183826040518060400160405280602081526020017f5361666545524332303a206c6f772d6c6576656c2063616c6c206661696c6564815250856001600160a01b03166114319092919063ffffffff16565b90508051600014806111a45750808060200190518101906111a49190611976565b61102d5760405162461bcd60e51b815260206004820152602a60248201527f5361666545524332303a204552433230206f7065726174696f6e20646964206e6044820152691bdd081cdd58d8d9595960b21b606482015260840161063a565b6000806fa2a8918ca85bafe22016d0b997e4df60600160ff1b0383111561123057506000905060036112b4565b6040805160008082526020820180845289905260ff881692820192909252606081018690526080810185905260019060a0016020604051602081039080840390855afa158015611284573d6000803e3d6000fd5b5050604051601f1901519150506001600160a01b0381166112ad576000600192509250506112b4565b9150600090505b94509492505050565b60008160048111156112d1576112d1611998565b14156112da5750565b60018160048111156112ee576112ee611998565b14156113375760405162461bcd60e51b815260206004820152601860248201527745434453413a20696e76616c6964207369676e617475726560401b604482015260640161063a565b600281600481111561134b5761134b611998565b14156113995760405162461bcd60e51b815260206004820152601f60248201527f45434453413a20696e76616c6964207369676e6174757265206c656e67746800604482015260640161063a565b60038160048111156113ad576113ad611998565b14156114065760405162461bcd60e51b815260206004820152602260248201527f45434453413a20696e76616c6964207369676e6174757265202773272076616c604482015261756560f01b606482015260840161063a565b50565b600060ff8216601f8111156103ad57604051632cd44ac360e21b815260040160405180910390fd5b60606110a9848460008585600080866001600160a01b0316858760405161145891906119ae565b60006040518083038185875af1925050503d8060008114611495576040519150601f19603f3d011682016040523d82523d6000602084013e61149a565b606091505b50915091506114ab878383876114b6565b979650505050505050565b6060831561152257825161151b576001600160a01b0385163b61151b5760405162461bcd60e51b815260206004820152601d60248201527f416464726573733a2063616c6c20746f206e6f6e2d636f6e7472616374000000604482015260640161063a565b50816110a9565b6110a983838151156115375781518083602001fd5b8060405162461bcd60e51b815260040161063a9190611642565b82805461155d90611862565b90600052602060002090601f01602090048101928261157f57600085556115c5565b82601f1061159857805160ff19168380011785556115c5565b828001600101855582156115c5579182015b828111156115c55782518255916020019190600101906115aa565b506115d19291506115d5565b5090565b5b808211156115d157600081556001016115d6565b60005b838110156116055781810151838201526020016115ed565b83811115610be85750506000910152565b6000815180845261162e8160208601602086016115ea565b601f01601f19169290920160200192915050565b6020815260006116556020830184611616565b9392505050565b80356001600160a01b038116811461167357600080fd5b919050565b6000806040838503121561168b57600080fd5b6116948361165c565b946020939093013593505050565b6000806000606084860312156116b757600080fd5b6116c08461165c565b92506116ce6020850161165c565b9150604084013590509250925092565b6000602082840312156116f057600080fd5b5035919050565b60006020828403121561170957600080fd5b6116558261165c565b60ff60f81b881681526000602060e08184015261173260e084018a611616565b8381036040850152611744818a611616565b606085018990526001600160a01b038816608086015260a0850187905284810360c0860152855180825283870192509083019060005b818110156117965783518352928401929184019160010161177a565b50909c9b505050505050505050505050565b6001600160a01b0391909116815260200190565b600080600080600080600060e0888a0312156117d757600080fd5b6117e08861165c565b96506117ee6020890161165c565b95506040880135945060608801359350608088013560ff8116811461181257600080fd5b9699959850939692959460a0840135945060c09093013592915050565b6000806040838503121561184257600080fd5b61184b8361165c565b91506118596020840161165c565b90509250929050565b600181811c9082168061187657607f821691505b6020821081141561105457634e487b7160e01b600052602260045260246000fd5b634e487b7160e01b600052601160045260246000fd5b600082198211156118c0576118c0611897565b500190565b6000828210156118d7576118d7611897565b500390565b6000602082840312156118ee57600080fd5b5051919050565b634e487b7160e01b600052601260045260246000fd5b60008261191a5761191a6118f5565b500490565b60008261192e5761192e6118f5565b500690565b600081600019048311821515161561194d5761194d611897565b500290565b805160208083015191908110156110545760001960209190910360031b1b16919050565b60006020828403121561198857600080fd5b8151801515811461165557600080fd5b634e487b7160e01b600052602160045260246000fd5b600082516119c08184602087016115ea565b919091019291505056fea2646970667358221220027a2ee87c3f0eaf354b5729ef225736721de7558dbb966d30fc2336dc865f9c64736f6c63430008090033",
  "linkReferences": {},
  "deployedLinkReferences": {}
}